:1000000005C100000C94F40F0C941F100C944A10BE
:100010000C9475100C94A0100C94CB100C94F6104A
:100020000C94211124C1000022C1000020C1000055
:100030001EC100001CC100001AC1000018C1000050
:1000400016C1000014C1000012C1000010C1000060
:100050000EC100000CC100000AC100000C944C113C
:1000600006C100000C94C5140C94FB1400C10000E0
:10007000FEC00000FCC00000FAC00000F8C0000094
:10008000F6C00000F4C00000F2C00000F0C00000A4
:100090000C9451150C948715EAC00000E8C00000CC
:1000A000E6C00000E4C00000E2C00000E0C00000C4
:1000B000DEC00000DCC00000DAC00000D8C00000D4
:1000C000D6C00000D4C000000C947E0C0C94DD154A
:1000D0000C941316CCC000000C9469160C949F1657
:1000E000C6C0000000000A0B02090C0D0E08070331
:1000F00004010000000000000000000000000000FB
:1001000000000000000000000000000000000000EF
:1001100012111000000000000000000000000000AC
:100120000000000000000000000001021020200874
:100130000810204010204080020102010804020142
:1001400001020408102040808040201008040201B1
:10015000800402018040201008040201080402010A
:100160000102040810204080010204081020408091
:1001700005050505070508080808020202020A0A23
:100180000808040404040101010101010101030341
:10019000030303030303040707070C0C0C0C0C0CEC
:1001A0000C0C0202020206060606060606060B0BE9
:1001B0000B0B0B0B0B0B000020002300260029006B
:1001C0002C002F003200000100000301060109018C
:1001D00000002200250028002B002E0031003400F2
:1001E00002010000050108010B01000021002400AC
:1001F00027002A002D003000330001010000040117
:1002000007010A012415B0153C16C81611241FBE9B
:10021000CFEFD1E2DEBFCDBF00E00CBF12E0A0E027
:10022000B2E0ECEEFEE200E00BBF02C007900D92E0
:10023000A837B107D9F725E0A8E7B2E001C01D92C1
:10024000A238B207E1F711E0C6E0D1E000E006C055
:1002500021970109802FFE010E945317C230D10758
:1002600080E00807A9F70E94E40C0C947417C8CE2C
:10027000FC01A781B0858C9191858923A481B581EA
:100280009C9140815181628173812681922359F032
:1002900081110BC04F5F5F4F6F4F7F4F4083518382
:1002A0006283738308958111F5CF4150510961092B
:1002B0007109F4CF89E792E0DBCF84E892E0D8CFF0
:1002C0008FE892E0D5CF8AE992E0D2CFFC01A481F9
:1002D000B5818C9196818923A781B0859C914081BD
:1002E0005181628173812185922359F0882359F0CD
:1002F0004F5F5F4F6F4F7F4F4083518362837383A4
:1003000008958823A9F34150510961097109F4CF77
:1003100089E792E0DBCF84E892E0D8CF8FE892E0E3
:10032000D5CF8AE992E0D2CF0F931F93CF93DF937B
:10033000D82FC62F8A01A09178028BE0A89FD00108
:100340001124A758BD4F1D921D921D921C92139708
:1003500081E01A968C931A978D2F90E0FC01E65D50
:10036000FE4FE4911696EC931697FC01E059FE4F70
:10037000E491F0E0EE0FFF1FEA54FE4F8591949157
:1003800015969C938E931497862F90E0FC01E65D62
:10039000FE4FE4911996EC931997FC01E059FE4F3A
:1003A000E491F0E0EE0FFF1FEA54FE4F8591949127
:1003B00018969C938E93179760E08D2F0E943213AE
:1003C00060E08C2F0E94321380917802813009F412
:1003D0003FC0A8F0823009F462C0833009F486C0BF
:1003E0008091780291E0980F90937802F8018083D1
:1003F00090E080E0DF91CF911F910F91089580E010
:10040000D23049F081E0D33031F08EEE8D0F843060
:10041000D8F487E18D1B41E050E06AE571E00E946D
:100420007B0F80E0C23049F081E0C33031F08EEEC6
:100430008C0F843058F487E18C1B41E050E068E871
:1004400071E00E947B0FCCCF8FEFE5CF8FEFF5CF20
:1004500080E0D23049F081E0D33031F08EEE8D0F64
:100460008430C8F487E18D1B41E050E06DE571E018
:100470000E947B0F80E0C23049F081E0C33031F050
:100480008EEE8C0F843048F487E18C1B41E050E005
:100490006BE871E0D6CF8FEFE7CF8FEFF7CF80E03B
:1004A000D23049F081E0D33031F08EEE8D0F8430C0
:1004B000C8F487E18D1B41E050E060E671E00E94E6
:1004C0007B0F80E0C23049F081E0C33031F08EEE26
:1004D0008C0F843048F487E18C1B41E050E06EE8DB
:1004E00071E0AFCF8FEFE7CF8FEFF7CF80E0D23063
:1004F00049F081E0D33031F08EEE8D0F8430C8F4B6
:1005000087E18D1B41E050E063E671E00E947B0FC4
:1005100080E0C23049F081E0C33031F08EEE8C0FC4
:10052000843048F487E18C1B41E050E061E971E0E0
:1005300088CF8FEFE7CF8FEFF7CF9BE0899FF00158
:100540001124E758FD4F80819181A281B381FB0185
:1005500080839183A283B38390E080E008959BE041
:10056000899FF0011124E758FD4F108211821282F9
:10057000138290E080E0089590E080E00895CF92AB
:10058000DF92EF92FF92CF93882351F16A017B01B2
:10059000CFEFC80F20E030E0A901CB01B6010E94E7
:1005A000800D18168CF0C701B60190580E94F10D0D
:1005B0009B01AC016C2F70E090E080E0CF91FF9048
:1005C000EF90DF90CF90B2C0C701B6010E94EC0D52
:1005D0008C2FCF91FF90EF90DF90CF900C94F8117B
:1005E000CF91FF90EF90DF90CF9008950F931F93DE
:1005F0008B019C0183E036952795179507958A9581
:10060000D1F70B551D4F462F477021E030E0F9011F
:1006100002C0EE0FFF1F4A95E2F7AF01F8012081FB
:100620002423CB010196211102C090E080E01F91AC
:100630000F9108950F931F938B019C0183E03695D2
:100640002795179507958A95D1F7677081E090E017
:1006500001C0880F6A95EAF7F801EB55FD4F20813C
:10066000452B31F48095822380831F910F9108954B
:10067000822BFACF2F923F924F925F926F927F928E
:100680008F929F92AF92BF92CF92DF92EF92FF92A2
:100690000F931F93CF93DF93D62EC72E782E692EFC
:1006A00049015A01280161E08D2D0E943213CD2DA0
:1006B000DC2D8E010F5F1F4FA8016D2D7C2D872D26
:1006C000962DB8DF20E030E0A901C201B7010E94F9
:1006D000CF0E181664F4C201B7010E94F10D2B0170
:1006E000C501B4010E94F10DA201CE0123D0C801C1
:1006F000DF91CF911F910F91FF90EF90DF90CF90FE
:10070000BF90AF909F908F907F906F905F904F9031
:100710003F902F900895882341F08150682F70E01A
:1007200090E080E050E040E085CF0895862FB90149
:100730000C94F8119C01FC01EC51FF4FE491E15045
:10074000E231E0F4F0E08827E755FC4F8F4F0C943E
:100750005317BB03C203C503DC03F103BE03060446
:10076000120416042D04420457046E048304BE03CD
:100770009804AF04C40484B5806884BD60E0822F0F
:100780000C946E1384B58062F8CF809180008C7FCA
:1007900082608093800080918100807E8061682BE0
:1007A0006093810050938700409386008091800081
:1007B000806880938000E2CF809180008C7F82608F
:1007C0008093800080918100807E8061682B60939F
:1007D0008100509387004093860080918000806262
:1007E000E8CF809180008C7F826080938000809130
:1007F0008100807E8061682B609381005093870028
:1008000040938600809180008860D3CF8091B000B3
:1008100080688093B0008091B100887F682B6093DE
:10082000B100ACCF8091B0008062F3CF8091900096
:100830008C7F82608093900080919100807E8061A7
:10084000682B60939100509397004093960080919D
:10085000900080688093900091CF809190008C7F71
:1008600082608093900080919100807E8061682BEF
:100870006093910050939700409396008091900070
:100880008062E8CF809190008C7F8260809390009E
:1008900080919100807E8061682B609391005093DD
:1008A000970040939600809190008860D3CF80910C
:1008B000A0008C7F82608093A0008091A100807E48
:1008C0008061682B6093A1005093A7004093A6001D
:1008D0008091A00080688093A00050CF8091A000FC
:1008E0008C7F82608093A0008091A100807E8061D7
:1008F000682B6093A1005093A7004093A6008091BD
:10090000A0008062E8CF8091A0008C7F82608093FD
:10091000A0008091A100807E8061682B6093A1007F
:100920005093A7004093A6008091A0008860D3CF89
:10093000809120018C7F8260809320018091210131
:10094000807E8061682B6093210150932701409342
:100950002601809120018068809320010FCF809133
:1009600020018C7F82608093200180912101807E14
:100970008061682B609321015093270140932601E9
:10098000809120018062E8CF809120018C7F82607D
:100990008093200180912101807E8061682B60938B
:1009A0002101509327014093260180912001886006
:1009B000D3CF611102C00C9432136130E1F362E0D5
:1009C000FACF662319F061E00C946E1360E0FCCF5F
:1009D0002F923F924F925F926F927F928F929F924F
:1009E000AF92BF92CF92DF92EF92FF920F931F933D
:1009F000CF93DF9300D01F92CDB7DEB78B015C831E
:100A00004B83FB01E150F04CEE0FFF1FEE0FFF1F79
:100A1000E80FF91F408151816281738177FD26C003
:100A20004C01B12CA12CC12CD12C7601A016B10601
:100A30005CF5F40161917191819191914F010E9456
:100A40001D0E4B815C810E94D50E9B01AC01C7013C
:100A5000B601F2D76B017C012B813C81205E3F4FB8
:100A60003C832B833FEFA31AB30AE0CF9A83898399
:100A7000312C212C81E090E0A0E0B0E0C12CD12C01
:100A8000760120163106CCF0C701B6010F900F9009
:100A90000F900F90DF91CF911F910F91FF90EF90EA
:100AA000DF90CF90BF90AF909F908F907F906F908E
:100AB0005F904F903F902F900895E981FA81419087
:100AC000519061907190FA83E983409450946094BE
:100AD000709453014201880E991EAA1EBB1EC501C7
:100AE000B4010E941D0E4B815C810E94D50E9B01BA
:100AF000AC01C701B6019FD76B017C0181E0841472
:100B00009504A604B70408F080E090E0B0E0A0E00F
:100B10002B813C81205E3F4F3C832B833FEF231A88
:100B2000330AAFCF2F923F924F925F926F927F9294
:100B30008F929F92AF92BF92CF92DF92EF92FF92ED
:100B40000F931F93CF93DF93CDB7DEB7CB54D1096B
:100B50000FB6F894DEBF0FBECDBF26967FAF6EAF47
:100B6000269728965FAF4EAF28973E8B2D8B2C96FD
:100B7000FFAEEEAE2C97FB01E150F04CEE0FFF1FE5
:100B8000EE0FFF1FE80FF91F80809180A280B380D5
:100B90008F8A988EA98EBA8EB501A401442777FD5D
:100BA000439555276627772729964FAF2997F9014F
:100BB000E150F04CEE0FFF1FEE0FFF1F2896AEAC7A
:100BC000BFAC2897EA0DFB1DC080D180E280F38086
:100BD000CB8EDC8EED8EFE8EB701A601442777FD0D
:100BE00043955527662777272A964FAF2A97188B64
:100BF0000F87F80130E020E02C96EEACFFAC2C978C
:100C00002E153F050CF43FC022969FAF8EAF229762
:100C10001A8B098B312C212C812C912C540183941B
:100C20008D829E82AF82B88626968EAC9FAC269728
:100C3000281439047CF129969FAC29972A96AFACE9
:100C40002A9730E020E041E050E060E070E09A1048
:100C5000F5C1C55BDF4F0FB6F894DEBF0FBECDBF49
:100C6000DF91CF911F910F91FF90EF90DF90CF9088
:100C7000BF90AF909F908F907F906F905F904F90BC
:100C80003F902F90089511921192119211922F5F1F
:100C90003F4FB2CF2296EEADFFAD22978191919159
:100CA000A191B1912296FFAFEEAF22978F88988CD9
:100CB000A98CBA8CB7FE23C04D815E816F81788587
:100CC00041505109610971095A016B01A81AB90A09
:100CD000CA0ADB0AD601C50121E0CD80DE80EF80A3
:100CE000F8848C159D05AE05BF0508F020E0822E26
:100CF000912CB12CA12C8D829E82AF82B8865D0191
:100D0000CC24DD24A8A2B9A2CAA2DBA29C01AD0119
:100D1000442755272CA33DA34EA35FA32C96EEADED
:100D2000FFAD2C97E219F3098D889E888E169F06D9
:100D30000CF4F4012896AEACBFAC28972496BFAE55
:100D4000AEAE2497C988DA88DC8ACB8A1E861D86D7
:100D5000812C912C5401839489869A86AB86BC861B
:100D6000812C912C5401CD84DE84CE16DF0604F153
:100D7000F7FF02C0F0E0E0E0E20DF31D2C96EEACD0
:100D8000FFAC2C97EE15FF0554F4EE0FFF1FEE0F8E
:100D9000FF1FE00FF11F80829182A282B3822FEFAA
:100DA000221A320AE989FA893496FA8BE98B3CCF08
:100DB0002496AEADBFAD2497CD90DD90ED90FD9023
:100DC0002496BFAFAEAF24972B8D3C8D4D8D5E8D9D
:100DD00057FF22C089859A85AB85BC850197A109FB
:100DE000B109AC01BD014C195D096E097F096A01A9
:100DF0007B0181E029853A854B855C85C216D30647
:100E0000E406F50608F080E0482F50E070E060E06E
:100E100049875A876B877C87B7018827992768A7F6
:100E200079A78AA79BA7EE24FF2428A139A14AA16C
:100E30005BA1C701B6010E9422172B013C012CA126
:100E40003DA14EA15FA168A579A58AA59BA50E9499
:100E500022176CA77DA78EA79FA7AB89BC894D9150
:100E60005D916D917D91BC8BAB8BDB01CA01880DCF
:100E7000991DAA1DBB1D89839A83AB83BC8391E016
:100E80009F8F29813A814B815C81281539054A055C
:100E90005B0508F01F8E2CA13DA14EA15FA1C701EB
:100EA000B6010E9422176B017C0189809A80AB8079
:100EB000BC808C0C9D1CAE1CBF1C89829A82AB82AC
:100EC000BC8252019924882488AA99AAAAAABBAAFA
:100ED00029813A814B815C81280D391D4A1D5B1D9A
:100EE0002CAB3DAB4EAB5FAB8CA49DA4AEA4BFA41A
:100EF00054019924882488AE99AEAAAEBBAE280DC1
:100F0000391D4A1D5B1D2CAF3DAF4EAF5FAFAB89A6
:100F1000BC8914972D933D934D935C93139728A10F
:100F200039A14AA15BA168A579A58AA59BA50E94C4
:100F300022179F8C690D711D811D911D230166244F
:100F40007724460E571E681E791E2CA53DA54EA57A
:100F50005FA54A01AA24BB24840C951CA61CB71CBF
:100F600081E090E0A0E0B0E049815A816B817C8112
:100F70004C155D056E057F0518F080E090E0DC0102
:100F8000880D991DAA1DBB1D41E050E060E070E096
:100F900088A899A8AAA8BBA8CCA8DDA8EEA8FFA8F5
:100FA000C814D904EA04FB0418F040E050E0BA0188
:100FB000840F951FA61FB71F812C912C5401839479
:100FC000C8ACD9ACEAACFBAC2CAD3DAD4EAD5FAD21
:100FD0002C153D054E055F0518F0812C912C540110
:100FE000880E991EAA1EBB1E4D855E854F5F5F4F02
:100FF0005E874D87B8CEEF85F889C190D190E1909A
:10100000F190F88BEF87DB01CA010197A109B109C3
:101010008C199D09AE09BF09349780839183A283FF
:10102000B383E1E084179507A607B70708F0E0E06F
:101030004E2F50E070E060E02F5F3F4F2C968EAC5B
:101040009FAC2C9728153905B4F203CE4F925F92CE
:101050006F927F928F929F92AF92BF92CF92DF92C8
:10106000EF92FF920F931F93CF93DF93CDB7DEB72D
:10107000A0970FB6F894DEBF0FBECDBFC0900002A0
:10108000D0900102E0900202F0900302A7019601C5
:101090006091430570914405809145059091460506
:1010A0002FD5882341F0C0924305D0924405E092A9
:1010B0004505F09246058091420581111092420546
:1010C000BE01635E7F4F8091470537DAC09004020E
:1010D000D0900502E0900602F0900702A701960169
:1010E00060913705709138058091390590913A05E6
:1010F00007D5882341F0C0923705D0923805E09299
:101100003905F0923A058091360581111092360525
:10111000BE01675E7F4F80913B050FDA80915002E0
:1011200090915102A0915202B09153028D8B9E8BEF
:10113000AF8BB88F8D8D9E8DAF8DB8A1898B9A8B1B
:10114000AB8BBC8B52E0E52EF12C8E01075F1F4F5D
:1011500021E030E0AE014F5E5F4F61E070E0CE0114
:101160004596E0DC50E040E062E070E0C80130DC31
:1011700020E030E040E05AE24CD620911802309155
:10118000190240911A0250911B02BED420912402F0
:1011900030912502409126025091270200D6181660
:1011A0000CF0A2C140901002509011026090120207
:1011B00070901302898D9A8DAB8DBC8D898B9A8B23
:1011C000AB8BBC8B42E0E42EF12C8E010F5F1F4FE6
:1011D00021E030E0AE014F5E5F4F61E070E0CE0194
:1011E0004596A0DC50E040E062E070E0C801F0DB32
:1011F00020E030E040E05AE20CD620911802309115
:10120000190240911A0250911B027ED420912402AF
:10121000309125024091260250912702C0D5181620
:101220000CF06BC16091140270911502809116024E
:1012300090911702209128023091290240912A02B0
:1012400050912B02E6D54B018C016AE070E080E002
:1012500090E0CCD97C019093670580936605A090BF
:101260002C02B0902D02C0902E02D0902F0294013B
:10127000A801B501C60144D487FD11C0A090300279
:10128000B0903102C0903202D09033029401A80194
:10129000B501C60184D5181614F05401680120E088
:1012A00030E04FE753E4B501C6012AD418160CF418
:1012B0002DC120E030E0A901B501C60170D587FF3E
:1012C00004C0A12CB12CC12CD12CA501B601C701A1
:1012D00056D969E070E080E090E088D95C01909395
:1012E0005F0580935E05C0903402D0903502E09097
:1012F0003602F09037029401A801C701B60100D46C
:1013000087FD11C0C0903802D0903902E0903A02B7
:10131000F0903B029401A801C701B60140D5181610
:1013200014F064017801E894F7F820E030E04FE72A
:1013300053E4C701B601E4D3181634F4C12CD12C00
:101340009FE7E92E93E4F92EB701A601C50117D94D
:10135000FF24F3949401A80160910C0270910D0296
:1013600080910E0290910F02CBD3811101C0F12C1C
:101370006F2D88E026DB20913C0230913D024091A8
:101380003E0250913F02C301B20143D54B015C01C3
:1013900011E09B01AC0160910802709109028091FB
:1013A0000A0290910B02ACD3811101C010E0612FB1
:1013B0008DE007DB6CE070E080E090E017D96C0115
:1013C0009093570580935605E0904002F0904102BB
:1013D00000914202109143029401A501B701C80196
:1013E0008FD387FD11C0E0904402F0904502009138
:1013F0004602109147029401A501B701C801CFD45C
:10140000181614F07401850120E030E04FE753E432
:10141000B701C80175D318160CF47FC020E030E086
:10142000A901B701C801BBD487FF04C0E12CF12C8E
:1014300000E010E0A701B801C601A1D86BE070E0A0
:1014400080E090E0D3D88C0190934F0580934E05B7
:10145000C0904802D0904902E0904A02F0904B02BE
:101460009401A501C701B6014BD387FD11C0C090FF
:101470004C02D0904D02E0904E02F0904F02940149
:10148000A501C701B6018BD4181614F064017501CB
:10149000E894F7F820E030E04FE753E4C701B601E5
:1014A0002FD3181634F4C12CD12C8FE7E82E83E407
:1014B000F82EB701A601C80162D8A0960FB6F8941D
:1014C000DEBF0FBECDBFDF91CF911F910F91FF9077
:1014D000EF90DF90CF90BF90AF909F908F907F90D4
:1014E0006F905F904F90089540901C0250901D02A5
:1014F00060901E0270901F025DCE6091200270917C
:101500002102809122029091230294CEA12CB12C31
:101510002FE7C22E33E4D32ED8CEE12CF12C0FE7E7
:1015200013E488CF8F929F92AF92BF92DF92EF9297
:10153000FF920F931F93CF93DF931092AF021092FD
:10154000AE02C0E3D5E080E5FE0111928A95E9F78D
:10155000DD24D394D0927F0500E012E0F801808171
:101560009181A281B3818B8B9C8BAD8BBE8B812CA7
:10157000912C540183948D869E86AF86B88A47E469
:1015800055E063E082E00E949401D98A1A8A1B86A2
:101590001882D0927E05F80184819581A681B78159
:1015A0008F839887A987BA8789829A82AB82BC8207
:1015B0004BE355E063E182E10E949401DD821E82EB
:1015C00018AAD0927D0589AA9AAAABAABCAAE12C36
:1015D000F12C8701A80197016AE070E080E090E0BB
:1015E00049D89FAB8EABDDAA18A6D0927C0589A600
:1015F0009AA6ABA6BCA6A801970169E070E080E0BE
:1016000090E038D89FA78EA7DDA618AED0927A05B5
:1016100089AE9AAEABAEBCAE61E088E0CAD9DDAEB1
:1016200010927005D0927B058092710590927205A0
:10163000A0927305B092740561E08DE0BAD9D092A2
:10164000750518A2D092790589A29AA2ABA2BCA274
:10165000A80197016CE070E080E090E00BD89FA3B8
:101660008EA3DDA2188ED0927805898E9A8EAB8ECD
:10167000BC8EA80197016BE070E080E090E00E94D2
:101680003A039F8F8E8FDD8E8F890E94AF028B85EC
:10169000DF91CF911F910F91FF90EF90DF90BF905E
:1016A000AF909F908F900C94AF0280913C05811178
:1016B00014C081E080933C0580913D0590913E05EA
:1016C000A0913F05B09140050197A105B10529F40E
:1016D0008091410581110E94BC02809130058111E9
:1016E00014C081E0809330058091310590913205DE
:1016F000A0913305B09134050197A105B10529F4F6
:101700008091350581110E94BC0280916005811194
:101710002EC081E080936005809161059091620503
:10172000A0916305B09164050197A105B105F9F495
:10173000809165058823D9F06AE070E080E090E050
:101740000E94F602909367058093660540E050E0A2
:10175000BA010E94BF026AE070E080E090E00E945F
:10176000F60290936705809366050E948B03809133
:10177000580581112EC081E080935805809159054C
:1017800090915A05A0915B05B0915C050197A10568
:10179000B105F9F480915D058823D9F069E070E026
:1017A00080E090E00E94F60290935F0580935E05D2
:1017B00040E050E0BA010E94BF0269E070E080E0C2
:1017C00090E00E94F60290935F0580935E050E9470
:1017D0008B0380916805811103C081E080936805C7
:1017E00080917005811103C081E080937005809124
:1017F000500581112EC081E08093500580915105E4
:1018000090915205A0915305B09154050197A105FF
:10181000B105F9F4809155058823D9F06CE070E0AA
:1018200080E090E00E94F602909357058093560561
:1018300040E050E0BA010E94BF026CE070E080E03E
:1018400090E00E94F60290935705809356050E94FF
:101850008B038091480581112EC081E0809348055B
:101860008091490590914A05A0914B05B0914C0596
:101870000197A105B105F9F480914D058823D9F0B0
:101880006BE070E080E090E00E94F60290934F05DC
:1018900080934E0540E050E0BA010E94BF026BE029
:1018A00070E080E090E00E94F60290934F058093F4
:1018B0004E050C948B03089526E030E040E855E295
:1018C00060E070E090E080E000C08130910569F058
:1018D0001CF4892B39F008958230910549F0039763
:1018E00051F008958CEB92E0F0C789E593E0FCCFCE
:1018F00086EF93E0F9CF83E994E0F6CF1F920F9241
:101900000FB60F9211240BB60F922F933F934F9364
:101910005F936F937F938F939F93AF93BF93EF9357
:10192000FF938FE89DEF909325018093240134D09D
:10193000FF91EF91BF91AF919F918F917F916F91A7
:101940005F914F913F912F910F900BBE0F900FBE63
:101950000F901F9018958FE89DEF9093250180932D
:101960002401A3E7B0E08C918E7F8C93E0E2F1E05C
:1019700080818C7F8083E1E2F1E08081877E8083BB
:1019800080818460808380818C7F80838C91816062
:101990008C93089581E008958091B00291E0980FB2
:1019A0009093B002882349F021E030E03093B202F6
:1019B0002093B1028093B0020895789447DBF894A5
:1019C0008091B0028150F6CFCF93DF9310928105C2
:1019D00010928005ABD470DFC0916402D091650293
:1019E000198218829FDDF894B6DF81E02881398161
:1019F000232B09F080E0809380057894789480917F
:101A00008005811107C051DEF89490E080E0DF91FD
:101A1000CF91089581E028813981232B09F480E05A
:101A2000809381059091810581E0911180E0809300
:101A30008005B0DFE4CF5058BB27AA270ED075C170
:101A400066D130F06BD120F031F49F3F11F41EF4D9
:101A50005BC10EF4E095E7FB51C1E92F77D180F32C
:101A6000BA17620773078407950718F071F49EF59B
:101A70008FC10EF4E0950B2EBA2FA02D0B01B901EA
:101A800090010C01CA01A0011124FF27591B99F0F4
:101A9000593F50F4503E68F11A16F040A22F232F00
:101AA000342F4427585FF3CF469537952795A79550
:101AB000F0405395C9F77EF41F16BA0B620B730BF7
:101AC000840BBAF09150A1F0FF0FBB1F661F771F68
:101AD000881FC2F70EC0BA0F621F731F841F48F41D
:101AE000879577956795B795F7959E3F08F0B3CFA3
:101AF0009395880F08F09927EE0F9795879508958D
:101B0000D9D008F481E008950CD00FC107D140F07E
:101B1000FED030F021F45F3F19F0F0C0511139C10F
:101B2000F3C014D198F39923C9F35523B1F3951B4E
:101B3000550BBB27AA2762177307840738F09F5FEE
:101B40005F4F220F331F441FAA1FA9F333D00E2E5D
:101B50003AF0E0E830D091505040E695001CCAF7CA
:101B600029D0FE2F27D0660F771F881FBB1F26178F
:101B700037074807AB07B0E809F0BB0B802DBF0162
:101B8000FF2793585F4F2AF09E3F510568F0B6C07B
:101B900000C15F3FECF3983EDCF38695779567953F
:101BA000B795F7959F5FC9F7880F911D9695879513
:101BB00097F90895E1E0660F771F881FBB1F621732
:101BC00073078407BA0720F0621B730B840BBA0BF0
:101BD000EE1F88F7E095089504D06894B111D9C03C
:101BE0000895BCD088F09F5790F0B92F9927B7512E
:101BF000A0F0D1F0660F771F881F991F1AF0BA95D1
:101C0000C9F712C0B13081F0C3D0B1E00895C0C0AF
:101C1000672F782F8827B85F39F0B93FCCF38695C6
:101C200077956795B395D9F73EF490958095709523
:101C300061957F4F8F4F9F4F0895E89409C097FBA0
:101C40003EF490958095709561957F4F8F4F9F4F93
:101C50009923A9F0F92F96E9BB279395F6958795D7
:101C600077956795B795F111F8CFFAF4BB0F11F49A
:101C700060FF1BC06F5F7F4F8F4F9F4F16C0882341
:101C800011F096E911C0772321F09EE8872F762F77
:101C900005C0662371F096E8862F70E060E02AF0B8
:101CA0009A95660F771F881FDAF7880F96958795A4
:101CB00097F90895990F0008550FAA0BE0E8FEEF79
:101CC00016161706E807F907C0F012161306E40700
:101CD000F50798F0621B730B840B950B39F40A26F9
:101CE00061F0232B242B252B21F408950A2609F4D7
:101CF000A140A6958FEF811D811D089597F99F67DB
:101D000080E870E060E008959FEF80EC0895002483
:101D10000A941616170618060906089500240A9450
:101D200012161306140605060895092E0394000CD6
:101D300011F4882352F0BB0F40F4BF2B11F460FF65
:101D400004C06F5F7F4F8F4F9F4F089557FD90588E
:101D5000440F551F59F05F3F71F04795880F97FB6F
:101D6000991F61F09F3F79F0879508951216130629
:101D70001406551FF2CF4695F1DF08C01616170658
:101D80001806991FF1CF869571056105089408958D
:101D9000E894BB2766277727CB0197F908958ADF58
:101DA00008F48FEF0895AACF97C0D8DFE8F39923FE
:101DB000D9F3940F511DBBF39150504094F059F05A
:101DC000882332F0660F771F881F91505040C1F76B
:101DD0009E3F510544F7880F911D9695879597F979
:101DE00008955F3FACF0983E9CF0BB2786957795B1
:101DF0006795B79508F4B1609395C1F7BB0F58F795
:101E000011F460FFE8CF6F5F7F4F8F4F9F4FE3CF9D
:101E1000C0CF0BD08ACF7BDF28F080DF18F095236E
:101E200009F06CCF71CF1124B4CF90DFA0F3959F50
:101E3000D1F3950F50E0551F629FF001729FBB27B1
:101E4000F00DB11D639FAA27F00DB11DAA1F649F5D
:101E50006627B00DA11D661F829F2227B00DA11D10
:101E6000621F739FB00DA11D621F839FA00D611D96
:101E7000221F749F3327A00D611D231F849F600DB7
:101E8000211D822F762F6A2F11249F5750408AF0F0
:101E9000E1F088234AF0EE0FFF1FBB1F661F771F7C
:101EA000881F91505040A9F79E3F510570F026CFF2
:101EB00070CF5F3FECF3983EDCF38695779567959E
:101EC000B795F795E7959F5FC1F7FE2B880F911D9A
:101ED0009695879597F908959F3F31F0915020F49A
:101EE000879577956795B795880F911D96958795F6
:101EF00097F908950895883008F075C0E82FF0E04C
:101F0000EE0FFF1FEC5AFD4F7183608381508730C5
:101F100008F03CC0E82FF0E08827EF56F04F8F4FD5
:101F2000C2C7CE0F980FA00FAC0FB90FDA0FE70F93
:101F3000809169008C7F482B40936900E89A08954E
:101F400080916900837F440F551F440F551F482B14
:101F500040936900E99A0895809169008F7C74E04C
:101F6000440F551F7A95E1F7482B40936900EA9A90
:101F70000895809169008F7366E0440F551F6A953C
:101F8000E1F7482B40936900EB9A089580916A002D
:101F90008C7F482B40936A00EC9A089580916A00E8
:101FA000837F440F551F440F551F482B40936A00F1
:101FB000ED9A089580916A008F7C24E0440F551FAC
:101FC0002A95E1F7482B40936A00EE9A0895809194
:101FD0006A008F7396E0440F551F9A95E1F7482BDE
:101FE00040936A00EF9A08951F920F920FB60F92D6
:101FF00011240BB60F922F933F934F935F936F93E0
:102000007F938F939F93AF93BF93EF93FF93E09151
:102010005802F09159021995FF91EF91BF91AF913C
:102020009F918F917F916F915F914F913F912F91F0
:102030000F900BBE0F900FBE0F901F9018951F9220
:102040000F920FB60F9211240BB60F922F933F935E
:102050004F935F936F937F938F939F93AF93BF93B0
:10206000EF93FF93E0915A02F0915B021995FF9173
:10207000EF91BF91AF919F918F917F916F915F9100
:102080004F913F912F910F900BBE0F900FBE0F906D
:102090001F9018951F920F920FB60F9211240BB636
:1020A0000F922F933F934F935F936F937F938F93F1
:1020B0009F93AF93BF93EF93FF93E0915C02F091F6
:1020C0005D021995FF91EF91BF91AF919F918F9113
:1020D0007F916F915F914F913F912F910F900BBE28
:1020E0000F900FBE0F901F9018951F920F920FB672
:1020F0000F9211240BB60F922F933F934F935F9340
:102100006F937F938F939F93AF93BF93EF93FF93BF
:10211000E0915E02F0915F021995FF91EF91BF91FE
:10212000AF919F918F917F916F915F914F913F916F
:102130002F910F900BBE0F900FBE0F901F90189510
:102140001F920F920FB60F9211240BB60F922F937E
:102150003F934F935F936F937F938F939F93AF932F
:10216000BF93EF93FF93E0915402F09155021995BC
:10217000FF91EF91BF91AF919F918F917F916F915F
:102180005F914F913F912F910F900BBE0F900FBE1B
:102190000F901F9018951F920F920FB60F92112457
:1021A0000BB60F922F933F934F935F936F937F9351
:1021B0008F939F93AF93BF93EF93FF93E09156025A
:1021C000F09157021995FF91EF91BF91AF919F91B7
:1021D0008F917F916F915F914F913F912F910F90D0
:1021E0000BBE0F900FBE0F901F9018951F920F926D
:1021F0000FB60F9211240BB60F922F933F934F936C
:102200005F936F937F938F939F93AF93BF93EF935E
:10221000FF93E0916002F09161021995FF91EF91B7
:10222000BF91AF919F918F917F916F915F914F91EE
:102230003F912F910F900BBE0F900FBE0F901F90EC
:1022400018951F920F920FB60F9211240BB60F9292
:102250002F933F934F935F936F937F938F939F93AE
:10226000AF93BF93EF93FF93E0916202F09163020B
:102270001995FF91EF91BF91AF919F918F917F91B0
:102280006F915F914F913F912F910F900BBE0F90E7
:102290000FBE0F901F9018951F920F920FB60F92BE
:1022A00011242F933F938F939F93AF93BF9380916C
:1022B000B4029091B502A091B602B091B7023091EC
:1022C000B30223E0230F2D3758F50196A11DB11D50
:1022D0002093B3028093B4029093B502A093B60208
:1022E000B093B7028091B8029091B902A091BA025E
:1022F000B091BB020196A11DB11D8093B8029093CD
:10230000B902A093BA02B093BB02BF91AF919F9163
:102310008F913F912F910F900FBE0F901F901895A6
:1023200026E8230F0296A11DB11DD2CF789484B563
:10233000826084BD84B5816084BD85B5826085BDC1
:1023400085B5816085BDEEE6F0E0808181608083A7
:10235000E1E8F0E01082808182608083808181608A
:102360008083E0E8F0E0808181608083E1EBF0E051
:10237000808184608083E0EBF0E0808181608083F5
:10238000E1E9F0E0808182608083808181608083E8
:10239000E0E9F0E0808181608083E1EAF0E0808123
:1023A00082608083808181608083E0EAF0E08081C8
:1023B00081608083E1E2F1E08081826080838081BE
:1023C00081608083E0E2F1E0808181608083EAE7E0
:1023D000F0E080818460808380818260808380815E
:1023E000816080838081806880831092C10008951D
:1023F0001F93CF93DF93182FEB0161E033D1209728
:1024000031F460E0812FDF91CF911F9167C1CF3F01
:10241000D10511F461E0F6CFE12FF0E0EC51FF4F70
:10242000E491E150E23108F0B2C0F0E08827E55EC7
:10243000FD4E8F4F38C52D1235123A1244124E12EE
:10244000C71258126012681272127C12861295120C
:102450009F12C712A912B312BD1284B5806884BD41
:10246000C7BDDF91CF911F91089584B5806284BD6F
:10247000C8BDF7CF80918000806880938000D093A2
:102480008900C0938800EDCF8091800080628093A6
:102490008000D0938B00C0938A00E3CF80918000AE
:1024A000886080938000D0938D00C0938C00D9CF3A
:1024B0008091B00080688093B000C093B300D1CF0A
:1024C0008091B00080628093B000C093B400C9CF07
:1024D00080919000806880939000D0939900C09381
:1024E0009800BFCF80919000806280939000D0933D
:1024F0009B00C0939A00B5CF809190008860809334
:102500009000D0939D00C0939C00ABCF8091A00021
:1025100080688093A0008091A0008F7B8093A000B2
:10252000D093A900C093A8009CCF8091A0008062A6
:102530008093A000D093AB00C093AA0092CF80916B
:10254000A00088608093A000D093AD00C093AC0041
:1025500088CF80912001806880932001D093290149
:10256000C09328017ECF809120018062809320015A
:10257000D0932B01C0932A0174CF809120018860F1
:1025800080932001D0932D01C0932C016ACFC038D5
:10259000D1050CF03FCF35CF8150823108F059C0C2
:1025A000E82FF0E08827E952FD4E8F4F7CC4F712E8
:1025B000FB12E912EF12F3122913FE12041308138F
:1025C0000E13121316131C132013291324132A138A
:1025D0002E13809180008F778093800008958091E2
:1025E00080008F7DF9CF80918000877FF5CF84B503
:1025F0008F7784BD089584B58F7DFBCF8091B00027
:102600008F778093B00008958091B0008F7DF9CFCF
:10261000809190008F778093900008958091900032
:102620008F7DF9CF80919000877FF5CF8091A000BA
:102630008F778093A00008958091A0008F7DF9CFBF
:102640008091A000877FF5CF809120018F778093C4
:1026500020010895809120018F7DF9CF8091200184
:10266000877FF5CFCF93DF9390E0FC01E65DFE4FCF
:10267000249180599E4FFC0184918823C9F090E0F9
:10268000880F991FFC01E651FE4FA591B491FC0102
:10269000E053FE4FC591D49161110DC09FB7F894DE
:1026A0008C91209582238C938881282328839FBF37
:1026B000DF91CF910895623051F49FB7F8943C9127
:1026C000822F809583238C93E8812E2BEFCF8FB7B9
:1026D000F894EC912E2B2C938FBFEACF1F93CF93BE
:1026E000DF93282F30E0F901EC51FF4F8491F9017D
:1026F000E65DFE4FD491F901E059FE4FC491CC2321
:10270000A1F0162F811148DFEC2FF0E0EE0FFF1F34
:10271000E053FE4FA591B4918FB7F894EC9111114D
:1027200008C0D095DE23DC938FBFDF91CF911F913E
:102730000895DE2BF8CFFC01918D228D892F90E03A
:10274000805C9F4F821B91098F7399270895FC012C
:10275000918D828D981731F0828DE80FF11D858D56
:1027600090E008958FEF9FEF0895FC01918D828D89
:10277000981761F0A28DAE0FBF2FB11D5D968C91A1
:10278000928D9F5F9F73928F90E008958FEF9FEFE0
:102790000895FC01538D448D252F30E0842F90E067
:1027A000821B930B541710F0CF960895019708954C
:1027B000FC01A48DA80FB92FB11DA35ABF4F2C91B6
:1027C000848D90E001968F739927848FA689B789AD
:1027D0002C93A089B1898C91837080648C93938DA4
:1027E000848D981306C00288F389E02D80818F7D47
:1027F00080830895CF93DF93EC01888D8823B1F017
:10280000AA89BB89E889F9898C9185FD03C08081FB
:1028100086FD0CC00FB607FCF7CF8C9185FFF2CF79
:10282000808185FFEDCFCE01C3DFEACFDF91CF916D
:102830000895EF92FF920F931F93CF93DF93EC01D4
:1028400081E0888F9B8D8C8D98131AC0E889F98957
:10285000808185FF15C09FB7F894EE89FF8960835A
:10286000E889F98980818370806480839FBF81E0DB
:1028700090E0DF91CF911F910F91FF90EF9008951D
:10288000F62E0B8D10E00F5F1F4F0F731127E02EF8
:102890008C8D8E110BC00FB607FCFACFE889F98931
:1028A000808185FFF5CFCE0183DFF2CFEB8DEC0F7A
:1028B000FD2FF11DE35AFF4FF0829FB7F8940B8F65
:1028C000EA89FB8980818062D0CFCF92DF92EF923C
:1028D000FF921F93CF93DF93EC016A017B01122FCC
:1028E000E889F98982E08083C11481EED806E10489
:1028F000F10499F060E079E08DE390E0A7019601A2
:10290000B0D2215031094109510956954795379563
:102910002795211580E1380790F0E889F989108220
:1029200060E874E88EE190E0A70196019AD2215008
:102930003109410951095695479537952795EC85F9
:10294000FD853083EE85FF852083188EEC89FD8917
:102950001083EA89FB89808180618083EA89FB8911
:10296000808188608083EA89FB8980818068808398
:10297000EA89FB8980818F7D8083DF91CF911F91D0
:10298000FF90EF90DF90CF9008951F920F920FB6B7
:102990000F9211240BB60F922F938F939F93EF9367
:1029A000FF93E091CC02F091CD028081E091D202C0
:1029B000F091D30282FD1DC090818091D5028F5F7E
:1029C0008F732091D602821741F0E091D502F0E09A
:1029D000E454FD4F958F8093D502FF91EF919F9125
:1029E0008F912F910F900BBE0F900FBE0F901F90E5
:1029F00018958081F2CF1F920F920FB60F9211247B
:102A00000BB60F922F933F934F935F936F937F93E8
:102A10008F939F93AF93BF93EF93FF938CEB92E0D1
:102A2000C7DEFF91EF91BF91AF919F918F917F9101
:102A30006F915F914F913F912F910F900BBE0F902F
:102A40000FBE0F901F901895ECEBF2E013821282EC
:102A500088EE93E0A0E0B0E084839583A683B783FB
:102A60008AE692E09183808385EC90E09587848765
:102A700084EC90E09787868780EC90E0918B808B48
:102A800081EC90E0938B828B82EC90E0958B848B31
:102A900086EC90E0978B868B118E128E138E148E9F
:102AA00008951F920F920FB60F9211240BB60F923A
:102AB0002F938F939F93EF93FF93E0916903F0918E
:102AC0006A038081E0916F03F091700382FD1DC065
:102AD0009081809172038F5F8F73209173038217AF
:102AE00041F0E0917203F0E0E75AFC4F958F80933C
:102AF0007203FF91EF919F918F912F910F900BBED9
:102B00000F900FBE0F901F9018958081F2CF1F92EB
:102B10000F920FB60F9211240BB60F922F933F9383
:102B20004F935F936F937F938F939F93AF93BF93D5
:102B3000EF93FF9389E593E03BDEFF91EF91BF9127
:102B4000AF919F918F917F916F915F914F913F9145
:102B50002F910F900BBE0F900FBE0F901F901895E6
:102B6000E9E5F3E01382128288EE93E0A0E0B0E0A2
:102B700084839583A683B7838AE692E091838083DA
:102B80008DEC90E0958784878CEC90E09787868722
:102B900088EC90E0918B808B89EC90E0938B828B1A
:102BA0008AEC90E0958B848B8EEC90E0978B868BF3
:102BB000118E128E138E148E08951F920F920FB6DF
:102BC0000F9211240BB60F922F938F939F93EF9335
:102BD000FF93E0910604F09107048081E0910C04DA
:102BE000F0910D0482FD1DC0908180910F048F5FD4
:102BF0008F7320911004821741F0E0910F04F0E0F0
:102C0000EA50FC4F958F80930F04FF91EF919F91B5
:102C10008F912F910F900BBE0F900FBE0F901F90B2
:102C200018958081F2CF1F920F920FB60F92112448
:102C30000BB60F922F933F934F935F936F937F93B6
:102C40008F939F93AF93BF93EF93FF9386EF93E0A0
:102C5000AFDDFF91EF91BF91AF919F918F917F91E8
:102C60006F915F914F913F912F910F900BBE0F90FD
:102C70000FBE0F901F901895E6EFF3E013821282BB
:102C800088EE93E0A0E0B0E084839583A683B783C9
:102C90008AE692E09183808385ED90E09587848732
:102CA00084ED90E09787868780ED90E0918B808B14
:102CB00081ED90E0938B828B82ED90E0958B848BFD
:102CC00086ED90E0978B868B118E128E138E148E6C
:102CD00008951F920F920FB60F9211240BB60F9208
:102CE0002F938F939F93EF93FF93E091A304F09121
:102CF000A4048081E091A904F091AA0482FD1DC082
:102D000090818091AC048F5F8F732091AD04821706
:102D100041F0E091AC04F0E0ED56FB4F958F8093CD
:102D2000AC04FF91EF919F918F912F910F900BBE6B
:102D30000F900FBE0F901F9018958081F2CF1F92B9
:102D40000F920FB60F9211240BB60F922F933F9351
:102D50004F935F936F937F938F939F93AF93BF93A3
:102D6000EF93FF9383E994E023DDFF91EF91BF910F
:102D7000AF919F918F917F916F915F914F913F9113
:102D80002F910F900BBE0F900FBE0F901F901895B4
:102D9000E3E9F4E01382128288EE93E0A0E0B0E071
:102DA00084839583A683B7838AE692E091838083A8
:102DB00085E391E09587848784E391E09787868710
:102DC00080E391E0918B808B81E391E0938B828B08
:102DD00082E391E0958B848B86E391E0978B868BE1
:102DE000118E128E138E148E0895AF92BF92CF92D1
:102DF000DF92EF92FF920F931F93CF93DF936C01BB
:102E00007B018B01040F151FEB015E01AE18BF089B
:102E1000C017D10759F06991D601ED91FC9101904D
:102E2000F081E02DC6011995892B79F7C501DF9155
:102E3000CF911F910F91FF90EF90DF90CF90BF90B7
:102E4000AF900895DB018F939F9335D0BF91AF91E1
:102E5000A29F800D911DA39F900DB29F900D1124F4
:102E60000895A1E21A2EAA1BBB1BFD010DC0AA1FCB
:102E7000BB1FEE1FFF1FA217B307E407F50720F0E3
:102E8000A21BB30BE40BF50B661F771F881F991F5E
:102E90001A9469F760957095809590959B01AC01A7
:102EA000BD01CF010895EE0FFF1F881F8BBF079054
:102EB000F691E02D199409D0A59F900DB49F900D27
:102EC000A49F800D911D11240895A29FB001B39F6E
:102ED000C001A39F700D811D1124911DB29F700D23
:0C2EE000811D1124911D0895F894FFCF6E
:102EEC00000080BF000080BF000000000000000058
:102EFC0000000000000000000000A040000016438D
:102F0C0033F3114385EBD13E0000803F00007F433B
:102F1C00000000000000000000007FC30000803FA4
:102F2C0000007F43000000000000000000007FC391
:102F3C00F36C73447A0F7A0F7A0F7A0F7A0F7A0F39
:102F4C007A0F7A0FAE02000000001914F516C9139F
:082F5C00FA139B13B513A71330
:00000001FF
