:1000000005C100000C94D7140C9402150C942D1506
:100010000C9458150C9483150C94AE150C94D915AA
:100020000C94041624C1000022C1000020C100006D
:100030001EC100001CC100001AC1000018C1000050
:1000400016C1000014C1000012C1000010C1000060
:100050000EC100000CC100000AC100000C942F1654
:1000600006C100000C94A8190C94DE1900C1000010
:10007000FEC00000FCC00000FAC00000F8C0000094
:10008000F6C00000F4C00000F2C00000F0C00000A4
:100090000C94341A0C946A1AEAC00000E8C00000FC
:1000A000E6C00000E4C00000E2C00000E0C00000C4
:1000B000DEC00000DCC00000DAC00000D8C00000D4
:1000C000D6C00000D4C000000C94C8110C94C01A13
:1000D0000C94F61ACCC000000C944C1B0C94821BA0
:1000E000C6C0000000000A0B02090C0D0E08070331
:1000F00004010000000000000000000000000000FB
:1001000000000000000000000000000000000000EF
:1001100012111000000000000000000000000000AC
:100120000000000000000000000001021020200874
:100130000810204010204080020102010804020142
:1001400001020408102040808040201008040201B1
:10015000800402018040201008040201080402010A
:100160000102040810204080010204081020408091
:1001700005050505070508080808020202020A0A23
:100180000808040404040101010101010101030341
:10019000030303030303040707070C0C0C0C0C0CEC
:1001A0000C0C0202020206060606060606060B0BE9
:1001B0000B0B0B0B0B0B000020002300260029006B
:1001C0002C002F003200000100000301060109018C
:1001D00000002200250028002B002E0031003400F2
:1001E00002010000050108010B01000021002400AC
:1001F00027002A002D003000330001010000040117
:1002000007010A01071A931A1F1BAB1B11241FBEFB
:10021000CFEFD1E2DEBFCDBF00E00CBF14E0A0E025
:10022000B2E0E2EBF8E300E00BBF02C007900D92F2
:10023000A832B107D9F727E0A8E2B4E001C01D92C7
:10024000AE3AB207E1F711E0C6E0D1E000E006C047
:1002500021970109802FFE010E94361CC230D10770
:1002600080E00807A9F70E942F120C94571CC8CEF3
:10027000CF92DF92EF92FF92CF93882351F16A01E0
:100280007B01CFEFC80F20E030E0A901CB01B60120
:100290000E94CB1218168CF0C701B60190580E942C
:1002A000D4129B01AC016C2F70E090E080E0CF9104
:1002B000FF90EF90DF90CF90B2C0C701B6010E94CF
:1002C000CF128C2FCF91FF90EF90DF90CF900C94B6
:1002D000DB16CF91FF90EF90DF90CF9008950F93B2
:1002E0001F938B019C0183E0369527951795079501
:1002F0008A95D1F7085D1B4F462F477021E030E00B
:10030000F90102C0EE0FFF1F4A95E2F7AF01F801B5
:1003100020812423CB010196211102C090E080E0CE
:100320001F910F9108950F931F938B019C0183E000
:1003300036952795179507958A95D1F7677081E0CF
:1003400090E001C0880F6A95EAF7F801E85DFB4F7D
:100350002081452B31F48095822380831F910F915A
:100360000895822BFACF2F923F924F925F926F9215
:100370007F928F929F92AF92BF92CF92DF92EF9235
:10038000FF920F931F93CF93DF93D62EC72E782E15
:10039000692E49015A01280161E08D2D0E9415182E
:1003A000CD2DDC2D8E010F5F1F4FA8016D2D7C2DF3
:1003B000872D962DB8DF20E030E0A901C201B701FA
:1003C0000E94B213181664F4C201B7010E94D4123D
:1003D0002B01C501B4010E94D412A201CE0123D089
:1003E000C801DF91CF911F910F91FF90EF90DF90A7
:1003F000CF90BF90AF909F908F907F906F905F90C5
:100400004F903F902F900895882341F08150682F9E
:1004100070E090E080E050E040E085CF0895862FC6
:10042000B9010C94DB169C01FC01EC51FF4FE491E7
:10043000E150E231E0F4F0E08827EE5DFD4F8F4FB0
:100440000C94361C34023B023E0255026A0237020B
:100450007F028B028F02A602BB02D002E702FC02DF
:100460003702110328033D0384B5806884BD60E032
:10047000822F0C94511884B58062F8CF809180004F
:100480008C7F82608093800080918100807E80617B
:10049000682B609381005093870040938600809181
:1004A0008000806880938000E2CF809180008C7F04
:1004B00082608093800080918100807E8061682BC3
:1004C0006093810050938700409386008091800064
:1004D0008062E8CF809180008C7F82608093800072
:1004E00080918100807E8061682B609381005093B1
:1004F000870040938600809180008860D3CF8091F0
:10050000B00080688093B0008091B100887F682B34
:100510006093B100ACCF8091B0008062F3CF809146
:1005200090008C7F82608093900080919100807E0B
:100530008061682B609391005093970040939600E0
:100540008091900080688093900091CF809190007E
:100550008C7F82608093900080919100807E80618A
:10056000682B609391005093970040939600809180
:1005700090008062E8CF809190008C7F82608093B1
:10058000900080919100807E8061682B6093910043
:100590005093970040939600809190008860D3CF4D
:1005A0008091A0008C7F82608093A0008091A10048
:1005B000807E8061682B6093A1005093A7004093D8
:1005C000A6008091A00080688093A00050CF809109
:1005D000A0008C7F82608093A0008091A100807E2B
:1005E0008061682B6093A1005093A7004093A60000
:1005F0008091A0008062E8CF8091A0008C7F826013
:100600008093A0008091A100807E8061682B609320
:10061000A1005093A7004093A6008091A00088609D
:10062000D3CF809120018C7F8260809320018091C4
:100630002101807E8061682B609321015093270106
:1006400040932601809120018068809320010FCF84
:10065000809120018C7F8260809320018091210114
:10066000807E8061682B6093210150932701409325
:100670002601809120018062E8CF809120018C7F4B
:1006800082608093200180912101807E8061682BAF
:10069000609321015093270140932601809120010E
:1006A0008860D3CF611102C00C9415186130E1F35A
:1006B00062E0FACF662319F061E00C94511860E013
:1006C000FCCFFC01A781B0858C9191858923A48101
:1006D000B5819C91408151816281738126819223F1
:1006E00059F081110BC04F5F5F4F6F4F7F4F4083B9
:1006F00051836283738308958111F5CF415051096D
:1007000061097109F4CF82E394E0DBCF8DE394E0DB
:10071000D8CF88E494E0D5CF83E594E0D2CFFC0134
:10072000A481B5818C9196818923A781B0859C9104
:1007300040815181628173812185922359F0882300
:1007400059F04F5F5F4F6F4F7F4F408351836283FC
:10075000738308958823A9F34150510961097109F0
:10076000F4CF82E394E0DBCF8DE394E0D8CF88E44C
:1007700094E0D5CF83E594E0D2CF0F931F93CF932E
:10078000DF93D82FC62F8A01A09131048BE0A89F58
:10079000D0011124AE5CBB4F1D921D921D921C9284
:1007A000139781E01A968C931A978D2F90E0FC0195
:1007B000E65DFE4FE4911696EC931697FC01E05926
:1007C000FE4FE491F0E0EE0FFF1FEA54FE4F8591DB
:1007D000949115969C938E931497862F90E0FC012C
:1007E000E65DFE4FE4911996EC931997FC01E059F0
:1007F000FE4FE491F0E0EE0FFF1FEA54FE4F8591AB
:10080000949118969C938E93179760E08D2F0E9479
:10081000151860E08C2F0E941518809131048130EA
:1008200009F43FC0A8F0823009F462C0833009F4B3
:1008300086C08091310491E0980F90933104F801C3
:10084000808390E080E0DF91CF911F910F91089518
:1008500080E0D23049F081E0D33031F08EEE8D0F60
:100860008430D8F487E18D1B41E050E063E873E009
:100870000E945E1480E0C23049F081E0C33031F064
:100880008EEE8C0F843058F487E18C1B41E050E0F1
:1008900061EB73E00E945E14CCCF8FEFE5CF8FEF5A
:1008A000F5CF80E0D23049F081E0D33031F08EEEE8
:1008B0008D0F8430C8F487E18D1B41E050E066E87D
:1008C00073E00E945E1480E0C23049F081E0C330E2
:1008D00031F08EEE8C0F843048F487E18C1B41E0C0
:1008E00050E064EB73E0D6CF8FEFE7CF8FEFF7CF19
:1008F00080E0D23049F081E0D33031F08EEE8D0FC0
:100900008430C8F487E18D1B41E050E069E873E072
:100910000E945E1480E0C23049F081E0C33031F0C3
:100920008EEE8C0F843048F487E18C1B41E050E060
:1009300067EB73E0AFCF8FEFE7CF8FEFF7CF80E0BC
:10094000D23049F081E0D33031F08EEE8D0F84301B
:10095000C8F487E18D1B41E050E06CE873E00E9431
:100960005E1480E0C23049F081E0C33031F08EEE99
:100970008C0F843048F487E18C1B41E050E06AEB37
:1009800073E088CF8FEFE7CF8FEFF7CF9BE0899FA2
:10099000F0011124EE5CFB4F80819181A281B38133
:1009A000FB0180839183A283B38390E080E008956C
:1009B0009BE0899FF0011124EE5CFB4F10821182B5
:1009C0001282138290E080E0089590E080E0089524
:1009D0002F923F924F925F926F927F928F929F924F
:1009E000AF92BF92CF92DF92EF92FF920F931F933D
:1009F000CF93DF93CDB7DEB7CB54D1090FB6F894C0
:100A0000DEBF0FBECDBF26967FAF6EAF269728966E
:100A10005FAF4EAF28973E8B2D8B2C96FFAEEEAE80
:100A20002C97FB01E150F04CEE0FFF1FEE0FFF1F64
:100A3000E80FF91F80809180A280B3808F8A988E02
:100A4000A98EBA8EB501A401442777FD4395552799
:100A50006627772729964FAF2997F901E150F04C87
:100A6000EE0FFF1FEE0FFF1F2896AEACBFAC28970E
:100A7000EA0DFB1DC080D180E280F380CB8EDC8E3E
:100A8000ED8EFE8EB701A601442777FD43955527CD
:100A9000662777272A964FAF2A97188B0F87F8017A
:100AA00030E020E02C96EEACFFAC2C972E153F05E5
:100AB0000CF43FC022969FAF8EAF22971A8B098B02
:100AC000312C212C812C912C540183948D829E8277
:100AD000AF82B88626968EAC9FAC26972814390430
:100AE0007CF129969FAC29972A96AFAC2A9730E0E3
:100AF00020E041E050E060E070E09A10F5C1C55B95
:100B0000DF4F0FB6F894DEBF0FBECDBFDF91CF91A0
:100B10001F910F91FF90EF90DF90CF90BF90AF901B
:100B20009F908F907F906F905F904F903F902F900D
:100B3000089511921192119211922F5F3F4FB2CFEF
:100B40002296EEADFFAD229781919191A191B19145
:100B50002296FFAFEEAF22978F88988CA98CBA8C23
:100B6000B7FE23C04D815E816F8178854150510968
:100B7000610971095A016B01A81AB90ACA0ADB0A8C
:100B8000D601C50121E0CD80DE80EF80F8848C1590
:100B90009D05AE05BF0508F020E0822E912CB12CFA
:100BA000A12C8D829E82AF82B8865D01CC24DD248B
:100BB000A8A2B9A2CAA2DBA29C01AD014427552775
:100BC0002CA33DA34EA35FA32C96EEADFFAD2C97B7
:100BD000E219F3098D889E888E169F060CF4F401A5
:100BE0002896AEACBFAC28972496BFAEAEAE249785
:100BF000C988DA88DC8ACB8A1E861D86812C912CD6
:100C00005401839489869A86AB86BC86812C912C6C
:100C10005401CD84DE84CE16DF0604F1F7FF02C056
:100C2000F0E0E0E0E20DF31D2C96EEACFFAC2C976B
:100C3000EE15FF0554F4EE0FFF1FEE0FFF1FE00F40
:100C4000F11F80829182A282B3822FEF221A320A90
:100C5000E989FA893496FA8BE98B3CCF2496AEADBC
:100C6000BFAD2497CD90DD90ED90FD902496BFAF61
:100C7000AEAF24972B8D3C8D4D8D5E8D57FF22C0DE
:100C800089859A85AB85BC850197A109B109AC011D
:100C9000BD014C195D096E097F096A017B0181E084
:100CA00029853A854B855C85C216D306E406F50690
:100CB00008F080E0482F50E070E060E049875A87F4
:100CC0006B877C87B7018827992768A779A78AA7A8
:100CD0009BA7EE24FF2428A139A14AA15BA1C7014B
:100CE000B6010E94051C2B013C012CA13DA14EA187
:100CF0005FA168A579A58AA59BA50E94051C6CA784
:100D00007DA78EA79FA7AB89BC894D915D916D9101
:100D10007D91BC8BAB8BDB01CA01880D991DAA1D8F
:100D2000BB1D89839A83AB83BC8391E09F8F29810C
:100D30003A814B815C81281539054A055B0508F02D
:100D40001F8E2CA13DA14EA15FA1C701B6010E943B
:100D5000051C6B017C0189809A80AB80BC808C0C67
:100D60009D1CAE1CBF1C89829A82AB82BC82520140
:100D70009924882488AA99AAAAAABBAA29813A8177
:100D80004B815C81280D391D4A1D5B1D2CAB3DAB91
:100D90004EAB5FAB8CA49DA4AEA4BFA45401992418
:100DA000882488AE99AEAAAEBBAE280D391D4A1D67
:100DB0005B1D2CAF3DAF4EAF5FAFAB89BC891497C5
:100DC0002D933D934D935C93139728A139A14AA18C
:100DD0005BA168A579A58AA59BA50E94051C9F8C8F
:100DE000690D711D811D911D230166247724460E16
:100DF000571E681E791E2CA53DA54EA55FA54A016C
:100E0000AA24BB24840C951CA61CB71C81E090E08E
:100E1000A0E0B0E049815A816B817C814C155D0571
:100E20006E057F0518F080E090E0DC01880D991DCB
:100E3000AA1DBB1D41E050E060E070E088A899A8C1
:100E4000AAA8BBA8CCA8DDA8EEA8FFA8C814D904FE
:100E5000EA04FB0418F040E050E0BA01840F951F4B
:100E6000A61FB71F812C912C54018394C8ACD9AC18
:100E7000EAACFBAC2CAD3DAD4EAD5FAD2C153D05E8
:100E80004E055F0518F0812C912C5401880E991E97
:100E9000AA1EBB1E4D855E854F5F5F4F5E874D87E7
:100EA000B8CEEF85F889C190D190E190F190F88BA0
:100EB000EF87DB01CA010197A109B1098C199D09CE
:100EC000AE09BF09349780839183A283B383E1E0A5
:100ED00084179507A607B70708F0E0E04E2F50E00B
:100EE00070E060E02F5F3F4F2C968EAC9FAC2C974C
:100EF00028153905B4F203CE2F923F924F925F929C
:100F00006F927F928F929F92AF92BF92CF92DF9219
:100F1000EF92FF920F931F93CF93DF9379011B0101
:100F2000DA01D0E0C0E040E050E0BA01CE15DF05C4
:100F30009CF0DF91CF911F910F91FF90EF90DF9088
:100F4000CF90BF90AF909F908F907F906F905F9069
:100F50004F903F902F900895FC0181909190A19027
:100F6000B190CF01F10101911191219131911F01B6
:100F700024013501401A510A620A730A9301820161
:100F8000041B150B260B370B0D931D932D933D93CF
:100F900066246394712CC12CD12C452B462B472BF6
:100FA00039F0081519052A053B0538F4612C05C0F0
:100FB00080169106A206B306C8F7A301B6012196D2
:100FC000B5CF2F923F924F925F926F927F928F9206
:100FD0009F92AF92BF92CF92DF92EF92FF920F93C8
:100FE0001F93CF93DF9300D01F92CDB7DEB78B0155
:100FF0005C834B83FB01E150F04CEE0FFF1FEE0FC3
:10100000FF1FE80FF91F408151816281738177FDD5
:1010100027C04C01B12CA12CC12CD12C7601A016DB
:10102000B10664F5F40161917191819191914F0143
:101030000E9400134B815C810E94B8139B01AC019C
:10104000C701B6010E9467126B017C012B813C81B4
:10105000205E3F4F3C832B833FEFA31AB30ADFCFC1
:101060009A838983312C212C81E090E0A0E0B0E0CC
:10107000C12CD12C760120163106CCF0C701B60167
:101080000F900F900F900F90DF91CF911F910F91C4
:10109000FF90EF90DF90CF90BF90AF909F908F9098
:1010A0007F906F905F904F903F902F900895E981CF
:1010B000FA814190519061907190FA83E983409454
:1010C00050946094709453014201880E991EAA1E98
:1010D000BB1EC501B4010E9400134B815C810E94BC
:1010E000B8139B01AC01C701B6010E9466126B01E7
:1010F0007C0181E084149504A604B70408F080E024
:1011000090E0B0E0A0E02B813C81205E3F4F3C832B
:101110002B833FEF231A330AAECF2F923F924F9289
:101120005F926F927F928F929F92AF92BF92CF9277
:10113000DF92EF92FF920F931F93CF93DF93CDB780
:10114000DEB7AA970FB6F894DEBF0FBECDBF609191
:1011500064047091650480916604909167040E9414
:10116000001320E030E040E85FE40E94EC136B01E4
:101170007C0160916004709161048091620490919F
:1011800063040E9400139B01AC01C701B6010E94D9
:1011900067122AE037ED43E25CE30E94EC136B0137
:1011A0007C016090500770905107AC019B01F301E6
:1011B00060817181828193810E94B21318160CF4B0
:1011C000A2C44090520750905307F301EC5AFF4FCE
:1011D00080809180A280B380A7019601C501B401EF
:1011E0000E94CB1281113EC4F201EC5AFF4F4080A5
:1011F0005180628073802090560730905707A70176
:101200009601F10160817181828193810E94B21304
:1012100018160CF4CFC480915807909159079AA7DB
:1012200089A7F101E45BFF4F80809180A280B380A9
:10123000A7019601C501B4010E94CB12811167C4B8
:10124000E9A5FAA5E45BFF4FC080D180E280F3807E
:10125000409268075092690760926A0770926B0724
:10126000C0926C07D0926D07E0926E07F0926F0704
:101270002091B8033091B9034091BA035091BB0358
:10128000C301B2010E94EC134B015C012091C00329
:101290003091C1034091C2035091C303C701B6010D
:1012A0000E94EC139B01AC01C501B4010E946712BE
:1012B0006093700770937107809372079093730720
:1012C0002091BC033091BD034091BE035091BF03F8
:1012D000C301B2010E94EC134B015C012091C403D5
:1012E0003091C5034091C6035091C703C701B601B1
:1012F0000E94EC139B01AC01C501B4010E9467126E
:1013000060937407709375078093760790937707BF
:10131000C0909803D0909903E0909A03F0909B03BB
:10132000A70196016091FB067091FC068091FD0675
:101330009091FE060E94CB12882341F0C092FB06DA
:10134000D092FC06E092FD06F092FE068091FA062D
:1013500081111092FA06BE016F5D7F4F8091FF06EA
:1013600015DBC0909C03D0909D03E0909E03F0900D
:101370009F03A70196016091EF067091F00680919E
:10138000F1069091F2060E94CB12882341F0C092A0
:10139000EF06D092F006E092F106F092F20680910C
:1013A000EE0681111092EE06BE016B5D7F4F8091BB
:1013B000F306ECDA8091000490910104A0910204FC
:1013C000B0910304898F9A8FAB8FBC8F89A19AA1AA
:1013D000ABA1BCA18D8F9E8FAF8FB8A322E0E22E70
:1013E000F12C0CE817E021E030E0AE01435E5F4FE6
:1013F00061E070E0CE014996EBDA8DA19EA1AFA12C
:10140000B8A58D8F9E8FAF8FB8A38E010F5E1F4F33
:1014100021E030E0AE01435E5F4F61E070E0CE015D
:101420004996D6DA22E030E0AE014F5F5F4F60E4CC
:1014300077E08CE897E060DD88E0FE013196A0E47B
:10144000B7E001900D928A95E1F722E030E0AE011D
:10145000475F5F4F68E477E0C8014EDD88E0FE013A
:101460003996A8E4B7E001900D928A95E1F750E033
:1014700040E062E070E080E497E0A3DD20E030E04F
:1014800048E45DE20E94EC132091A8033091A90387
:101490004091AA035091AB030E94EC136B017C01B5
:1014A000C0928007D0928107E0928207F092830772
:1014B00050E040E062E070E088E497E082DD20E008
:1014C00030E048E45DE20E94EC132091B0033091DB
:1014D000B1034091B2035091B3030E94EC13A701F2
:1014E0009601F5D7609378077093790780937A0710
:1014F00090937B0750E040E062E070E080E497E08A
:1015000060DD20E030E048E45DE20E94EC132091D1
:10151000AC033091AD034091AE035091AF030E94F4
:10152000EC136B017C01C0928007D0928107E0929E
:101530008207F092830750E040E062E070E088E4C8
:1015400097E03FDD20E030E048E45DE20E94EC13EC
:101550002091B4033091B5034091B6035091B70385
:101560000E94EC13A7019601B2D760937C07709399
:101570007D0780937E0790937F07C0907007D0907F
:101580007107E0907207F090730750E040E062E06E
:1015900070E080E497E015DD20E030E048E45DE2B3
:1015A0000E94EC139B01AC01C701B6018FD7609379
:1015B00078077093790780937A0790937B07C090A0
:1015C0007407D0907507E0907607F090770750E0A9
:1015D00040E062E070E088E497E0F3DC20E030E097
:1015E00048E45DE20E94EC139B01AC01C701B60127
:1015F0006DD76B017C01C0927C07D0927D07E09291
:101600007E07F0927F072091500330915103409163
:101610005203509153030E94EC13209130073091F4
:101620003107409132075091330750D7209178030A
:101630003091790340917A0350917B030E94EC131F
:101640004B015C018092800790928107A0928207F3
:10165000B0928307209180033091810340918203EF
:1016600050918303C701B6010E94EC132091340707
:1016700030913507409136075091370728D7A5019B
:10168000940125D75B016C01E0908803F0908903F9
:1016900000918A0310918B039B01AC01B701C80133
:1016A0007AD787FD12C0E0907003F090710300912B
:1016B0007203109173039501A601B701C8010E943E
:1016C000B213181614F0750186019701A8016091F4
:1016D000D0037091D1038091D2039091D3030E94E3
:1016E000EC1360938407709385078093860790932B
:1016F00087076AE070E080E090E00E946F016C0173
:1017000090931F0780931E07809084079090850711
:10171000A0908607B0908707E090D403F090D5039F
:101720000091D6031091D7039701A801B401C50118
:101730000E94B21318168CF0E090D803F090D903F1
:101740000091DA031091DB039701A801B401C501F0
:1017500022D787FD02C07401850120E030E04FE709
:1017600053E4B701C80117D718160CF427C220E0BC
:1017700030E0A901B701C801F5D787FF04C0E12C0B
:10178000F12C00E010E0A701B801C6010E94380169
:1017900069E070E080E090E00E946F018C0190931E
:1017A0001707809316078090840790908507A09074
:1017B0008607B0908707C090DC03D090DD03E090EF
:1017C000DE03F090DF03A7019601B401C501CAD77B
:1017D00018168CF0C090E003D090E103E090E20393
:1017E000F090E303A7019601B401C501D4D687FDAB
:1017F00002C064017501E894F7F820E030E04FE79B
:1018000053E4C701B601C7D6181634F4C12CD12C45
:101810009FE7E92E93E4F92EB701A601C8010E94C3
:10182000380111E02091A4033091A5034091A60353
:101830005091A70360918407709185078091860776
:1018400090918707A8D6811101C010E0612F88E030
:101850000E945A038090780790907907A0907A07A9
:10186000B0907B072091540330915503409156036B
:1018700050915703C501B401AFD72091380730917B
:10188000390740913A0750913B0720D620917C03BD
:1018900030917D0340917E0350917F039DD76B0172
:1018A0007C01C0928407D0928507E0928607F0926F
:1018B00087072091840330918503409186035091DE
:1018C0008703C501B40188D720913C0730913D07BB
:1018D00040913E0750913F07FAD5A7019601F7D5F1
:1018E0005B016C01E0908C03F0908D0300918E03FE
:1018F00010918F039B01AC01B701C8014CD687FD45
:1019000011C0E0907403F09075030091760310917C
:1019100077039501A601B701C80124D7181614F062
:10192000750186012091EC033091ED034091EE03A7
:101930005091EF03B701C8014FD79B01AC01209331
:1019400088073093890740938A0750938B0711E0EB
:101950006091A0037091A1038091A2039091A303D1
:101960001AD6811101C010E0612F8DE00E945A0348
:101970006CE070E080E090E00E946F016C01909359
:101980000F0780930E078090880790908907A0909A
:101990008A07B0908B07E090F003F090F10300917C
:1019A000F2031091F3039701A801B401C501DAD63F
:1019B00018168CF0E090F403F090F5030091F60314
:1019C0001091F7039701A801B401C501E4D587FD83
:1019D00002C07401850120E030E04FE753E4B70115
:1019E000C801D9D518160CF4EEC020E030E0A901EA
:1019F000B701C801B7D687FF04C0E12CF12C00E085
:101A000010E0A701B801C6010E9438016BE070E048
:101A100080E090E00E946F018C0190930707809313
:101A200006078090880790908907A0908A07B09059
:101A30008B07C090F803D090F903E090FA03F09080
:101A4000FB03A7019601C501B4018CD618160CF052
:101A5000BFC0C0928807D0928907E0928A07F092AF
:101A60008B07C5C0A7019601C501B40194D587FDB8
:101A70004AC000915C0710915D075801AA0CBB1C7D
:101A8000AA0CBB1C43018A0C9B1CA7019601F40104
:101A9000608171818281938165D6F4E0AF0EB11CC3
:101AA0006A0C7B1C18161CF584E0881A9108A701A3
:101AB0009601F401648175818681978153D6181649
:101AC0008CF0C801880F991F880F991F480E591E66
:101AD000F201408051806280738010935D07009313
:101AE0005C0789CB01501109DFCF0F5F1F4FF30156
:101AF00061917191819191913F01A70196014BD51F
:101B000018169CF7DECF412C512C320174CBA70163
:101B10009601C501B4013FD587FD4CC080905E079A
:101B200090905F078401000F111F000F111F5101DA
:101B3000A00EB11EA7019601F5016081718182811D
:101B4000938110D60C5F1F4F020D131D181634F52C
:101B500084E0A81AB108A7019601F5016481758196
:101B600086819781FFD5181694F0F401EE0FFF1FC0
:101B7000EE0FFF1F89A59AA5E80FF91FC080D1803D
:101B8000E280F38090925F0780925E0761CBF1E084
:101B90008F1A9108DDCFFFEF8F1A9F0AF80161912C
:101BA0007191819191918F01A7019601F4D418163A
:101BB00094F7DBCFC12CD12C76014ACBE12CF12C50
:101BC0000FE713E4E0CDE12CF12C0FE713E419CF7C
:101BD000C090FC03D090FD03E090FE03F090FF0363
:101BE000A7019601C501B401D6D487FD32CFC090BC
:101BF0008807D0908907E0908A07F0908B07E894D7
:101C0000F7F820E030E04FE753E4C701B601C3D452
:101C1000181634F4C12CD12C8FE7E82E83E4F82E6B
:101C2000B701A601C8010E94380188E0ECE8F7E09E
:101C3000A0E4B7E001900D928A95E1F788E0FE01FB
:101C40007196A8E4B7E001900D928A95E1F7209192
:101C500080073091810740918207509183076091FE
:101C6000C8037091C9038091CA039091CB03B4D586
:101C7000209130073091310740913207509133075E
:101C800026D4609330077093310780933207909386
:101C9000330720917C0730917D0740917E0750915A
:101CA0007F07609158037091590380915A03909176
:101CB0005B0392D52091CC033091CD034091CE03AC
:101CC0005091CF0389D52091340730913507409149
:101CD000360750913707FBD360933407709335076D
:101CE00080933607909337072091840730918507BA
:101CF00040918607509187076091E4037091E50356
:101D00008091E6039091E70367D5209138073091E1
:101D1000390740913A0750913B07D9D36093380770
:101D20007093390780933A0790933B072091780787
:101D30003091790740917A0750917B0760915C035D
:101D400070915D0380915E0390915F0345D5209172
:101D5000E8033091E9034091EA035091EB033CD54D
:101D600020913C0730913D0740913E0750913F073D
:101D7000AED360933C0770933D0780933E079093EA
:101D80003F078091600490916104A0916204B0913A
:101D900063040196A11DB11D8093600490936104BA
:101DA000A0936204B0936304892B8A2B8B2B99F444
:101DB0008091640490916504A0916604B0916704D9
:101DC0000196A11DB11D8093640490936504A093B6
:101DD0006604B0936704AA960FB6F894DEBF0FBEF0
:101DE000CDBFDF91CF911F910F91FF90EF90DF90CA
:101DF000CF90BF90AF909F908F907F906F905F90AB
:101E00004F903F902F9008954F925F926F927F92E4
:101E1000AF92BF92DF92EF92FF920F931F93CF93F7
:101E2000DF9384E090E05BD280919C0790919D07C6
:101E3000A0919E07B0919F0720E5A22E23E0B22E2D
:101E4000F50180AF91AFA2AFB3AF84AF95AFA6AFAE
:101E5000B7AFEEE5F4E08AE0DF011D928A95E9F77D
:101E6000C8EED6E080E8FE0111928A95E9F788EF86
:101E700092E0909351078093500780EA92E090930C
:101E800053078093520780E592E090935707809321
:101E9000560780E092E09093590780935807DD241D
:101EA000D394D09261078091980390919903A09167
:101EB0009A03B0919B038B8B9C8BAD8BBE8B412C7B
:101EC000512C320143944D865E866F86788A4FEF9F
:101ED00056E063E082E00E94BD03D98A1A8A1B861D
:101EE0001882D092600780919C0390919D03A091ED
:101EF0009E03B0919F038F839887A987BA874982F1
:101F00005A826B827C8243EF56E063E182E10E9459
:101F1000BD03DD821E8218AAD092670749AA5AAA79
:101F20006BAA7CAAE12CF12C8701A80197016AE039
:101F300070E080E090E00E94B3019FAB8EABDDAA21
:101F400018A6D092660749A65AA66BA67CA6A80139
:101F5000970169E070E080E090E00E94B3019FA7E4
:101F60008EA7DDA618AED092640749AE5AAE6BAE0E
:101F70007CAE61E088E00E945203DDAE109228073B
:101F8000D09265074092290750922A0760922B074A
:101F900070922C0761E08DE00E945203D0922D07D1
:101FA00018A2D092630749A25AA26BA27CA2A801F0
:101FB00097016CE070E080E090E00E94B3019FA385
:101FC0008EA3DDA2188ED0926207498E5A8E6B8E38
:101FD0007C8EA80197016BE070E080E090E00E94A9
:101FE000B3019F8F8E8FDD8E88E0E0E9F3E0A0E4FF
:101FF000B7E001900D928A95E1F788E0E0E9F3E01F
:10200000A8E4B7E001900D928A95E1F7F501808987
:102010009189A289B3898093300790933107A09367
:102020003207B0933307808D918DA28DB38D80934D
:10203000340790933507A0933607B0933707848908
:102040009589A689B7898093380790933907A0931B
:102050003A07B0933B07848D958DA68DB78D8093FD
:102060003C0790933D07A0933E07B0933F078F89AD
:102070000E94D8048B85DF91CF911F910F91FF9023
:10208000EF90DF90BF90AF907F906F905F904F90F8
:102090000C94D8048091F406811114C081E08093DF
:1020A000F4068091F5069091F606A091F706B0919E
:1020B000F8060197A105B10529F48091F90681116F
:1020C0000E94E5048091E806811114C081E08093AC
:1020D000E8068091E9069091EA06A091EB06B0919E
:1020E000EC060197A105B10529F48091ED06811157
:1020F0000E94E5048091180781112EC081E0809331
:1021000018078091190790911A07A0911B07B091A9
:102110001C070197A105B105F9F480911D078823DB
:10212000D9F06AE070E080E090E00E946F01909347
:102130001F0780931E0740E050E0BA010E9438015B
:102140006AE070E080E090E00E946F0190931F07CA
:1021500080931E070E9404028091100781112EC0F7
:1021600081E0809310078091110790911207A09150
:102170001307B09114070197A105B105F9F48091F7
:1021800015078823D9F069E070E080E090E00E94B4
:102190006F01909317078093160740E050E0BA0153
:1021A0000E94380169E070E080E090E00E946F01D9
:1021B00090931707809316070E94040280912007CE
:1021C000811103C081E0809320078091280781114D
:1021D00003C081E0809328078091080781112EC0F9
:1021E00081E0809308078091090790910A07A091E8
:1021F0000B07B0910C070197A105B105F9F4809187
:102200000D078823D9F06CE070E080E090E00E9438
:102210006F0190930F0780930E0740E050E0BA01E2
:102220000E9438016CE070E080E090E00E946F0155
:1022300090930F0780930E070E940402809100077D
:1022400081112EC081E08093000780910107909159
:102250000207A0910307B09104070197A105B105FA
:10226000F9F4809105078823D9F06BE070E080E0F5
:1022700090E00E946F01909307078093060740E06B
:1022800050E0BA010E9438016BE070E080E090E01D
:102290000E946F0190930707809306070C94040235
:1022A000089560E070E080E89FE7089560E070E0E6
:1022B00080E89FE7089560E070E080E89FEF089570
:1022C00060E070E080E89FEF089560E070E080ECEF
:1022D0009FEF089560E070E080EC9FEF0895F5DFD8
:1022E0006093A0077093A1078093A2079093A30720
:1022F000F1DF60939407709395078093960790930E
:102300009707CFDF60939C0770939D0780939E078C
:1023100090939F07CBDF6093980770939907809302
:102320009A0790939B07C7DF6093A4077093A50754
:102330008093A6079093A707C3DF6093A8077093C5
:10234000A9078093AA079093AB07089526E030E091
:1023500040E855E260E070E090E080E000C081304D
:10236000910569F01CF4892B39F0089582309105AC
:1023700049F0039751F0089584E794E089C781E11B
:1023800095E0FCCF8EEA95E0F9CF8BE496E0F6CFAE
:102390001F920F920FB60F9211240BB60F922F932C
:1023A0003F934F935F936F937F938F939F93AF93DD
:1023B000BF93EF93FF938FE89DEF90932501809358
:1023C000240134D0FF91EF91BF91AF919F918F91F4
:1023D0007F916F915F914F913F912F910F900BBE25
:1023E0000F900FBE0F901F9018958FE89DEF909360
:1023F000250180932401A3E7B0E08C918E7F8C931C
:10240000E0E2F1E080818C7F8083E1E2F1E0808195
:10241000877E808380818460808380818C7F8083BD
:102420008C9181608C93089581E008958091680477
:1024300091E0980F90936804882349F021E030E000
:1024400030936A0420936904809368040895789413
:102450000E948D08F894809168048150F5CFCF9345
:10246000DF931092AD071092AC0743D46FDFC09199
:102470001404D091150419821882C6DCF894B5DFD3
:1024800081E028813981232B09F080E08093AC071B
:10249000789478948091AC07811107C0FBDDF894A3
:1024A00090E080E0DF91CF91089581E0288139812B
:1024B000232B09F480E08093AD079091AD0781E074
:1024C000911180E08093AC07AFDFE4CF5058BB2779
:1024D000AA270ED00DC1FED030F003D120F031F488
:1024E0009F3F11F41EF4F3C00EF4E095E7FBE9C042
:1024F000E92F0FD180F3BA17620773078407950796
:1025000018F071F49EF527C10EF4E0950B2EBA2F4A
:10251000A02D0B01B90190010C01CA01A0011124E9
:10252000FF27591B99F0593F50F4503E68F11A1695
:10253000F040A22F232F342F4427585FF3CF469526
:1025400037952795A795F0405395C9F77EF41F1648
:10255000BA0B620B730B840BBAF09150A1F0FF0F12
:10256000BB1F661F771F881FC2F70EC0BA0F621FFE
:10257000731F841F48F4879577956795B795F795EE
:102580009E3F08F0B3CF9395880F08F09927EE0F80
:1025900097958795089571D008F481E0089504D047
:1025A0006894B111D9C00895BCD088F09F5790F0BD
:1025B000B92F9927B751A0F0D1F0660F771F881F68
:1025C000991F1AF0BA95C9F712C0B13081F0C3D083
:1025D000B1E00895C0C0672F782F8827B85F39F021
:1025E000B93FCCF3869577956795B395D9F73EF4C7
:1025F00090958095709561957F4F8F4F9F4F08956F
:10260000E89409C097FB3EF490958095709561958C
:102610007F4F8F4F9F4F9923A9F0F92F96E9BB2742
:102620009395F695879577956795B795F111F8CFBE
:10263000FAF4BB0F11F460FF1BC06F5F7F4F8F4F29
:102640009F4F16C0882311F096E911C0772321F01F
:102650009EE8872F762F05C0662371F096E8862FB7
:1026600070E060E02AF09A95660F771F881FDAF70E
:10267000880F9695879597F90895990F0008550F3B
:10268000AA0BE0E8FEEF16161706E807F907C0F0F8
:1026900012161306E407F50798F0621B730B840B00
:1026A000950B39F40A2661F0232B242B252B21F4DA
:1026B00008950A2609F4A140A6958FEF811D811D7A
:1026C000089597F99F6780E870E060E008959FEFB4
:1026D00080EC089500240A941616170618060906B9
:1026E000089500240A941216130614060506089588
:1026F000092E0394000C11F4882352F0BB0F40F410
:10270000BF2B11F460FF04C06F5F7F4F8F4F9F4F4F
:10271000089557FD9058440F551F59F05F3F71F0D1
:102720004795880F97FB991F61F09F3F79F0879538
:102730000895121613061406551FF2CF4695F1DFC1
:1027400008C0161617061806991FF1CF8695710551
:10275000610508940895E894BB2766277727CB0185
:1027600097F908958ADF08F48FEF0895AACF97C0EC
:10277000D8DFE8F39923D9F3940F511DBBF391509F
:10278000504094F059F0882332F0660F771F881F6D
:1027900091505040C1F79E3F510544F7880F911D5D
:1027A0009695879597F908955F3FACF0983E9CF019
:1027B000BB27869577956795B79508F4B160939593
:1027C000C1F7BB0F58F711F460FFE8CF6F5F7F4F81
:1027D0008F4F9F4FE3CFC0CF0BD08ACF7BDF28F046
:1027E00080DF18F0952309F06CCF71CF1124B4CF9E
:1027F00090DFA0F3959FD1F3950F50E0551F629F96
:10280000F001729FBB27F00DB11D639FAA27F00D49
:10281000B11DAA1F649F6627B00DA11D661F829F70
:102820002227B00DA11D621F739FB00DA11D621F55
:10283000839FA00D611D221F749F3327A00D611D72
:10284000231F849F600D211D822F762F6A2F112454
:102850009F5750408AF0E1F088234AF0EE0FFF1FA7
:10286000BB1F661F771F881F91505040A9F79E3FDE
:10287000510570F026CF70CF5F3FECF3983EDCF34C
:10288000869577956795B795F795E7959F5FC1F71B
:10289000FE2B880F911D9695879597F908959F3F78
:1028A00031F0915020F4879577956795B795880F0B
:1028B000911D9695879597F908950895883008F0A9
:1028C00075C0E82FF0E0EE0FFF1FEC5FFB4F718348
:1028D00060838150873008F03CC0E82FF0E0882703
:1028E000EC58FB4E8F4FC2C7B1147B1483148F1466
:1028F0009C14BD14CA14809169008C7F482B4093AE
:102900006900E89A089580916900837F440F551FFC
:10291000440F551F482B40936900E99A0895809110
:1029200069008F7C74E0440F551F7A95E1F7482BBE
:1029300040936900EA9A0895809169008F7366E078
:10294000440F551F6A95E1F7482B40936900EB9AB5
:10295000089580916A008C7F482B40936A00EC9A1E
:10296000089580916A00837F440F551F440F551FBF
:10297000482B40936A00ED9A089580916A008F7CFD
:1029800024E0440F551F2A95E1F7482B40936A0035
:10299000EE9A089580916A008F7396E0440F551F58
:1029A0009A95E1F7482B40936A00EF9A08951F9299
:1029B0000F920FB60F9211240BB60F922F933F93E5
:1029C0004F935F936F937F938F939F93AF93BF9337
:1029D000EF93FF93E0910804F09109041995FF919A
:1029E000EF91BF91AF919F918F917F916F915F9187
:1029F0004F913F912F910F900BBE0F900FBE0F90F4
:102A00001F9018951F920F920FB60F9211240BB6BC
:102A10000F922F933F934F935F936F937F938F9377
:102A20009F93AF93BF93EF93FF93E0910A04F091CC
:102A30000B041995FF91EF91BF91AF919F918F91E9
:102A40007F916F915F914F913F912F910F900BBEAE
:102A50000F900FBE0F901F9018951F920F920FB6F8
:102A60000F9211240BB60F922F933F934F935F93C6
:102A70006F937F938F939F93AF93BF93EF93FF9346
:102A8000E0910C04F0910D041995FF91EF91BF9125
:102A9000AF919F918F917F916F915F914F913F91F6
:102AA0002F910F900BBE0F900FBE0F901F90189597
:102AB0001F920F920FB60F9211240BB60F922F9305
:102AC0003F934F935F936F937F938F939F93AF93B6
:102AD000BF93EF93FF93E0910E04F0910F041995CB
:102AE000FF91EF91BF91AF919F918F917F916F91E6
:102AF0005F914F913F912F910F900BBE0F900FBEA2
:102B00000F901F9018951F920F920FB60F921124DD
:102B10000BB60F922F933F934F935F936F937F93D7
:102B20008F939F93AF93BF93EF93FF93E091040430
:102B3000F09105041995FF91EF91BF91AF919F918D
:102B40008F917F916F915F914F913F912F910F9056
:102B50000BBE0F900FBE0F901F9018951F920F92F3
:102B60000FB60F9211240BB60F922F933F934F93F2
:102B70005F936F937F938F939F93AF93BF93EF93E5
:102B8000FF93E0910604F09107041995FF91EF91EE
:102B9000BF91AF919F918F917F916F915F914F9175
:102BA0003F912F910F900BBE0F900FBE0F901F9073
:102BB00018951F920F920FB60F9211240BB60F9219
:102BC0002F933F934F935F936F937F938F939F9335
:102BD000AF93BF93EF93FF93E0911004F091110432
:102BE0001995FF91EF91BF91AF919F918F917F9137
:102BF0006F915F914F913F912F910F900BBE0F906E
:102C00000FBE0F901F9018951F920F920FB60F9244
:102C100011240BB60F922F933F934F935F936F93B3
:102C20007F938F939F93AF93BF93EF93FF93E09125
:102C30001204F09113041995FF91EF91BF91AF9198
:102C40009F918F917F916F915F914F913F912F91C4
:102C50000F900BBE0F900FBE0F901F9018951F92F4
:102C60000F920FB60F9211242F933F938F939F9340
:102C7000AF93BF9380916C0490916D04A0916E040A
:102C8000B0916F0430916B0423E0230F2D3758F57A
:102C90000196A11DB11D20936B0480936C04909349
:102CA0006D04A0936E04B0936F04809170049091B2
:102CB0007104A0917204B09173040196A11DB11D1D
:102CC0008093700490937104A0937204B093730482
:102CD000BF91AF919F918F913F912F910F900FBE18
:102CE0000F901F90189526E8230F0296A11DB11D85
:102CF000D2CF789484B5826084BD84B5816084BD70
:102D000085B5826085BD85B5816085BDEEE6F0E064
:102D1000808181608083E1E8F0E0108280818260C0
:102D20008083808181608083E0E8F0E08081816041
:102D30008083E1EBF0E0808184608083E0EBF0E071
:102D4000808181608083E1E9F0E08081826080831E
:102D5000808181608083E0E9F0E080818160808310
:102D6000E1EAF0E0808182608083808181608083FD
:102D7000E0EAF0E0808181608083E1E2F1E080813F
:102D800082608083808181608083E0E2F1E08081E5
:102D900081608083EAE7F0E08081846080838081C5
:102DA000826080838081816080838081806880836D
:102DB0001092C10008951F93CF93DF93182FEB015A
:102DC00061E033D1209731F460E0812FDF91CF9122
:102DD0001F9167C1CF3FD10511F461E0F6CFE12F1C
:102DE000F0E0EC51FF4FE491E150E23108F0B2C065
:102DF000F0E08827E250F94E8F4F38C510171817AA
:102E00001D1727173117AA173B1743174B175517CD
:102E10005F17691778178217AA178C179617A017CC
:102E200084B5806884BDC7BDDF91CF911F9108959F
:102E300084B5806284BDC8BDF7CF80918000806872
:102E400080938000D0938900C0938800EDCF80915B
:102E50008000806280938000D0938B00C0938A00B2
:102E6000E3CF80918000886080938000D0938D00B4
:102E7000C0938C00D9CF8091B00080688093B0005F
:102E8000C093B300D1CF8091B00080628093B00036
:102E9000C093B400C9CF8091900080688093900067
:102EA000D0939900C0939800BFCF8091900080622A
:102EB00080939000D0939B00C0939A00B5CF8091EF
:102EC0009000886080939000D0939D00C0939C00F8
:102ED000ABCF8091A00080688093A0008091A0007B
:102EE0008F7B8093A000D093A900C093A8009CCFB3
:102EF0008091A00080628093A000D093AB00C0932B
:102F0000AA0092CF8091A00088608093A000D09307
:102F1000AD00C093AC0088CF809120018068809381
:102F20002001D0932901C09328017ECF80912001F8
:102F3000806280932001D0932B01C0932A0174CF2B
:102F400080912001886080932001D0932D01C0934F
:102F50002C016ACFC038D1050CF03FCF35CF81505E
:102F6000823108F059C0E82FF0E08827E654F84E87
:102F70008F4F7CC4DA17DE17CC17D217D6170C1870
:102F8000E117E717EB17F117F517F917FF170318F4
:102F90000C1807180D181118809180008F778093F6
:102FA00080000895809180008F7DF9CF809180000E
:102FB000877FF5CF84B58F7784BD089584B58F7DE5
:102FC000FBCF8091B0008F778093B00008958091FF
:102FD000B0008F7DF9CF809190008F778093900023
:102FE0000895809190008F7DF9CF80919000877F28
:102FF000F5CF8091A0008F778093A00008958091F5
:10300000A0008F7DF9CF8091A000877FF5CF8091C0
:1030100020018F77809320010895809120018F7D7A
:10302000F9CF80912001877FF5CFCF93DF9390E098
:10303000FC01E65DFE4F249180599E4FFC01849176
:103040008823C9F090E0880F991FFC01E651FE4FDC
:10305000A591B491FC01E053FE4FC591D49161114B
:103060000DC09FB7F8948C91209582238C93888112
:10307000282328839FBFDF91CF910895623051F4B8
:103080009FB7F8943C91822F809583238C93E8819D
:103090002E2BEFCF8FB7F894EC912E2B2C938FBF64
:1030A000EACF1F93CF93DF93282F30E0F901EC5143
:1030B000FF4F8491F901E65DFE4FD491F901E0598B
:1030C000FE4FC491CC23A1F0162F811148DFEC2FC5
:1030D000F0E0EE0FFF1FE053FE4FA591B4918FB7C4
:1030E000F894EC91111108C0D095DE23DC938FBFCA
:1030F000DF91CF911F910895DE2BF8CFFC01918DC8
:10310000228D892F90E0805C9F4F821B91098F73E5
:1031100099270895FC01918D828D981731F0828D49
:10312000E80FF11D858D90E008958FEF9FEF0895D2
:10313000FC01918D828D981761F0A28DAE0FBF2F8B
:10314000B11D5D968C91928D9F5F9F73928F90E0E1
:1031500008958FEF9FEF0895FC01538D448D252F27
:1031600030E0842F90E0821B930B541710F0CF9621
:10317000089501970895FC01A48DA80FB92FB11DE2
:10318000A35ABF4F2C91848D90E001968F7399279D
:10319000848FA689B7892C93A089B1898C9183707B
:1031A00080648C93938D848D981306C00288F38974
:1031B000E02D80818F7D80830895CF93DF93EC0194
:1031C000888D8823B1F0AA89BB89E889F9898C9117
:1031D00085FD03C0808186FD0CC00FB607FCF7CFCC
:1031E0008C9185FFF2CF808185FFEDCFCE01C3DFCB
:1031F000EACFDF91CF910895EF92FF920F931F9343
:10320000CF93DF93EC0181E0888F9B8D8C8D981399
:103210001AC0E889F989808185FF15C09FB7F894A5
:10322000EE89FF896083E889F989808183708064F1
:1032300080839FBF81E090E0DF91CF911F910F913C
:10324000FF90EF900895F62E0B8D10E00F5F1F4F4B
:103250000F731127E02E8C8D8E110BC00FB607FC5B
:10326000FACFE889F989808185FFF5CFCE0183DF28
:10327000F2CFEB8DEC0FFD2FF11DE35AFF4FF082E3
:103280009FB7F8940B8FEA89FB8980818062D0CF49
:10329000CF92DF92EF92FF921F93CF93DF93EC01D7
:1032A0006A017B01122FE889F98982E08083C114C9
:1032B00081EED806E104F10499F060E079E08DE355
:1032C00090E0A7019601B0D221503109410951097E
:1032D0005695479537952795211580E1380790F049
:1032E000E889F989108260E874E88EE190E0A7012E
:1032F00096019AD2215031094109510956954795B5
:1033000037952795EC85FD853083EE85FF852083F5
:10331000188EEC89FD891083EA89FB8980818061A0
:103320008083EA89FB89808188608083EA89FB89C0
:10333000808180688083EA89FB8980818F7D80839A
:10334000DF91CF911F91FF90EF90DF90CF90089584
:103350001F920F920FB60F9211240BB60F922F935C
:103360008F939F93EF93FF93E0918404F0918504F2
:103370008081E0918A04F0918B0482FD1DC09081D0
:1033800080918D048F5F8F7320918E04821741F09E
:10339000E0918D04F0E0EC58FB4F958F80938D0405
:1033A000FF91EF919F918F912F910F900BBE0F90F6
:1033B0000FBE0F901F9018958081F2CF1F920F9231
:1033C0000FB60F9211240BB60F922F933F934F938A
:1033D0005F936F937F938F939F93AF93BF93EF937D
:1033E000FF9384E794E0C7DEFF91EF91BF91AF9127
:1033F0009F918F917F916F915F914F913F912F910D
:103400000F900BBE0F900FBE0F901F901895E4E722
:10341000F4E01382128288EE93E0A0E0B0E08483AF
:103420009583A683B7838AE194E09183808385ECBA
:1034300090E09587848784EC90E09787868780EC7E
:1034400090E0918B808B81EC90E0938B828B82EC6F
:1034500090E0958B848B86EC90E0978B868B118E19
:10346000128E138E148E08951F920F920FB60F9224
:1034700011240BB60F922F938F939F93EF93FF938B
:10348000E0912105F09122058081E0912705F091DE
:10349000280582FD1DC0908180912A058F5F8F7362
:1034A00020912B05821741F0E0912A05F0E0EF5EB4
:1034B000FA4F958F80932A05FF91EF919F918F91FD
:1034C0002F910F900BBE0F900FBE0F901F9018956D
:1034D0008081F2CF1F920F920FB60F9211240BB67C
:1034E0000F922F933F934F935F936F937F938F939D
:1034F0009F93AF93BF93EF93FF9381E195E03BDE02
:10350000FF91EF91BF91AF919F918F917F916F91BB
:103510005F914F913F912F910F900BBE0F900FBE77
:103520000F901F901895E1E1F5E01382128288EE6A
:1035300093E0A0E0B0E084839583A683B7838AE11B
:1035400094E0918380838DEC90E0958784878CEC68
:1035500090E09787868788EC90E0918B808B89EC50
:1035600090E0938B828B8AEC90E0958B848B8EEC31
:1035700090E0978B868B118E128E138E148E089589
:103580001F920F920FB60F9211240BB60F922F932A
:103590008F939F93EF93FF93E091BE05F091BF054A
:1035A0008081E091C405F091C50582FD1DC0908128
:1035B0008091C7058F5F8F732091C805821741F0F6
:1035C000E091C705F0E0E255FA4F958F8093C7056B
:1035D000FF91EF919F918F912F910F900BBE0F90C4
:1035E0000FBE0F901F9018958081F2CF1F920F92FF
:1035F0000FB60F9211240BB60F922F933F934F9358
:103600005F936F937F938F939F93AF93BF93EF934A
:10361000FF938EEA95E0AFDDFF91EF91BF91AF91FF
:103620009F918F917F916F915F914F913F912F91DA
:103630000F900BBE0F900FBE0F901F901895EEEAE3
:10364000F5E01382128288EE93E0A0E0B0E084837C
:103650009583A683B7838AE194E09183808385ED87
:1036600090E09587848784ED90E09787868780ED4A
:1036700090E0918B808B81ED90E0938B828B82ED3B
:1036800090E0958B848B86ED90E0978B868B118EE6
:10369000128E138E148E08951F920F920FB60F92F2
:1036A00011240BB60F922F938F939F93EF93FF9359
:1036B000E0915B06F0915C068081E0916106F091FB
:1036C000620682FD1DC09081809164068F5F8F73BA
:1036D00020916506821741F0E0916406F0E0E55B19
:1036E000F94F958F80936406FF91EF919F918F9191
:1036F0002F910F900BBE0F900FBE0F901F9018953B
:103700008081F2CF1F920F920FB60F9211240BB649
:103710000F922F933F934F935F936F937F938F936A
:103720009F93AF93BF93EF93FF938BE496E023DDDA
:10373000FF91EF91BF91AF919F918F917F916F9189
:103740005F914F913F912F910F900BBE0F900FBE45
:103750000F901F901895EBE4F6E01382128288EE2A
:1037600093E0A0E0B0E084839583A683B7838AE1E9
:1037700094E09183808385E391E09587848784E357
:1037800091E09787868780E391E0918B808B81E33E
:1037900091E0938B828B82E391E0958B848B86E31F
:1037A00091E0978B868B118E128E138E148E089556
:1037B000AF92BF92CF92DF92EF92FF920F931F933F
:1037C000CF93DF936C017B018B01040F151FEB017D
:1037D0005E01AE18BF08C017D10759F06991D60134
:1037E000ED91FC910190F081E02DC6011995892B96
:1037F00079F7C501DF91CF911F910F91FF90EF9065
:10380000DF90CF90BF90AF900895DB018F939F938F
:1038100035D0BF91AF91A29F800D911DA39F900DB8
:10382000B29F900D11240895A1E21A2EAA1BBB1B72
:10383000FD010DC0AA1FBB1FEE1FFF1FA217B3077C
:10384000E407F50720F0A21BB30BE40BF50B661F92
:10385000771F881F991F1A9469F760957095809556
:1038600090959B01AC01BD01CF010895EE0FFF1FA4
:10387000881F8BBF0790F691E02D199409D0A59F62
:10388000900DB49F900DA49F800D911D112408955B
:10389000A29FB001B39FC001A39F700D811D112491
:1038A000911DB29F700D811D1124911D0895F894F2
:0238B000FFCF48
:1038B2000000000000000000DB0FC9BFDB0FC9BF22
:1038C2007CD9A0BE7CD9A0BE000000000000000090
:1038D200DB0FC9BFDB0FC9BF000000000000000002
:1038E200DB0FC9BFDB0FC9BF0000000000000000F2
:1038F200DB0FC93FDB0FC93F0000000000000000E2
:10390200000000003333B3403333B3403333F3406A
:103912003333F3409A9949419A994941CDCC7C413C
:10392200CDCC7C4166668641666686410000B84120
:103932000000B8410000C0410000C0410000F04159
:103942000000F0410000F4410000F44100000C428C
:1039520000000000000000000000803E0000803EE9
:1039620000000000000000000000803E0000803ED9
:1039720000000000000000000000803E0000803EC9
:1039820000000000000000000000803E0000803EB9
:1039920000000000000000000000803E0000803EA9
:1039A2000000000000000000000000000000803F56
:1039B2000000803F3333B3403333B3403333F340FB
:1039C2003333F340CDCC7C41CDCC7C41666686411D
:1039D200666686410000B8410000B8410000C0415F
:1039E2000000C0410000F0410000F0410000F4413D
:1039F2000000F44100000A4200000A4200000C42AA
:103A0200327640C1E55044C1CC450245D1CF05458F
:103A120000000000000000000000000000000000A4
:103A22000000000000000000E5FBA9409E05AA403E
:103A3200AA55EC421554F7420000000000000000B5
:103A42000000000000000000000080BF000080BFF6
:103A520000000000000000000000003F5555D5C0E6
:103A62000000003F5555D5400000803F0000803FD8
:103A72009A9999BD9A99993D0AD7233C0AD7233C32
:103A82000000803F00007F430000000000000000B3
:103A920000007FC30AD7233C0AD7233C0000803FA3
:103AA20000007F43000000000000000000007FC310
:103AB200F36C73445D145D145D145D145D145D1448
:103AC2005D145D145E0400000000FC18D81BAC18E5
:083AD200DD187E1898188A180F
:00000001FF
