:1000000014C100000C94B9180C94E4180C940F1946
:100010000C943A190C9465190C9490190C94BB1912
:100020000C94E61933C1000031C100002FC100005B
:100030002DC100002BC1000029C1000027C1000014
:1000400025C1000023C1000021C100001FC1000024
:100050001DC100001BC1000019C100000C94111A41
:1000600015C100000C948A1D0C94C01D0FC1000026
:100070000DC100000BC1000009C1000007C1000054
:1000800005C1000003C1000001C10000FFC0000065
:100090000C94161E0C944C1EF9C00000F7C0000012
:1000A000F5C00000F3C00000F1C00000EFC0000088
:1000B000EDC00000EBC00000E9C00000E7C0000098
:1000C000E5C00000E3C000000C9432150C94A21EA1
:1000D0000C94D81EDBC000000C942E1F0C94641FDF
:1000E000D5C0000005A84CCDB2D44EB93836A9020F
:1000F0000C50B9918688083CA6AAAA2ABE00000026
:10010000803F00000A0B02090C0D0E0807030401D2
:1001100000000000000000000000000000000000DF
:1001200000000000000000000000000000001211AC
:1001300010000000000000000000000000000000AF
:10014000000000000000000001021020200808103C
:100150002040102040800201020108040201010237
:100160000408102040808040201008040201800410
:10017000020180402010080402010804020101026B
:10018000040810204080010204081020408005056A
:100190000505070508080808020202020A0A0808FD
:1001A000040404040101010101010101030303032B
:1001B00003030303040707070C0C0C0C0C0C0C0CBA
:1001C0000202020206060606060606060B0B0B0BCB
:1001D0000B0B0B0B000020002300260029002C0035
:1001E0002F00320000010000030106010901000098
:1001F0002200250028002B002E00310034000201CF
:100200000000050108010B01000021002400270067
:100210002A002D0030003300010100000401070115
:100220000A01E91D751E011F8D1F11241FBECFEF8E
:10023000D1E2DEBFCDBF00E00CBF13E0A0E0B2E032
:10024000E6E7F0E400E00BBF02C007900D92AC318E
:10025000B107D9F726E0ACE1B3E001C01D92A93A9D
:10026000B207E1F711E0C5E1D1E000E006C0219757
:100270000109802FFE010E941820C131D10780E0C2
:100280000807A9F70E9499150C943920B9CECF928E
:10029000DF92EF92FF92CF93882351F16A017B01A5
:1002A000CFEFC80F20E030E0A901CB01B6010E94DA
:1002B000351618168CF0C701B60190580E944116E9
:1002C0009B01AC016C2F70E090E080E0CF91FF903B
:1002D000EF90DF90CF90B2C0C701B6010E943C16EC
:1002E0008C2FCF91FF90EF90DF90CF900C94BD1AA0
:1002F000CF91FF90EF90DF90CF9008950F931F93D1
:100300008B019C0183E036952795179507958A9573
:10031000D1F7045E1C4F462F477021E030E0F90111
:1003200002C0EE0FFF1F4A95E2F7AF01F8012081EE
:100330002423CB010196211102C090E080E01F919F
:100340000F9108950F931F938B019C0183E03695C5
:100350002795179507958A95D1F7677081E090E00A
:1003600001C0880F6A95EAF7F801E45EFC4F20812E
:10037000452B31F48095822380831F910F9108953E
:10038000822BFACF2F923F924F925F926F927F9281
:100390008F929F92AF92BF92CF92DF92EF92FF9295
:1003A0000F931F93CF93DF93D62EC72E782E692EEF
:1003B00049015A01280161E08D2D0E94F71BCD2DC6
:1003C000DC2D8E010F5F1F4FA8016D2D7C2D872D19
:1003D000962DB8DF20E030E0A901C201B7010E94EC
:1003E0005817181664F4C201B7010E9441162B0178
:1003F000C501B4010E944116A201CE0123D0C8015B
:10040000DF91CF911F910F91FF90EF90DF90CF90F0
:10041000BF90AF909F908F907F906F905F904F9024
:100420003F902F900895882341F08150682F70E00D
:1004300090E080E050E040E085CF0895862FB9013C
:100440000C94BD1A9C01FC01EE5FFE4FE491E1505B
:10045000E231E0F4F0E08827EF5CFD4F8F4F0C9421
:10046000182043024A024D026402790246028E02BB
:100470009A029E02B502CA02DF02F6020B0346028E
:10048000200337034C0384B5806884BD60E0822F6D
:100490000C94331C84B58062F8CF809180008C7FEF
:1004A00082608093800080918100807E8061682BD3
:1004B0006093810050938700409386008091800074
:1004C000806880938000E2CF809180008C7F826082
:1004D0008093800080918100807E8061682B609392
:1004E0008100509387004093860080918000806255
:1004F000E8CF809180008C7F826080938000809123
:100500008100807E8061682B60938100509387001A
:1005100040938600809180008860D3CF8091B000A6
:1005200080688093B0008091B100887F682B6093D1
:10053000B100ACCF8091B0008062F3CF8091900089
:100540008C7F82608093900080919100807E80619A
:10055000682B609391005093970040939600809190
:10056000900080688093900091CF809190008C7F64
:1005700082608093900080919100807E8061682BE2
:100580006093910050939700409396008091900063
:100590008062E8CF809190008C7F82608093900091
:1005A00080919100807E8061682B609391005093D0
:1005B000970040939600809190008860D3CF8091FF
:1005C000A0008C7F82608093A0008091A100807E3B
:1005D0008061682B6093A1005093A7004093A60010
:1005E0008091A00080688093A00050CF8091A000EF
:1005F0008C7F82608093A0008091A100807E8061CA
:10060000682B6093A1005093A7004093A6008091AF
:10061000A0008062E8CF8091A0008C7F82608093F0
:10062000A0008091A100807E8061682B6093A10072
:100630005093A7004093A6008091A0008860D3CF7C
:10064000809120018C7F8260809320018091210124
:10065000807E8061682B6093210150932701409335
:100660002601809120018068809320010FCF809126
:1006700020018C7F82608093200180912101807E07
:100680008061682B609321015093270140932601DC
:10069000809120018062E8CF809120018C7F826070
:1006A0008093200180912101807E8061682B60937E
:1006B00021015093270140932601809120018860F9
:1006C000D3CF611102C00C94F71B6130E1F362E0FB
:1006D000FACF662319F061E00C94331C60E0FCCF84
:1006E000FC01A781B0858C9191858923A481B58176
:1006F0009C9140815181628173812681922359F0BE
:1007000081110BC04F5F5F4F6F4F7F4F408351830D
:100710006283738308958111F5CF415051096109B6
:100720007109F4CF86E293E0DBCF81E393E0D8CF89
:100730008CE393E0D5CF87E493E0D2CFFC01A48192
:10074000B5818C9196818923A781B0859C91408148
:100750005181628173812185922359F0882359F058
:100760004F5F5F4F6F4F7F4F40835183628373832F
:1007700008958823A9F34150510961097109F4CF03
:1007800086E293E0DBCF81E393E0D8CF8CE393E084
:10079000D5CF87E493E0D2CF0F931F93CF93DF930E
:1007A000D82FC62F8A01A09125038BE0A89FD001E6
:1007B0001124AA5DBC4F1D921D921D921C9213978D
:1007C00081E01A968C931A978D2F90E0FC01E85BDC
:1007D000FE4FE4911696EC931697FC01E257FE4FFC
:1007E000E491F0E0EE0FFF1FEC52FE4F85919491E3
:1007F00015969C938E931497862F90E0FC01E85BEE
:10080000FE4FE4911996EC931997FC01E257FE4FC5
:10081000E491F0E0EE0FFF1FEC52FE4F85919491B2
:1008200018969C938E93179760E08D2F0E94F71B6C
:1008300060E08C2F0E94F71B80912503813009F422
:100840003FC0A8F0823009F462C0833009F486C04A
:100850008091250391E0980F90932503F801808300
:1008600090E080E0DF91CF911F910F91089580E09B
:10087000D23049F081E0D33031F08EEE8D0F8430EC
:10088000D8F487E18D1B41E050E062E973E00E94FB
:10089000401880E0C23049F081E0C33031F08EEE84
:1008A0008C0F843058F487E18C1B41E050E060EC01
:1008B00073E00E944018CCCF8FEFE5CF8FEFF5CFDC
:1008C00080E0D23049F081E0D33031F08EEE8D0FF0
:1008D0008430C8F487E18D1B41E050E065E973E0A6
:1008E0000E94401880E0C23049F081E0C33031F00E
:1008F0008EEE8C0F843048F487E18C1B41E050E091
:1009000063EC73E0D6CF8FEFE7CF8FEFF7CF80E0C8
:10091000D23049F081E0D33031F08EEE8D0F84304B
:10092000C8F487E18D1B41E050E068E973E00E9464
:10093000401880E0C23049F081E0C33031F08EEEE3
:100940008C0F843048F487E18C1B41E050E066EC6A
:1009500073E0AFCF8FEFE7CF8FEFF7CF80E0D230EC
:1009600049F081E0D33031F08EEE8D0F8430C8F441
:1009700087E18D1B41E050E06BE973E00E94401875
:1009800080E0C23049F081E0C33031F08EEE8C0F50
:10099000843048F487E18C1B41E050E069EC73E05F
:1009A00088CF8FEFE7CF8FEFF7CF9BE0899FF001E4
:1009B0001124EA5DFC4F80819181A281B381FB010A
:1009C00080839183A283B38390E080E008959BE0CD
:1009D000899FF0011124EA5DFC4F1082118212827E
:1009E000138290E080E0089590E080E008952F92D7
:1009F0003F924F925F926F927F928F929F92AF92AF
:100A0000BF92CF92DF92EF92FF920F931F93CF93FB
:100A1000DF93CDB7DEB7CB54D1090FB6F894DEBF64
:100A20000FBECDBF26967FAF6EAF269728965FAFDD
:100A30004EAF28973E8B2D8B2C96FFAEEEAE2C97AB
:100A4000FB01E150F04CEE0FFF1FEE0FFF1FE80F10
:100A5000F91F80809180A280B3808F8A988EA98EA2
:100A6000BA8EB501A401442777FD43955527662723
:100A7000772729964FAF2997F901E150F04CEE0FF7
:100A8000FF1FEE0FFF1F2896AEACBFAC2897EA0DF4
:100A9000FB1DC080D180E280F380CB8EDC8EED8E9A
:100AA000FE8EB701A601442777FD4395552766279B
:100AB00077272A964FAF2A97188B0F87F80130E0D7
:100AC00020E02C96EEACFFAC2C972E153F050CF4D5
:100AD0003FC022969FAF8EAF22971A8B098B312C85
:100AE000212C812C912C540183948D829E82AF8283
:100AF000B88626968EAC9FAC2697281439047CF1D4
:100B000029969FAC29972A96AFAC2A9730E020E02F
:100B100041E050E060E070E09A10F5C1C55BDF4F46
:100B20000FB6F894DEBF0FBECDBFDF91CF911F91FE
:100B30000F91FF90EF90DF90CF90BF90AF909F907C
:100B40008F907F906F905F904F903F902F9008957F
:100B500011921192119211922F5F3F4FB2CF2296B4
:100B6000EEADFFAD229781919191A191B191229625
:100B7000FFAFEEAF22978F88988CA98CBA8CB7FE06
:100B800023C04D815E816F81788541505109610993
:100B900071095A016B01A81AB90ACA0ADB0AD601FF
:100BA000C50121E0CD80DE80EF80F8848C159D05A5
:100BB000AE05BF0508F020E0822E912CB12CA12CAF
:100BC0008D829E82AF82B8865D01CC24DD24A8A2EE
:100BD000B9A2CAA2DBA29C01AD01442755272CA3D0
:100BE0003DA34EA35FA32C96EEADFFAD2C97E2196B
:100BF000F3098D889E888E169F060CF4F4012896C2
:100C0000AEACBFAC28972496BFAEAEAE2497C988D1
:100C1000DA88DC8ACB8A1E861D86812C912C5401B1
:100C2000839489869A86AB86BC86812C912C54014C
:100C3000CD84DE84CE16DF0604F1F7FF02C0F0E0BB
:100C4000E0E0E20DF31D2C96EEACFFAC2C97EE1518
:100C5000FF0554F4EE0FFF1FEE0FFF1FE00FF11F13
:100C600080829182A282B3822FEF221A320AE9890E
:100C7000FA893496FA8BE98B3CCF2496AEADBFADA2
:100C80002497CD90DD90ED90FD902496BFAFAEAF50
:100C900024972B8D3C8D4D8D5E8D57FF22C089850D
:100CA0009A85AB85BC850197A109B109AC01BD014D
:100CB0004C195D096E097F096A017B0181E0298574
:100CC0003A854B855C85C216D306E406F50608F026
:100CD00080E0482F50E070E060E049875A876B87DA
:100CE0007C87B7018827992768A779A78AA79BA738
:100CF000EE24FF2428A139A14AA15BA1C701B601B6
:100D00000E94E71F2B013C012CA13DA14EA15FA138
:100D100068A579A58AA59BA50E94E71F6CA77DA75A
:100D20008EA79FA7AB89BC894D915D916D917D91F7
:100D3000BC8BAB8BDB01CA01880D991DAA1DBB1DA5
:100D400089839A83AB83BC8391E09F8F29813A8109
:100D50004B815C81281539054A055B0508F01F8E1B
:100D60002CA13DA14EA15FA1C701B6010E94E71FC2
:100D70006B017C0189809A80AB80BC808C0C9D1CAF
:100D8000AE1CBF1C89829A82AB82BC82520199241C
:100D9000882488AA99AAAAAABBAA29813A814B8148
:100DA0005C81280D391D4A1D5B1D2CAB3DAB4EAB44
:100DB0005FAB8CA49DA4AEA4BFA454019924882445
:100DC00088AE99AEAAAEBBAE280D391D4A1D5B1D7B
:100DD0002CAF3DAF4EAF5FAFAB89BC8914972D935D
:100DE0003D934D935C93139728A139A14AA15BA130
:100DF00068A579A58AA59BA50E94E71F9F8C690D10
:100E0000711D811D911D230166247724460E571EF6
:100E1000681E791E2CA53DA54EA55FA54A01AA24F2
:100E2000BB24840C951CA61CB71C81E090E0A0E0BC
:100E3000B0E049815A816B817C814C155D056E055E
:100E40007F0518F080E090E0DC01880D991DAA1D57
:100E5000BB1D41E050E060E070E088A899A8AAA816
:100E6000BBA8CCA8DDA8EEA8FFA8C814D904EA0442
:100E7000FB0418F040E050E0BA01840F951FA61F54
:100E8000B71F812C912C54018394C8ACD9ACEAAC27
:100E9000FBAC2CAD3DAD4EAD5FAD2C153D054E050B
:100EA0005F0518F0812C912C5401880E991EAA1E02
:100EB000BB1E4D855E854F5F5F4F5E874D87B8CE09
:100EC000EF85F889C190D190E190F190F88BEF8790
:100ED000DB01CA010197A109B1098C199D09AE096D
:100EE000BF09349780839183A283B383E1E08417A1
:100EF0009507A607B70708F0E0E04E2F50E070E036
:100F000060E02F5F3F4F2C968EAC9FAC2C9728153E
:100F10003905B4F203CE2F923F924F925F926F92B7
:100F20007F928F929F92AF92BF92CF92DF92EF9279
:100F3000FF920F931F93CF93DF9379011B01DA0187
:100F4000D0E0C0E040E050E0BA01CE15DF059CF0F3
:100F5000DF91CF911F910F91FF90EF90DF90CF9095
:100F6000BF90AF909F908F907F906F905F904F90C9
:100F70003F902F900895FC0181909190A190B190A5
:100F8000CF01F10101911191219131911F012401B2
:100F90003501401A510A620A730A93018201041B47
:100FA000150B260B370B0D931D932D933D93662444
:100FB0006394712CC12CD12C452B462B472B39F037
:100FC000081519052A053B0538F4612C05C0801663
:100FD0009106A206B306C8F7A301B6012196B5CFC4
:100FE0002F923F924F925F926F927F928F929F9239
:100FF000AF92BF92CF92DF92EF92FF920F931F9327
:10100000CF93DF9300D01F92CDB7DEB78B015C8307
:101010004B83FB01E150F04CEE0FFF1FEE0FFF1F63
:10102000E80FF91F408151816281738177FD27C0EC
:101030004C01B12CA12CC12CD12C7601A016B106EB
:1010400064F5F40161917191819191914F010E9438
:101050006D164B815C810E945E179B01AC01C7013C
:10106000B6010E94D1156B017C012B813C81205E71
:101070003F4F3C832B833FEFA31AB30ADFCF9A8302
:101080008983312C212C81E090E0A0E0B0E0C12CDC
:10109000D12C760120163106CCF0C701B6010F9095
:1010A0000F900F900F90DF91CF911F910F91FF90B4
:1010B000EF90DF90CF90BF90AF909F908F907F90F8
:1010C0006F905F904F903F902F900895E981FA8143
:1010D0004190519061907190FA83E98340945094CB
:1010E0006094709453014201880E991EAA1EBB1E83
:1010F000C501B4010E946D164B815C810E945E1790
:101100009B01AC01C701B6010E94D0156B017C01A7
:1011100081E084149504A604B70408F080E090E010
:10112000B0E0A0E02B813C81205E3F4F3C832B83CD
:101130003FEF231A330AAECF4F925F926F927F92A6
:101140008F929F92AF92BF92CF92DF92EF92FF92D7
:101150000F931F93CF93DF93CDB7DEB7E8970FB60A
:10116000F894DEBF0FBECDBF809186068F3718F48E
:101170008F5F80938606C0905C06D0905D06E090FD
:101180005E06F0905F0680918406811119C081E0AF
:1011900080938406109286068BE0809385061092D9
:1011A000EC051092ED051092EE051092EF051092ED
:1011B000F0051092F1051092F2051092F3053FC070
:1011C000E0918506E150EB3008F039C0F0E0882767
:1011D000E351F74F8F4F0C941820F808900BB00B89
:1011E000D00BF00B130C540C6F0C8A0CA40CB30C2A
:1011F00023E333E343E95FE36091540670915506BE
:1012000080915606909157060E94581787FD17C087
:101210008AE0809385061092EC051092ED051092FD
:10122000EE051092EF058BED9FE0A9E4B0EC809302
:10123000F0059093F105A093F205B093F305A70193
:1012400096016091F0057091F1058091F205909101
:10125000F3050E94D0156B017C01C092F405D09279
:10126000F505E092F605F092F70520910002309125
:10127000010240910202509103020E9492172091B4
:1012800060063091610640916206509163060E94AB
:10129000D015209128023091290240912A025091C4
:1012A0002B020E9492172B013C014092F8055092AC
:1012B000F9056092FA057092FB058090EC0590901C
:1012C000ED05A090EE05B090EF058092D4059092C8
:1012D000D505A092D605B092D70520913402309161
:1012E00035024091360250913702C701B6010E9483
:1012F0009217A30192010E94D1156B017C01C0924B
:10130000D805D092D905E092DA05F092DB0520915C
:1013100068023091690240916A0250916B02C501E6
:10132000B4010E9492172B013C0120917002309170
:1013300071024091720250917302C701B6010E947E
:1013400092179B01AC01C301B2010E94D1156093B9
:10135000DC057093DD058093DE059093DF05209119
:101360006C0230916D0240916E0250916F02C50186
:10137000B4010E9492174B015C01209174023091DC
:1013800075024091760250917702C701B6010E9422
:1013900092179B01AC01C501B4010E94D115609365
:1013A000E0057093E1058093E2059093E305C0901A
:1013B0004802D0904902E0904A02F0904B02A70107
:1013C000960160911F0670912006809121069091F0
:1013D00022060E943516882341F0C0921F06D09243
:1013E0002006E0922106F092220680911E068111CD
:1013F00010921E06BE01675D7F4F80912306D5DAED
:10140000C0904C02D0904D02E0904E02F0904F02FE
:10141000A70196016091130670911406809115063C
:10142000909116060E943516882341F0C09213064B
:10143000D0921406E0921506F092160680911206DC
:10144000811110921206BE01635D7F4F80911706D5
:10145000ACDA8091F4029091F502A091F602B0917D
:10146000F7028DA39EA3AFA3B8A789A59AA5ABA5A4
:10147000BCA589A39AA3ABA3BCA322E0E22EF12CC6
:101480008E01075E1F4F21E030E0AE014F5D5F4FE0
:1014900061E070E0CE018596AADA8DA59EA5AFA584
:1014A000B8A989A39AA3ABA3BCA30850110921E052
:1014B00030E0AE014F5D5F4F61E070E0CE01859698
:1014C00096DA22E030E0AE01475F5F4F64E776E0F6
:1014D000CE01499620DD88E0FE013996A4E7B6E00A
:1014E00001900D928A95E1F722E030E0AE014F5F66
:1014F0005F4F6CE776E0C8010EDD88E0FE013196B3
:10150000ACE7B6E001900D928A95E1F750E040E03B
:1015100062E070E084E796E063DD20E030E048E4DC
:101520005DE20E9492172091580230915902409139
:101530005A0250915B020E9492176B017C01C0928B
:101540000006D0920106E0920206F092030650E0F7
:1015500040E062E070E08CE796E042DD20E030E0C1
:1015600048E45DE20E94921720916002309161028E
:1015700040916202509163020E949217A701960166
:101580000E94D1156093E4057093E5058093E6050C
:101590009093E70550E040E062E070E084E796E079
:1015A0001FDD20E030E048E45DE20E9492172091C8
:1015B0005C0230915D0240915E0250915F020E9498
:1015C00092176B017C01C0920006D0920106E09256
:1015D0000206F092030650E040E062E070E08CE723
:1015E00096E0FEDC20E030E048E45DE20E949217E5
:1015F0002091640230916502409166025091670229
:101600000E949217A70196010E94D1156093E805E8
:101610007093E9058093EA059093EB058090DC05D3
:101620009090DD05A090DE05B090DF05C0908402AB
:10163000D0908502E0908602F0908702A701960183
:10164000C501B4010E94581718160CF0A1C1C09230
:10165000F405D092F505E092F605F092F705D090EA
:10166000E005E090E105F090E205C090E3054090D0
:101670008C0250908D0260908E0270908F02A301B8
:1016800092016D2D7E2D8F2D9C2D0E9458171816BE
:101690000CF097C14092FC055092FD056092FE054A
:1016A0007092FF052091FC053091FD054091FE05EB
:1016B0005091FF056091F4057091F5058091F60554
:1016C0009091F7050E94D0152B013C014092F40542
:1016D0005092F5056092F6057092F705809194029C
:1016E00090919502A0919602B091970289AB9AAB26
:1016F000ABABBCAB9C01AD01C301B2010E9458175A
:1017000018160CF07DC189A99AA9ABA9BCA9809330
:10171000F4059093F505A093F605B093F70584C101
:101720002DEC3CEC4CEC5FE360915806709159064F
:1017300080915A0690915B060E94581787FD7FCDD5
:1017400087E0809385061092EC051092ED051092CB
:10175000EE051092EF058BED9FE0A9ECB0EC67CDA4
:1017600023E333E343EF5FE3609154067091550642
:1017700080915606909157060E94581787FD5FCDBD
:1017800088E0809385061092EC051092ED0510928A
:10179000EE051092EF0581ED93E5ABEFB0EC47CD90
:1017A00020E030E0A90160915806709159068091BF
:1017B0005A0690915B060E94351618160CF43FCD20
:1017C00089E0809385061092EC051092ED05109249
:1017D000EE051092EF0586ED91E3A2EEB0EC27CD79
:1017E00026ED3AED46E250E46091540670915506BC
:1017F00080915606909157060E94581787FF11C096
:1018000023EF34E045E35FEB609158067091590691
:1018100080915A0690915B060E94351618160CF4BA
:101820000ECD8CE0CECF28EF39E746E950ECC7016A
:10183000B6010E9435161816A4F082E08093850642
:1018400080E090E0A0E8BEE38093EC059093ED0586
:10185000A093EE05B093EF0584EE9BECA6E9B0EC07
:10186000E6CC80E090E0A0E8BEE38093EC059093A6
:10187000ED05A093EE05B093EF052EE233EE4DE4B7
:101880005BE36091F0057091F1058091F205909114
:10189000F3050E94D0156093F0057093F1058093D5
:1018A000F2059093F305CBCC2FEE3DEB48EC50ECDA
:1018B000C701B6010E94351618160CF4C0CC83E09F
:1018C0008093850680E090E0A0E8BEE38093EC057D
:1018D0009093ED05A093EE05B093EF053CCF26EE77
:1018E00031E04BEF50ECC701B6010E9435161816D7
:1018F0000CF4A5CC84E08093850680E090E0A0E81D
:10190000BEE38093EC059093ED05A093EE05B093B4
:10191000EF0541CF21EC33E842EE50ECC701B601B0
:101920000E94581787FD8BCC85E08093850680E068
:1019300090E0A0E8BEE38093EC059093ED05A093C2
:10194000EE05B093EF0547CF24E03CE648E450ECC9
:10195000C701B6010E94351618160CF470CC86E04B
:10196000809385066CCC80918606843608F467CC1B
:1019700081E08093850680E090E0A0E8BEE380935C
:10198000EC059093ED05A093EE05B093EF050FCC19
:10199000C0908802D0908902E0908A02F0908B0279
:1019A000A7019601C501B4010E94351687FD4FCEEF
:1019B0008092F4059092F505A092F605B092F70595
:1019C0004ECE4090900250909102609092027090A2
:1019D0009302A30192016D2D7E2D8F2D9C2D0E94CF
:1019E000351687FD57CE8D2D9E2DAF2DBC2D8093A6
:1019F000FC059093FD05A093FE05B093FF0552CE24
:101A00008091980290919902A0919A02B0919B02C4
:101A100089AB9AABABABBCAB9C01AD01C301B201CE
:101A20000E94351687FD6FCE40909C0250909D021B
:101A300060909E0270909F02A3019201C501B401C3
:101A40000E94581718160CF05DC04092FC05509289
:101A5000FD056092FE057092FF05A090A402B09073
:101A6000A5020091A6021091A7029501A8016D2D73
:101A70007E2D8F2D9C2D0E9458171816B4F0A09023
:101A8000A802B090A9020091AA021091AB029501A0
:101A9000A8016D2D7E2D8F2D9C2D0E94351687FD62
:101AA00004C0AD2CBE2C0F2D1C2D2091FC053091B7
:101AB000FD054091FE055091FF05B501C8010E944A
:101AC000D0156B017C01C092FC05D092FD05E0921F
:101AD000FE05F092FF058090AC029090AD02A090C0
:101AE000AE02B090AF02A50194010E9458171816DB
:101AF00014F58092FC059092FD05A092FE05B0922F
:101B0000FF0529C04090A0025090A1026090A2025F
:101B10007090A302A3019201C501B4010E94351681
:101B200087FD93CF8092FC059092FD05A092FE0563
:101B3000B092FF0592CF8090B0029090B102A09039
:101B4000B202B090B302A5019401C701B6010E9490
:101B5000351687FDCECFC090F405D090F505E09006
:101B6000F605F090F70550E040E062E070E084E7B1
:101B700096E036DA20E030E048E45DE20E94921719
:101B80009B01AC01C701B6010E94D0156B017C011D
:101B9000C092DC05D092DD05E092DE05F092DF0513
:101BA0008090FC059090FD05A090FE05B090FF058B
:101BB00050E040E062E070E08CE796E011DA20E06F
:101BC00030E048E45DE20E9492179B01AC01C50140
:101BD000B401E6D74B015C018092E0059092E105EB
:101BE000A092E205B092E3058091640690916506AB
:101BF000A0916606B091670689AB9AABABABBCAB64
:101C00008093FC059093FD05A093FE05B093FF051E
:101C10002091040230910502409106025091070282
:101C2000C701B6010E94921720916806309169069B
:101C300040916A0650916B06B3D720912C023091E7
:101C40002D0240912E0250912F020E9492172B01DB
:101C50003C0140920006509201066092020670928A
:101C6000030620913C0230913D0240913E0250918A
:101C70003F02C501B4010E9492176DAB7EAB8FABE2
:101C800098AF209108023091090240910A025091C8
:101C90000B02C501B4010E94921720917006309189
:101CA000710640917206509173067AD720913002E6
:101CB0003091310240913202509133020E949217CA
:101CC0004B015C018092040690920506A0920606E4
:101CD000B0920706209138023091390240913A02C1
:101CE00050913B02C701B6010E94921729A93AA957
:101CF0004BA95CA956D7A301920153D76B017C0174
:101D00004090C4025090C5026090C6027090C70215
:101D1000AC019B01C301B201A8D787FF95C14092D6
:101D2000D4055092D5056092D6057092D7052091C2
:101D30006C0630916D0640916E0650916F066DA94C
:101D40007EA98FA998AD2DD7A50194012AD76B0143
:101D50007C01AC019B01C301B20187D787FF9DC104
:101D60004092D8055092D9056092DA057092DB0551
:101D70002091D8053091D9054091DA055091DB05C5
:101D80006091CC027091CD028091CE029091CF02F1
:101D90000E9492176093F4057093F5058093F60501
:101DA0009093F7056AE070E080E090E00E947E0189
:101DB0006C0190934306809342068090F4059090C6
:101DC000F505A090F605B090F705E090D002F090F0
:101DD000D1020091D2021091D3029701A801B4015F
:101DE000C5010E94581718168CF0E090D402F090AC
:101DF000D5020091D6021091D7029701A801B40133
:101E0000C50133D787FD02C07401850120E030E0B1
:101E10004FE753E4B701C80128D718160CF45EC188
:101E200020E030E0A901B701C8010E94581787FDE2
:101E30005AC1A701B801C6010E94470169E070E0DC
:101E400080E090E00E947E015C0190933B068093CD
:101E50003A068090F4059090F5050091F6051091F2
:101E6000F705C090D802D090D902E090DA02F09045
:101E7000DB02A7019601B401C8010E945817181689
:101E80008CF0C090DC02D090DD02E090DE02F09099
:101E9000DF02A7019601B401C801E7D687FD02C0A1
:101EA00064017801E894F7F820E030E04FE753E46C
:101EB000C701B601DAD6181634F4C12CD12C9FE72D
:101EC000E92E93E4F92EB701A601C5010E9447014E
:101ED00011E02091540230915502409156025091E8
:101EE00057026091F4057091F5058091F605909187
:101EF000F705BBD6811101C010E0612F88E00E9478
:101F000069032091D4053091D5054091D6055091B3
:101F1000D7056091E0027091E1028091E202909118
:101F2000E3020E9492179B01AC012093F4053093C9
:101F3000F5054093F6055093F70511E060915002C6
:101F40007091510280915202909153028ED681116C
:101F500001C010E0612F8DE00E9469036CE070E029
:101F600080E090E00E947E016C01909333068093A4
:101F700032068090F4059090F505A090F605B0909B
:101F8000F705E090E402F090E5020091E60210917E
:101F9000E7029701A801B401C5018AD718168CF091
:101FA000E090E802F090E9020091EA021091EB0261
:101FB0009701A801B401C50158D687FD02C074017C
:101FC000850120E030E04FE753E4B701C8014DD66A
:101FD00018160CF48DC020E030E0A901B701C8014B
:101FE00067D787FD8AC0A701B801C6010E944701D3
:101FF0006BE070E080E090E00E947E018C019093A5
:102000002B0680932A068090F4059090F505A09009
:10201000F605B090F705C090EC02D090ED02E0908C
:10202000EE02F090EF02A7019601C501B40140D77E
:1020300018160CF067C0C092F405D092F505E09236
:10204000F605F092F7056DC08091C8029091C90223
:10205000A091CA02B091CB0289AB9AABABABBCAB3F
:10206000A7019601BC01CD0123D718166CF489A9EC
:102070009AA9ABA9BCA98093D4059093D505A09348
:10208000D605B093D70553CEC092D405D092D505CE
:10209000E092D605F092D7054ACE8090C802909083
:1020A000C902A090CA02B090CB02A7019601C50157
:1020B000B401FED618164CF48092D8059092D9053A
:1020C000A092DA05B092DB0553CEC092D805D0922B
:1020D000D905E092DA05F092DB054ACEE12CF12C2D
:1020E0000FE713E4A6CEE12CF12C00E010E0A1CE26
:1020F000E12CF12C0FE713E476CFE12CF12C00E07A
:1021000010E071CFC090F002D090F102E090F202A6
:10211000F090F302A7019601C501B401A6D587FD91
:102120008ACFC090F405D090F505E090F605F090C8
:10213000F705E894F7F820E030E04FE753E4C701F3
:10214000B60193D5181634F4C12CD12C8FE7E82EA4
:1021500083E4F82EB701A601C8010E9447018091CF
:10216000540690915506A0915606B09157068DAB36
:102170009EABAFABB8AFC0905C06D0905D06E09070
:102180005E06F0905F06C092F405D092F505E092ED
:10219000F605F092F7058091580690915906A091A6
:1021A0005A06B0915B0689AB9AABABABBCAB8093E4
:1021B000FC059093FD05A093FE05B093FF05C0922A
:1021C0000806D0920906E0920A06F0920B06C701B3
:1021D000B6014FD54090E4055090E5056090E605C6
:1021E0007090E7058090780290907902A0907A0232
:1021F000B0907B02A301920195D6A501940192D6DD
:102200002DA93EA94FA958ADCCD460935406709324
:1022100055068093560690935706C701B601E5D63A
:102220009B01AC01C301B2017DD6A50194017AD610
:1022300029A93AA94BA95CA9B4D460935806709314
:10224000590680935A0690935B062091E8053091D9
:10225000E9054091EA055091EB05C501B40162D64C
:10226000A70196019ED460935C0670935D068093EF
:102270005E0690935F062091F8053091F905409134
:10228000FA055091FB056091800270918102809166
:1022900082029091830246D62091600630916106B9
:1022A00040916206509163067CD4609360067093FF
:1022B0006106809362069093630688E0FE0179963A
:1022C000A4E7B6E001900D928A95E1F788E0FE015F
:1022D0007196ACE7B6E001900D928A95E1F72091F6
:1022E000DC053091DD054091DE055091DF05609100
:1022F000100270911102809112029091130212D675
:102300002091B4023091B5024091B6025091B702CB
:1023100009D6209164063091650640916606509179
:1023200067063FD4609364067093650680936606E3
:1023300090936706209100063091010640910206B5
:10234000509103066091B8027091B9028091BA026F
:102350009091BB02E7D520916806309169064091C3
:102360006A0650916B061DD46093680670936906E7
:1023700080936A0690936B062091E0053091E10509
:102380004091E2055091E30560910C0270910D02BD
:1023900080910E0290910F02C5D52091BC02309120
:1023A000BD024091BE025091BF02BCD520916C0687
:1023B00030916D0640916E0650916F06F2D3609396
:1023C0006C0670936D0680936E0690936F06209155
:1023D000040630910506409106065091070660916B
:1023E000C0027091C1028091C2029091C3029AD53D
:1023F00020917006309171064091720650917306DB
:10240000D0D3609370067093710680937206909398
:102410007306E8960FB6F894DEBF0FBECDBFDF910E
:10242000CF911F910F91FF90EF90DF90CF90BF90D1
:10243000AF909F908F907F906F905F904F90089596
:102440004F925F926F927F928F929F92AF92BF92C4
:10245000DF92EF92FF920F931F93CF93DF9384E06D
:1024600090E0A6D28091970690919806A091990647
:10247000B0919A0620E0A22E22E0B22E8093840230
:1024800090938502A0938602B093870240919F06A5
:102490005091A0066091A1067091A206409390020F
:1024A0005093910260939202709393024093A00222
:1024B0005093A1026093A2027093A3028093A4029E
:1024C0009093A502A093A602B093A7021092530383
:1024D0001092520334ED832E35E0932E88E3F401FD
:1024E00011928A95E9F7CCE0D6E083E8FE011192DB
:1024F0008A95E9F7DD24D394D0928806809148022A
:1025000090914902A0914A02B0914B028B8B9C8B17
:10251000AD8BBE8B412C512C320143944D865E868F
:102520006F86788A43E256E063E082E00E94CC0343
:10253000D98A1A8A1B861882D092870680914C020B
:1025400090914D02A0914E02B0914F028F839887D7
:10255000A987BA8749825A826B827C8247E156E01A
:1025600063E182E10E94CC03DD821E8218AAD09230
:102570008E0649AA5AAA6BAA7CAAE12CF12C8701E3
:10258000A80197016AE070E080E090E00E94C2013B
:102590009FAB8EABDDAA18A6D0928D0649A65AA68F
:1025A0006BA67CA6A801970169E070E080E090E04E
:1025B0000E94C2019FA78EA7DDA618AED0928B06FF
:1025C00049AE5AAE6BAE7CAE61E088E00E9461031A
:1025D000DDAE10924C06D0928C0640924D06509281
:1025E0004E0660924F067092500661E08DE00E94A8
:1025F0006103D092510618A2D0928A0649A25AA22B
:102600006BA27CA2A80197016CE070E080E090E0F2
:102610000E94C2019FA38EA3DDA2188ED0928906CC
:10262000498E5A8E6B8E7C8EA80197016BE070E00C
:1026300080E090E00E94C2019F8F8E8FDD8E80919E
:102640007C0290917D02A0917E02B0917F028093E6
:10265000540690935506A0935606B0935706809360
:10266000580690935906A0935A06B0935B06809340
:102670005C0690935D06A0935E06B0935F06F5013D
:1026800084899589A689B7898093600690936106AD
:10269000A0936206B093630688E0E0E4F2E0A4E76A
:1026A000B6E001900D928A95E1F788E0E0E4F2E06F
:1026B000ACE7B6E001900D928A95E1F7F50180A1B3
:1026C00091A1A2A1B3A18093640690936506A09303
:1026D0006606B0936706808D918DA28DB38D809331
:1026E000680690936906A0936A06B0936B0684A16E
:1026F00095A1A6A1B7A180936C0690936D06A093B7
:102700006E06B0936F06848D958DA68DB78D8093E0
:10271000700690937106A0937206B09373061092A0
:1027200086061092840610928506F401E08EF18EE2
:10273000028F138FE48EF58E068F178F8F890E947C
:10274000E7048B85DF91CF911F910F91FF90EF9060
:10275000DF90BF90AF909F908F907F906F905F9031
:102760004F900C94E70480911806811114C081E009
:10277000809318068091190690911A06A0911B0665
:10278000B0911C060197A105B10529F480911D06A1
:1027900081110E94F40480910C06811114C081E023
:1027A00080930C0680910D0690910E06A0910F0665
:1027B000B09110060197A105B10529F48091110689
:1027C00081110E94F40480913C0681112EC081E0A9
:1027D00080933C0680913D0690913E06A0913F0675
:1027E000B09140060197A105B105F9F48091410629
:1027F0008823D9F06AE070E080E090E00E947E01DA
:10280000909343068093420640E050E0BA010E9454
:1028100047016AE070E080E090E00E947E019093C2
:102820004306809342060E94130280913406811170
:102830002EC081E080933406809135069091360653
:10284000A0913706B09138060197A105B105F9F4BA
:10285000809139068823D9F069E070E080E090E04B
:102860000E947E0190933B0680933A0640E050E040
:10287000BA010E94470169E070E080E090E00E94A8
:102880007E0190933B0680933A060E94130280914A
:102890004406811103C081E08093440680914C0678
:1028A000811103C081E080934C0680912C06811138
:1028B0002EC081E080932C0680912D0690912E06EB
:1028C000A0912F06B09130060197A105B105F9F44A
:1028D000809131068823D9F06CE070E080E090E0D0
:1028E0000E947E01909333068093320640E050E0D0
:1028F000BA010E9447016CE070E080E090E00E9425
:102900007E0190933306809332060E9413028091D9
:10291000240681112EC081E0809324068091250633
:1029200090912606A0912706B09128060197A1054F
:10293000B105F9F4809129068823D9F06BE070E0A5
:1029400080E090E00E947E0190932B0680932A06FF
:1029500040E050E0BA010E9447016BE070E080E087
:1029600090E00E947E0190932B0680932A060C949F
:102970001302089560E070E080E89FE7089560E04A
:1029800070E080E89FE7089560E070E080E89FEFE6
:10299000089560E070E080E89FEF089560E070E0E7
:1029A00080EC9FEF089560E070E080EC9FEF089569
:1029B000F5DF60939B0670939C0680939D06909331
:1029C0009E06F1DF60938F067093900680939106C8
:1029D00090939206CFDF609397067093980680934A
:1029E000990690939A06CBDF6093930670939406B2
:1029F0008093950690939606C7DF60939F06709329
:102A0000A0068093A1069093A206C3DF6093A3065D
:102A10007093A4068093A5069093A606089526E0D9
:102A200030E040E855E260E070E090E080E000C017
:102A30008130910571F01CF4892B39F008958230B2
:102A4000910551F0039759F0089580E693E00C94B6
:102A50002A1D8DEF93E0FBCF8AE994E0F8CF87E35E
:102A600095E0F5CF1F920F920FB60F9211240BB67F
:102A70000F922F933F934F935F936F937F938F9317
:102A80009F93AF93BF93EF93FF938FE89DEF909346
:102A900025018093240134D0FF91EF91BF91AF9134
:102AA0009F918F917F916F915F914F913F912F9166
:102AB0000F900BBE0F900FBE0F901F9018958FE8D0
:102AC0009DEF9093250180932401A3E7B0E08C91C2
:102AD0008E7F8C93E0E2F1E080818C7F8083E1E265
:102AE000F1E08081877E8083808184608083808123
:102AF0008C7F80838C9181608C93089581E0089510
:102B00008091540391E0980F90935403882349F0E7
:102B100021E030E030935603209355038093540313
:102B2000089578940E949C08F894809154038150F1
:102B3000F5CFCF93DF931092A8061092A706BBD4CF
:102B40006EDFC0910803D09109031982188278DCE6
:102B5000F894B5DF81E028813981232B09F080E0EA
:102B60008093A706789478948091A706811107C076
:102B7000FADDF89490E080E0DF91CF91089581E054
:102B800028813981232B09F480E08093A806909155
:102B9000A80681E0911180E08093A706AFDFE4CF23
:102BA0005058BB27AA270ED038C101D130F006D12A
:102BB00020F031F49F3F11F41EF4F6C00EF4E095BE
:102BC000E7FBECC0E92F4BD180F3BA17620773071C
:102BD0008407950718F071F49EF563C10EF4E09533
:102BE0000B2EBA2FA02D0B01B90190010C01CA01C7
:102BF000A0011124FF27591B99F0593F50F4503E72
:102C000068F11A16F040A22F232F342F4427585F63
:102C1000F3CF469537952795A795F0405395C9F77B
:102C20007EF41F16BA0B620B730B840BBAF0915033
:102C3000A1F0FF0FBB1F661F771F881FC2F70EC0D2
:102C4000BA0F621F731F841F48F4879577956795A5
:102C5000B795F7959E3F08F0B3CF9395880F08F08E
:102C60009927EE0F97958795089574D008F481E021
:102C70000895ACD0E395E2C004D06894B11112C1BC
:102C80000895F5D088F09F5790F0B92F9927B75144
:102C9000A0F0D1F0660F771F881F991F1AF0BA9520
:102CA000C9F712C0B13081F0FCD0B1E00895F9C08D
:102CB000672F782F8827B85F39F0B93FCCF3869516
:102CC00077956795B395D9F73EF490958095709573
:102CD00061957F4F8F4F9F4F0895E89409C097FBF0
:102CE0003EF490958095709561957F4F8F4F9F4FE3
:102CF0009923A9F0F92F96E9BB279395F695879527
:102D000077956795B795F111F8CFFAF4BB0F11F4E9
:102D100060FF1BC06F5F7F4F8F4F9F4F16C0882390
:102D200011F096E911C0772321F09EE8872F762FC6
:102D300005C0662371F096E8862F70E060E02AF007
:102D40009A95660F771F881FDAF7880F96958795F3
:102D500097F90895990F0008550FAA0BE0E8FEEFC8
:102D600016161706E807F907C0F012161306E4074F
:102D7000F50798F0621B730B840B950B39F40A2648
:102D800061F0232B242B252B21F408950A2609F426
:102D9000A140A6958FEF811D811D089597F99F672A
:102DA00080E870E060E008959FEF80EC08950024D3
:102DB0000A941616170618060906089500240A94A0
:102DC00012161306140605060895EECF50D0E8F348
:102DD000E894E0E0BB279F57F0F02AED3FE049EC94
:102DE00006C0EE0FBB0F661F771F881F28F0B23A90
:102DF00062077307840728F0B25A620B730B840BC7
:102E0000E3959A9572F7803830F49A95BB0F661F58
:102E1000771F881FD2F79048F0C0092E0394000C4A
:102E200011F4882352F0BB0F40F4BF2B11F460FF64
:102E300004C06F5F7F4F8F4F9F4F0895EF93E0FF68
:102E400006C0A2EA2AED3FE049EC5FEBBBDEE5DF1E
:102E50000F90039401FC9058E4EEF0E0DAC057FDC7
:102E60009058440F551F59F05F3F71F04795880FF8
:102E700097FB991F61F09F3F79F08795089512168F
:102E800013061406551FF2CF4695F1DF08C016163B
:102E900017061806991FF1CF8695710561050894EC
:102EA0000895E894BB2766277727CB0197F9089503
:102EB00051DF08F48FEF089571CF9DC0D8DFE8F39C
:102EC0009923D9F3940F511DBBF39150504094F0C6
:102ED00059F0882332F0660F771F881F91505040B9
:102EE000C1F79E3F510544F7880F911D9695879530
:102EF00097F908955F3FACF0983E9CF0BB2786950C
:102F000077956795B79508F4B1609395C1F7BB0FB6
:102F100058F711F460FFE8CF6F5F7F4F8F4F9F4FDF
:102F2000E3CFC0CF0BD079CF42DF28F047DF18F0D6
:102F3000952309F033CF38CF1124B4CF90DFA0F31D
:102F4000959FD1F3950F50E0551F629FF001729F3E
:102F5000BB27F00DB11D639FAA27F00DB11DAA1F5D
:102F6000649F6627B00DA11D661F829F2227B00DAA
:102F7000A11D621F739FB00DA11D621F839FA00D35
:102F8000611D221F749F3327A00D611D231F849F85
:102F9000600D211D822F762F6A2F11249F575040DC
:102FA0008AF0E1F088234AF0EE0FFF1FBB1F661F77
:102FB000771F881F91505040A9F79E3F510570F030
:102FC000EDCE70CF5F3FECF3983EDCF386957795BE
:102FD0006795B795F795E7959F5FC1F7FE2B880F2B
:102FE000911D9695879597F908959F93EFDE0F9021
:102FF00007FCEE5F23CF9F3F31F0915020F487957F
:1030000077956795B795880F911D9695879597F950
:1030100008959F938F937F936F93FF93EF939B01FB
:10302000AC0180DFEF91FF9105D02F913F914F913F
:103030005F9178CFDF93CF931F930F93FF92EF921F
:10304000DF927B018C01689405C0DA2EEF0176DFF8
:10305000FE01E894A5912591359145915591AEF3E6
:10306000EF01B0DDFE019701A801DA9479F7DF9056
:10307000EF90FF900F911F91CF91DF9108950895E8
:10308000883008F075C0E82FF0E0EE0FFF1FE85021
:10309000FD4F718360838150873008F03CC0E82F7A
:1030A000F0E08827EA5AF74E8F4FC2C793185D1891
:1030B000651871187E189F18AC18809169008C7F74
:1030C000482B40936900E89A089580916900837FB6
:1030D000440F551F440F551F482B40936900E99A30
:1030E0000895809169008F7C74E0440F551F7A9594
:1030F000E1F7482B40936900EA9A089580916900AE
:103100008F7366E0440F551F6A95E1F7482B409393
:103110006900EB9A089580916A008C7F482B409358
:103120006A00EC9A089580916A00837F440F551FCE
:10313000440F551F482B40936A00ED9A08958091E3
:103140006A008F7C24E0440F551F2A95E1F7482B35
:1031500040936A00EE9A089580916A008F7396E01A
:10316000440F551F9A95E1F7482B40936A00EF9A58
:1031700008951F920F920FB60F9211240BB60F9263
:103180002F933F934F935F936F937F938F939F936F
:10319000AF93BF93EF93FF93E091FC02F091FD0298
:1031A0001995FF91EF91BF91AF919F918F917F9171
:1031B0006F915F914F913F912F910F900BBE0F90A8
:1031C0000FBE0F901F9018951F920F920FB60F927F
:1031D00011240BB60F922F933F934F935F936F93EE
:1031E0007F938F939F93AF93BF93EF93FF93E09160
:1031F000FE02F091FF021995FF91EF91BF91AF91FF
:103200009F918F917F916F915F914F913F912F91FE
:103210000F900BBE0F900FBE0F901F9018951F922E
:103220000F920FB60F9211240BB60F922F933F936C
:103230004F935F936F937F938F939F93AF93BF93BE
:10324000EF93FF93E0910003F09101031995FF9133
:10325000EF91BF91AF919F918F917F916F915F910E
:103260004F913F912F910F900BBE0F900FBE0F907B
:103270001F9018951F920F920FB60F9211240BB644
:103280000F922F933F934F935F936F937F938F93FF
:103290009F93AF93BF93EF93FF93E0910203F0915D
:1032A00003031995FF91EF91BF91AF919F918F917A
:1032B0007F916F915F914F913F912F910F900BBE36
:1032C0000F900FBE0F901F9018951F920F920FB680
:1032D0000F9211240BB60F922F933F934F935F934E
:1032E0006F937F938F939F93AF93BF93EF93FF93CE
:1032F000E091F802F091F9021995FF91EF91BF91D9
:10330000AF919F918F917F916F915F914F913F917D
:103310002F910F900BBE0F900FBE0F901F9018951E
:103320001F920F920FB60F9211240BB60F922F938C
:103330003F934F935F936F937F938F939F93AF933D
:10334000BF93EF93FF93E091FA02F091FB0219957E
:10335000FF91EF91BF91AF919F918F917F916F916D
:103360005F914F913F912F910F900BBE0F900FBE29
:103370000F901F9018951F920F920FB60F92112465
:103380000BB60F922F933F934F935F936F937F935F
:103390008F939F93AF93BF93EF93FF93E0910403B9
:1033A000F09105031995FF91EF91BF91AF919F9116
:1033B0008F917F916F915F914F913F912F910F90DE
:1033C0000BBE0F900FBE0F901F9018951F920F927B
:1033D0000FB60F9211240BB60F922F933F934F937A
:1033E0005F936F937F938F939F93AF93BF93EF936D
:1033F000FF93E0910603F09107031995FF91EF9178
:10340000BF91AF919F918F917F916F915F914F91FC
:103410003F912F910F900BBE0F900FBE0F901F90FA
:1034200018951F920F920FB60F9211242F933F936E
:103430008F939F93AF93BF938091580390915903BB
:10344000A0915A03B0915B033091570323E0230FFF
:103450002D3758F50196A11DB11D20935703809378
:10346000580390935903A0935A03B0935B03809140
:103470005C0390915D03A0915E03B0915F030196A0
:10348000A11DB11D80935C0390935D03A0935E0327
:10349000B0935F03BF91AF919F918F913F912F9117
:1034A0000F900FBE0F901F90189526E8230F0296DD
:1034B000A11DB11DD2CF789484B5826084BD84B53E
:1034C000816084BD85B5826085BD85B5816085BD1F
:1034D000EEE6F0E0808181608083E1E8F0E0108238
:1034E000808182608083808181608083E0E8F0E079
:1034F000808181608083E1EBF0E080818460808363
:10350000E0EBF0E0808181608083E1E9F0E08081A0
:1035100082608083808181608083E0E9F0E0808147
:1035200081608083E1EAF0E0808182608083808135
:1035300081608083E0EAF0E0808181608083E1E265
:10354000F1E0808182608083808181608083E0E21D
:10355000F1E0808181608083EAE7F0E0808184602F
:10356000808380818260808380818160808380818C
:10357000806880831092C10008951F93CF93DF93DA
:10358000182FEB0161E033D1209731F460E0812FF7
:10359000DF91CF911F9167C1CF3FD10511F461E059
:1035A000F6CFE12FF0E0EE5FFE4FE491E150E23123
:1035B00008F0B2C0F0E08827E052F54E8F4F38C5D2
:1035C000F21AFA1AFF1A091B131B8C1B1D1B251B51
:1035D0002D1B371B411B4B1B5A1B641B8C1B6E1B6B
:1035E000781B821B84B5806884BDC7BDDF91CF91F5
:1035F0001F91089584B5806284BDC8BDF7CF8091C6
:103600008000806880938000D0938900C0938800F8
:10361000EDCF80918000806280938000D0938B00FA
:10362000C0938A00E3CF80918000886080938000FF
:10363000D0938D00C0938C00D9CF8091B00080686A
:103640008093B000C093B300D1CF8091B00080626E
:103650008093B000C093B400C9CF8091900080687F
:1036600080939000D0939900C0939800BFCF809131
:103670009000806280939000D0939B00C0939A004A
:10368000B5CF80919000886080939000D0939D008A
:10369000C0939C00ABCF8091A00080688093A00075
:1036A0008091A0008F7B8093A000D093A900C0934D
:1036B000A8009CCF8091A00080628093A000D0934E
:1036C000AB00C093AA0092CF8091A0008860809345
:1036D000A000D093AD00C093AC0088CF80912001B2
:1036E000806880932001D0932901C09328017ECF68
:1036F00080912001806280932001D0932B01C093A0
:103700002A0174CF80912001886080932001D0939A
:103710002D01C0932C016ACFC038D1050CF03FCFEA
:1037200035CF8150823108F059C0E82FF0E088276A
:10373000E456F44E8F4F7CC4BC1BC01BAE1BB41BA5
:10374000B81BEE1BC31BC91BCD1BD31BD71BDB1B1D
:10375000E11BE51BEE1BE91BEF1BF31B80918000B7
:103760008F77809380000895809180008F7DF9CFBE
:1037700080918000877FF5CF84B58F7784BD0895D1
:1037800084B58F7DFBCF8091B0008F778093B000A0
:1037900008958091B0008F7DF9CF809190008F7750
:1037A000809390000895809190008F7DF9CF809153
:1037B0009000877FF5CF8091A0008F778093A00045
:1037C00008958091A0008F7DF9CF8091A000877F20
:1037D000F5CF809120018F7780932001089580910B
:1037E00020018F7DF9CF80912001877FF5CFCF9386
:1037F000DF9390E0FC01E85BFE4F249182579E4FDF
:10380000FC0184918823C9F090E0880F991FFC0186
:10381000E85FFD4FA591B491FC01E251FE4FC591C7
:10382000D49161110DC09FB7F8948C91209582239B
:103830008C938881282328839FBFDF91CF9108959F
:10384000623051F49FB7F8943C91822F8095832386
:103850008C93E8812E2BEFCF8FB7F894EC912E2B21
:103860002C938FBFEACF1F93CF93DF93282F30E0A5
:10387000F901EE5FFE4F8491F901E85BFE4FD491B0
:10388000F901E257FE4FC491CC23A1F0162F81110C
:1038900048DFEC2FF0E0EE0FFF1FE251FE4FA59145
:1038A000B4918FB7F894EC91111108C0D095DE2334
:1038B000DC938FBFDF91CF911F910895DE2BF8CF5E
:1038C000FC01918D228D892F90E0805C9F4F821B9F
:1038D00091098F7399270895FC01918D828D981716
:1038E00031F0828DE80FF11D858D90E008958FEF06
:1038F0009FEF0895FC01918D828D981761F0A28D44
:10390000AE0FBF2FB11D5D968C91928D9F5F9F73FF
:10391000928F90E008958FEF9FEF0895FC01538DF3
:10392000448D252F30E0842F90E0821B930B541799
:1039300010F0CF96089501970895FC01A48DA80F6B
:10394000B92FB11DA35ABF4F2C91848D90E00196E1
:103950008F739927848FA689B7892C93A089B18901
:103960008C91837080648C93938D848D981306C0A2
:103970000288F389E02D80818F7D80830895CF9325
:10398000DF93EC01888D8823B1F0AA89BB89E8898F
:10399000F9898C9185FD03C0808186FD0CC00FB62E
:1039A00007FCF7CF8C9185FFF2CF808185FFEDCFAB
:1039B000CE01C3DFEACFDF91CF910895EF92FF925E
:1039C0000F931F93CF93DF93EC0181E0888F9B8D42
:1039D0008C8D98131AC0E889F989808185FF15C0FC
:1039E0009FB7F894EE89FF896083E889F98980811F
:1039F0008370806480839FBF81E090E0DF91CF91EE
:103A00001F910F91FF90EF900895F62E0B8D10E00F
:103A10000F5F1F4F0F731127E02E8C8D8E110BC07F
:103A20000FB607FCFACFE889F989808185FFF5CFC9
:103A3000CE0183DFF2CFEB8DEC0FFD2FF11DE35AAA
:103A4000FF4FF0829FB7F8940B8FEA89FB89808142
:103A50008062D0CFCF92DF92EF92FF921F93CF93ED
:103A6000DF93EC016A017B01122FE889F98982E07A
:103A70008083C11481EED806E104F10499F060E07E
:103A800079E08DE390E0A7019601B0D22150310991
:103A9000410951095695479537952795211580E19C
:103AA000380790F0E889F989108260E874E88EE1BF
:103AB00090E0A70196019AD221503109410951099C
:103AC0005695479537952795EC85FD853083EE858E
:103AD000FF852083188EEC89FD891083EA89FB8994
:103AE000808180618083EA89FB898081886080830E
:103AF000EA89FB89808180688083EA89FB898081EB
:103B00008F7D8083DF91CF911F91FF90EF90DF90A9
:103B1000CF9008951F920F920FB60F9211240BB6FB
:103B20000F922F938F939F93EF93FF93E0917003E6
:103B3000F09171038081E0917603F091770382FD2B
:103B40001DC09081809179038F5F8F7320917A03DC
:103B5000821741F0E0917903F0E0E05AFC4F958F35
:103B600080937903FF91EF919F918F912F910F9007
:103B70000BBE0F900FBE0F901F9018958081F2CF53
:103B80001F920F920FB60F9211240BB60F922F9324
:103B90003F934F935F936F937F938F939F93AF93D5
:103BA000BF93EF93FF9380E693E0C7DEFF91EF9121
:103BB000BF91AF919F918F917F916F915F914F9145
:103BC0003F912F910F900BBE0F900FBE0F901F9043
:103BD0001895E0E6F3E01382128288EE93E0A0E00D
:103BE000B0E084839583A683B7838EE093E09183CE
:103BF000808385EC90E09587848784EC90E09787BC
:103C0000868780EC90E0918B808B81EC90E0938BA9
:103C1000828B82EC90E0958B848B86EC90E0978B86
:103C2000868B118E128E138E148E08951F920F9212
:103C30000FB60F9211240BB60F922F938F939F9371
:103C4000EF93FF93E0910D04F0910E048081E091D9
:103C50001304F091140482FD1DC09081809116041C
:103C60008F5F8F7320911704821741F0E091160443
:103C7000F0E0E350FC4F958F80931604FF91EF9195
:103C80009F918F912F910F900BBE0F900FBE0F90B1
:103C90001F9018958081F2CF1F920F920FB60F924E
:103CA00011240BB60F922F933F934F935F936F9313
:103CB0007F938F939F93AF93BF93EF93FF938DEF7A
:103CC00093E03BDEFF91EF91BF91AF919F918F9178
:103CD0007F916F915F914F913F912F910F900BBE0C
:103CE0000F900FBE0F901F901895EDEFF3E0138229
:103CF000128288EE93E0A0E0B0E084839583A683EF
:103D0000B7838EE093E0918380838DEC90E095877C
:103D100084878CEC90E09787868788EC90E0918B85
:103D2000808B89EC90E0938B828B8AEC90E0958B72
:103D3000848B8EEC90E0978B868B118E128E138E77
:103D4000148E08951F920F920FB60F9211240BB686
:103D50000F922F938F939F93EF93FF93E091AA0479
:103D6000F091AB048081E091B004F091B10482FD48
:103D70001DC090818091B3048F5F8F732091B40434
:103D8000821741F0E091B304F0E0E656FB4F958FC7
:103D90008093B304FF91EF919F918F912F910F909A
:103DA0000BBE0F900FBE0F901F9018958081F2CF21
:103DB0001F920F920FB60F9211240BB60F922F93F2
:103DC0003F934F935F936F937F938F939F93AF93A3
:103DD000BF93EF93FF938AE994E0AFDDFF91EF91FA
:103DE000BF91AF919F918F917F916F915F914F9113
:103DF0003F912F910F900BBE0F900FBE0F901F9011
:103E00001895EAE9F4E01382128288EE93E0A0E0CC
:103E1000B0E084839583A683B7838EE093E091839B
:103E2000808385ED90E09587848784ED90E0978787
:103E3000868780ED90E0918B808B81ED90E0938B75
:103E4000828B82ED90E0958B848B86ED90E0978B52
:103E5000868B118E128E138E148E08951F920F92E0
:103E60000FB60F9211240BB60F922F938F939F933F
:103E7000EF93FF93E0914705F09148058081E09131
:103E80004D05F0914E0582FD1DC090818091500539
:103E90008F5F8F7320915105821741F0E09150059B
:103EA000F0E0E95CFA4F958F80935005FF91EF9118
:103EB0009F918F912F910F900BBE0F900FBE0F907F
:103EC0001F9018958081F2CF1F920F920FB60F921C
:103ED00011240BB60F922F933F934F935F936F93E1
:103EE0007F938F939F93AF93BF93EF93FF9387E35A
:103EF00095E023DDFF91EF91BF91AF919F918F915D
:103F00007F916F915F914F913F912F910F900BBED9
:103F10000F900FBE0F901F901895E7E3F5E0138206
:103F2000128288EE93E0A0E0B0E084839583A683BC
:103F3000B7838EE093E09183808385E391E095875A
:103F4000848784E391E09787868780E391E0918B73
:103F5000808B81E391E0938B828B82E391E0958B60
:103F6000848B86E391E0978B868B118E128E138E55
:103F7000148E0895AF92BF92CF92DF92EF92FF928C
:103F80000F931F93CF93DF936C017B018B01040F81
:103F9000151FEB015E01AE18BF08C017D10759F01D
:103FA0006991D601ED91FC910190F081E02DC6015F
:103FB0001995892B79F7C501DF91CF911F910F9149
:103FC000FF90EF90DF90CF90BF90AF900895DB010E
:103FD0008F939F9335D0BF91AF91A29F800D911D7C
:103FE000A39F900DB29F900D11240895A1E21A2E67
:103FF000AA1BBB1BFD010DC0AA1FBB1FEE1FFF1F8D
:10400000A217B307E407F50720F0A21BB30BE40BDC
:10401000F50B661F771F881F991F1A9469F7609523
:104020007095809590959B01AC01BD01CF010895DD
:10403000EE0FFF1F881F8BBF0790F691E02D19949C
:1040400009D0A59F900DB49F900DA49F800D911D48
:1040500011240895A29FB001B39FC001A39F700DCA
:10406000811D1124911DB29F700D811D1124911D80
:064070000895F894FFCF53
:104076008D50973FE55044C1327640C1CC4502454C
:10408600D1CF054500000000000000000000000040
:1040960000000000000000001F632D439E05AA409B
:1040A600E5FBA94093514F401554F742AA55EC42FF
:1040B6000000000000000000000080BF000080BF7C
:1040C60000000000000000000000003F5555D5C06C
:1040D6000000003F5555D5400000803F0000803F5E
:1040E6009A9999BD9A99993D0AD7233C00000000F8
:1040F6000AD7233C0000000000000000000000007A
:10410600000000007502FA3E0000000000000000FA
:10411600000000000000000000000000BD52F63E56
:10412600000000000AD7233C0AD7233C0AD7233CC9
:104136000AD7233C00007F43000000000000803FB8
:1041460000007F43000000000000000000007FC365
:104156000000803F00007F430000000000000000D8
:1041660000007FC3F36C73443F183F183F183F1895
:104176003F183F183F183F18520300000000DE1C8E
:0C418600BA1F8E1CBF1C601C7A1C6C1C35
:00000001FF
