:1000000014C100000C94D4380C94FF380C942A3995
:100010000C9455390C9480390C94AB390C94D63926
:100020000C94013A33C1000031C100002FC100001F
:100030002DC100002BC1000029C1000027C1000014
:1000400025C1000023C1000021C100001FC1000024
:100050001DC100001BC1000019C100000C942C3A06
:1000600015C100000C94003E0C94363E0FC10000F8
:100070000DC100000BC1000009C1000007C1000054
:1000800005C1000003C1000001C10000FFC0000065
:100090000C948C3E0C94C23EF9C00000F7C00000E6
:1000A000F5C00000F3C00000F1C00000EFC0000088
:1000B000EDC00000EBC00000E9C00000E7C0000098
:1000C000E5C00000E3C000000C9440340C94183FDD
:1000D0000C944E3FDBC000000C94A43F0C94DA3F1C
:1000E000D5C0000005A84CCDB2D44EB93836A9020F
:1000F0000C50B9918688083CA6AAAA2ABE00000026
:10010000803F00000A0B02090C0D0E0807030401D2
:1001100000000000000000000000000000000000DF
:1001200000000000000000000000000000001211AC
:1001300010000000000000000000000000000000AF
:10014000000000000000000001021020200808103C
:100150002040102040800201020108040201010237
:100160000408102040808040201008040201800410
:10017000020180402010080402010804020101026B
:10018000040810204080010204081020408005056A
:100190000505070508080808020202020A0A0808FD
:1001A000040404040101010101010101030303032B
:1001B00003030303040707070C0C0C0C0C0C0C0CBA
:1001C0000202020206060606060606060B0B0B0BCB
:1001D0000B0B0B0B000020002300260029002C0035
:1001E0002F00320000010000030106010901000098
:1001F0002200250028002B002E00310034000201CF
:100200000000050108010B01000021002400270067
:100210002A002D0030003300010100000401070115
:100220000A015F3EEB3E773F034011241FBECFEF34
:10023000D1E2DEBFCDBF00E00CBF13E0A0E0B2E032
:10024000ECEAF1E800E00BBF02C007900D92A03984
:10025000B107D9F72DE0A0E9B3E001C01D92AB3A98
:10026000B207E1F711E0C5E1D1E000E006C0219757
:100270000109802FFE010E94A340C131D10780E017
:100280000807A9F70E9461350C94D440B9CECF92EB
:10029000DF92EF92FF92CF93882351F16A017B01A5
:1002A000CFEFC80F20E030E0A901CB01B6010E94DA
:1002B0004F3618168CF0C701B60190580E945B3675
:1002C0009B01AC016C2F70E090E080E0CF91FF903B
:1002D000EF90DF90CF90B2C0C701B6010E945636B2
:1002E0008C2FCF91FF90EF90DF90CF900C94333B09
:1002F000CF91FF90EF90DF90CF9008950F931F93D1
:100300008B019C0183E036952795179507958A9573
:10031000D1F700571C4F462F477021E030E0F9011C
:1003200002C0EE0FFF1F4A95E2F7AF01F8012081EE
:100330002423CB010196211102C090E080E01F919F
:100340000F9108950F931F938B019C0183E03695C5
:100350002795179507958A95D1F7677081E090E00A
:1003600001C0880F6A95EAF7F801E057FC4F208139
:10037000452B31F48095822380831F910F9108953E
:10038000822BFACF2F923F924F925F926F927F9281
:100390008F929F92AF92BF92CF92DF92EF92FF9295
:1003A0000F931F93CF93DF93D62EC72E782E692EEF
:1003B00049015A01280161E08D2D0E946D3CCD2D2F
:1003C000DC2D8E010F5F1F4FA8016D2D7C2D872D19
:1003D000962DB8DF20E030E0A901C201B7010E94EC
:1003E0007237181664F4C201B7010E945B362B0104
:1003F000C501B4010E945B36A201CE0123D0C80121
:10040000DF91CF911F910F91FF90EF90DF90CF90F0
:10041000BF90AF909F908F907F906F905F904F9024
:100420003F902F900895882341F08150682F70E00D
:1004300090E080E050E040E085CF0895862FB9013C
:100440000C94333B9C01FC01EE5FFE4FE491E150C4
:10045000E231E0F4F0E08827EF5CFD4F8F4F0C9421
:10046000A34043024A024D026402790246028E0210
:100470009A029E02B502CA02DF02F6020B0346028E
:10048000200337034C0384B5806884BD60E0822F6D
:100490000C94A93C84B58062F8CF809180008C7F59
:1004A00082608093800080918100807E8061682BD3
:1004B0006093810050938700409386008091800074
:1004C000806880938000E2CF809180008C7F826082
:1004D0008093800080918100807E8061682B609392
:1004E0008100509387004093860080918000806255
:1004F000E8CF809180008C7F826080938000809123
:100500008100807E8061682B60938100509387001A
:1005100040938600809180008860D3CF8091B000A6
:1005200080688093B0008091B100887F682B6093D1
:10053000B100ACCF8091B0008062F3CF8091900089
:100540008C7F82608093900080919100807E80619A
:10055000682B609391005093970040939600809190
:10056000900080688093900091CF809190008C7F64
:1005700082608093900080919100807E8061682BE2
:100580006093910050939700409396008091900063
:100590008062E8CF809190008C7F82608093900091
:1005A00080919100807E8061682B609391005093D0
:1005B000970040939600809190008860D3CF8091FF
:1005C000A0008C7F82608093A0008091A100807E3B
:1005D0008061682B6093A1005093A7004093A60010
:1005E0008091A00080688093A00050CF8091A000EF
:1005F0008C7F82608093A0008091A100807E8061CA
:10060000682B6093A1005093A7004093A6008091AF
:10061000A0008062E8CF8091A0008C7F82608093F0
:10062000A0008091A100807E8061682B6093A10072
:100630005093A7004093A6008091A0008860D3CF7C
:10064000809120018C7F8260809320018091210124
:10065000807E8061682B6093210150932701409335
:100660002601809120018068809320010FCF809126
:1006700020018C7F82608093200180912101807E07
:100680008061682B609321015093270140932601DC
:10069000809120018062E8CF809120018C7F826070
:1006A0008093200180912101807E8061682B60937E
:1006B00021015093270140932601809120018860F9
:1006C000D3CF611102C00C946D3C6130E1F362E064
:1006D000FACF662319F061E00C94A93C60E0FCCFEE
:1006E000FC01A781B0858C9191858923A481B58176
:1006F0009C9140815181628173812681922359F0BE
:1007000081110BC04F5F5F4F6F4F7F4F408351830D
:100710006283738308958111F5CF415051096109B6
:100720007109F4CF8AE993E0DBCF85EA93E0D8CF73
:1007300080EB93E0D5CF8BEB93E0D2CFFC01A4818B
:10074000B5818C9196818923A781B0859C91408148
:100750005181628173812185922359F0882359F058
:100760004F5F5F4F6F4F7F4F40835183628373832F
:1007700008958823A9F34150510961097109F4CF03
:100780008AE993E0DBCF85EA93E0D8CF80EB93E072
:10079000D5CF8BEB93E0D2CF0F931F93CF93DF9303
:1007A000D82FC62F8A01A09199038BE0A89FD00172
:1007B0001124A656BC4F1D921D921D921C92139798
:1007C00081E01A968C931A978D2F90E0FC01E85BDC
:1007D000FE4FE4911696EC931697FC01E257FE4FFC
:1007E000E491F0E0EE0FFF1FEC52FE4F85919491E3
:1007F00015969C938E931497862F90E0FC01E85BEE
:10080000FE4FE4911996EC931997FC01E257FE4FC5
:10081000E491F0E0EE0FFF1FEC52FE4F85919491B2
:1008200018969C938E93179760E08D2F0E946D3CD5
:1008300060E08C2F0E946D3C80919903813009F417
:100840003FC0A8F0823009F462C0833009F486C04A
:100850008091990391E0980F90939903F801808318
:1008600090E080E0DF91CF911F910F91089580E09B
:10087000D23049F081E0D33031F08EEE8D0F8430EC
:10088000D8F487E18D1B41E050E062E973E00E94FB
:100890005A3880E0C23049F081E0C33031F08EEE4A
:1008A0008C0F843058F487E18C1B41E050E060EC01
:1008B00073E00E945A38CCCF8FEFE5CF8FEFF5CFA2
:1008C00080E0D23049F081E0D33031F08EEE8D0FF0
:1008D0008430C8F487E18D1B41E050E065E973E0A6
:1008E0000E945A3880E0C23049F081E0C33031F0D4
:1008F0008EEE8C0F843048F487E18C1B41E050E091
:1009000063EC73E0D6CF8FEFE7CF8FEFF7CF80E0C8
:10091000D23049F081E0D33031F08EEE8D0F84304B
:10092000C8F487E18D1B41E050E068E973E00E9464
:100930005A3880E0C23049F081E0C33031F08EEEA9
:100940008C0F843048F487E18C1B41E050E066EC6A
:1009500073E0AFCF8FEFE7CF8FEFF7CF80E0D230EC
:1009600049F081E0D33031F08EEE8D0F8430C8F441
:1009700087E18D1B41E050E06BE973E00E945A383B
:1009800080E0C23049F081E0C33031F08EEE8C0F50
:10099000843048F487E18C1B41E050E069EC73E05F
:1009A00088CF8FEFE7CF8FEFF7CF9BE0899FF001E4
:1009B0001124E656FC4F80819181A281B381FB0115
:1009C00080839183A283B38390E080E008959BE0CD
:1009D000899FF0011124E656FC4F10821182128289
:1009E000138290E080E0089590E080E0089590E028
:1009F00080E008950F931F93009709F489C0611553
:100A0000710509F485C00091C4021091C5022091BE
:100A1000C6023091C7020E3F1F4F2F4F3F4F09F0C4
:100A200068C04FEF5FEFBA014093C4025093C50214
:100A30006093C6027093C7024091C4025091C502F0
:100A40006091C6027091C702DC011296ED91FC9193
:100A500080819181A281B381809342049093430469
:100A6000A0934404B093450484819581A681B78105
:100A700080933E0490933F04A0934004B0934104BC
:100A800080859185A285B38580933A0490933B0439
:100A9000A0933C04B0933D0484859585A685B785D5
:100AA0008093360490933704A0933804B0933904AC
:100AB00010923204109233041092340410923504D0
:100AC0000E9426188BE498E19093C7038093C60395
:100AD0009093C9038093C8030E941517009731F4BF
:100AE00021E030E030934704209346041F910F919A
:100AF00008950091C4021091C5022091C602309160
:100B0000C702DB010D931D932D933C93139794CF54
:100B10008FEF9FEFEBCF8F929F92AF92BF92CF92CA
:100B2000DF92EF92FF921F93CF93DF934B015C0113
:100B30001091490482E090E090934704809346042A
:100B400081149104A104B10441F4809149048111FC
:100B500004C080914804C1E08111C0E0C12CD12CB7
:100B6000760180914904811106C080914804811169
:100B700002C0CC23D9F083E090E0909347048093A7
:100B80004604CC2381F1CCE9DFEF111102C00E94B1
:100B9000AF1BCE01DF91CF911F91FF90EF90DF90BF
:100BA000CF90BF90AF909F908F9008956AE070E0D3
:100BB00080E090E00E949B3A80E1C80E87E2D81E58
:100BC000E11CF11C8FEF88169806A806B80631F0D4
:100BD000C1E08C149D04AE04BF0408F0C0E080E0C6
:100BE0000E944917BECFD0E0C0E0CFCFCF92DF92B6
:100BF000EF92FF920F931F93CF93DF938F3F910557
:100C000011F008F051C02091460430914704233080
:100C1000310539F0209146043091470421303105E7
:100C200031F424E030E030934704209346046A0115
:100C30007B01EC0182309105A8F011E0AE01C70103
:100C4000B6010E941417AB01BC01CE011123F9F0CB
:100C5000DF91CF911F910F91FF90EF90DF90CF9098
:100C60000C94D81D8C01000F111F0A531C4FD80182
:100C70008D919C91892B09F30E94E21D0297E9F660
:100C8000D801ED91FC91CE011995182FD7CF0E9474
:100C9000FA1D90E080E0DF91CF911F910F91FF90BE
:100CA000EF90DF90CF9008958FEF9FEFF4CF80E02B
:100CB0000C944917CF93DF9386E090E0909347041C
:100CC000809346040E94A217EC01E6ECF3E084E076
:100CD000DF011D928A95E9F70E94471B1092470495
:100CE00010924604CE01DF91CF910895809148047F
:100CF00008958091310408956093C4027093C502F1
:100D00008093C6029093C70290E080E008952F92EE
:100D10003F924F925F926F927F928F929F92AF928B
:100D2000BF92CF92DF92EF92FF920F931F93CF93D8
:100D3000DF93CDB7DEB7CB54D1090FB6F894DEBF41
:100D40000FBECDBF26967FAF6EAF269728965FAFBA
:100D50004EAF28973E8B2D8B2C96FFAEEEAE2C9788
:100D6000FB01E150F04CEE0FFF1FEE0FFF1FE80FED
:100D7000F91F80809180A280B3808F8A988EA98E7F
:100D8000BA8EB501A401442777FD43955527662700
:100D9000772729964FAF2997F901E150F04CEE0FD4
:100DA000FF1FEE0FFF1F2896AEACBFAC2897EA0DD1
:100DB000FB1DC080D180E280F380CB8EDC8EED8E77
:100DC000FE8EB701A601442777FD43955527662778
:100DD00077272A964FAF2A97188B0F87F80130E0B4
:100DE00020E02C96EEACFFAC2C972E153F050CF4B2
:100DF0003FC022969FAF8EAF22971A8B098B312C62
:100E0000212C812C912C540183948D829E82AF825F
:100E1000B88626968EAC9FAC2697281439047CF1B0
:100E200029969FAC29972A96AFAC2A9730E020E00C
:100E300041E050E060E070E09A10F5C1C55BDF4F23
:100E40000FB6F894DEBF0FBECDBFDF91CF911F91DB
:100E50000F91FF90EF90DF90CF90BF90AF909F9059
:100E60008F907F906F905F904F903F902F9008955C
:100E700011921192119211922F5F3F4FB2CF229691
:100E8000EEADFFAD229781919191A191B191229602
:100E9000FFAFEEAF22978F88988CA98CBA8CB7FEE3
:100EA00023C04D815E816F81788541505109610970
:100EB00071095A016B01A81AB90ACA0ADB0AD601DC
:100EC000C50121E0CD80DE80EF80F8848C159D0582
:100ED000AE05BF0508F020E0822E912CB12CA12C8C
:100EE0008D829E82AF82B8865D01CC24DD24A8A2CB
:100EF000B9A2CAA2DBA29C01AD01442755272CA3AD
:100F00003DA34EA35FA32C96EEADFFAD2C97E21947
:100F1000F3098D889E888E169F060CF4F40128969E
:100F2000AEACBFAC28972496BFAEAEAE2497C988AE
:100F3000DA88DC8ACB8A1E861D86812C912C54018E
:100F4000839489869A86AB86BC86812C912C540129
:100F5000CD84DE84CE16DF0604F1F7FF02C0F0E098
:100F6000E0E0E20DF31D2C96EEACFFAC2C97EE15F5
:100F7000FF0554F4EE0FFF1FEE0FFF1FE00FF11FF0
:100F800080829182A282B3822FEF221A320AE989EB
:100F9000FA893496FA8BE98B3CCF2496AEADBFAD7F
:100FA0002497CD90DD90ED90FD902496BFAFAEAF2D
:100FB00024972B8D3C8D4D8D5E8D57FF22C08985EA
:100FC0009A85AB85BC850197A109B109AC01BD012A
:100FD0004C195D096E097F096A017B0181E0298551
:100FE0003A854B855C85C216D306E406F50608F003
:100FF00080E0482F50E070E060E049875A876B87B7
:101000007C87B7018827992768A779A78AA79BA714
:10101000EE24FF2428A139A14AA15BA1C701B60192
:101020000E945E402B013C012CA13DA14EA15FA17D
:1010300068A579A58AA59BA50E945E406CA77DA79F
:101040008EA79FA7AB89BC894D915D916D917D91D4
:10105000BC8BAB8BDB01CA01880D991DAA1DBB1D82
:1010600089839A83AB83BC8391E09F8F29813A81E6
:101070004B815C81281539054A055B0508F01F8EF8
:101080002CA13DA14EA15FA1C701B6010E945E4007
:101090006B017C0189809A80AB80BC808C0C9D1C8C
:1010A000AE1CBF1C89829A82AB82BC8252019924F9
:1010B000882488AA99AAAAAABBAA29813A814B8125
:1010C0005C81280D391D4A1D5B1D2CAB3DAB4EAB21
:1010D0005FAB8CA49DA4AEA4BFA454019924882422
:1010E00088AE99AEAAAEBBAE280D391D4A1D5B1D58
:1010F0002CAF3DAF4EAF5FAFAB89BC8914972D933A
:101100003D934D935C93139728A139A14AA15BA10C
:1011100068A579A58AA59BA50E945E409F8C690D54
:10112000711D811D911D230166247724460E571ED3
:10113000681E791E2CA53DA54EA55FA54A01AA24CF
:10114000BB24840C951CA61CB71C81E090E0A0E099
:10115000B0E049815A816B817C814C155D056E053B
:101160007F0518F080E090E0DC01880D991DAA1D34
:10117000BB1D41E050E060E070E088A899A8AAA8F3
:10118000BBA8CCA8DDA8EEA8FFA8C814D904EA041F
:10119000FB0418F040E050E0BA01840F951FA61F31
:1011A000B71F812C912C54018394C8ACD9ACEAAC04
:1011B000FBAC2CAD3DAD4EAD5FAD2C153D054E05E8
:1011C0005F0518F0812C912C5401880E991EAA1EDF
:1011D000BB1E4D855E854F5F5F4F5E874D87B8CEE6
:1011E000EF85F889C190D190E190F190F88BEF876D
:1011F000DB01CA010197A109B1098C199D09AE094A
:10120000BF09349780839183A283B383E1E084177D
:101210009507A607B70708F0E0E04E2F50E070E012
:1012200060E02F5F3F4F2C968EAC9FAC2C9728151B
:101230003905B4F203CE2F923F924F925F926F9294
:101240007F928F929F92AF92BF92CF92DF92EF9256
:10125000FF920F931F93CF93DF9379011B01DA0164
:10126000D0E0C0E040E050E0BA01CE15DF059CF0D0
:10127000DF91CF911F910F91FF90EF90DF90CF9072
:10128000BF90AF909F908F907F906F905F904F90A6
:101290003F902F900895FC0181909190A190B19082
:1012A000CF01F10101911191219131911F0124018F
:1012B0003501401A510A620A730A93018201041B24
:1012C000150B260B370B0D931D932D933D93662421
:1012D0006394712CC12CD12C452B462B472B39F014
:1012E000081519052A053B0538F4612C05C0801640
:1012F0009106A206B306C8F7A301B6012196B5CFA1
:101300002F923F924F925F926F927F928F929F9215
:10131000AF92BF92CF92DF92EF92FF920F931F9303
:10132000CF93DF9300D01F92CDB7DEB78B015C83E4
:101330004B83FB01E150F04CEE0FFF1FEE0FFF1F40
:10134000E80FF91F408151816281738177FD27C0C9
:101350004C01B12CA12CC12CD12C7601A016B106C8
:1013600064F5F40161917191819191914F010E9415
:1013700087364B815C810E9478379B01AC01C701A5
:10138000B6010E94EB356B017C012B813C81205E14
:101390003F4F3C832B833FEFA31AB30ADFCF9A83DF
:1013A0008983312C212C81E090E0A0E0B0E0C12CB9
:1013B000D12C760120163106CCF0C701B6010F9072
:1013C0000F900F900F90DF91CF911F910F91FF9091
:1013D000EF90DF90CF90BF90AF909F908F907F90D5
:1013E0006F905F904F903F902F900895E981FA8120
:1013F0004190519061907190FA83E98340945094A8
:101400006094709453014201880E991EAA1EBB1E5F
:10141000C501B4010E9487364B815C810E947837F8
:101420009B01AC01C701B6010E94EA356B017C014A
:1014300081E084149504A604B70408F080E090E0ED
:10144000B0E0A0E02B813C81205E3F4F3C832B83AA
:101450003FEF231A330AAECF4F925F926F927F9283
:101460008F929F92AF92BF92CF92DF92EF92FF92B4
:101470000F931F93CF93DF93CDB7DEB7A4970FB62B
:10148000F894DEBF0FBECDBF8091C80C9091C90CFF
:10149000A091CA0CB091CB0C80933B0D90933C0D66
:1014A000A0933D0DB0933E0D8091CC0C9091CD0C4E
:1014B000A091CE0CB091CF0C80933F0D9093400D36
:1014C000A093410DB093420D8091D00C9091D10C1E
:1014D000A091D20CB091D30C8093430D9093440D06
:1014E000A093450DB093460D8091D40C9091D50CEE
:1014F000A091D60CB091D70C8093470D9093480DD6
:10150000A093490DB0934A0D8091D80C9091D90CBD
:10151000A091DA0CB091DB0C80934B0D90934C0DA5
:10152000A0934D0DB0934E0D8091DC0C9091DD0C8D
:10153000A091DE0CB091DF0C80934F0D9093500D75
:10154000A093510DB093520DC0904802D090490223
:10155000E0904A02F0904B02A70196016091930C33
:101560007091940C8091950C9091960C0E944F363E
:10157000882341F0C092930CD092940CE092950C89
:10158000F092960C8091920C81111092920C6BE863
:101590007DE08091970C09DAC0904C02D0904D020A
:1015A000E0904E02F0904F02A70196016091870CE7
:1015B0007091880C8091890C90918A0C0E944F3612
:1015C000882341F0C092870CD092880CE092890C5D
:1015D000F0928A0C8091860C81111092860C67E83B
:1015E0007DE080918B0CE1D980918B0D90918C0DD9
:1015F000A0918D0DB0918E0D80937F0D9093800DF5
:10160000A093810DB093820D4091870D5091880D6C
:101610006091890D70918A0D4093830D5093840DD4
:101620006093850D7093860D4091C0025091C10268
:101630006091C2027091C30249875A876B877C8789
:101640008D879E87AF87B88B42E0E42EF12C8E0108
:101650000F5F1F4F21E030E0AE01435F5F4F61E05D
:1016600070E0CE01099653DB88E0F801ABE2BDE003
:1016700001900D928A95E1F722E030E04BE15DE0C8
:1016800060EF7CE0C801D7DD8091830D9091840DDF
:10169000A091850DB091860D8D879E87AF87B88B01
:1016A00021E030E0AE01435F5F4F61E070E0CE01CA
:1016B00009962DDB88E0F801A3E3BDE001900D92CF
:1016C0008A95E1F722E030E043E25DE068EF7CE0FC
:1016D000C801B1DD50E040E062E070E08BE19DE0E8
:1016E0000FDE20E030E048E45DE20E94AC3720915C
:1016F00068023091690240916A0250916B020E9427
:10170000AC376B017C0150E040E062E070E083E2C6
:101710009DE0F6DD20E030E048E45DE20E94AC3779
:1017200020917002309171024091720250917302C7
:101730000E94AC37A70196010E94EB356093530DD0
:101740007093540D8093550D9093560D50E040E0EA
:1017500062E070E08BE19DE0D3DD20E030E048E422
:101760005DE20E94AC3720916C0230916D02409195
:101770006E0250916F020E94AC376B017C0150E009
:1017800040E062E070E083E29DE0BADD20E030E01E
:1017900048E45DE20E94AC372091740230917502FA
:1017A00040917602509177020E94AC37A7019601D2
:1017B0000E94EB356093570D7093580D8093590D2F
:1017C00090935A0D8091100D9091110D8F3F23E051
:1017D000920728F401969093110D8093100D8FEFCE
:1017E0009FEFDC018093080D9093090DA0930A0DE3
:1017F000B0930B0D8091120D811124C081E0809374
:10180000120D1092110D1092100D8BE090E0A0E0DF
:10181000B0E080930C0D90930D0DA0930E0DB0933E
:101820000F0D1092730D1092740D1092750D109291
:10183000760D1092770D1092780D1092790D10920E
:101840007A0D4EC080910C0D90910D0DA0910E0D52
:10185000B0910F0D0197A109B1098B309105A10538
:10186000B10508F03DC0FC012091100D3091110D23
:101870008827E25CF34F8F4F0C94A340490C170E5E
:10188000240E310E520E5B0E7C0E890E960EA30EA8
:10189000C80E2C3C314020F11092110D1092100D09
:1018A0008AE090E0A0E0B0E080930C0D90930D0DE5
:1018B000A0930E0DB0930F0D1092730D1092740D36
:1018C0001092750D1092760D8BED9FE0A9ECBFEB99
:1018D0008093770D9093780DA093790DB0937A0D46
:1018E0004090730D5090740D6090750D7090760D52
:1018F000C090770DD090780DE090790DF0907A0D32
:10190000209158023091590240915A0250915B0245
:10191000C301B2010E94AC374B015C01209160020F
:10192000309161024091620250916302C701B60199
:101930000E94AC379B01AC01C501B4010E94EB359C
:101940004B015C0180925B0D90925C0DA0925D0D4D
:10195000B0925E0D20915C0230915D0240915E027A
:1019600050915F02C301B2010E94AC372B013C01D0
:1019700020916402309165024091660250916702A5
:10198000C701B6010E94AC379B01AC01C301B20193
:101990000E94EB356B017C01C0925F0DD092600D0F
:1019A000E092610DF092620D50E040E062E070E084
:1019B0008BE19DE0A5DC20E030E048E45DE20E94A0
:1019C000AC379B01AC01C501B4010E94EA356D8BB7
:1019D0007E8B8F8B988F50E040E062E070E083E276
:1019E0009DE08EDC20E030E048E45DE20E94AC3710
:1019F0009B01AC01C701B6010E94EA356B017C0175
:101A000020910002309101024091020250910302A4
:101A10000E94AC372091E00C3091E10C4091E20C37
:101A20005091E30C0E94EA3520912802309129025E
:101A300040912A0250912B020E94AC374B015C016D
:101A400080927B0D90927C0DA0927D0DB0927E0DC8
:101A50002091300230913102409132025091330294
:101A6000C701B6010E94AC372091E40C3091E50C1F
:101A70004091E60C5091E70C0E94EB35A5019401D2
:101A80000E94EB353B014C01A0903802B090390226
:101A900000913A0210913B029B01AC01B501C801D3
:101AA0000E944F3687FD12C0A0902002B090210204
:101AB00000912202109123029301A401B501C801F3
:101AC0000E947237181614F053018401209190027D
:101AD000309191024091920250919302B501C80158
:101AE0000E94AC373B018C01CB01D8018093670D7C
:101AF0009093680DA093690DB0936A0D8090940245
:101B000090909502A0909602B0909702A501940142
:101B1000B301C8010E947237181694F080909802A1
:101B200090909902A0909A02B0909B02A501940116
:101B3000B301C8010E944F3687FD02C0430158011E
:101B4000E894B7F88092630D9092640DA092650DB1
:101B5000B092660D69E070E080E090E00E947E0146
:101B60008C019093AF0C8093AE0C8090630D90909D
:101B7000640DA090650DB090660D20E030E04FE759
:101B800053E4C501B4010E944F3618160CF40DC180
:101B900020E030E0A901C501B4010E94723787FF3F
:101BA00003C0812C912C5401B501A401C8010E94ED
:101BB000470111E0209154023091550240915602A4
:101BC000509157026091670D7091680D8091690D79
:101BD00090916A0D0E944F36811101C010E0109360
:101BE0008F0D612F88E00E9469034090670D50902F
:101BF000680D6090690D70906A0D80909C029090C5
:101C00009D02A0909E02B0909F02A5019401C30185
:101C1000B2010E94723718160CF0CEC08092670D88
:101C20009092680DA092690DB0926A0DD5C02034D3
:101C3000314008F455CE1092110D1092100D87E02E
:101C400090E0A0E0B0E030CE2C36324008F448CE30
:101C50001092110D1092100D88E090E0A0E0B0E01D
:101C600023CE2C3B324008F43BCE1092110D109243
:101C7000100D89E090E0A0E0B0E080930C0D90930F
:101C80000D0DA0930E0DB0930F0D1092730D1092C9
:101C9000740D1092750D1092760D8BED9FE0A9ECEE
:101CA000BFE316CE2039314008F41ACE8CE090E024
:101CB000A0E0B0E0AECD243F314008F411CE109248
:101CC000110D1092100D82E090E0A0E0B0E0809342
:101CD0000C0D90930D0DA0930E0DB0930F0D80E0A1
:101CE00090E0A0E8BEE38093730D9093740DA093F1
:101CF000750DB093760D9DCD2436310508F4F0CDE9
:101D00001092110D1092100D83E090E0A0E0B0E071
:101D1000DECF2436310508F4E3CD1092110D109278
:101D2000100D84E090E0A0E0B0E0D1CF2233310587
:101D300008F4D6CD1092110D1092100D85E090E0B0
:101D4000A0E0B0E0C4CF283C310508F4C9CD109222
:101D5000110D1092100D86E090E0A0E0B0E08093AD
:101D60000C0D90930D0DA0930E0DB0930F0D80E010
:101D700090E0A0E8BEE38093730D9093740DA09360
:101D8000750DB093760D8CE799EDA0EABEEBA0CD72
:101D90002436310508F4A4CD1092110D1092100DC7
:101DA00081E090E0A0E0B0E092CF812C912C3FE761
:101DB000A32E33E4B32EF8CE8090A0029090A1021F
:101DC000A090A202B090A302A5019401C301B201A8
:101DD0000E944F3687FD22CF6AE070E080E090E0FD
:101DE0000E947E018C019093B70C8093B60C80907A
:101DF000670D9090680DA090690DB0906A0D20E07D
:101E000030E04FE753E4C501B4010E944F36181685
:101E10000CF426C120E030E0A901C501B4010E9404
:101E2000723787FF03C0812C912C5401B501A401A6
:101E3000C8010E944701209104023091050240919F
:101E40000602509107026D897E898F89988D0E94C4
:101E5000AC372091E80C3091E90C4091EA0C50919C
:101E6000EB0C0E94EA3520912C0230912D0240911A
:101E70002E0250912F020E94AC3769A37AA38BA344
:101E80009CA320913402309135024091360250914A
:101E900037026D897E898F89988D0E94AC37209199
:101EA000EC0C3091ED0C4091EE0C5091EF0C0E9437
:101EB000EB3529A13AA14BA15CA10E94EB353B0176
:101EC0004C01A0903C02B0903D0200913E02109166
:101ED0003F029B01AC01B501C8010E944F3687FD4E
:101EE00012C0A0902402B090250200912602109109
:101EF00027029301A401B501C8010E947237181688
:101F000014F0530184012091AC023091AD02409154
:101F1000AE025091AF02B501C8010E94AC379B01DF
:101F2000AC0120936F0D3093700D4093710D509361
:101F3000720D11E060915002709151028091520235
:101F4000909153020E944F36811101C010E010930E
:101F5000900D612F8DE00E94690360906F0D70906D
:101F6000700D0091710D1091720D8090B0029090E3
:101F7000B102A090B202B090B302A5019401B301E6
:101F8000C8010E947237181694F08090B4029090A5
:101F9000B502A090B602B090B702A5019401B301BA
:101FA000C8010E944F3687FD02C043015801E894E2
:101FB000B7F880926B0D90926C0DA0926D0DB0925F
:101FC0006E0D6BE070E080E090E00E947E018C017D
:101FD00090939F0C80939E0C80906B0D90906C0D55
:101FE000A0906D0DB0906E0D20E030E04FE753E40F
:101FF000C501B4010E944F361816CCF120E030E044
:10200000A901C501B4010E94723787FF03C0812C6A
:10201000912C5401B501A401C8010E9447014090D0
:102020006F0D5090700D6090710D7090720D8090DA
:10203000B8029090B902A090BA02B090BB02A5017C
:102040009401C301B2010E9472371816BCF4809249
:102050006F0D9092700DA092710DB092720D1EC016
:10206000812C912C2FE7A22E23E4B22EDFCE812CDF
:10207000912C9FE7A92E93E4B92ECCCF8090BC027F
:102080009090BD02A090BE02B090BF02A501940145
:10209000C301B2010E944F3687FDD9CF6CE070E0DA
:1020A00080E090E00E947E018C019093A70C8093C9
:1020B000A60C80906F0D9090700DA090710DB09057
:1020C000720D20E030E04FE753E4C501B4010E94F7
:1020D0004F3618160CF445C220E030E0A901C501C6
:1020E000B4010E94723787FF03C0812C912C5401E8
:1020F000B501A401C8010E9447018091CC0C9091C8
:10210000CD0CA091CE0CB091CF0C898F9A8FAB8F54
:10211000BC8F8091D00C9091D10CA091D20CB09139
:10212000D30C8D8F9E8FAF8FB8A38091430D90916C
:10213000440DA091450DB091460D898B9A8BAB8BC8
:10214000BC8BBC01CD010E9453364090730D509062
:10215000740D6090750D7090760D8090780290905F
:102160007902A0907A02B0907B02A30192010E94B2
:10217000AC37A50194010E94AC372091C80C309176
:10218000C90C4091CA0C5091CB0C0E94EB35609366
:10219000C80C7093C90C8093CA0C9093CB0C6989BE
:1021A0007A898B899C890E940F389B01AC01C301FD
:1021B000B2010E94AC37A50194010E94AC37298D71
:1021C0003A8D4B8D5C8D0E94EB356093CC0C7093F7
:1021D000CD0C8093CE0C9093CF0C2091770D309145
:1021E000780D4091790D50917A0DC501B4010E948E
:1021F000AC372D8D3E8D4F8D58A10E94EB356093ED
:10220000D00C7093D10C8093D20C9093D30C80910E
:10221000D80C9091D90CA091DA0CB091DB0C898F7D
:102220009A8FAB8FBC8F8091DC0C9091DD0CA091CC
:10223000DE0CB091DF0C8D8F9E8FAF8FB8A3809195
:102240004F0D9091500DA091510DB091520D898B71
:102250009A8BAB8BBC8BBC01CD010E945336409056
:10226000530D5090540D6090550D7090560D809008
:10227000800290908102A0908202B0908302A3011C
:1022800092010E94AC37A50194010E94AC372091C5
:10229000D40C3091D50C4091D60C5091D70C0E94A3
:1022A000EB356093D40C7093D50C8093D60C90933F
:1022B000D70C69897A898B899C890E940F389B0188
:1022C000AC01C301B2010E94AC37A50194010E9488
:1022D000AC37298D3A8D4B8D5C8D0E94EB35609328
:1022E000D80C7093D90C8093DA0C9093DB0C20916E
:1022F000570D3091580D4091590D50915A0DC5010F
:10230000B4010E94AC372D8D3E8D4F8D58A10E9497
:10231000EB356093DC0C7093DD0C8093DE0C9093B6
:10232000DF0C88E0EBE2FDE0A0EFBCE001900D9255
:102330008A95E1F788E0E3E3FDE0A8EFBCE00190D7
:102340000D928A95E1F720917B0D30917C0D4091A3
:102350007D0D50917E0D609188027091890280916F
:102360008A0290918B020E94AC372091E00C309150
:10237000E10C4091E20C5091E30C0E94EB3560932C
:10238000E00C7093E10C8093E20C9093E30C2091AD
:1023900008023091090240910A0250910B02C701D4
:1023A000B6010E94AC3720918C0230918D02409191
:1023B0008E0250918F020E94AC372091E40C309134
:1023C000E50C4091E60C5091E70C0E94EB356093D0
:1023D000E40C7093E50C8093E60C9093E70C20914D
:1023E000A4023091A5024091A6025091A70269A1D2
:1023F0007AA18BA19CA10E94AC372091E80C30916E
:10240000E90C4091EA0C5091EB0C0E94EB35609383
:10241000E80C7093E90C8093EA0C9093EB0C2091FC
:102420000C0230910D0240910E0250910F026D8905
:102430007E898F89988D0E94AC372091A8023091B7
:10244000A9024091AA025091AB020E94AC372091A0
:10245000EC0C3091ED0C4091EE0C5091EF0C0E9481
:10246000EB356093EC0C7093ED0C8093EE0C909335
:10247000EF0CC0900404D0900504E0900604F090A6
:1024800007049FEFC91AD90AE90AF90AC09204049D
:10249000D0920504E0920604F0920704C114D1041E
:1024A000E104F10499F48091080490910904A09149
:1024B0000A04B0910B040196A11DB11D809308047C
:1024C00090930904A0930A04B0930B0480900C0429
:1024D00090900D04A0900E04B0900F046091080439
:1024E0007091090480910A0490910B040E94873630
:1024F000A50194010E94AC3720E030E040E85FE4A1
:102500000E94AC372B013C01C701B6010E948736FF
:10251000A50194010E94AC379B01AC01C301B2013B
:102520000E94EB35609300047093010480930204D1
:1025300090930304A4960FB6F894DEBF0FBECDBFF0
:10254000DF91CF911F910F91FF90EF90DF90CF908F
:10255000BF90AF909F908F907F906F905F904F90C3
:102560000895812C912C8FE7A82E83E4B82EC0CD3E
:102570004F925F926F927F92AF92BF92DF92EF92F3
:10258000FF920F931F93CF93DF9384E090E014D3D7
:102590008091990D90919A0DA0919B0DB0919C0DF9
:1025A00020E0A22E22E0B22EF50180AF91AFA2AFC3
:1025B000B3AF84AF95AFA6AFB7AFEAEEF3E08BE26F
:1025C000DF011D928A95E9F780E090E0A0E2B2E495
:1025D00086A397A3A0A7B1A78AE097EDA3E2BCE3E7
:1025E00082A393A3A4A3B5A386E39EE4ADE9B4E8D4
:1025F00084839583A683B78386E894EDA9EAB4E142
:1026000080879187A287B38787E39AE5A6E9B4E03C
:1026100084879587A687B78789E69EE0A3EEB1EE0B
:10262000808B918BA28BB38BAEEDB3E0B383A2838F
:10263000EAECF3E01196FC93EE938DEF92E0918338
:102640008083938382839583848397838683918712
:102650008087938782879587848797878687918BE2
:10266000808B938B828B8EEF93E015969C938E9349
:1026700014978EEE93E013969C938E93129780E0BE
:1026800094E017969C938E931697EBE1FDE086E716
:10269000DF011D928A95E9F7C0E8DCE08BE9FE01D5
:1026A00011928A95E9F7DD24D394D092140D80918C
:1026B000480290914902A0914A02B0914B028B8B43
:1026C0009C8BAD8BBE8B412C512C320143944D869B
:1026D0005E866F86788A47E95CE063E082E00E946C
:1026E000CC03D98A1A8A1B861882D092130D809146
:1026F0004C0290914D02A0914E02B0914F028F83F7
:102700009887A987BA8749825A826B827C824BE874
:102710005CE063E182E10E94CC03DD821E8218A6A8
:10272000D092190D49A65AA66BA67CA6E12CF12CD5
:102730008701A801970169E070E080E090E00E94C5
:10274000C2019FA78EA7DDA618AED092170D49AE85
:102750005AAE6BAE7CAE61E088E00E946103DDAEF4
:1027600018AAD0921A0D49AA5AAA6BAA7CAAA80143
:1027700097016AE070E080E090E00E94C2019FABA8
:102780008EABDDAA1092C00CD092180D4092C10CF5
:102790005092C20C6092C30C7092C40C61E08DE048
:1027A0000E946103D092C50C188ED092150D498EEF
:1027B0005A8E6B8E7C8EA80197016BE070E080E0F2
:1027C00090E00E94C2019F8F8E8FDD8E18A2D09262
:1027D000160D49A25AA26BA27CA2A80197016CE037
:1027E00070E080E090E00E94C2019FA38EA3DDA272
:1027F00040917C0250917D0260917E0270917F0237
:102800004093C80C5093C90C6093CA0C7093CB0CC6
:102810008091840290918502A0918602B0918702F6
:102820008093D40C9093D50CA093D60CB093D70C76
:102830004093CC0C5093CD0C6093CE0C7093CF0C86
:102840008093D80C9093D90CA093DA0CB093DB0C46
:102850004093D00C5093D10C6093D20C7093D30C56
:102860008093DC0C9093DD0CA093DE0CB093DF0C16
:10287000F50180899189A289B3898093E00C9093B6
:10288000E10CA093E20CB093E30C808D918DA28DAE
:10289000B38D8093E40C9093E50CA093E60CB09379
:1028A000E70C84899589A689B7898093E80C909371
:1028B000E90CA093EA0CB093EB0C848D958DA68D5A
:1028C000B78D8093EC0C9093ED0CA093EE0CB0932D
:1028D000EF0C1092110D1092100D8FEF9FEFDC0195
:1028E0008093080D9093090DA0930A0DB0930B0DE2
:1028F0001092120D10920C0D10920D0D10920E0DE3
:1029000010920F0D88E0E0E4F2E0A0EFBCE001904F
:102910000D928A95E1F7E092730DF092740D009399
:10292000750D1093760D88E0E0E4F2E0A8EFBCE0CE
:1029300001900D928A95E1F7E092770DF092780D73
:102940000093790D10937A0D8F890E94E7048B858F
:10295000DF91CF911F910F91FF90EF90DF90BF908B
:10296000AF907F906F905F904F900C94E7048091B0
:102970008C0C811114C081E080938C0C80918D0CA3
:1029800090918E0CA0918F0CB091900C0197A105A5
:10299000B10529F48091910C81110E94F404809179
:1029A000800C811114C081E08093800C8091810C97
:1029B0009091820CA091830CB091840C0197A10599
:1029C000B10529F48091850C81110E94F404809155
:1029D000A80C81112EC081E08093A80C8091A90CD5
:1029E0009091AA0CA091AB0CB091AC0C0197A105F1
:1029F000B105F9F48091AD0C8823D9F069E070E05D
:102A000080E090E00E947E019093AF0C8093AE0C2A
:102A100040E050E0BA010E94470169E070E080E0C8
:102A200090E00E947E019093AF0C8093AE0C0E94C8
:102A300013028091B80C811103C081E08093B80C1F
:102A40008091B00C81112EC081E08093B00C8091F8
:102A5000B10C9091B20CA091B30CB091B40C019751
:102A6000A105B105F9F48091B50C8823D9F06AE08D
:102A700070E080E090E00E947E019093B70C80931C
:102A8000B60C40E050E0BA010E9447016AE070E0F5
:102A900080E090E00E947E019093B70C8093B60C8A
:102AA0000E9413028091C00C811103C081E08093C9
:102AB000C00C8091980C81112EC081E08093980CFD
:102AC0008091990C90919A0CA0919B0CB0919C0CC8
:102AD0000197A105B105F9F480919D0C8823D9F0E7
:102AE0006BE070E080E090E00E947E0190939F0C8C
:102AF00080939E0C40E050E0BA010E9447016BE0D9
:102B000070E080E090E00E947E0190939F0C8093A3
:102B10009E0C0E9413028091A00C81112EC081E0B6
:102B20008093A00C8091A10C9091A20CA091A30C79
:102B3000B091A40C0197A105B105F9F48091A50C01
:102B40008823D9F06CE070E080E090E00E947E0184
:102B50009093A70C8093A60C40E050E0BA010E942D
:102B600047016CE070E080E090E00E947E0190936D
:102B7000A70C8093A60C0C941302089560E070E0FB
:102B800080E89FE7089560E070E080E89FE708959F
:102B900060E070E080E89FEF089560E070E080E81A
:102BA0009FEF089560E070E080EC9FEF089560E093
:102BB00070E080EC9FEF0895F5DF60939D0D7093BA
:102BC0009E0D80939F0D9093A00DF1DF6093910D6A
:102BD0007093920D8093930D9093940DCFDF60933B
:102BE000990D70939A0D80939B0D90939C0DCBDF64
:102BF0006093950D7093960D8093970D9093980D1B
:102C0000C7DF6093A10D7093A20D8093A30D9093E5
:102C1000A40DC3DF6093A50D7093A60D8093A70D3F
:102C20009093A80D08954F925F926F927F928F922A
:102C30009F92AF92BF92CF92DF92EF92FF920F934B
:102C40001F93F89440902104509022046090230434
:102C500070902404C0901504D0901604E0901704DE
:102C6000F0901804452B09F0A4C09B01AC01241975
:102C700035094609570929013A0100911D041091AF
:102C80001E0420911F043091200448015901840C36
:102C9000951CA61CB71C80169106A206B306A0F4CC
:102CA0000091190410911A0420911B0430911C0406
:102CB0000F5F1F4F2F4F3F4F0093190410931A04BB
:102CC00020931B0430931C0480921D0490921E04D8
:102CD000A0921F04B09220040091190410911A04CC
:102CE00020911B0430911C048092250490922604AC
:102CF000A0922704B09228040093290410932A0478
:102D000020932B0430932C046093210470932204AD
:102D10008093230490932404A0E1B7E2A3019201DD
:102D20000E94AB406C0D7D1D8E1D9F1D6093150490
:102D30007093160480931704909318040091C402B2
:102D40001091C5022091C6023091C7020F3F1F4F5C
:102D50002F4F3F4FF1F00091C4021091C502209116
:102D6000C6023091C7020E3F1F4F2F4F3F4F89F0D1
:102D7000C090C402D090C502E090C602F090C70295
:102D800021E08C149D04AE04BF0408F420E02093DD
:102D9000310478941F910F91FF90EF90DF90CF90C6
:102DA000BF90AF909F908F907F906F905F904F906B
:102DB00008954B015C0184189508A608B708A30183
:102DC0009201261B370B480B590B641575058605B8
:102DD0009705D0F082169306A406B50640F420E0CD
:102DE00030E0A90181149104A104B10491F4A0E19F
:102DF000B7E20E94AB40A7019601261B370B480B98
:102E0000590BCA01B901C5CF82169306A406B506AF
:102E100070F7A0E1B7E2A50194010E94AB406C0DF0
:102E20007D1D8E1D9F1DB5CFFECECF93DF9300D0AD
:102E30001F92CDB7DEB71C821B821A8219821092B4
:102E40002D0410922E0410922F0410923004BE0113
:102E50006F5F7F4FCE0103960E94103469817A81A3
:102E60008B819C810E94FE2C009761F4BE016F5FF4
:102E70007F4FCE0103960E941C3469817A818B8139
:102E80009C812ED50F900F900F900F90DF91CF91D6
:102E90000895FF920F931F93CF93DF93082F60E065
:102EA00070E0CB010E949B3AFF24F3940E94E72B31
:102EB000EC01892B89F010E0CE3F8FEFD80769F045
:102EC000002361F160E070E0CB010E949B3A81E059
:102ED00090E0892B59F322C011E025D5EC01892B14
:102EE00021F0CE3F8FEFD80759F711111EC011E026
:102EF000229609F410E00E94972BEC01892B21F017
:102F0000CE3F8FEFD807E1F6111111C011E0CE3F8F
:102F10008FEFD80709F410E001110BC0CE01DF914B
:102F2000CF911F910F91FF90089511E0E4CF11E030
:102F3000F3CF60E070E0CB010E949B3A1F25812F08
:102F400090E0C7CFCF93DF9380913104882321F0A5
:102F500060E070E0CB014CD635D6D0E0C0E0892BE4
:102F600071F06AE070E080E090E00E949B3A81E0BE
:102F700090DF28D62196C03D27E0D20781F727D6DB
:102F80000E94522D1092490410924804109242045B
:102F900010924304109244041092450410923E048F
:102FA00010923F04109240041092410410923A048F
:102FB00010923B0410923C0410923D04109236048F
:102FC000109237041092380410923904109232048F
:102FD0001092330410923404109235044EEF5FEFD8
:102FE0006FEF7FEF4093C4025093C5026093C60217
:102FF0007093C70210923104E5E2F4E028E0DF01AB
:103000001D922A95E9F71092210410922204109241
:1030100023041092240410921D0410921E04109296
:103020001F04109220041092190410921A04109296
:103030001B0410921C041092150410921604109296
:10304000170410921804DF91CF910895109255043F
:10305000109256041092570410925804109254047F
:1030600080915D0490915E04909353048093520488
:10307000109251041092500410924C0410924D047E
:1030800010924E0410924F0410925A041092590458
:1030900090E080E00895CF92DF92EF92FF920F933D
:1030A0001F93CF938C01892B09F055C020915D04AB
:1030B00030915E04809152049091530440915D04DC
:1030C00050915E04509353044093520428173907DB
:1030D00081F0109251041092500410924C041092FE
:1030E0004D0410924E0410924F0410925A04109204
:1030F000590480915D0490915E04019761F580917F
:10310000590490915A04892B21F48091C8028111AD
:1031100012C08091590490915A040197E1F4809172
:103120004C0490914D04A0914E04B0914F0401972E
:10313000A105B10581F410924C0410924D04109237
:103140004E0410924F041092C80282E090E09093D7
:103150005A048093590480915D0490915E04019714
:1031600009F01CC180917304909174048017910739
:1031700009F014C180916F0490917004A0917104C2
:10318000B0917204009709F409C120916E042111D5
:103190000DC040916F045091700460917104709162
:1031A0007204452B462B472B09F4F8C02091590493
:1031B00030915A042230310509F0F0C020915004BA
:1031C0002111ECC0FC01C080D180E280F3808091AD
:1031D0005404882309F4D3C0809160049091610461
:1031E000892B09F4FDC0209160043091610481E0D5
:1031F0002230310509F080E02091600430916104B3
:10320000C1E02130310549F0209160043091610422
:10321000C1E02230310509F0C0E0882309F456C02E
:1032200020916A0430916B0440916C0450916D04BC
:10323000C701B6010E94723787FD14C020916A044D
:1032400030916B0440916C0450916D046091550471
:103250007091560480915704909158040E944F3603
:1032600087FD22C020916A0430916B0440916C0468
:1032700050916D04C701B6010E947237181634F5DB
:1032800020916A0430916B0440916C0450916D045C
:1032900060915504709156048091570490915804A0
:1032A0000E944F36811112C0809162049091630494
:1032B000A0916404B0916504892B8A2B8B2B19F49F
:1032C00081E08093510481E080935004CC2309F481
:1032D00056C020916A0430916B0440916C04509167
:1032E0006D04C701B6010E944F3687FF14C02091BC
:1032F0006A0430916B0440916C0450916D046091AC
:1033000055047091560480915704909158040E947E
:10331000723787FF22C020916A0430916B0440917C
:103320006C0450916D04C701B6010E944F368111A3
:1033300026C020916A0430916B0440916C04509136
:103340006D046091550470915604809157049091DA
:1033500058040E947237181694F480916204909178
:103360006304A0916404B0916504892B8A2B8B2B94
:1033700019F481E08093510481E08093500481E04E
:1033800090915004911180E080935404C0925504B0
:10339000D0925604E0925704F0925804012B09F0A1
:1033A00067C18091590490915A04892BD9F41092E5
:1033B0005F04109250048091C802882379F082E063
:1033C00090E090935A04809359041092C80220917F
:1033D0005D0430915E0481E0232BE9F080E01BC0A6
:1033E00081E00ACF1092C80280915F04882349F0DF
:1033F0001092510410925A041092590410925F04D2
:10340000EDCF80915D0490915E04892BE1F0809175
:103410005004109250042091590430915A042230E3
:10342000310509F45EC088F42115310509F448C05E
:103430002130310509F4F3C0109251041092500468
:1034400010925F0438C081E0E6CF2330310509F4E3
:10345000B1C02430310581F740914C0450914D04A6
:1034600060914E0470914F0441155105610571053D
:1034700061F0415051096109710940934C04509326
:103480004D0460934E0470934F0440914C0450914E
:103490004D0460914E0470914F04452B462B472BF1
:1034A000D9F420915B0430915C042130310509F09E
:1034B00046C01092510410925A04109259040CC044
:1034C0008091C802882341F082E090E090935A04F2
:1034D000809359041092C80210924A0480915104BA
:1034E000CEC08823C9F38091620490916304A091B7
:1034F0006404B0916504181619061A061B060CF030
:103500007DC080915D0490915E04019709F076C0C2
:103510008091620490916304A0916404B091650469
:1035200080934C0490934D04A0934E04B0934F04A9
:1035300083E090E090935A0480935904CDCF40915A
:103540006604509167046091680470916904452B8A
:10355000462B472BA9F0109251048091660490915C
:103560006704A0916804B091690480934C0490931F
:103570004D04A0934E04B0934F0481E090E0DACF65
:10358000882399F08091C9029091CA02A091CB0240
:10359000B091CC0280934C0490934D04A0934E04C0
:1035A000B0934F0484E090E0C5CF1092510482E0C4
:1035B00090E0C0CF80914C0490914D04A0914E04B6
:1035C000B0914F040097A105B10559F00197A109E9
:1035D000B10980934C0490934D04A0934E04B09392
:1035E0004F0480914C0490914D04A0914E04B091F1
:1035F0004F04892B8A2B8B2B09F06ECF8091C90247
:103600009091CA02A091CB02B091CC02892B8A2B57
:103610008B2B09F44ECF81E080935104B3CF4091BE
:103620004C0450914D0460914E0470914F0441152B
:1036300051056105710561F0415051096109710938
:1036400040934C0450934D0460934E0470934F0488
:1036500040914C0450914D0460914E0470914F0480
:10366000452B462B472B09F037CF8111C7CF9FCF72
:1036700080914A04882309F431CF80914B04CF9183
:103680001F910F91FF90EF90DF90CF9008951092CF
:103690005504109256041092570410925804109238
:1036A000540410925A041092590410925304109228
:1036B00052041092740410927304109251041092E8
:1036C000500410924C0410924D0410924E0410922B
:1036D0004F0410924B0410924A0410926F041092FF
:1036E0007004109271041092720410926E04109281
:1036F0006A0410926B0410926C0410926D0488EEB0
:1037000093E0A0E0B0E08093C9029093CA02A09336
:10371000CB02B093CC021092660410926704109210
:10372000680410926904109262041092630410926B
:10373000640410926504109261041092600481E0A8
:103740008093C80210925F0410925E0410925D0490
:1037500010925C0410925B0490E080E008958091E8
:103760005D0490915E04892B19F58091C80288232D
:1037700051F080915F04811106C081E080934B0479
:1037800080934A04089520915F043091C80281E03B
:1037900090E0332311F090E080E030E08223932327
:1037A000892B21F010924B0481E0EACF10924A0459
:1037B000089582E090E0FA01918380838FEF9FEF7C
:1037C0000895CF93DF93EA01009711F00E94722EC3
:1037D0001982188290E080E0DF91CF910895DB019B
:1037E000009719F48FEF8C9308952EEF2C93FC0122
:1037F0003F96EF30F10508F034C08827ED5FF34EB7
:103800008F4F0C94A3402F1C2D1C2B1C291C271CF4
:10381000231C251C211C1F1C1D1C1A1C161C121CE1
:10382000181C311C80E311968C93089589E2FBCF1C
:1038300082E2F9CF11961C92089583E2F4CF81E2DF
:10384000F2CF81E1F0CF87E2EECF8AE2ECCF80E1E8
:10385000EACF84E2E8CF88E2E6CF86E2E4CF81E3F4
:10386000E2CF80E2E0CF80918104909182040895BC
:103870009093820480938104089580918004089538
:1038800090918004892B809380040895982F9095BF
:1038900080918004892380938004089580917F041F
:1038A000089580917D0490917E04089561157105BD
:1038B00059F0FB0130E020E070E060E024173507AC
:1038C00019F06115710511F0CB010895A081B18146
:1038D000A817B90709F4BF012F5F3F4F3696EECF07
:1038E0008091830481111CC060D266D290937604CB
:1038F000809375040E9470260E94822690937A0419
:10390000809379040E94FF2A0E94062B90937804EA
:103910008093770481E08093830490E080E00895B1
:1039200084EF9FEF08958F929F92AF92BF92CF92B4
:10393000DF92EF92FF920F931F93CF93DF9300D00C
:1039400000D000D01F92CDB7DEB71A861986188630
:103950001F821E821D821C821B821A821982809104
:10396000830407EF1FEF882309F49CC08E010D5FCD
:103970001F4F9E012B5F3F4FAE01495F5F4FBE015E
:10398000675F7F4F90E080E00E94832C8C0100975E
:1039900021F00596029708F0DBC029853A852115AC
:1039A000310509F402C1ED80FE804B815C81B701D5
:1039B000640F751F8F8198858617970708F4F5C0E7
:1039C000E20EF31ED7019C91903C09F07FC042307B
:1039D000510508F47BC011968C914091810450915F
:1039E0008204452B09F49CC0913F08F071C02CE182
:1039F000290F2D3008F48BC02DE2290F203108F457
:103A000089C0903C21F48150823008F483C088E35F
:103A1000890F8B3008F481C09FEEC92E9BE1D92E0F
:103A2000E9EDFBE16D817E81AE014F5F5F4F8985DE
:103A30009A8519955C01C114D104A1F189809A80FD
:103A40008114910479F18B819C818815990508F482
:103A500087C010E000E04B815C8170E060E0C7014E
:103A60000E94CD4001151105E9F449815A8169850B
:103A70007A858D819E81680F791FC501F6011995A0
:103A8000E980FA800D811E812F81388549855A850C
:103A90006FEF7FEF81E090E00E941E2C8C01892B5C
:103AA00009F056C0C8012A960FB6F894DEBF0FBEC3
:103AB000CDBFDF91CF911F910F91FF90EF90DF90DD
:103AC000CF90BF90AF909F908F90089580E085CF6A
:103AD00030E020E0220F331FF901EB58FB4F01903B
:103AE000F081E02D309709F497CF892F90E0199558
:103AF000009709F491CFDC011296ED91FC91139798
:103B00001496CD90DC90309709F08CCF1FC021E047
:103B100030E0E0CF22E030E0DDCF23E030E0DACF6C
:103B2000D12CC12CE1EEFBE19F3F09F07BCFE0916E
:103B30007504F0917604309721F4C90104EF1FEF6A
:103B40000CC08FEF90E019950097A9F604EF1FEFD6
:103B500089859A85009709F4A5CF0E94722EA2CF7D
:103B60000E944D2D8C0189859A850E94722E70E0ED
:103B700060E0C4010E94E62C98878F830E941B2C72
:103B80009E838D836F8178856115710559F0C80119
:103B90000E94FE2F9A87898706EF1FEF892B09F075
:103BA00058CF59CF08EF1FEF56CF08EF1FEFD0CFF8
:103BB00020918304222319F020E00C94872687EFBC
:103BC0009FEF0895809181049091820408950E944E
:103BD0000B2B0E94652AF5D0E5E7F4E088E0DF01D1
:103BE0001D928A95E9F71092830490E080E0089591
:103BF0000C94C32821E040E050E0BA010C948726E1
:103C000086E090E0FA019183808390E080E008955F
:103C100047E050E060E073E049CEDF92EF92FF9220
:103C20000F931F93CF93DF938A01EC01C60FD71F29
:103C3000E0908704F0908804D9800E94352DD81632
:103C4000190678F082E090E0F801918380838EEF8E
:103C50009FEFDF91CF911F910F91FF90EF90DF9039
:103C60000895EF2841F482E090E0F8019183808389
:103C700084EF9FEFEECF89818093860490E00196D8
:103C8000F8019183808390E080E0E3CFCF93DF93CE
:103C9000EA010E947429882321F00E94422D0E948B
:103CA000752982E090E0998388838BEF9FEFDF9105
:103CB000CF910895CF93DF93EB0186E0FB01119242
:103CC0008A95E9F78FEF8883D8DD8983E7DD8A83DA
:103CD000E8DD9D838C83DF91CF910895CF93DF93AF
:103CE000EA010E947729811109C082E090E099835E
:103CF000888385EF9FEFDF91CF91089590E080E07A
:103D0000B7DD81E090E09983888390E080E0F3CF95
:103D10000F931F93CF93DF93EA018C01060F171FB8
:103D20000E94772981110BC082E090E099838883FB
:103D300085EF9FEFDF91CF911F910F910895F801CB
:103D40008181823038F082E090E0998388838EEF21
:103D50009FEFF0CF81E090E08BDD88E090E09983E9
:103D6000888390E080E0E6CFCF93DF930097D1F493
:103D7000EB01FB01329686E0DF011D928A95E9F79F
:103D80008FEF888385E089831A820E94352D8B838B
:103D90000E94342D9D838C8381E08E838F83DF91FD
:103DA000CF910895DF91CF911ACD88E09EE1909355
:103DB00085048093840408958091840490918504FF
:103DC00008951092850410928404089580918704C8
:103DD000909188040895411105C061157105810510
:103DE000910561F06093870470938804809389043F
:103DF00090938A0440938B0481E0089580E00895B5
:103E0000FF920F931F93CF93DF938A01EC01C60FAC
:103E1000D71FF9800E94352DF816190668F082E048
:103E200090E0F801918380838EEF9FEFDF91CF9137
:103E30001F910F91FF9008956C817D818E819F81EC
:103E40004B81C9DF811108C082E090E0F8019183C5
:103E5000808384EF9FEFEACF89818093860490E08E
:103E60000196F8019183808390E080E0DFCFCF93CB
:103E7000DF93EA01FC01E60FF71F648175818681FB
:103E800097814381A8DF811109C082E090E0998386
:103E9000888384EF9FEFDF91CF91089581E090E0D8
:103EA0009983888390E080E0F6CFE7E8F4E04081F2
:103EB000518162817381480F511D611D711D4083C5
:103EC0005183628373830895CF93C09186044C2FEE
:103ED00050E0609187047091880401960E94C4406C
:103EE0008C2FE3DF10928604CF910895009799F408
:103EF00080918704909188042FEFFB012083892B08
:103F000059F02091860430E02F5F3F4F241735078A
:103F100019F4CB01D9CF63CC0895009799F480911F
:103F20008704909188042FEFFB012083892B59F09F
:103F30002091860430E02F5F3F4F2417350719F496
:103F4000CB01C2CF4CCC089523E1AC01249FC0012A
:103F5000259F900D1124E0919004F0919104E80FB9
:103F6000F91F238134812250310981E0223031054B
:103F700008F080E008950F931F93CF93DF93009193
:103F8000920410919304D0E0C0E080E00C171D076C
:103F900049F491E0811190E0892FDF91CF911F9139
:103FA0000F9108958111F5CFCE01CEDF2196EECF8E
:103FB000A0919004B0919104109729F1209192045E
:103FC0003091930482179307F0F453E1589F9001C6
:103FD000599F300D1124A20FB31FED91FC91119741
:103FE000309789F012968C91681768F48DE0689F7D
:103FF000E00DF11D112480819181892B21F081E058
:104000009281491708F080E008959C0143E1429FA6
:10401000C001439F900D1124E0919004F091910410
:10402000E80FF91F8385823091F481E090E065818B
:1040300076814091CD025091CE026417750711F43C
:1040400090E080E0892B19F081E0232B09F080E0DB
:104050000895FC01A081B1818DE0689FA00DB11D84
:10406000112413964D915C9185859685489F90010A
:10407000499F300D589F300D1124C90101966111DF
:1040800003C0478144FD04960895EF92FF920F9379
:104090001F93CF93DF93EA01FC01E60FF71F028124
:1040A0001381E480F5804F2D6E2DC80181DF8111D1
:1040B0000DC082E090E0998388838EEF9FEFDF91BF
:1040C000CF911F910F91FF90EF900895C8013CDFB1
:1040D000882339F082E090E09983888388EF9FEF0E
:1040E000EECF1093D4020093D302E092D502F09267
:1040F000D60281E090E09983888390E080E0DFCF72
:10410000CF92DF92EF92FF920F931F93CF93DF93A3
:104110007A01EC01C60FD71FC090D302D090D40211
:104120000091D5021091D602412F602FC60140DFC9
:10413000811110C082E090E0F701918380838AEFC3
:104140009FEFDF91CF911F910F91FF90EF90DF9044
:10415000CF900895C601F8DE882341F082E090E018
:10416000F7019183808388EF9FEFEBCF4C815D81D6
:104170006E817F819A8189818F3F41F082E090E05A
:10418000F701918380838EEF9FEFDBCFE3E1EC9D1E
:104190009001ED9D300D1124E0919004F091910477
:1041A000E20FF31F0190F081E02D2DE0029FE00D62
:1041B000F11D11240190F081E02D27E0129FE00D08
:1041C000F11D1124808391838B81828343835483E7
:1041D000658376831F5F1093D60281E090E0F7013C
:1041E0009183808390E080E0ACCFEF92FF920F93B9
:1041F0001F93CF93DF937A018C01060F171FC09195
:104200009004D0919104209781F021E030E0F801F2
:104210008281938140919204509193048417950771
:1042200010F030E020E0232B71F482E090E0F70101
:10423000918380838EEF9FEFDF91CF911F910F913C
:10424000FF90EF90089543E1489F9001499F300D02
:104250001124C20FD31F78DE882341F082E090E062
:10426000F7019183808388EF9FEFE6CFF8012481E7
:10427000358120383105C8F687818111D6CF41813B
:10428000842F90E08F7E009741F082E090E0F7016C
:104290009183808386EF9FEFCFCF4F833E832D8323
:1042A000268128871986223010F421E0288721E012
:1042B00030E0F70131832083BFCF88E090E0FA013E
:1042C0009183808390E080E00895FB018FEF8083ED
:1042D00081E181838FEF9FEF9383828380E890E079
:1042E00095838483168217820895FB018FEF808364
:1042F00091E0918382839383848384E3858381E047
:1043000090E0978386830895DF92EF92FF920F9358
:104310001F93CF93DF93EA01FC01E60FF71F818122
:10432000813071F082E090E0998388838FEF9FEF76
:10433000DF91CF911F910F91FF90EF90DF90089543
:1043400082819381D4802581E680F780009190045A
:10435000109191040115110539F482E090E09983E0
:1043600088838CEF9FEFE4CF4091920450919304A7
:104370008417950738F082E090E0998388838EEF68
:104380009FEFD6CF892B39F082E090E09983888324
:1043900086EF9FEFCDCF8D2D8D7FB1F72130A1F727
:1043A00081E0D11006C091E0E916F10431F080E01F
:1043B00004C0E2E0EE16F104D0F3882329F390E084
:1043C00080E0C2DD882339F082E090E09983888321
:1043D00088EF9FEFADCFF801D38681E08487F68622
:1043E000E586108A178681E090E09983888390E0C3
:1043F00080E09ECF4CE050E06AE273E057CA8F92B3
:104400009F92BF92CF92DF92EF92FF920F931F93F2
:10441000CF93DF93EA01FC01E60FF71F82819381BE
:104420000481B580E0919004F0919104309791F46B
:1044300082E090E0998388838CEF9FEFDF91CF91AA
:104440001F910F91FF90EF90DF90CF90BF909F90C2
:104450008F900895209192043091930482179307CE
:1044600038F082E090E0998388838EEF9FEFE6CF6B
:1044700023E1289F6001299FD00C1124EC0DFD1D24
:10448000E080F180E114F10499F28281081748F785
:104490008DE0089F80011124E00EF11EF70180815C
:1044A0009181892B29F6BB20E1F2F7E0BF9E400104
:1044B0001124C4010E94392EF70191838083E09179
:1044C0009004F0919104EC0DFD1D0190F081E02D20
:1044D000E00FF11F80819181009739F482E090E034
:1044E000998388838DEF9FEFA9CFA40170E060E0EE
:1044F0000E94CD408091900490919104C80ED91EE5
:10450000F60180819181080F191FF801B28281E0C4
:1045100090E09983888390E080E090CFAF92BF9243
:10452000CF92DF92FF920F931F93CF93DF93EA0115
:10453000FC01E60FF71F82819381F48000919004C3
:10454000109191040115110581F482E090E09983A6
:1045500088838CEF9FEFDF91CF911F910F91FF9098
:10456000DF90CF90BF90AF9008952091920430914A
:1045700093048217930738F082E090E09983888350
:104580008EEF9FEFE8CF2FEF2F0D2C3FA8F723E101
:10459000289F6001299FD00C11240C0D1D1DF801CE
:1045A00080819181892B89F6FDE0FF9E50011124C5
:1045B000C5010E94392EF80191838083E091900417
:1045C000F0919104EC0DFD1D80819181009739F4EB
:1045D00082E090E0998388838DEF9FEFBCCFA501A7
:1045E00070E060E00E94CD40E0919004F091910471
:1045F000EC0DFD1DF28281E090E09983888390E0CC
:1046000080E0A9CFCF92DF92EF92FF920F931F939A
:10461000CF93DF93860F971FFC0102811381809156
:10462000900490919104892B81F082E090E0FA014E
:10463000918380838CEF9FEFDF91CF911F910F913A
:10464000FF90EF90DF90CF900895C801B0E0A0E018
:104650000197A109B1098F3F9F4FA105B10540F016
:1046600082E090E0FA01918380838EEF9FEFE4CFA8
:104670007A0183E1809F6001819FD00C1124C601E3
:104680000E94392EEC01009741F482E090E0F7019E
:10469000918380838DEF9FEFCFCFA60170E060E024
:1046A0000E94CD40D0939104C09390041093930442
:1046B0000093920490E080E02FEF3FEF41E061E053
:1046C00070E08017910741F481E090E0F701918359
:1046D000808390E080E0B0CF3A8B298B1B864C879B
:1046E0007E876D87188A1F8601966396EACFEF92C0
:1046F000FF921F93CF93DF93EC0110E0F12CE12C9C
:104700006A811617B0F083E0689FB0011124AE01F2
:104710004F5E5F4FC7010E949E2E009721F02FEF42
:104720003FEF3A8B298BDF91CF911F91FF90EF9054
:104730000895612FCE018DDC61E070E00E94E62CCF
:10474000E816F90608F47C011F5FDACFF89420918F
:104750008E0430918F0481E02115310509F080E04D
:10476000232B09F0789408952F923F924F925F92F5
:104770006F927F928F929F92AF92BF92CF92DF9271
:10478000EF92FF920F931F93CF93DF933C01660E3E
:10479000771EF301828193814C01B12CA12CC09131
:1047A0009004D0919104209769F021E030E060916D
:1047B0009204709193048617970710F030E020E080
:1047C000232BD1F482E090E0FA01918380838EEF75
:1047D0009FEFDF91CF911F910F91FF90EF90DF90AE
:1047E000CF90BF90AF909F908F907F906F905F9091
:1047F0004F903F902F9008958092D7029092D802C8
:10480000A092D902B092DA0263E1689F9001699F99
:10481000300D1124C20FD31FF3018181833040F08A
:1048200082E090E0FA019183808386EF9FEFD1CF01
:104830002A012B813C81232BF1F4288139819F812E
:1048400091FF2EC0232B09F46FC0209195049A810B
:10485000422F490F5527551FBA0141E050E06138FA
:10486000710514F050E040E0452B09F45DC02A8743
:10487000920F909395048150823008F481C066DFD6
:10488000882309F4D8C0F3018181813009F48DC0F7
:1048900008F47BC0823009F4C6C090E080E0ADC06F
:1048A000232B09F441C0209194049A81E22FE90F4F
:1048B000FF27FF1F41E050E0ED3FF10514F050E00D
:1048C00040E0452B89F12A87920F90939404D3CF2F
:1048D000A081B181A20FB31F11966C91060F111D1B
:1048E0000196295F3F4F8417950794F38D859E8528
:1048F000089F1001099F300C189F300C1124C1141F
:10490000D104D1F48F8184FF17C00E94342DF5E0CB
:104910002F0E311C21E08215930508F420E0A70139
:10492000435F5F4F21110EC082E090E0F20191835E
:10493000808387EF9FEF4DCF0E94342D2FEF221AF7
:10494000320AE8CF88819981E80EF91EF7011483B5
:104950000383FFEFCF1ADF0A7A018A818C151D04C9
:1049600009F00CF48CCFE881F981EE0DFF1D428136
:1049700050E030E020E010E000E090E080E0B3CFD5
:10498000F12CE12CD12CC12CE8CF81E090E09C836C
:104990008B83F1DA882309F480CF81E090E00E94D4
:1049A000381C80E40E94461C78CF89899A89019638
:1049B00061F083E090E09C838B8382E090E00E9432
:1049C000381C80E40E94401C68CF8D819E8120911C
:1049D000CD023091CE0282179307D1F46091D102BB
:1049E0007091D202AE014F5E5F4F8091CF029091E5
:1049F000D0020E94BD2F0097E1F2789422E030E0CF
:104A0000F20131832083892B99F08DEF9FEFE1CE66
:104A100089288A288B2869F6892B59F6CE0167DE0A
:104A2000188A1F86E8CF82E090E09C838B8335CF85
:104A300090E080E0CECE82E090E0F201918380832E
:104A400085EF9FEFC6CE8F929F92AF92BF92CF928B
:104A5000DF92EF92FF920F931F93CF93DF93EA01C0
:104A60008C01060F171FF8018181833098F082E0D6
:104A700090E09983888386EF9FEFDF91CF911F911C
:104A80000F91FF90EF90DF90CF90BF90AF909F90ED
:104A90008F9008958091900490919104892B61F0FA
:104AA00081E090E02091920430919304232B11F443
:104AB00090E080E0892B39F482E090E0998388834C
:104AC0008EEF9FEFDACF42DE882309F4DFC0F801D2
:104AD0008181813009F495C0E8F0823099F4209109
:104AE000920430919304E0919004F091910490E04D
:104AF00080E041E050E02817390709F0BDC03BDAFB
:104B0000811117C0789481E090E09983888390E0C8
:104B100080E0B3CF2091920430919304E09190040F
:104B2000F091910490E080E041E050E028173907CF
:104B300041F481E090E00E94381C80E40E94461C11
:104B4000E1CF63817481672B11F054834383019615
:104B50007396ECCFE0919004F0919104E00FF11F77
:104B60002381348122303105D9F4218932892F3FC4
:104B70003F4FB1F4258136814091CD025091CE0254
:104B80002417350761F5AF014F5E5F4F6091D10289
:104B90007091D2028091CF029091D0020E94BD2FDD
:104BA000EFEFCE1ADE0AEE0AFE0A0D5E1F4F4091AD
:104BB00092045091930470E060E0C416D506E606B6
:104BC000F7063CF5009731F27894892B09F49BCFD6
:104BD00082E090E0998388838DEF9FEF4ECFC114E0
:104BE000D104E104F104E1F6232BD1F6CF017FDDFE
:104BF000E0919004F0919104E00FF11F108A178664
:104C0000CFCF10E000E090E080E0C12CD12C760105
:104C1000CECF0097C9F610E000E0812C912C540112
:104C200083E0E82EF12C1AC0E0919004F0919104F9
:104C3000E00FF11F83819481029749F4F482E382AB
:104C400082E090E00E94381C80E40E94401CFFEF4C
:104C50008F1A9F0AAF0ABF0A0D5E1F4F8091920400
:104C600090919304B0E0A0E088169906AA06BB06CE
:104C7000DCF290E080E0A8CF63817481623071053E
:104C800011F4548343830196739635CF82E090E00C
:104C90009983888385EF9FEFF0CE0097B9F48FEF6B
:104CA000FB0180832091D7023091D80243E1429FDB
:104CB000C001439F900D1124E0919004F091910464
:104CC000E80FF91F8285FB01818308950C94EF1B87
:104CD00088E090E0FA019183808390E080E008957D
:104CE00010928F0410928E04E0E9F4E086E0DF0178
:104CF0001D928A95E9F78AEF91E290938D04809353
:104D00008C04089580918C0490918D0408952F92C5
:104D10003F924F925F926F927F928F929F92AF924B
:104D2000BF92CF92DF92EF92FF920F931F93CF9398
:104D3000DF93CDB7DEB72F970FB6F894DEBF0FBE67
:104D4000CDBFF894E0918E04F0918F043196F093EA
:104D50008F04E0938E0478944090900450909104D6
:104D60004114510409F40CC2E0919204F0919304AF
:104D7000EF2B09F405C22D8749875A876B877C87FB
:104D800098878F831201B12CA12C10E000E0809154
:104D9000920490919304A816B90618F40115110510
:104DA00029F1F89480918E0490918F04019790934B
:104DB0008F0480938E047894C8012F960FB6F894D0
:104DC000DEBF0FBECDBFDF91CF911F910F91FF903E
:104DD000EF90DF90CF90BF90AF909F908F907F909B
:104DE0006F905F904F903F902F9008957101E4185D
:104DF000F508D10117968C91179781FD54C0139631
:104E00008D919C911497039709F04DC015968D9143
:104E10009C91EF81F8858E179F0709F044C0B5017A
:104E200090E080E07FD48A832091900430919104B7
:104E30003D832C833D85332309F44CC04C815D8137
:104E4000452B09F49AC18091920490919304A8167D
:104E5000B90608F092C1C501D8D88823E9F06C8161
:104E60007D816E0D7F1D7D836C83DB011F968D918F
:104E70009C91892B89F0D12CC12CF12CE12CAC8197
:104E8000BD8112968C9112978E151F0409F094F42F
:104E900050961C921E921F972A81222321F0B50161
:104EA00090E080E041D43FEFA31AB30A43E1240E1F
:104EB000311C6DCFAC81BD81ED91FC91EC0DFD1DE0
:104EC000858196810FD7BFEFEB1AFB0AEDE0CE0E7E
:104ED000D11CD5CFEC81FD81309709F44EC1809172
:104EE000920490919304A816B90608F046C1EE0DFD
:104EF000FF1DFF87EE87C50188D88B83882339F192
:104F0000AE85BF851F968D919C915097019621E0AB
:104F10001D964D915C918417950709F020E02E8332
:104F20001982712C10E000E0AE85BF8512968C913D
:104F3000781608F45DC0EE85FF8587859089019617
:104F4000658576850E946D40908B8787A5CFB1E0FF
:104F5000BE83E6CF992493946BC08BD6F6019683DB
:104F6000858382C0D601ED90FC90B7E06B9EE00C8B
:104F7000F11C1124F7016381748180818F3F61F1FD
:104F800021E030E002C0220F331F8A95E2F7C90109
:104F9000092E000CAA0BBB0BFB01408151816281E1
:104FA000738184239523A623B72321E0892B8A2BA1
:104FB0008B2B09F420E0D4012C93D70111968C910E
:104FC000F60123853485820F932F911D880E991E3B
:104FD0001486138663949BC0418150E0C4010E94F3
:104FE000C440EBCF998206EF1FEFC5C01982C3C042
:104FF000F981F111A0CFEDE07E9E70011124AE8504
:10500000BF85CD90DC90CE0CDF1C15D49D838C83A6
:10501000BB81BB2309F49ECF81E0EE85FF85278508
:105020003089232B09F080E0982E882309F458C09A
:10503000672D8E859F850DD8D60118969C938E93EB
:10504000179761E070E0C2D4EE85FF85218932892F
:105050002F3F320709F481CFBC01C901CFD7D60158
:1050600016969C938E931597D60115968D919C91CB
:105070001697009709F4B6CFEC81FD818E0F9F1F24
:105080001A969C938E931997AE85BF85ED91FC91EE
:105090001197EE0EFF1EF7012185328514861386C7
:1050A0001A968C91870DD9018D93711016C0EE85DB
:1050B000FF85878184FF11C049855A856B857C8572
:1050C000F9014183528363837483F7018385948557
:1050D0000496A80FB91F14861386F701B287A1871B
:1050E000D60115968D919C911697892B09F443C092
:1050F000EE85FF85258136818091CD029091CE028B
:105100002817390779F019968D909C90612CD6015B
:1051100012968C911297681608F424CF1A969C92D6
:105120008E921997BE81BB2309F460CF61E070E0D5
:10513000F601878190854AD4D6011796ED90FC90B0
:10514000189715964D915C91E1E0F0E0BA81BB2390
:1051500011F0F0E0E0E00C811D819C01B501882791
:1051600099278E1B9F0B6AD38C01892B21F0F601A6
:1051700085819681B7D57394D7CE0FEF1FEF8CCE74
:1051800010E000E00ECE2F923F924F925F926F920E
:105190007F928F929F92AF92BF92CF92DF92EF92C7
:1051A000FF920F931F93CF93DF9380919004909180
:1051B000910410E000E0892BA9F0C8DA0AEF1FEF94
:1051C000882381F02090920430909304C091900441
:1051D000D0919104D12CC12C10E000E02C143D049E
:1051E000A9F47894C801DF91CF911F910F91FF909E
:1051F000EF90DF90CF90BF90AF909F908F907F9077
:105200006F905F904F903F902F900895C6010E943D
:105210000520882309F18B819C810397E9F48F8510
:105220009889892BC9F0B60190E080E07BD221E01B
:1052300030E0882311F030E020E044245524421A65
:10524000530AB12CA12C912C812C8A818815190428
:1052500009F038F4188A1F864FEFC41AD40A6396EF
:10526000BDCFE881F981EA0DFB1D85819681892BEF
:10527000A1F161E070E087819085A8D33C01DBD289
:105280008C01E881F981EA0DFB1D818592852581DC
:105290003681200F311FAC01421B530B9A0147810D
:1052A0005085421B530B70E060E00E94CD40E881C6
:1052B000F981EA0DFB1DE780F08445815681930159
:1052C000B601C201BBD28C01892B39F0E881F9818A
:1052D000EA0DFB1D8581968105D55FEF851A950A3C
:1052E0008DE0A80EB11CB1CF31CA789408952F92E9
:1052F0003F924F925F926F927F929F92AF92BF9236
:10530000CF92DF92EF92FF920F931F93CF93DF9391
:1053100000D000D0CDB7DEB7009190041091910479
:10532000992493940115110509F43EC0A0909204AC
:10533000B09093040BDA982E8823B1F11092910467
:10534000109290041092930410929204109294047C
:10535000109295048FEF9FEFDC018093D70290931A
:10536000D802A093D902B093DA0278947FD31E8337
:105370000D83C12CD12C7601C501B0E0A0E089835A
:105380009A83AB83BC8322242A94322C89819A810C
:10539000AB81BC81C816D906EA06FB06F4F0C80149
:1053A000A1D480E40E94461C892D26960FB6F8945D
:1053B000DEBF0FBECDBFDF91CF911F910F91FF9048
:1053C000EF90DF90CF90BF90AF909F907F906F90C5
:1053D0005F904F903F902F900895AD81BE811596BC
:1053E0008D919C9116972091CD023091CE0282171B
:1053F0009307D1F451968D919C91EED5ED81FE816C
:1054000080819181B12CA12C412C512C3201892B0E
:1054100089F5BFEFCB1ADB0AEB0AFB0AED81FE81AF
:105420007396FE83ED83B2CFC114D104E104F1047D
:1054300029F7892B19F7ED81FE81818992898F3FA8
:10544000980709F029D5AD81BE8152963C922E92E3
:105450005197D4CF8A0D9B1DDC018D919C910097B3
:1054600009F040D4BFEF4B1A5B0A6B0A7B0AEDE0F0
:10547000AE0EB11CAD81BE818D919C91119712969B
:105480004C9150E070E060E04416550666067706E1
:105490000CF328D4BECFCF93DF93EA0128DF81112C
:1054A00009C082E090E09983888385EF9FEFDF91C8
:1054B000CF91089581E090E00E94381C81E090E057
:1054C0009983888390E080E0F2CF11DF10928D0401
:1054D00010928C04089542E050E062E773E00C946F
:1054E000561CFF920F931F93CF93DF938A01EC0119
:1054F000C60FD71FF980B9D20897F816190671F0B0
:1055000068F082E090E0F801918380838EEF9FEF56
:10551000DF91CF911F910F91FF9008956C817D8154
:105520008E819F814B810E94EB1E811108C082E019
:1055300090E0F8019183808384EF9FEFE9CFF980B9
:105540000E94E61E4F2D50E0BE01685F7F4F0E9413
:10555000C44089810E94551F81E090E0F801918349
:10556000808390E080E0D4CFDF92EF92FF920F93A0
:105570001F93CF93DF938A01EC01C60FD71F0E94C0
:10558000E61E7C01D98071D2DD2059F0029721E01E
:1055900030E0D816190619F010F030E020E0232B87
:1055A00079F482E090E0F801918380838EEF9FEFA1
:1055B000DF91CF911F910F91FF90EF90DF900895B1
:1055C000EF2841F482E090E0F8019183808384EF3A
:1055D0009FEFEECFF9800E94E61E4F2D50E0BE01F6
:1055E0006E5F7F4F0E94C44089810E94551F81E0F9
:1055F00090E0F8019183808390E080E0D9CF8BE642
:105600009AE290939704809396040895809196046B
:105610009091970408950895FC011182108293835C
:1056200082830895DB011D921C92DC011296ED919C
:10563000FC9113977183608313967C936E931297FA
:105640000895FC0180819181DB018D939C93A08161
:10565000B181109741F08D919C9191838083892B2A
:1056600011F4F383E2830895FC0180819181DB01D1
:105670008D939C93892B11F4738362837183608370
:105680000895FC0111821082938382830895CF9341
:10569000DF931F921F92CDB7DEB71A821982F8945A
:1056A000BE016F5F7F4F8DE994E0CBDF89819A81E6
:1056B000009709F017D389819A81892B89F7BE0158
:1056C0006F5F7F4F81EA94E0BCDF89819A81009708
:1056D00009F008D389819A81892B89F778940F90F2
:1056E0000F90DF91CF910895CF93DF931F921F9278
:1056F000CDB7DEB71A821982F894BE016F5F7F4F73
:1057000089E994E09EDF89819A81009709F0EAD2C5
:1057100089819A81892B89F778940F900F90DF9176
:10572000CF91089581E0089590E080E00895EF9290
:10573000FF920F931F93CF93DF931F921F92CDB7CA
:10574000DEB71A8219828091980407EF1FEF882331
:10575000A1F1F894BE016F5F7F4F81EA94E071DFA1
:10576000789489819A81EE24E394F12C892B51F469
:10577000F894BE016F5F7F4F8DE994E062DF78940B
:10578000F12CE12C89819A810EEF1FEF0097A9F08F
:10579000FC014281538164E070E076D68C01892B54
:1057A00061F0F89469817A81C701880F991F880F89
:1057B000991F83569B4F58DF7894C8010F900F9024
:1057C000DF91CF911F910F91FF90EF9008950F936C
:1057D0001F93CF93DF9300D01F92CDB7DEB71C820B
:1057E0001B821A8219828091980407EF1FEF882389
:1057F000C1F0AE014D5F5F4F64E070E0CE010196F5
:10580000B6D68C01892B69F4E981FA818B819C8160
:1058100093838283F89469817A8189E994E002DF35
:105820007894C8010F900F900F900F90DF91CF9157
:105830001F910F910895BBD7049608958F929F9260
:10584000AF92BF92CF92DF92EF92FF920F931F938E
:10585000CF93DF931F921F92CDB7DEB71A821982C2
:10586000BC016F5F7F4F6330710598F0AA24AA9442
:10587000BA2CC5010F900F90DF91CF911F910F911E
:10588000FF90EF90DF90CF90BF90AF909F908F9060
:1058900008954115510551F3480159018A016C01E0
:1058A000CADF8815990511F7E114F104F9F28E0D9C
:1058B0009F1DA816B906D0F2809198048823F1F0B4
:1058C000F894B501645071099701AE014F5F5F4FC5
:1058D000C8010496E1D65C01892B71F489819A8113
:1058E000F80193838283C601880F991F880F991F3F
:1058F000B80183569B4F96DE7894BBCF87EFA82ED6
:10590000BB24BA94B6CFAF92BF92CF92DF92EF9200
:10591000FF920F931F93CF93DF931F921F92CDB7E8
:10592000DEB71A821982892B09F047C0611571050B
:1059300009F443C04115510509F43FC02115310553
:1059400009F43BC001151105C1F180919804882329
:10595000B9F179016A015B01F894BE016F5F7F4F75
:1059600089E994E06EDE789489819A81009759F1F3
:10597000DC0112966D917C91A8010496A6D68C014B
:10598000E981FA81D501ED93FC938281938104969C
:10599000F601918380834FDFD7018D939C93C801DB
:1059A0000F900F90DF91CF911F910F91FF90EF908B
:1059B000DF90CF90BF90AF9008950FEF1FEFEFCF24
:1059C00007EF1FEFECCF0EEF1FEFE9CFCF93DF9381
:1059D000EC01672B71F4F4D68C179D0760F0E7D6C5
:1059E0002496C80FD91FE6D68C0F9D1FDF91CF914B
:1059F0000895E3D6F1CF90E080E0F8CF0F931F93A6
:105A0000CF93DF932091980421112BC08B01EC01DF
:105A10008DE994E001DE81EA94E0FEDD89E994E01D
:105A2000FBDD97D00097C1F4CBD670E060E0CEDF0D
:105A30004BED52E062E070E081D1009769F4809113
:105A4000DB029091DC02CED6B801CE0103D50097DF
:105A500019F421E020939804DF91CF911F910F91C9
:105A6000089584EF9FEFF8CFA8C6AAC6CF93DF931F
:105A7000AAD6EC01892B11F40ADE36DECE01DF91C5
:105A8000CF910895CF93DF939ED6EC01892B09F433
:105A9000FEDDCE01DF91CF9108958091DB029091E0
:105AA000DC020895CF93DF9380919804D0E0C0E0AA
:105AB0008823D1F09CD6EC01892BB1F4E8DD14DE0B
:105AC0008091DB029091DC02E7D1E8D2EC01892BD6
:105AD00059F48DE994E0D5DD81EA94E0D2DD89E9DD
