:1000000005C100000C94FF340C942A350C9455352E
:100010000C9480350C94AB350C94D6350C94013689
:100020000C942C3624C1000022C1000020C1000025
:100030001EC100001CC100001AC1000018C1000050
:1000400016C1000014C1000012C1000010C1000060
:100050000EC100000CC100000AC100000C9457360C
:1000600006C100000C942B3A0C94613A00C10000C8
:10007000FEC00000FCC00000FAC00000F8C0000094
:10008000F6C00000F4C00000F2C00000F0C00000A4
:100090000C94B73A0C94ED3AEAC00000E8C00000B6
:1000A000E6C00000E4C00000E2C00000E0C00000C4
:1000B000DEC00000DCC00000DAC00000D8C00000D4
:1000C000D6C00000D4C000000C94E9300C94433B2F
:1000D0000C94793BCCC000000C94CF3B0C94053CB5
:1000E000C6C0000000000A0B02090C0D0E08070331
:1000F00004010000000000000000000000000000FB
:1001000000000000000000000000000000000000EF
:1001100012111000000000000000000000000000AC
:100120000000000000000000000001021020200874
:100130000810204010204080020102010804020142
:1001400001020408102040808040201008040201B1
:10015000800402018040201008040201080402010A
:100160000102040810204080010204081020408091
:1001700005050505070508080808020202020A0A23
:100180000808040404040101010101010101030341
:10019000030303030303040707070C0C0C0C0C0CEC
:1001A0000C0C0202020206060606060606060B0BE9
:1001B0000B0B0B0B0B0B000020002300260029006B
:1001C0002C002F003200000100000301060109018C
:1001D00000002200250028002B002E0031003400F2
:1001E00002010000050108010B01000021002400AC
:1001F00027002A002D003000330001010000040117
:1002000007010A018A3A163BA23B2E3C11241FBE6D
:10021000CFEFD1E2DEBFCDBF00E00CBF13E0A0E026
:10022000B2E0E2E0FAE700E00BBF02C007900D92F7
:10023000A836B107D9F72CE0A8E6B3E001C01D92BB
:10024000A632B207E1F711E0C6E0D1E000E006C057
:1002500021970109802FFE010E94CE3CC230D107B8
:1002600080E00807A9F70E9405320C94FF3CC8CE35
:10027000CF92DF92EF92FF92CF93882351F16A01E0
:100280007B01CFEFC80F20E030E0A901CB01B60120
:100290000E94F23218168CF0C701B60190580E94E5
:1002A000FB329B01AC016C2F70E090E080E0CF91BD
:1002B000FF90EF90DF90CF90B2C0C701B6010E94CF
:1002C000F6328C2FCF91FF90EF90DF90CF900C946F
:1002D0005E37CF91FF90EF90DF90CF9008950F930E
:1002E0001F938B019C0183E0369527951795079501
:1002F0008A95D1F708591C4F462F477021E030E00E
:10030000F90102C0EE0FFF1F4A95E2F7AF01F801B5
:1003100020812423CB010196211102C090E080E0CE
:100320001F910F9108950F931F938B019C0183E000
:1003300036952795179507958A95D1F7677081E0CF
:1003400090E001C0880F6A95EAF7F801E859FC4F80
:100350002081452B31F48095822380831F910F915A
:100360000895822BFACF2F923F924F925F926F9215
:100370007F928F929F92AF92BF92CF92DF92EF9235
:10038000FF920F931F93CF93DF93D62EC72E782E15
:10039000692E49015A01280161E08D2D0E9498388B
:1003A000CD2DDC2D8E010F5F1F4FA8016D2D7C2DF3
:1003B000872D962DB8DF20E030E0A901C201B701FA
:1003C0000E94D933181664F4C201B7010E94FB32AF
:1003D0002B01C501B4010E94FB32A201CE0123D042
:1003E000C801DF91CF911F910F91FF90EF90DF90A7
:1003F000CF90BF90AF909F908F907F906F905F90C5
:100400004F903F902F900895882341F08150682F9E
:1004100070E090E080E050E040E085CF0895862FC6
:10042000B9010C945E379C01FC01EC51FF4FE49143
:10043000E150E231E0F4F0E08827EE5DFD4F8F4FB0
:100440000C94CE3C34023B023E0255026A02370253
:100450007F028B028F02A602BB02D002E702FC02DF
:100460003702110328033D0384B5806884BD60E032
:10047000822F0C94D43884B58062F8CF80918000AC
:100480008C7F82608093800080918100807E80617B
:10049000682B609381005093870040938600809181
:1004A0008000806880938000E2CF809180008C7F04
:1004B00082608093800080918100807E8061682BC3
:1004C0006093810050938700409386008091800064
:1004D0008062E8CF809180008C7F82608093800072
:1004E00080918100807E8061682B609381005093B1
:1004F000870040938600809180008860D3CF8091F0
:10050000B00080688093B0008091B100887F682B34
:100510006093B100ACCF8091B0008062F3CF809146
:1005200090008C7F82608093900080919100807E0B
:100530008061682B609391005093970040939600E0
:100540008091900080688093900091CF809190007E
:100550008C7F82608093900080919100807E80618A
:10056000682B609391005093970040939600809180
:1005700090008062E8CF809190008C7F82608093B1
:10058000900080919100807E8061682B6093910043
:100590005093970040939600809190008860D3CF4D
:1005A0008091A0008C7F82608093A0008091A10048
:1005B000807E8061682B6093A1005093A7004093D8
:1005C000A6008091A00080688093A00050CF809109
:1005D000A0008C7F82608093A0008091A100807E2B
:1005E0008061682B6093A1005093A7004093A60000
:1005F0008091A0008062E8CF8091A0008C7F826013
:100600008093A0008091A100807E8061682B609320
:10061000A1005093A7004093A6008091A00088609D
:10062000D3CF809120018C7F8260809320018091C4
:100630002101807E8061682B609321015093270106
:1006400040932601809120018068809320010FCF84
:10065000809120018C7F8260809320018091210114
:10066000807E8061682B6093210150932701409325
:100670002601809120018062E8CF809120018C7F4B
:1006800082608093200180912101807E8061682BAF
:10069000609321015093270140932601809120010E
:1006A0008860D3CF611102C00C9498386130E1F3B7
:1006B00062E0FACF662319F061E00C94D43860E070
:1006C000FCCFFC01A781B0858C9191858923A48101
:1006D000B5819C91408151816281738126819223F1
:1006E00059F081110BC04F5F5F4F6F4F7F4F4083B9
:1006F00051836283738308958111F5CF415051096D
:1007000061097109F4CF82E793E0DBCF8DE793E0D5
:10071000D8CF88E893E0D5CF83E993E0D2CFFC012E
:10072000A481B5818C9196818923A781B0859C9104
:1007300040815181628173812185922359F0882300
:1007400059F04F5F5F4F6F4F7F4F408351836283FC
:10075000738308958823A9F34150510961097109F0
:10076000F4CF82E793E0DBCF8DE793E0D8CF88E842
:1007700093E0D5CF83E993E0D2CF0F931F93CF932C
:10078000DF93D82FC62F8A01A09171038BE0A89F19
:10079000D0011124AE58BC4F1D921D921D921C9287
:1007A000139781E01A968C931A978D2F90E0FC0195
:1007B000E65DFE4FE4911696EC931697FC01E05926
:1007C000FE4FE491F0E0EE0FFF1FEA54FE4F8591DB
:1007D000949115969C938E931497862F90E0FC012C
:1007E000E65DFE4FE4911996EC931997FC01E059F0
:1007F000FE4FE491F0E0EE0FFF1FEA54FE4F8591AB
:10080000949118969C938E93179760E08D2F0E9479
:10081000983860E08C2F0E94983880917103813065
:1008200009F43FC0A8F0823009F462C0833009F4B3
:1008300086C08091710391E0980F90937103F80145
:10084000808390E080E0DF91CF911F910F91089518
:1008500080E0D23049F081E0D33031F08EEE8D0F60
:100860008430D8F487E18D1B41E050E063E873E009
:100870000E94853480E0C23049F081E0C33031F01D
:100880008EEE8C0F843058F487E18C1B41E050E0F1
:1008900061EB73E00E948534CCCF8FEFE5CF8FEF13
:1008A000F5CF80E0D23049F081E0D33031F08EEEE8
:1008B0008D0F8430C8F487E18D1B41E050E066E87D
:1008C00073E00E94853480E0C23049F081E0C3309B
:1008D00031F08EEE8C0F843048F487E18C1B41E0C0
:1008E00050E064EB73E0D6CF8FEFE7CF8FEFF7CF19
:1008F00080E0D23049F081E0D33031F08EEE8D0FC0
:100900008430C8F487E18D1B41E050E069E873E072
:100910000E94853480E0C23049F081E0C33031F07C
:100920008EEE8C0F843048F487E18C1B41E050E060
:1009300067EB73E0AFCF8FEFE7CF8FEFF7CF80E0BC
:10094000D23049F081E0D33031F08EEE8D0F84301B
:10095000C8F487E18D1B41E050E06CE873E00E9431
:10096000853480E0C23049F081E0C33031F08EEE52
:100970008C0F843048F487E18C1B41E050E06AEB37
:1009800073E088CF8FEFE7CF8FEFF7CF9BE0899FA2
:10099000F0011124EE58FC4F80819181A281B38136
:1009A000FB0180839183A283B38390E080E008956C
:1009B0009BE0899FF0011124EE58FC4F10821182B8
:1009C0001282138290E080E0089590E080E0089524
:1009D00090E080E008950F931F93009709F489C079
:1009E0006115710509F485C000919C0210919D026A
:1009F00020919E0230919F020E3F1F4F2F4F3F4F7D
:100A000009F068C04FEF5FEFBA0140939C0250932A
:100A10009D0260939E0270939F0240919C025091B0
:100A20009D0260919E0270919F02DC011296ED91F1
:100A3000FC9180819181A281B3818093180490936D
:100A40001904A0931A04B0931B0484819581A68194
:100A5000B7818093140490931504A0931604B09367
:100A6000170480859185A285B385809310049093A7
:100A70001104A0931204B093130484859585A68570
:100A8000B78580930C0490930D04A0930E04B0934B
:100A90000F04109208041092090410920A04109294
:100AA0000B040E94CF1484EF94E190939F038093F2
:100AB0009E039093A1038093A0030E94BE1300970E
:100AC00031F421E030E030931D0420931C041F9189
:100AD0000F91089500919C0210919D0220919E0219
:100AE00030919F02DB010D931D932D933C9313973F
:100AF00094CF8FEF9FEFEBCF8F929F92AF92BF92E9
:100B0000CF92DF92EF92FF921F93CF93DF934B012F
:100B10005C0110911F0482E090E090931D0480938B
:100B20001C0481149104A104B10441F480911F04B8
:100B3000811104C080911E04C1E08111C0E0C12C6C
:100B4000D12C760180911F04811106C080911E0472
:100B5000811102C0CC23D9F083E090E090931D0472
:100B600080931C04CC2381F1CCE9DFEF111102C08A
:100B70000E945818CE01DF91CF911F91FF90EF9006
:100B8000DF90CF90BF90AF909F908F9008956AE0D4
:100B900070E080E090E00E94C63680E1C80E87E2F7
:100BA000D81EE11CF11C8FEF88169806A806B8061F
:100BB00031F0C1E08C149D04AE04BF0408F0C0E025
:100BC00080E00E94F213BECFD0E0C0E0CFCFCF9242
:100BD000DF92EF92FF920F931F93CF93DF938F3F9C
:100BE000910511F008F051C020911C0430911D04B2
:100BF0002330310539F020911C0430911D0421303F
:100C0000310531F424E030E030931D0420931C04BE
:100C10006A017B01EC0182309105A8F011E0AE0180
:100C2000C701B6010E94BD13AB01BC01CE01112367
:100C3000F9F0DF91CF911F910F91FF90EF90DF902E
:100C4000CF900C94811A8C01000F111F02561C4F7B
:100C5000D8018D919C91892B09F30E948B1A0297E0
:100C6000E9F6D801ED91FC91CE011995182FD7CF57
:100C70000E94A31A90E080E0DF91CF911F910F9125
:100C8000FF90EF90DF90CF9008958FEF9FEFF4CF1C
:100C900080E00C94F213CF93DF9386E090E0909382
:100CA0001D0480931C040E944B14EC01EEE9F3E058
:100CB00084E0DF011D928A95E9F70E94F0171092F7
:100CC0001D0410921C04CE01DF91CF9108958091F4
:100CD0001E04089580910704089560939C02709308
:100CE0009D0280939E0290939F0290E080E0089581
:100CF0002F923F924F925F926F927F928F929F922C
:100D0000AF92BF92CF92DF92EF92FF920F931F9319
:100D1000CF93DF93CDB7DEB7CB54D1090FB6F8949C
:100D2000DEBF0FBECDBF26967FAF6EAF269728964B
:100D30005FAF4EAF28973E8B2D8B2C96FFAEEEAE5D
:100D40002C97FB01E150F04CEE0FFF1FEE0FFF1F41
:100D5000E80FF91F80809180A280B3808F8A988EDF
:100D6000A98EBA8EB501A401442777FD4395552776
:100D70006627772729964FAF2997F901E150F04C64
:100D8000EE0FFF1FEE0FFF1F2896AEACBFAC2897EB
:100D9000EA0DFB1DC080D180E280F380CB8EDC8E1B
:100DA000ED8EFE8EB701A601442777FD43955527AA
:100DB000662777272A964FAF2A97188B0F87F80157
:100DC00030E020E02C96EEACFFAC2C972E153F05C2
:100DD0000CF43FC022969FAF8EAF22971A8B098BDF
:100DE000312C212C812C912C540183948D829E8254
:100DF000AF82B88626968EAC9FAC2697281439040D
:100E00007CF129969FAC29972A96AFAC2A9730E0BF
:100E100020E041E050E060E070E09A10F5C1C55B71
:100E2000DF4F0FB6F894DEBF0FBECDBFDF91CF917D
:100E30001F910F91FF90EF90DF90CF90BF90AF90F8
:100E40009F908F907F906F905F904F903F902F90EA
:100E5000089511921192119211922F5F3F4FB2CFCC
:100E60002296EEADFFAD229781919191A191B19122
:100E70002296FFAFEEAF22978F88988CA98CBA8C00
:100E8000B7FE23C04D815E816F8178854150510945
:100E9000610971095A016B01A81AB90ACA0ADB0A69
:100EA000D601C50121E0CD80DE80EF80F8848C156D
:100EB0009D05AE05BF0508F020E0822E912CB12CD7
:100EC000A12C8D829E82AF82B8865D01CC24DD2468
:100ED000A8A2B9A2CAA2DBA29C01AD014427552752
:100EE0002CA33DA34EA35FA32C96EEADFFAD2C9794
:100EF000E219F3098D889E888E169F060CF4F40182
:100F00002896AEACBFAC28972496BFAEAEAE249761
:100F1000C988DA88DC8ACB8A1E861D86812C912CB2
:100F20005401839489869A86AB86BC86812C912C49
:100F30005401CD84DE84CE16DF0604F1F7FF02C033
:100F4000F0E0E0E0E20DF31D2C96EEACFFAC2C9748
:100F5000EE15FF0554F4EE0FFF1FEE0FFF1FE00F1D
:100F6000F11F80829182A282B3822FEF221A320A6D
:100F7000E989FA893496FA8BE98B3CCF2496AEAD99
:100F8000BFAD2497CD90DD90ED90FD902496BFAF3E
:100F9000AEAF24972B8D3C8D4D8D5E8D57FF22C0BB
:100FA00089859A85AB85BC850197A109B109AC01FA
:100FB000BD014C195D096E097F096A017B0181E061
:100FC00029853A854B855C85C216D306E406F5066D
:100FD00008F080E0482F50E070E060E049875A87D1
:100FE0006B877C87B7018827992768A779A78AA785
:100FF0009BA7EE24FF2428A139A14AA15BA1C70128
:10100000B6010E94893C2B013C012CA13DA14EA1BF
:101010005FA168A579A58AA59BA50E94893C6CA7BC
:101020007DA78EA79FA7AB89BC894D915D916D91DE
:101030007D91BC8BAB8BDB01CA01880D991DAA1D6C
:10104000BB1D89839A83AB83BC8391E09F8F2981E9
:101050003A814B815C81281539054A055B0508F00A
:101060001F8E2CA13DA14EA15FA1C701B6010E9418
:10107000893C6B017C0189809A80AB80BC808C0CA0
:101080009D1CAE1CBF1C89829A82AB82BC8252011D
:101090009924882488AA99AAAAAABBAA29813A8154
:1010A0004B815C81280D391D4A1D5B1D2CAB3DAB6E
:1010B0004EAB5FAB8CA49DA4AEA4BFA454019924F5
:1010C000882488AE99AEAAAEBBAE280D391D4A1D44
:1010D0005B1D2CAF3DAF4EAF5FAFAB89BC891497A2
:1010E0002D933D934D935C93139728A139A14AA169
:1010F0005BA168A579A58AA59BA50E94893C9F8CC8
:10110000690D711D811D911D230166247724460EF2
:10111000571E681E791E2CA53DA54EA55FA54A0148
:10112000AA24BB24840C951CA61CB71C81E090E06B
:10113000A0E0B0E049815A816B817C814C155D054E
:101140006E057F0518F080E090E0DC01880D991DA8
:10115000AA1DBB1D41E050E060E070E088A899A89E
:10116000AAA8BBA8CCA8DDA8EEA8FFA8C814D904DB
:10117000EA04FB0418F040E050E0BA01840F951F28
:10118000A61FB71F812C912C54018394C8ACD9ACF5
:10119000EAACFBAC2CAD3DAD4EAD5FAD2C153D05C5
:1011A0004E055F0518F0812C912C5401880E991E74
:1011B000AA1EBB1E4D855E854F5F5F4F5E874D87C4
:1011C000B8CEEF85F889C190D190E190F190F88B7D
:1011D000EF87DB01CA010197A109B1098C199D09AB
:1011E000AE09BF09349780839183A283B383E1E082
:1011F00084179507A607B70708F0E0E04E2F50E0E8
:1012000070E060E02F5F3F4F2C968EAC9FAC2C9728
:1012100028153905B4F203CE2F923F924F925F9278
:101220006F927F928F929F92AF92BF92CF92DF92F6
:10123000EF92FF920F931F93CF93DF9379011B01DE
:10124000DA01D0E0C0E040E050E0BA01CE15DF05A1
:101250009CF0DF91CF911F910F91FF90EF90DF9065
:10126000CF90BF90AF909F908F907F906F905F9046
:101270004F903F902F900895FC0181909190A19004
:10128000B190CF01F10101911191219131911F0193
:1012900024013501401A510A620A730A930182013E
:1012A000041B150B260B370B0D931D932D933D93AC
:1012B00066246394712CC12CD12C452B462B472BD3
:1012C00039F0081519052A053B0538F4612C05C0CD
:1012D00080169106A206B306C8F7A301B6012196AF
:1012E000B5CF2F923F924F925F926F927F928F92E3
:1012F0009F92AF92BF92CF92DF92EF92FF920F93A5
:101300001F93CF93DF9300D01F92CDB7DEB78B0131
:101310005C834B83FB01E150F04CEE0FFF1FEE0F9F
:10132000FF1FE80FF91F408151816281738177FDB2
:1013300027C04C01B12CA12CC12CD12C7601A016B8
:10134000B10664F5F40161917191819191914F0120
:101350000E9427334B815C810E94DF339B01AC01EB
:10136000C701B6010E948E326B017C012B813C814A
:10137000205E3F4F3C832B833FEFA31AB30ADFCF9E
:101380009A838983312C212C81E090E0A0E0B0E0A9
:10139000C12CD12C760120163106CCF0C701B60144
:1013A0000F900F900F900F90DF91CF911F910F91A1
:1013B000FF90EF90DF90CF90BF90AF909F908F9075
:1013C0007F906F905F904F903F902F900895E981AC
:1013D000FA814190519061907190FA83E983409431
:1013E00050946094709453014201880E991EAA1E75
:1013F000BB1EC501B4010E9427334B815C810E9452
:10140000DF339B01AC01C701B6010E948D326B0135
:101410007C0181E084149504A604B70408F080E000
:1014200090E0B0E0A0E02B813C81205E3F4F3C8308
:101430002B833FEF231A330AAECF2F923F924F9266
:101440005F926F927F928F929F92AF92BF92CF9254
:10145000DF92EF92FF920F931F93CF93DF93CDB75D
:10146000DEB76C970FB6F894DEBF0FBECDBFC0904D
:101470004802D0904902E0904A02F0904B02A70146
:1014800096016091490B70914A0B80914B0B9091A2
:101490004C0B0E94F232882341F0C092490BD0924B
:1014A0004A0BE0924B0BF0924C0B8091480B811150
:1014B0001092480B66E07CE080914D0B67DAC0909B
:1014C0004C02D0904D02E0904E02F0904F02A701E6
:1014D000960160913D0B70913E0B80913F0B909176
:1014E000400B0E94F232882341F0C0923D0BD09213
:1014F0003E0BE0923F0BF092400B80913C0B811130
:1015000010923C0B62E07CE08091410B3FDA8091CD
:10151000060C9091070CA091080CB091090C8093D7
:10152000FA0B9093FB0BA093FC0BB093FD0B409137
:10153000020C5091030C6091040C7091050C4093C7
:10154000FE0B5093FF0B6093000C7093010C4091C5
:1015500098025091990260919A0270919B02498B76
:101560005A8B6B8B7C8B8D8B9E8BAF8BB88F42E0B5
:10157000E42EF12C8E010F5F1F4F21E030E0AE0111
:101580004B5E5F4F61E070E0CE014196B1DB88E0D9
:10159000F801AAEBBBE001900D928A95E1F722E0F9
:1015A00030E0AE01475F5F4F6EE87BE0C80134DE9C
:1015B00088E0FE013996AAEABBE001900D928A9577
:1015C000E1F7C0905802D0905902E0905A02F09092
:1015D0005B02C092CA0BD092CB0BE092CC0BF09284
:1015E000CD0B50E040E062E070E0CE01099679DE7C
:1015F00020E030E048E45DE20E9413349B01AC013E
:10160000C701B6010E948D326093D20B7093D30B49
:101610008093D40B9093D50B8091FE0B9091FF0B90
:10162000A091000CB091010C8D8B9E8BAF8BB88F6D
:1016300052E0E52EF12C21E030E0AE014B5E5F4F31
:1016400061E070E0CE01419653DB88E0F801A2EC46
:10165000BBE001900D928A95E1F722E030E0AE0107
:10166000475F5F4F66E97BE0C801D6DD88E0FE0199
:101670003996A2EBBBE001900D928A95E1F7C090FC
:101680005C02D0905D02E0905E02F0905F02C0923A
:10169000CE0BD092CF0BE092D00BF092D10B50E05A
:1016A00040E062E070E0CE0109961BDE20E030E011
:1016B00048E45DE20E9413349B01AC01C701B6010E
:1016C0000E948D326B017C01C092D60BD092D70B59
:1016D000E092D80BF092D90B8090D20B9090D30B64
:1016E000A090D40BB090D50B209100023091010254
:1016F0004091020250910302C501B4010E941334CB
:101700002091820B3091830B4091840B5091850B7B
:101710000E948D32209128023091290240912A02A4
:1017200050912B020E9413342B013C012091300276
:10173000309131024091320250913302C501B4011F
:101740000E94133420917E0B30917F0B4091800BCF
:101750005091810B0E948E32A30192010E948E3221
:101760004B015C018092DA0B9092DB0BA092DC0BB8
:10177000B092DD0B8091380290913902A0913A022B
:10178000B0913B02898F9A8FAB8FBC8F9C01AD01CA
:10179000C501B4010E94D93318166CF4898D9A8D55
:1017A000AB8DBC8D8093DA0B9093DB0BA093DC0B9D
:1017B000B093DD0B14C08091200290912102A09182
:1017C0002202B0912302898F9A8FAB8FBC8F9C012C
:1017D000AD01C501B4010E94F23287FDDFCF209137
:1017E0000402309105024091060250910702C701A0
:1017F000B6010E94133420918A0B30918B0B4091DB
:101800008C0B50918D0B0E948D3220912C023091C7
:101810002D0240912E0250912F020E9413344B0151
:101820005C01209134023091350240913602509192
:101830003702C701B6010E9413342091860B309104
:10184000870B4091880B5091890B0E948E32A50125
:1018500094010E948E326B017C01C092DE0BD0920B
:10186000DF0BE092E00BF092E10B80913C02909153
:101870003D02A0913E02B0913F02898F9A8FAB8FBB
:10188000BC8F9C01AD01C701B6010E94D933181667
:101890006CF4898D9A8DAB8DBC8D8093DE0B90930B
:1018A000DF0BA093E00BB093E10B14C080912402F6
:1018B00090912502A0912602B0912702898F9A8FDC
:1018C000AB8FBC8F9C01AD01C701B6010E94F23203
:1018D00087FDDFCF8091DA0B9091DB0BA091DC0BC1
:1018E000B091DD0B8093E20B9093E30BA093E40B9C
:1018F000B093E50B6091DE0B7091DF0B8091E00BF4
:101900009091E10B6093E60B7093E70B8093E80BEB
:101910009093E90B20917002309171024091720214
:10192000509173020E9413341B018C01CB01D8012A
:101930008093F60B9093F70BA093F80BB093F90BF1
:10194000C0907402D0907502E0907602F090770219
:10195000A7019601B101C8010E94D933181694F06D
:10196000C0907802D0907902E0907A02F0907B02E9
:10197000A7019601B101C8010E94F23287FD02C0A1
:1019800061017801E894F7F8C092EA0BD092EB0B72
:10199000E092EC0BF092ED0B69E070E080E090E0FB
:1019A0000E946F018C019093650B8093640BC09033
:1019B000EA0BD090EB0BE090EC0BF090ED0B20E0FD
:1019C00030E04FE753E4C701B6010E94F232181627
:1019D0000CF442C120E030E0A901C701B6010E9429
:1019E000D93387FF03C0C12CD12C7601B701A601E2
:1019F000C8010E94380111E0209154023091550233
:101A000040915602509157026091F60B7091F70B7E
:101A10008091F80B9091F90B0E94F232811101C074
:101A200010E010930A0C612F88E00E945A03C090C6
:101A3000F60BD090F70BE090F80BF090F90B80913B
:101A40007C0290917D02A0917E02B0917F02898FED
:101A50009A8FAB8FBC8F9C01AD01C701B6010E946C
:101A6000D93318160CF0FFC0898D9A8DAB8DBC8DC3
:101A70008093EE0B9093EF0BA093F00BB093F10BD0
:101A80006AE070E080E090E00E946F018C0190932A
:101A90006D0B80936C0BC090EE0BD090EF0BE09031
:101AA000F00BF090F10B20E030E04FE753E4C7017A
:101AB000B6010E94F23218160CF4F2C020E030E0B9
:101AC000A901C701B6010E94D93387FF03C0C12C09
:101AD000D12C7601B701A601C8010E9438012091DE
:101AE000DA0B3091DB0B4091DC0B5091DD0B6091F8
:101AF00084027091850280918602909187020E94F3
:101B000013349B01AC012093F60B3093F70B4093F9
:101B1000F80B5093F90B11E0609150027091510253
:101B200080915202909153020E94F232811101C0C1
:101B300010E010930B0C612F8DE00E945A0320904F
:101B4000F60B3090F70B0091F80B1091F90BC09049
:101B50008802D0908902E0908A02F0908B02A7015F
:101B60009601B101C8010E94D933181694F0C090B3
:101B70008C02D0908D02E0908E02F0908F02A7012F
:101B80009601B101C8010E94F23287FD02C06101D5
:101B90007801E894F7F8C092F20BD092F30BE09240
:101BA000F40BF092F50B6BE070E080E090E00E94A7
:101BB0006F018C019093550B8093540BC090F20BE6
:101BC000D090F30BE090F40BF090F50B20E030E0B8
:101BD0004FE753E4C701B6010E94F23218160CF425
:101BE00066C020E030E0A901C701B6010E94D933E8
:101BF00087FF03C0C12CD12C7601B701A601C80113
:101C00000E943801C090F60BD090F70BE090F80BD3
:101C1000F090F90B8091900290919102A091920224
:101C2000B0919302898F9A8FAB8FBC8F9C01AD01CD
:101C3000C701B6010E94D93318160CF03FC0898D38
:101C40009A8DAB8DBC8D8093F60B9093F70BA09380
:101C5000F80BB093F90B46C0C12CD12C3FE7E32E13
:101C600033E4F32EC3CE8091800290918102A09143
:101C70008202B0918302898F9A8FAB8FBC8F9C01B7
:101C8000AD01C701B6010E94F23287FDEDCEC092D0
:101C9000EE0BD092EF0BE092F00BF092F10BF0CE46
:101CA000C12CD12C2FE7E22E23E4F22E13CFC12C2E
:101CB000D12C9FE7E92E93E4F92E9FCF80919402D7
:101CC00090919502A0919602B0919702898F9A8F78
:101CD000AB8FBC8F9C01AD01C701B6010E94F232EF
:101CE00087FDADCF6CE070E080E090E00E946F0176
:101CF0008C0190935D0B80935C0BC090F60BD090A1
:101D0000F70BE090F80BF090F90B20E030E04FE794
:101D100053E4C701B6010E94F23218160CF435C123
:101D200020E030E0A901C701B6010E94D93387FF46
:101D300003C0C12CD12C7601B701A601C8010E94B5
:101D4000380188E0EAEBFBE0AEE8BBE001900D92E1
:101D50008A95E1F788E0E2ECFBE0A6E9BBE00190C0
:101D60000D928A95E1F72091D20B3091D30B4091DF
:101D7000D40B5091D50B60910C0270910D028091A3
:101D80000E0290910F020E94133420916002309154
:101D9000610240916202509163020E9413342091CB
:101DA0007E0B30917F0B4091800B5091810B0E94F4
:101DB0008E3260937E0B70937F0B8093800B909399
:101DC000810B20916402309165024091660250912E
:101DD0006702C301B2010E9413342091820B30913B
:101DE000830B4091840B5091850B0E948E3260933F
:101DF000820B7093830B8093840B9093850B2091BF
:101E0000D60B3091D70B4091D80B5091D90B6091E4
:101E100008027091090280910A0290910B020E94BF
:101E20001334209168023091690240916A02509106
:101E30006B020E9413342091860B3091870B4091E6
:101E4000880B5091890B0E948E326093860B7093A1
:101E5000870B8093880B9093890B20916C023091B3
:101E60006D0240916E0250916F02C501B4010E9453
:101E7000133420918A0B30918B0B40918C0B509135
:101E80008D0B0E948E3260938A0B70938B0B809324
:101E90008C0B90938D0BC090DA03D090DB03E09015
:101EA000DC03F090DD039FEFC91AD90AE90AF90AA9
:101EB000C092DA03D092DB03E092DC03F092DD0300
:101EC000C114D104E104F10499F48091DE039091EE
:101ED000DF03A091E003B091E1030196A11DB11DC4
:101EE0008093DE039093DF03A093E003B093E103BC
:101EF0008090E2039090E303A090E403B090E503A8
:101F00006091DE037091DF038091E0039091E10323
:101F10000E942733A50194010E94133420E030E091
:101F200040E85FE40E9413342B013C01C701B60175
:101F30000E942733A50194010E9413349B01AC0138
:101F4000C301B2010E948E326093D6037093D7030F
:101F50008093D8039093D9036C960FB6F894DEBFA4
:101F60000FBECDBFDF91CF911F910F91FF90EF90EA
:101F7000DF90CF90BF90AF909F908F907F906F90A9
:101F80005F904F903F902F900895C12CD12C8FE7F8
:101F9000E82E83E4F82ED0CE4F925F926F927F921C
:101FA000AF92BF92DF92EF92FF920F931F93CF9366
:101FB000DF9384E090E0A9D28091140C9091150CED
:101FC000A091160CB091170C20E0A22E22E0B22EA8
:101FD000F50180AF91AFA2AFB3AF84AF95AFA6AF1D
:101FE000B7AFE0ECF3E08BE2DF011D928A95E9F7F1
:101FF00080E090E0A0E8BFEB86A397A3A0A7B1A7DD
:102000008AE097EDA3E2BCE382A393A3A4A3B5A3C4
:102010008EE792E4AEE4B1EA84839583A683B78326
:102020008EE49DE4ACE3B1E180879187A287B3871A
:102030008AEB95E2AEE1B9EF84879587A687B787EB
:1020400085EF94E0A9E4B8E8808B918BA28BB38BE9
:10205000A4EBB3E0B383A283E2EAF3E01196FC932E
:10206000EE9385ED92E091838083938382839583C1
:1020700084839783868391878087938782879587D8
:10208000848797878687918B808B84ED93E0159664
:102090009C938E93149784EC93E013969C938E9369
:1020A000129786ED93E017969C938E931697EAEA23
:1020B000FBE082E6DF011D928A95E9F7C6E3DBE0EB
:1020C00084E7FE0111928A95E9F7DD24D394D0923A
:1020D000A30B8091480290914902A0914A02B091CD
:1020E0004B028B8B9C8BAD8BBE8B412C512C3201C8
:1020F00043944D865E866F86788A4DE45BE063E0AC
:1021000082E00E94BD03D98A1A8A1B861882D09267
:10211000A20B80914C0290914D02A0914E02B09181
:102120004F028F839887A987BA8749825A826B8228
:102130007C8241E45BE063E182E10E94BD03DD82D9
:102140001E8218A6D092A80B49A65AA66BA67CA6FA
:10215000E12CF12C8701A801970169E070E080E093
:1021600090E00E94B3019FA78EA7DDA618AED09283
:10217000A60B49AE5AAE6BAE7CAE61E088E00E9421
:102180005203DDAE18AAD092A90B49AA5AAA6BAA8B
:102190007CAAA80197016AE070E080E090E00E94CC
:1021A000B3019FAB8EABDDAA1092760BD092A70B3A
:1021B0004092770B5092780B6092790B70927A0B69
:1021C00061E08DE00E945203D0927B0B188ED0927A
:1021D000A40B498E5A8E6B8E7C8EA80197016BE002
:1021E00070E080E090E00E94B3019F8F8E8FDD8EC3
:1021F00018A2D092A50B49A25AA26BA27CA2A80158
:1022000097016CE070E080E090E00E94B3019FA332
:102210008EA3DDA288E0E0E4F2E0AEE8BBE001904E
:102220000D928A95E1F788E0E0E4F2E0A6E9BBE0F0
:1022300001900D928A95E1F7F501808D918DA28D27
:10224000B38D80937E0B90937F0BA093800BB09304
:10225000810B80899189A289B3898093820B9093A5
:10226000830BA093840BB093850B848D958DA68DE5
:10227000B78D8093860B9093870BA093880BB093B8
:10228000890B84899589A689B78980938A0B909355
:102290008B0BA0938C0BB0938D0B8F890E94D8046D
:1022A0008B85DF91CF911F910F91FF90EF90DF9081
:1022B000BF90AF907F906F905F904F900C94D80438
:1022C0008091420B811114C081E08093420B809178
:1022D000430B9091440BA091450BB091460B019795
:1022E000A105B10529F48091470B81110E94E504F5
:1022F0008091360B811114C081E08093360B809160
:10230000370B9091380BA091390BB0913A0B019794
:10231000A105B10529F480913B0B81110E94E504D0
:1023200080915E0B81112EC081E080935E0B8091C5
:102330005F0B9091600BA091610BB091620B0197C4
:10234000A105B105F9F48091630B8823D9F069E008
:1023500070E080E090E00E946F019093650B8093A5
:10236000640B40E050E0BA010E94380169E070E07F
:1023700080E090E00E946F019093650B8093640B66
:102380000E94040280916E0B811103C081E0809352
:102390006E0B8091660B81112EC081E08093660BDD
:1023A0008091670B9091680BA091690BB0916A0BBB
:1023B0000197A105B105F9F480916B0B8823D9F041
:1023C0006AE070E080E090E00E946F0190936D0BF6
:1023D00080936C0B40E050E0BA010E9438016AE043
:1023E00070E080E090E00E946F0190936D0B80930D
:1023F0006C0B0E9404028091760B811103C081E076
:102400008093760B80914E0B81112EC081E08093DA
:102410004E0B80914F0B9091500BA091510BB091AE
:10242000520B0197A105B105F9F48091530B882354
:10243000D9F06BE070E080E090E00E946F01909333
:10244000550B8093540B40E050E0BA010E943801D4
:102450006BE070E080E090E00E946F019093550B7C
:102460008093540B0E9404028091560B81112EC060
:1024700081E08093560B8091570B9091580BA0915F
:10248000590BB0915A0B0197A105B105F9F4809150
:102490005B0B8823D9F06CE070E080E090E00E9454
:1024A0006F0190935D0B80935C0B40E050E0BA01AC
:1024B0000E9438016CE070E080E090E00E946F01C3
:1024C00090935D0B80935C0B0C940402089560E084
:1024D00070E080E89FE7089560E070E080E89FE7A3
:1024E000089560E070E080E89FEF089560E070E09C
:1024F00080E89FEF089560E070E080EC9FEF089522
:1025000060E070E080EC9FEF0895F5DF6093180CB9
:102510007093190C80931A0C90931B0CF1DF60934D
:102520000C0C70930D0C80930E0C90930F0CCFDF5E
:102530006093140C7093150C8093160C9093170CE9
:10254000CBDF6093100C7093110C8093120C90935E
:10255000130CC7DF60931C0C70931D0C80931E0C32
:1025600090931F0CC3DF6093200C7093210C809319
:10257000220C9093230C08954F925F926F927F925A
:102580008F929F92AF92BF92CF92DF92EF92FF9283
:102590000F931F93F8944090F7035090F8036090C6
:1025A000F9037090FA03C090EB03D090EC03E09035
:1025B000ED03F090EE03452B09F0A4C09B01AC01A4
:1025C000241935094609570929013A010091F303F5
:1025D0001091F4032091F5033091F603480159015D
:1025E000840C951CA61CB71C80169106A206B30687
:1025F000A0F40091EF031091F0032091F1033091CA
:10260000F2030F5F1F4F2F4F3F4F0093EF031093C5
:10261000F0032093F1033093F2038092F30390923E
:10262000F403A092F503B092F6030091EF0310912A
:10263000F0032091F1033091F2038092FB0390921A
:10264000FC03A092FD03B092FE030093FF031093DE
:10265000000420930104309302046093F703709305
:10266000F8038093F9039093FA03A0E1B7E2A30182
:1026700092010E94D63C6C0D7D1D8E1D9F1D6093A6
:10268000EB037093EC038093ED039093EE030091C2
:102690009C0210919D0220919E0230919F020F3F5B
:1026A0001F4F2F4F3F4FF1F000919C0210919D0260
:1026B00020919E0230919F020E3F1F4F2F4F3F4FA0
:1026C00089F0C0909C02D0909D02E0909E02F09014
:1026D0009F0221E08C149D04AE04BF0408F420E0A6
:1026E0002093070478941F910F91FF90EF90DF9053
:1026F000CF90BF90AF909F908F907F906F905F90A2
:102700004F9008954B015C0184189508A608B708FE
:10271000A3019201261B370B480B590B6415750555
:1027200086059705D0F082169306A406B50640F4F8
:1027300020E030E0A90181149104A104B10491F4D6
:10274000A0E1B7E20E94D63CA7019601261B370BF9
:10275000480B590BCA01B901C5CF82169306A406CE
:10276000B50670F7A0E1B7E2A50194010E94D63C3E
:102770006C0D7D1D8E1D9F1DB5CFFECECF93DF93BB
:1027800000D01F92CDB7DEB71C821B821A8219823D
:10279000109203041092040410920504109206048F
:1027A000BE016F5F7F4FCE0103960E94B9306981F1
:1027B0007A818B819C810E94A729009761F4BE01D8
:1027C0006F5F7F4FCE0103960E94C53069817A8189
:1027D0008B819C812ED50F900F900F900F90DF91E1
:1027E000CF910895FF920F931F93CF93DF93082FFC
:1027F00060E070E0CB010E94C636FF24F3940E9493
:102800009028EC01892B89F010E0CE3F8FEFD8079C
:1028100069F0002361F160E070E0CB010E94C636F0
:1028200081E090E0892B59F322C011E025D5EC011D
:10283000892B21F0CE3F8FEFD80759F711111EC019
:1028400011E0229609F410E00E944028EC01892B47
:1028500021F0CE3F8FEFD807E1F6111111C011E042
:10286000CE3F8FEFD80709F410E001110BC0CE0165
:10287000DF91CF911F910F91FF90089511E0E4CF68
:1028800011E0F3CF60E070E0CB010E94C6361F2557
:10289000812F90E0C7CFCF93DF93809107048823E7
:1028A00021F060E070E0CB014CD635D6D0E0C0E03E
:1028B000892B71F06AE070E080E090E00E94C636FB
:1028C00081E090DF28D62196C03D27E0D20781F72E
:1028D00027D60E94FB2910921F0410921E0410920A
:1028E00018041092190410921A0410921B041092EA
:1028F00014041092150410921604109217041092EA
:1029000010041092110410921204109213041092E9
:102910000C0410920D0410920E0410920F041092E9
:1029200008041092090410920A0410920B044EEF4E
:102930005FEF6FEF7FEF40939C0250939D02609397
:102940009E0270939F0210920704EBEFF3E028E0E1
:10295000DF011D922A95E9F71092F7031092F80310
:102960001092F9031092FA031092F3031092F403F9
:102970001092F5031092F6031092EF031092F003F9
:102980001092F1031092F2031092EB031092EC03F9
:102990001092ED031092EE03DF91CF910895109203
:1029A0002B0410922C0410922D0410922E041092DD
:1029B0002A048091330490913404909329048093E5
:1029C00028041092270410922604109222041092D8
:1029D00023041092240410922504109230041092C3
:1029E0002F0490E080E00895CF92DF92EF92FF9263
:1029F0000F931F93CF938C01892B09F055C0209121
:102A0000330430913404809128049091290440913A
:102A10003304509134045093290440932804281718
:102A2000390781F010922704109226041092220494
:102A30001092230410922404109225041092300462
:102A400010922F048091330490913404019761F522
:102A500080912F0490913004892B21F48091A00261
:102A6000811112C080912F04909130040197E1F4FC
:102A70008091220490912304A0912404B091250414
:102A80000197A105B10581F410922204109223044C
:102A900010922404109225041092A00282E090E08B
:102AA0009093300480932F048091330490913404E8
:102AB000019709F01CC18091490490914A04801744
:102AC000910709F014C18091450490914604A091AA
:102AD0004704B0914804009709F409C120914404C7
:102AE00021110DC040914504509146046091470466
:102AF00070914804452B462B472B09F4F8C02091D0
:102B00002F04309130042230310509F0F0C02091BB
:102B100026042111ECC0FC01C080D180E280F3804A
:102B200080912A04882309F4D3C0809136049091BF
:102B30003704892B09F4FDC0209136043091370405
:102B400081E02230310509F080E020913604309197
:102B50003704C1E02130310549F02091360430912D
:102B60003704C1E02230310509F0C0E0882309F4C0
:102B700056C020914004309141044091420450914C
:102B80004304C701B6010E94D93387FD14C02091C8
:102B900040043091410440914204509143046091BB
:102BA0002B0470912C0480912D0490912E040E948E
:102BB000F23287FD22C020914004309141044091BF
:102BC000420450914304C701B6010E94D93318163C
:102BD00034F52091400430914104409142045091D9
:102BE000430460912B0470912C0480912D049091EA
:102BF0002E040E94F232811112C08091380490910B
:102C00003904A0913A04B0913B04892B8A2B8B2B79
:102C100019F481E08093270481E080932604CC237B
:102C200009F456C02091400430914104409142047F
:102C300050914304C701B6010E94F23287FF14C0CD
:102C4000209140043091410440914204509143044A
:102C500060912B0470912C0480912D0490912E048E
:102C60000E94D93387FF22C0209140043091410453
:102C70004091420450914304C701B6010E94F232D0
:102C8000811126C0209140043091410440914204BA
:102C90005091430460912B0470912C0480912D0479
:102CA00090912E040E94D933181694F48091380420
:102CB00090913904A0913A04B0913B04892B8A2B5E
:102CC0008B2B19F481E08093270481E08093260404
:102CD00081E090912604911180E080932A04C092B3
:102CE0002B04D0922C04E0922D04F0922E04012BA0
:102CF00009F067C180912F0490913004892BD9F499
:102D000010923504109226048091A002882379F055
:102D100082E090E09093300480932F041092A00200
:102D2000209133043091340481E0232BE9F080E0DA
:102D30001BC081E00ACF1092A00280913504882345
:102D400049F0109227041092300410922F04109230
:102D50003504EDCF8091330490913404892BE1F058
:102D6000809126041092260420912F043091300483
:102D70002230310509F45EC088F42115310509F4CB
:102D800048C02130310509F4F3C010922704109295
:102D900026041092350438C081E0E6CF2330310597
:102DA00009F4B1C02430310581F7409122045091DB
:102DB0002304609124047091250441155105610597
:102DC000710561F041505109610971094093220474
:102DD00050932304609324047093250440912204AB
:102DE000509123046091240470912504452B462BB7
:102DF000472BD9F420913104309132042130310530
:102E000009F046C0109227041092300410922F044B
:102E10000CC08091A002882341F082E090E0909362
:102E2000300480932F041092A0021092200480910D
:102E30002704CEC08823C9F38091380490913904C7
:102E4000A0913A04B0913B04181619061A061B0605
:102E50000CF07DC08091330490913404019709F007
:102E600076C08091380490913904A0913A04B091D1
:102E70003B048093220490932304A0932404B093F2
:102E8000250483E090E09093300480932F04CDCF0D
:102E900040913C0450913D0460913E0470913F0488
:102EA000452B462B472BA9F01092270480913C0418
:102EB00090913D04A0913E04B0913F048093220480
:102EC00090932304A0932404B093250481E090E020
:102ED000DACF882399F08091A1029091A202A0916B
:102EE000A302B091A4028093220490932304A093A0
:102EF0002404B093250484E090E0C5CF1092270409
:102F000082E090E0C0CF8091220490912304A091B0
:102F10002404B09125040097A105B10559F001974B
:102F2000A109B1098093220490932304A09324045F
:102F3000B09325048091220490912304A09124044D
:102F4000B0912504892B8A2B8B2B09F06ECF8091B1
:102F5000A1029091A202A091A302B091A402892B98
:102F60008A2B8B2B09F44ECF81E080932704B3CFBB
:102F7000409122045091230460912404709125040F
:102F8000411551056105710561F041505109610913
:102F90007109409322045093230460932404709396
:102FA00025044091220450912304609124047091DF
:102FB0002504452B462B472B09F037CF8111C7CF6E
:102FC0009FCF80912004882309F431CF8091210480
:102FD000CF911F910F91FF90EF90DF90CF900895C8
:102FE00010922B0410922C0410922D0410922E0497
:102FF00010922A041092300410922F041092290487
:103000001092280410924A04109249041092270446
:103010001092260410922204109223041092240489
:10302000109225041092210410922004109245045D
:1030300010924604109247041092480410924404DF
:1030400010924004109241041092420410924304E2
:1030500088EE93E0A0E0B0E08093A1029093A202FA
:10306000A093A302B093A40210923C0410923D04DA
:1030700010923E0410923F041092380410923904CA
:1030800010923A0410923B041092370410923604C6
:1030900081E08093A00210923504109234041092C3
:1030A0003304109232041092310490E080E00895CD
:1030B0008091330490913404892B19F58091A002FA
:1030C000882351F080913504811106C081E08093FE
:1030D0002104809320040895209135043091A002AA
:1030E00081E090E0332311F090E080E030E0822333
:1030F0009323892B21F01092210481E0EACF1092D2
:103100002004089582E090E0FA01918380838FEF9C
:103110009FEF0895CF93DF93EA01009711F00E948B
:103120001B2B1982188290E080E0DF91CF910895E7
:10313000DB01009719F48FEF8C9308952EEF2C93F9
:10314000FC013F96EF30F10508F034C08827E455C4
:10315000F74E8F4F0C94CE3CD818D618D418D218EE
:10316000D018CC18CE18CA18C818C618C318BF185B
:10317000BB18C118DA1880E311968C93089589E280
:10318000FBCF82E2F9CF11961C92089583E2F4CF2F
:1031900081E2F2CF81E1F0CF87E2EECF8AE2ECCF9D
:1031A00080E1EACF84E2E8CF88E2E6CF86E2E4CFAE
:1031B00081E3E2CF80E2E0CF809157049091580400
:1031C000089590935804809357040895809156046D
:1031D000089590915604892B809356040895982F52
:1031E0009095809156048923809356040895809188
:1031F00055040895809153049091540408956115E5
:10320000710559F0FB0130E020E070E060E0241728
:10321000350719F06115710511F0CB010895A081F2
:10322000B181A817B90709F4BF012F5F3F4F369648
:10323000EECF8091590481111CC060D266D2909368
:103240004C0480934B040E9419230E942B239093DB
:10325000500480934F040E94A8270E94AF279093A8
:103260004E0480934D0481E08093590490E080E007
:10327000089584EF9FEF08958F929F92AF92BF922F
:10328000CF92DF92EF92FF920F931F93CF93DF9332
:1032900000D000D000D01F92CDB7DEB71A861986B5
:1032A00018861F821E821D821C821B821A8219822E
:1032B0008091590407EF1FEF882309F49CC08E0109
:1032C0000D5F1F4F9E012B5F3F4FAE01495F5F4F68
:1032D000BE01675F7F4F90E080E00E942C298C0147
:1032E000009721F00596029708F0DBC029853A8502
:1032F0002115310509F402C1ED80FE804B815C810E
:10330000B701640F751F8F8198858617970708F49A
:10331000F5C0E20EF31ED7019C91903C09F07FC0EE
:103320004230510508F47BC011968C9140915704AE
:1033300050915804452B09F49CC0913F08F071C08E
:103340002CE1290F2D3008F48BC02DE2290F2031FC
:1033500008F489C0903C21F48150823008F483C085
:1033600088E3890F8B3008F481C098E9C92E98E171
:10337000D92EE2E8F8E16D817E81AE014F5F5F4FAB
:1033800089859A8519955C01C114D104A1F18980C0
:103390009A808114910479F18B819C81881599051B
:1033A00008F487C010E000E04B815C8170E060E0D1
:1033B000C7010E94F83C01151105E9F449815A81C1
:1033C00069857A858D819E81680F791FC501F60117
:1033D0001995E980FA800D811E812F8138854985F4
:1033E0005A856FEF7FEF81E090E00E94C7288C0143
:1033F000892B09F056C0C8012A960FB6F894DEBF93
:103400000FBECDBFDF91CF911F910F91FF90EF9035
:10341000DF90CF90BF90AF909F908F90089580E005
:1034200085CF30E020E0220F331FF901E55BFB4F31
:103430000190F081E02D309709F497CF892F90E02B
:103440001995009709F491CFDC011296ED91FC914A
:1034500013971496CD90DC90309709F08CCF1FC055
:1034600021E030E0E0CF22E030E0DDCF23E030E0CB
:10347000DACFD12CC12CEAE8F8E19F3F09F07BCFED
:10348000E0914B04F0914C04309721F4C90104EF12
:103490001FEF0CC08FEF90E019950097A9F604EF8D
:1034A0001FEF89859A85009709F4A5CF0E941B2BF1
:1034B000A2CF0E94F6298C0189859A850E941B2B38
:1034C00070E060E0C4010E948F2998878F830E947A
:1034D000C4289E838D836F8178856115710559F0AD
:1034E000C8010E94A72C9A87898706EF1FEF892BB6
:1034F00009F058CF59CF08EF1FEF56CF08EF1FEF55
:10350000D0CF20915904222319F020E00C943023CD
:1035100087EF9FEF08958091570490915804089584
:103520000E94B4270E940E27F5D0EBE4F4E088E077
:10353000DF011D928A95E9F71092590490E080E02E
:1035400008950C946C2521E040E050E0BA010C9401
:10355000302386E090E0FA019183808390E080E060
:10356000089547E050E068ED72E049CEDF92EF92B7
:10357000FF920F931F93CF93DF938A01EC01C60F45
:10358000D71FE0905D04F0905E04D9800E94DE2990
:10359000D816190678F082E090E0F80191838083D4
:1035A0008EEF9FEFDF91CF911F910F91FF90EF90E2
:1035B000DF900895EF2841F482E090E0F8019183D4
:1035C000808384EF9FEFEECF898180935C0490E04D
:1035D0000196F8019183808390E080E0E3CFCF9360
:1035E000DF93EA010E941D26882321F00E94EB2927
:1035F0000E941E2682E090E0998388838BEF9FEFE4
:10360000DF91CF910895CF93DF93EB0186E0FB012B
:1036100011928A95E9F78FEF8883D8DD8983E7DDFA
:103620008A83E8DD9D838C83DF91CF910895CF93CA
:10363000DF93EA010E942026811109C082E090E018
:103640009983888385EF9FEFDF91CF91089590E074
:1036500080E0B7DD81E090E09983888390E080E0AE
:10366000F3CF0F931F93CF93DF93EA018C01060FE3
:10367000171F0E94202681110BC082E090E09983E1
:10368000888385EF9FEFDF91CF911F910F91089570
:10369000F8018181823038F082E090E0998388835C
:1036A0008EEF9FEFF0CF81E090E08BDD88E090E03F
:1036B0009983888390E080E0E6CFCF93DF930097F3
:1036C000D1F4EB01FB01329686E0DF011D928A9571
:1036D000E9F78FEF888385E089831A820E94DE29CB
:1036E0008B830E94DD299D838C8381E08E838F8371
:1036F000DF91CF910895DF91CF911ACD81EB9AE1BF
:1037000090935B0480935A04089580915A04909199
:103710005B04089510925B0410925A0408958091FE
:103720005D0490915E040895411105C06115710515
:103730008105910561F060935D0470935E04809350
:103740005F04909360044093610481E0089580E0F9
:103750000895FF920F931F93CF93DF938A01EC019B
:10376000C60FD71FF9800E94DE29F816190668F0E7
:1037700082E090E0F801918380838EEF9FEFDF91EC
:10378000CF911F910F91FF9008956C817D818E8163
:103790009F814B81C9DF811108C082E090E0F80170
:1037A0009183808384EF9FEFEACF898180935C04CB
:1037B00090E00196F8019183808390E080E0DFCF74
:1037C000CF93DF93EA01FC01E60FF71F6481758157
:1037D000868197814381A8DF811109C082E090E052
:1037E0009983888384EF9FEFDF91CF91089581E0E3
:1037F00090E09983888390E080E0F6CFEDE5F4E0F7
:103800004081518162817381480F511D611D711D7D
:1038100040835183628373830895CF93C0915C0486
:103820004C2F50E060915D0470915E0401960E94FF
:10383000EF3C8C2FE3DF10925C04CF91089500974A
:1038400099F480915D0490915E042FEFFB01208339
:10385000892B59F020915C0430E02F5F3F4F2417F3
:10386000350719F4CB01D9CF63CC0895009799F4AB
:1038700080915D0490915E042FEFFB012083892BE2
:1038800059F020915C0430E02F5F3F4F241735073B
:1038900019F4CB01C2CF4CCC089523E1AC01249F95
:1038A000C001259F900D1124E0916604F0916704FA
:1038B000E80FF91F238134812250310981E0223041
:1038C000310508F080E008950F931F93CF93DF93A5
:1038D0000091680410916904D0E0C0E080E00C170A
:1038E0001D0749F491E0811190E0892FDF91CF917C
:1038F0001F910F9108958111F5CFCE01CEDF219652
:10390000EECFA0916604B0916704109729F1209141
:1039100068043091690482179307F0F453E1589FCB
:103920009001599F300D1124A20FB31FED91FC910E
:103930001197309789F012968C91681768F48DE092
:10394000689FE00DF11D112480819181892B21F068
:1039500081E09281491708F080E008959C0143E1DD
:10396000429FC001439F900D1124E0916604F091A5
:103970006704E80FF91F8385823091F481E090E0BD
:10398000658176814091A5025091A6026417750762
:1039900011F490E080E0892B19F081E0232B09F0ED
:1039A00080E00895FC01A081B1818DE0689FA00DA9
:1039B000B11D112413964D915C9185859685489F84
:1039C0009001499F300D589F300D1124C901019677
:1039D000611103C0478144FD04960895EF92FF9260
:1039E0000F931F93CF93DF93EA01FC01E60FF71FBC
:1039F00002811381E480F5804F2D6E2DC80181DF97
:103A000081110DC082E090E0998388838EEF9FEF53
:103A1000DF91CF911F910F91FF90EF900895C80112
:103A20003CDF882339F082E090E09983888388EF37
:103A30009FEFEECF1093AC020093AB02E092AD0289
:103A4000F092AE0281E090E09983888390E080E07C
:103A5000DFCFCF92DF92EF92FF920F931F93CF931E
:103A6000DF937A01EC01C60FD71FC090AB02D09054
:103A7000AC020091AD021091AE02412F602FC60141
:103A800040DF811110C082E090E0F70191838083D4
:103A90008AEF9FEFDF91CF911F910F91FF90EF90F1
:103AA000DF90CF900895C601F8DE882341F082E0D0
:103AB00090E0F7019183808388EF9FEFEBCF4C81FB
:103AC0005D816E817F819A8189818F3F41F082E0A3
:103AD00090E0F701918380838EEF9FEFDBCFE3E1EE
:103AE000EC9D9001ED9D300D1124E0916604F09164
:103AF0006704E20FF31F0190F081E02D2DE0029F9B
:103B0000E00DF11D11240190F081E02D27E0129FBE
:103B1000E00DF11D1124808391838B818283438387
:103B20005483658376831F5F1093AE0281E090E03B
:103B3000F7019183808390E080E0ACCFEF92FF9219
:103B40000F931F93CF93DF937A018C01060F171FFA
:103B5000C0916604D0916704209781F021E030E0A5
:103B6000F80182819381409168045091690484171F
:103B7000950710F030E020E0232B71F482E090E014
:103B8000F701918380838EEF9FEFDF91CF911F919B
:103B90000F91FF90EF90089543E1489F9001499F56
:103BA000300D1124C20FD31F78DE882341F082E04C
:103BB00090E0F7019183808388EF9FEFE6CFF801D3
:103BC0002481358120383105C8F687818111D6CF0F
:103BD0004181842F90E08F7E009741F082E090E059
:103BE000F7019183808386EF9FEFCFCF4F833E8392
:103BF0002D83268128871986223010F421E028871A
:103C000021E030E0F70131832083BFCF88E090E0EE
:103C1000FA019183808390E080E00895FB018FEFAB
:103C2000808381E181838FEF9FEF9383828380E89C
:103C300090E095838483168217820895FB018FEFAD
:103C4000808391E0918382839383848384E385835B
:103C500081E090E0978386830895DF92EF92FF9250
:103C60000F931F93CF93DF93EA01FC01E60FF71F39
:103C70008181813071F082E090E0998388838FEFB9
:103C80009FEFDF91CF911F910F91FF90EF90DF9009
:103C9000089582819381D4802581E680F780009108
:103CA0006604109167040115110539F482E090E073
:103CB000998388838CEF9FEFE4CF40916804509103
:103CC00069048417950738F082E090E0998388832F
:103CD0008EEF9FEFD6CF892B39F082E090E0998369
:103CE000888386EF9FEFCDCF8D2D8D7FB1F721306B
:103CF000A1F781E0D11006C091E0E916F10431F09E
:103D000080E004C0E2E0EE16F104D0F3882329F34A
:103D100090E080E0C2DD882339F082E090E0998372
:103D2000888388EF9FEFADCFF801D38681E0848749
:103D3000F686E586108A178681E090E0998388836D
:103D400090E080E09ECF4CE050E062E073E057CA24
:103D50008F929F92BF92CF92DF92EF92FF920F933A
:103D60001F93CF93DF93EA01FC01E60FF71F8281D7
:103D700093810481B580E0916604F09167043097E7
:103D800091F482E090E0998388838CEF9FEFDF913C
:103D9000CF911F910F91FF90EF90DF90CF90BF9048
:103DA0009F908F9008952091680430916904821744
:103DB000930738F082E090E0998388838EEF9FEF3D
:103DC000E6CF23E1289F6001299FD00C1124EC0D40
:103DD000FD1DE080F180E114F10499F28281081761
:103DE00048F78DE0089F80011124E00EF11EF701D5
:103DF00080819181892B29F6BB20E1F2F7E0BF9EFB
:103E000040011124C4010E94E22AF70191838083BA
:103E1000E0916604F0916704EC0DFD1D0190F081C6
:103E2000E02DE00FF11F80819181009739F482E04D
:103E300090E0998388838DEF9FEFA9CFA40170E074
:103E400060E00E94F83C8091660490916704C80E7F
:103E5000D91EF60180819181080F191FF801B282E5
:103E600081E090E09983888390E080E090CFAF92EA
:103E7000BF92CF92DF92FF920F931F93CF93DF9366
:103E8000EA01FC01E60FF71F82819381F480009123
:103E90006604109167040115110581F482E090E039
:103EA000998388838CEF9FEFDF91CF911F910F91C2
:103EB000FF90DF90CF90BF90AF900895209168045D
:103EC000309169048217930738F082E090E099837B
:103ED00088838EEF9FEFE8CF2FEF2F0D2C3FA8F7B1
:103EE00023E1289F6001299FD00C11240C0D1D1D7A
:103EF000F80180819181892B89F6FDE0FF9E5001B8
:103F00001124C5010E94E22AF80191838083E09187
:103F10006604F0916704EC0DFD1D8081918100978E
:103F200039F482E090E0998388838DEF9FEFBCCFD6
:103F3000A50170E060E00E94F83CE0916604F09119
:103F40006704EC0DFD1DF28281E090E09983888387
:103F500090E080E0A9CFCF92DF92EF92FF920F9393
:103F60001F93CF93DF93860F971FFC01028113816C
:103F70008091660490916704892B81F082E090E043
:103F8000FA01918380838CEF9FEFDF91CF911F9196
:103F90000F91FF90EF90DF90CF900895C801B0E0AF
:103FA000A0E00197A109B1098F3F9F4FA105B1057D
:103FB00040F082E090E0FA01918380838EEF9FEFE2
:103FC000E4CF7A0183E1809F6001819FD00C1124AE
:103FD000C6010E94E22AEC01009741F482E090E0E1
:103FE000F701918380838DEF9FEFCFCFA60170E023
:103FF00060E00E94F83CD0936704C093660410937D
:1040000069040093680490E080E02FEF3FEF41E007
:1040100061E070E08017910741F481E090E0F701E2
:104020009183808390E080E0B0CF3A8B298B1B8610
:104030004C877E876D87188A1F8601966396EACF24
:10404000EF92FF921F93CF93DF93EC0110E0F12CDE
:10405000E12C6A811617B0F083E0689FB00111244B
:10406000AE014F5E5F4FC7010E94472B009721F0C2
:104070002FEF3FEF3A8B298BDF91CF911F91FF906C
:10408000EF900895612FCE018DDC61E070E00E9419
:104090008F29E816F90608F47C011F5FDACFF8943F
:1040A000209164043091650481E02115310509F007
:1040B00080E0232B09F0789408952F923F924F923D
:1040C0005F926F927F928F929F92AF92BF92CF92A8
:1040D000DF92EF92FF920F931F93CF93DF933C01F8
:1040E000660E771EF301828193814C01B12CA12CC5
:1040F000C0916604D0916704209769F021E030E018
:1041000060916804709169048617970710F030E099
:1041100020E0232BD1F482E090E0FA0191838083A8
:104120008EEF9FEFDF91CF911F910F91FF90EF9056
:10413000DF90CF90BF90AF909F908F907F906F90C7
:104140005F904F903F902F9008958092AF02909291
:10415000B002A092B102B092B20263E1689F9001F6
:10416000699F300D1124C20FD31FF3018181833069
:1041700040F082E090E0FA019183808386EF9FEF28
:10418000D1CF2A012B813C81232BF1F42881398165
:104190009F8191FF2EC0232B09F46FC020916B04E7
:1041A0009A81422F490F5527551FBA0141E050E02F
:1041B0006138710514F050E040E0452B09F45DC012
:1041C0002A87920F90936B048150823008F481C04B
:1041D00066DF882309F4D8C0F3018181813009F4B6
:1041E0008DC008F47BC0823009F4C6C090E080E046
:1041F000ADC0232B09F441C020916A049A81E22FBB
:10420000E90FFF27FF1F41E050E0ED3FF10514F0FB
:1042100050E040E0452B89F12A87920F90936A0481
:10422000D3CFA081B181A20FB31F11966C91060F5D
:10423000111D0196295F3F4F8417950794F38D85D3
:104240009E85089F1001099F300C189F300C112487
:10425000C114D104D1F48F8184FF17C00E94DD29DD
:10426000F5E02F0E311C21E08215930508F420E0C3
:10427000A701435F5F4F21110EC082E090E0F20181
:104280009183808387EF9FEF4DCF0E94DD292FEF31
:10429000221A320AE8CF88819981E80EF91EF701C7
:1042A00014830383FFEFCF1ADF0A7A018A818C150A
:1042B0001D0409F00CF48CCFE881F981EE0DFF1D8F
:1042C000428150E030E020E010E000E090E080E04B
:1042D000B3CFF12CE12CD12CC12CE8CF81E090E0C0
:1042E0009C838B83F1DA882309F480CF81E090E00E
:1042F0000E94E11880E40E94EF1878CF89899A899A
:10430000019661F083E090E09C838B8382E090E0F3
:104310000E94E11880E40E94E91868CF8D819E8197
:104320002091A5023091A60282179307D1F46091E3
:10433000A9027091AA02AE014F5E5F4F8091A70261
:104340009091A8020E94662C0097E1F2789422E0F6
:1043500030E0F20131832083892B99F08DEF9FEFBC
:10436000E1CE89288A288B2869F6892B59F6CE0157
:1043700067DE188A1F86E8CF82E090E09C838B83FB
:1043800035CF90E080E0CECE82E090E0F2019183E4
:10439000808385EF9FEFC6CE8F929F92AF92BF92A0
:1043A000CF92DF92EF92FF920F931F93CF93DF9301
:1043B000EA018C01060F171FF8018181833098F004
:1043C00082E090E09983888386EF9FEFDF91CF9121
:1043D0001F910F91FF90EF90DF90CF90BF90AF9023
:1043E0009F908F9008958091660490916704892B27
:1043F00061F081E090E02091680430916904232B02
:1044000011F490E080E0892B39F482E090E0998308
:1044100088838EEF9FEFDACF42DE882309F4DFC076
:10442000F8018181813009F495C0E8F0823099F477
:104430002091680430916904E0916604F09167046A
:1044400090E080E041E050E02817390709F0BDC056
:104450003BDA811117C0789481E090E099838883DA
:1044600090E080E0B3CF2091680430916904E0913E
:104470006604F091670490E080E041E050E0281786
:10448000390741F481E090E00E94E11880E40E9445
:10449000EF18E1CF63817481672B11F0548343835C
:1044A00001967396ECCFE0916604F0916704E00FFB
:1044B000F11F2381348122303105D9F421893289D9
:1044C0002F3F3F4FB1F4258136814091A502509195
:1044D000A6022417350761F5AF014F5E5F4F60916B
:1044E000A9027091AA028091A7029091A8020E944D
:1044F000662CEFEFCE1ADE0AEE0AFE0A0D5E1F4FA3
:10450000409168045091690470E060E0C416D506DB
:10451000E606F7063CF5009731F27894892B09F40A
:104520009BCF82E090E0998388838DEF9FEF4ECF01
:10453000C114D104E104F104E1F6232BD1F6CF013B
:104540007FDDE0916604F0916704E00FF11F108AAF
:104550001786CFCF10E000E090E080E0C12CD12C96
:104560007601CECF0097C9F610E000E0812C912CA7
:10457000540183E0E82EF12C1AC0E0916604F0911A
:104580006704E00FF11F83819481029749F4F4825C
:10459000E38282E090E00E94E11880E40E94E91842
:1045A000FFEF8F1A9F0AAF0ABF0A0D5E1F4F80915F
:1045B000680490916904B0E0A0E088169906AA0604
:1045C000BB06DCF290E080E0A8CF638174816230AA
:1045D000710511F4548343830196739635CF82E0BD
:1045E00090E09983888385EF9FEFF0CE0097B9F430
:1045F0008FEFFB0180832091AF023091B00243E145
:10460000429FC001439F900D1124E0916604F091F8
:104610006704E80FF91F8285FB01818308950C94DC
:10462000981888E090E0FA019183808390E080E020
:1046300008951092650410926404E6E6F4E086E0C2
:10464000DF011D928A95E9F783EA9EE19093630466
:1046500080936204089580916204909163040895A8
:104660002F923F924F925F926F927F928F929F9282
:10467000AF92BF92CF92DF92EF92FF920F931F9370
:10468000CF93DF93CDB7DEB72F970FB6F894DEBF89
:104690000FBECDBFF894E0916404F09165043196AB
:1046A000F0936504E093640478944090660450901D
:1046B00067044114510409F40CC2E0916804F091BC
:1046C0006904EF2B09F405C22D8749875A876B8748
:1046D0007C8798878F831201B12CA12C10E000E019
:1046E0008091680490916904A816B90618F4011520
:1046F000110529F1F8948091640490916504019763
:1047000090936504809364047894C8012F960FB643
:10471000F894DEBF0FBECDBFDF91CF911F910F91F7
:10472000FF90EF90DF90CF90BF90AF909F908F90D1
:104730007F906F905F904F903F902F900895710100
:10474000E418F508D10117968C91179781FD54C094
:1047500013968D919C911497039709F04DC015966F
:104760008D919C91EF81F8858E179F0709F044C0C9
:10477000B50190E080E07FD48A8320916604309177
:1047800067043D832C833D85332309F44CC04C8161
:104790005D81452B09F49AC1809168049091690468
:1047A000A816B90608F092C1C501D8D88823E9F047
:1047B0006C817D816E0D7F1D7D836C83DB011F9677
:1047C0008D919C91892B89F0D12CC12CF12CE12C5D
:1047D000AC81BD8112968C9112978E151F0409F041
:1047E00094F450961C921E921F972A81222321F046
:1047F000B50190E080E041D43FEFA31AB30A43E152
:10480000240E311C6DCFAC81BD81ED91FC91EC0D7E
:10481000FD1D858196810FD7BFEFEB1AFB0AEDE0F6
:10482000CE0ED11CD5CFEC81FD81309709F44EC15D
:104830008091680490916904A816B90608F046C1F1
:10484000EE0DFF1DFF87EE87C50188D88B83882377
:1048500039F1AE85BF851F968D919C915097019639
:1048600021E01D964D915C918417950709F020E099
:104870002E831982712C10E000E0AE85BF85129660
:104880008C91781608F45DC0EE85FF858785908948
:104890000196658576850E94983C908B8787A5CF89
:1048A000B1E0BE83E6CF992493946BC08BD6F6011A
:1048B0009683858382C0D601ED90FC90B7E06B9E15
:1048C000E00CF11C1124F7016381748180818F3F1A
:1048D00061F121E030E002C0220F331F8A95E2F738
:1048E000C901092E000CAA0BBB0BFB0140815181B1
:1048F0006281738184239523A623B72321E0892B2A
:104900008A2B8B2B09F420E0D4012C93D70111962C
:104910008C91F60123853485820F932F911D880E8B
:10492000991E1486138663949BC0418150E0C40194
:104930000E94EF3CEBCF998206EF1FEFC5C01982B2
:10494000C3C0F981F111A0CFEDE07E9E700111246A
:10495000AE85BF85CD90DC90CE0CDF1C15D49D8339
:104960008C83BB81BB2309F49ECF81E0EE85FF855C
:1049700027853089232B09F080E0982E882309F4BD
:1049800058C0672D8E859F850DD8D60118969C93AB
:104990008E93179761E070E0C2D4EE85FF85218980
:1049A00032892F3F320709F481CFBC01C901CFD72B
:1049B000D60116969C938E931597D60115968D91D8
:1049C0009C911697009709F4B6CFEC81FD818E0F6C
:1049D0009F1F1A969C938E931997AE85BF85ED9174
:1049E000FC911197EE0EFF1EF7012185328514868A
:1049F00013861A968C91870DD9018D93711016C06C
:104A0000EE85FF85878184FF11C049855A856B85B6
:104A10007C85F9014183528363837483F701838525
:104A200094850496A80FB91F14861386F701B287E0
:104A3000A187D60115968D919C911697892B09F423
:104A400043C0EE85FF85258136818091A502909136
:104A5000A6022817390779F019968D909C90612C41
:104A6000D60112968C911297681608F424CF1A96E4
:104A70009C928E921997BE81BB2309F460CF61E0AE
:104A800070E0F601878190854AD4D6011796ED90A3
:104A9000FC90189715964D915C91E1E0F0E0BA8199
:104AA000BB2311F0F0E0E0E00C811D819C01B50119
:104AB000882799278E1B9F0B6AD38C01892B21F0A5
:104AC000F60185819681B7D57394D7CE0FEF1FEF8E
:104AD0008CCE10E000E00ECE2F923F924F925F926C
:104AE0006F927F928F929F92AF92BF92CF92DF92FE
:104AF000EF92FF920F931F93CF93DF938091660401
:104B00009091670410E000E0892BA9F0C8DA0AEF61
:104B10001FEF882381F02090680430906904C091D1
:104B20006604D0916704D12CC12C10E000E02C1455
:104B30003D04A9F47894C801DF91CF911F910F91A2
:104B4000FF90EF90DF90CF90BF90AF909F908F90AD
:104B50007F906F905F904F903F902F900895C60187
:104B60000E94AE1C882309F18B819C810397E9F494
:104B70008F859889892BC9F0B60190E080E07BD2BF
:104B800021E030E0882311F030E020E04424552477
:104B9000421A530AB12CA12C912C812C8A818815A0
:104BA000190409F038F4188A1F864FEFC41AD40A82
:104BB0006396BDCFE881F981EA0DFB1D8581968161
:104BC000892BA1F161E070E087819085A8D33C0139
:104BD000DBD28C01E881F981EA0DFB1D818592858C
:104BE00025813681200F311FAC01421B530B9A01E6
:104BF00047815085421B530B70E060E00E94F83CF7
:104C0000E881F981EA0DFB1DE780F084458156813A
:104C10009301B601C201BBD28C01892B39F0E88126
:104C2000F981EA0DFB1D8581968105D55FEF851A17
:104C3000950A8DE0A80EB11CB1CF31CA78940895C1
:104C40002F923F924F925F926F927F929F92AF927C
:104C5000BF92CF92DF92EF92FF920F931F93CF9369
:104C6000DF9300D000D0CDB7DEB70091660410917D
:104C70006704992493940115110509F43EC0A0908E
:104C80006804B09069040BDA982E8823B1F1109271
:104C900067041092660410926904109268041092DE
:104CA0006A0410926B048FEF9FEFDC018093AF02D8
:104CB0009093B002A093B102B093B20278947FD3E4
:104CC0001E830D83C12CD12C7601C501B0E0A0E07C
:104CD00089839A83AB83BC8322242A94322C8981D2
:104CE0009A81AB81BC81C816D906EA06FB06F4F0AE
:104CF000C801A1D480E40E94EF18892D26960FB632
:104D0000F894DEBF0FBECDBFDF91CF911F910F9101
:104D1000FF90EF90DF90CF90BF90AF909F907F90EB
:104D20006F905F904F903F902F900895AD81BE811E
:104D300015968D919C9116972091A5023091A6020F
:104D400082179307D1F451968D919C91EED5ED8108
:104D5000FE8180819181B12CA12C412C512C3201FA
:104D6000892B89F5BFEFCB1ADB0AEB0AFB0AED8131
:104D7000FE817396FE83ED83B2CFC114D104E104AA
:104D8000F10429F7892B19F7ED81FE818189928938
:104D90008F3F980709F029D5AD81BE8152963C928C
:104DA0002E925197D4CF8A0D9B1DDC018D919C9141
:104DB000009709F040D4BFEF4B1A5B0A6B0A7B0ADD
:104DC000EDE0AE0EB11CAD81BE818D919C9111972D
:104DD00012964C9150E070E060E04416550666066D
:104DE00077060CF328D4BECFCF93DF93EA0128DFF8
:104DF000811109C082E090E09983888385EF9FEF5D
:104E0000DF91CF91089581E090E00E94E11881E068
:104E100090E09983888390E080E0F2CF11DF1092D8
:104E2000630410926204089542E050E06AE473E083
:104E30000C94FF18FF920F931F93CF93DF938A0177
:104E4000EC01C60FD71FF980B9D20897F8161906DA
:104E500071F068F082E090E0F801918380838EEF3A
:104E60009FEFDF91CF911F910F91FF9008956C817B
:104E70007D818E819F814B810E94941B811108C08E
:104E800082E090E0F8019183808384EF9FEFE9CF87
:104E9000F9800E948F1B4F2D50E0BE01685F7F4F4D
:104EA0000E94EF3C89810E94FE1B81E090E0F801A6
:104EB0009183808390E080E0D4CFDF92EF92FF92E5
:104EC0000F931F93CF93DF938A01EC01C60FD71F77
:104ED0000E948F1B7C01D98071D2DD2059F002978E
:104EE00021E030E0D816190619F010F030E020E08B
:104EF000232B79F482E090E0F801918380838EEF98
:104F00009FEFDF91CF911F910F91FF90EF90DF9076
:104F10000895EF2841F482E090E0F80191838083C6
:104F200084EF9FEFEECFF9800E948F1B4F2D50E052
:104F3000BE016E5F7F4F0E94EF3C89810E94FE1B85
:104F400081E090E0F8019183808390E080E0D9CF08
:104F500084E197E290936D0480936C0408958091AE
:104F60006C0490916D0408950895FC0111821082E3
:104F7000938382830895DB011D921C92DC011296BB
:104F8000ED91FC9113977183608313967C936E93DC
:104F900012970895FC0180819181DB018D939C9390
:104FA000A081B181109741F08D919C919183808374
:104FB000892B11F4F383E2830895FC0180819181B0
:104FC000DB018D939C93892B11F47383628371832E
:104FD00060830895FC011182108293838283089577
:104FE000CF93DF931F921F92CDB7DEB71A8219823B
:104FF000F894BE016F5F7F4F83E794E0CBDF898138
:105000009A81009709F017D389819A81892B89F7B2
:10501000BE016F5F7F4F87E794E0BCDF89819A8193
:10502000009709F008D389819A81892B89F77894B0
:105030000F900F90DF91CF910895CF93DF931F9240
:105040001F92CDB7DEB71A821982F894BE016F5F46
:105050007F4F8FE694E09EDF89819A81009709F067
:10506000EAD289819A81892B89F778940F900F90E1
:10507000DF91CF91089581E0089590E080E0089558
:10508000EF92FF920F931F93CF93DF931F921F9284
:10509000CDB7DEB71A82198280916E0407EF1FEF39
:1050A0008823A1F1F894BE016F5F7F4F87E794E0FA
:1050B00071DF789489819A81EE24E394F12C892B15
:1050C00051F4F894BE016F5F7F4F83E794E062DF95
:1050D0007894F12CE12C89819A810EEF1FEF0097D3
:1050E000A9F0FC014281538164E070E076D68C0126
:1050F000892B61F0F89469817A81C701880F991F23
:10510000880F991F8D589B4F58DF7894C8010F90D6
:105110000F90DF91CF911F910F91FF90EF90089525
:105120000F931F93CF93DF9300D01F92CDB7DEB7BD
:105130001C821B821A82198280916E0407EF1FEF76
:105140008823C1F0AE014D5F5F4F64E070E0CE0197
:105150000196B6D68C01892B69F4E981FA818B819D
:105160009C8193838283F89469817A818FE694E0AD
:1051700002DF7894C8010F900F900F900F90DF918D
:10518000CF911F910F910895BBD7049608958F92E8
:105190009F92AF92BF92CF92DF92EF92FF920F93C6
:1051A0001F93CF93DF931F921F92CDB7DEB71A8262
:1051B0001982BC016F5F7F4F6330710598F0AA249C
:1051C000AA94BA2CC5010F900F90DF91CF911F9137
:1051D0000F91FF90EF90DF90CF90BF90AF909F9096
:1051E0008F9008954115510551F3480159018A01E5
:1051F0006C01CADF8815990511F7E114F104F9F281
:105200008E0D9F1DA816B906D0F280916E048823DA
:10521000F1F0F894B501645071099701AE014F5F48
:105220005F4FC8010496E1D65C01892B71F4898136
:105230009A81F80193838283C601880F991F880F92
:10524000991FB8018D589B4F96DE7894BBCF87EF9E
:10525000A82EBB24BA94B6CFAF92BF92CF92DF9262
:10526000EF92FF920F931F93CF93DF931F921F92A2
:10527000CDB7DEB71A821982892B09F047C06115B4
:10528000710509F443C04115510509F43FC02115CA
:10529000310509F43BC001151105C1F180916E047F
:1052A0008823B9F179016A015B01F894BE016F5F4F
:1052B0007F4F8FE694E06EDE789489819A81009723
:1052C00059F1DC0112966D917C91A8010496A6D645
:1052D0008C01E981FA81D501ED93FC938281938160
:1052E0000496F601918380834FDFD7018D939C93C1
:1052F000C8010F900F90DF91CF911F910F91FF90F8
:10530000EF90DF90CF90BF90AF9008950FEF1FEF19
:10531000EFCF07EF1FEFECCF0EEF1FEFE9CFCF93EB
:10532000DF93EC01672B71F4F4D68C179D0760F0C6
:10533000E7D62496C80FD91FE6D68C0F9D1FDF91A4
:10534000CF910895E3D6F1CF90E080E0F8CF0F93AE
:105350001F93CF93DF9320916E0421112BC08B01FB
:10536000EC0183E794E001DE87E794E0FEDD8FE661
:1053700094E0FBDD97D00097C1F4CBD670E060E0FD
:10538000CEDF43EB52E062E070E081D1009769F438
:105390008091B3029091B402CED6B801CE0103D56C
:1053A000009719F421E020936E04DF91CF911F91B3
:1053B0000F91089584EF9FEFF8CFA8C6AAC6CF93A8
:1053C000DF93AAD6EC01892B11F40ADE36DECE017A
:1053D000DF91CF910895CF93DF939ED6EC01892B77
:1053E00009F4FEDDCE01DF91CF9108958091B302E3
:1053F0009091B4020895CF93DF9380916E04D0E032
:10540000C0E08823D1F09CD6EC01892BB1F4E8DD13
:1054100014DE8091B3029091B402E7D1E8D2EC019E
:10542000892B59F483E794E0D5DD87E794E0D2DD5A
:105430008FE694E0CFDD10926E04CE01DF91CF9124
:105440000895EF92FF920F931F93CF93DF93EC0198
:105450007A018B010F5F1F4F0E9DA0010F9D500D14
:105460001E9D500D112470E060E00E94F83C90E019
:1054700080E0F0E0E0E02FEFE816F90639F4DF9184
:10548000CF911F910F91FF90EF9008951A8219828A
:105490002883309711F0D283C1830196FE01C00F9B
:1054A000D11FEACFCF92DF92EF92FF920F931F931B
:1054B000CF93DF9304EB17E00C7F43E050E065EB04
:1054C00072E08BEB92E01CD485EBE82E82E0F82EA4
:1054D0009BEBC92E92E0D92ECBE7D8E0D7014D91B6
:1054E0005D917D01F601619171916F0119830883CE
:1054F0005D834C835B834A837F836E839B012F5F35
:105500003F4F249FC001259F900D349F900D112483
:10551000998788870115110511F0C80192DF8885E8
:105520009985080F191F2A96FBEBEF16F2E0FF068C
:10553000A9F6EDE7F4E084E393E0DF019C011D921E
:1055400021503040E1F710927C0410927B041092BD
:105550009A081092990810929E0810929D08109235
:105560009C0810929B081092A00810929F0810921D
:10557000A2081092A1081092A4081092A3081092F9
:10558000A8081092A7081092A6081092A5081092D9
:10559000AA081092A9081092AC081092AB081092B9
:1055A00078081092770810927A081092790890E0A3
:1055B00080E0DF91CF911F910F91FF90EF90DF90EE
:1055C000CF9008950097F1F0F894ABEBB2E0EBE7E1
:1055D000F8E030E020E04D915D9148175907A8F0C0
:1055E000428153814115510581F08AE0829FF0018B
:1055F000839FF00D1124E558F74F8081918100972A
:1056000059F4789490E080E008952F5F3F4F3A96E8
:105610002330310501F7F5CFDC0111966D917C91B6
:10562000718360834150510953834283FC0121936C
:10563000CF0178940895009749F1DC018E9185306F
:1056400041F4E0917908F0917A083097F9F0CD01B2
:1056500019948530D8F4282F30E0F8948FEF8C938C
:105660008AE0829FF001839FF00D1124E558F74FE7
:105670008081918112969C938E931197B183A08320
:105680008281938101969383828378940895CF9247
:10569000DF92EF92FF920F931F93CF93DF939C01C2
:1056A00080E894E08C7F4115510509F49BC02115D9
:1056B000310509F497C06115710509F493C07A01A9
:1056C000AB01B9016D5F7F4F6C7F9B012F5F3F4F37
:1056D000249F8001259F100D349F100D1124F894F4
:1056E0002091990830919A08232B59F42091A10810
:1056F0003091A2082115310569F12017310708F012
:1057000058C02091A3083091A408232B91F4209134
:10571000A1083091A208820F931F2091AB0830910D
:10572000AC082115310509F441C02017310708F0F4
:1057300056C07894CFEFDFEF86EF9FEFF701D1836C
:10574000C083DF91CF911F910F91FF90EF90DF9079
:10575000CF900895C3E0D0E0C0907B04D0907C044B
:1057600021E333E02C193D092017310710F32AE01B
:105770002C9FF0012D9FF00D1124E558F74F9183D8
:105780008083558344835383428377836683118761
:105790000087009709F055DE0C0D1D1D10937C0449
:1057A00000937B04789490E080E0C8CFC4E0D0E020
:1057B000D3CFC3E0D0E02AE02C9FF0012D9FF00D65
:1057C0001124E558F74F9183808355834483538395
:1057D000428377836683009729F333DEE3CFC4E007
:1057E000D0E0E9CF8FEF9FEFACCF9C0103970297FA
:1057F00008F069C0F89484E09AE0482F50E024173C
:1058000035070CF44DC091E08AE0829FF001839F40
:10581000F00D1124E558F74F118210821582148281
:1058200013821282178216829923B1F1809199080E
:1058300090919A08892BA9F42091A1083091A2088F
:105840002115310571F080917B0490917C04821BBD
:10585000930B90937C0480937B041092A208109287
:10586000A1088091A3089091A408892BA9F4209104
:10587000AB083091AC082115310571F080917B04A3
:1058800090917C04821B930B90937C0480937B0407
:105890001092AC081092AB08789490E080E00895E4
:1058A000949FF001959FF00D1124E558F74F40812A
:1058B0005181452B31F440855185452B11F48150A0
:1058C0009CCF90E0A1CF8FEF9FEF08954115510538
:1058D00049F1009739F16115710521F1F894209192
:1058E000770830917808232BB9F42091790830910A
:1058F0007A08232B89F49093780880937708709323
:105900007A0860937908789425E030E090E080E0B0
:10591000FA0131832083089578942FEF3FEF86EFCB
:105920009FEFF6CF8FEF9FEF0895059769F4F894F6
:10593000109278081092770810927A0810927908DD
:10594000789490E080E008958FEF9FEF08956115BF
:10595000710519F4F0E0E0E011C08530910581F4A3
:10596000E0917708F09178083097A1F3CB01019688
:105970001995009779F3FC0185E08193CF01089593
:105980009C01235031092230310520F72AE0289F5D
:10599000D001299FB00D1124A558B74F2D913C91EE
:1059A0001197232BB9F216962D913C911797261734
:1059B000370780F2F89412962D913C911397211598
:1059C000310529F0ED91FC911197309711F47894FD
:1059D000C1CF4181528111965C934E932150310980
:1059E00013963C932E93129781937894C7CFE1EB53
:1059F000F7E086ECDF011D928A95E9F7EDE7F4E028
:105A000084E393E0DF019C011D9221503040E1F7D7
:105A100010927C0410927B04EBE7F8E082E3DF0154
:105A20001D928A95E9F7E7E7F8E084E0DF011D922F
:105A30008A95E9F790E080E00895CF93DF93C091D5
:105A4000C102D091C202CF3FDC0759F423D4909316
:105A5000C2028093C10297FF09C0D093C202C093D3
:105A6000C10284EF9FEFDF91CF91089590E080E035
:105A7000FACF8230910528F48093AD0890E080E061
:105A800008958FEF9FEF08954F925F926F927F92EC
:105A9000AF92BF92CF92DF92EF92FF920F931F933C
:105AA000CF93DF931F921F92CDB7DEB71A82198270
:105AB000009709F479C06115710509F475C020914A
:105AC000C1023091C20207EF1FEF2F3F3F4F09F491
:105AD00045C06B015C01412C512C3201F12CE12CB1
