:100000002CC100000C948C350C94B7350C94E2355F
:100010000C940D360C9438360C9463360C948E3652
:100020000C94B9364BC1000049C1000047C1000023
:1000300045C1000043C1000041C100003FC10000B4
:100040003DC100003BC1000039C1000037C10000C4
:1000500035C1000033C1000031C100000C94E4360A
:100060002DC100000C94C43A0C94FA3A27C1000048
:1000700025C1000023C1000021C100001FC10000F4
:100080001DC100001BC1000019C1000017C1000004
:100090000C94503B0C94863B11C100000C942D270E
:1000A0000DC100000BC1000009C1000007C1000024
:1000B00005C1000003C1000001C10000FFC0000035
:1000C000FDC00000FBC000000C9415300C94DC3B1C
:1000D0000C94123CF3C000000C94683C0C949E3CC1
:1000E000EDC00000084AD73B3BCE016E84BCBFFD8B
:1000F000C12F3D6C74319ABD56833DDA3D00C77FF8
:1001000011BED9E4BB4C3E916BAAAABE0000008090
:100110003F05A84CCDB2D44EB93836A9020C50B91F
:10012000918688083CA6AAAA2ABE000000803F004B
:1001300000000A0B02090C0D0E0807030401000061
:1001400000000000000000000000000000000000AF
:10015000000000000000000000000000121110006C
:10016000000000000000000000000000000000008F
:1001700000000000000001021020200808102040AC
:10018000102040800201020108040201010204085B
:1001900010204080804020100804020180040201E9
:1001A0008040201008040201080402010102040832
:1001B000102040800102040810204080050505053C
:1001C000070508080808020202020A0A08080404CF
:1001D00004040101010101010101030303030303FD
:1001E0000303040707070C0C0C0C0C0C0C0C02028C
:1001F000020206060606060606060B0B0B0B0B0B89
:100200000B0B000020002300260029002C002F00EB
:100210003200000100000301060109010000220074
:10022000250028002B002E003100340002010000C0
:10023000050108010B0100002100240027002A000D
:100240002D003000330001010000040107010A0104
:10025000D42F233BAF3B3B3CC73C11241FBECFEF09
:10026000D1E2DEBFCDBF00E00CBF13E0A0E0B2E002
:10027000ECEEFAE700E00BBF02C007900D92A23748
:10028000B107D9F728E0A2E7B3E001C01D92AF3F64
:10029000B207E1F711E0CDE2D1E000E006C021971E
:1002A0000109802FFE010E94533DC832D10780E032
:1002B0000807A9F70E94B9300C94743DA1CECF92E3
:1002C000DF92EF92FF92CF93882351F16A017B0175
:1002D000CFEFC80F20E030E0A901CB01B6010E94AA
:1002E000B93118168CF0C701B60190580E942D3212
:1002F0009B01AC016C2F70E090E080E0CF91FF900B
:10030000EF90DF90CF90B2C0C701B6010E942832B3
:100310008C2FCF91FF90EF90DF90CF900C94F73718
:10032000CF91FF90EF90DF90CF9008950F931F93A0
:100330008B019C0183E036952795179507958A9543
:10034000D1F70E581C4F462F477021E030E0F901DD
:1003500002C0EE0FFF1F4A95E2F7AF01F8012081BE
:100360002423CB010196211102C090E080E01F916F
:100370000F9108950F931F938B019C0183E0369595
:100380002795179507958A95D1F7677081E090E0DA
:1003900001C0880F6A95EAF7F801EE58FC4F2081FA
:1003A000452B31F48095822380831F910F9108950E
:1003B000822BFACF2F923F924F925F926F927F9251
:1003C0008F929F92AF92BF92CF92DF92EF92FF9265
:1003D0000F931F93CF93DF93D62EC72E782E692EBF
:1003E00049015A01280161E08D2D0E943139CD2D3E
:1003F000DC2D8E010F5F1F4FA8016D2D7C2D872DE9
:10040000962DB8DF20E030E0A901C201B7010E94BB
:100410000A34181664F4C201B7010E942D322B0170
:10042000C501B4010E942D32A201CE0123D0C80122
:10043000DF91CF911F910F91FF90EF90DF90CF90C0
:10044000BF90AF909F908F907F906F905F904F90F4
:100450003F902F900895882341F08150682F70E0DD
:1004600090E080E050E040E085CF0895862FB9010C
:100470000C94F7379C01FC01E05DFE4FE491E150E4
:10048000E231E0F4F0E08827E75BFD4F8F4F0C94FA
:10049000533D5B02620265027C0291025E02A6028B
:1004A000B202B602CD02E202F7020E0323035E029D
:1004B00038034F03640384B5806884BD60E0822FF5
:1004C0000C946D3984B58062F8CF809180008C7F68
:1004D00082608093800080918100807E8061682BA3
:1004E0006093810050938700409386008091800044
:1004F000806880938000E2CF809180008C7F826052
:100500008093800080918100807E8061682B609361
:100510008100509387004093860080918000806224
:10052000E8CF809180008C7F8260809380008091F2
:100530008100807E8061682B6093810050938700EA
:1005400040938600809180008860D3CF8091B00076
:1005500080688093B0008091B100887F682B6093A1
:10056000B100ACCF8091B0008062F3CF8091900059
:100570008C7F82608093900080919100807E80616A
:10058000682B609391005093970040939600809160
:10059000900080688093900091CF809190008C7F34
:1005A00082608093900080919100807E8061682BB2
:1005B0006093910050939700409396008091900033
:1005C0008062E8CF809190008C7F82608093900061
:1005D00080919100807E8061682B609391005093A0
:1005E000970040939600809190008860D3CF8091CF
:1005F000A0008C7F82608093A0008091A100807E0B
:100600008061682B6093A1005093A7004093A600DF
:100610008091A00080688093A00050CF8091A000BE
:100620008C7F82608093A0008091A100807E806199
:10063000682B6093A1005093A7004093A60080917F
:10064000A0008062E8CF8091A0008C7F82608093C0
:10065000A0008091A100807E8061682B6093A10042
:100660005093A7004093A6008091A0008860D3CF4C
:10067000809120018C7F82608093200180912101F4
:10068000807E8061682B6093210150932701409305
:100690002601809120018068809320010FCF8091F6
:1006A00020018C7F82608093200180912101807ED7
:1006B0008061682B609321015093270140932601AC
:1006C000809120018062E8CF809120018C7F826040
:1006D0008093200180912101807E8061682B60934E
:1006E00021015093270140932601809120018860C9
:1006F000D3CF611102C00C9431396130E1F362E073
:10070000FACF662319F061E00C946D3960E0FCCFFC
:10071000FC01A781B0858C9191858923A481B58145
:100720009C9140815181628173812681922359F08D
:1007300081110BC04F5F5F4F6F4F7F4F40835183DD
:100740006283738308958111F5CF41505109610986
:100750007109F4CF8CE793E0DBCF87E893E0D8CF43
:1007600082E993E0D5CF8DE993E0D2CFFC01A4815B
:10077000B5818C9196818923A781B0859C91408118
:100780005181628173812185922359F0882359F028
:100790004F5F5F4F6F4F7F4F4083518362837383FF
:1007A00008958823A9F34150510961097109F4CFD3
:1007B0008CE793E0DBCF87E893E0D8CF82E993E042
:1007C000D5CF8DE993E0D2CF0F931F93CF93DF93D3
:1007D000D82FC62F8A01A0917B038BE0A89FD00160
:1007E0001124A458BC4F1D921D921D921C92139768
:1007F00081E01A968C931A978D2F90E0FC01EA58AD
:10080000FE4FE4911696EC931697FC01E454FE4FCC
:10081000E491F0E0EE0FFF1FEE5FFD4F85919491A4
:1008200015969C938E931497862F90E0FC01EA58BE
:10083000FE4FE4911996EC931997FC01E454FE4F96
:10084000E491F0E0EE0FFF1FEE5FFD4F8591949174
:1008500018969C938E93179760E08D2F0E943139E4
:1008600060E08C2F0E94313980917B03813009F444
:100870003FC0A8F0823009F462C0833009F486C01A
:1008800080917B0391E0980F90937B03F801808324
:1008900090E080E0DF91CF911F910F91089580E06B
:1008A000D23049F081E0D33031F08EEE8D0F8430BC
:1008B000D8F487E18D1B41E050E06AEA73E00E94C2
:1008C000123580E0C23049F081E0C33031F08EEE65
:1008D0008C0F843058F487E18C1B41E050E068EDC8
:1008E00073E00E941235CCCF8FEFE5CF8FEFF5CFBD
:1008F00080E0D23049F081E0D33031F08EEE8D0FC0
:100900008430C8F487E18D1B41E050E06DEA73E06C
:100910000E94123580E0C23049F081E0C33031F0EE
:100920008EEE8C0F843048F487E18C1B41E050E060
:100930006BED73E0D6CF8FEFE7CF8FEFF7CF80E08F
:10094000D23049F081E0D33031F08EEE8D0F84301B
:10095000C8F487E18D1B41E050E060EB73E00E943A
:10096000123580E0C23049F081E0C33031F08EEEC4
:100970008C0F843048F487E18C1B41E050E06EED31
:1009800073E0AFCF8FEFE7CF8FEFF7CF80E0D230BC
:1009900049F081E0D33031F08EEE8D0F8430C8F411
:1009A00087E18D1B41E050E063EB73E00E9412355C
:1009B00080E0C23049F081E0C33031F08EEE8C0F20
:1009C000843048F487E18C1B41E050E061EE73E035
:1009D00088CF8FEFE7CF8FEFF7CF9BE0899FF001B4
:1009E0001124E458FC4F80819181A281B381FB01E5
:1009F00080839183A283B38390E080E008959BE09D
:100A0000899FF0011124E458FC4F10821182128258
:100A1000138290E080E0089590E080E008954F9286
:100A20005F926F927F928F929F92AF92BF92CF927E
:100A3000DF92EF92FF92CF93DF9300D01F92CDB75A
:100A4000DEB79A83898310927A0710927B071092FF
:100A50007C0710927D07DC018D909D90AD90BC903D
:100A600075016401E894F7F8C0927E07D0927F0781
:100A7000E0928007F092810720E030E0A901C701F1
:100A8000B6010E940A3418160CF076C0C0927A079C
:100A9000D0927B07E0927C07F0927D07C12CD12C8D
:100AA00080E8E82E8FE3F82EA981BA8114968D9103
:100AB0009D910D90BC91A02D89839A83AB83BC83BB
:100AC0002C013D01E89477F840927E0750927F0711
:100AD000609280077092810780907A0790907B07E0
:100AE000A0907C07B0907D07A5019401C301B201DD
:100AF0000E940A3418160CF04DC0A3019201C501E2
:100B0000B4010E94C0314B015C01AC019B01C701E3
:100B1000B6010E944B34A50194010E944B3420E0A1
:100B200030E040E85FE30E94F33040927A07509251
:100B30007B0760927C0770927D070E94B8342091F9
:100B40007A0730917B0740917C0750917D070E9486
:100B50004B340F900F900F900F90DF91CF91FF903B
:100B6000EF90DF90CF90BF90AF909F908F907F904D
:100B70006F905F904F90089520E030E0A901C5018B
:100B8000B4010E94C0319B01AC010E944B346B0147
:100B90007C018ACFA501940169817A818B819C8136
:100BA0000E94C0319B01AC010E944B34A701960109
:100BB0000E94F330C2CF2F923F924F925F926F927A
:100BC0007F928F929F92AF92BF92CF92DF92EF92DD
:100BD000FF920F931F93CF93DF9300D01F92CDB757
:100BE000DEB79C838B838B011A013A832983FC0136
:100BF000C080D180E280F380FB0180809180A28060
:100C0000B380A5019401C701B6010E94B9318111D9
:100C100010C0F8012481358146815781EB81FC8128
:100C200064817581868197810E94B931882309F496
:100C3000A8C1A7019601C501B4010E94F2306B0161
:100C40007C01C0926E07D0926F07E0927007F0921D
:100C5000710720919A0830919B0840919C0850910F
:100C60009D08F80160817181828193810E94F23038
:100C7000A70196010E944B342B013C014092720760
:100C8000509273076092740770927507A7019601DE
:100C9000C701B6010E944B344B015C01809276077C
:100CA00090927707A0927807B0927907EB81FC8148
:100CB0002481358146815781F8016481758186815F
:100CC00097810E94F2306B017C01C0926E07D09236
:100CD0006F07E0927007F092710720919E083091A3
:100CE0009F084091A0085091A108F8016481758186
:100CF000868197810E94F230A70196010E944B34B1
:100D0000A30192010E94F3302B013C01A70196013F
:100D1000C701B6010E944B34A50194010E94F33033
:100D20009B01AC01C301B2010E94C0316B017C0187
:100D3000C0926E07D0926F07E0927007F092710731
:100D400020E030E040E85FE30E940A341816BCF06F
:100D5000F80180809180A280B38020E030E0A9017A
:100D6000C701B6010E94B93187FF9EC08092720709
:100D700090927307A0927407B09275070EC0EB8132
:100D8000FC8180819181A281B381809372079093CD
:100D90007307A0937407B0937507809172079091C1
:100DA0007307A0917407B0917507F1018083918357
:100DB000A283B38320917207309173074091740727
:100DC0005091750760919A0870919B0880919C08DA
:100DD00090919D080E94F230609328077093290734
:100DE00080932A0790932B0720E030E040E85FE3F0
:100DF000C701B6010E940A3418160CF07CC0EB81C2
:100E0000FC8184819581A681B7818093720790933C
:100E10007307A0937407B093750780917207909140
:100E20007307A0917407B0917507F10184839583CE
:100E3000A683B7832091720730917307409174079E
:100E40005091750760919E0870919F088091A0084D
:100E50009091A1080E94F23060932C0770932D07A7
:100E600080932E0790932F0788E297E0D8DDE981E1
:100E7000FA8160837183828393830F900F900F9028
:100E80000F90DF91CF911F910F91FF90EF90DF9026
:100E9000CF90BF90AF909F908F907F906F905F901A
:100EA0004F903F902F900895EB81FC8120813181FC
:100EB00042815381C701B6010E944B342B013C0192
:100EC000A701960160E070E080E89FE30E94F230A5
:100ED000A50194010E944B349B01AC01C301B201F6
:100EE0000E94F330609372077093730780937407C6
:100EF0009093750752CFF80184809580A680B780C3
:100F000020E030E0A901C701B6010E94B93187FF96
:100F100009C08092720790927307A0927407B092F2
:100F200075077BCFC0906E07D0906F07E090700779
:100F3000F0907107EB81FC812481358146815781D6
:100F4000C701B6010E944B342B013C01A701960159
:100F500060E070E080E89FE30E94F230A501940118
:100F60000E944B349B01AC01C301B2010E94F330DB
:100F7000609372077093730780937407909375075B
:100F80004CCFF101C082D182E282F382EB81FC81FD
:100F9000208131814281538160919A0870919B0830
:100FA00080919C0890919D080E94F23060932807E0
:100FB0007093290780932A0790932B07EB81FC817C
:100FC00084819581A681B781F10184839583A6836D
:100FD000B783EB81FC81248135814681578132CFF3
:100FE0002F923F924F925F926F927F928F929F9239
:100FF000AF92BF92CF92DF92EF92FF920F931F9327
:10100000CF93DF93CDB7DEB7CB54D1090FB6F894A9
:10101000DEBF0FBECDBF26967FAF6EAF2697289658
:101020005FAF4EAF28973E8B2D8B2C96FFAEEEAE6A
:101030002C97FB01E150F04CEE0FFF1FEE0FFF1F4E
:10104000E80FF91F80809180A280B3808F8A988EEC
:10105000A98EBA8EB501A401442777FD4395552783
:101060006627772729964FAF2997F901E150F04C71
:10107000EE0FFF1FEE0FFF1F2896AEACBFAC2897F8
:10108000EA0DFB1DC080D180E280F380CB8EDC8E28
:10109000ED8EFE8EB701A601442777FD43955527B7
:1010A000662777272A964FAF2A97188B0F87F80164
:1010B00030E020E02C96EEACFFAC2C972E153F05CF
:1010C0000CF43FC022969FAF8EAF22971A8B098BEC
:1010D000312C212C812C912C540183948D829E8261
:1010E000AF82B88626968EAC9FAC2697281439041A
:1010F0007CF129969FAC29972A96AFAC2A9730E0CD
:1011000020E041E050E060E070E09A10F5C1C55B7E
:10111000DF4F0FB6F894DEBF0FBECDBFDF91CF918A
:101120001F910F91FF90EF90DF90CF90BF90AF9005
:101130009F908F907F906F905F904F903F902F90F7
:10114000089511921192119211922F5F3F4FB2CFD9
:101150002296EEADFFAD229781919191A191B1912F
:101160002296FFAFEEAF22978F88988CA98CBA8C0D
:10117000B7FE23C04D815E816F8178854150510952
:10118000610971095A016B01A81AB90ACA0ADB0A76
:10119000D601C50121E0CD80DE80EF80F8848C157A
:1011A0009D05AE05BF0508F020E0822E912CB12CE4
:1011B000A12C8D829E82AF82B8865D01CC24DD2475
:1011C000A8A2B9A2CAA2DBA29C01AD01442755275F
:1011D0002CA33DA34EA35FA32C96EEADFFAD2C97A1
:1011E000E219F3098D889E888E169F060CF4F4018F
:1011F0002896AEACBFAC28972496BFAEAEAE24976F
:10120000C988DA88DC8ACB8A1E861D86812C912CBF
:101210005401839489869A86AB86BC86812C912C56
:101220005401CD84DE84CE16DF0604F1F7FF02C040
:10123000F0E0E0E0E20DF31D2C96EEACFFAC2C9755
:10124000EE15FF0554F4EE0FFF1FEE0FFF1FE00F2A
:10125000F11F80829182A282B3822FEF221A320A7A
:10126000E989FA893496FA8BE98B3CCF2496AEADA6
:10127000BFAD2497CD90DD90ED90FD902496BFAF4B
:10128000AEAF24972B8D3C8D4D8D5E8D57FF22C0C8
:1012900089859A85AB85BC850197A109B109AC0107
:1012A000BD014C195D096E097F096A017B0181E06E
:1012B00029853A854B855C85C216D306E406F5067A
:1012C00008F080E0482F50E070E060E049875A87DE
:1012D0006B877C87B7018827992768A779A78AA792
:1012E0009BA7EE24FF2428A139A14AA15BA1C70135
:1012F000B6010E94223D2B013C012CA13DA14EA133
:101300005FA168A579A58AA59BA50E94223D6CA72F
:101310007DA78EA79FA7AB89BC894D915D916D91EB
:101320007D91BC8BAB8BDB01CA01880D991DAA1D79
:10133000BB1D89839A83AB83BC8391E09F8F2981F6
:101340003A814B815C81281539054A055B0508F017
:101350001F8E2CA13DA14EA15FA1C701B6010E9425
:10136000223D6B017C0189809A80AB80BC808C0C13
:101370009D1CAE1CBF1C89829A82AB82BC8252012A
:101380009924882488AA99AAAAAABBAA29813A8161
:101390004B815C81280D391D4A1D5B1D2CAB3DAB7B
:1013A0004EAB5FAB8CA49DA4AEA4BFA45401992402
:1013B000882488AE99AEAAAEBBAE280D391D4A1D51
:1013C0005B1D2CAF3DAF4EAF5FAFAB89BC891497AF
:1013D0002D933D934D935C93139728A139A14AA176
:1013E0005BA168A579A58AA59BA50E94223D9F8C3B
:1013F000690D711D811D911D230166247724460E00
:10140000571E681E791E2CA53DA54EA55FA54A0155
:10141000AA24BB24840C951CA61CB71C81E090E078
:10142000A0E0B0E049815A816B817C814C155D055B
:101430006E057F0518F080E090E0DC01880D991DB5
:10144000AA1DBB1D41E050E060E070E088A899A8AB
:10145000AAA8BBA8CCA8DDA8EEA8FFA8C814D904E8
:10146000EA04FB0418F040E050E0BA01840F951F35
:10147000A61FB71F812C912C54018394C8ACD9AC02
:10148000EAACFBAC2CAD3DAD4EAD5FAD2C153D05D2
:101490004E055F0518F0812C912C5401880E991E81
:1014A000AA1EBB1E4D855E854F5F5F4F5E874D87D1
:1014B000B8CEEF85F889C190D190E190F190F88B8A
:1014C000EF87DB01CA010197A109B1098C199D09B8
:1014D000AE09BF09349780839183A283B383E1E08F
:1014E00084179507A607B70708F0E0E04E2F50E0F5
:1014F00070E060E02F5F3F4F2C968EAC9FAC2C9736
:1015000028153905B4F203CE2F923F924F925F9285
:101510006F927F928F929F92AF92BF92CF92DF9203
:10152000EF92FF920F931F93CF93DF9379011B01EB
:10153000DA01D0E0C0E040E050E0BA01CE15DF05AE
:101540009CF0DF91CF911F910F91FF90EF90DF9072
:10155000CF90BF90AF909F908F907F906F905F9053
:101560004F903F902F900895FC0181909190A19011
:10157000B190CF01F10101911191219131911F01A0
:1015800024013501401A510A620A730A930182014B
:10159000041B150B260B370B0D931D932D933D93B9
:1015A00066246394712CC12CD12C452B462B472BE0
:1015B00039F0081519052A053B0538F4612C05C0DA
:1015C00080169106A206B306C8F7A301B6012196BC
:1015D000B5CF2F923F924F925F926F927F928F92F0
:1015E0009F92AF92BF92CF92DF92EF92FF920F93B2
:1015F0001F93CF93DF9300D01F92CDB7DEB78B013F
:101600005C834B83FB01E150F04CEE0FFF1FEE0FAC
:10161000FF1FE80FF91F408151816281738177FDBF
:1016200027C04C01B12CA12CC12CD12C7601A016C5
:10163000B10664F5F40161917191819191914F012D
:101640000E9459324B815C810E9417349B01AC018E
:10165000C701B6010E94F3306B017C012B813C81F4
:10166000205E3F4F3C832B833FEFA31AB30ADFCFAB
:101670009A838983312C212C81E090E0A0E0B0E0B6
:10168000C12CD12C760120163106CCF0C701B60151
:101690000F900F900F900F90DF91CF911F910F91AE
:1016A000FF90EF90DF90CF90BF90AF909F908F9082
:1016B0007F906F905F904F903F902F900895E981B9
:1016C000FA814190519061907190FA83E98340943E
:1016D00050946094709453014201880E991EAA1E82
:1016E000BB1EC501B4010E9459324B815C810E942E
:1016F00017349B01AC01C701B6010E94F2306B01A7
:101700007C0181E084149504A604B70408F080E00D
:1017100090E0B0E0A0E02B813C81205E3F4F3C8315
:101720002B833FEF231A330AAECFFC0191E0809167
:10173000AB03811190E0918308958F929F92AF92B5
:10174000BF92CF92DF92EF92FF92CF93DF936B0124
:101750007C0149015A010E942425882399F0609157
:10176000F1087091F2088091F3089091F408DF91EC
:10177000CF91FF90EF90DF90CF90BF90AF909F9070
:101780008F900895C501B4010E9424258111E7CFEF
:10179000C701B6010E94DF248823E1F1C501B4012D
:1017A0000E94DF248823B1F120E030E0A901C701C5
:1017B000B6010E940A34CFEFDFEF181614F4C1E02F
:1017C000D0E020E030E0A901C501B4010E940A3454
:1017D0006FEF7FEF181614F461E070E0072E000C35
:1017E000880B990B0E945B326B017C01BE01DD0FFF
:1017F000880B990B0E945B32A7019601DF91CF9174
:10180000FF90EF90DF90CF90BF90AF909F908F9020
:101810000C94663120E030E0A901C501B4010E94BA
:10182000B931811116C020E030E0A901C701B6012D
:101830000E940A34181694F020E030E0A901C70194
:10184000B6010E94B93187FD0EC060E070E0CB01A7
:101850008ECFA5019401C701B601D0CF6BED7FE01B
:1018600089EC9FE384CF6BED7FE089EC9FEB7FCF2A
:101870002F923F924F925F926F927F928F929F92A0
:10188000AF92BF92CF92DF92EF92FF920F931F938E
:10189000CF93DF93CDB7DEB7E1970FB6F894DEBFF5
:1018A0000FBECDBF8091AB0391E0811190E090938A
:1018B000AC0391E0980F9A3008F049C09093AB03C5
:1018C000811120C08091CA089091CB08A091CC08CA
:1018D000B091CD088093080790930907A0930A0759
:1018E000B0930B078091CE089091CF08A091D008BB
:1018F000B091D10880930C0790930D07A0930E0729
:10190000B0930F078091D8088F3F19F08F5F8093B5
:10191000D8088091D60881111DC081E08093D60837
:101920001092D8088093D70810924207109243076C
:1019300010924407109245071092460710924707ED
:10194000109248071092490770E060E0D7C01092EB
:10195000AB03B6CF8091D708823009F45DC078F52B
:10196000813009F452C020E030E04FEA53E4609146
:1019700008077091090780910A0790910B070E9450
:10198000B93187FF6BC484E08093D7088DEC9CEC61
:10199000ACECBDE38093420790934307A0934407C8
:1019A000B093450782E99AE0A6E8BFEB809346072B
:1019B00090934707A0934807B09349079DC0833091
:1019C00009F495C0843079F6C0900807D0900907D3
:1019D000E0900A07F0900B0720E030E041EE53E47E
:1019E000C701B6010E940A341816A4F080900C07B3
:1019F00090900D07A0900E07B0900F0720E030E008
:101A000048EC53E4C501B40127C08091D80884365E
:101A100008F49ACF85E086CF80900C0790900D0750
:101A2000A0900E07B0900F0720E030E041EE53E4A5
:101A3000C501B4010E940A34181664F3C090080767
:101A4000D0900907E0900A07F0900B0720E030E003
:101A500048EC53E4C701B6010E94B93187FF4CC07E
:101A60001092D80883E08093D70810924207109212
:101A700043071092440710924507A5019401C7013E
:101A8000B6010E94F23060935E0770935F07809307
:101A90006007909361070E942425882309F4B6C348
:101AA0008091F1089091F208A091F308B091F408A8
:101AB00080935E0790935F07A0936007B0936107E0
:101AC0002BED3FE049E45FE360915E0770915F07B3
:101AD00080916007909161070E944B3460934607A4
:101AE00070934707809348079093490705C08091FA
:101AF000D808883C08F08ECF61E070E0072E000C1B
:101B0000880B990B0E945B326BA37CA38DA39EA3D1
:101B10002091A8023091A9024091AA025091AB02F3
:101B20000E940A3418160CF0BDC380914C029091AB
:101B30004D02A0914E02B0914F02809362079093A4
:101B40006307A0936407B093650760916207709183
:101B5000630780916407909165070E942D326F8F13
:101B600078A389A39AA32F8D38A12170332739A791
:101B700028A7DC01CB01B695A79597958795AC0171
:101B8000417055275BA74AA78F8D98A1A9A1BAA13B
:101B900052E0B695A795979587955A95D1F78CA75A
:101BA0009DA7AEA7BFA7C0903802D0903902E090A1
:101BB0003A02F0903B02A70196016091EE07709106
:101BC000EF078091F0079091F1070E94B9318823C7
:101BD00041F0C092EE07D092EF07E092F007F0924A
:101BE000F107C0903C02D0903D02E0903E02F090A0
:101BF0003F02A70196016091E6077091E707809187
:101C0000E8079091E9070E94B931882341F0C0921A
:101C1000E607D092E707E092E807F092E907C09064
:101C20004002D0904102E0904202F0904302A701AE
:101C300096016091EA077091EB078091EC07909113
:101C4000ED070E94B931882341F0C092EA07D09293
:101C5000EB07E092EC07F092ED0792E1C92E98E0D5
:101C6000D92E2CE5E22E22E0F22E3AE3A32E38E024
:101C7000B32E8701D6014D905D906D907D906D01E2
:101C8000F80121913191419151918F01C301B2012C
:101C90000E94B93181110FC3AC14BD0459F700E3A0
:101CA00017E084E8A82E82E0B82E6801D7016D9174
:101CB0007D918D919D917D010E94242591E081115E
:101CC00090E0F60191936F01AE14BF0479F7FE0125
:101CD000319625E337E0AF01F12CE12CD8018D914D
:101CE0008D01882329F081E014969C91911101C007
:101CF00080E0DA018D93AD01882319F0BFEFEB1A74
:101D0000FB0A2017310751F780E030E020E0919185
:101D1000992349F0A6E0B0E0AC0FBD1FA20FB31F9E
:101D20008C932F5F3F4F8F5F853089F7E114F1046B
:101D300009F0E3C210925E0710925F0710926007ED
:101D40001092610710925607109257071092580789
:101D50001092590780905E0790905F07A0906007EF
:101D6000B0906107C0905607D0905707E090580791
:101D7000F09059072091B4023091B5024091B6021B
:101D80005091B7026BA17CA18DA19EA10E940A3443
:101D9000181614F00C944C19809142079091430747
:101DA000A0914407B091450780934A0790934B0751
:101DB000A0934C07B0934D07809146079091470739
:101DC000A0914807B091490780934E0790934F0721
:101DD000A0935007B093510780904A0790904B070B
:101DE000A0904C07B0904D07C0904E07D0904F0781
:101DF000E0905007F09051072091940230919502A5
:101E00004091960250919702C501B4010E944B3453
:101E10002B013C0120919C0230919D0240919E0239
:101E200050919F02C701B6010E944B349B01AC0147
:101E3000C301B2010E94F330609310077093110741
:101E40008093120790931307209198023091990282
:101E500040919A0250919B02C501B4010E944B34FB
:101E60004B015C012091A0023091A1024091A2029D
:101E70005091A302C701B6010E944B349B01AC01F3
:101E8000C501B4010E94F3306093140770931507E5
:101E90008093160790931707C0904402D090450294
:101EA000E0904602F0904702A701960160914D082C
:101EB00070914E0880914F08909150080E94B9315E
:101EC000882341F0C0924D08D0924E08E0924F080E
:101ED000F092500880914C08811110924C08BE017C
:101EE000695E7F4F809151080E94ED04C0904802C6
:101EF000D0904902E0904A02F0904B02A70196016F
:101F00006091410870914208809143089091440883
:101F10000E94B931882341F0C0924108D092420812
:101F2000E0924308F0924408809140088111109299
:101F30004008BE016D5E7F4F809145080E94ED0410
:101F40008091380390913903A0913A03B0913B03FB
:101F50008F87988BA98BBA8B8F89988DA98DBA8D15
:101F60008B879C87AD87BE8732E0E32EF12C02E899
:101F700017E021E030E0AE01455F5F4F61E070E0C7
:101F8000CE010F962DD88B899C89AD89BE898B8710
:101F90009C87AD87BE870AE817E021E030E0AE01FC
:101FA000455F5F4F61E070E0CE010F9619D822E0E7
:101FB00030E042E957E06AEB78E082E897E0A4DAA3
:101FC00088E0E2E9F7E0AAEBB8E001900D928A958B
:101FD000E1F722E030E04AE957E062EC78E0C8013E
:101FE00093DA88E0EAE9F7E0A2ECB8E001900D921C
:101FF0008A95E1F750E040E062E070E08AEB98E01B
:10200000E8DA20E030E048E45DE20E944B342091C1
:1020100084023091850240918602509187020E948D
:102020004B346B017C01C0925E07D0925F07E09257
:102030006007F092610750E040E062E070E082ECFF
:1020400098E0C7DA20E030E048E45DE20E944B34DB
:1020500020918C0230918D0240918E0250918F021E
:102060000E944B34A70196010E94F3306093180739
:102070007093190780931A0790931B0750E040E074
:1020800062E070E08AEB98E0A4DA20E030E048E417
:102090005DE20E944B342091880230918902409188
:1020A0008A0250918B020E944B346B017C01C092DA
:1020B0005E07D0925F07E0926007F092610750E000
:1020C00040E062E070E082EC98E083DA20E030E00B
:1020D00048E45DE20E944B342091900230919102DD
:1020E00040919202509193020E944B34A7019601B5
:1020F0000E94F33060931C0770931D0780931E07A6
:1021000090931F07C0901007D0901107E09012071E
:10211000F09013078090B8029090B902A090BA0294
:10212000B090BB02A5019401C701B6010E940A3418
:10213000181614F00C945E1980926207909263074F
:10214000A0926407B092650740901407509015075D
:1021500060901607709017078090C0029090C1029F
:10216000A090C202B090C302A5019401C301B201C4
:102170000E940A34181614F00C947A19809266079B
:1021800090926707A0926807B0926907209166074E
:102190003091670740916807509169076091620725
:1021A0007091630780916407909165070E94F230F7
:1021B0004B015C018092620790926307A0926407D2
:1021C000B09265078091C8029091C902A091CA029D
:1021D000B091CB028B8F9C8FAD8FBE8F9C01AD01D8
:1021E000C501B4010E940A34181614F00C94961913
:1021F0002B8D3C8D4D8D5E8D209362073093630750
:1022000040936407509365070C94AC19C0905E0727
:10221000D0905F07E0906007F090610720E030E029
:10222000A901C701B6010E94B93187FF05C080E04E
:1022300090E0A0E8BFEB3CCC20E030E0A901C70172
:10224000B6010E940A34181624F080E090E0DC0108
:102250002FCC80E090E0A0E8BFE32ACC20E030E083
:102260004FEA53E460910C0770910D0780910E07BF
:1022700090910F070E94B93187FF66CB82E080936F
:10228000D7088DEC9CECACECBDE3809342079093B7
:102290004307A0934407B093450782E99AE0A6E874
:1022A000BFE384CB8091500290915102A0915202E1
:1022B000B091530242CCC301B2010E94242588236D
:1022C00051F0F801349760817181828193810E947D
:1022D00024258111E1CC88E2ECE5F2E0A2E1B8E04E
:1022E00001900D928A95E1F71092FA071092FB0780
:1022F0001092FC071092FD07D2CC20E030E0A9013B
:102300006091FA077091FB078091FC079091FD079F
:102310000E94B931811180C08E81082E000C990B6A
:10232000FC01EE0FFF1FEE0FFF1FE45AFD4F40812F
:102330005181628173814093F2075093F307609358
:10234000F4077093F507880F991F880F991FFC01F8
:10235000E059FD4F80819181A281B3818093F6077E
:102360009093F707A093F807B093F90780E090E007
:10237000A0E8BFE38093FA079093FB07A093FC07C4
:10238000B093FD07E1E0EFA3F1E0EF16F10409F0EF
:1023900045C08E81082E000C990BFC01EE0FFF1F2B
:1023A000EE0FFF1FE45AFD4F40815181628173811E
:1023B0004093F2075093F3076093F4077093F50787
:1023C0004093FE075093FF07609300087093010845
:1023D000880F991F880F991FFC01E059FD4F8081DC
:1023E0009181A281B38180935E0790935F07A09350
:1023F0006007B09361078093F6079093F707A09367
:10240000F807B093F9078093020890930308A0930C
:102410000408B0930508DCC21FA2B6CF20E030E06C
:1024200040E85FE36091FA077091FB078091FC0739
:102430009091FD070E94F3300E9428328E010B5FBD
:102440001F4F600F711FDB018C91082E000C990B40
:10245000FC01EE0FFF1FEE0FFF1FE45AFD4F4081FE
:1024600051816281738140931807509319076093DB
:102470001A0770931B07880F991F880F991FFC017B
:10248000E059FD4F80819181A281B38180931C0727
:1024900090931D07A0931E07B0931F078091F2072A
:1024A0009091F307A091F407B091F507809320076E
:1024B00090932107A0932207B09323078091F607FA
:1024C0009091F707A091F807B091F907809324073E
:1024D00090932507A0932607B093270722E537E0BE
:1024E00042EF57E068E177E080E297E00E94DB0589
:1024F00020E030E040E85FE36091FA077091FB076D
:102500008091FC079091FD070E94F3300E942832D1
:10251000600F711FFB01C0800C2C000CDD08F60160
:10252000EE0FFF1FEE0FFF1FE45AFD4F2081318198
:10253000428153816091F2077091F3078091F40713
:102540009091F5070E94F230609318077093190775
:1025500080931A0790931B07F601EE0FFF1FEE0FF3
:10256000FF1FE059FD4F20813181428153816091ED
:10257000F6077091F7078091F8079091F9070E948C
:10258000F23060931C0770931D0780931E07909391
:102590001F0788E197E00E940F056093560770932C
:1025A0005707809358079093590720E030E040E8A0
:1025B0005FE36091FA077091FB078091FC079091AF
:1025C000FD070E94F3304B015C01809266079092F8
:1025D0006707A0926807B0926907B701FF0C880BE4
:1025E000990B0E945B3220E030E040E85FE30E94FC
:1025F000F2302B013C01A501940160E070E080E81D
:102600009FE30E94F230A30192010E94F3300E94E6
:1026100028329B012150310939AB28AB1C8E1B8E0F
:102620002B8D3C8D48A959A942175307A4F14B8D16
:102630005C8DBA01550F880B990B0E945B3220917B
:1026400066073091670740916807509169070E94BB
:10265000F3306B017C01C0925A07D0925B07E09285
:102660005C07F0925D075FA151113FC32091EA071B
:102670003091EB074091EC075091ED0760915607C0
:102680007091570780915807909159070E940A341A
:1026900018160CF02AC320E030E040E85FE36091B8
:1026A000FA077091FB078091FC079091FD070E944B
:1026B000F3300E9428327E01A5E0EA0EF11C6E0D77
:1026C0007F1DFB010081002E000C110BF801EE0FA5
:1026D000FF1FEE0FFF1FE45AFD4F20813181428121
:1026E000538120935E0730935F07409360075093B8
:1026F00061076091F2077091F3078091F407909160
:10270000F5070E94F23060931807709319078093C1
:102710001A0790931B07000F111F000F111FF801DC
:10272000E059FD4F2081318142815381209362071E
:102730003093630740936407509365076091F607F1
:102740007091F7078091F8079091F9070E94F23095
:1027500060931C0770931D0780931E0790931F07BB
:1027600088E197E00E940F05609356077093570722
:1027700080935807909359070091F2071091F3073F
:102780002091F4073091F50700934A0710934B0707
:1027900020934C0730934D0700915E0710915F071F
:1027A0002091600730916107009310071093110783
:1027B00020931207309313070091F6071091F70743
:1027C0002091F8073091F90700934E0710934F07B7
:1027D00020935007309351070091620710916307CF
:1027E0002091640730916507009314071093150733
:1027F00020931607309317072091EA073091EB07D3
:102800004091EC075091ED070E94F230609352071F
:102810007093530780935407909355078091FA075C
:102820009091FB07A091FC07B091FD0780935E0794
:1028300090935F07A0936007B0936107C090520721
:10284000D0905307E0905407F090550720E030E017
:10285000A901C701B6010E94B93187FF11C080905C
:102860005E0790905F07A0906007B0906107A50198
:102870009401C301B2010E940A3418160CF447C334
:1028800020911007309111074091120750911307C2
:1028900060914A0770914B0780914C0790914D07CA
:1028A0000E94F230609318077093190780931A07FB
:1028B00090931B072091140730911507409116073C
:1028C0005091170760914E0770914F078091500704
:1028D000909151070E94F23060931C0770931D077E
:1028E00080931E0790931F0788E197E00E940F05D1
:1028F0009B01AC01C701B6010E94C0316B017C0194
:10290000C0925E07D0925F07E0926007F092610785
:1029100020E030E0A9010E940A3418160CF0C6C36A
:10292000A701960160E070E080E89FE30E94F2302A
:102930004B015C0120911007309111074091120763
:10294000509113070E944B342B013C0120914A0700
:1029500030914B0740914C0750914D07C701B6018C
:102960000E944B349B01AC01C301B2010E94F330C1
:102970006093FE077093FF0780930008909301080F
:1029800020911407309115074091160750911707B1
:10299000C501B4010E944B344B015C0120914E07EC
:1029A00030914F074091500750915107C701B60130
:1029B0000E944B349B01AC01C501B4010E94F3306D
:1029C00060930208709303088093040890930508AD
:1029D00020919A0830919B0840919C0850919D0845
:1029E0006091FE077091FF078091000890910108A7
:1029F0000E94F2306B017C0120919E0830919F086B
:102A00004091A0085091A1086091020870910308BC
:102A100080910408909105080E94F230A701960168
:102A20000E949D0B2091A2083091A3084091A40818
:102A30005091A5080E94F2306B017C01C0925E07A4
:102A4000D0925F07E0926007F09261079F772BEDCD
:102A50003FE049E450E40E940A3418160CF063C0C9
:102A60002BED3FE049E450E4C701B6010E94F3308A
:102A70000E942425882309F432C38091F1089091A3
:102A8000F208A091F308B091F40880935607909350
:102A90005707A0935807B093590720E030E0A901E9
:102AA0006091560770915707809158079091590788
:102AB0000E94B931811121C02BED3FE049E450E47F
:102AC00060915E0770915F07809160079091610748
:102AD0000E94F33020E030E0A9010E940A34181669
:102AE00064F48BED9FE0A9ECB0E4809356079093DB
:102AF0005707A0935807B09359072BED3FE049E4DF
:102B000050E4609156077091570780915807909153
:102B100059070E94F23060935E0770935F078093BD
:102B2000600790936107C0905E07D0905F07E090C8
:102B30006007F0906107C701B6010E94AE349B01A7
:102B4000AC010E94F3302091EA073091EB074091ED
:102B5000EC075091ED070E94C0314B015C0180925F
:102B6000560790925707A0925807B0925907C7018D
:102B7000B6019F772BED3FE049E450E40E94F2302C
:102B80009F7720E030E040E852E30E94B93187FFB0
:102B900023C0C501B4010E94242581111DC0C0902D
:102BA0005607D0905707E0905807F090590720E05B
:102BB00030E0A901C701B6010E94B93187FF32C3D5
:102BC00080E090E0A0E8BFEB809356079093570712
:102BD000A0935807B0935907C0905607D090570755
:102BE000E0905807F0905907C701B6019F772091F0
:102BF000E6073091E7074091E8075091E9070E9406
:102C00000A3418168CF5C701B6010E9424258823C2
:102C100009F41AC38091F1089091F208A091F30889
:102C2000B091F40880935E0790935F07A0936007CC
:102C3000B09361072091E6073091E7074091E807DC
:102C40005091E90760915E0770915F07809160077E
:102C5000909161070E944B34609356077093570719
:102C600080935807909359078091EE079091EF0752
:102C7000A091F007B091F10780935E0790935F07F2
:102C8000A0936007B093610780919A0890919B0888
:102C9000A0919C08B0919D08809306089093070826
:102CA000A0930808B093090880919E0890919F080E
:102CB000A091A008B091A10880930A0890930B08F6
:102CC000A0930C08B0930D088091A2089091A308DE
:102CD000A091A408B091A50880930E0890930F08C6
:102CE000A0931008B093110835C8C701B6010E941F
:102CF000283225E030E02C0F3D1F620F731FDB01EF
:102D00002C90022C000C3308F101EE0FFF1FEE0F88
:102D1000FF1FE45AFD4F80809180A280B38020E0A5
:102D200030E040E85FE3C701B6010E94F3300E9443
:102D30002832E5E0F0E0EC0FFD1F6E0F7F1FDB0196
:102D40000C91002E000C110BF801EE0FFF1FEE0F7F
:102D5000FF1FE45AFD4FC080D180E280F380A701BD
:102D60009601C501B4010E94F23060931807709378
:102D7000190780931A0790931B078092100790926F
:102D80001107A0921207B0921307C0922007D092A9
:102D90002107E0922207F0922307F101EE0FFF1FB7
:102DA000EE0FFF1FE059FD4F80809180A280B3801D
:102DB00080925E0790925F07A0926007B0926107D1
:102DC000000F111F000F111FF801E059FD4FC080C7
:102DD000D180E280F380C0926207D0926307E092D4
:102DE0006407F0926507A7019601C501B4010E942E
:102DF000F23060931C0770931D0780931E07909319
:102E00001F078092140790921507A0921607B092A0
:102E10001707C0922407D0922507E0922607F09268
:102E2000270788E197E00E940F059B01AC016091A4
:102E300056077091570780915807909159070E9443
:102E4000F330609356077093570780935807909319
:102E500059072EE537E04AE457E060E277E080E189
:102E600097E00E94DB05C0905E07D0905F07E0907E
:102E70006007F0906107209152073091530740910D
:102E8000540750915507C701B6010E94B93187FF19
:102E900038C0C0925207D0925307E0925407F09284
:102EA000550780914A0790914B07A0914C07B0912C
:102EB0004D078093F2079093F307A093F407B09324
:102EC000F50780914E0790914F07A0915007B09160
:102ED00051078093F6079093F707A093F807B093F4
:102EE000F90780915A0790915B07A0915C07B09118
:102EF0005D078093FA079093FB07A093FC07B093BC
:102F0000FD07EB8DFC8D3196FC8FEB8F89CB20E09C
:102F100030E040E85FE3C501B4010E94F3306B018B
:102F20007C01C0925E07D0925F07E0926007F0924A
:102F300061070E942832A5E0B0E0AC0FBD1F6A0F08
:102F40007B1FFB012080022C000C3308F101EE0FE7
:102F5000FF1FEE0FFF1FE45AFD4F80809180A2807B
:102F6000B38080924A0790924B07A0924C07B09290
:102F70004D0720E030E040E85FE3C701B6010E9462
:102F8000F3300E94283225E030E02C0F3D1F620F05
:102F9000731FDB010C91002E000C110BF801EE0FDA
:102FA000FF1FEE0FFF1FE45AFD4F20813181428148
:102FB00053812093100730931107409312075093C9
:102FC0001307C501B4010E94F23060931807709393
:102FD000190780931A0790931B07F101EE0FFF1F4B
:102FE000EE0FFF1FE059FD4F608171818281938157
:102FF000609352077093530780935407909355073B
:1030000060934E0770934F0780935007909351073A
:10301000000F111F000F111FF801E059FD4F208113
:10302000318142815381209362073093630740933B
:103030006407509365072093140730931507409356
:103040001607509317070E94F23060931C07709385
:103050001D0780931E0790931F0788E197E00E9449
:103060000F0520915607309157074091580750910E
:1030700059070E94F3306093560770935707809367
:103080005807909359072091EA073091EB07409138
:10309000EC075091ED070E94F23060935207709355
:1030A00053078093540790935507C8CB809110071E
:1030B00090911107A0911207B09113078093FE071A
:1030C0009093FF07A0930008B09301088091140724
:1030D00090911507A0911607B091170794C92BED91
:1030E0003FE049E450E460915E0770915F07809192
:1030F0006007909161070E94F3300E94DF248111E4
:10310000BCCC2BED3FE049E450E460915E07709148
:103110005F0780916007909161070E94F3304B0137
:103120005C0120E030E0A9010E94B931811109C0A1
:10313000109256071092570710925807109259078D
:10314000ACCC2BED3FE049EC50E4C501B4010E944A
:10315000B0322B013C0140925607509257076092C3
:1031600058077092590720E030E0A9010E94B93158
:103170008823F1F22BED3FE049EC50E4C501B401A6
:103180000E94C0316B017C01E894F7F8C0925207AD
:10319000D0925307E0925407F092550720E030E0B8
:1031A00040E05FE3C701B6010E94F3300E9496320F
:1031B0009B01AC01C701B6010E94F2309B01AC013A
:1031C0005F772B8F3C8F4D8F5E8F20E030E040E8A3
:1031D00055E2C701B6010E944B349B01AC016B8DD7
:1031E0007C8D8D8D9E8D0E940A3418160CF0A0CF18
:1031F00020E030E0A901C501B4010E94B93187FF88
:103200004CCC2BED3FE049EC50E4C301B2010E94ED
:10321000F330609356077093570780935807909345
:1032200059073BCC20E030E0A901C701B6010E945C
:103230000A34181624F080E090E0DC01C5CC80E070
:1032400090E0A0E8BFE3C0CCC0905607D0905707ED
:10325000E0905807F090590720E030E0A901C7013D
:10326000B6010E94B93187FF05C080E090E0A0E878
:10327000BFEBD8CC20E030E0A901C701B6010E9425
:103280000A34181624F080E090E0DC01CBCC80E01A
:1032900090E0A0E8BFE3C6CC80924A0790924B072B
:1032A000A0924C07B0924D07C0924E07D0924F07A4
:1032B000E0925007F09251070C94EC0E8090BC0203
:1032C0009090BD02A090BE02B090BF02A5019401F3
:1032D000C701B6010E94B93187FF02C00C949C104F
:1032E000C0926207D0926307E0926407F09265078C
:1032F0000C94A4108090C4029090C502A090C602C5
:10330000B090C702A5019401C301B2010E94B93176
:1033100087FF02C00C94BE10409266075092670768
:1033200060926807709269070C94C6108091CC0275
:103330009091CD02A091CE02B091CF028B8F9C8F45
:10334000AD8FBE8F9C01AD01C501B4010E94B931A2
:1033500087FF02C00C94F8108090D0029090D102A8
:10336000A090D202B090D302A5019401C701B6018A
:103370000E940A3418160CF054C08092660790928E
:103380006707A0926807B0926907C090D802D090F2
:10339000D902E090DA02F090DB02A7019601C301A6
:1033A000B2010E940A3418160CF054C0C0925E0795
:1033B000D0925F07E0926007F09261072091660764
:1033C00030916707409168075091690760915E07E7
:1033D00070915F0780916007909161070E94F230C1
:1033E0006B017C01C0926607D0926707E092680784
:1033F000F09269078090E0029090E102A090E202D2
:10340000B090E302A50194010E940A341816DCF57D
:103410008092660790926707A0926807B09269074A
:1034200042C08090D4029090D502A090D602B09075
:10343000D702A5019401C701B6010E94B93187FDE9
:103440009CCFC0926607D0926707E0926807F0921F
:1034500069079BCFC090DC02D090DD02E090DE02D5
:10346000F090DF02A7019601C301B2010E94B931B9
:1034700087FD9CCF40925E0750925F076092600785
:10348000709261079BCF8090E4029090E502A0903B
:10349000E602B090E702A5019401C701B6010E94BF
:1034A000B93187FDB5CFC0906207D0906307E09037
:1034B0006407F090650750E040E062E070E08AEB5E
:1034C00098E00E94E90A20E030E048E45DE20E94D2
:1034D0004B349B01AC01C701B6010E94F2304B0195
:1034E0005C018092100790921107A0921207B0928F
:1034F0001307C0906607D0906707E0906807F090C8
:10350000690750E040E062E070E082EC98E00E94E1
:10351000E90A20E030E048E45DE20E944B349B0180
:10352000AC01C701B6010E94F2306B017C01C09270
:103530001407D0921507E0921607F09217078091B2
:10354000A6089091A708A091A808B091A9088B8F10
:103550009C8FAD8FBE8F8093660790936707A09373
:103560006807B093690720910002309101024091F1
:10357000020250910302C501B4010E944B34209114
:10358000AA083091AB084091AC085091AD080E9458
:10359000F23020912002309121024091220250917C
:1035A00023020E944B342B013C014092560750925B
:1035B0005707609258077092590720912C0230915A
:1035C0002D0240912E0250912F02C701B6010E9498
:1035D0004B346BA37CA38DA39EA320910402309156
:1035E00005024091060250910702C701B6010E94F0
:1035F0004B342091B2083091B3084091B4085091F7
:10360000B5080E94F23020912402309125024091A9
:103610002602509127020E944B346B017C01C0921C
:103620005207D0925307E0925407F0925507209129
:1036300028023091290240912A0250912B02C501A3
:10364000B4010E944B342B8D3C8D4D8D5E8D0E94BC
:10365000F330A30192010E94F3304B015C01809290
:103660005E0790925F07A0926007B0926107209179
:10367000AE083091AF084091B0085091B1086BA1ED
:103680007CA18DA19EA10E94F330A70196010E940A
:10369000F3302B013C01C090F802D090F902E09089
:1036A000FA02F090FB02A7019601C501B4010E9445
:1036B0000A3418160CF0D0C1C0924A07D0924B07BA
:1036C000E0924C07F0924D07A7019601C301B201A9
:1036D0000E940A3418160CF0E7C1C0924E07D0922F
:1036E0004F07E0925007F092510720914E0730911A
:1036F0004F0740915007509151076091000370911E
:10370000010380910203909103030E944B34609364
:1037100062077093630780936407909365076AE07C
:1037200070E080E090E00E9496018C019093710817
:1037300080937008C0906207D0906307E0906407A0
:10374000F09065078090040390900503A090060315
:10375000B0900703A5019401C701B6010E940A3485
:1037600018160CF0BAC180925E0790925F07A09283
:103770006007B092610720E030E04FE753E46091CA
:103780005E0770915F0780916007909161070E94CA
:10379000B931181664F480E090E0AFE7B3E48093A9
:1037A0005E0790935F07A0936007B093610720E0E6
:1037B00030E0A90160915E0770915F07809160071A
:1037C000909161070E940A3487FF08C010925E073B
:1037D00010925F07109260071092610740915E0798
:1037E00050915F076091600770916107C8010E9466
:1037F0005F0169E070E080E090E00E9496018C013A
:103800009093690880936808C0906207D09063071E
:10381000E0906407F090650780900C0390900D0392
:10382000A0900E03B0900F03A5019401C701B6014B
:103830000E940A3418160CF069C180925E079092BB
:103840005F07A0926007B0926107C0905E07D090BA
:103850005F07E0906007F0906107E894F7F820E0D8
:1038600030E04FE753E4C701B6010E94B9311816A2
:103870000CF465C1C0925E07D0925F07E0926007CA
:10388000F092610740915E0750915F076091600779
:1038900070916107C8010E945F0111E020915802F8
:1038A0003091590240915A0250915B026091620737
:1038B0007091630780916407909165070E94B93108
:1038C000811101C010E0612F88E00E9481032091E6
:1038D0004A0730914B0740914C0750914D0760913A
:1038E00014037091150380911603909117030E94A1
:1038F0004B349B01AC0120936207309363074093E4
:1039000064075093650711E060915402709155026D
:1039100080915602909157020E94B931811101C0E5
:1039200010E0612F8DE00E9481036CE070E080E088
:1039300090E00E9496018C0190936108809360084A
:10394000C0906207D0906307E0906407F09065072D
:103950008090180390901903A0901A03B0901B0355
:10396000A5019401C701B6010E940A3418160CF093
:10397000F3C080925E0790925F07A0926007B092BA
:10398000610720E030E04FE753E460915E077091FB
:103990005F0780916007909161070E94B931181606
:1039A00064F480E090E0AFE7B3E480935E07909327
:1039B0005F07A0936007B093610720E030E0A901A2
:1039C00060915E0770915F07809160079091610739
:1039D0000E940A3487FF08C010925E0710925F07AA
:1039E000109260071092610740915E0750915F0747
:1039F0006091600770916107C8010E945F016BE0F0
:103A000070E080E090E00E9496018C01909359084C
:103A1000809358088090620790906307A090640795
:103A2000B0906507C0902003D0902103E09022035E
:103A3000F0902303A7019601C501B4010E940A3446
:103A400018160CF0A2C0C0926207D0926307E092F1
:103A50006407F0926507A9C02091FC023091FD0235
:103A60004091FE025091FF022B8F3C8F4D8F5E8F55
:103A7000C501B4010E94B93187FF0DC08B8D9C8DAB
:103A8000AD8DBE8D80934A0790934B07A0934C0752
:103A9000B0934D0719CE80924A0790924B07A0929F
:103AA0004C07B0924D0710CEC090FC02D090FD02A2
:103AB000E090FE02F090FF02A7019601C301B2015F
:103AC0000E94B93187FD09CE40924E0750924F07B0
:103AD000609250077092510708CE80900803909032
:103AE0000903A0900A03B0900B03A5019401C7013C
:103AF000B6010E94B93187FD36CEC0925E07D092E2
:103B00005F07E0926007F092610735CE8090100366
:103B100090901103A0901203B0901303A50194019B
:103B2000C701B6010E94B93187FD87CEC0925E07FA
:103B3000D0925F07E0926007F092610786CE80E046
:103B400090E0AFE7B3E480935E0790935F07A093A4
:103B50006007B093610796CE80901C0390901D0380
:103B6000A0901E03B0901F03A5019401C701B601E8
:103B70000E94B93187FDFDCEC0925E07D0925F07EB
:103B8000E0926007F0926107FCCEC0902403D090D1
:103B90002503E0902603F0902703A7019601C501B5
:103BA000B4010E94B93187FD4ECFC0906207D0901A
:103BB0006307E0906407F0906507E894F7F820E069
:103BC00030E04FE753E4C701B6010E94B93118163F
:103BD0000CF409C2C0925E07D0925F07E0926007C2
:103BE000F092610740915E0750915F076091600716
:103BF00070916107C8010E945F01C090D208D09007
:103C0000D308E090D408F090D508C701B6010E940F
:103C10005B322B013C012091300330913103409104
:103C20003203509133030E94B93187FFE9C1F7FC99
:103C3000E7C18090280390902903A0902A03B090B8
:103C40002B038092620790926307A0926407B09260
:103C5000650720E030E040E85FE360912C0370915D
:103C60002D0380912E0390912F030E94F2309B012F
:103C7000AC01C301B2010E940A3487FDC5C1109294
:103C8000D2081092D3081092D4081092D508A8A593
:103C9000B9A511E0AB2B49F020E030E0A901C50146
:103CA000B4010E94B931811110E0012F6F8D78A10C
:103CB00089A19AA123E096958795779567952A958E
:103CC000D1F7617077276115710509F0612F80E3E5
:103CD0000E9481038CA59DA581709927892B09F4E9
:103CE00010E0612F82E30E948103EAA5FBA5EF2B80
:103CF00019F061E0011101C060E084E30E948103DA
:103D000040909A0850909B0860909C0870909D0885
:103D100040925E0750925F07609260077092610761
:103D2000C090A208D090A308E090A408F090A50845
:103D3000C0926207D0926307E0926407F092650731
:103D400020919E0830919F084091A0085091A108B1
:103D50002F8F38A349A35AA3209366073093670790
:103D60004093680750936907C0925A07D0925B0747
:103D7000E0925C07F0925D07C0926A07D0926B07F1
:103D8000E0926C07F0926D07C701B6010E94BD3149
:103D9000209118073091190740911A0750911B077D
:103DA0002B8F3C8F4D8F5E8F8090AC029090AD0238
:103DB000A090AE02B090AF020E944B34A5019401D6
:103DC0000E944B34A30192010E94F33060939A0841
:103DD00070939B0880939C0890939D08C701B6013F
:103DE0000E94AE349B01AC016B8D7C8D8D8D9E8DC0
:103DF0000E944B34A50194010E944B342F8D38A1B1
:103E000049A15AA10E94F33060939E0870939F08C5
:103E10008093A0089093A10820911C0730911D0762
:103E200040911E0750911F07C501B4010E944B34F9
:103E3000A70196010E94F3306093A2087093A30833
:103E40008093A4089093A50888E0E2E8F7E0AAEB45
:103E5000B8E001900D928A95E1F788E0EAE8F7E092
:103E6000A2ECB8E001900D928A95E1F7209110073D
:103E700030911107409112075091130760910C0285
:103E800070910D0280910E0290910F020E944B34AE
:103E90002091E8023091E9024091EA025091EB0250
:103EA0000E944B342091A6083091A7084091A808A1
:103EB0005091A9080E94F3306093A6087093A70858
:103EC0008093A8089093A90820915607309157072E
:103ED00040915807509159076091EC027091ED02A2
:103EE0008091EE029091EF020E944B342091AA083B
:103EF0003091AB084091AC085091AD080E94F3306E
:103F00006093AA087093AB088093AC089093AD08B7
:103F1000209114073091150740911607509117070B
:103F2000609108027091090280910A0290910B023F
:103F30000E944B342091F0023091F1024091F20244
:103F40005091F3020E944B342091AE083091AF089B
:103F50004091B0085091B1080E94F3306093AE08D0
:103F60007093AF088093B0089093B10820915207E6
:103F70003091530740915407509155076091F402D6
:103F80007091F5028091F6029091F7020E944B34F5
:103F90002091B2083091B3084091B4085091B5080F
:103FA0000E94F3306093B2087093B3088093B40812
:103FB0009093B508E1960FB6F894DEBF0FBECDBF63
:103FC000DF91CF911F910F91FF90EF90DF90CF90F5
:103FD000BF90AF909F908F907F906F905F904F9029
:103FE0003F902F90089580E090E0AFE7B3E4809396
:103FF0005E0790935F07A0936007B0936107F2CDCF
:10400000812C912C54011DCE9FEFC91AD90AE90ABF
:10401000F90AC092D208D092D308E092D408F09264
:10402000D50835CE46EB58E06EE377E08AE397E0BB
:104030000CD5E8E0F7E082A993A9A4A9B5A98093DB
:10404000CA089093CB08A093CC08B093CD0886A95A
:1040500097A9A0ADB1AD8093CE089093CF08A0935F
:10406000D008B093D10846EB58E06EE377E08AE3DE
:1040700097E0EDC48F929F92AF92BF92EF92FF9222
:104080000F931F93CF9384E090E062D48091ED086A
:104090009091EE08A091EF08B091F0088093B802DB
:1040A0009093B902A093BA02B093BB024091F50875
:1040B0005091F6086091F7087091F8084093C40297
:1040C0005093C5026093C6027093C7024093D40216
:1040D0005093D5026093D6027093D7028093D80292
:1040E0009093D902A093DA02B093DB02E8EAF3E0FE
:1040F00085E0DF011D928A95E9F7E0E1F7E082E9CA
:10410000DF011D928A95E9F7E2EAF7E083E491E0A6
:10411000DF019C011D9221503040E1F78091A40203
:104120009091A502A091A602B091A70280930807E2
:1041300090930907A0930A07B0930B0780930C078D
:1041400090930D07A0930E07B0930F0781E0809323
:10415000E4088091380290913902A0913A02B0911E
:104160003B028093EE079093EF07A093F007B09384
:10417000F10780913C0290913D02A0913E02B091E6
:104180003F028093E6079093E707A093E807B09378
:10419000E9078091400290914102A0914202B091C2
:1041A00043028093EA079093EB07A093EC07B09348
:1041B000ED0781E090E0A0E0B0E08093A20790934B
:1041C000A307A093A407B093A5078091F10890914D
:1041D000F208A091F308B091F408E2E1F8E08193CD
:1041E0009193A193B19338E0EA33F307C1F7809339
:1041F000F2079093F307A093F407B093F507809329
:10420000F6079093F707A093F807B093F907C1E07A
:10421000C093DD088091440290914502A09146022E
:10422000B091470280934D0890934E08A0934F0899
:10423000B0935008812C912C5401839480924708AC
:1042400090924808A0924908B0924A0841E558E087
:1042500063E082E00E94E403C0934B0810924C0894
:104260001092450810923A08C093DC0880914802E9
:1042700090914902A0914A02B0914B02809341086B
:1042800090934208A0934308B093440880923B085F
:1042900090923C08A0923D08B0923E0845E458E058
:1042A00063E182E10E94E403C0933F08109240085A
:1042B00010926A08C093E30880926B0890926C0891
:1042C000A0926D08B0926E08E12CF12C8701A80134
:1042D00097016AE070E080E090E00E94DA0190933C
:1042E000710880937008C0936F0810926208C093A1
:1042F000E2088092630890926408A0926508B092E8
:104300006608A801970169E070E080E090E00E94F3
:10431000DA019093690880936808C0936708109247
:104320008A08C093E00880928B0890928C08A09233
:104330008D08B0928E0861E088E00E947903C093F6
:104340008F0810929208C093E1088092930890928F
:104350009408A0929508B092960861E08DE00E94C2
:104360007903C093970810925A08C093DF0880928F
:104370005B0890925C08A0925D08B0925E08A8016C
:1043800097016CE070E080E090E00E94DA01909389
:10439000610880936008C0935F0810925208C09330
:1043A000DE088092530890925408A0925508B0926B
:1043B0005608A80197016BE070E080E090E00E9451
:1043C000DA019093590880935808C09357081092C7
:1043D0008208C093DB088092830890928408A092A0
:1043E0008508B092860861E080E30E947903C0935B
:1043F000870810927A08C093DA0880927B0890921E
:104400007C08A0927D08B0927E0861E082E30E9461
:104410007903C0937F0810927208C093D9088092E4
:10442000730890927408A0927508B092760861E0C3
:1044300084E30E947903C09377088091A40290914D
:10444000A502A091A602B091A7028093CA089093FA
:10445000CB08A093CC08B093CD088093CE0890935E
:10446000CF08A093D008B093D1088091B00290916A
:10447000B102A091B202B091B30280939A089093D6
:104480009B08A0939C08B0939D0880939E089093EE
:104490009F08A093A008B093A1088093A2089093CE
:1044A000A308A093A408B093A50888E0E0E3F2E095
:1044B000AAEBB8E001900D928A95E1F788E0E0E37D
:1044C000F2E0A2ECB8E001900D928A95E1F78091BC
:1044D000180290911902A0911A02B0911B028093C8
:1044E000A6089093A708A093A808B093A908809164
:1044F000100290911102A0911202B09113028093C8
:10450000AA089093AB08A093AC08B093AD08809133
:104510001C0290911D02A0911E02B0911F02809377
:10452000AE089093AF08A093B008B093B108809103
:10453000140290911502A0911602B0911702809377
:10454000B2089093B308A093B408B093B508109242
:10455000D2081092D3081092D4081092D508E09295
:10456000B608F092B7080093B8081093B9081092F3
:10457000D8081092D6081092D708E0924207F0921D
:1045800043070093440710934507A80197016091E2
:10459000FE077091FF0780910008909101080E942A
:1045A0004B346093FE077093FF078093000890934D
:1045B0000108E0924607F0924707009348071093DE
:1045C0004907A80197016091020870910308809142
:1045D0000408909105080E944B3460930208709380
:1045E00003088093040890930508A801970160913F
:1045F00006087091070880910808909109080E94A8
:104600004B346093060870930708809308089093D2
:104610000908A801970160910A0870910B08809120
:104620000C0890910D080E944B3460930A08709317
:104630000B0880930C0890930D08A80197016091D6
:104640000E0870910F0880911008909111080E9437
:104650004B3460930E0870930F088093100890936A
:1046600011088091F1089091F208A091F308B0919F
:10467000F4088093F2079093F307A093F407B093A4
:10468000F5078093F6079093F707A093F807B09388
:10469000F907A80197016091FA077091FB078091D3
:1046A000FC079091FD070E944B346093FA077093CA
:1046B000FB078093FC079093FD07809151080E94AF
:1046C000FF0480914508CF911F910F91FF90EF90CB
:1046D000BF90AF909F908F900C94FF0480914608FC
:1046E000811114C081E08093460880914708909121
:1046F0004808A0914908B0914A080197A105B10561
:1047000029F480914B0881110E940C0580913A0890
:10471000811114C081E080933A0880913B08909108
:104720003C08A0913D08B0913E080197A105B10554
:1047300029F480913F0881110E940C0580916A083C
:1047400081112EC081E080936A0880916B0890915E
:104750006C08A0916D08B0916E080197A105B10594
:10476000F9F480916F088823D9F06AE070E080E066
:1047700090E00E949601909371088093700840E049
:1047800050E0BA010E945F016AE070E080E090E0D2
:104790000E94960190937108809370080E942B02EA
:1047A0008091620881112EC081E08093620880911F
:1047B000630890916408A0916508B091660801971C
:1047C000A105B105F9F4809167088823D9F069E063
:1047D00070E080E090E00E949601909369088093D9
:1047E000680840E050E0BA010E945F0169E070E0B3
:1047F00080E090E00E949601909369088093680899
:104800000E942B0280918A08811103C081E080936D
:104810008A0880919208811103C081E080939208F8
:1048200080915A0881112EC081E080935A088091AE
:104830005B0890915C08A0915D08B0915E080197BB
:10484000A105B105F9F480915F088823D9F06CE0E7
:1048500070E080E090E00E94960190936108809360
:10486000600840E050E0BA010E945F016CE070E037
:1048700080E090E00E949601909361088093600828
:104880000E942B028091520881112EC081E08093FA
:1048900052088091530890915408A0915508B09106
:1048A00056080197A105B105F9F4809157088823AE
:1048B000D9F06BE070E080E090E00E949601909368
:1048C00059088093580840E050E0BA010E945F0107
:1048D0006BE070E080E090E00E94960190935908B0
:1048E000809358080E942B0280918208811103C096
:1048F00081E08093820880917A08811103C081E071
:1049000080937A0880917208811103C081E08093BE
:104910007208089560E070E080E89FE7089560E025
:1049200070E080E89FE7089560E070E080E89FEF26
:10493000089560E070E080E89FEF089560E070E027
:1049400080EC9FEF089560E070E080EC9FEF0895A9
:10495000F5DF6093F1087093F2088093F308909369
:10496000F408F1DF6093E5087093E6088093E708A8
:104970009093E808CFDF6093ED087093EE08809382
:10498000EF089093F008CBDF6093E9087093EA0892
:104990008093EB089093EC08C7DF6093F508709361
:1049A000F6088093F7089093F808C3DF6093F9083E
:1049B0007093FA088093FB089093FC080895CF92B7
:1049C000DF92EF92FF92CF936B017C01AC019B01D0
:1049D0006091ED087091EE088091EF089091F008D9
:1049E0000E94B931C1E0882371F0A701960160915E
:1049F000F5087091F6088091F7089091F8080E94E8
:104A0000B9318111C0E08C2FCF91FF90EF90DF90F2
:104A1000CF9008950F931F938B019C0100271127BE
:104A200020783F770115110520483F4749F4AB0135
:104A3000BC016F77772781E0452B462B472B09F484
:104A400080E01F910F910895E5CF0C94292F0C94CD
:104A5000622F90E080E00895809163049091640457
:104A6000891B990B089590916404809163042FEF42
:104A70003FEF981748F4E92FF0E0EB59FB4F208106
:104A800030E09F5F90936404C9010895E09164044D
:104A900080916304E81730F4F0E0EB59FB4F80811C
:104AA00090E008958FEF9FEF0895089591E090931F
:104AB0003F048093620410924104109240040895D0
:104AC0001092320481E08093300410922F0461E050
:104AD00084E10E946D3961E085E10E946D39E9EB66
:104AE000F0E080818E7F808380818D7F808388E469
:104AF0008093B80085E48093BC000895109264040C
:104B0000109263041092410410924004D9CF4132B4
:104B100008F041C0909132049111FCCF91E0909344
:104B20003204209330042FEF2093C50310920A041F
:104B3000240F209309049093310490913104880F3D
:104B4000892B8093310480912F04813011F51092CC
:104B50002F04809131048093BB008091BC0083FDC1
:104B6000F8CF85EC8093BC00809132048130E1F372
:104B700080910A04841710F440910A04ABE0B4E079
:104B8000962FFB018E2F891B841730F48D91819312
:104B9000F9CF85EEE7CF40E0842F08950F9341329F
:104BA00008F04BC0909132049111FCCF92E09093A9
:104BB0003204009330049FEF9093C50310920A04CF
:104BC00040930904362FABE0B4E0FB019E2F931B0A
:104BD000941718F491919D93F9CF1092310490910C
:104BE0003104880F892B8093310480912F04813008
:104BF00011F510922F04809131048093BB008091B5
:104C0000BC0083FDF8CF85EC8093BC00222321F00B
:104C1000809132048230D1F38091C5038F3F79F0C7
:104C20008091C503803269F08091C503803359F0CB
:104C300084E00F91089585EEE7CF81E0FACF80E020
:104C4000F8CF82E0F6CF83E0F4CF0F93062F21E078
:104C50004091400462E474E0809162049FDF10920E
:104C600041041092400410923F040F9108954F9216
:104C70005F926F927F92AF92BF92CF92EF92FF922C
:104C80000F931F93CF93DF935C01F62ED42F28014F
:104C90003901EE2011F1862F09DFCE2DC43008F046
:104CA000C3E0C150B8F028E0C29FC0011124A301A5
:104CB000920104C056954795379527958A95D2F766
:104CC000B901D501ED91FC910190F081E02DC50174
:104CD0001995E7CF60E0C501B8DF4D2FD13208F05C
:104CE00040E22C2D65E674E08F2D11DF10926404F4
:104CF00080936304DF91CF911F910F91FF90EF900C
:104D0000CF90BF90AF907F906F905F904F9008953D
:104D1000CF92EF920F931F93C22EE12C00E010E090
:104D20009801A5DF1F910F91EF90CF90089521E09A
:104D3000EFCF61E08ACF2091E703260F3327331F9F
:104D400021323105E4F4209132042430D1F4FC0105
:104D500090E080E0861760F4A091E7032191AC0118
:104D600047515C4FA40FB52FB11D2C930196F2CF84
:104D70008091E703680F6093E70380E0089581E086
:104D8000089582E00895CF93DF931F92CDB7DEB7E9
:104D9000698320913F042223F9F0209140042032BE
:104DA00058F021E030E0FC013383228390E080E082
:104DB0000F90DF91CF91089580914104E82FF0E0AA
:104DC000EE5BFB4F998190838F5F809341048093CA
:104DD000400481E090E0ECCF61E0CE010196ABDFD2
:104DE000F8CFCF92DF92EF92FF920F931F93CF9362
:104DF000DF937C01CB018A0120913F04222389F0BB
:104E0000EB016B01C40ED51ECC15DD0561F0699177
:104E1000D701ED91FC910190F081E02DC70119952A
:104E2000F3CF642F88DFC801DF91CF911F910F91DD
:104E3000FF90EF90DF90CF90089585ED8093BC00B8
:104E40008091BC0084FDFCCF10923204089585EC63
:104E50008093BC001092320408951F920F920FB6F7
:104E60000F9211240BB60F922F933F934F935F93A2
:104E70006F937F938F939F93AF93BF93EF93FF9322
:104E80008091B900887F803609F44CC008F03FC09B
:104E9000883209F4A8C028F5803109F49CC0C8F410
:104EA000882309F4F8C0883009F495C0FF91EF9188
:104EB000BF91AF919F918F917F916F915F914F9132
:104EC0003F912F910F900BBE0F900FBE0F901F9030
:104ED0001895883109F487C0803241F78093C50363
:104EE00014C0803409F49CC040F48033B9F3883393
:104EF000E9F68093C503ABDFD9CF803509F484C0D0
:104F0000883509F495C0883489F697DFCFCF883982
:104F100009F48CC038F5883729F050F4883611F040
:104F2000803721F683E0809332041092C60357C085
:104F3000883809F47BC0803919F0803809F0B6CF81
:104F40008091C603803208F071C0E091C60381E011
:104F50008E0F8093C6038091BB00F0E0E953FC4FB5
:104F600080833DC0803B39F0E0F4803A09F479C099
:104F7000883A09F09BCF84E0809332041092E803D2
:104F80001092E703E0912D04F0912E041995809181
:104F9000E70381110FC081E08093E7031092E903DA
:104FA00009C0803C09F475C0883C09F472C0883B94
:104FB00009F07CCFE091E80381E08E0F8093E80355
:104FC000F0E0E751FC4F80818093BB009091E803B3
:104FD0008091E70329C0809131048093BB0085EC68
:104FE0008093BC0063CF90910A04809109049817C4
:104FF00058F5E0910A0481E08E0F80930A04F0E0F6
:10500000E55FFB4F8081E9CFE0910A0481E08E0FDC
:1050100080930A048091BB00F0E0E55FFB4F808342
:1050200090910A04809109049817C8F285E8D8CFB6
:10503000E0910A0481E08E0F80930A048091BB0006
:10504000F0E0E55FFB4F80838091300481115DCFFC
:1050500081E080932F0484EA8093BC001092320494
:1050600025CFF5DE8091C603803230F4E091C6038F
:10507000F0E0E953FC4F10826091C60370E0E091CC
:105080002B04F0912C0487EC93E019951092C60341
:105090000DCF85ECE1CF1092C50337CF0F931F934F
:1050A000CF93DF93EC01062F142F8981FFDC602F53
:1050B00083E394E068DE612F83E394E064DE83E3BE
:1050C00094E037DE8883DF91CF911F910F9108958F
:1050D0001F93CF93DF93EC01162F462F4F776AE88B
:1050E000DDDF1983DF91CF911F910895FF920F9318
:1050F0001F93CF93DF93EC01F62E142F052F898198
:10510000D5DC6F2D83E394E03EDE602F83E394E0F3
:105110003ADE612F83E394E036DE83E394E009DE38
:105120008883DF91CF911F910F91FF900895CF92C7
:10513000DF92EF92FF921F93CF93DF93EC01162F34
:1051400069017A018981B2DC612F83E394E01BDE7F
:105150006F2D77278827992783E394E014DEB70122
:105160008827992783E394E00EDE99278F2D7E2DE3
:105170006D2D83E394E007DE6C2D83E394E003DE82
:1051800083E394E0D6DD8883DF91CF911F91FF9078
:10519000EF90DF90CF9008951F93CF93DF93EC01B2
:1051A000162F898183DC612F83E394E0ECDD83E3B8
:1051B00094E0BFDD888341E0698183E394E0B7DD5B
:1051C00083E394E050DCDF91CF911F9108951F930A
:1051D000CF93DF93EC01162F898168DC612F83E385
:1051E00094E0D1DD83E394E0A4DD888342E069812B
:1051F00083E394E09CDD83E394E035DCD82F80E00A
:10520000C82F83E394E02FDC8C2B9D2BDF91CF9173
:105210001F910895DF92EF92FF920F931F93CF9308
:10522000DF937C01C62FD42E052F122FFC01818124
:105230003DDC6C2F83E394E0A6DDCD2DD02F115003
:1052400028F0699183E394E09EDDF9CF83E394E055
:1052500070DDF7018083DF91CF911F910F91FF9057
:10526000EF90DF900895EF92FF920F931F93CF93EB
:10527000DF93EC01E62EF42E052F122F898116DC28
:105280006E2D83E394E07FDD83E394E052DD888339
:10529000412F698183E394E04ADDCF2DD02F115057
:1052A00028F083E394E0DFDB8993F9CFDF91CF919E
:1052B0001F910F91FF90EF9008956115710529F4EA
:1052C00060E56ADF8F5F880F08956130710511F422
:1052D00060E7F7CF8FEF0895CF92DF92EF92FF92C2
:1052E000CF93DF93EC016A017B0141E060E8D6DEF9
:1052F00041E06FEFCE01D2DE40E060E0CE01CEDED5
:105300004F8161E9CE01CADE41E060E0CE01C6DE38
:1053100040E06FEFCE01C2DE40E060E8CE01BEDECD
:1053200042E0C114D104E104F10491F068EFCE0130
:105330004EDF009739F0DC01A70196010E945B3D2A
:105340006B017C01A701960164E0CE01F0DE44E030
:1053500060E0CE01DF91CF91FF90EF90DF90CF9092
:105360009DCE0F931F93CF93DF93EC010E942E37B6
:105370007E836D8363E1CE010FDF8770C9F48A817C
:105380009B81892BB9F30E942E372D813E81621BB0
:10539000730B8A819B818617970760F781E08C8366
:1053A0000FEF1FEFC801DF91CF911F910F9108956B
:1053B0006EE1CE010CDF8C0141E06BE0CE016EDED0
:1053C000F1CFEF92FF920F931F93CF93DF93EC01F6
:1053D0007B018A0141E060E861DE41E06FEFCE01D0
:1053E0005DDE40E060E0CE0159DE46E06FEFCE01C9
:1053F00055DE63E8CE01D0DE482F446063E8CE017D
:105400004DDE47E06FEFCE0149DE41E061E8CE01BD
:1054100045DE41E060E8CE0141DE4BE664E9CE01C5
:105420003DDE40E063E8CE0139DE0E942E377E8308
:105430006D8363E8CE01B0DE811111C08A819B814A
:10544000892BB9F30E942E372D813E81621B730B8D
:105450008A819B818617970760F780E031C041E021
:1054600063E8CE011BDE62E9CE0196DE982F9F77BE
:10547000F7019083881F8827881FF801808340E008
:1054800061E8CE010BDE46E06FEFCE0107DE63E898
:10549000CE0182DE482F4B7F63E8CE01FFDD41E085
:1054A0006FEFCE01FBDD41E060E0CE01F7DD40E0D3
:1054B0006FEFCE01F3DD40E060E8CE01EFDD81E08B
:1054C000DF91CF911F910F91FF90EF900895CF93AF
:1054D000DF93EB0161E060DE84FB992790F998830C
:1054E00083FB992790F99A8382FB992790F99983F6
:1054F00086FB992790F99B83881F8827881F8C83B8
:10550000DF91CF9108959C013327A90102C0440F78
:10551000551F9A95E2F7CA01019608950F931F93BC
:105520000097B9F00197B0E0A0E050E040E08C01B6
:105530009D010027012B022B032B39F0B695A7956F
:10554000979587954F5F5F4FF2CF342F2227822B9D
:10555000932B1F910F9108954F925F926F927F92BC
:105560008F929F92AF92BF92CF92DF92EF92FF9273
:105570005C01A62FB0E020E03FE24AE350E00E9449
:105580005B3D6B017C0124EFC20E21E0D21EE11CC9
:10559000F11C88EE482E83E0582E612C712CC70137
:1055A000B601A30192010E94313DD5010E945B3DED
:1055B0004B015C01C701B60120ED37E040E050E04F
:1055C0000E94313DC501B401620F731F841F951FF6
:1055D000A30192010E94313DCA01B901FF90EF90F1
:1055E000DF90CF90BF90AF909F908F907F906F9003
:1055F0005F904F900895EF92FF920F931F93CF9378
:10560000DF938C017B01EA0170E060E056DE90E000
:105610009983888366E4C801BFDD90E001969D838D
:105620008C83688199DF6A877B878C879D8761E59A
:10563000C801CDDD68DF9F838E8368818DDF6E8733
:105640007F87888B998B60E7C801A6DD8F5F880F05
:1056500090E09B838A8361E7C801B9DD54DF9987B5
:105660008887F7012381222331F02E813F81821B1D
:10567000930B998788876A81888599856DDF6A8B06
:105680007B8B8C8B9D8BDF91CF911F910F91FF9026
:10569000EF900895CF92DF92EF92FF920F931F93B6
:1056A000CF93DF93CDB7DEB76B970FB6F894DEBF1D
:1056B0000FBECDBF8C01BE01695E7F4F08DFAE011A
:1056C0004F5F5F4FBE01695E7F4FC80194DF8F89D6
:1056D000882309F454C06B857C858D859E856C5725
:1056E000724F8F4F9F4F298D222309F44DC0CB84D9
:1056F000DC84ED84FE8422EBC20E22E0D21EE11C8B
:10570000F11CCC0CDD1CEE1CFF1C6C0D7D1D8E1DD8
:105710009F1D2A8D222371F0CF84D888E988FA88CA
:10572000F4E9CF0EF2E0DF1EE11CF11C6C0D7D1DD3
:105730008E1D9F1D2B8D222371F0CB88DC88ED8878
:10574000FE8826E2C20E22E0D21EE11CF11C6C0D86
:105750007D1D8E1D9F1DF80160877187828793874D
:105760006B960FB6F894DEBF0FBECDBFDF91CF9121
:105770001F910F91FF90EF90DF90CF90089566E317
:105780007BE080E090E0AFCF288D222311F2CB8424
:10579000DC84ED84FE84E4E9CE0EE2E0DE1EE11C52
:1057A000F11CB3CF8F929F92AF92BF92CF92DF92B4
:1057B000EF92FF924B015C01A42FB0E020E03FE2AA
:1057C0004AE350E00E945B3D6B017C0124EFC20E76
:1057D00021E0D21EE11CF11CA8EEB3E0A50194016A
:1057E0000E945B3D4B015C01C701B60120ED37E033
:1057F00040E050E00E94313D820E931EA41EB51E73
:10580000C701B60128EE33E040E050E00E94313D90
:10581000C501B4010E94313DCA01B901FF90EF906A
:10582000DF90CF90BF90AF909F908F9008958F9210
:105830009F92AF92BF92CF92DF92EF92FF920F931F
:105840001F93CF93DF93CDB7DEB76B970FB6F89466
:10585000DEBF0FBECDBF40322EE452076105710599
:1058600008F48DC04A015B017C01BE01695E7F4F77
:105870002EDEAE014F5F5F4FBE01695E7F4FC701F5
:10588000BADE8F8908EE18E020E030E0882341F08E
:105890000B851C852D853E850A5C144F2F4F3F4F8D
:1058A000898D882309F45BC08B859C85AD85BE8579
:1058B0008E549D4FAF4FBF4F880F991FAA1FBB1F1C
:1058C000080F191F2A1F3B1FCA8CCC2061F08F853F
:1058D0009889A989BA898C569D4FAF4FBF4F080F41
:1058E000191F2A1F3B1FDB8CDD2009F445C00A5D10
:1058F0001D4F2F4F3F4F80169106A206B30608F4A6
:105900003EC0C501B401601B710B820B930B4B8130
:1059100049DF9B01CC2021F02F813885260F371FCE
:10592000C901FCDDAC0161E7C701E0DBF70180865E
:105930009186A286B3868D2D6B960FB6F894DEBF46
:105940000FBECDBFDF91CF911F910F91FF90EF90D0
:10595000DF90CF90BF90AF909F908F900895888DEB
:10596000882309F4B1CF8B859C85AD85BE858C5687
:105970009D4FAF4FBF4FA4CFDD24D394DCCFD12CAC
:10598000DACFCF93DF93EC01462F416060E086DBF6
:105990000E942E377E836D8363E1CE01FDDB87702D
:1059A00089F48A819B81892BB9F30E942E372D813E
:1059B0003E81621B730B8A819B818617970760F774
:1059C00080E009C041E06BE0CE0168DB40E060E0D0
:1059D000CE0164DB81E0DF91CF910895EF92FF92D9
:1059E0000F931F93CF93DF9300D000D01F921F928D
:1059F000CDB7DEB78C01662339F069E8CDDB482FDF
:105A0000416069E8C8014ADB40E068E8C80146DB5C
:105A100041E060E8C80142DB41E06FEFC8013EDBD6
:105A200040E060E0C8013ADB61E9C801B5DBF8019C
:105A3000878341E060E0C80131DB40E06FEFC801DF
:105A40002DDB40E060E8C80129DB60E6C801A4DB8B
:105A5000482F426160E6C80121DB40E250E064E487
:105A6000C80144DB4FEF61E0C80118DBAE01495FBC
:105A70005F4FBE01685F7F4FC801A3DC81110FC07B
:105A8000F12C8F2D28960FB6F894DEBF0FBECDBF38
:105A9000DF91CF911F910F91FF90EF90089526E035
:105AA000AE014F5F5F4F60EBC801DDDB41E06FEFA0
:105AB000C801F4DA40E06FE4C801F0DA4CE26EE4C9
:105AC000C801ECDA40E06FEFC801E8DA44EB66EBBE
:105AD000C801E4DA8F81ACE0811101C0A0E0B88593
