:1000000005C100000C94CD320C94F8320C942333CB
:100010000C944E330C9479330C94A4330C94CF335A
:100020000C94FA3324C1000022C1000020C100005A
:100030001EC100001CC100001AC1000018C1000050
:1000400016C1000014C1000012C1000010C1000060
:100050000EC100000CC100000AC100000C94253440
:1000600006C100000C94F9370C942F3800C1000031
:10007000FEC00000FCC00000FAC00000F8C0000094
:10008000F6C00000F4C00000F2C00000F0C00000A4
:100090000C9485380C94BB38EAC00000E8C000001E
:1000A000E6C00000E4C00000E2C00000E0C00000C4
:1000B000DEC00000DCC00000DAC00000D8C00000D4
:1000C000D6C00000D4C000000C94932E0C941139BB
:1000D0000C944739CCC000000C949D390C94D33952
:1000E000C6C0000000000A0B02090C0D0E08070331
:1000F00004010000000000000000000000000000FB
:1001000000000000000000000000000000000000EF
:1001100012111000000000000000000000000000AC
:100120000000000000000000000001021020200874
:100130000810204010204080020102010804020142
:1001400001020408102040808040201008040201B1
:10015000800402018040201008040201080402010A
:100160000102040810204080010204081020408091
:1001700005050505070508080808020202020A0A23
:100180000808040404040101010101010101030341
:10019000030303030303040707070C0C0C0C0C0CEC
:1001A0000C0C0202020206060606060606060B0BE9
:1001B0000B0B0B0B0B0B000020002300260029006B
:1001C0002C002F003200000100000301060109018C
:1001D00000002200250028002B002E0031003400F2
:1001E00002010000050108010B01000021002400AC
:1001F00027002A002D003000330001010000040117
:1002000007010A015838E4387039FC3911241FBE3F
:10021000CFEFD1E2DEBFCDBF00E00CBF13E0A0E026
:10022000B2E0EEE9F5E700E00BBF02C007900D92E7
:10023000A837B107D9F72BE0A8E7B3E001C01D92BA
:10024000A83EB207E1F711E0C6E0D1E000E006C049
:1002500021970109802FFE010E949C3AC230D107EC
:1002600080E00807A9F70E94AF2F0C94CD3AC8CEC2
:10027000CF92DF92EF92FF92CF93882351F16A01E0
:100280007B01CFEFC80F20E030E0A901CB01B60120
:100290000E949C3018168CF0C701B60190580E943D
:1002A0000D319B01AC016C2F70E090E080E0CF91AC
:1002B000FF90EF90DF90CF90B2C0C701B6010E94CF
:1002C00008318C2FCF91FF90EF90DF90CF900C945E
:1002D0002C35CF91FF90EF90DF90CF9008950F9342
:1002E0001F938B019C0183E0369527951795079501
:1002F0008A95D1F708581C4F462F477021E030E00F
:10030000F90102C0EE0FFF1F4A95E2F7AF01F801B5
:1003100020812423CB010196211102C090E080E0CE
:100320001F910F9108950F931F938B019C0183E000
:1003300036952795179507958A95D1F7677081E0CF
:1003400090E001C0880F6A95EAF7F801E858FC4F81
:100350002081452B31F48095822380831F910F915A
:100360000895822BFACF2F923F924F925F926F9215
:100370007F928F929F92AF92BF92CF92DF92EF9235
:10038000FF920F931F93CF93DF93D62EC72E782E15
:10039000692E49015A01280161E08D2D0E946636BF
:1003A000CD2DDC2D8E010F5F1F4FA8016D2D7C2DF3
:1003B000872D962DB8DF20E030E0A901C201B701FA
:1003C0000E94EB31181664F4C201B7010E940D318E
:1003D0002B01C501B4010E940D31A201CE0123D031
:1003E000C801DF91CF911F910F91FF90EF90DF90A7
:1003F000CF90BF90AF909F908F907F906F905F90C5
:100400004F903F902F900895882341F08150682F9E
:1004100070E090E080E050E040E085CF0895862FC6
:10042000B9010C942C359C01FC01EC51FF4FE49177
:10043000E150E231E0F4F0E08827EE5DFD4F8F4FB0
:100440000C949C3A34023B023E0255026A02370287
:100450007F028B028F02A602BB02D002E702FC02DF
:100460003702110328033D0384B5806884BD60E032
:10047000822F0C94A23684B58062F8CF80918000E0
:100480008C7F82608093800080918100807E80617B
:10049000682B609381005093870040938600809181
:1004A0008000806880938000E2CF809180008C7F04
:1004B00082608093800080918100807E8061682BC3
:1004C0006093810050938700409386008091800064
:1004D0008062E8CF809180008C7F82608093800072
:1004E00080918100807E8061682B609381005093B1
:1004F000870040938600809180008860D3CF8091F0
:10050000B00080688093B0008091B100887F682B34
:100510006093B100ACCF8091B0008062F3CF809146
:1005200090008C7F82608093900080919100807E0B
:100530008061682B609391005093970040939600E0
:100540008091900080688093900091CF809190007E
:100550008C7F82608093900080919100807E80618A
:10056000682B609391005093970040939600809180
:1005700090008062E8CF809190008C7F82608093B1
:10058000900080919100807E8061682B6093910043
:100590005093970040939600809190008860D3CF4D
:1005A0008091A0008C7F82608093A0008091A10048
:1005B000807E8061682B6093A1005093A7004093D8
:1005C000A6008091A00080688093A00050CF809109
:1005D000A0008C7F82608093A0008091A100807E2B
:1005E0008061682B6093A1005093A7004093A60000
:1005F0008091A0008062E8CF8091A0008C7F826013
:100600008093A0008091A100807E8061682B609320
:10061000A1005093A7004093A6008091A00088609D
:10062000D3CF809120018C7F8260809320018091C4
:100630002101807E8061682B609321015093270106
:1006400040932601809120018068809320010FCF84
:10065000809120018C7F8260809320018091210114
:10066000807E8061682B6093210150932701409325
:100670002601809120018062E8CF809120018C7F4B
:1006800082608093200180912101807E8061682BAF
:10069000609321015093270140932601809120010E
:1006A0008860D3CF611102C00C9466366130E1F3EB
:1006B00062E0FACF662319F061E00C94A23660E0A4
:1006C000FCCFFC01A781B0858C9191858923A48101
:1006D000B5819C91408151816281738126819223F1
:1006E00059F081110BC04F5F5F4F6F4F7F4F4083B9
:1006F00051836283738308958111F5CF415051096D
:1007000061097109F4CF82E893E0DBCF8DE893E0D3
:10071000D8CF88E993E0D5CF83EA93E0D2CFFC012C
:10072000A481B5818C9196818923A781B0859C9104
:1007300040815181628173812185922359F0882300
:1007400059F04F5F5F4F6F4F7F4F408351836283FC
:10075000738308958823A9F34150510961097109F0
:10076000F4CF82E893E0DBCF8DE893E0D8CF88E93F
:1007700093E0D5CF83EA93E0D2CF0F931F93CF932B
:10078000DF93D82FC62F8A01A09181038BE0A89F09
:10079000D0011124AE57BC4F1D921D921D921C9288
:1007A000139781E01A968C931A978D2F90E0FC0195
:1007B000E65DFE4FE4911696EC931697FC01E05926
:1007C000FE4FE491F0E0EE0FFF1FEA54FE4F8591DB
:1007D000949115969C938E931497862F90E0FC012C
:1007E000E65DFE4FE4911996EC931997FC01E059F0
:1007F000FE4FE491F0E0EE0FFF1FEA54FE4F8591AB
:10080000949118969C938E93179760E08D2F0E9479
:10081000663660E08C2F0E946636809181038130BD
:1008200009F43FC0A8F0823009F462C0833009F4B3
:1008300086C08091810391E0980F90938103F80125
:10084000808390E080E0DF91CF911F910F91089518
:1008500080E0D23049F081E0D33031F08EEE8D0F60
:100860008430D8F487E18D1B41E050E063E873E009
:100870000E94533280E0C23049F081E0C33031F051
:100880008EEE8C0F843058F487E18C1B41E050E0F1
:1008900061EB73E00E945332CCCF8FEFE5CF8FEF47
:1008A000F5CF80E0D23049F081E0D33031F08EEEE8
:1008B0008D0F8430C8F487E18D1B41E050E066E87D
:1008C00073E00E94533280E0C23049F081E0C330CF
:1008D00031F08EEE8C0F843048F487E18C1B41E0C0
:1008E00050E064EB73E0D6CF8FEFE7CF8FEFF7CF19
:1008F00080E0D23049F081E0D33031F08EEE8D0FC0
:100900008430C8F487E18D1B41E050E069E873E072
:100910000E94533280E0C23049F081E0C33031F0B0
:100920008EEE8C0F843048F487E18C1B41E050E060
:1009300067EB73E0AFCF8FEFE7CF8FEFF7CF80E0BC
:10094000D23049F081E0D33031F08EEE8D0F84301B
:10095000C8F487E18D1B41E050E06CE873E00E9431
:10096000533280E0C23049F081E0C33031F08EEE86
:100970008C0F843048F487E18C1B41E050E06AEB37
:1009800073E088CF8FEFE7CF8FEFF7CF9BE0899FA2
:10099000F0011124EE57FC4F80819181A281B38137
:1009A000FB0180839183A283B38390E080E008956C
:1009B0009BE0899FF0011124EE57FC4F10821182B9
:1009C0001282138290E080E0089590E080E0089524
:1009D00090E080E008950F931F93009709F489C079
:1009E0006115710509F485C00091AC021091AD024A
:1009F0002091AE023091AF020E3F1F4F2F4F3F4F5D
:100A000009F068C04FEF5FEFBA014093AC0250931A
:100A1000AD026093AE027093AF024091AC02509170
:100A2000AD026091AE027091AF02DC011296ED91C1
:100A3000FC9180819181A281B3818093280490935D
:100A40002904A0932A04B0932B0484819581A68164
:100A5000B7818093240490932504A0932604B09337
:100A6000270480859185A285B38580932004909387
:100A70002104A0932204B093230484859585A68540
:100A8000B78580931C0490931D04A0931E04B0931B
:100A90001F04109218041092190410921A04109254
:100AA0001B040E9479128EE992E19093AF03809328
:100AB000AE039093B1038093B0030E946811009736
:100AC00031F421E030E030932D0420932C041F9169
:100AD0000F9108950091AC021091AD022091AE02E9
:100AE0003091AF02DB010D931D932D933C9313972F
:100AF00094CF8FEF9FEFEBCF8F929F92AF92BF92E9
:100B0000CF92DF92EF92FF921F93CF93DF934B012F
:100B10005C0110912F0482E090E090932D0480936B
:100B20002C0481149104A104B10441F480912F0498
:100B3000811104C080912E04C1E08111C0E0C12C5C
:100B4000D12C760180912F04811106C080912E0452
:100B5000811102C0CC23D9F083E090E090932D0462
:100B600080932C04CC2381F1CCE9DFEF111102C07A
:100B70000E940216CE01DF91CF911F91FF90EF905E
:100B8000DF90CF90BF90AF909F908F9008956AE0D4
:100B900070E080E090E00E94943480E1C80E87E22B
:100BA000D81EE11CF11C8FEF88169806A806B8061F
:100BB00031F0C1E08C149D04AE04BF0408F0C0E025
:100BC00080E00E949C11BECFD0E0C0E0CFCFCF929A
:100BD000DF92EF92FF920F931F93CF93DF938F3F9C
:100BE000910511F008F051C020912C0430912D0492
:100BF0002330310539F020912C0430912D0421301F
:100C0000310531F424E030E030932D0420932C049E
:100C10006A017B01EC0182309105A8F011E0AE0180
:100C2000C701B6010E946711AB01BC01CE011123BF
:100C3000F9F0DF91CF911F910F91FF90EF90DF902E
:100C4000CF900C942B188C01000F111F02551C4FD4
:100C5000D8018D919C91892B09F30E943518029738
:100C6000E9F6D801ED91FC91CE011995182FD7CF57
:100C70000E944D1890E080E0DF91CF911F910F917D
:100C8000FF90EF90DF90CF9008958FEF9FEFF4CF1C
:100C900080E00C949C11CF93DF9386E090E09093DA
:100CA0002D0480932C040E94F511EC01EEEAF3E090
:100CB00084E0DF011D928A95E9F70E949A1510924F
:100CC0002D0410922C04CE01DF91CF9108958091D4
:100CD0002E0408958091170408956093AC027093D8
:100CE000AD028093AE029093AF0290E080E0089551
:100CF0002F923F924F925F926F927F928F929F922C
:100D0000AF92BF92CF92DF92EF92FF920F931F9319
:100D1000CF93DF9300D000D0CDB7DEB74B015C019D
:100D20005E834D83190167017801DA014D905D9072
:100D30006D907C90AC019B01C301B2010E94EB312C
:100D400087FD53C0A3019201C501B4010E94373051
:100D50006B017C01A3019201ED81FE8164817581AB
:100D6000868197810E9437309B01AC01C701B60193
:100D70000E94A0306B017C0119821A821B821C82A6
:100D8000E981FA81EE0FFF1FEE0FFF1FE20DF31D49
:100D900080809180A280B380A501940164817581D7
:100DA000868197810E943730A70196010E94EF311A
:100DB000A50194010E94383026960FB6F894DEBF44
:100DC0000FBECDBFDF91CF911F910F91FF90EF909C
:100DD000DF90CF90BF90AF909F908F907F906F905B
:100DE0005F904F903F902F9008958601000F111F44
:100DF000000F111F2D813E81020F131FD8014D904E
:100E00005D906D907C90A5019401C301B2010E9498
:100E1000EB3118160CF06DC02601370176946794FB
:100E20005794479419821A821B821C82D701C601EB
:100E300029813A814B815C81821B930BA40BB50BFA
:100E40000297A105B10558F5C901880F991F880FB0
:100E5000991F4D815E81480F591F5E834D83DA01D2
:100E6000CD90DD90ED90FC90A7019601C501B401F5
:100E70000E9437304B015C01A7019601ED81FE8194
:100E800064817581868197810E9437309B01AC0116
:100E9000C501B4010E94A0306B017C0171CFF20149
:100EA000EE0FFF1FEE0FFF1F2D813E81E20FF31F9C
:100EB000A501940160817181828193810E94EB314F
:100EC000181634F049825A826B827C8226013701DF
:100ED00089819A81AB81BC81840D951DA61DB71DAA
:100EE000730162012C013D017694679457944794F5
:100EF0009DCFA7019601215031094109510929834C
:100F00003A834B835C83F8013497C080D180E280C0
:100F1000F380A7019601C501B4010E9437304B014F
:100F20005C01A7019601C301B201AECF2F923F929F
:100F30004F925F926F927F928F929F92AF92BF92E9
:100F4000CF92DF92EF92FF920F931F93CF93DF9395
:100F5000CDB7DEB7CB54D1090FB6F894DEBF0FBEC4
:100F6000CDBF26967FAF6EAF269728965FAF4EAF68
:100F700028973E8B2D8B2C96FFAEEEAE2C97FB0167
:100F8000E150F04CEE0FFF1FEE0FFF1FE80FF91FAF
:100F900080809180A280B3808F8A988EA98EBA8E2D
:100FA000B501A401442777FD439555276627772788
:100FB00029964FAF2997F901E150F04CEE0FFF1F32
:100FC000EE0FFF1F2896AEACBFAC2897EA0DFB1DB5
:100FD000C080D180E280F380CB8EDC8EED8EFE8EE1
:100FE000B701A601442777FD439555276627772744
:100FF0002A964FAF2A97188B0F87F80130E020E030
:101000002C96EEACFFAC2C972E153F050CF43FC090
:1010100022969FAF8EAF22971A8B098B312C212CF1
:10102000812C912C540183948D829E82AF82B8864C
:1010300026968EAC9FAC2697281439047CF129960D
:101040009FAC29972A96AFAC2A9730E020E041E088
:1010500050E060E070E09A10F5C1C55BDF4F0FB65D
:10106000F894DEBF0FBECDBFDF91CF911F910F91DE
:10107000FF90EF90DF90CF90BF90AF909F908F90B8
:101080007F906F905F904F903F902F9008951192B6
:101090001192119211922F5F3F4FB2CF2296EEAD77
:1010A000FFAD229781919191A191B1912296FFAFCD
:1010B000EEAF22978F88988CA98CBA8CB7FE23C08C
:1010C0004D815E816F8178854150510961097109B7
:1010D0005A016B01A81AB90ACA0ADB0AD601C5016E
:1010E00021E0CD80DE80EF80F8848C159D05AE0573
:1010F000BF0508F020E0822E912CB12CA12C8D820E
:101100009E82AF82B8865D01CC24DD24A8A2B9A25C
:10111000CAA2DBA29C01AD01442755272CA33DA305
:101120004EA35FA32C96EEADFFAD2C97E219F30909
:101130008D889E888E169F060CF4F4012896AEAC1E
:10114000BFAC28972496BFAEAEAE2497C988DA8884
:10115000DC8ACB8A1E861D86812C912C54018394B7
:1011600089869A86AB86BC86812C912C5401CD84CD
:10117000DE84CE16DF0604F1F7FF02C0F0E0E0E007
:10118000E20DF31D2C96EEACFFAC2C97EE15FF058F
:1011900054F4EE0FFF1FEE0FFF1FE00FF11F8082D0
:1011A0009182A282B3822FEF221A320AE989FA8948
:1011B0003496FA8BE98B3CCF2496AEADBFAD249725
:1011C000CD90DD90ED90FD902496BFAFAEAF24970B
:1011D0002B8D3C8D4D8D5E8D57FF22C089859A8564
:1011E000AB85BC850197A109B109AC01BD014C19C2
:1011F0005D096E097F096A017B0181E029853A85D5
:101200004B855C85C216D306E406F50608F080E03F
:10121000482F50E070E060E049875A876B877C87F1
:10122000B7018827992768A779A78AA79BA7EE24E3
:10123000FF2428A139A14AA15BA1C701B6010E94E0
:10124000573A2B013C012CA13DA14EA15FA168A5FD
:1012500079A58AA59BA50E94573A6CA77DA78EA762
:101260009FA7AB89BC894D915D916D917D91BC8BA0
:10127000AB8BDB01CA01880D991DAA1DBB1D89839B
:101280009A83AB83BC8391E09F8F29813A814B8104
:101290005C81281539054A055B0508F01F8E2CA1D5
:1012A0003DA14EA15FA1C701B6010E94573A6B0153
:1012B0007C0189809A80AB80BC808C0C9D1CAE1C0C
:1012C000BF1C89829A82AB82BC82520199248824F5
:1012D00088AA99AAAAAABBAA29813A814B815C81D2
:1012E000280D391D4A1D5B1D2CAB3DAB4EAB5FABD2
:1012F0008CA49DA4AEA4BFA454019924882488AED4
:1013000099AEAAAEBBAE280D391D4A1D5B1D2CAF90
:101310003DAF4EAF5FAFAB89BC8914972D933D9322
:101320004D935C93139728A139A14AA15BA168A5AD
:1013300079A58AA59BA50E94573A9F8C690D711DBE
:10134000811D911D230166247724460E571E681EB9
:10135000791E2CA53DA54EA55FA54A01AA24BB2454
:10136000840C951CA61CB71C81E090E0A0E0B0E0C6
:1013700049815A816B817C814C155D056E057F0525
:1013800018F080E090E0DC01880D991DAA1DBB1DBE
:1013900041E050E060E070E088A899A8AAA8BBA846
:1013A000CCA8DDA8EEA8FFA8C814D904EA04FB0461
:1013B00018F040E050E0BA01840F951FA61FB71F38
:1013C000812C912C54018394C8ACD9ACEAACFBAC11
:1013D0002CAD3DAD4EAD5FAD2C153D054E055F0509
:1013E00018F0812C912C5401880E991EAA1EBB1E48
:1013F0004D855E854F5F5F4F5E874D87B8CEEF8529
:10140000F889C190D190E190F190F88BEF87DB01E2
:10141000CA010197A109B1098C199D09AE09BF093B
:10142000349780839183A283B383E1E08417950787
:10143000A607B70708F0E0E04E2F50E070E060E04C
:101440002F5F3F4F2C968EAC9FAC2C9728153905FB
:10145000B4F203CE2F923F924F925F926F927F929F
:101460008F929F92AF92BF92CF92DF92EF92FF92B4
:101470000F931F93CF93DF9379011B01DA01D0E023
:10148000C0E040E050E0BA01CE15DF059CF0DF91EE
:10149000CF911F910F91FF90EF90DF90CF90BF9071
:1014A000AF909F908F907F906F905F904F903F9004
:1014B0002F900895FC0181909190A190B190CF015F
:1014C000F10101911191219131911F012401350107
:1014D000401A510A620A730A93018201041B150B18
:1014E000260B370B0D931D932D933D936624639428
:1014F000712CC12CD12C452B462B472B39F00815CC
:1015000019052A053B0538F4612C05C080169106A3
:10151000A206B306C8F7A301B6012196B5CF4F9234
:101520005F926F927F928F929F92AF92BF92CF9273
:10153000DF92EF92FF920F931F93CF93DF93CDB77C
:10154000DEB760970FB6F894DEBF0FBECDBF8090B8
:10155000500290905102A0905202B09053026091BC
:101560001C0270911D0280911E0290911F0215E0D5
:10157000E12EF12C00E010E020E232E048E352E0FE
:10158000B7DB9B01AC01C501B4010E94EF315B01E7
:101590008C01CB01D8018093620B9093630BA093D5
:1015A000640BB093650BC0905402D0905502E0904C
:1015B0005602F0905702A7019601B501C8010E949A
:1015C000EB31181694F0C0905802D0905902E09078
:1015D0005A02F0905B02A7019601B501C8010E9472
:1015E0009C3087FD02C065017801E894F7F8C0924D
:1015F0005E0BD0925F0BE092600BF092610B69E0A2
:1016000070E080E090E00E946F018C019093AF0B3E
:101610008093AE0BC0905E0BD0905F0BE090600BA0
:10162000F090610B20E030E04FE753E4C701B601D2
:101630000E949C3018160CF44DC020E030E0A90147
:10164000C701B6010E94EB3187FF03C0C12CD12C2A
:101650007601B701A601C8010E94380111E020916E
:1016600014023091150240911602509117026091B8
:10167000620B7091630B8091640B9091650B0E94DB
:101680009C30811101C010E010937E0B612F88E027
:1016900011D88090620B9090630BA090640BB09077
:1016A000650BC0905C02D0905D02E0905E02F0900D
:1016B0005F02A7019601C501B4010E94EB31181623
:1016C00084F4C092620BD092630BE092640BF092B0
:1016D000650B17C0C12CD12C5FE7E52E53E4F52E26
:1016E000B8CFC0906002D0906102E0906202F090AA
:1016F0006302A7019601C501B4010E949C3087FDD9
:10170000E0CF6AE070E080E090E00E946F018C0121
:101710009093B70B8093B60BC090620BD090630B85
:10172000E090640BF090650B20E030E04FE753E46D
:10173000C701B6010E949C3018160CF4D2C020E0FC
:1017400030E0A901C701B6010E94EB3187FF03C059
:10175000C12CD12C7601B701A601C8010E94380125
:101760008090940290909502A0909602B09097027B
:10177000609118027091190280911A0290911B02D7
:1017800015E0E12EF12C00E010E024E632E04CE719
:1017900052E0AEDA9B01AC01C501B4010E94EF3109
:1017A0009B01AC0120936A0B30936B0B40936C0B45
:1017B00050936D0B11E060911002709111028091B5
:1017C0001202909113020E949C30811101C010E01E
:1017D00010937F0B612F8DE00E945A03A0906A0B3B
:1017E000B0906B0B00916C0B10916D0BC090980238
:1017F000D0909902E0909A02F0909B02A701960186
:10180000B501C8010E94EB31181694F0C0909C02FB
:10181000D0909D02E0909E02F0909F02A701960159
:10182000B501C8010E949C3087FD02C065017801A6
:10183000E894F7F8C092660BD092670BE092680BC1
:10184000F092690B6BE070E080E090E00E946F0125
:101850008C0190939F0B80939E0BC090660BD09051
:10186000670BE090680BF090690B20E030E04FE7E9
:1018700053E4C701B6010E949C301816CCF120E059
:1018800030E0A901C701B6010E94EB3187FF03C018
:10189000C12CD12C7601B701A601C8010E943801E4
:1018A00080906A0B90906B0BA0906C0BB0906D0BBE
:1018B000C090A002D090A102E090A202F090A302FA
:1018C000A7019601C501B4010E94EB311816BCF4C2
:1018D000C0926A0BD0926B0BE0926C0BF0926D0B86
:1018E0001EC0C12CD12C4FE7E42E43E4F42E33CF9D
:1018F000C12CD12C2FE7E22E23E4F22ECCCFC090C6
:10190000A402D090A502E090A602F090A702A70141
:101910009601C501B4010E949C3087FDD9CF6CE0CF
:1019200070E080E090E00E946F018C019093A70B23
:101930008093A60BC0906A0BD0906B0BE0906C0B61
:10194000F0906D0B20E030E04FE753E4C701B601A3
:101950000E949C3018160CF463C120E030E0A9010D
:10196000C701B6010E94EB3187FF03C0C12CD12C07
:101970007601B701A601C8010E943801C090080293
:10198000D0900902E0900A02F0900B02A7019601A4
:101990006091930B7091940B8091950B9091960BA5
:1019A0000E949C30882341F0C092930BD092940BFC
:1019B000E092950BF092960B8091920B8111109210
:1019C000920B6AE77BE08091970B0E94C604C0905F
:1019D0000C02D0900D02E0900E02F0900F02A701D1
:1019E00096016091870B7091880B8091890B909183
:1019F0008A0B0E949C30882341F0C092870BD092C2
:101A0000880BE092890BF0928A0B8091860B8111F2
:101A10001092860B66E77BE080918B0B0E94C604D8
:101A200080917A0B90917B0BA0917C0BB0917D0BF8
:101A300080936E0B90936F0BA093700BB093710B10
:101A40004091760B5091770B6091780B7091790BE8
:101A50004093720B5093730B6093740B7093750BE0
:101A60004091A8025091A9026091AA027091AB0224
:101A700049875A876B877C878D879E87AF87B88B0E
:101A800082E0E82EF12C8E010F5F1F4F21E030E045
:101A9000AE01435F5F4F61E070E0CE01099646DA28
:101AA00088E0F801AEE4BBE001900D928A95E1F781
:101AB00022E030E04EE35BE068EC7BE0C801CADC8A
:101AC0008091720B9091730BA091740BB091750B78
:101AD0008D879E87AF87B88B21E030E0AE01435FF2
:101AE0005F4F61E070E0CE01099620DA88E0F801EE
:101AF000A6E5BBE001900D928A95E1F722E030E087
:101B000046E45BE060ED7BE0C801A4DC88E0EEE445
:101B1000FBE0A8ECBBE001900D928A95E1F788E02C
:101B2000E6E5FBE0A0EDBBE001900D928A95E1F7C0
:101B3000C090EA03D090EB03E090EC03F090ED034B
:101B40008FEFC81AD80AE80AF80AC092EA03D092BE
:101B5000EB03E092EC03F092ED03C114D104E10435
:101B6000F10499F48091EE039091EF03A091F003BA
:101B7000B091F1030196A11DB11D8093EE039093E6
:101B8000EF03A093F003B093F1038090F2039090E1
:101B9000F303A090F403B090F5036091EE0370910D
:101BA000EF038091F0039091F1030E943931A50178
:101BB00094010E94EF3120E030E040E85FE40E94B1
:101BC000EF312B013C01C701B6010E943931A5015B
:101BD00094010E94EF319B01AC01C301B2010E944C
:101BE00038306093E6037093E7038093E8039093A3
:101BF000E90360960FB6F894DEBF0FBECDBFDF914C
:101C0000CF911F910F91FF90EF90DF90CF90BF90F9
:101C1000AF909F908F907F906F905F904F900895BE
:101C2000C12CD12C9FE7E92E93E4F92EA2CE8F92FE
:101C30009F92AF92BF92DF92EF92FF920F931F930A
:101C4000CF93DF93E0EDF3E08BE2DF011D928A9505
:101C5000E9F780E090E0A0E8BFEB86A397A3A0A7F8
:101C6000B1A78DEC9CECACE4BEE382A393A3A4A348
:101C7000B5A38CEB97E4A2E1BEEF84839583A683A2
:101C8000B7838EE49FEEABEDBBEA80879187A28796
:101C9000B3878CEE9BE9ABE7B2EA84879587A6878A
:101CA000B78784EF9CEDA0E4BBEB808B918BA28B7C
:101CB000B38BA4ECB3E0B383A283E2EBF3E0119621
:101CC000FC93EE9385EE92E09183808393838283ED
:101CD0009583848397838683918780879387828780
:101CE0009587848797878687918B808B84EE93E096
:101CF00015969C938E93149784ED93E013969C9382
:101D00008E93129786EE93E017969C938E93169778
:101D1000EEE3FBE082E4DF011D928A95E9F7C0E87B
:101D2000DBE086E6FE0111928A95E9F7DD24D39483
:101D3000D092E40B812C912C5401839489A69AA60D
:101D4000ABA6BCA6E12CF12C8701A801970169E0A4
:101D500070E080E090E00E94B3019FA78EA7DDA60F
:101D600018AED092E20B89AE9AAEABAEBCAE61E0DB
:101D700088E00E945203DDAE18AAD092E50B89AA32
:101D80009AAAABAABCAAA80197016AE070E080E019
:101D900090E00E94B3019FAB8EABDDAA1092C00B06
:101DA000D092E30B8092C10B9092C20BA092C30B16
:101DB000B092C40B61E08DE00E945203D092C50B3B
:101DC000188ED092E00B898E9A8EAB8EBC8EA801B5
:101DD00097016BE070E080E090E00E94B3019F8F7C
:101DE0008E8FDD8E18A2D092E10B89A29AA2ABA2AF
:101DF000BCA2A80197016CE070E080E090E00E9436
:101E0000B3019FA38EA3DDA21F8A1C86D092DF0B95
:101E100000E012E0F80180859185A285B3858B8B67
:101E20009C8BAD8BBE8B8D869E86AF86B88A47E92C
:101E30005BE063E082E00E94BD03D98A1A8A1B86B8
:101E40001882D092DE0BF80184859585A685B7852A
:101E50008F839887A987BA8789829A82AB82BC824E
:101E60004BE85BE063E182E10E94BD03DD821E82FC
:101E700088E0F801A8ECBBE001900D928A95E1F7AB
:101E800088E0F801A0EDBBE001900D928A95E1F7A2
:101E90008F890E94D8048B85DF91CF911F910F917C
:101EA000FF90EF90DF90BF90AF909F908F900C9439
:101EB000D8048091A80B81112EC081E08093A80BDB
:101EC0008091A90B9091AA0BA091AB0BB091AC0B98
:101ED0000197A105B105F9F48091AD0B8823D9F0E4
:101EE00069E070E080E090E00E946F019093AF0B9A
:101EF0008093AE0B40E050E0BA010E94380169E0E7
:101F000070E080E090E00E946F019093AF0B8093AF
:101F1000AE0B0E9404028091B80B811103C081E0D6
:101F20008093B80B8091B00B81112EC081E080931B
:101F3000B00B8091B10B9091B20BA091B30BB0910B
:101F4000B40B0197A105B105F9F48091B50B882375
:101F5000D9F06AE070E080E090E00E946F01909319
:101F6000B70B8093B60B40E050E0BA010E943801F5
:101F70006AE070E080E090E00E946F019093B70B00
:101F80008093B60B0E9404028091C00B811103C0A4
:101F900081E08093C00B8091980B81112EC081E06D
:101FA0008093980B8091990B90919A0BA0919B0B29
:101FB000B0919C0B0197A105B105F9F480919D0B9F
:101FC0008823D9F06BE070E080E090E00E946F0120
:101FD00090939F0B80939E0B40E050E0BA010E94CB
:101FE00038016BE070E080E090E00E946F01909318
:101FF0009F0B80939E0B0E9404028091A00B811185
:102000002EC081E08093A00B8091A10B9091A20B38
:10201000A091A30BB091A40B0197A105B105F9F410
:102020008091A50B8823D9F06CE070E080E090E00F
:102030000E946F019093A70B8093A60B40E050E0A5
:10204000BA010E9438016CE070E080E090E00E94EC
:102050006F019093A70B8093A60B0E9404028091BE
:102060008C0B811114C081E080938C0B80918D0BBF
:1020700090918E0BA0918F0BB091900B0197A105C1
:10208000B10529F48091910B81110E94E5048091A2
:10209000800B811114C081E08093800B8091810BB3
:1020A0009091820BA091830BB091840B0197A105B5
:1020B000B10529F48091850B81110C94E5040895F4
:1020C0004F925F926F927F928F929F92AF92BF9248
:1020D000CF92DF92EF92FF920F931F93F89440906C
:1020E0000704509008046090090470900A04C0909E
:1020F000FB03D090FC03E090FD03F090FE03452B22
:1021000009F0A6C09B01AC012419350946095709FD
:1021100029013A010091030410910404209105045F
:102120003091060448015901840C951CA61CB71C6B
:1021300080169106A206B306A0F40091FF03109149
:10214000000420910104309102040F5F1F4F2F4FB4
:102150003F4F0093FF03109300042093010430933A
:1021600002048092030490920404A0920504B092A9
:1021700006040091FF0310910004209101043091A6
:10218000020480920B0490920C04A0920D04B09271
:102190000E0400930F041093100420931104309345
:1021A00012046093070470930804809309049093C9
:1021B0000A04A301920160E47DE083E090E00E94C4
:1021C000573A6C0D7D1D8E1D9F1D6093FB03709310
:1021D000FC038093FD039093FE030091AC021091E9
:1021E000AD022091AE023091AF020F3F1F4F2F4F33
:1021F0003F4FF1F00091AC021091AD022091AE0280
:102200003091AF020E3F1F4F2F4F3F4F89F0C090CC
:10221000AC02D090AD02E090AE02F090AF0221E0AF
:102220008C149D04AE04BF0408F420E0209317042E
:1022300078941F910F91FF90EF90DF90CF90BF9017
:10224000AF909F908F907F906F905F904F90089588
:102250004B015C0184189508A608B708A3019201F8
:10226000261B370B480B590B64157505860597051A
:10227000E0F082169306A406B50640F420E030E0B4
:10228000A90181149104A104B104A1F460E47DE0EA
:1022900083E090E00E94573AA7019601261B370B76
:1022A000480B590BCA01B901C3CF82169306A40685
:1022B000B50660F7A501940160E47DE083E090E05D
:1022C0000E94573A6C0D7D1D8E1D9F1DB1CFF8CE1B
:1022D000CF93DF9300D01F92CDB7DEB71C821B8255
:1022E0001A82198210921304109214041092150489
:1022F00010921604BE016F5F7F4FCE0103960E94BD
:10230000632E69817A818B819C810E94512700977D
:1023100061F4BE016F5F7F4FCE0103960E946F2E66
:1023200069817A818B819C812ED50F900F900F90BF
:102330000F90DF91CF910895FF920F931F93CF934A
:10234000DF93082F60E070E0CB010E949434FF24FB
:10235000F3940E943A26EC01892B89F010E0CE3FDD
:102360008FEFD80769F0002361F160E070E0CB01E6
:102370000E94943481E090E0892B59F322C011E04F
:1023800025D5EC01892B21F0CE3F8FEFD80759F7E7
:1023900011111EC011E0229609F410E00E94EA25F6
:1023A000EC01892B21F0CE3F8FEFD807E1F6111118
:1023B00011C011E0CE3F8FEFD80709F410E00111F2
:1023C0000BC0CE01DF91CF911F910F91FF90089527
:1023D00011E0E4CF11E0F3CF60E070E0CB010E94A8
:1023E00094341F25812F90E0C7CFCF93DF93809146
:1023F0001704882321F060E070E0CB014CD635D67D
:10240000D0E0C0E0892B71F06AE070E080E090E0FD
:102410000E94943481E090DF28D62196C03D27E0C9
:10242000D20781F727D60E94A52710922F04109279
:102430002E04109228041092290410922A0410925B
:102440002B0410922404109225041092260410925A
:10245000270410922004109221041092220410925A
:10246000230410921C0410921D0410921E0410925A
:102470001F04109218041092190410921A0410925A
:102480001B044EEF5FEF6FEF7FEF4093AC02509372
:10249000AD026093AE027093AF0210921704EBE0AE
:1024A000F4E028E0DF011D922A95E9F71092070475
:1024B000109208041092090410920A041092030466
:1024C0001092040410920504109206041092FF0367
:1024D0001092000410920104109202041092FB0367
:1024E0001092FC031092FD031092FE03DF91CF9136
:1024F000089510923B0410923C0410923D041092F7
:102500003E0410923A0480914304909144049093C5
:1025100039048093380410923704109236041092D4
:102520003204109233041092340410923504109245
:10253000400410923F0490E080E00895CF92DF9233
:10254000EF92FF920F931F93CF938C01892B09F089
:1025500055C02091430430914404809138049091F7
:1025600039044091430450914404509339044093FA
:1025700038042817390781F0109237041092360476
:1025800010923204109233041092340410923504E5
:102590001092400410923F048091430490914404AF
:1025A000019761F580913F0490914004892B21F4BB
:1025B0008091B002811112C080913F04909140043B
:1025C0000197E1F48091320490913304A091340496
:1025D000B09135040197A105B10581F41092320440
:1025E0001092330410923404109235041092B00209
:1025F00082E090E09093400480933F0480914304F4
:1026000090914404019709F01CC180915904909164
:102610005A048017910709F014C1809155049091D4
:102620005604A0915704B0915804009709F409C1C9
:102630002091540421110DC040915504509156042D
:102640006091570470915804452B462B472B09F491
:10265000F8C020913F04309140042230310509F048
:10266000F0C0209136042111ECC0FC01C080D18063
:10267000E280F38080913A04882309F4D3C08091EA
:10268000460490914704892B09F4FDC0209146042B
:102690003091470481E02230310509F080E020913B
:1026A000460430914704C1E02130310549F02091C2
:1026B000460430914704C1E02230310509F0C0E002
:1026C000882309F456C02091500430915104409160
:1026D000520450915304C701B6010E94EB3187FDAB
:1026E00014C02091500430915104409152045091F3
:1026F000530460913B0470913C0480913D0490919F
:102700003E040E949C3087FD22C0209150043091ED
:1027100051044091520450915304C701B6010E94E4
:10272000EB31181634F5209150043091510440914A
:1027300052045091530460913B0470913C04809189
:102740003D0490913E040E949C30811112C0809102
:10275000480490914904A0914A04B0914B04892BFC
:102760008A2B8B2B19F481E08093370481E08093CE
:102770003604CC2309F456C0209150043091510402
:102780004091520450915304C701B6010E949C30FD
:1027900087FF14C02091500430915104409152049D
:1027A0005091530460913B0470913C0480913D042E
:1027B00090913E040E94EB3187FF22C0209150048B
:1027C000309151044091520450915304C701B60115
:1027D0000E949C30811126C02091500430915104F8
:1027E000409152045091530460913B0470913C0419
:1027F00080913D0490913E040E94EB31181694F4B0
:102800008091480490914904A0914A04B0914B04EE
:10281000892B8A2B8B2B19F481E08093370481E07C
:102820008093360481E090913604911180E080938A
:102830003A04C0923B04D0923C04E0923D04F092F2
:102840003E04012B09F067C180913F049091400440
:10285000892BD9F410924504109236048091B0026D
:10286000882379F082E090E09093400480933F04C5
:102870001092B002209143043091440481E0232B54
:10288000E9F080E01BC081E00ACF1092B002809195
:102890004504882349F010923704109240041092A6
:1028A0003F0410924504EDCF80914304909144047D
:1028B000892BE1F0809136041092360420913F0478
:1028C000309140042230310509F45EC088F42115AE
:1028D000310509F448C02130310509F4F3C01092E4
:1028E0003704109236041092450438C081E0E6CFD8
:1028F0002330310509F4B1C02430310581F740910E
:1029000032045091330460913404709135044115C0
:1029100051056105710561F0415051096109710965
:10292000409332045093330460933404709335041D
:102930004091320450913304609134047091350415
:10294000452B462B472BD9F420914104309142046A
:102950002130310509F046C010923704109240042E
:1029600010923F040CC08091B002882341F082E0B5
:1029700090E09093400480933F041092B002109234
:10298000300480913704CEC08823C9F38091480475
:1029900090914904A0914A04B0914B04181619066D
:1029A0001A061B060CF07DC08091430490914404EC
:1029B000019709F076C08091480490914904A09154
:1029C0004A04B0914B048093320490933304A09353
:1029D0003404B093350483E090E0909340048093F6
:1029E0003F04CDCF40914C0450914D0460914E0472
:1029F00070914F04452B462B472BA9F010923704BA
:102A000080914C0490914D04A0914E04B0914F04DC
:102A10008093320490933304A0933404B09335042C
:102A200081E090E0DACF882399F08091B102909113
:102A3000B202A091B302B091B40280933204909399
:102A40003304A0933404B093350484E090E0C5CF00
:102A50001092370482E090E0C0CF809132049091D0
:102A60003304A0913404B09135040097A105B10559
:102A700059F00197A109B10980933204909333046E
:102A8000A0933404B09335048091320490913304C0
:102A9000A0913404B0913504892B8A2B8B2B09F03B
:102AA0006ECF8091B1029091B202A091B302B09129
:102AB000B402892B8A2B8B2B09F44ECF81E08093B3
:102AC0003704B3CF40913204509133046091340401
:102AD00070913504411551056105710561F0415052
:102AE0005109610971094093320450933304609392
:102AF0003404709335044091320450913304609152
:102B0000340470913504452B462B472B09F037CF01
:102B10008111C7CF9FCF80913004882309F431CF32
:102B200080913104CF911F910F91FF90EF90DF9032
:102B3000CF90089510923B0410923C0410923D04F3
:102B400010923E0410923A041092400410923F04F6
:102B5000109239041092380410925A0410925904B9
:102B600010923704109236041092320410923304FB
:102B700010923404109235041092310410923004F3
:102B80001092550410925604109257041092580453
:102B90001092540410925004109251041092520456
:102BA0001092530488EE93E0A0E0B0E08093B1026D
:102BB0009093B202A093B302B093B40210924C046B
:102BC00010924D0410924E0410924F04109248043B
:102BD0001092490410924A0410924B041092470438
:102BE0001092460481E08093B00210924504109246
:102BF000440410924304109242041092410490E065
:102C000080E008958091430490914404892B19F544
:102C10008091B002882351F080914504811106C053
:102C200081E080933104809330040895209145041D
:102C30003091B00281E090E0332311F090E080E029
:102C400030E082239323892B21F01092310481E01C
:102C5000EACF10923004089582E090E0FA01918367
:102C600080838FEF9FEF0895CF93DF93EA01009762
:102C700011F00E94C5281982188290E080E0DF914F
:102C8000CF910895DB01009719F48FEF8C9308958D
:102C90002EEF2C93FC013F96EF30F10508F034C085
:102CA0008827EA5AF94E8F4F0C949C3A8216801668
:102CB0007E167C167A1676167816741672167016AC
:102CC0006D16691665166B16841680E311968C9343
:102CD000089589E2FBCF82E2F9CF11961C92089504
:102CE00083E2F4CF81E2F2CF81E1F0CF87E2EECF51
:102CF0008AE2ECCF80E1EACF84E2E8CF88E2E6CF57
:102D000086E2E4CF81E3E2CF80E2E0CF8091670406
:102D100090916804089590936804809367040895DF
:102D200080916604089590916604892B80936604CF
:102D30000895982F90958091660489238093660466
:102D400008958091650408958091630490916404CE
:102D500008956115710559F0FB0130E020E070E045
:102D600060E02417350719F06115710511F0CB01EA
:102D70000895A081B181A817B90709F4BF012F5F99
:102D80003F4F3696EECF8091690481111CC060D20E
:102D900066D290935C0480935B040E94C3200E94DF
:102DA000D5209093600480935F040E9452250E9476
:102DB000592590935E0480935D0481E080936904BB
:102DC00090E080E0089584EF9FEF08958F929F92A6
:102DD000AF92BF92CF92DF92EF92FF920F931F9329
:102DE000CF93DF9300D000D000D01F92CDB7DEB7D5
:102DF0001A86198618861F821E821D821C821B82DB
:102E00001A8219828091690407EF1FEF882309F461
:102E10009CC08E010D5F1F4F9E012B5F3F4FAE0187
:102E2000495F5F4FBE01675F7F4F90E080E00E9487
:102E3000D6268C01009721F00596029708F0DBC09A
:102E400029853A852115310509F402C1ED80FE80FE
:102E50004B815C81B701640F751F8F819885861740
:102E6000970708F4F5C0E20EF31ED7019C91903C41
:102E700009F07FC04230510508F47BC011968C9157
:102E80004091670450916804452B09F49CC0913F20
:102E900008F071C02CE1290F2D3008F48BC02DE211
:102EA000290F203108F489C0903C21F481508230F0
:102EB00008F483C088E3890F8B3008F481C092E462
:102EC000C92E96E1D92EECE2F6E16D817E81AE014C
:102ED0004F5F5F4F89859A8519955C01C114D104B4
:102EE000A1F189809A808114910479F18B819C8170
:102EF0008815990508F487C010E000E04B815C81DB
:102F000070E060E0C7010E94C63A01151105E9F4BE
:102F100049815A8169857A858D819E81680F791FE3
:102F2000C501F6011995E980FA800D811E812F8176
:102F3000388549855A856FEF7FEF81E090E00E94E8
:102F400071268C01892B09F056C0C8012A960FB64C
:102F5000F894DEBF0FBECDBFDF91CF911F910F91CF
:102F6000FF90EF90DF90CF90BF90AF909F908F90A9
:102F7000089580E085CF30E020E0220F331FF90173
:102F8000E55AFB4F0190F081E02D309709F497CF7F
:102F9000892F90E01995009709F491CFDC011296E2
:102FA000ED91FC9113971496CD90DC90309709F039
:102FB0008CCF1FC021E030E0E0CF22E030E0DDCF59
:102FC00023E030E0DACFD12CC12CE4E3F6E19F3FDF
:102FD00009F07BCFE0915B04F0915C04309721F421
:102FE000C90104EF1FEF0CC08FEF90E01995009717
:102FF000A9F604EF1FEF89859A85009709F4A5CFFC
:103000000E94C528A2CF0E94A0278C0189859A859D
:103010000E94C52870E060E0C4010E9439279887AB
:103020008F830E946E269E838D836F8178856115C4
:10303000710559F0C8010E94512A9A87898706EFC5
:103040001FEF892B09F058CF59CF08EF1FEF56CF4C
:1030500008EF1FEFD0CF20916904222319F020E060
:103060000C94DA2087EF9FEF089580916704909188
:10307000680408950E945E250E94B824F5D0EBE50F
:10308000F4E088E0DF011D928A95E9F71092690467
:1030900090E080E008950C94162321E040E050E099
:1030A000BA010C94DA2086E090E0FA0191838083E3
:1030B00090E080E0089547E050E068EE72E049CE8D
:1030C000DF92EF92FF920F931F93CF93DF938A01CA
:1030D000EC01C60FD71FE0906D04F0906E04D9800C
:1030E0000E948827D816190678F082E090E0F8014F
:1030F000918380838EEF9FEFDF91CF911F910F918E
:10310000FF90EF90DF900895EF2841F482E090E087
:10311000F8019183808384EF9FEFEECF89818093C4
:103120006C0490E00196F8019183808390E080E048
:10313000E3CFCF93DF93EA010E94C723882321F0D6
:103140000E9495270E94C82382E090E0998388839B
:103150008BEF9FEFDF91CF910895CF93DF93EB013A
:1031600086E0FB0111928A95E9F78FEF8883D8DD1D
:103170008983E7DD8A83E8DD9D838C83DF91CF91AE
:103180000895CF93DF93EA010E94CA23811109C0F9
:1031900082E090E09983888385EF9FEFDF91CF9164
:1031A000089590E080E0B7DD81E090E09983888326
:1031B00090E080E0F3CF0F931F93CF93DF93EA016A
:1031C0008C01060F171F0E94CA2381110BC082E0D9
:1031D00090E09983888385EF9FEFDF91CF911F91D6
:1031E0000F910895F8018181823038F082E090E0FB
:1031F000998388838EEF9FEFF0CF81E090E08BDDA5
:1032000088E090E09983888390E080E0E6CFCF93D8
:10321000DF930097D1F4EB01FB01329686E0DF01EA
:103220001D928A95E9F78FEF888385E089831A825A
:103230000E9488278B830E9487279D838C8381E04F
:103240008E838F83DF91CF910895DF91CF911ACD37
:103250008BE598E190936B0480936A0408958091C4
:103260006A0490916B04089510926B0410926A04A2
:10327000089580916D0490916E040895411105C0E8
:10328000611571058105910561F060936D0470937E
:103290006E0480936F04909370044093710481E0F6
:1032A000089580E00895FF920F931F93CF93DF93CB
:1032B0008A01EC01C60FD71FF9800E948827F816F3
:1032C000190668F082E090E0F801918380838EEF28
:1032D0009FEFDF91CF911F910F91FF9008956C8127
:1032E0007D818E819F814B81C9DF811108C082E081
:1032F00090E0F8019183808384EF9FEFEACF89818A
:1033000080936C0490E00196F8019183808390E0B3
:1033100080E0DFCFCF93DF93EA01FC01E60FF71FD8
:1033200064817581868197814381A8DF811109C0FD
:1033300082E090E09983888384EF9FEFDF91CF91C3
:10334000089581E090E09983888390E080E0F6CF53
:10335000EDE6F4E04081518162817381480F511D97
:10336000611D711D40835183628373830895CF93E0
:10337000C0916C044C2F50E060916D0470916E040C
:1033800001960E94BD3A8C2FE3DF10926C04CF911E
:103390000895009799F480916D0490916E042FEF39
:1033A000FB012083892B59F020916C0430E02F5FC2
:1033B0003F4F2417350719F4CB01D9CF63CC0895BB
:1033C000009799F480916D0490916E042FEFFB01AA
:1033D0002083892B59F020916C0430E02F5F3F4F00
:1033E0002417350719F4CB01C2CF4CCC089523E143
:1033F000AC01249FC001259F900D1124E09176041B
:10340000F0917704E80FF91F2381348122503109AC
:1034100081E02230310508F080E008950F931F937A
:10342000CF93DF930091780410917904D0E0C0E04D
:1034300080E00C171D0749F491E0811190E0892F7D
:10344000DF91CF911F910F9108958111F5CFCE019A
:10345000CEDF2196EECFA0917604B091770410973D
:1034600029F1209178043091790482179307F0F4C0
:1034700053E1589F9001599F300D1124A20FB31FA3
:10348000ED91FC911197309789F012968C91681705
:1034900068F48DE0689FE00DF11D11248081918119
:1034A000892B21F081E09281491708F080E008958E
:1034B0009C0143E1429FC001439F900D1124E09184
:1034C0007604F0917704E80FF91F8385823091F438
:1034D00081E090E0658176814091B5025091B6021D
:1034E0006417750711F490E080E0892B19F081E0F2
:1034F000232B09F080E00895FC01A081B1818DE0CB
:10350000689FA00DB11D112413964D915C91858586
:103510009685489F9001499F300D589F300D11248A
:10352000C9010196611103C0478144FD04960895C5
:10353000EF92FF920F931F93CF93DF93EA01FC0169
:10354000E60FF71F02811381E480F5804F2D6E2D69
:10355000C80181DF81110DC082E090E099838883EA
:103560008EEF9FEFDF91CF911F910F91FF90EF9022
:103570000895C8013CDF882339F082E090E0998308
:10358000888388EF9FEFEECF1093BC020093BB02BD
:10359000E092BD02F092BE0281E090E099838883C0
:1035A00090E080E0DFCFCF92DF92EF92FF920F9317
:1035B0001F93CF93DF937A01EC01C60FD71FC09002
:1035C000BB02D090BC020091BD021091BE02412FFF
:1035D000602FC60140DF811110C082E090E0F7014A
:1035E000918380838AEF9FEFDF91CF911F910F919D
:1035F000FF90EF90DF90CF900895C601F8DE88230A
:1036000041F082E090E0F7019183808388EF9FEFA3
:10361000EBCF4C815D816E817F819A8189818F3F63
:1036200041F082E090E0F701918380838EEF9FEF7D
:10363000DBCFE3E1EC9D9001ED9D300D1124E09195
:103640007604F0917704E20FF31F0190F081E02DF2
:103650002DE0029FE00DF11D11240190F081E02D7D
:1036600027E0129FE00DF11D1124808391838B814F
:10367000828343835483658376831F5F1093BE02E6
:1036800081E090E0F7019183808390E080E0ACCF0F
:10369000EF92FF920F931F93CF93DF937A018C01E8
:1036A000060F171FC0917604D0917704209781F000
:1036B00021E030E0F80182819381409178045091BB
:1036C00079048417950710F030E020E0232B71F483
:1036D00082E090E0F701918380838EEF9FEFDF918E
:1036E000CF911F910F91FF90EF90089543E1489F74
:1036F0009001499F300D1124C20FD31F78DE88231B
:1037000041F082E090E0F7019183808388EF9FEFA2
:10371000E6CFF8012481358120383105C8F687814C
:103720008111D6CF4181842F90E08F7E009741F0A8
:1037300082E090E0F7019183808386EF9FEFCFCF07
:103740004F833E832D83268128871986223010F4EB
:1037500021E0288721E030E0F70131832083BFCFCB
:1037600088E090E0FA019183808390E080E0089502
:10377000FB018FEF808381E181838FEF9FEF938344
:10378000828380E890E0958384831682178208956F
:10379000FB018FEF808391E0918382839383848305
:1037A00084E3858381E090E0978386830895DF92A8
:1037B000EF92FF920F931F93CF93DF93EA01FC01E7
:1037C000E60FF71F8181813071F082E090E09983EC
:1037D00088838FEF9FEFDF91CF911F910F91FF9023
:1037E000EF90DF90089582819381D4802581E680D7
:1037F000F78000917604109177040115110539F4D2
:1038000082E090E0998388838CEF9FEFE4CF409132
:103810007804509179048417950738F082E090E09D
:10382000998388838EEF9FEFD6CF892B39F082E082
:1038300090E09983888386EF9FEFCDCF8D2D8D7F8C
:10384000B1F72130A1F781E0D11006C091E0E9166F
:10385000F10431F080E004C0E2E0EE16F104D0F3B0
:10386000882329F390E080E0C2DD882339F082E0EC
:1038700090E09983888388EF9FEFADCFF801D386DE
:1038800081E08487F686E586108A178681E090E0DD
:103890009983888390E080E09ECF4CE050E062E125
:1038A00073E057CA8F929F92BF92CF92DF92EF92AE
:1038B000FF920F931F93CF93DF93EA01FC01E60F72
:1038C000F71F828193810481B580E0917604F091A5
:1038D0007704309791F482E090E0998388838CEFAD
:1038E0009FEFDF91CF911F910F91FF90EF90DF90AD
:1038F000CF90BF909F908F90089520917804309141
:1039000079048217930738F082E090E099838883E6
:103910008EEF9FEFE6CF23E1289F6001299FD00C17
:103920001124EC0DFD1DE080F180E114F10499F209
:103930008281081748F78DE0089F80011124E00E6E
:10394000F11EF70180819181892B29F6BB20E1F2DC
:10395000F7E0BF9E40011124C4010E948C28F701AA
:1039600091838083E0917604F0917704EC0DFD1D46
:103970000190F081E02DE00FF11F8081918100978F
:1039800039F482E090E0998388838DEF9FEFA9CF8F
:10399000A40170E060E00E94C63A809176049091A4
:1039A0007704C80ED91EF60180819181080F191F76
:1039B000F801B28281E090E09983888390E080E012
:1039C00090CFAF92BF92CF92DF92FF920F931F934F
:1039D000CF93DF93EA01FC01E60FF71F8281938109
:1039E000F48000917604109177040115110581F49B
:1039F00082E090E0998388838CEF9FEFDF91CF91F5
:103A00001F910F91FF90DF90CF90BF90AF900895DE
:103A100020917804309179048217930738F082E07E
:103A200090E0998388838EEF9FEFE8CF2FEF2F0DE3
:103A30002C3FA8F723E1289F6001299FD00C112477
:103A40000C0D1D1DF80180819181892B89F6FDE007
:103A5000FF9E50011124C5010E948C28F80191831A
:103A60008083E0917604F0917704EC0DFD1D808158
:103A70009181009739F482E090E0998388838DEFFB
:103A80009FEFBCCFA50170E060E00E94C63AE091D4
:103A90007604F0917704EC0DFD1DF28281E090E058
:103AA0009983888390E080E0A9CFCF92DF92EF9254
:103AB000FF920F931F93CF93DF93860F971FFC0105
:103AC000028113818091760490917704892B81F093
:103AD00082E090E0FA01918380838CEF9FEFDF9189
:103AE000CF911F910F91FF90EF90DF90CF900895AD
:103AF000C801B0E0A0E00197A109B1098F3F9F4F35
:103B0000A105B10540F082E090E0FA019183808345
:103B10008EEF9FEFE4CF7A0183E1809F6001819F68
:103B2000D00C1124C6010E948C28EC01009741F4AE
:103B300082E090E0F701918380838DEF9FEFCFCFFC
:103B4000A60170E060E00E94C63AD0937704C0936B
:103B50007604109379040093780490E080E02FEFCE
:103B60003FEF41E061E070E08017910741F481E0B0
:103B700090E0F7019183808390E080E0B0CF3A8BB2
:103B8000298B1B864C877E876D87188A1F86019636
:103B90006396EACFEF92FF921F93CF93DF93EC01EE
:103BA00010E0F12CE12C6A811617B0F083E0689FD9
:103BB000B0011124AE014F5E5F4FC7010E94F12892
:103BC000009721F02FEF3FEF3A8B298BDF91CF91B8
:103BD0001F91FF90EF900895612FCE018DDC61E081
:103BE00070E00E943927E816F90608F47C011F5F8F
:103BF000DACFF894209174043091750481E0211596
:103C0000310509F080E0232B09F0789408952F9274
:103C10003F924F925F926F927F928F929F92AF925C
:103C2000BF92CF92DF92EF92FF920F931F93CF93A9
:103C3000DF933C01660E771EF301828193814C0174
:103C4000B12CA12CC0917604D0917704209769F013
:103C500021E030E06091780470917904861797072D
:103C600010F030E020E0232BD1F482E090E0FA0164
:103C7000918380838EEF9FEFDF91CF911F910F9102
:103C8000FF90EF90DF90CF90BF90AF909F908F907C
:103C90007F906F905F904F903F902F90089580920B
:103CA000BF029092C002A092C102B092C20263E130
:103CB000689F9001699F300D1124C20FD31FF3013B
:103CC0008181833040F082E090E0FA01918380832B
:103CD00086EF9FEFD1CF2A012B813C81232BF1F47A
:103CE000288139819F8191FF2EC0232B09F46FC059
:103CF00020917B049A81422F490F5527551FBA0105
:103D000041E050E06138710514F050E040E0452B8F
:103D100009F45DC02A87920F90937B048150823012
:103D200008F481C066DF882309F4D8C0F3018181DB
:103D3000813009F48DC008F47BC0823009F4C6C01C
:103D400090E080E0ADC0232B09F441C020917A04BB
:103D50009A81E22FE90FFF27FF1F41E050E0ED3F7E
:103D6000F10514F050E040E0452B89F12A87920FCD
:103D700090937A04D3CFA081B181A20FB31F119683
:103D80006C91060F111D0196295F3F4F841795070F
:103D900094F38D859E85089F1001099F300C189F14
:103DA000300C1124C114D104D1F48F8184FF17C0C9
:103DB0000E948727F5E02F0E311C21E08215930524
:103DC00008F420E0A701435F5F4F21110EC082E09D
:103DD00090E0F2019183808387EF9FEF4DCF0E94A7
:103DE00087272FEF221A320AE8CF88819981E80EBF
:103DF000F91EF70114830383FFEFCF1ADF0A7A015C
:103E00008A818C151D0409F00CF48CCFE881F981AE
:103E1000EE0DFF1D428150E030E020E010E000E0B8
:103E200090E080E0B3CFF12CE12CD12CC12CE8CF75
:103E300081E090E09C838B83F1DA882309F480CFC2
:103E400081E090E00E948B1680E40E94991678CF62
:103E500089899A89019661F083E090E09C838B8345
:103E600082E090E00E948B1680E40E94931668CF57
:103E70008D819E812091B5023091B6028217930701
:103E8000D1F46091B9027091BA02AE014F5E5F4FFA
:103E90008091B7029091B8020E94102A0097E1F237
:103EA000789422E030E0F20131832083892B99F06D
:103EB0008DEF9FEFE1CE89288A288B2869F6892B20
:103EC00059F6CE0167DE188A1F86E8CF82E090E0BF
:103ED0009C838B8335CF90E080E0CECE82E090E073
:103EE000F2019183808385EF9FEFC6CE8F929F92E0
:103EF000AF92BF92CF92DF92EF92FF920F931F93F8
:103F0000CF93DF93EA018C01060F171FF80181811F
:103F1000833098F082E090E09983888386EF9FEF6A
:103F2000DF91CF911F910F91FF90EF90DF90CF9095
:103F3000BF90AF909F908F9008958091760490915C
:103F40007704892B61F081E090E020917804309132
:103F50007904232B11F490E080E0892B39F482E07E
:103F600090E0998388838EEF9FEFDACF42DE88233B
:103F700009F4DFC0F8018181813009F495C0E8F0CF
:103F8000823099F42091780430917904E09176049C
:103F9000F091770490E080E041E050E02817390785
:103FA00009F0BDC03BDA811117C0789481E090E040
:103FB0009983888390E080E0B3CF2091780430919A
:103FC0007904E0917604F091770490E080E041E09C
:103FD00050E02817390741F481E090E00E948B16E9
:103FE00080E40E949916E1CF63817481672B11F000
:103FF0005483438301967396ECCFE0917604F0915D
:104000007704E00FF11F2381348122303105D9F488
:10401000218932892F3F3F4FB1F42581368140916C
:10402000B5025091B6022417350761F5AF014F5E16
:104030005F4F6091B9027091BA028091B70290917E
:10404000B8020E94102AEFEFCE1ADE0AEE0AFE0A2C
:104050000D5E1F4F409178045091790470E060E04C
:10406000C416D506E606F7063CF5009731F27894BB
:10407000892B09F49BCF82E090E0998388838DEFB0
:104080009FEF4ECFC114D104E104F104E1F6232BDC
:10409000D1F6CF017FDDE0917604F0917704E00F57
:1040A000F11F108A1786CFCF10E000E090E080E08B
:1040B000C12CD12C7601CECF0097C9F610E000E0DC
:1040C000812C912C540183E0E82EF12C1AC0E09150
:1040D0007604F0917704E00FF11F838194810297B9
:1040E00049F4F482E38282E090E00E948B1680E43F
:1040F0000E949316FFEF8F1A9F0AAF0ABF0A0D5E48
:104100001F4F8091780490917904B0E0A0E0881668
:104110009906AA06BB06DCF290E080E0A8CF638196
:1041200074816230710511F4548343830196739650
:1041300035CF82E090E09983888385EF9FEFF0CEC2
:104140000097B9F48FEFFB0180832091BF0230917B
:10415000C00243E1429FC001439F900D1124E091B2
:104160007604F0917704E80FF91F8285FB018183C3
:1041700008950C94421688E090E0FA0191838083C0
:1041800090E080E008951092750410927404E6E7C0
:10419000F4E086E0DF011D928A95E9F78DE49CE169
:1041A00090937304809372040895809172049091A7
:1041B000730408952F923F924F925F926F927F9275
:1041C0008F929F92AF92BF92CF92DF92EF92FF9227
:1041D0000F931F93CF93DF93CDB7DEB72F970FB613
:1041E000F894DEBF0FBECDBFF894E0917404F09157
:1041F00075043196F0937504E093740478944090BC
:104200007604509077044114510409F40CC2E091F3
:104210007804F0917904EF2B09F405C22D874987C2
:104220005A876B877C8798878F831201B12CA12CCA
:1042300010E000E08091780490917904A816B90606
:1042400018F40115110529F1F894809174049091E6
:104250007504019790937504809374047894C80151
:104260002F960FB6F894DEBF0FBECDBFDF91CF9172
:104270001F910F91FF90EF90DF90CF90BF90AF9084
:104280009F908F907F906F905F904F903F902F9076
:1042900008957101E418F508D10117968C911797CC
:1042A00081FD54C013968D919C911497039709F04A
:1042B0004DC015968D919C91EF81F8858E179F07C3
:1042C00009F044C0B50190E080E07FD48A8320915A
:1042D0007604309177043D832C833D85332309F4A4
:1042E0004CC04C815D81452B09F49AC180917804C2
:1042F00090917904A816B90608F092C1C501D8D8E2
:104300008823E9F06C817D816E0D7F1D7D836C8338
:10431000DB011F968D919C91892B89F0D12CC12CAA
:10432000F12CE12CAC81BD8112968C9112978E15E7
:104330001F0409F094F450961C921E921F972A8134
:10434000222321F0B50190E080E041D43FEFA31A91
:10435000B30A43E1240E311C6DCFAC81BD81ED91D8
:10436000FC91EC0DFD1D858196810FD7BFEFEB1AF7
:10437000FB0AEDE0CE0ED11CD5CFEC81FD8130974C
:1043800009F44EC18091780490917904A816B90679
:1043900008F046C1EE0DFF1DFF87EE87C50188D8E6
:1043A0008B83882339F1AE85BF851F968D919C91B3
:1043B0005097019621E01D964D915C9184179507C9
:1043C00009F020E02E831982712C10E000E0AE8508
:1043D000BF8512968C91781608F45DC0EE85FF8536
:1043E000878590890196658576850E94663A908BCF
:1043F0008787A5CFB1E0BE83E6CF992493946BC0A5
:104400008BD6F6019683858382C0D601ED90FC9011
:10441000B7E06B9EE00CF11C1124F70163817481FD
:1044200080818F3F61F121E030E002C0220F331F15
:104430008A95E2F7C901092E000CAA0BBB0BFB0100
:10444000408151816281738184239523A623B72300
:1044500021E0892B8A2B8B2B09F420E0D4012C93AB
:10446000D70111968C91F60123853485820F932F05
:10447000911D880E991E1486138663949BC04181FA
:1044800050E0C4010E94BD3AEBCF998206EF1FEFC6
:10449000C5C01982C3C0F981F111A0CFEDE07E9EA5
:1044A00070011124AE85BF85CD90DC90CE0CDF1C51
:1044B00015D49D838C83BB81BB2309F49ECF81E0FF
:1044C000EE85FF8527853089232B09F080E0982E23
:1044D000882309F458C0672D8E859F850DD8D60195
:1044E00018969C938E93179761E070E0C2D4EE8586
:1044F000FF85218932892F3F320709F481CFBC0122
:10450000C901CFD7D60116969C938E931597D601E5
:1045100015968D919C911697009709F4B6CFEC8172
:10452000FD818E0F9F1F1A969C938E931997AE85CF
:10453000BF85ED91FC911197EE0EFF1EF7012185CD
:104540003285148613861A968C91870DD9018D9326
:10455000711016C0EE85FF85878184FF11C04985E3
:104560005A856B857C85F90141835283638374830B
:10457000F701838594850496A80FB91F14861386C6
:10458000F701B287A187D60115968D919C91169758
:10459000892B09F443C0EE85FF8525813681809102
:1045A000B5029091B6022817390779F019968D90C7
:1045B0009C90612CD60112968C911297681608F483
:1045C00024CF1A969C928E921997BE81BB2309F430
:1045D00060CF61E070E0F601878190854AD4D60112
:1045E0001796ED90FC90189715964D915C91E1E02F
:1045F000F0E0BA81BB2311F0F0E0E0E00C811D8116
:104600009C01B501882799278E1B9F0B6AD38C01CB
:10461000892B21F0F60185819681B7D57394D7CE89
:104620000FEF1FEF8CCE10E000E00ECE2F923F92E6
:104630004F925F926F927F928F929F92AF92BF92B2
:10464000CF92DF92EF92FF920F931F93CF93DF935E
:10465000809176049091770410E000E0892BA9F016
:10466000C8DA0AEF1FEF882381F020907804309099
:104670007904C0917604D0917704D12CC12C10E03C
:1046800000E02C143D04A9F47894C801DF91CF9187
:104690001F910F91FF90EF90DF90CF90BF90AF9060
:1046A0009F908F907F906F905F904F903F902F9052
:1046B0000895C6010E94581A882309F18B819C81B4
:1046C0000397E9F48F859889892BC9F0B60190E0AA
:1046D00080E07BD221E030E0882311F030E020E060
:1046E00044245524421A530AB12CA12C912C812C1C
:1046F0008A818815190409F038F4188A1F864FEF4B
:10470000C41AD40A6396BDCFE881F981EA0DFB1D76
:1047100085819681892BA1F161E070E08781908588
:10472000A8D33C01DBD28C01E881F981EA0DFB1DA5
:104730008185928525813681200F311FAC01421B76
:10474000530B9A0147815085421B530B70E060E088
:104750000E94C63AE881F981EA0DFB1DE780F084EA
:10476000458156819301B601C201BBD28C01892BD0
:1047700039F0E881F981EA0DFB1D8581968105D527
:104780005FEF851A950A8DE0A80EB11CB1CF31CA32
:10479000789408952F923F924F925F926F927F92FA
:1047A0009F92AF92BF92CF92DF92EF92FF920F93C0
:1047B0001F93CF93DF9300D000D0CDB7DEB7009129
:1047C000760410917704992493940115110509F446
:1047D0003EC0A0907804B09079040BDA982E88231C
:1047E000B1F110927704109276041092790410922D
:1047F000780410927A0410927B048FEF9FEFDC0113
:104800008093BF029093C002A093C102B093C202F2
:1048100078947FD31E830D83C12CD12C7601C501E2
:10482000B0E0A0E089839A83AB83BC8322242A94DE
:10483000322C89819A81AB81BC81C816D906EA06DF
:10484000FB06F4F0C801A1D480E40E949916892DDA
:1048500026960FB6F894DEBF0FBECDBFDF91CF9185
:104860001F910F91FF90EF90DF90CF90BF90AF908E
:104870009F907F906F905F904F903F902F90089502
:10488000AD81BE8115968D919C9116972091B502B0
:104890003091B60282179307D1F451968D919C9175
:1048A000EED5ED81FE8180819181B12CA12C412C2E
:1048B000512C3201892B89F5BFEFCB1ADB0AEB0AA9
:1048C000FB0AED81FE817396FE83ED83B2CFC114A6
:1048D000D104E104F10429F7892B19F7ED81FE8158
:1048E000818992898F3F980709F029D5AD81BE81D2
:1048F00052963C922E925197D4CF8A0D9B1DDC018B
:104900008D919C91009709F040D4BFEF4B1A5B0A40
:104910006B0A7B0AEDE0AE0EB11CAD81BE818D91BC
:104920009C91119712964C9150E070E060E0441613
:104930005506660677060CF328D4BECFCF93DF93D7
:10494000EA0128DF811109C082E090E09983888321
:1049500085EF9FEFDF91CF91089581E090E00E9475
:104960008B1681E090E09983888390E080E0F2CF1D
:1049700011DF1092730410927204089542E050E027
:104980006AE573E00C94A916FF920F931F93CF93DF
:10499000DF938A01EC01C60FD71FF980B9D20897BF
:1049A000F816190671F068F082E090E0F801918342
:1049B00080838EEF9FEFDF91CF911F910F91FF903A
:1049C00008956C817D818E819F814B810E943E196B
:1049D000811108C082E090E0F8019183808384EF28
:1049E0009FEFE9CFF9800E9439194F2D50E0BE01A9
:1049F000685F7F4F0E94BD3A89810E94A81981E0BB
:104A000090E0F8019183808390E080E0D4CFDF9242
:104A1000EF92FF920F931F93CF93DF938A01EC01E4
:104A2000C60FD71F0E9439197C01D98071D2DD20B1
:104A300059F0029721E030E0D816190619F010F06D
:104A400030E020E0232B79F482E090E0F8019183BC
:104A500080838EEF9FEFDF91CF911F910F91FF9099
:104A6000EF90DF900895EF2841F482E090E0F801A4
:104A70009183808384EF9FEFEECFF9800E943919F4
:104A80004F2D50E0BE016E5F7F4F0E94BD3A89817D
:104A90000E94A81981E090E0F8019183808390E062
:104AA00080E0D9CF8EEB94E290937D0480937C04D8
:104AB000089580917C0490917D0408950895FC01EF
:104AC00011821082938382830895DB011D921C92D0
:104AD000DC011296ED91FC9113977183608313961C
:104AE0007C936E9312970895FC0180819181DB0184
:104AF0008D939C93A081B181109741F08D919C91F1
:104B000091838083892B11F4F383E2830895FC0160
:104B100080819181DB018D939C93892B11F47383A8
:104B20006283718360830895FC01118210829383F4
:104B300082830895CF93DF931F921F92CDB7DEB784
:104B40001A821982F894BE016F5F7F4F83E894E068
:104B5000CBDF89819A81009709F017D389819A81E7
:104B6000892B89F7BE016F5F7F4F87E894E0BCDF38
:104B700089819A81009709F008D389819A81892BCC
:104B800089F778940F900F90DF91CF910895CF938C
:104B9000DF931F921F92CDB7DEB71A821982F89465
:104BA000BE016F5F7F4F8FE794E09EDF89819A811E
:104BB000009709F0EAD289819A81892B89F7789444
:104BC0000F900F90DF91CF91089581E0089590E0CC
:104BD00080E00895EF92FF920F931F93CF93DF939E
:104BE0001F921F92CDB7DEB71A82198280917E0480
:104BF00007EF1FEF8823A1F1F894BE016F5F7F4F8D
:104C000087E894E071DF789489819A81EE24E394B7
:104C1000F12C892B51F4F894BE016F5F7F4F83E82C
:104C200094E062DF7894F12CE12C89819A810EEF77
:104C30001FEF0097A9F0FC014281538164E070E00E
:104C400076D68C01892B61F0F89469817A81C7014D
:104C5000880F991F880F991F8D579B4F58DF7894A5
:104C6000C8010F900F90DF91CF911F910F91FF908E
:104C7000EF9008950F931F93CF93DF9300D01F926F
:104C8000CDB7DEB71C821B821A82198280917E0406
:104C900007EF1FEF8823C1F0AE014D5F5F4F64E067
:104CA00070E0CE010196B6D68C01892B69F4E981BA
:104CB000FA818B819C8193838283F89469817A81C4
:104CC0008FE794E002DF7894C8010F900F900F9067
:104CD0000F90DF91CF911F910F910895BBD704964C
:104CE00008958F929F92AF92BF92CF92DF92EF92F0
:104CF000FF920F931F93CF93DF931F921F92CDB715
:104D0000DEB71A821982BC016F5F7F4F6330710575
:104D100098F0AA24AA94BA2CC5010F900F90DF91A5
:104D2000CF911F910F91FF90EF90DF90CF90BF90A8
:104D3000AF909F908F9008954115510551F3480110
:104D400059018A016C01CADF8815990511F7E11430
:104D5000F104F9F28E0D9F1DA816B906D0F28091CC
:104D60007E048823F1F0F894B5016450710997012D
:104D7000AE014F5F5F4FC8010496E1D65C01892BFD
:104D800071F489819A81F80193838283C601880F27
:104D9000991F880F991FB8018D579B4F96DE789405
:104DA000BBCF87EFA82EBB24BA94B6CFAF92BF92E9
:104DB000CF92DF92EF92FF920F931F93CF93DF93E7
:104DC0001F921F92CDB7DEB71A821982892B09F084
:104DD00047C06115710509F443C04115510509F437
:104DE0003FC02115310509F43BC001151105C1F182
:104DF00080917E048823B9F179016A015B01F894FE
:104E0000BE016F5F7F4F8FE794E06EDE78948981FB
:104E10009A81009759F1DC0112966D917C91A8015D
:104E20000496A6D68C01E981FA81D501ED93FC9315
:104E3000828193810496F601918380834FDFD701AD
:104E40008D939C93C8010F900F90DF91CF911F918C
:104E50000F91FF90EF90DF90CF90BF90AF900895AB
:104E60000FEF1FEFEFCF07EF1FEFECCF0EEF1FEFAE
:104E7000E9CFCF93DF93EC01672B71F4F4D68C1755
:104E80009D0760F0E7D62496C80FD91FE6D68C0F91
:104E90009D1FDF91CF910895E3D6F1CF90E080E0A0
:104EA000F8CF0F931F93CF93DF9320917E042111AE
:104EB0002BC08B01EC0183E894E001DE87E894E0ED
:104EC000FEDD8FE794E0FBDD97D00097C1F4CBD6F1
:104ED00070E060E0CEDF43EC52E062E070E081D150
:104EE000009769F48091C3029091C402CED6B801B4
:104EF000CE0103D5009719F421E020937E04DF91C1
:104F0000CF911F910F91089584EF9FEFF8CFA8C61E
:104F1000AAC6CF93DF93AAD6EC01892B11F40ADE3F
:104F200036DECE01DF91CF910895CF93DF939ED6E9
:104F3000EC01892B09F4FEDDCE01DF91CF910895BC
:104F40008091C3029091C4020895CF93DF93809122
:104F50007E04D0E0C0E08823D1F09CD6EC01892B00
:104F6000B1F4E8DD14DE8091C3029091C402E7D170
:104F7000E8D2EC01892B59F483E894E0D5DD87E889
:104F800094E0D2DD8FE794E0CFDD10927E04CE0175
:104F9000DF91CF910895EF92FF920F931F93CF93DC
:104FA000DF93EC017A018B010F5F1F4F0E9DA00173
:104FB0000F9D500D1E9D500D112470E060E00E9469
:104FC000C63A90E080E0F0E0E0E02FEFE816F90666
:104FD00039F4DF91CF911F910F91FF90EF900895D9
:104FE0001A8219822883309711F0D283C1830196E7
:104FF000FE01C00FD11FEACFCF92DF92EF92FF9256
:105000000F931F93CF93DF9304EC17E00C7F43E0E3
:1050100050E065EC72E08BEC92E01CD485ECE82E5D
:1050200082E0F82E9BECC92E92E0D92EC3E8D8E09E
:10503000D7014D915D917D01F601619171916F01F3
:10504000198308835D834C835B834A837F836E83EC
:105050009B012F5F3F4F249FC001259F900D349FE0
:10506000900D1124998788870115110511F0C80149
:1050700092DF88859985080F191F2A96FBECEF1699
:10508000F2E0FF06A9F6EDE8F4E084E393E0DF0147
:105090009C011D9221503040E1F710928C04109237
:1050A0008B041092A2081092A1081092A6081092E8
:1050B000A5081092A4081092A3081092A8081092B4
:1050C000A7081092AA081092A9081092AC08109292
:1050D000AB081092B0081092AF081092AE08109270
:1050E000AD081092B2081092B1081092B408109254
:1050F000B3081092800810927F08109282081092D4
:10510000810890E080E0DF91CF911F910F91FF9097
:10511000EF90DF90CF9008950097F1F0F894ABEC0A
:10512000B2E0E3E8F8E030E020E04D915D9148170F
:105130005907A8F0428153814115510581F08AE059
:10514000829FF001839FF00D1124ED57F74F80816E
:105150009181009759F4789490E080E008952F5F52
:105160003F4F3A962330310501F7F5CFDC01119618
:105170006D917C91718360834150510953834283C7
:10518000FC012193CF0178940895009749F1DC0147
:105190008E91853041F4E0918108F091820830973A
:1051A000F9F0CD0119948530D8F4282F30E0F89427
:1051B0008FEF8C938AE0829FF001839FF00D112482
:1051C000ED57F74F8081918112969C938E931197A2
:1051D000B183A083828193810196938382837894A3
:1051E0000895CF92DF92EF92FF920F931F93CF9388
:1051F000DF939C0180E994E08C7F4115510509F40F
:105200009BC02115310509F497C06115710509F49A
:1052100093C07A01AB01B9016D5F7F4F6C7F9B0139
:105220002F5F3F4F249F8001259F100D349F100D4D
:105230001124F8942091A1083091A208232B59F44D
:105240002091A9083091AA082115310569F120178C
:10525000310708F058C02091AB083091AC08232BDF
:1052600091F42091A9083091AA08820F931F2091F0
:10527000B3083091B4082115310509F441C0201755
:10528000310708F056C07894CFEFDFEF86EF9FEF3D
:10529000F701D183C083DF91CF911F910F91FF90D0
:1052A000EF90DF90CF900895C3E0D0E0C0908B04E2
:1052B000D0908C0421E333E02C193D0920173107ED
:1052C00010F32AE02C9FF0012D9FF00D1124ED57D3
:1052D000F74F91838083558344835383428377833D
:1052E000668311870087009709F055DE0C0D1D1DA0
:1052F00010938C0400938B04789490E080E0C8CFE6
:10530000C4E0D0E0D3CFC3E0D0E02AE02C9FF0018E
:105310002D9FF00D1124ED57F74F91838083558316
:1053200044835383428377836683009729F333DE74
:10533000E3CFC4E0D0E0E9CF8FEF9FEFACCF9C018B
:105340000397029708F069C0F89484E09AE0482F28
:1053500050E0241735070CF44DC091E08AE0829F9D
:10536000F001839FF00D1124ED57F74F1182108249
:105370001582148213821282178216829923B1F148
:105380008091A1089091A208892BA9F42091A908E5
:105390003091AA082115310571F080918B0490910C
:1053A0008C04821B930B90938C0480938B0410923B
:1053B000AA081092A9088091AB089091AC08892B9B
:1053C000A9F42091B3083091B4082115310571F08A
:1053D00080918B0490918C04821B930B90938C048E
:1053E00080938B041092B4081092B308789490E0E4
:1053F00080E00895949FF001959FF00D1124ED57E2
:10540000F74F40815181452B31F440855185452B23
:1054100011F481509CCF90E0A1CF8FEF9FEF0895C2
:105420004115510549F1009739F16115710521F1D7
:10543000F89420917F0830918008232BB9F42091B3
:10544000810830918208232B89F4909380088093FF
:105450007F087093820860938108789425E030E09B
:1054600090E080E0FA0131832083089578942FEF53
:105470003FEF86EF9FEFF6CF8FEF9FEF08950597F1
:1054800069F4F8941092800810927F0810928208B4
:1054900010928108789490E080E008958FEF9FEF5C
:1054A00008956115710519F4F0E0E0E011C0853050
:1054B000910581F4E0917F08F09180083097A1F385
:1054C000CB0101961995009779F3FC0185E0819352
:1054D000CF0108959C01235031092230310520F776
:1054E0002AE0289FD001299FB00D1124AD57B74F56
:1054F0002D913C911197232BB9F216962D913C9149
:1055000017972617370780F2F89412962D913C9141
:1055100013972115310529F0ED91FC9111973097E2
:1055200011F47894C1CF4181528111965C934E93CE
:105530002150310913963C932E93129781937894BE
:10554000C7CFE1ECF7E08EEBDF011D928A95E9F71A
:10555000EDE8F4E084E393E0DF019C011D9221502B
:105560003040E1F710928C0410928B04E3E8F8E0ED
:1055700082E3DF011D928A95E9F7EFE7F8E084E026
:10558000DF011D928A95E9F790E080E00895CF93BE
:10559000DF93C091D102D091D202CF3FDC0759F402
:1055A00023D49093D2028093D10297FF09C0D09365
:1055B000D202C093D10284EF9FEFDF91CF91089583
:1055C00090E080E0FACF8230910528F48093B5080E
:1055D00090E080E008958FEF9FEF08954F925F92E3
:1055E0006F927F92AF92BF92CF92DF92EF92FF9233
:1055F0000F931F93CF93DF931F921F92CDB7DEB708
:105600001A821982009709F479C06115710509F4AD
:1056100075C02091D1023091D20207EF1FEF2F3FCA
:105620003F4F09F445C06B015C01412C512C320104
:10563000F12CE12C10E000E09E012F5F3F4FA6010E
:105640004E195F09B5016E0D7F1D8091D1029091B9
:10565000D20229D4892B09F04BC089819A81009705
:1056600041F4E114F10429F42091B508222309F44E
:1056700042C0E80EF91EEC14FD04D0F480E8481690
:1056800084E858068EE16806710420F560E070E059
:10569000CB010E9494342AE0420E511C611C711C03
:1056A0000A3F4FEF140721F0043F8FEF1807A1F4D2
:1056B000C8010F900F90DF91CF911F910F91FF9034
:1056C000EF90DF90CF90BF90AF907F906F905F9002
:1056D0004F90089501EF1FEF81E090E0013F2FEF21
:1056E000120711F090E080E0892B09F4A5CFE0CFFC
:1056F00004EF1FEFDDCF0AEF1FEFDACF0FEF1FEF41
:10570000D7CF4F925F926F927F92AF92BF92CF921C
:10571000DF92EF92FF920F931F93CF93DF931F922D
:105720001F92CDB7DEB71A821982009709F479C0AB
:105730006115710509F475C02091D1023091D20232
:1057400007EF1FEF2F3F3F4F09F445C06B015C018E
:10575000412C512C3201F12CE12C10E000E09E0193
:105760002F5F3F4FA6014E195F09B5016E0D7F1DDA
:105770008091D1029091D2024CD3892B09F04BC079
:1057800089819A81009741F4E114F10429F4209170
:10579000B508222309F442C0E80EF91EEC14FD04FA
:1057A000D0F480E4481682E458068FE0680671045D
:1057B00020F560E070E0CB010E9494342AE0420EB4
:1057C000511C611C711C0E3F4FEF140721F0043F68
:1057D0008FEF1807A1F4C8010F900F90DF91CF91C0
:1057E0001F910F91FF90EF90DF90CF90BF90AF90FF
:1057F0007F906F905F904F90089502EF1FEF81E0D0
:1058000090E0023F2FEF120711F090E080E0892B2B
:1058100009F4A5CFE0CF04EF1FEFDDCF0EEF1FEFB0
:10582000DACF0FEF1FEFD7CF8091D1029091D20244
:105830008F3F980749F0D0D2892B49F48FEF9FEF23
:105840009093D2028093D10290E080E0089584EF9B
:105850009FEF0895CF92DF92EF92FF920F931F93E5
:10586000CF93DF9321E04115510509F020E041502D
:10587000510921112CC0DC01FB01D12CC12C21E0EC
:1058800022C03FEFC31AD30A7D010D911D91E7019C
:10589000EA80FB80E016F106A8F420813181E280E5
:1058A000F380F182E08233832283ED90FC901197A4
:1058B0009D0122503109E901F982E88211961C9379
:1058C0000E9320E03296C416D506D8F2D2CFDF91DF
:1058D000CF911F910F91FF90EF90DF90CF9008959F
:1058E000FC01680F791F90E080E0E617F70709F4E4
:1058F00008952191820F911DF8CF2091B6082111B2
:1059000013C045DE009791F41092BC081092BB08BA
:105910001092BA081092B9081092B8081092B708FD
:1059200021E02093B608089584EF9FEF0895AF9289
:10593000BF92CF92DF92EF92FF920F931F93CF937C
:10594000DF93009709F460C04630510508F45CC04D
:105950002091B608C7EFDFEF222309F449C08C017C
:10596000060F171FF801C080D180C114D10409F4BB
:105970004EC096012A5F3F4F4217530708F447C0B5
:105980007C018091BB089091BC0893838283B6010F
:105990006C5F7F4F5801A60EB71EC801A1DFF5014D
:1059A0009183808364E070E0C80118DEEC01892BEC
:1059B000F9F481E090E007DEB601C80104960EDE3E
:1059C000EC01892B91F462E070E0C50107DEEC0187
:1059D000892B59F4C701D9DB8091BB089091BC0891
:1059E00001969093BC088093BB0890E080E0EBDDCB
:1059F000CE01DF91CF911F910F91FF90EF90DF903B
:105A0000CF90BF90AF900895CFEFDFEFF1CFC9EF08
:105A1000DFEFEECF6F927F928F929F92AF92BF9205
:105A2000CF92DF92EF92FF920F931F93CF93DF936A
:105A300000D01F92CDB7DEB7009709F47AC04115A8
:105A4000510509F476C02091B60807EF1FEF222315
:105A500009F44DC03A017B015C0164E070E0CE01C5
:105A600001964FDE8C01892B09F041C009811A8112
:105A70000115110509F45AC0480186E0880E911CF1
:105A8000B701680D791D8091D3029091D40209DD90
:105A90006C01009709F450C0A70170E060E00E941B
:105AA000C63A89819A81AB81BC81EC0CFD1CF7015F
:105AB00081939193A193B1937F0181E090E083DD85
:105AC000B801C7011EDE892B31F562E070E0C70125
:105AD000800F911F16DE8C01892BE9F490E080E0A5
