:1000000014C100000C948B3B0C94B63B0C94E13B68
:100010000C940C3C0C94373C0C94623C0C948D3C3E
:100020000C94B83C33C1000031C100002FC1000066
:100030002DC100002BC1000029C1000027C1000014
:1000400025C1000023C1000021C100001FC1000024
:100050001DC100001BC1000019C100000C94E33C4D
:1000600015C100000C94B7400C94ED400FC1000086
:100070000DC100000BC1000009C1000007C1000054
:1000800005C1000003C1000001C10000FFC0000065
:100090000C9443410C947941F9C00000F7C0000072
:1000A000F5C00000F3C00000F1C00000EFC0000088
:1000B000EDC00000EBC00000E9C00000E7C0000098
:1000C000E5C00000E3C000000C94F7360C94CF416B
:1000D0000C940542DBC000000C945B420C949142EE
:1000E000D5C0000005A84CCDB2D44EB93836A9020F
:1000F0000C50B9918688083CA6AAAA2ABE00000026
:10010000803F00000A0B02090C0D0E0807030401D2
:1001100000000000000000000000000000000000DF
:1001200000000000000000000000000000001211AC
:1001300010000000000000000000000000000000AF
:10014000000000000000000001021020200808103C
:100150002040102040800201020108040201010237
:100160000408102040808040201008040201800410
:10017000020180402010080402010804020101026B
:10018000040810204080010204081020408005056A
:100190000505070508080808020202020A0A0808FD
:1001A000040404040101010101010101030303032B
:1001B00003030303040707070C0C0C0C0C0C0C0CBA
:1001C0000202020206060606060606060B0B0B0BCB
:1001D0000B0B0B0B000020002300260029002C0035
:1001E0002F00320000010000030106010901000098
:1001F0002200250028002B002E00310034000201CF
:100200000000050108010B01000021002400270067
:100210002A002D0030003300010100000401070115
:100220000A011641A2412E42BA4211241FBECFEF4D
:10023000D1E2DEBFCDBF00E00CBF13E0A0E0B2E032
:10024000EAE1F7E800E00BBF02C007900D92A03D85
:10025000B107D9F72FE0A0EDB3E001C01D92AB319B
:10026000B207E1F711E0C5E1D1E000E006C0219757
:100270000109802FFE010E945A43C131D10780E05D
:100280000807A9F70E9418380C948B43B9CECF9277
:10029000DF92EF92FF92CF93882351F16A017B01A5
:1002A000CFEFC80F20E030E0A901CB01B6010E94DA
:1002B000063918168CF0C701B60190580E94123901
:1002C0009B01AC016C2F70E090E080E0CF91FF903B
:1002D000EF90DF90CF90B2C0C701B6010E940D39F8
:1002E0008C2FCF91FF90EF90DF90CF900C94EA3D50
:1002F000CF91FF90EF90DF90CF9008950F931F93D1
:100300008B019C0183E036952795179507958A9573
:10031000D1F700531C4F462F477021E030E0F90120
:1003200002C0EE0FFF1F4A95E2F7AF01F8012081EE
:100330002423CB010196211102C090E080E01F919F
:100340000F9108950F931F938B019C0183E03695C5
:100350002795179507958A95D1F7677081E090E00A
:1003600001C0880F6A95EAF7F801E053FC4F20813D
:10037000452B31F48095822380831F910F9108953E
:10038000822BFACF2F923F924F925F926F927F9281
:100390008F929F92AF92BF92CF92DF92EF92FF9295
:1003A0000F931F93CF93DF93D62EC72E782E692EEF
:1003B00049015A01280161E08D2D0E94243FCD2D75
:1003C000DC2D8E010F5F1F4FA8016D2D7C2D872D19
:1003D000962DB8DF20E030E0A901C201B7010E94EC
:1003E000293A181664F4C201B7010E9412392B0190
:1003F000C501B4010E941239A201CE0123D0C80167
:10040000DF91CF911F910F91FF90EF90DF90CF90F0
:10041000BF90AF909F908F907F906F905F904F9024
:100420003F902F900895882341F08150682F70E00D
:1004300090E080E050E040E085CF0895862FB9013C
:100440000C94EA3D9C01FC01EE5FFE4FE491E1500B
:10045000E231E0F4F0E08827EF5CFD4F8F4F0C9421
:100460005A4343024A024D026402790246028E0256
:100470009A029E02B502CA02DF02F6020B0346028E
:10048000200337034C0384B5806884BD60E0822F6D
:100490000C94603F84B58062F8CF809180008C7F9F
:1004A00082608093800080918100807E8061682BD3
:1004B0006093810050938700409386008091800074
:1004C000806880938000E2CF809180008C7F826082
:1004D0008093800080918100807E8061682B609392
:1004E0008100509387004093860080918000806255
:1004F000E8CF809180008C7F826080938000809123
:100500008100807E8061682B60938100509387001A
:1005100040938600809180008860D3CF8091B000A6
:1005200080688093B0008091B100887F682B6093D1
:10053000B100ACCF8091B0008062F3CF8091900089
:100540008C7F82608093900080919100807E80619A
:10055000682B609391005093970040939600809190
:10056000900080688093900091CF809190008C7F64
:1005700082608093900080919100807E8061682BE2
:100580006093910050939700409396008091900063
:100590008062E8CF809190008C7F82608093900091
:1005A00080919100807E8061682B609391005093D0
:1005B000970040939600809190008860D3CF8091FF
:1005C000A0008C7F82608093A0008091A100807E3B
:1005D0008061682B6093A1005093A7004093A60010
:1005E0008091A00080688093A00050CF8091A000EF
:1005F0008C7F82608093A0008091A100807E8061CA
:10060000682B6093A1005093A7004093A6008091AF
:10061000A0008062E8CF8091A0008C7F82608093F0
:10062000A0008091A100807E8061682B6093A10072
:100630005093A7004093A6008091A0008860D3CF7C
:10064000809120018C7F8260809320018091210124
:10065000807E8061682B6093210150932701409335
:100660002601809120018068809320010FCF809126
:1006700020018C7F82608093200180912101807E07
:100680008061682B609321015093270140932601DC
:10069000809120018062E8CF809120018C7F826070
:1006A0008093200180912101807E8061682B60937E
:1006B00021015093270140932601809120018860F9
:1006C000D3CF611102C00C94243F6130E1F362E0AA
:1006D000FACF662319F061E00C94603F60E0FCCF34
:1006E000FC01A781B0858C9191858923A481B58176
:1006F0009C9140815181628173812681922359F0BE
:1007000081110BC04F5F5F4F6F4F7F4F408351830D
:100710006283738308958111F5CF415051096109B6
:100720007109F4CF8AED93E0DBCF85EE93E0D8CF6B
:1007300080EF93E0D5CF8BEF93E0D2CFFC01A48183
:10074000B5818C9196818923A781B0859C91408148
:100750005181628173812185922359F0882359F058
:100760004F5F5F4F6F4F7F4F40835183628373832F
:1007700008958823A9F34150510961097109F4CF03
:100780008AED93E0DBCF85EE93E0D8CF80EF93E066
:10079000D5CF8BEF93E0D2CF0F931F93CF93DF93FF
:1007A000D82FC62F8A01A091D9038BE0A89FD00132
:1007B0001124A652BC4F1D921D921D921C9213979C
:1007C00081E01A968C931A978D2F90E0FC01E85BDC
:1007D000FE4FE4911696EC931697FC01E257FE4FFC
:1007E000E491F0E0EE0FFF1FEC52FE4F85919491E3
:1007F00015969C938E931497862F90E0FC01E85BEE
:10080000FE4FE4911996EC931997FC01E257FE4FC5
:10081000E491F0E0EE0FFF1FEC52FE4F85919491B2
:1008200018969C938E93179760E08D2F0E94243F1B
:1008300060E08C2F0E94243F8091D903813009F41D
:100840003FC0A8F0823009F462C0833009F486C04A
:100850008091D90391E0980F9093D903F801808398
:1008600090E080E0DF91CF911F910F91089580E09B
:10087000D23049F081E0D33031F08EEE8D0F8430EC
:10088000D8F487E18D1B41E050E062E973E00E94FB
:10089000113B80E0C23049F081E0C33031F08EEE90
:1008A0008C0F843058F487E18C1B41E050E060EC01
:1008B00073E00E94113BCCCF8FEFE5CF8FEFF5CFE8
:1008C00080E0D23049F081E0D33031F08EEE8D0FF0
:1008D0008430C8F487E18D1B41E050E065E973E0A6
:1008E0000E94113B80E0C23049F081E0C33031F01A
:1008F0008EEE8C0F843048F487E18C1B41E050E091
:1009000063EC73E0D6CF8FEFE7CF8FEFF7CF80E0C8
:10091000D23049F081E0D33031F08EEE8D0F84304B
:10092000C8F487E18D1B41E050E068E973E00E9464
:10093000113B80E0C23049F081E0C33031F08EEEEF
:100940008C0F843048F487E18C1B41E050E066EC6A
:1009500073E0AFCF8FEFE7CF8FEFF7CF80E0D230EC
:1009600049F081E0D33031F08EEE8D0F8430C8F441
:1009700087E18D1B41E050E06BE973E00E94113B81
:1009800080E0C23049F081E0C33031F08EEE8C0F50
:10099000843048F487E18C1B41E050E069EC73E05F
:1009A00088CF8FEFE7CF8FEFF7CF9BE0899FF001E4
:1009B0001124E652FC4F80819181A281B381FB0119
:1009C00080839183A283B38390E080E008959BE0CD
:1009D000899FF0011124E652FC4F1082118212828D
:1009E000138290E080E0089590E080E0089590E028
:1009F00080E008950F931F93009709F489C0611553
:100A0000710509F485C0009104031091050320913C
:100A10000603309107030E3F1F4F2F4F3F4F09F042
:100A200068C04FEF5FEFBA01409304035093050392
:100A300060930603709307034091040350910503EC
:100A40006091060370910703DC011296ED91FC9111
:100A500080819181A281B3818093820490938304E9
:100A6000A0938404B093850484819581A681B78185
:100A700080937E0490937F04A0938004B0938104BC
:100A800080859185A285B38580937A0490937B04B9
:100A9000A0937C04B0937D0484859585A685B78555
:100AA0008093760490937704A0937804B0937904AC
:100AB00010927204109273041092740410927504D0
:100AC0000E94DA1A8FEF9AE190930704809306044C
:100AD00090930904809308040E94C919009731F487
:100AE00021E030E030938704209386041F910F911A
:100AF000089500910403109105032091060330919D
:100B00000703DB010D931D932D933C93139794CF13
:100B10008FEF9FEFEBCF8F929F92AF92BF92CF92CA
:100B2000DF92EF92FF921F93CF93DF934B015C0113
:100B30001091890482E090E090938704809386046A
:100B400081149104A104B10441F4809189048111BC
:100B500004C080918804C1E08111C0E0C12CD12C77
:100B6000760180918904811106C0809188048111E9
:100B700002C0CC23D9F083E090E090938704809367
:100B80008604CC2381F1CCE9DFEF111102C00E9471
:100B9000631ECE01DF91CF911F91FF90EF90DF9008
:100BA000CF90BF90AF909F908F9008956AE070E0D3
:100BB00080E090E00E94523D80E1C80E87E2D81E9E
:100BC000E11CF11C8FEF88169806A806B80631F0D4
:100BD000C1E08C149D04AE04BF0408F0C0E080E0C6
:100BE0000E94FD19BECFD0E0C0E0CFCFCF92DF9200
:100BF000EF92FF920F931F93CF93DF938F3F910557
:100C000011F008F051C02091860430918704233000
:100C1000310539F020918604309187042130310567
:100C200031F424E030E030938704209386046A0195
:100C30007B01EC0182309105A8F011E0AE01C70103
:100C4000B6010E94C819AB01BC01CE011123F9F015
:100C5000DF91CF911F910F91FF90EF90DF90CF9098
:100C60000C948C208C01000F111F0A5F1B4FD801C0
:100C70008D919C91892B09F30E9496200297E9F6A9
:100C8000D801ED91FC91CE011995182FD7CF0E9474
:100C9000AE2090E080E0DF91CF911F910F91FF9007
:100CA000EF90DF90CF9008958FEF9FEFF4CF80E02B
:100CB0000C94FD19CF93DF9386E090E09093870426
:100CC000809386040E94561AEC01E6E0F4E084E08A
:100CD000DF011D928A95E9F70E94FB1D109287049F
:100CE00010928604CE01DF91CF91089580918804FF
:100CF000089580917104089560930403709305032F
:100D0000809306039093070390E080E008952F926C
:100D10003F924F925F926F927F928F929F92AF928B
:100D2000BF92CF92DF92EF92FF920F931F93CF93D8
:100D3000DF93CDB7DEB7CB54D1090FB6F894DEBF41
:100D40000FBECDBF26967FAF6EAF269728965FAFBA
:100D50004EAF28973E8B2D8B2C96FFAEEEAE2C9788
:100D6000FB01E150F04CEE0FFF1FEE0FFF1FE80FED
:100D7000F91F80809180A280B3808F8A988EA98E7F
:100D8000BA8EB501A401442777FD43955527662700
:100D9000772729964FAF2997F901E150F04CEE0FD4
:100DA000FF1FEE0FFF1F2896AEACBFAC2897EA0DD1
:100DB000FB1DC080D180E280F380CB8EDC8EED8E77
:100DC000FE8EB701A601442777FD43955527662778
:100DD00077272A964FAF2A97188B0F87F80130E0B4
:100DE00020E02C96EEACFFAC2C972E153F050CF4B2
:100DF0003FC022969FAF8EAF22971A8B098B312C62
:100E0000212C812C912C540183948D829E82AF825F
:100E1000B88626968EAC9FAC2697281439047CF1B0
:100E200029969FAC29972A96AFAC2A9730E020E00C
:100E300041E050E060E070E09A10F5C1C55BDF4F23
:100E40000FB6F894DEBF0FBECDBFDF91CF911F91DB
:100E50000F91FF90EF90DF90CF90BF90AF909F9059
:100E60008F907F906F905F904F903F902F9008955C
:100E700011921192119211922F5F3F4FB2CF229691
:100E8000EEADFFAD229781919191A191B191229602
:100E9000FFAFEEAF22978F88988CA98CBA8CB7FEE3
:100EA00023C04D815E816F81788541505109610970
:100EB00071095A016B01A81AB90ACA0ADB0AD601DC
:100EC000C50121E0CD80DE80EF80F8848C159D0582
:100ED000AE05BF0508F020E0822E912CB12CA12C8C
:100EE0008D829E82AF82B8865D01CC24DD24A8A2CB
:100EF000B9A2CAA2DBA29C01AD01442755272CA3AD
:100F00003DA34EA35FA32C96EEADFFAD2C97E21947
:100F1000F3098D889E888E169F060CF4F40128969E
:100F2000AEACBFAC28972496BFAEAEAE2497C988AE
:100F3000DA88DC8ACB8A1E861D86812C912C54018E
:100F4000839489869A86AB86BC86812C912C540129
:100F5000CD84DE84CE16DF0604F1F7FF02C0F0E098
:100F6000E0E0E20DF31D2C96EEACFFAC2C97EE15F5
:100F7000FF0554F4EE0FFF1FEE0FFF1FE00FF11FF0
:100F800080829182A282B3822FEF221A320AE989EB
:100F9000FA893496FA8BE98B3CCF2496AEADBFAD7F
:100FA0002497CD90DD90ED90FD902496BFAFAEAF2D
:100FB00024972B8D3C8D4D8D5E8D57FF22C08985EA
:100FC0009A85AB85BC850197A109B109AC01BD012A
:100FD0004C195D096E097F096A017B0181E0298551
:100FE0003A854B855C85C216D306E406F50608F003
:100FF00080E0482F50E070E060E049875A876B87B7
:101000007C87B7018827992768A779A78AA79BA714
:10101000EE24FF2428A139A14AA15BA1C701B60192
:101020000E9415432B013C012CA13DA14EA15FA1C3
:1010300068A579A58AA59BA50E9415436CA77DA7E5
:101040008EA79FA7AB89BC894D915D916D917D91D4
:10105000BC8BAB8BDB01CA01880D991DAA1DBB1D82
:1010600089839A83AB83BC8391E09F8F29813A81E6
:101070004B815C81281539054A055B0508F01F8EF8
:101080002CA13DA14EA15FA1C701B6010E9415434D
:101090006B017C0189809A80AB80BC808C0C9D1C8C
:1010A000AE1CBF1C89829A82AB82BC8252019924F9
:1010B000882488AA99AAAAAABBAA29813A814B8125
:1010C0005C81280D391D4A1D5B1D2CAB3DAB4EAB21
:1010D0005FAB8CA49DA4AEA4BFA454019924882422
:1010E00088AE99AEAAAEBBAE280D391D4A1D5B1D58
:1010F0002CAF3DAF4EAF5FAFAB89BC8914972D933A
:101100003D934D935C93139728A139A14AA15BA10C
:1011100068A579A58AA59BA50E9415439F8C690D9A
:10112000711D811D911D230166247724460E571ED3
:10113000681E791E2CA53DA54EA55FA54A01AA24CF
:10114000BB24840C951CA61CB71C81E090E0A0E099
:10115000B0E049815A816B817C814C155D056E053B
:101160007F0518F080E090E0DC01880D991DAA1D34
:10117000BB1D41E050E060E070E088A899A8AAA8F3
:10118000BBA8CCA8DDA8EEA8FFA8C814D904EA041F
:10119000FB0418F040E050E0BA01840F951FA61F31
:1011A000B71F812C912C54018394C8ACD9ACEAAC04
:1011B000FBAC2CAD3DAD4EAD5FAD2C153D054E05E8
:1011C0005F0518F0812C912C5401880E991EAA1EDF
:1011D000BB1E4D855E854F5F5F4F5E874D87B8CEE6
:1011E000EF85F889C190D190E190F190F88BEF876D
:1011F000DB01CA010197A109B1098C199D09AE094A
:10120000BF09349780839183A283B383E1E084177D
:101210009507A607B70708F0E0E04E2F50E070E012
:1012200060E02F5F3F4F2C968EAC9FAC2C9728151B
:101230003905B4F203CE2F923F924F925F926F9294
:101240007F928F929F92AF92BF92CF92DF92EF9256
:10125000FF920F931F93CF93DF9379011B01DA0164
:10126000D0E0C0E040E050E0BA01CE15DF059CF0D0
:10127000DF91CF911F910F91FF90EF90DF90CF9072
:10128000BF90AF909F908F907F906F905F904F90A6
:101290003F902F900895FC0181909190A190B19082
:1012A000CF01F10101911191219131911F0124018F
:1012B0003501401A510A620A730A93018201041B24
:1012C000150B260B370B0D931D932D933D93662421
:1012D0006394712CC12CD12C452B462B472B39F014
:1012E000081519052A053B0538F4612C05C0801640
:1012F0009106A206B306C8F7A301B6012196B5CFA1
:101300002F923F924F925F926F927F928F929F9215
:10131000AF92BF92CF92DF92EF92FF920F931F9303
:10132000CF93DF9300D01F92CDB7DEB78B015C83E4
:101330004B83FB01E150F04CEE0FFF1FEE0FFF1F40
:10134000E80FF91F408151816281738177FD27C0C9
:101350004C01B12CA12CC12CD12C7601A016B106C8
:1013600064F5F40161917191819191914F010E9415
:101370003E394B815C810E942F3A9B01AC01C70131
:10138000B6010E94A2386B017C012B813C81205E5A
:101390003F4F3C832B833FEFA31AB30ADFCF9A83DF
:1013A0008983312C212C81E090E0A0E0B0E0C12CB9
:1013B000D12C760120163106CCF0C701B6010F9072
:1013C0000F900F900F90DF91CF911F910F91FF9091
:1013D000EF90DF90CF90BF90AF909F908F907F90D5
:1013E0006F905F904F903F902F900895E981FA8120
:1013F0004190519061907190FA83E98340945094A8
:101400006094709453014201880E991EAA1EBB1E5F
:10141000C501B4010E943E394B815C810E942F3A84
:101420009B01AC01C701B6010E94A1386B017C0190
:1014300081E084149504A604B70408F080E090E0ED
:10144000B0E0A0E02B813C81205E3F4F3C832B83AA
:101450003FEF231A330AAECF2F923F924F925F9203
:101460006F927F928F929F92AF92BF92CF92DF92B4
:10147000EF92FF920F931F93CF93DF93CDB7DEB719
:10148000A4970FB6F894DEBF0FBECDBF8091080EB3
:101490009091090EA0910A0EB0910B0E80938B0EC5
:1014A00090938C0EA0938D0EB0938E0E80910C0EA7
:1014B00090910D0EA0910E0EB0910F0E80938F0E95
:1014C0009093900EA093910EB093920E8091100E77
:1014D0009091110EA091120EB091130E8093930E65
:1014E0009093940EA093950EB093960E8091140E47
:1014F0009091150EA091160EB091170E8093970E35
:101500009093980EA093990EB0939A0E8091180E16
:101510009091190EA0911A0EB0911B0E80939B0E04
:1015200090939C0EA0939D0EB0939E0E80911C0EE6
:1015300090911D0EA0911E0EB0911F0E80939F0ED4
:101540009093A00EA093A10EB093A20E8091200EB6
:101550009091210EA091220EB091230E8093A30EA4
:101560009093A40EA093A50EB093A60E8091240E86
:101570009091250EA091260EB091270E8093A70E74
:101580009093A80EA093A90EB093AA0E8091280E56
:101590009091290EA0912A0EB0912B0E8093AB0E44
:1015A0009093AC0EA093AD0EB093AE0E8091600EF2
:1015B0009091610E8F3F23E0920728F4019690935B
:1015C000610E8093600E8FEF9FEFDC018093580EC9
:1015D0009093590EA0935A0EB0935B0E8091620EB9
:1015E000811124C081E08093620E1092610E1092EE
:1015F000600E8BE090E0A0E0B0E080935C0E9093F2
:101600005D0EA0935E0EB0935F0E1092E70E1092E7
:10161000E80E1092E90E1092EA0E1092EB0E109264
:10162000EC0E1092ED0E1092EE0E4EC080915C0EFC
:1016300090915D0EA0915E0EB0915F0E0197A10991
:10164000B1098B309105A105B10508F03DC0FC0141
:101650002091600E3091610E8827EE5CF44F8F4F21
:101660000C945A433D0B3E0C4B0C580C790C820CDD
:10167000A30CB00CBD0CCA0CEF0C2C3C314020F17B
:101680001092610E1092600E8AE090E0A0E0B0E04F
:1016900080935C0E90935D0EA0935E0EB0935F0EF0
:1016A0001092E70E1092E80E1092E90E1092EA0ED8
:1016B0008BED9FE0A9ECBFEB8093EB0E9093EC0ECB
:1016C000A093ED0EB093EE0E8090E70E9090E80E92
:1016D000A090E90EB090EA0E4090EB0E5090EC0E08
:1016E0006090ED0E7090EE0E2091580230915902EC
:1016F00040915A0250915B02C501B4010E94633AC5
:101700006B017C0120916002309161024091620284
:1017100050916302C301B2010E94633A9B01AC0184
:10172000C701B6010E94A238698B072F182F9D8B25
:1017300020915C0230915D0240915E0250915F0207
:10174000C501B4010E94633A6B017C0120916402DF
:10175000309165024091660250916702C301B20167
:101760000E94633A9B01AC01C701B6010E94A238F6
:10177000B62EC72ED82EE92E60909002709091025E
:1017800080909202909093022989302F412F5D8999
:10179000B301C4010E94063987FD16C0609094020F
:1017A0007090950280909602909097022989302F30
:1017B000412F5D89B301C4010E94293A181624F013
:1017C0006988702E812E9D88209098023090990211
:1017D00040909A0250909B022B2D3C2D4D2D5E2D5A
:1017E000B101C2010E94063987FD16C020909C02FB
:1017F00030909D0240909E0250909F022B2D3C2DD8
:101800004D2D5E2DB101C2010E94293A181624F017
:101810002B2C3C2C4D2C5E2C9101A201B301C40158
:101820000E94A1382B013C014092AF0E5092B00EA5
:101830006092B10E7092B20E8091A0029091A102BE
:10184000A091A202B091A302898F9A8FAB8FBC8F17
:101850009C01AD01C301B2010E94293A18160CF097
:10186000CBC0898D9A8DAB8DBC8D8093AF0E90933C
:10187000B00EA093B10EB093B20ED2C0203431405E
:1018800008F422CF1092610E1092600E87E090E073
:10189000A0E0B0E0FDCE2C36324008F415CF109217
:1018A000610E1092600E88E090E0A0E0B0E0F0CE13
:1018B0002C3B324008F408CF1092610E1092600E5B
:1018C00089E090E0A0E0B0E080935C0E90935D0E24
:1018D000A0935E0EB0935F0E1092E70E1092E80E8A
:1018E0001092E90E1092EA0E8BED9FE0A9ECBFE397
:1018F000E3CE2039314008F4E7CE8CE090E0A0E060
:10190000B0E07BCE243F314008F4DECE1092610E71
:101910001092600E82E090E0A0E0B0E080935C0E58
:1019200090935D0EA0935E0EB0935F0E80E090E00A
:10193000A0E8BEE38093E70E9093E80EA093E90E33
:10194000B093EA0E6ACE2436310508F4BDCE10926B
:10195000610E1092600E83E090E0A0E0B0E0DECF78
:101960002436310508F4B0CE1092610E1092600E4C
:1019700084E090E0A0E0B0E0D1CF2233310508F45C
:10198000A3CE1092610E1092600E85E090E0A0E070
:10199000B0E0C4CF283C310508F496CE1092610E19
:1019A0001092600E86E090E0A0E0B0E080935C0EC4
:1019B00090935D0EA0935E0EB0935F0E80E090E07A
:1019C000A0E8BEE38093E70E9093E80EA093E90EA3
:1019D000B093EA0E8CE799EDA0EABEEB6DCE24360B
:1019E000310508F471CE1092610E1092600E81E004
:1019F00090E0A0E0B0E092CF8091A4029091A50287
:101A0000A091A602B091A702898F9A8FAB8FBC8F4D
:101A10009C01AD01C301B2010E94063987FD21CFAF
:101A20006090B0027090B1028090B2029090B302C8
:101A30002B2D3C2D4D2D5E2DB301C4010E94063986
:101A400087FD16C06090B4027090B5028090B60217
:101A50009090B7022B2D3C2D4D2D5E2DB301C4016E
:101A60000E94293A181624F06B2C7C2C8D2C9E2C6D
:101A7000B090A802C090A902D090AA02E090AB0258
:101A80002989302F412F5D896B2D7C2D8D2D9E2D29
:101A90000E94063987FD17C0B090AC02C090AD021D
:101AA000D090AE02E090AF022989302F412F5D899E
:101AB0006B2D7C2D8D2D9E2D0E94293A18161CF021
:101AC000B9886801ED882B2D3C2D4D2D5E2DB3017D
:101AD000C4010E94A1386B017C01C092B30ED09268
:101AE000B40EE092B50EF092B60E8090B8029090CF
:101AF000B902A090BA02B090BB02A50194010E9465
:101B0000293A18164CF48092B30E9092B40EA0921B
:101B1000B50EB092B60E10C08090BC029090BD027F
:101B2000A090BE02B090BF02A5019401C701B6010A
:101B30000E94063987FDE7CF6091AF0E7091B00E1D
:101B40008091B10E9091B20E6093B70E7093B80E63
:101B50008093B90E9093BA0EC090B30ED090B40E8D
:101B6000E090B50EF090B60EC092BB0ED092BC0EB7
:101B7000E092BD0EF092BE0E209168023091690293
:101B800040916A0250916B020E94633A4B015C01E2
:101B90002091700230917102409172025091730253
:101BA000C701B6010E94633A9B01AC01C501B401B3
:101BB0000E94A2386D8B7E8B8F8B988FC0903802DD
:101BC000D0903902E0903A02F0903B02A7019601D2
:101BD0006091D30D7091D40D8091D50D9091D60D5B
:101BE0000E940639882341F0C092D30DD092D40DC3
:101BF000E092D50DF092D60D8091D20D8111109208
:101C0000D20D6BEF7EE08091D70D0E94D504C0907D
:101C10003C02D0903D02E0903E02F0903F02A701CE
:101C200096016091C70D7091C80D8091C90D90917A
:101C3000CA0D0E940639882341F0C092C70DD09288
:101C4000C80DE092C90DF092CA0D8091C60D8111A8
:101C50001092C60D67EF7EE08091CB0D0E94D504F7
:101C60008091FB0E9091FC0EA091FD0EB091FE0EA6
:101C70008093EF0E9093F00EA093F10EB093F20EBE
:101C80004091F70E5091F80E6091F90E7091FA0E96
:101C90004093F30E5093F40E6093F50E7093F60E8E
:101CA000409100035091010360910203709103037E
:101CB0004D875E876F87788B89879A87AB87BC87CC
:101CC00042E0E42EF12C8E010F5F1F4F21E030E047
:101CD000AE01475F5F4F61E070E0CE010D9617D80F
:101CE00088E0F801ABE7BEE001900D928A95E1F73C
:101CF00022E030E04BE65EE06CE37EE0C8019BDA78
:101D00008091F30E9091F40EA091F50EB091F60E25
:101D100089879A87AB87BC8721E030E0AE01475FB7
:101D20005F4F61E070E0CE010D960E94870688E06B
:101D3000F801A3E8BEE001900D928A95E1F722E058
:101D400030E043E75EE064E47EE0C80174DA50E02E
:101D500040E062E070E08BE69EE0D2DA20E030E026
:101D600048E45DE20E94633A2091480230914902C2
:101D700040914A0250914B020E94633A6B017C01F0
:101D800050E040E062E070E083E79EE0B9DA20E0F6
:101D900030E048E45DE20E94633A209150023091C5
:101DA000510240915202509153020E94633AA7019E
:101DB00096010E94A2386093BF0E7093C00E80936C
:101DC000C10E9093C20E50E040E062E070E08BE6FE
:101DD0009EE096DA20E030E048E45DE20E94633A5B
:101DE00020914C0230914D0240914E0250914F0291
:101DF0000E94633A6B017C0150E040E062E070E0D9
:101E000083E79EE07DDA20E030E048E45DE20E9476
:101E1000633A2091540230915502409156025091FC
:101E200057020E94633AA70196010E94A23860936C
:101E3000C30E7093C40E8093C50E9093C60EC090CF
:101E4000B70ED090B80EE090B90EF090BA0E50E0F8
:101E500040E062E070E08BE69EE052DA20E030E0A5
:101E600048E45DE20E94633A9B01AC01C701B60100
:101E70000E94A1386B017C01C092C70ED092C80E9F
:101E8000E092C90EF092CA0E8090BB0E9090BC0EEC
:101E9000A090BD0EB090BE0E50E040E062E070E059
:101EA00083E79EE02DDA20E030E048E45DE20E9426
:101EB000633A9B01AC01C501B4010E94A1382B011A
:101EC0003C014092CB0E5092CC0E6092CD0E70929F
:101ED000CE0E2091000230910102409102025091F9
:101EE0000302C701B6010E94633A2091300E30917F
:101EF000310E4091320E5091330E0E94A138209144
:101F000020023091210240912202509123020E942E
:101F1000633A698F7A8F8B8F9C8F20910402309166
:101F200005024091060250910702C301B2010E94CE
:101F3000633A2091380E3091390E40913A0E50910B
:101F40003B0E0E94A138209124023091250240913D
:101F50002602509127020E94633A6D8F7E8F8F8FE9
:101F600098A3209128023091290240912A02509191
:101F70002B02C701B6010E94633A20912C0E3091CA
:101F80002D0E40912E0E50912F0E0E94A238298DB9
:101F90003A8D4B8D5C8D0E94A2384B015C01C09044
:101FA000D002D090D102E090D202F090D302AC01E6
:101FB0009B01C701B6010E94063987FFD0C1C092BC
:101FC000CF0ED092D00EE092D10EF092D20E209190
:101FD0002C0230912D0240912E0250912F02C3010C
:101FE000B2010E94633A2091340E3091350E409137
:101FF000360E5091370E0E94A2382D8D3E8D4F8D9A
:1020000058A10E94A2384B015C01AC019B01C701A1
:10201000B6010E94063987FFCCC1C092D30ED09280
:10202000D40EE092D50EF092D60E2091D30E3091C0
:10203000D40E4091D50E5091D60E6091D802709179
:10204000D9028091DA029091DB020E94633A5B012F
:102050008C01CB01D8018093E30E9093E40EA09302
:10206000E50EB093E60EC090DC02D090DD02E09069
:10207000DE02F090DF02A7019601B501C8010E94BF
:10208000293A181694F0C090E002D090E102E09056
:10209000E202F090E302A7019601B501C8010E9497
:1020A000063987FD02C065017801E894F7F8C0920F
:1020B000D70ED092D80EE092D90EF092DA0E69E0E7
:1020C00070E080E090E00E947E018C019093EF0D23
:1020D0008093EE0DC090D70ED090D80EE090D90E20
:1020E000F090DA0E20E030E04FE753E4C701B6018C
:1020F0000E94063918160CF476C120E030E0A901E0
:10210000C701B6010E94293A87FF03C0C12CD12C18
:102110007601B701A601C8010E94470111E0209194
:10212000440230914502409146025091470260912D
:10213000E30E7091E40E8091E50E9091E60E0E9400
:102140000639811101C010E01093FF0E612F88E065
:102150000E946903C090E30ED090E40EE090E50E7B
:10216000F090E60E8090E4029090E502A090E602E6
:10217000B090E702A5019401C701B6010E94293A77
:1021800018160CF037C18092DB0E9092DC0EA092F4
:10219000DD0EB092DE0E6AE070E080E090E00E941A
:1021A0007E018C019093F70D8093F60DC090DB0EAD
:1021B000D090DC0EE090DD0EF090DE0E20E030E0FE
:1021C0004FE753E4C701B6010E94063918160CF414
:1021D0002AC120E030E0A901C701B6010E94293AD6
:1021E00087FF03C0C12CD12C7601B701A601C8011D
:1021F0000E9447012091CF0E3091D00E4091D10E18
:102200005091D20E6091EC027091ED028091EE023D
:102210009091EF020E94633A9B01AC012093E30E80
:102220003093E40E4093E50E5093E60E11E060917A
:1022300040027091410280914202909143020E94BB
:102240000639811101C010E01093000F612F8DE05D
:102250000E946903A090E30EB090E40E0091E50E99
:102260001091E60EC090F002D090F102E090F202E0
:10227000F090F302A7019601B501C8010E94293A26
:10228000181694F0C090F402D090F502E090F60297
:10229000F090F702A7019601B501C8010E94063926
:1022A00087FD02C065017801E894F7F8C092DF0E5F
:1022B000D092E00EE092E10EF092E20E6BE070E060
:1022C00080E090E00E947E018C019093DF0D80936E
:1022D000DE0DC090DF0ED090E00EE090E10EF090A9
:1022E000E20E20E030E04FE753E4C701B6010E9460
:1022F000063918160CF49EC020E030E0A901C70191
:10230000B6010E94293A87FF03C0C12CD12C760167
:10231000B701A601C8010E9447018090E30E90908A
:10232000E40EA090E50EB090E60EC090F802D090BA
:10233000F902E090FA02F090FB02A7019601C501B4
:10234000B4010E94293A18160CF07BC0C092E30E2B
:10235000D092E40EE092E50EF092E60E82C08091FB
:10236000D4029091D502A091D602B091D702898B68
:102370009A8BAB8BBC8BA5019401BC01CD010E9453
:10238000293A18166CF489899A89AB89BC8980939B
:10239000CF0E9093D00EA093D10EB093D20E17CE45
:1023A0008092CF0E9092D00EA092D10EB092D20E0B
:1023B0000ECEC090D402D090D502E090D602F0901C
:1023C000D702A5019401C701B6010E94293A181647
:1023D0000CF423CE8092D30E9092D40EA092D50E00
:1023E000B092D60E22CEC12CD12C3FE7E32E33E49F
:1023F000F32E8FCE8090E8029090E902A090EA023E
:10240000B090EB02A5019401C701B6010E94063904
:1024100087FDB9CEC092DB0ED092DC0EE092DD0ECD
:10242000F092DE0EB8CEC12CD12C2FE7E22E23E4A1
:10243000F22EDBCEC12CD12C9FE7E92E93E4F92EAE
:1024400067CFC090FC02D090FD02E090FE02F090B9
:10245000FF02A7019601C501B4010E94063987FD5C
:1024600075CF6CE070E080E090E00E947E018C010E
:102470009093E70D8093E60DC090E30ED090E40EAC
:10248000E090E50EF090E60E20E030E04FE753E4F8
:10249000C701B6010E94063918160CF4DDC220E00F
:1024A00030E0A901C701B6010E94293A87FF03C0A5
:1024B000C12CD12C7601B701A601C8010E944701A9
:1024C00080910C0E90910D0EA0910E0EB0910F0EFA
:1024D000898B9A8BAB8BBC8B8091100E9091110ED7
:1024E000A091120EB091130E89A39AA3ABA3BCA323
:1024F0004090930E5090940E6090950E7090960EB2
:10250000C301B2010E940A398090E70E9090E80E54
:10251000A090E90EB090EA0EC0907802D0907902B7
:10252000E0907A02F0907B02A50194010E94633A48
:10253000A70196010E94633A2091080E3091090E7E
:1025400040910A0E50910B0E0E94A2386093080E23
:102550007093090E80930A0E90930B0EC301B20183
:102560000E94C63A9B01AC01C501B4010E94633AC6
:10257000A70196010E94633A29893A894B895C89AF
:102580000E94A23860930C0E70930D0E80930E0E75
:1025900090930F0E2091EB0E3091EC0E4091ED0ECA
:1025A0005091EE0EC701B6010E94633A29A13AA1EB
:1025B0004BA15CA10E94A2386093100E7093110E83
:1025C0008093120E9093130E4090180E5090190E97
:1025D00060901A0E70901B0E80911C0E90911D0E33
:1025E000A0911E0EB0911F0E898B9A8BAB8BBC8B6A
:1025F00080909F0E9090A00EA090A10EB090A20E81
:10260000C501B4010E940A39C0908002D0908102B5
:10261000E0908202F09083022D893E894F89588D87
:102620000E94633AA70196010E94633A2091140E1A
:102630003091150E4091160E5091170E0E94A2383F
:102640006093140E7093150E8093160E9093170ED0
:10265000C501B4010E94C63A2D893E894F89588D23
:102660000E94633AA70196010E94633AA301920176
:102670000E94A2386093180E7093190E80931A0E60
:1026800090931B0E20916C0230916D0240916E026E
:1026900050916F026091B70E7091B80E8091B90E93
:1026A0009091BA0E0E94633A4B015C012091740232
:1026B0003091750240917602509177026091BB0E85
:1026C0007091BC0E8091BD0E9091BE0E0E94633A37
:1026D0009B01AC01C501B4010E94A238A70196017B
:1026E0000E94633A29893A894B895C890E94A23801
:1026F00060931C0E70931D0E80931E0E90931F0E00
:102700008091240E9091250EA091260EB091270E57
:10271000898B9A8BAB8BBC8B8091280E9091290E64
:10272000A0912A0EB0912B0E8D8B9E8BAF8BB88F04
:102730004090AB0E5090AC0E6090AD0E7090AE0E0F
:10274000C301B2010E940A398090BF0E9090C00E62
:10275000A090C10EB090C20EC0908802D0908902A5
:10276000E0908A02F0908B02A50194010E94633AE6
:10277000A70196010E94633A2091200E3091210E0C
:102780004091220E5091230E0E94A2386093200E99
:102790007093210E8093220E9093230EC301B201F9
:1027A0000E94C63A9B01AC01C501B4010E94633A84
:1027B000A70196010E94633A29893A894B895C896D
:1027C0000E94A2386093240E7093250E8093260EEB
:1027D0009093270E2091C30E3091C40E4091C50EE8
:1027E0005091C60EC701B6010E94633A2D893E89F9
:1027F0004F89588D0E94A2386093280E7093290E3D
:1028000080932A0E90932B0E88E0EBE7FEE0ACE37A
:10281000BEE001900D928A95E1F788E0E3E8FEE0E2
:10282000A4E4BEE001900D928A95E1F72091C70ED5
:102830003091C80E4091C90E5091CA0E60910C02A1
:1028400070910D0280910E0290910F020E94633AE6
:102850002091C0023091C1024091C2025091C30246
:102860000E94633A20912C0E30912D0E40912E0E35
:1028700050912F0E0E94A23860932C0E70932D0E53
:1028800080932E0E90932F0E2091C4023091C5029A
:102890004091C6025091C702698D7A8D8B8D9C8DB7
:1028A0000E94633A2091300E3091310E4091320EE9
:1028B0005091330E0E94A2386093300E7093310E07
:1028C0008093320E9093330E2091CB0E3091CC0E2C
:1028D0004091CD0E5091CE0E609108027091090288
:1028E00080910A0290910B020E94633A2091C802E3
:1028F0003091C9024091CA025091CB020E94633AC2
:102900002091340E3091350E4091360E5091370E95
:102910000E94A2386093340E7093350E8093360E69
:102920009093370E2091CC023091CD024091CE028F
:102930005091CF026D8D7E8D8F8D98A10E94633A4C
:102940002091380E3091390E40913A0E50913B0E45
:102950000E94A2386093380E7093390E80933A0E1D
:1029600090933B0EC0904404D0904504E090460400
:10297000F09047049FEFC91AD90AE90AF90AC092F0
:102980004404D0924504E0924604F0924704C114F6
:10299000D104E104F10499F4809148049091490430
:1029A000A0914A04B0914B040196A11DB11D8093E2
:1029B000480490934904A0934A04B0934B04809038
:1029C0004C0490904D04A0904E04B0904F04609140
:1029D00048047091490480914A0490914B040E94EC
:1029E0003E39A50194010E94633A20E030E040E8BE
:1029F0005FE40E94633A2B013C01C701B6010E94CB
:102A00003E39A50194010E94633A9B01AC01C301C8
:102A1000B2010E94A23860934004709341048093F5
:102A2000420490934304A4960FB6F894DEBF0FBE01
:102A3000CDBFDF91CF911F910F91FF90EF90DF906D
:102A4000CF90BF90AF909F908F907F906F905F904E
:102A50004F903F902F900895C12CD12C8FE7E82EF6
:102A600083E4F82E28CD4F925F926F927F92AF92BF
:102A7000BF92DF92EF92FF920F931F93CF93DF935A
:102A800084E090E04DD38091090F90910A0FA091BE
:102A90000B0FB0910C0F20E0A22E22E0B22E8093FB
:102AA000900290939102A0939202B093930240916E
:102AB000110F5091120F6091130F7091140F4093EA
:102AC0009C0250939D0260939E0270939F024093DC
:102AD000AC025093AD026093AE027093AF0280934C
:102AE000B0029093B102A093B202B093B302EAE2B3
:102AF000F4E08BE2DF011D928A95E9F780E090E037
:102B0000A0E2B2E486A397A3A0A7B1A78AE097EDBD
:102B1000A3E2BCE382A393A3A4A3B5A38CE196E6AE
:102B2000A3E5B4E384839583A683B7838FE791EE0F
:102B3000A6E3B2E080879187A287B3878DEB9AEFF7
:102B4000A4E9B6EF84879587A687B7878DED96E3CE
:102B5000AFE3B6EE808B918BA28BB38BAEE1B4E08A
:102B6000B383A283EAE0F4E01196FC93EE938DE345
:102B700093E0918380839383828395838483978377
:102B800086839187808793878287958784879787B5
:102B90008687918B808B938B828B8EE394E0159646
:102BA0009C938E9314978EE294E013969C938E934D
:102BB000129780E494E017969C938E931697EBE619
:102BC000FEE086E9DF011D928A95E9F7C0ECDDE0C1
:102BD0008BEAFE0111928A95E9F7DD24D394D09215
:102BE000640EF50180AD91ADA2ADB3AD8B8B9C8B26
:102BF000AD8BBE8B412C512C320143944D865E86A9
:102C00006F86788A47ED5DE063E082E00E94CC0346
:102C1000D98A1A8A1B861882D092630EF50184AD78
:102C200095ADA6ADB7AD8F839887A987BA8749823E
:102C30005A826B827C824BEC5DE063E182E10E9410
:102C4000CC03DD821E8218A6D092690E49A65AA630
:102C50006BA67CA6E12CF12C8701A801970169E005
:102C600070E080E090E00E94C2019FA78EA7DDA6E1
:102C700018AED092670E49AE5AAE6BAE7CAE61E034
:102C800088E00E946103DDAE18AAD0926A0E49AABC
:102C90005AAA6BAA7CAAA80197016AE070E080E0BA
:102CA00090E00E94C2019FAB8EABDDAA1092000E95
:102CB000D092680E4092010E5092020E6092030E66
:102CC0007092040E61E08DE00E946103D092050EC7
:102CD000188ED092650E498E5A8E6B8E7C8EA8010E
:102CE00097016BE070E080E090E00E94C2019F8F4E
:102CF0008E8FDD8E18A2D092660E49A25AA26BA2C8
:102D00007CA2A80197016CE070E080E090E00E9456
:102D1000C2019FA38EA3DDA240907C0250907D0251
:102D200060907E0270907F024092080E5092090ED1
:102D300060920A0E70920B0E4091840250918502AF
:102D400060918602709187024093140E5093150E85
:102D50006093160E7093170E80918C0290918D02E5
:102D6000A0918E02B0918F028093200E9093210E3D
:102D7000A093220EB093230E40920C0E50920D0E93
:102D800060920E0E70920F0E4093180E5093190E13
:102D900060931A0E70931B0E8093240E9093250E51
:102DA000A093260EB093270E4092100E5092110E53
:102DB0006092120E7092130E40931C0E50931D0ED3
:102DC00060931E0E70931F0E8093280E9093290E11
:102DD000A0932A0EB0932B0EF501808D918DA28DBC
:102DE000B38D80932C0E90932D0EA0932E0EB09346
:102DF0002F0E80899189A289B3898093300E909398
:102E0000310EA093320EB093330E848D958DA68D26
:102E1000B78D8093340E9093350EA093360EB093F9
:102E2000370E84899589A689B7898093380E909347
:102E3000390EA0933A0EB0933B0E1092610E109291
:102E4000600E8FEF9FEFDC018093580E9093590E28
:102E5000A0935A0EB0935B0E1092620E10925C0E0D
:102E600010925D0E10925E0E10925F0E88E0E0E30D
:102E7000F2E0ACE3BEE001900D928A95E1F7E092BA
:102E8000E70EF092E80E0093E90E1093EA0E88E048
:102E9000E0E3F2E0A4E4BEE001900D928A95E1F750
:102EA000E092EB0EF092EC0E0093ED0E1093EE0E0E
:102EB0008F890E94E7048B85DF91CF911F910F913D
:102EC000FF90EF90DF90BF90AF907F906F905F90FA
:102ED0004F900C94E7048091CC0D811114C081E0D7
:102EE0008093CC0D8091CD0D9091CE0DA091CF0D02
:102EF000B091D00D0197A105B10529F48091D10DB4
:102F000081110E94F4048091C00D811114C081E0F0
:102F10008093C00D8091C10D9091C20DA091C30D01
:102F2000B091C40D0197A105B10529F48091C50D9B
:102F300081110E94F4048091E80D81112EC081E07E
:102F40008093E80D8091E90D9091EA0DA091EB0D31
:102F5000B091EC0D0197A105B105F9F48091ED0D4B
:102F60008823D9F069E070E080E090E00E947E0163
:102F70009093EF0D8093EE0D40E050E0BA010E9477
:102F8000470169E070E080E090E00E947E0190934C
:102F9000EF0D8093EE0D0E9413028091F80D8111C8
:102FA00003C081E08093F80D8091F00D81112EC057
:102FB00081E08093F00D8091F10D9091F20DA09140
:102FC000F30DB091F40D0197A105B105F9F48091CD
:102FD000F50D8823D9F06AE070E080E090E00E946F
:102FE0007E019093F70D8093F60D40E050E0BA011A
:102FF0000E9447016AE070E080E090E00E947E015C
:103000009093F70D8093F60D0E9413028091000EAD
:10301000811103C081E08093000E8091D80D811151
:103020002EC081E08093D80D8091D90D9091DA0D5A
:10303000A091DB0DB091DC0D0197A105B105F9F46C
:103040008091DD0D8823D9F06BE070E080E090E0A6
:103050000E947E019093DF0D8093DE0D40E050E0F2
:10306000BA010E9447016BE070E080E090E00E94AE
:103070007E019093DF0D8093DE0D0E9413028091FC
:10308000E00D81112EC081E08093E00D8091E10D73
:103090009091E20DA091E30DB091E40D0197A1058F
:1030A000B105F9F48091E50D8823D9F06CE070E06A
:1030B00080E090E00E947E019093E70D8093E60D02
:1030C00040E050E0BA010E9447016CE070E080E00F
:1030D00090E00E947E019093E70D8093E60D0C94A2
:1030E0001302089560E070E080E89FE7089560E0D3
:1030F00070E080E89FE7089560E070E080E89FEF6F
:10310000089560E070E080E89FEF089560E070E06F
:1031100080EC9FEF089560E070E080EC9FEF0895F1
:10312000F5DF60930D0F70930E0F80930F0F909348
:10313000100FF1DF6093010F7093020F8093030F64
:103140009093040FCFDF6093090F70930A0F809361
:103150000B0F90930C0FCBDF6093050F7093060F4E
:103160008093070F9093080FC7DF6093110F709340
:10317000120F8093130F9093140FC3DF6093150FFA
:103180007093160F8093170F9093180F08954F9216
:103190005F926F927F928F929F92AF92BF92CF92E7
:1031A000DF92EF92FF920F931F93F8944090610487
:1031B000509062046090630470906404C090550461
:1031C000D0905604E0905704F0905804452B09F035
:1031D000A4C09B01AC0124193509460957092901EE
:1031E0003A0100915D0410915E0420915F043091DA
:1031F000600448015901840C951CA61CB71C80165C
:103200009106A206B306A0F40091590410915A0445
:1032100020915B0430915C040F5F1F4F2F4F3F4F95
:103220000093590410935A0420935B0430935C0478
:1032300080925D0490925E04A0925F04B09260045C
:103240000091590410915A0420915B0430915C0460
:103250008092650490926604A0926704B09268041C
:103260000093690410936A0420936B0430936C04F8
:103270006093610470936204809363049093640488
:10328000A0E1B7E2A30192010E9462436C0D7D1D93
:103290008E1D9F1D609355047093560480935704B0
:1032A00090935804009104031091050320910603A4
:1032B000309107030F3F1F4F2F4F3F4FF1F0009109
:1032C00004031091050320910603309107030E3F7C
:1032D0001F4F2F4F3F4F89F0C0900403D09005033C
:1032E000E0900603F090070321E08C149D04AE04E7
:1032F000BF0408F420E02093710478941F910F918B
:10330000FF90EF90DF90CF90BF90AF909F908F9005
:103310007F906F905F904F9008954B015C018418EF
:103320009508A608B708A3019201261B370B480B86
:10333000590B6415750586059705D0F0821693061E
:10334000A406B50640F420E030E0A9018114910400
:10335000A104B10491F4A0E1B7E20E946243A70185
:103360009601261B370B480B590BCA01B901C5CF73
:1033700082169306A406B50670F7A0E1B7E2A50190
:1033800094010E9462436C0D7D1D8E1D9F1DB5CF63
:10339000FECECF93DF9300D01F92CDB7DEB71C8255
:1033A0001B821A82198210926D0410926E04109280
:1033B0006F0410927004BE016F5F7F4FCE010396C1
:1033C0000E94C73669817A818B819C810E94B22FCD
:1033D000009761F4BE016F5F7F4FCE0103960E949C
:1033E000D33669817A818B819C812ED50F900F9085
:1033F0000F900F90DF91CF910895FF920F931F933D
:10340000CF93DF93082F60E070E0CB010E94523D24
:10341000FF24F3940E949B2EEC01892B89F010E08D
:10342000CE3F8FEFD80769F0002361F160E070E0D4
:10343000CB010E94523D81E090E0892B59F322C0DC
:1034400011E025D5EC01892B21F0CE3F8FEFD80775
:1034500059F711111EC011E0229609F410E00E94E4
:103460004B2EEC01892B21F0CE3F8FEFD807E1F6F0
:10347000111111C011E0CE3F8FEFD80709F410E011
:1034800001110BC0CE01DF91CF911F910F91FF90E1
:10349000089511E0E4CF11E0F3CF60E070E0CB01DC
:1034A0000E94523D1F25812F90E0C7CFCF93DF931D
:1034B00080917104882321F060E070E0CB014CD64C
:1034C00035D6D0E0C0E0892B71F06AE070E080E092
:1034D00090E00E94523D81E090DF28D62196C03DC9
:1034E00027E0D20781F727D60E9406301092890480
:1034F0001092880410928204109283041092840423
:103500001092850410927E0410927F041092800421
:103510001092810410927A0410927B0410927C0421
:1035200010927D0410927604109277041092780421
:103530001092790410927204109273041092740421
:10354000109275044EEF5FEF6FEF7FEF409304032F
:103550005093050360930603709307031092710460
:10356000E5E6F4E028E0DF011D922A95E9F71092E4
:103570006104109262041092630410926404109229
:103580005D0410925E0410925F0410926004109229
:10359000590410925A0410925B0410925C04109229
:1035A0005504109256041092570410925804DF915B
:1035B000CF9108951092950410929604109297045A
:1035C000109298041092940480919D0490919E040E
:1035D000909393048093920410929104109290041B
:1035E00010928C0410928D0410928E0410928F040D
:1035F00010929A041092990490E080E00895CF927E
:10360000DF92EF92FF920F931F93CF938C01892B40
:1036100009F055C020919D0430919E048091920440
:103620009091930440919D0450919E045093930473
:10363000409392042817390781F010929104109258
:10364000900410928C0410928D0410928E041092AB
:103650008F0410929A041092990480919D04909185
:103660009E04019761F58091990490919A04892BA9
:1036700021F480910803811112C0809199049091E6
:103680009A040197E1F480918C0490918D04A091AB
:103690008E04B0918F040197A105B10581F41092B9
:1036A0008C0410928D0410928E0410928F0410924C
:1036B000080382E090E090939A04809399048091AB
:1036C0009D0490919E04019709F01CC18091B30460
:1036D0009091B4048017910709F014C18091AF0450
:1036E0009091B004A091B104B091B204009709F494
:1036F00009C12091AE0421110DC04091AF04509139
:10370000B0046091B1047091B204452B462B472B55
:1037100009F4F8C02091990430919A0422303105BF
:1037200009F0F0C0209190042111ECC0FC01C08090
:10373000D180E280F38080919404882309F4D3C07F
:103740008091A0049091A104892B09F4FDC02091DF
:10375000A0043091A10481E02230310509F080E01D
:103760002091A0043091A104C1E02130310549F03D
:103770002091A0043091A104C1E02230310509F06C
:10378000C0E0882309F456C02091AA043091AB040C
:103790004091AC045091AD04C701B6010E94293A92
:1037A00087FD14C02091AA043091AB044091AC0471
:1037B0005091AD04609195047091960480919704A6
:1037C000909198040E94063987FD22C02091AA0496
:1037D0003091AB044091AC045091AD04C701B601E7
:1037E0000E94293A181634F52091AA043091AB04AE
:1037F0004091AC045091AD04609195047091960491
:1038000080919704909198040E940639811112C00A
:103810008091A2049091A304A091A404B091A50466
:10382000892B8A2B8B2B19F481E08093910481E002
:1038300080939004CC2309F456C02091AA043091BF
:10384000AB044091AC045091AD04C701B6010E9495
:10385000063987FF14C02091AA043091AB0440912F
:10386000AC045091AD0460919504709196048091E0
:103870009704909198040E94293A87FF22C02091D2
:10388000AA043091AB044091AC045091AD04C7013F
:10389000B6010E940639811126C02091AA043091F8
:1038A000AB044091AC045091AD04609195047091CB
:1038B000960480919704909198040E94293A1816D2
:1038C00094F48091A2049091A304A091A404B091D7
:1038D000A504892B8A2B8B2B19F481E0809391040A
:1038E00081E08093900481E090919004911180E0B8
:1038F00080939404C0929504D0929604E092970429
:10390000F0929804012B09F067C18091990490917D
:103910009A04892BD9F410929F04109290048091FC
:103920000803882379F082E090E090939A048093D2
:1039300099041092080320919D0430919E0481E027
:10394000232BE9F080E01BC081E00ACF109208032E
:1039500080919F04882349F01092910410929A0458
:103960001092990410929F04EDCF80919D04909144
:103970009E04892BE1F08091900410929004209194
:10398000990430919A042230310509F45EC088F41C
:103990002115310509F448C02130310509F4F3C07F
:1039A000109291041092900410929F0438C081E00C
:1039B000E6CF2330310509F4B1C02430310581F759
:1039C00040918C0450918D0460918E0470918F040D
:1039D000411551056105710561F0415051096109B9
:1039E000710940938C0450938D0460938E047093FE
:1039F0008F0440918C0450918D0460918E047091DD
:103A00008F04452B462B472BD9F420919B043091F2
:103A10009C042130310509F046C0109291041092A7
:103A20009A04109299040CC080910803882341F0F5
:103A300082E090E090939A04809399041092080396
:103A400010928A0480919104CEC08823C9F380919A
:103A5000A2049091A304A091A404B091A504181607
:103A600019061A061B060CF07DC080919D049091EA
:103A70009E04019709F076C08091A2049091A3045E
:103A8000A091A404B091A50480938C0490938D041C
:103A9000A0938E04B0938F0483E090E090939A04F7
:103AA00080939904CDCF4091A6045091A7046091D2
:103AB000A8047091A904452B462B472BA9F010921E
:103AC00091048091A6049091A704A091A804B091BC
:103AD000A90480938C0490938D04A0938E04B093DA
:103AE0008F0481E090E0DACF882399F08091090378
:103AF00090910A03A0910B03B0910C0380938C0466
:103B000090938D04A0938E04B0938F0484E090E092
:103B1000C5CF1092910482E090E0C0CF80918C04D8
:103B200090918D04A0918E04B0918F040097A1050F
:103B3000B10559F00197A109B10980938C049093C4
:103B40008D04A0938E04B0938F0480918C04909187
:103B50008D04A0918E04B0918F04892B8A2B8B2B1E
:103B600009F06ECF8091090390910A03A0910B0395
:103B7000B0910C03892B8A2B8B2B09F44ECF81E05B
:103B800080939104B3CF40918C0450918D04609147
:103B90008E0470918F04411551056105710561F026
:103BA000415051096109710940938C0450938D046F
:103BB00060938E0470938F0440918C0450918D0417
:103BC00060918E0470918F04452B462B472B09F092
:103BD00037CF8111C7CF9FCF80918A04882309F402
:103BE00031CF80918B04CF911F910F91FF90EF9077
:103BF000DF90CF9008951092950410929604109241
:103C00009704109298041092940410929A041092BF
:103C1000990410929304109292041092B40410929A
:103C2000B304109291041092900410928C0410929C
:103C30008D0410928E0410928F0410928B041092B7
:103C40008A041092AF041092B0041092B104109242
:103C5000B2041092AE041092AA041092AB04109217
:103C6000AC041092AD0488EE93E0A0E0B0E0809345
:103C7000090390930A03A0930B03B0930C031092D3
:103C8000A6041092A7041092A8041092A9041092FE
:103C9000A2041092A3041092A4041092A5041092FE
:103CA000A1041092A00481E08093080310929F0465
:103CB00010929E0410929D0410929C0410929B04FA
:103CC00090E080E0089580919D0490919E04892B5E
:103CD00019F580910803882351F080919F04811188
:103CE00006C081E080938B0480938A04089520911C
:103CF0009F043091080381E090E0332311F090E0BD
:103D000080E030E082239323892B21F010928B04F2
:103D100081E0EACF10928A04089582E090E0FA01EF
:103D2000918380838FEF9FEF0895CF93DF93EA0114
:103D3000009711F00E9426311982188290E080E0ED
:103D4000DF91CF910895DB01009719F48FEF8C93E9
:103D500008952EEF2C93FC013F96EF30F10508F00B
:103D600034C08827E954F14E8F4F0C945A43E31E18
:103D7000E11EDF1EDD1EDB1ED71ED91ED51ED31E83
:103D8000D11ECE1ECA1EC61ECC1EE51E80E3119695
:103D90008C93089589E2FBCF82E2F9CF11961C92B1
:103DA000089583E2F4CF81E2F2CF81E1F0CF87E2A0
:103DB000EECF8AE2ECCF80E1EACF84E2E8CF88E27E
:103DC000E6CF86E2E4CF81E3E2CF80E2E0CF8091EC
:103DD000C1049091C20408959093C2048093C104D9
:103DE00008958091C00408959091C004892B809318
:103DF000C0040895982F90958091C00489238093E2
:103E0000C00408958091BF0408958091BD049091ED
:103E1000BE0408956115710559F0FB0130E020E002
:103E200070E060E02417350719F06115710511F095
:103E3000CB010895A081B181A817B90709F4BF018A
:103E40002F5F3F4F3696EECF8091C30481111CC087
:103E500060D266D29093B6048093B5040E94242960
:103E60000E9436299093BA048093B9040E94B32D1E
:103E70000E94BA2D9093B8048093B70481E0809398
:103E8000C30490E080E0089584EF9FEF08958F923F
:103E90009F92AF92BF92CF92DF92EF92FF920F93D9
:103EA0001F93CF93DF9300D000D000D01F92CDB7E7
:103EB000DEB71A86198618861F821E821D821C8212
:103EC0001B821A8219828091C30407EF1FEF882397
:103ED00009F49CC08E010D5F1F4F9E012B5F3F4F69
:103EE000AE01495F5F4FBE01675F7F4F90E080E0AA
:103EF0000E94372F8C01009721F00596029708F059
:103F0000DBC029853A852115310509F402C1ED8010
:103F1000FE804B815C81B701640F751F8F8198858E
:103F20008617970708F4F5C0E20EF31ED7019C919F
:103F3000903C09F07FC04230510508F47BC01196D7
:103F40008C914091C1045091C204452B09F49CC04E
:103F5000913F08F071C02CE1290F2D3008F48BC07F
:103F60002DE2290F203108F489C0903C21F48150C2
:103F7000823008F483C088E3890F8B3008F481C055
:103F800093EAC92E9EE1D92EEDE8FEE16D817E8196
:103F9000AE014F5F5F4F89859A8519955C01C11409
:103FA000D104A1F189809A808114910479F18B81E7
:103FB0009C818815990508F487C010E000E04B81CA
:103FC0005C8170E060E0C7010E9484430115110527
:103FD000E9F449815A8169857A858D819E81680FCE
:103FE000791FC501F6011995E980FA800D811E81BE
:103FF0002F81388549855A856FEF7FEF81E090E00A
:104000000E94D22E8C01892B09F056C0C8012A9635
:104010000FB6F894DEBF0FBECDBFDF91CF911F91D9
:104020000F91FF90EF90DF90CF90BF90AF909F9057
:104030008F90089580E085CF30E020E0220F331F7D
:10404000F901EB54FB4F0190F081E02D309709F41A
:1040500097CF892F90E01995009709F491CFDC0153
:104060001296ED91FC9113971496CD90DC903097B9
:1040700009F08CCF1FC021E030E0E0CF22E030E03B
:10408000DDCF23E030E0DACFD12CC12CE5E9FEE131
:104090009F3F09F07BCFE091B504F091B6043097D3
:1040A00021F4C90104EF1FEF0CC08FEF90E01995C8
:1040B0000097A9F604EF1FEF89859A85009709F408
:1040C000A5CF0E942631A2CF0E9401308C018985A4
:1040D0009A850E94263170E060E0C4010E949A2F08
:1040E00098878F830E94CF2E9E838D836F817885E2
:1040F0006115710559F0C8010E94B2329A8789870B
:1041000006EF1FEF892B09F058CF59CF08EF1FEFAB
:1041100056CF08EF1FEFD0CF2091C304222319F010
:1041200020E00C943B2987EF9FEF08958091C10414
:104130009091C20408950E94BF2D0E94192DF5D0C0
:10414000E5EBF4E088E0DF011D928A95E9F7109233
:10415000C30490E080E008950C94772B21E040E0C8
:1041600050E0BA010C943B2986E090E0FA0191837B
:10417000808390E080E0089547E050E060E473E0E1
:1041800049CEDF92EF92FF920F931F93CF93DF936D
:104190008A01EC01C60FD71FE090C704F090C80455
:1041A000D9800E94E92FD816190678F082E090E0B5
:1041B000F801918380838EEF9FEFDF91CF911F9164
:1041C0000F91FF90EF90DF900895EF2841F482E087
:1041D00090E0F8019183808384EF9FEFEECF898197
:1041E0008093C60490E00196F8019183808390E06B
:1041F00080E0E3CFCF93DF93EA010E94282C88234D
:1042000021F00E94F62F0E94292C82E090E09983F1
:1042100088838BEF9FEFDF91CF910895CF93DF934A
:10422000EB0186E0FB0111928A95E9F78FEF888315
:10423000D8DD8983E7DD8A83E8DD9D838C83DF9188
:10424000CF910895CF93DF93EA010E942B2C811127
:1042500009C082E090E09983888385EF9FEFDF912A
:10426000CF91089590E080E0B7DD81E090E0998300
:10427000888390E080E0F3CF0F931F93CF93DF9379
:10428000EA018C01060F171F0E942B2C81110BC015
:1042900082E090E09983888385EF9FEFDF91CF9153
:1042A0001F910F910895F8018181823038F082E0EA
:1042B00090E0998388838EEF9FEFF0CF81E090E0CC
:1042C0008BDD88E090E09983888390E080E0E6CF02
:1042D000CF93DF930097D1F4EB01FB01329686E098
:1042E000DF011D928A95E9F78FEF888385E0898346
:1042F0001A820E94E92F8B830E94E82F9D838C8372
:1043000081E08E838F83DF91CF910895DF91CF91EC
:104310001ACD8CEB90E29093C5048093C404089569
:104320008091C4049091C50408951092C504109220
:10433000C40408958091C7049091C8040895411160
:1043400005C0611571058105910561F06093C70491
:104350007093C8048093C9049093CA044093CB041B
:1043600081E0089580E00895FF920F931F93CF930B
:10437000DF938A01EC01C60FD71FF9800E94E92F55
:10438000F816190668F082E090E0F80191838083C6
:104390008EEF9FEFDF91CF911F910F91FF900895C6
:1043A0006C817D818E819F814B81C9DF811108C025
:1043B00082E090E0F8019183808384EF9FEFEACF61
:1043C00089818093C60490E00196F80191838083EF
:1043D00090E080E0DFCFCF93DF93EA01FC01E60FAE
:1043E000F71F64817581868197814381A8DF8111E0
:1043F00009C082E090E09983888384EF9FEFDF918A
:10440000CF91089581E090E09983888390E080E0E7
:10441000F6CFE7ECF4E04081518162817381480F6F
:10442000511D611D711D4083518362837383089503
:10443000CF93C091C6044C2F50E06091C704709197
:10444000C80401960E947B438C2FE3DF1092C604C0
:10445000CF910895009799F48091C7049091C80472
:104460002FEFFB012083892B59F02091C60430E007
:104470002F5F3F4F2417350719F4CB01D9CF63CCF9
:104480000895009799F48091C7049091C8042FEF84
:10449000FB012083892B59F02091C60430E02F5F67
:1044A0003F4F2417350719F4CB01C2CF4CCC0895E8
:1044B00023E1AC01249FC001259F900D1124E091C0
:1044C000D004F091D104E80FF91F238134812250E8
:1044D000310981E02230310508F080E008950F9322
:1044E0001F93CF93DF930091D2041091D304D0E0B7
:1044F000C0E080E00C171D0749F491E0811190E0C5
:10450000892FDF91CF911F910F9108958111F5CFE0
:10451000CE01CEDF2196EECFA091D004B091D10490
:10452000109729F12091D2043091D3048217930778
:10453000F0F453E1589F9001599F300D1124A20FC0
:10454000B31FED91FC911197309789F012968C91E1
:10455000681768F48DE0689FE00DF11D11248081DB
:104560009181892B21F081E09281491708F080E048
:1045700008959C0143E1429FC001439F900D112487
:10458000E091D004F091D104E80FF91F83858230C7
:1045900091F481E090E06581768140910D03509126
:1045A0000E036417750711F490E080E0892B19F071
:1045B00081E0232B09F080E00895FC01A081B18106
:1045C0008DE0689FA00DB11D112413964D915C9153
:1045D00085859685489F9001499F300D589F300DE5
:1045E0001124C9010196611103C0478144FD04965D
:1045F0000895EF92FF920F931F93CF93DF93EA01F9
:10460000FC01E60FF71F02811381E480F5804F2D36
:104610006E2DC80181DF81110DC082E090E0998389
:1046200088838EEF9FEFDF91CF911F910F91FF90C5
:10463000EF900895C8013CDF882339F082E090E0D4
:104640009983888388EF9FEFEECF10931403009334
:104650001303E0921503F092160381E090E0998332
:10466000888390E080E0DFCFCF92DF92EF92FF92DD
:104670000F931F93CF93DF937A01EC01C60FD71FDF
:10468000C0901303D09014030091150310911603EA
:10469000412F602FC60140DF811110C082E090E001
:1046A000F701918380838AEF9FEFDF91CF911F9174
:1046B0000F91FF90EF90DF90CF900895C601F8DE44
:1046C000882341F082E090E0F7019183808388EFB6
:1046D0009FEFEBCF4C815D816E817F819A818981D3
:1046E0008F3F41F082E090E0F701918380838EEF6D
:1046F0009FEFDBCFE3E1EC9D9001ED9D300D1124A8
:10470000E091D004F091D104E20FF31F0190F08109
:10471000E02D2DE0029FE00DF11D11240190F081AC
:10472000E02D27E0129FE00DF11D1124808391837D
:104730008B81828343835483658376831F5F1093C9
:10474000160381E090E0F7019183808390E080E0A0
:10475000ACCFEF92FF920F931F93CF93DF937A0129
:104760008C01060F171FC091D004D091D10420975F
:1047700081F021E030E0F801828193814091D20400
:104780005091D3048417950710F030E020E0232BDC
:1047900071F482E090E0F701918380838EEF9FEFC8
:1047A000DF91CF911F910F91FF90EF90089543E11A
:1047B000489F9001499F300D1124C20FD31F78DE0E
:1047C000882341F082E090E0F7019183808388EFB5
:1047D0009FEFE6CFF8012481358120383105C8F6F6
:1047E00087818111D6CF4181842F90E08F7E009701
:1047F00041F082E090E0F7019183808386EF9FEFA4
:10480000CFCF4F833E832D83268128871986223080
:1048100010F421E0288721E030E0F7013183208384
:10482000BFCF88E090E0FA019183808390E080E040
:104830000895FB018FEF808381E181838FEF9FEFEC
:104840009383828380E890E0958384831682178225
:104850000895FB018FEF808391E09183828393839E
:10486000848384E3858381E090E097838683089541
:10487000DF92EF92FF920F931F93CF93DF93EA01A2
:10488000FC01E60FF71F8181813071F082E090E03A
:10489000998388838FEF9FEFDF91CF911F910F91C5
:1048A000FF90EF90DF90089582819381D4802581DD
:1048B000E680F7800091D0041091D1040115110514
:1048C00039F482E090E0998388838CEF9FEFE4CF06
:1048D0004091D2045091D3048417950738F082E0B8
:1048E00090E0998388838EEF9FEFD6CF892B39F0A4
:1048F00082E090E09983888386EF9FEFCDCF8D2D66
:104900008D7FB1F72130A1F781E0D11006C091E091
:10491000E916F10431F080E004C0E2E0EE16F104A3
:10492000D0F3882329F390E080E0C2DD882339F0BA
:1049300082E090E09983888388EF9FEFADCFF80104
:10494000D38681E08487F686E586108A178681E023
:1049500090E09983888390E080E09ECF4CE050E027
:104960006AE673E057CA8F929F92BF92CF92DF920E
:10497000EF92FF920F931F93CF93DF93EA01FC0115
:10498000E60FF71F828193810481B580E091D00406
:10499000F091D104309791F482E090E0998388837C
:1049A0008CEF9FEFDF91CF911F910F91FF90EF90D0
:1049B000DF90CF90BF909F908F9008952091D20468
:1049C0003091D3048217930738F082E090E0998306
:1049D00088838EEF9FEFE6CF23E1289F6001299F18
:1049E000D00C1124EC0DFD1DE080F180E114F104E8
:1049F00099F28281081748F78DE0089F8001112401
:104A0000E00EF11EF70180819181892B29F6BB20F0
:104A1000E1F2F7E0BF9E40011124C4010E94ED3095
:104A2000F70191838083E091D004F091D104EC0DE3
:104A3000FD1D0190F081E02DE00FF11F808191813B
:104A4000009739F482E090E0998388838DEF9FEF9F
:104A5000A9CFA40170E060E00E9484438091D0045B
:104A60009091D104C80ED91EF60180819181080F62
:104A7000191FF801B28281E090E09983888390E069
:104A800080E090CFAF92BF92CF92DF92FF920F93D0
:104A90001F93CF93DF93EA01FC01E60FF71F82819A
:104AA0009381F4800091D0041091D1040115110577
:104AB00081F482E090E0998388838CEF9FEFDF910F
:104AC000CF911F910F91FF90DF90CF90BF90AF904B
:104AD00008952091D2043091D3048217930738F0BF
:104AE00082E090E0998388838EEF9FEFE8CF2FEFED
:104AF0002F0D2C3FA8F723E1289F6001299FD00CA0
:104B000011240C0D1D1DF80180819181892B89F6DE
:104B1000FDE0FF9E50011124C5010E94ED30F80117
:104B200091838083E091D004F091D104EC0DFD1DC0
:104B300080819181009739F482E090E099838883A5
:104B40008DEF9FEFBCCFA50170E060E00E94844331
:104B5000E091D004F091D104EC0DFD1DF28281E0D2
:104B600090E09983888390E080E0A9CFCF92DF9294
:104B7000EF92FF920F931F93CF93DF93860F971FB0
:104B8000FC01028113818091D0049091D104892B82
:104B900081F082E090E0FA01918380838CEF9FEFB7
:104BA000DF91CF911F910F91FF90EF90DF90CF9009
:104BB0000895C801B0E0A0E00197A109B1098F3FB5
:104BC0009F4FA105B10540F082E090E0FA0191838A
:104BD00080838EEF9FEFE4CF7A0183E1809F6001B5
:104BE000819FD00C1124C6010E94ED30EC0100978A
:104BF00041F482E090E0F701918380838DEF9FEF95
:104C0000CFCFA60170E060E00E948443D093D1042E
:104C1000C093D0041093D3040093D20490E080E0BA
:104C20002FEF3FEF41E061E070E08017910741F422
:104C300081E090E0F7019183808390E080E0B0CF45
:104C40003A8B298B1B864C877E876D87188A1F8637
:104C500001966396EACFEF92FF921F93CF93DF9373
:104C6000EC0110E0F12CE12C6A811617B0F083E022
:104C7000689FB0011124AE014F5E5F4FC7010E94D3
:104C80005231009721F02FEF3FEF3A8B298BDF91C4
:104C9000CF911F91FF90EF900895612FCE018DDC91
:104CA00061E070E00E949A2FE816F90608F47C0192
:104CB0001F5FDACFF8942091CE043091CF0481E0C9
:104CC0002115310509F080E0232B09F0789408952F
:104CD0002F923F924F925F926F927F928F929F920C
:104CE000AF92BF92CF92DF92EF92FF920F931F93FA
:104CF000CF93DF933C01660E771EF301828193818F
:104D00004C01B12CA12CC091D004D091D10420979A
:104D100069F021E030E06091D2047091D3048617ED
:104D2000970710F030E020E0232BD1F482E090E0F0
:104D3000FA01918380838EEF9FEFDF91CF911F91D6
:104D40000F91FF90EF90DF90CF90BF90AF909F902A
:104D50008F907F906F905F904F903F902F9008952D
:104D60008092170390921803A0921903B0921A032D
:104D700063E1689F9001699F300D1124C20FD31F1A
:104D8000F3018181833040F082E090E0FA01918369
:104D9000808386EF9FEFD1CF2A012B813C81232B8B
:104DA000F1F4288139819F8191FF2EC0232B09F4D2
:104DB0006FC02091D5049A81422F490F5527551F66
:104DC000BA0141E050E06138710514F050E040E074
:104DD000452B09F45DC02A87920F9093D50481502A
:104DE000823008F481C066DF882309F4D8C0F3015B
:104DF0008181813009F48DC008F47BC0823009F4D0
:104E0000C6C090E080E0ADC0232B09F441C02091E2
:104E1000D4049A81E22FE90FFF27FF1F41E050E001
:104E2000ED3FF10514F050E040E0452B89F12A8771
:104E3000920F9093D404D3CFA081B181A20FB31F5E
:104E400011966C91060F111D0196295F3F4F841733
:104E5000950794F38D859E85089F1001099F300C5E
:104E6000189F300C1124C114D104D1F48F8184FF18
:104E700017C00E94E82FF5E02F0E311C21E08215AB
:104E8000930508F420E0A701435F5F4F21110EC096
:104E900082E090E0F2019183808387EF9FEF4DCF16
:104EA0000E94E82F2FEF221A320AE8CF88819981D9
:104EB000E80EF91EF70114830383FFEFCF1ADF0A10
:104EC0007A018A818C151D0409F00CF48CCFE881DD
:104ED000F981EE0DFF1D428150E030E020E010E04E
:104EE00000E090E080E0B3CFF12CE12CD12CC12C7C
:104EF000E8CF81E090E09C838B83F1DA882309F48A
:104F000080CF81E090E00E94EC1E80E40E94FA1EB7
:104F100078CF89899A89019661F083E090E09C833B
:104F20008B8382E090E00E94EC1E80E40E94F41EDD
:104F300068CF8D819E8120910D0330910E038217E1
:104F40009307D1F46091110370911203AE014F5E8B
:104F50005F4F80910F03909110030E947132009770
:104F6000E1F2789422E030E0F20131832083892B52
:104F700099F08DEF9FEFE1CE89288A288B2869F67A
:104F8000892B59F6CE0167DE188A1F86E8CF82E0AA
:104F900090E09C838B8335CF90E080E0CECE82E0A2
:104FA00090E0F2019183808385EF9FEFC6CE8F92D0
:104FB0009F92AF92BF92CF92DF92EF92FF920F93A8
:104FC0001F93CF93DF93EA018C01060F171FF8019F
:104FD0008181833098F082E090E09983888386EF26
:104FE0009FEFDF91CF911F910F91FF90EF90DF9096
:104FF000CF90BF90AF909F908F9008958091D004F4
:105000009091D104892B61F081E090E02091D2044D
:105010003091D304232B11F490E080E0892B39F4F4
:1050200082E090E0998388838EEF9FEFDACF42DEB3
:10503000882309F4DFC0F8018181813009F495C02B
:10504000E8F0823099F42091D2043091D304E091B9
:10505000D004F091D10490E080E041E050E02817C6
:10506000390709F0BDC03BDA811117C0789481E09F
:1050700090E09983888390E080E0B3CF2091D204C0
:105080003091D304E091D004F091D10490E080E01D
:1050900041E050E02817390741F481E090E00E9498
:1050A000EC1E80E40E94FA1EE1CF63817481672BBD
:1050B00011F05483438301967396ECCFE091D004B2
:1050C000F091D104E00FF11F2381348122303105AA
:1050D000D9F4218932892F3F3F4FB1F425813681A0
:1050E00040910D0350910E032417350761F5AF0170
:1050F0004F5E5F4F609111037091120380910F0317
:10510000909110030E947132EFEFCE1ADE0AEE0A80
:10511000FE0A0D5E1F4F4091D2045091D30470E0FF
:1051200060E0C416D506E606F7063CF5009731F2B6
:105130007894892B09F49BCF82E090E0998388834F
:105140008DEF9FEF4ECFC114D104E104F104E1F6DD
:10515000232BD1F6CF017FDDE091D004F091D10473
:10516000E00FF11F108A1786CFCF10E000E090E02B
:1051700080E0C12CD12C7601CECF0097C9F610E08B
:1051800000E0812C912C540183E0E82EF12C1AC010
:10519000E091D004F091D104E00FF11F838194815C
:1051A000029749F4F482E38282E090E00E94EC1ED0
:1051B00080E40E94F41EFFEF8F1A9F0AAF0ABF0A15
:1051C0000D5E1F4F8091D2049091D304B0E0A0E017
:1051D00088169906AA06BB06DCF290E080E0A8CF0C
:1051E000638174816230710511F4548343830196A5
:1051F000739635CF82E090E09983888385EF9FEFA7
:10520000F0CE0097B9F48FEFFB0180832091170354
:105210003091180343E1429FC001439F900D112438
:10522000E091D004F091D104E80FF91F8285FB01D1
:10523000818308950C94A31E88E090E0FA01918385
:10524000808390E080E008951092CF041092CE0405
:10525000E0EDF4E086E0DF011D928A95E9F78EEA41
:1052600094E29093CD048093CC0408958091CC0473
:105270009091CD0408952F923F924F925F926F923A
:105280007F928F929F92AF92BF92CF92DF92EF92D6
:10529000FF920F931F93CF93DF93CDB7DEB72F9776
:1052A0000FB6F894DEBF0FBECDBFF894E091CE04E8
:1052B000F091CF043196F093CF04E093CE0478942C
:1052C0004090D0045090D1044114510409F40CC210
:1052D000E091D204F091D304EF2B09F405C22D879D
:1052E00049875A876B877C8798878F831201B12CF7
:1052F000A12C10E000E08091D2049091D304A81674
:10530000B90618F40115110529F1F8948091CE041D
:105310009091CF0401979093CF048093CE0478941A
:10532000C8012F960FB6F894DEBF0FBECDBFDF9138
:10533000CF911F910F91FF90EF90DF90CF90BF9092
:10534000AF909F908F907F906F905F904F903F9025
:105350002F9008957101E418F508D10117968C91EA
:10536000179781FD54C013968D919C9114970397C4
:1053700009F04DC015968D919C91EF81F8858E179F
:105380009F0709F044C0B50190E080E07FD48A8394
:105390002091D0043091D1043D832C833D8533236B
:1053A00009F44CC04C815D81452B09F49AC1809170
:1053B000D2049091D304A816B90608F092C1C50191
:1053C000D8D88823E9F06C817D816E0D7F1D7D83A7
:1053D0006C83DB011F968D919C91892B89F0D12CD8
:1053E000C12CF12CE12CAC81BD8112968C911297CD
:1053F0008E151F0409F094F450961C921E921F976C
:105400002A81222321F0B50190E080E041D43FEFD2
:10541000A31AB30A43E1240E311C6DCFAC81BD81C8
:10542000ED91FC91EC0DFD1D858196810FD7BFEFAD
:10543000EB1AFB0AEDE0CE0ED11CD5CFEC81FD813D
:10544000309709F44EC18091D2049091D304A816EC
:10545000B90608F046C1EE0DFF1DFF87EE87C501B6
:1054600088D88B83882339F1AE85BF851F968D91AF
:105470009C915097019621E01D964D915C91841767
:10548000950709F020E02E831982712C10E000E0CE
:10549000AE85BF8512968C91781608F45DC0EE85B6
:1054A000FF85878590890196658576850E942443CE
:1054B000908B8787A5CFB1E0BE83E6CF99249394E4
:1054C0006BC08BD6F6019683858382C0D601ED90A2
:1054D000FC90B7E06B9EE00CF11C1124F701638196
:1054E000748180818F3F61F121E030E002C0220FA2
:1054F000331F8A95E2F7C901092E000CAA0BBB0BDA
:10550000FB01408151816281738184239523A6230D
:10551000B72321E0892B8A2B8B2B09F420E0D401BF
:105520002C93D70111968C91F60123853485820F37
:10553000932F911D880E991E1486138663949BC029
:10554000418150E0C4010E947B43EBCF998206EF7A
:105550001FEFC5C01982C3C0F981F111A0CFEDE0E2
:105560007E9E70011124AE85BF85CD90DC90CE0C5F
:10557000DF1C15D49D838C83BB81BB2309F49ECF94
:1055800081E0EE85FF8527853089232B09F080E0B7
:10559000982E882309F458C0672D8E859F850DD8D5
:1055A000D60118969C938E93179761E070E0C2D451
:1055B000EE85FF85218932892F3F320709F481CF9B
:1055C000BC01C901CFD7D60116969C938E9315972F
:1055D000D60115968D919C911697009709F4B6CF38
:1055E000EC81FD818E0F9F1F1A969C938E931997C5
:1055F000AE85BF85ED91FC911197EE0EFF1EF70170
:1056000021853285148613861A968C91870DD901CF
:105610008D93711016C0EE85FF85878184FF11C0C0
:1056200049855A856B857C85F90141835283638363
:105630007483F701838594850496A80FB91F148697
:105640001386F701B287A187D60115968D919C919B
:105650001697892B09F443C0EE85FF852581368195
:1056600080910D0390910E032817390779F0199650
:105670008D909C90612CD60112968C911297681691
:1056800008F424CF1A969C928E921997BE81BB2360
:1056900009F460CF61E070E0F601878190854AD41B
:1056A000D6011796ED90FC90189715964D915C9148
:1056B000E1E0F0E0BA81BB2311F0F0E0E0E00C8122
:1056C0001D819C01B501882799278E1B9F0B6AD3EA
:1056D0008C01892B21F0F60185819681B7D57394D1
:1056E000D7CE0FEF1FEF8CCE10E000E00ECE2F9242
:1056F0003F924F925F926F927F928F929F92AF9262
:10570000BF92CF92DF92EF92FF920F931F93CF93AE
:10571000DF938091D0049091D10410E000E0892BB8
:10572000A9F0C8DA0AEF1FEF882381F02090D20495
:105730003090D304C091D004D091D104D12CC12C8D
:1057400010E000E02C143D04A9F47894C801DF9126
:10575000CF911F910F91FF90EF90DF90CF90BF906E
:10576000AF909F908F907F906F905F904F903F9001
:105770002F900895C6010E94B922882309F18B81D8
:105780009C810397E9F48F859889892BC9F0B6012C
:1057900090E080E07BD221E030E0882311F030E01F
:1057A00020E044245524421A530AB12CA12C912CF8
:1057B000812C8A818815190409F038F4188A1F860B
:1057C0004FEFC41AD40A6396BDCFE881F981EA0D80
:1057D000FB1D85819681892BA1F161E070E08781B5
:1057E0009085A8D33C01DBD28C01E881F981EA0DD8
:1057F000FB1D8185928525813681200F311FAC01EB
:10580000421B530B9A0147815085421B530B70E09A
:1058100060E00E948443E881F981EA0DFB1DE78086
:10582000F084458156819301B601C201BBD28C013F
:10583000892B39F0E881F981EA0DFB1D858196817C
:1058400005D55FEF851A950A8DE0A80EB11CB1CF82
:1058500031CA789408952F923F924F925F926F923F
:105860007F929F92AF92BF92CF92DF92EF92FF9280
:105870000F931F93CF93DF9300D000D0CDB7DEB747
:105880000091D0041091D10499249394011511052D
:1058900009F43EC0A090D204B090D3040BDA982E45
:1058A0008823B1F11092D1041092D0041092D30445
:1058B0001092D2041092D4041092D5048FEF9FEF6F
:1058C000DC018093170390931803A0931903B093FE
:1058D0001A0378947FD31E830D83C12CD12C7601BB
:1058E000C501B0E0A0E089839A83AB83BC83222406
:1058F0002A94322C89819A81AB81BC81C816D90641
:10590000EA06FB06F4F0C801A1D480E40E94FA1E66
:10591000892D26960FB6F894DEBF0FBECDBFDF915E
:10592000CF911F910F91FF90EF90DF90CF90BF909C
:10593000AF909F907F906F905F904F903F902F908F
:105940000895AD81BE8115968D919C9116972091F9
:105950000D0330910E0382179307D1F451968D9168
:105960009C91EED5ED81FE8180819181B12CA12C9D
:10597000412C512C3201892B89F5BFEFCB1ADB0A60
:10598000EB0AFB0AED81FE817396FE83ED83B2CFB5
:10599000C114D104E104F10429F7892B19F7ED8131
:1059A000FE81818992898F3F980709F029D5AD81C1
:1059B000BE8152963C922E925197D4CF8A0D9B1D58
:1059C000DC018D919C91009709F040D4BFEF4B1AF8
:1059D0005B0A6B0A7B0AEDE0AE0EB11CAD81BE81A5
:1059E0008D919C91119712964C9150E070E060E07F
:1059F00044165506660677060CF328D4BECFCF931F
:105A0000DF93EA0128DF811109C082E090E09983E9
:105A1000888385EF9FEFDF91CF91089581E090E03B
:105A20000E94EC1E81E090E09983888390E080E002
:105A3000F2CF11DF1092CD041092CC04089542E011
:105A400050E062EB73E00C940A1FFF920F931F93D8
:105A5000CF93DF938A01EC01C60FD71FF980B9D22B
:105A60000897F816190671F068F082E090E0F801E6
:105A7000918380838EEF9FEFDF91CF911F910F91E4
:105A8000FF9008956C817D818E819F814B810E9462
:105A90009F21811108C082E090E0F801918380830A
:105AA00084EF9FEFE9CFF9800E949A214F2D50E0BB
:105AB000BE01685F7F4F0E947B4389810E9409225B
:105AC00081E090E0F8019183808390E080E0D4CF82
:105AD000DF92EF92FF920F931F93CF93DF938A0190
