:1000000014C100000C9482380C94AD380C94D8388C
:100010000C9403390C942E390C9459390C9484396E
:100020000C94AF3933C1000031C100002FC1000072
:100030002DC100002BC1000029C1000027C1000014
:1000400025C1000023C1000021C100001FC1000024
:100050001DC100001BC1000019C100000C94DA3959
:1000600015C100000C94AE3D0C94E43D0FC100009E
:100070000DC100000BC1000009C1000007C1000054
:1000800005C1000003C1000001C10000FFC0000065
:100090000C943A3E0C94703EF9C00000F7C000008A
:1000A000F5C00000F3C00000F1C00000EFC0000088
:1000B000EDC00000EBC00000E9C00000E7C0000098
:1000C000E5C00000E3C000000C9419340C94C63E57
:1000D0000C94FC3EDBC000000C94523F0C94883F13
:1000E000D5C0000005A84CCDB2D44EB93836A9020F
:1000F0000C50B9918688083CA6AAAA2ABE00000026
:10010000803F00000A0B02090C0D0E0807030401D2
:1001100000000000000000000000000000000000DF
:1001200000000000000000000000000000001211AC
:1001300010000000000000000000000000000000AF
:10014000000000000000000001021020200808103C
:100150002040102040800201020108040201010237
:100160000408102040808040201008040201800410
:10017000020180402010080402010804020101026B
:10018000040810204080010204081020408005056A
:100190000505070508080808020202020A0A0808FD
:1001A000040404040101010101010101030303032B
:1001B00003030303040707070C0C0C0C0C0C0C0CBA
:1001C0000202020206060606060606060B0B0B0BCB
:1001D0000B0B0B0B000020002300260029002C0035
:1001E0002F00320000010000030106010901000098
:1001F0002200250028002B002E00310034000201CF
:100200000000050108010B01000021002400270067
:100210002A002D0030003300010100000401070115
:100220000A010D3E993E253FB13F11241FBECFEF7D
:10023000D1E2DEBFCDBF00E00CBF14E0A0E0B2E031
:10024000E8E0F1E800E00BBF02C007900D92AA348D
:10025000B107D9F72EE0AAE4B4E001C01D92A032A4
:10026000B207E1F711E0C5E1D1E000E006C0219757
:100270000109802FFE010E945140C131D10780E069
:100280000807A9F70E9407350C948240B9CECF9297
:10029000DF92EF92FF92CF93882351F16A017B01A5
:1002A000CFEFC80F20E030E0A901CB01B6010E94DA
:1002B000FD3518168CF0C701B60190580E9409361A
:1002C0009B01AC016C2F70E090E080E0CF91FF903B
:1002D000EF90DF90CF90B2C0C701B6010E94043604
:1002E0008C2FCF91FF90EF90DF90CF900C94E13A5C
:1002F000CF91FF90EF90DF90CF9008950F931F93D1
:100300008B019C0183E036952795179507958A9573
:10031000D1F7065B1B4F462F477021E030E0F90113
:1003200002C0EE0FFF1F4A95E2F7AF01F8012081EE
:100330002423CB010196211102C090E080E01F919F
:100340000F9108950F931F938B019C0183E03695C5
:100350002795179507958A95D1F7677081E090E00A
:1003600001C0880F6A95EAF7F801E65BFB4F208130
:10037000452B31F48095822380831F910F9108953E
:10038000822BFACF2F923F924F925F926F927F9281
:100390008F929F92AF92BF92CF92DF92EF92FF9295
:1003A0000F931F93CF93DF93D62EC72E782E692EEF
:1003B00049015A01280161E08D2D0E941B3CCD2D81
:1003C000DC2D8E010F5F1F4FA8016D2D7C2D872D19
:1003D000962DB8DF20E030E0A901C201B7010E94EC
:1003E0002037181664F4C201B7010E9409362B01A8
:1003F000C501B4010E940936A201CE0123D0C80173
:10040000DF91CF911F910F91FF90EF90DF90CF90F0
:10041000BF90AF909F908F907F906F905F904F9024
:100420003F902F900895882341F08150682F70E00D
:1004300090E080E050E040E085CF0895862FB9013C
:100440000C94E13A9C01FC01EE5FFE4FE491E15017
:10045000E231E0F4F0E08827EF5CFD4F8F4F0C9421
:10046000514043024A024D026402790246028E0262
:100470009A029E02B502CA02DF02F6020B0346028E
:10048000200337034C0384B5806884BD60E0822F6D
:100490000C94573C84B58062F8CF809180008C7FAB
:1004A00082608093800080918100807E8061682BD3
:1004B0006093810050938700409386008091800074
:1004C000806880938000E2CF809180008C7F826082
:1004D0008093800080918100807E8061682B609392
:1004E0008100509387004093860080918000806255
:1004F000E8CF809180008C7F826080938000809123
:100500008100807E8061682B60938100509387001A
:1005100040938600809180008860D3CF8091B000A6
:1005200080688093B0008091B100887F682B6093D1
:10053000B100ACCF8091B0008062F3CF8091900089
:100540008C7F82608093900080919100807E80619A
:10055000682B609391005093970040939600809190
:10056000900080688093900091CF809190008C7F64
:1005700082608093900080919100807E8061682BE2
:100580006093910050939700409396008091900063
:100590008062E8CF809190008C7F82608093900091
:1005A00080919100807E8061682B609391005093D0
:1005B000970040939600809190008860D3CF8091FF
:1005C000A0008C7F82608093A0008091A100807E3B
:1005D0008061682B6093A1005093A7004093A60010
:1005E0008091A00080688093A00050CF8091A000EF
:1005F0008C7F82608093A0008091A100807E8061CA
:10060000682B6093A1005093A7004093A6008091AF
:10061000A0008062E8CF8091A0008C7F82608093F0
:10062000A0008091A100807E8061682B6093A10072
:100630005093A7004093A6008091A0008860D3CF7C
:10064000809120018C7F8260809320018091210124
:10065000807E8061682B6093210150932701409335
:100660002601809120018068809320010FCF809126
:1006700020018C7F82608093200180912101807E07
:100680008061682B609321015093270140932601DC
:10069000809120018062E8CF809120018C7F826070
:1006A0008093200180912101807E8061682B60937E
:1006B00021015093270140932601809120018860F9
:1006C000D3CF611102C00C941B3C6130E1F362E0B6
:1006D000FACF662319F061E00C94573C60E0FCCF40
:1006E000FC01A781B0858C9191858923A481B58176
:1006F0009C9140815181628173812681922359F0BE
:1007000081110BC04F5F5F4F6F4F7F4F408351830D
:100710006283738308958111F5CF415051096109B6
:100720007109F4CF84E594E0DBCF8FE594E0D8CF76
:100730008AE694E0D5CF85E794E0D2CFFC01A4818E
:10074000B5818C9196818923A781B0859C91408148
:100750005181628173812185922359F0882359F058
:100760004F5F5F4F6F4F7F4F40835183628373832F
:1007700008958823A9F34150510961097109F4CF03
:1007800084E594E0DBCF8FE594E0D8CF8AE694E06F
:10079000D5CF85E794E0D2CF0F931F93CF93DF930C
:1007A000D82FC62F8A01A09153048BE0A89FD001B7
:1007B0001124AC5ABB4F1D921D921D921C9213978F
:1007C00081E01A968C931A978D2F90E0FC01E85BDC
:1007D000FE4FE4911696EC931697FC01E257FE4FFC
:1007E000E491F0E0EE0FFF1FEC52FE4F85919491E3
:1007F00015969C938E931497862F90E0FC01E85BEE
:10080000FE4FE4911996EC931997FC01E257FE4FC5
:10081000E491F0E0EE0FFF1FEC52FE4F85919491B2
:1008200018969C938E93179760E08D2F0E941B3C27
:1008300060E08C2F0E941B3C80915304813009F4AE
:100840003FC0A8F0823009F462C0833009F486C04A
:100850008091530491E0980F90935304F8018083A2
:1008600090E080E0DF91CF911F910F91089580E09B
:10087000D23049F081E0D33031F08EEE8D0F8430EC
:10088000D8F487E18D1B41E050E062E973E00E94FB
:10089000083880E0C23049F081E0C33031F08EEE9C
:1008A0008C0F843058F487E18C1B41E050E060EC01
:1008B00073E00E940838CCCF8FEFE5CF8FEFF5CFF4
:1008C00080E0D23049F081E0D33031F08EEE8D0FF0
:1008D0008430C8F487E18D1B41E050E065E973E0A6
:1008E0000E94083880E0C23049F081E0C33031F026
:1008F0008EEE8C0F843048F487E18C1B41E050E091
:1009000063EC73E0D6CF8FEFE7CF8FEFF7CF80E0C8
:10091000D23049F081E0D33031F08EEE8D0F84304B
:10092000C8F487E18D1B41E050E068E973E00E9464
:10093000083880E0C23049F081E0C33031F08EEEFB
:100940008C0F843048F487E18C1B41E050E066EC6A
:1009500073E0AFCF8FEFE7CF8FEFF7CF80E0D230EC
:1009600049F081E0D33031F08EEE8D0F8430C8F441
:1009700087E18D1B41E050E06BE973E00E9408388D
:1009800080E0C23049F081E0C33031F08EEE8C0F50
:10099000843048F487E18C1B41E050E069EC73E05F
:1009A00088CF8FEFE7CF8FEFF7CF9BE0899FF001E4
:1009B0001124EC5AFB4F80819181A281B381FB010C
:1009C00080839183A283B38390E080E008959BE0CD
:1009D000899FF0011124EC5AFB4F10821182128280
:1009E000138290E080E0089590E080E0089590E028
:1009F00080E008950F931F93009709F489C0611553
:100A0000710509F485C000916C0310916D0320916C
:100A10006E0330916F030E3F1F4F2F4F3F4F09F072
:100A200068C04FEF5FEFBA0140936C0350936D03C2
:100A300060936E0370936F0340916C0350916D034C
:100A400060916E0370916F03DC011296ED91FC9141
:100A500080819181A281B38180938E0590938F05CF
:100A6000A0939005B093910584819581A681B7816B
:100A700080938A0590938B05A0938C05B0938D0588
:100A800080859185A285B38580938605909387059F
:100A9000A0938805B093890584859585A685B7853B
:100AA0008093820590938305A0938405B093850578
:100AB00010927E0510927F0510928005109281059C
:100AC0000E94FD1782E298E1909381048093800454
:100AD00090938304809382040E94EC16009731F473
:100AE00021E030E030939305209392051F910F9100
:100AF000089500916C0310916D0320916E03309165
:100B00006F03DB010D931D932D933C93139794CFAB
:100B10008FEF9FEFEBCF8F929F92AF92BF92CF92CA
:100B2000DF92EF92FF921F93CF93DF934B015C0113
:100B30001091950582E090E0909393058093920543
:100B400081149104A104B10441F4809195058111AF
:100B500004C080919405C1E08111C0E0C12CD12C6A
:100B6000760180919505811106C0809194058111CF
:100B700002C0CC23D9F083E090E09093930580935A
:100B80009205CC2381F1CCE9DFEF111102C00E9464
:100B9000871BCE01DF91CF911F91FF90EF90DF90E7
:100BA000CF90BF90AF909F908F9008956AE070E0D3
:100BB00080E090E00E94493A80E1C80E87E2D81EAA
:100BC000E11CF11C8FEF88169806A806B80631F0D4
:100BD000C1E08C149D04AE04BF0408F0C0E080E0C6
:100BE0000E942017BECFD0E0C0E0CFCFCF92DF92DF
:100BF000EF92FF920F931F93CF93DF938F3F910557
:100C000011F008F051C020919205309193052330E6
:100C1000310539F02091920530919305213031054D
:100C200031F424E030E030939305209392056A017B
:100C30007B01EC0182309105A8F011E0AE01C70103
:100C4000B6010E94EB16AB01BC01CE011123F9F0F5
:100C5000DF91CF911F910F91FF90EF90DF90CF9098
:100C60000C94B01D8C01000F111F00581B4FD801B0
:100C70008D919C91892B09F30E94BA1D0297E9F688
:100C8000D801ED91FC91CE011995182FD7CF0E9474
:100C9000D21D90E080E0DF91CF911F910F91FF90E6
:100CA000EF90DF90CF9008958FEF9FEFF4CF80E02B
:100CB0000C942017CF93DF9386E090E090939305F8
:100CC000809392050E947917EC01E0E8F4E084E05B
:100CD000DF011D928A95E9F70E941F1B1092930570
:100CE00010929205CE01DF91CF91089580919405E5
:100CF000089580917D05089560936C0370936D0352
:100D000080936E0390936F0390E080E008952F929C
:100D10003F924F925F926F927F928F929F92AF928B
:100D2000BF92CF92DF92EF92FF920F931F93CF93D8
:100D3000DF93CDB7DEB7CB54D1090FB6F894DEBF41
:100D40000FBECDBF26967FAF6EAF269728965FAFBA
:100D50004EAF28973E8B2D8B2C96FFAEEEAE2C9788
:100D6000FB01E150F04CEE0FFF1FEE0FFF1FE80FED
:100D7000F91F80809180A280B3808F8A988EA98E7F
:100D8000BA8EB501A401442777FD43955527662700
:100D9000772729964FAF2997F901E150F04CEE0FD4
:100DA000FF1FEE0FFF1F2896AEACBFAC2897EA0DD1
:100DB000FB1DC080D180E280F380CB8EDC8EED8E77
:100DC000FE8EB701A601442777FD43955527662778
:100DD00077272A964FAF2A97188B0F87F80130E0B4
:100DE00020E02C96EEACFFAC2C972E153F050CF4B2
:100DF0003FC022969FAF8EAF22971A8B098B312C62
:100E0000212C812C912C540183948D829E82AF825F
:100E1000B88626968EAC9FAC2697281439047CF1B0
:100E200029969FAC29972A96AFAC2A9730E020E00C
:100E300041E050E060E070E09A10F5C1C55BDF4F23
:100E40000FB6F894DEBF0FBECDBFDF91CF911F91DB
:100E50000F91FF90EF90DF90CF90BF90AF909F9059
:100E60008F907F906F905F904F903F902F9008955C
:100E700011921192119211922F5F3F4FB2CF229691
:100E8000EEADFFAD229781919191A191B191229602
:100E9000FFAFEEAF22978F88988CA98CBA8CB7FEE3
:100EA00023C04D815E816F81788541505109610970
:100EB00071095A016B01A81AB90ACA0ADB0AD601DC
:100EC000C50121E0CD80DE80EF80F8848C159D0582
:100ED000AE05BF0508F020E0822E912CB12CA12C8C
:100EE0008D829E82AF82B8865D01CC24DD24A8A2CB
:100EF000B9A2CAA2DBA29C01AD01442755272CA3AD
:100F00003DA34EA35FA32C96EEADFFAD2C97E21947
:100F1000F3098D889E888E169F060CF4F40128969E
:100F2000AEACBFAC28972496BFAEAEAE2497C988AE
:100F3000DA88DC8ACB8A1E861D86812C912C54018E
:100F4000839489869A86AB86BC86812C912C540129
:100F5000CD84DE84CE16DF0604F1F7FF02C0F0E098
:100F6000E0E0E20DF31D2C96EEACFFAC2C97EE15F5
:100F7000FF0554F4EE0FFF1FEE0FFF1FE00FF11FF0
:100F800080829182A282B3822FEF221A320AE989EB
:100F9000FA893496FA8BE98B3CCF2496AEADBFAD7F
:100FA0002497CD90DD90ED90FD902496BFAFAEAF2D
:100FB00024972B8D3C8D4D8D5E8D57FF22C08985EA
:100FC0009A85AB85BC850197A109B109AC01BD012A
:100FD0004C195D096E097F096A017B0181E0298551
:100FE0003A854B855C85C216D306E406F50608F003
:100FF00080E0482F50E070E060E049875A876B87B7
:101000007C87B7018827992768A779A78AA79BA714
:10101000EE24FF2428A139A14AA15BA1C701B60192
:101020000E940C402B013C012CA13DA14EA15FA1CF
:1010300068A579A58AA59BA50E940C406CA77DA7F1
:101040008EA79FA7AB89BC894D915D916D917D91D4
:10105000BC8BAB8BDB01CA01880D991DAA1DBB1D82
:1010600089839A83AB83BC8391E09F8F29813A81E6
:101070004B815C81281539054A055B0508F01F8EF8
:101080002CA13DA14EA15FA1C701B6010E940C4059
:101090006B017C0189809A80AB80BC808C0C9D1C8C
:1010A000AE1CBF1C89829A82AB82BC8252019924F9
:1010B000882488AA99AAAAAABBAA29813A814B8125
:1010C0005C81280D391D4A1D5B1D2CAB3DAB4EAB21
:1010D0005FAB8CA49DA4AEA4BFA454019924882422
:1010E00088AE99AEAAAEBBAE280D391D4A1D5B1D58
:1010F0002CAF3DAF4EAF5FAFAB89BC8914972D933A
:101100003D934D935C93139728A139A14AA15BA10C
:1011100068A579A58AA59BA50E940C409F8C690DA6
:10112000711D811D911D230166247724460E571ED3
:10113000681E791E2CA53DA54EA55FA54A01AA24CF
:10114000BB24840C951CA61CB71C81E090E0A0E099
:10115000B0E049815A816B817C814C155D056E053B
:101160007F0518F080E090E0DC01880D991DAA1D34
:10117000BB1D41E050E060E070E088A899A8AAA8F3
:10118000BBA8CCA8DDA8EEA8FFA8C814D904EA041F
:10119000FB0418F040E050E0BA01840F951FA61F31
:1011A000B71F812C912C54018394C8ACD9ACEAAC04
:1011B000FBAC2CAD3DAD4EAD5FAD2C153D054E05E8
:1011C0005F0518F0812C912C5401880E991EAA1EDF
:1011D000BB1E4D855E854F5F5F4F5E874D87B8CEE6
:1011E000EF85F889C190D190E190F190F88BEF876D
:1011F000DB01CA010197A109B1098C199D09AE094A
:10120000BF09349780839183A283B383E1E084177D
:101210009507A607B70708F0E0E04E2F50E070E012
:1012200060E02F5F3F4F2C968EAC9FAC2C9728151B
:101230003905B4F203CE2F923F924F925F926F9294
:101240007F928F929F92AF92BF92CF92DF92EF9256
:10125000FF920F931F93CF93DF9379011B01DA0164
:10126000D0E0C0E040E050E0BA01CE15DF059CF0D0
:10127000DF91CF911F910F91FF90EF90DF90CF9072
:10128000BF90AF909F908F907F906F905F904F90A6
:101290003F902F900895FC0181909190A190B19082
:1012A000CF01F10101911191219131911F0124018F
:1012B0003501401A510A620A730A93018201041B24
:1012C000150B260B370B0D931D932D933D93662421
:1012D0006394712CC12CD12C452B462B472B39F014
:1012E000081519052A053B0538F4612C05C0801640
:1012F0009106A206B306C8F7A301B6012196B5CFA1
:101300002F923F924F925F926F927F928F929F9215
:10131000AF92BF92CF92DF92EF92FF920F931F9303
:10132000CF93DF9300D01F92CDB7DEB78B015C83E4
:101330004B83FB01E150F04CEE0FFF1FEE0FFF1F40
:10134000E80FF91F408151816281738177FD27C0C9
:101350004C01B12CA12CC12CD12C7601A016B106C8
:1013600064F5F40161917191819191914F010E9415
:1013700035364B815C810E9426379B01AC01C70149
:10138000B6010E9499356B017C012B813C81205E66
:101390003F4F3C832B833FEFA31AB30ADFCF9A83DF
:1013A0008983312C212C81E090E0A0E0B0E0C12CB9
:1013B000D12C760120163106CCF0C701B6010F9072
:1013C0000F900F900F90DF91CF911F910F91FF9091
:1013D000EF90DF90CF90BF90AF909F908F907F90D5
:1013E0006F905F904F903F902F900895E981FA8120
:1013F0004190519061907190FA83E98340945094A8
:101400006094709453014201880E991EAA1EBB1E5F
:10141000C501B4010E9435364B815C810E9426379C
:101420009B01AC01C701B6010E9498356B017C019C
:1014300081E084149504A604B70408F080E090E0ED
:10144000B0E0A0E02B813C81205E3F4F3C832B83AA
:101450003FEF231A330AAECF2F923F924F925F9203
:101460006F927F928F929F92AF92BF92CF92DF92B4
:10147000EF92FF920F931F93CF93DF93CDB7DEB719
:10148000A0970FB6F894DEBF0FBECDBFE091570511
:10149000F091580520803180428053806090780D13
:1014A0007090790DA2019101D3016D917D918D9183
:1014B0009C910E94203718160CF423C1A0907A0D3D
:1014C000B0907B0DF301EC5AFF4FC080D180E280D9
:1014D000F380A2019101C701B6010E94FD3581117F
:1014E000B7C0F501EC5AFF4F80809180A280B38095
:1014F000209108033091090340910A0350910B0396
:10150000C501B4010E945A376B017C0120E030E034
:10151000A9016091100370911103809112039091C1
:1015200013030E945A379B01AC01C701B6010E9408
:1015300099356093A80D7093A90D8093AA0D90938F
:10154000AB0D20910C0330910D0340910E0350918F
:101550000F03C501B4010E945A376B017C0120E0E2
:1015600030E0A90160911403709115038091160376
:10157000909117030E945A379B01AC01C701B60135
:101580000E9499356B017C01C092AC0DD092AD0DDB
:10159000E092AE0DF092AF0D2091B0023091B10209
:1015A0004091B2025091B3020E945A3720914C0DE3
:1015B00030914D0D40914E0D50914F0D0E94983538
:1015C0002091D8023091D9024091DA025091DB0289
:1015D0000E945A374B015C012091E0023091E102F8
:1015E0004091E2025091E302C701B6010E945A37CE
:1015F0002091500D3091510D4091520D5091530D4D
:101600000E949935A50194010E9499356B017C01D6
:10161000C092E40DD092E50DE092E60DF092E70D58
:101620004090E8025090E9026090EA027090EB026C
:10163000A30192010E94203718160CF066C0409258
:10164000E40D5092E50D6092E60D7092E70D6DC0CD
:10165000A2019101C701B6010E94FD3587FD51C06D
:10166000E0907E0DF0907F0D6701CC0CDD1CCC0C62
:10167000DD1C43018C0C9D1CA2019101F4016081D1
:101680007181828193810E942037F4E0CF0ED11CBA
:101690006C0C7D1C181644F594E0891A9108A2017F
:1016A0009101D40114966D917D918D919C91179724
:1016B0000E94203718168CF0C701880F991F880FD9
:1016C000991FA80EB91ED5018D909D90AD90BC902C
:1016D000F0927F0DE0927E0D0BCF81E0E81AF108C9
:1016E000DBCFBFEFEB1AFB0AF3016191719181919E
:1016F00091913F01A20191010E94FD3518168CF7CE
:10170000DBCF812C912C5401F3CE4090D00250902D
:10171000D1026090D2027090D302A3019201C7015E
:10172000B6010E94FD3587FD8ACF2091E40D3091EE
:10173000E50D4091E60D5091E70D60912003709109
:10174000210380912203909123030E945A376B0159
:101750007C01C092CC0DD092CD0DE092CE0DF092D6
:10176000CF0D409024035090250360902603709085
:101770002703A30192010E94203718160CF09EC087
:101780004092E40D5092E50D6092E60D7092E70DE7
:101790008091E40D9091E50DA091E60DB091E70DDB
:1017A000BF778093C80D9093C90DA093CA0DB093D5
:1017B000CB0D69E070E080E090E00E947E017C014A
:1017C0009093330D8093320D4090C80D5090C90D09
:1017D0006090CA0D7090CB0D20E030E04FE753E4ED
:1017E000C301B2010E94FD3518160CF480C040926E
:1017F000E40D5092E50D6092E60D7092E70D20E049
:1018000030E0A9016091E40D7091E50D8091E60D45
:101810009091E70D0E94203787FF08C01092E40DD9
:101820001092E50D1092E60D1092E70D4091E40D37
:101830005091E50D6091E60D7091E70DC7010E9492
:10184000470111E020910403309105034091060304
:10185000509107036091CC0D7091CD0D8091CE0D0C
:101860009091CF0D0E94FD35811101C010E01093C1
:10187000040E612F88E00E9469034090CC0D5090C7
:10188000CD0D6090CE0D7090CF0DC0902C03D090F8
:101890002D03E0902E03F0902F03A7019601C301C2
:1018A000B2010E94203718167CF5C092CC0DD09260
:1018B000CD0DE092CE0DF092CF0D36C040902803B2
:1018C0005090290360902A0370902B03A30192018A
:1018D000C701B6010E94FD3587FD52CFC092E40DCD
:1018E000D092E50DE092E60DF092E70D51CF80E049
:1018F00090E0AFE7B3E48093E40D9093E50DA093FF
:10190000E60DB093E70D7BCFC0903003D09031034C
:10191000E0903203F0903303A7019601C301B201B6
:101920000E94FD3587FDC1CF6AE070E080E090E065
:101930000E947E017C0190933B0D80933A0D409074
:10194000CC0D5090CD0D6090CE0D7090CF0D20E05D
:1019500030E04FE753E4C301B2010E94FD35181691
:101960000CF4A9C04092E40D5092E50D6092E60D92
:101970007092E70D20E030E0A9016091E40D7091D4
:10198000E50D8091E60D9091E70D0E94203787FFCD
:1019900008C01092E40D1092E50D1092E60D109221
:1019A000E70D4091E40D5091E50D6091E60D7091C9
:1019B000E70DC7010E9447012091AC0D3091AD0D9C
:1019C0004091AE0D5091AF0D6091B8027091B90287
:1019D0008091BA029091BB020E945A376D8F7E8F20
:1019E0008F8F98A3C090A80DD090A90DE090AA0D5C
:1019F000F090AB0D2091B4023091B5024091B60247
:101A00005091B702C701B6010E945A372091540D78
:101A10003091550D4091560D5091570D0E949835BB
:101A20002091DC023091DD024091DE025091DF0214
:101A30000E945A3769877A878B879C872091E402B6
:101A40003091E5024091E6025091E702C701B601EC
:101A50000E945A372091580D3091590D40915A0DDE
:101A600050915B0D0E94993529853A854B855C859F
:101A70000E9499356B017C01C092E40DD092E50D76
:101A8000E092E60DF092E70D4090EC025090ED02EE
:101A90006090EE027090EF02A30192010E94203745
:101AA0001816B4F44092E40D5092E50D6092E60DE4
:101AB0007092E70D1DC080E090E0AFE7B3E4809343
:101AC000E40D9093E50DA093E60DB093E70D52CF92
:101AD0004090D4025090D5026090D6027090D70208
:101AE000A3019201C701B6010E94FD3587FDDACF3F
:101AF0002091E40D3091E50D4091E60D5091E70DF8
:101B000060913C0370913D0380913E0390913F03AF
:101B10000E945A379B01AC012093D40D3093D50D10
:101B20004093D60D5093D70D11E060910003709152
:101B3000010380910203909103030E94FD358111FE
:101B400001C010E01093050E612F8DE00E94690323
:101B5000C090D40DD090D50DE090D60DF090D70D5B
:101B600040904003509041036090420370904303C3
:101B7000A3019201C701B6010E94203718160CF08C
:101B800082C04092E40D5092E50D6092E60D709295
:101B9000E70D8091E40D9091E50DA091E60DB091D7
:101BA000E70DBF778093D00D9093D10DA093D20D08
:101BB000B093D30D6BE070E080E090E00E947E0176
:101BC0007C019093230D8093220D4090D00D509076
:101BD000D10D6090D20D7090D30D20E030E04FE732
:101BE00053E4C301B2010E94FD3518160CF464C021
:101BF0004092E40D5092E50D6092E60D7092E70D73
:101C000020E030E0A9016091E40D7091E50D809134
:101C1000E60D9091E70D0E94203787FF08C01092D3
:101C2000E40D1092E50D1092E60D1092E70D409133
:101C3000E40D5091E50D6091E60D7091E70DC7013F
:101C40000E9447014090D40D5090D50D6090D60D64
:101C50007090D70DC0904803D0904903E0904A039C
:101C6000F0904B03A7019601C301B2010E942037F7
:101C700018167CF5C092D40DD092D50DE092D60DF9
:101C8000F092D70D36C040904403509045036090C9
:101C9000460370904703A3019201C701B6010E9459
:101CA000FD3587FD6ECFC092E40DD092E50DE09238
:101CB000E60DF092E70D6DCF80E090E0AFE7B3E482
:101CC0008093E40D9093E50DA093E60DB093E70D9E
:101CD00097CFC0904C03D0904D03E0904E03F0900E
:101CE0004F03A7019601C301B2010E94FD3587FD94
:101CF000C1CF6CE070E080E090E00E947E017C014A
:101D000090932B0D80932A0D4090D40D5090D50DBB
:101D10006090D60D7090D70D20E030E04FE753E48F
:101D2000C301B2010E94FD3518160CF4F7C34092AE
:101D3000E40D5092E50D6092E60D7092E70D20E003
:101D400030E0A9016091E40D7091E50D8091E60D00
:101D50009091E70D0E94203787FF08C01092E40D94
:101D60001092E50D1092E60D1092E70D4091E40DF2
:101D70005091E50D6091E60D7091E70DC7010E944D
:101D800047012091A80D3091A90D4091AA0D5091C5
:101D9000AB0D6091BC027091BD028091BE0290912A
:101DA000BF020E945A372B013C0180915C0D90913B
:101DB0005D0DA0915E0DB0915F0D8093D80D909355
:101DC000D90DA093DA0DB093DB0D8091600D909149
:101DD000610DA091620DB091630D8093DC0D909325
:101DE000DD0DA093DE0DB093DF0D8091640D909119
:101DF000650DA091660DB091670D8093E00D9093F5
:101E0000E10DA093E20DB093E30DC090F802D090E5
:101E1000F902E090FA02F090FB02A70196016091AE
:101E2000170D7091180D8091190D90911A0D0E9447
:101E3000FD35882341F0C092170DD092180DE09225
:101E4000190DF0921A0D8091160D81111092160D38
:101E500060E07EE080911B0D0E94D504C090FC02E2
:101E6000D090FD02E090FE02F090FF02A7019601E3
:101E700060910B0D70910C0D80910D0D90910E0DD8
:101E80000E94FD35882341F0C0920B0DD0920C0DBD
:101E9000E0920D0DF0920E0D80910A0D81111092BD
:101EA0000A0D6CEF7DE080910F0D0E94D5048091AA
:101EB000000E9091010EA091020EB091030E80933E
:101EC000F40D9093F50DA093F60DB093F70D40919E
:101ED000FC0D5091FD0D6091FE0D7091FF0D409332
:101EE000F80D5093F90D6093FA0D7093FB0D40912E
:101EF00068035091690360916A0370916B03498391
:101F00005A836B837C838D839E83AF83B88782E003
:101F1000E82EF12C0CEE1DE021E030E0AE014B5F2D
:101F20005F4F61E070E0CE0101960E94870688E075
:101F3000F801A8E9BDE001900D928A95E1F788E0EB
:101F4000F801A8EBBDE001900D928A95E1F722E03F
:101F500030E048E85DE068E67DE0C8016CD980913A
:101F6000F80D9091F90DA091FA0DB091FB0D8D83B4
:101F70009E83AF83B88721E030E0AE014B5F5F4FB7
:101F800061E070E0CE0101960E94870688E0F801CA
:101F9000A0EABDE001900D928A95E1F788E0F80192
:101FA000A0ECBDE001900D928A95E1F722E030E0CF
:101FB00040E95DE060E77DE0C8013DD950E040E0E8
:101FC00062E070E088E89DE09BD920E030E048E4E2
:101FD0005DE20E945A3720915003309151034091A5
:101FE0005203509153030E945A376B017C01C092F7
:101FF000E40DD092E50DE092E60DF092E70D50E091
:1020000040E062E070E080E99DE07AD920E030E0D5
:1020100048E45DE20E945A372091580330915903F9
:1020200040915A0350915B030E945A37A7019601D1
:102030000E9499356D877E878F87988B6093B00D4E
:102040007093B10D8093B20D9093B30D50E040E0CA
:1020500062E070E088E89DE053D920E030E048E499
:102060005DE20E945A37209154033091550340910C
:102070005603509157030E945A376B017C01C0925E
:10208000E40DD092E50DE092E60DF092E70D50E000
:1020900040E062E070E080E99DE032D920E030E08D
:1020A00048E45DE20E945A3720915C0330915D0361
:1020B00040915E0350915F030E945A37A701960139
:1020C0000E949935698B7A8B8B8B9C8B6093B40DB6
:1020D0007093B50D8093B60D9093B70DC090E00D41
:1020E000D090E10DE090E20DF090E30DC701B60154
:1020F0000E9401366D8B7E8B8F8B988FC701B60146
:102100000E94BD37698F7A8F8B8F9C8F2091180327
:102110003091190340911A0350911B03C501B4017A
:102120000E945A3720914C0D30914D0D40914E0D2B
:1021300050914F0D0E94993560934C0D70934D0D49
:1021400080934E0D90934F0D20911C0330911D03F1
:1021500040911E0350911F036D8D7E8D8F8D98A130
:102160000E945A372091500D3091510D4091520DDF
:102170005091530D0E9499356093500D7093510DFD
:102180008093520D9093530D209134033091350379
:10219000409136035091370369857A858B859C85FC
:1021A0000E945A372091540D3091550D4091560D93
:1021B0005091570D0E9499356093540D7093550DB1
:1021C0008093560D9093570D209138033091390329
:1021D00040913A0350913B03C301B2010E945A3728
:1021E0002091580D3091590D40915A0D50915B0D31
:1021F0000E9499356093580D7093590D80935A0D34
:1022000090935B0D80905C0D90905D0DA0905E0DA5
:10221000B0905F0D8092E80D9092E90DA092EA0DCA
:10222000B092EB0D4090600D5090610D6090620D8A
:102230007090630D8091640D9091650DA091660D75
:10224000B091670D89879A87AB87BC87C090600380
:10225000D0906103E0906203F09063032D893E8982
:102260004F89588D6D857E858F8598890E945A3754
:10227000A70196010E945A37A50194010E94993541
:1022800060935C0D70935D0D80935E0D90935F0D78
:10229000298D3A8D4B8D5C8D6D857E858F859889D6
:1022A0000E945A37A70196010E945A37A301920152
:1022B0000E9499356093600D7093610D8093620D5B
:1022C0009093630DA701960169897A898B899C890E
:1022D0000E945A3729853A854B855C850E9499353D
:1022E0006093640D7093650D8093660D9093670DF8
:1022F00088E0E8EBFDE0A8E6BDE001900D928A954C
:10230000E1F788E0E0ECFDE0A0E7BDE001900D9290
:102310008A95E1F7609140057091410580914205F1
:10232000909143050E94353620E030E040E85FE4BC
:102330000E945A376B017C0160913C0570913D050C
:1023400080913E0590913F050E9435369B01AC017E
:10235000C701B6010E94993520E030E0A9010E9432
:1023600099350E940936AB01BC0190E080E00E94E3
:10237000F60560914C0570914D0580914E05909148
:102380004F050E94353620E030E040E85FE40E94CF
:102390005A376B017C016091480570914905809125
:1023A0004A0590914B050E9435369B01AC01C7014F
:1023B000B6010E94993520E030E0A9010E949935CC
:1023C0000E940936AB01BC0181E090E00E94F60555
:1023D000C0903C05D0903D05E0903E05F0903F0553
:1023E0009FEFC91AD90AE90AF90AC0923C05D092AE
:1023F0003D05E0923E05F0923F05C114D104E10491
:10240000F10499F48091400590914105A091420515
:10241000B09143050196A11DB11D80934005909395
:102420004105A0934205B093430540904405509068
:1024300045056090460570904705209057053090FF
:102440005805609140057091410580914205909139
:1024500043050E943536A30192010E945A3720E0BD
:1024600030E040E85FE40E945A374B015C01C7014D
:10247000B6010E943536A30192010E945A379B0192
:10248000AC01C501B4010E949935D1016D937D93D2
:102490008D939C9313978091480590914905A09145
:1024A0004A05B0914B050196A11DB11D80934805C9
:1024B00090934905A0934A05B0934B05892B8A2B2D
:1024C0008B2B99F480914C0590914D05A0914E0570
:1024D000B0914F050196A11DB11D80934C059093BD
:1024E0004D05A0934E05B0934F05A0960FB6F894F6
:1024F000DEBF0FBECDBFDF91CF911F910F91FF9037
:10250000EF90DF90CF90BF90AF909F908F907F9093
:102510006F905F904F903F902F90089580E090E0F3
:10252000AFE7B3E48093E40D9093E50DA093E60D3F
:10253000B093E70D04CC4F925F926F927F92AF926F
:10254000BF92DF92EF92FF920F931F93CF93DF938F
:1025500084E090E007D380910E0E90910F0EA09131
:10256000100EB091110E20EBA22E22E0B22EF5013A
:1025700080AF91AFA2AFB3AF84AF95AFA6AFB7AF07
:10258000E2EAF4E08FEBDF011D928A95E9F784E53A
:1025900095E097838683C7E5D5E0D093E304C093A5
:1025A000E20404E415E0158B048BF0930D05E09331
:1025B0000C05F583E48321E030E0DC012D933C93AE
:1025C00085EA93E09387828729E535E0398328837C
:1025D00040E050E060E272E44093500550935105B2
:1025E00060935205709353054AE057ED63E27CE334
:1025F000D8014D935D936D937C931397CAE2D5E018
:102600008BED93E4A9E8BDE788839983AA83BB8314
:1026100083EB90ECA1E9B5E980932E0590932F050B
:10262000A0933005B09331058DEA9FE0A0E4BFE8A8
:102630008093320590933305A0933405B09335050C
:1026400089EE96EAA8E9BCED8093360590933705AC
:10265000A0933805B0933905A6E9B4E0B383A2830B
:10266000E4E8F4E01196FC93EE9387EB93E091831A
:1026700080839383828395838483978386839187E2
:102680008087938782879587848797878687918BB2
:10269000808B8AE395E015969C938E9314971396FE
:1026A000DC93CE93129717963C932E931697E8E8F7
:1026B000FDE08EE7DF011D928A95E9F7C4E0DDE0D9
:1026C00084E8FE0111928A95E9F788E592E09093FB
:1026D000790D8093780D80E092E090937B0D80934C
:1026E0007A0DDD24D394D092860D412C512C3201E9
:1026F000439449A65AA66BA67CA6E12CF12C87012F
:10270000A801970169E070E080E090E00E94C201BA
:102710009FA78EA7DDA618AED092840D49AE5AAE03
:102720006BAE7CAE61E088E00E946103DDAE18AA6A
:10273000D092870D49AA5AAA6BAA7CAAA801970130
:102740006AE070E080E090E00E94C2019FAB8EAB37
:10275000DDAA1092440DD092850D4092450D509205
:10276000460D6092470D7092480D61E08DE00E9429
:102770006103D092490D188ED092820D498E5A8EE7
:102780006B8E7C8EA80197016BE070E080E090E09A
:102790000E94C2019F8F8E8FDD8E18A2D092830D72
:1027A00049A25AA26BA27CA2A80197016CE070E03A
:1027B00080E090E00E94C2019FA38EA3DDA21F8A49
:1027C0001C86D092810D8091F8029091F902A0911F
:1027D000FA02B091FB028B8B9C8BAD8BBE8B4D862E
:1027E0005E866F86788A4BE15DE063E082E00E945E
:1027F000CC03D98A1A8A1B861882D092800D8091C8
:10280000FC029091FD02A091FE02B091FF028F8325
:102810009887A987BA8749825A826B827C824FE067
:102820005DE063E182E10E94CC03DD821E82F5015E
:1028300080899189A289B38980934C0D90934D0D25
:10284000A0934E0DB0934F0D808D918DA28DB38DC1
:102850008093500D9093510DA093520DB093530D52
:1028600084899589A689B7898093540D9093550DD5
:10287000A093560DB093570D848D958DA68DB78D71
:102880008093580D9093590DA0935A0DB0935B0D02
:102890008091640390916503A0916603B0916703F2
:1028A00080935C0D90935D0DA0935E0DB0935F0DD2
:1028B0008093600D9093610DA093620DB093630DB2
:1028C0008093640D9093650DA093660DB093670D92
:1028D00088E0E0EFF2E0A8E6BDE001900D928A9575
:1028E000E1F788E0E0EFF2E0A0E7BDE001900D92B3
:1028F0008A95E1F78F890E94E7048B85DF91CF915C
:102900001F910F91FF90EF90DF90BF90AF907F905D
:102910006F905F904F900C94E70480912C0D811183
:102920002EC081E080932C0D80912D0D90912E0D65
:10293000A0912F0DB091300D0197A105B105F9F4CB
:102940008091310D8823D9F069E070E080E090E05B
:102950000E947E019093330D8093320D40E050E051
:10296000BA010E94470169E070E080E090E00E94B7
:102970007E019093330D8093320D0E94130280915B
:102980003C0D811103C081E080933C0D8091340D9A
:1029900081112EC081E08093340D8091350D90918E
:1029A000360DA091370DB091380D0197A105B105F5
:1029B000F9F48091390D8823D9F06AE070E080E065
:1029C00090E00E947E0190933B0D80933A0D40E091
:1029D00050E0BA010E9447016AE070E080E090E0B8
:1029E0000E947E0190933B0D80933A0D0E9413024A
:1029F0008091440D811103C081E08093440D80914A
:102A00001C0D81112EC081E080931C0D80911D0D45
:102A100090911E0DA0911F0DB091200D0197A10561
:102A2000B105F9F48091210D8823D9F06BE070E0B5
:102A300080E090E00E947E019093230D8093220D10
:102A400040E050E0BA010E9447016BE070E080E096
:102A500090E00E947E019093230D8093220D0E94AE
:102A600013028091240D81112EC081E08093240DEA
:102A70008091250D9091260DA091270DB091280DE4
:102A80000197A105B105F9F48091290D8823D9F0AA
:102A90006CE070E080E090E00E947E0190932B0D4E
:102AA00080932A0D40E050E0BA010E9447016CE09B
:102AB00070E080E090E00E947E0190932B0D809367
:102AC0002A0D0E9413028091100D811114C081E023
:102AD0008093100D8091110D9091120DA091130D06
:102AE000B091140D0197A105B10529F48091150D40
:102AF00081110E94F4048091040D811114C081E0C1
:102B00008093040D8091050D9091060DA091070D05
:102B1000B091080D0197A105B10529F48091090D27
:102B200081110C94F404089560E070E080E89FE760
:102B3000089560E070E080E89FE7089560E070E04D
:102B400080E89FEF089560E070E080E89FEF0895CF
:102B500060E070E080EC9FEF089560E070E080EC52
:102B60009FEF0895F5DF6093120E7093130E80931C
:102B7000140E9093150EF1DF6093060E7093070EFE
:102B80008093080E9093090ECFDF60930E0E709322
:102B90000F0E8093100E9093110ECBDF60930A0EF0
:102BA00070930B0E80930C0E90930D0EC7DF609305
:102BB000160E7093170E8093180E9093190EC3DFA4
:102BC00060931A0E70931B0E80931C0E90931D0E33
:102BD00008954F925F926F927F928F929F92AF92E1
:102BE000BF92CF92DF92EF92FF920F931F93F894D0
:102BF00040906D0550906E0560906F057090700567
:102C0000C0906105D0906205E0906305F090640586
:102C10004130510509F0A4C09B01AC0124193509CC
:102C20004609570929013A010091690510916A0581
:102C300020916B0530916C0548015901840C951C5D
:102C4000A61CB71C80169106A206B306A0F400913C
:102C500065051091660520916705309168050F5F45
:102C60001F4F2F4F3F4F009365051093660520932C
:102C70006705309368058092690590926A05A09275
:102C80006B05B0926C050091650510916605209169
:102C90006705309168058092710590927205A09247
:102CA0007305B09274050093750510937605209313
:102CB00077053093780560936D0570936E0580936A
:102CC0006F0590937005A0E1B7E2A30192010E9405
:102CD00059406C0D7D1D8E1D9F1D60936105709385
:102CE0006205809363059093640500916C031091D5
:102CF0006D0320916E0330916F030F3F1F4F2F4FD5
:102D00003F4FF1F000916C0310916D0320916E0321
:102D100030916F030E3F1F4F2F4F3F4F89F0C090F0
:102D20006C03D0906D03E0906E03F0906F0321E090
:102D30008C149D04AE04BF0408F420E020937D05AC
:102D400078941F910F91FF90EF90DF90CF90BF90FC
:102D5000AF909F908F907F906F905F904F9008956D
:102D60004B015C0184189508A608B708A3019201DD
:102D7000261B370B480B590B6415750586059705FF
:102D8000D0F082169306A406B50640F420E030E0A9
:102D9000A90181149104A104B10491F4A0E1B7E266
:102DA0000E945940A7019601261B370B480B590B6F
:102DB000CA01B901C5CF82169306A406B50670F7FD
:102DC000A0E1B7E2A50194010E9459406C0D7D1D60
:102DD0008E1D9F1DB5CFFDCECF93DF9300D01F92E8
:102DE000CDB7DEB71C821B821A8219821092790538
:102DF00010927A0510927B0510927C05BE016F5FE0
:102E00007F4FCE0103960E94E93369817A818B81DD
:102E10009C810E94D72C009761F4BE016F5F7F4FA9
:102E2000CE0103960E94F53369817A818B819C8162
:102E30002FD50F900F900F900F90DF91CF910895A5
:102E4000FF920F931F93CF93DF93082F60E070E002
:102E5000CB010E94493AFF24F3940E94C02BEC015D
:102E6000892B89F010E0CE3F8FEFD80769F000235F
:102E700061F160E070E0CB010E94493A81E090E0AE
:102E8000892B59F322C011E026D5EC01892B21F0C2
:102E9000CE3F8FEFD80759F711111EC011E02296CF
:102EA00009F410E00E94702BEC01892B21F0CE3F39
:102EB0008FEFD807E1F6111111C011E0CE3F8FEF6F
:102EC000D80709F410E001110BC0CE01DF91CF91BA
:102ED0001F910F91FF90089511E0E4CF11E0F3CF1F
:102EE00060E070E0CB010E94493A1F25812F90E0FD
:102EF000C7CFCF93DF9380917D05882321F060E0D9
:102F000070E0CB014DD636D6D0E0C0E0892B71F011
:102F10006AE070E080E090E00E94493A81E090DF52
:102F200029D62196C03D27E0D20781F728D60E94F6
:102F30002B2D109295051092940510928E051092EB
:102F40008F05109290051092910510928A051092AB
:102F50008B0510928C0510928D05109286051092AB
:102F600087051092880510928905109282051092AB
:102F70008305109284051092850510927E051092AB
:102F80007F0510928005109281054EEF5FEF6FEF85
:102F90007FEF40936C0350936D0360936E037093C7
:102FA0006F0310927D05E1E7F5E028E0DF011D9257
:102FB0002A95E9F710926D0510926E0510926F0533
:102FC000109270051092690510926A0510926B05B7
:102FD00010926C05109265051092660510926705B7
:102FE00010926805109261051092620510926305B7
:102FF00010926405DF91CF9108951092A10510926F
:10300000A2051092A3051092A4051092A00580912C
:10301000A9059091AA0590939F0580939E05109213
:103020009D0510929C05109298051092990510929A
:103030009A0510929B051092A6051092A50590E0A6
:1030400080E00895CF92DF92EF92FF920F931F934B
:10305000CF938C01019709F055C02091A9053091BB
:10306000AA0580919E0590919F054091A9055091D8
:10307000AA0550939F0540939E052817390781F0B4
:1030800010929D0510929C0510929805109299053A
:1030900010929A0510929B051092A6051092A50514
:1030A0008091A9059091AA05019761F58091A505E8
:1030B0009091A605892B21F480917003811112C093
:1030C0008091A5059091A6050197E1F4809198055E
:1030D00090919905A0919A05B0919B050197A10542
:1030E000B10581F4109298051092990510929A05F5
:1030F00010929B051092700382E090E09093A605D9
:103100008093A5058091A9059091AA05019709F0E2
:103110001CC18091BF059091C0058017910709F0EF
:1031200014C18091BB059091BC05A091BD05B091E3
:10313000BE05009709F409C12091BA0521110DC0FF
:103140004091BB055091BC056091BD057091BE05D5
:10315000452B462B472B09F4F8C02091A50530914B
:10316000A6052230310509F0F0C020919C052111FF
:10317000ECC0FC01C080D180E280F3808091A0058A
:10318000882309F4D3C08091AC059091AD05892BBB
:1031900009F4FEC02091AC053091AD0581E02230EC
:1031A000310509F080E02091AC053091AD05C1E01A
:1031B0002130310549F02091AC053091AD05C1E0D9
:1031C0002230310509F0C0E0882309F456C020916F
:1031D000B6053091B7054091B8055091B905C701C2
:1031E000B6010E94203787FD14C02091B6053091AA
:1031F000B7054091B8055091B9056091A10570914E
:10320000A2058091A3059091A4050E94FD3587FD3C
:1032100022C02091B6053091B7054091B805509174
:10322000B905C701B6010E942037181634F5209160
:10323000B6053091B7054091B8055091B905609138
:10324000A1057091A2058091A3059091A4050E940B
:10325000FD35811112C08091AE059091AF05A0910E
:10326000B005B091B105892B8A2B8B2B19F481E025
:1032700080939D0581E080939C05CC2309F456C082
:103280002091B6053091B7054091B8055091B90528
:10329000C701B6010E94FD3587FF14C02091B60515
:1032A0003091B7054091B8055091B9056091A105DD
:1032B0007091A2058091A3059091A4050E942037EA
:1032C00087FF22C02091B6053091B7054091B8051F
:1032D0005091B905C701B6010E94FD35811126C084
:1032E0002091B6053091B7054091B8055091B905C8
:1032F0006091A1057091A2058091A3059091A4050C
:103300000E942037181694F48091AE059091AF0575
:10331000A091B005B091B105892B8A2B8B2B19F4A4
:1033200081E080939D0581E080939C0581E09091F0
:103330009C05911180E08093A005C092A105D092D8
:10334000A205E092A305F092A4050130110509F051
:1033500067C18091A5059091A605892BD9F410929B
:10336000AB0510929C0580917003882379F082E070
:1033700090E09093A6058093A5051092700320918C
:10338000A9053091AA0581E0232BE9F080E01BC05C
:1033900081E009CF109270038091AB05882349F03A
:1033A00010929D051092A6051092A5051092AB05EE
:1033B000EDCF8091A9059091AA05892BE1F080912C
:1033C0009C0510929C052091A5053091A605223000
:1033D000310509F45EC088F42115310509F448C0AF
:1033E0002130310509F4F3C010929D0510929C051F
:1033F0001092AB0538C081E0E6CF2330310509F4E7
:10340000B1C02430310581F740919805509199055C
:1034100060919A0570919B054115510561057105F3
:1034200061F0415051096109710940939805509329
:10343000990560939A0570939B054091980550916A
:10344000990560919A0570919B05452B462B472B5A
:10345000D9F42091A7053091A8052130310509F054
:1034600046C010929D051092A6051092A5050CC0AD
:1034700080917003882341F082E090E09093A6054C
:103480008093A505109270031092960580919D057A
:10349000CEC08823C9F38091AE059091AF05A0916D
:1034A000B005B091B105181619061A061B060CF0E6
:1034B0007DC08091A9059091AA05019709F076C079
:1034C0008091AE059091AF05A091B005B091B10586
:1034D0008093980590939905A0939A05B0939B05C6
:1034E00083E090E09093A6058093A505CDCF409111
:1034F000B2055091B3056091B4057091B505452BA7
:10350000462B472BA9F010929D058091B205909112
:10351000B305A091B405B091B5058093980590933B
:103520009905A0939A05B0939B0581E090E0DACFCE
:10353000882399F08091710390917203A091730395
:10354000B09174038093980590939905A0939A0580
:10355000B0939B0584E090E0C5CF10929D0582E07A
:1035600090E0C0CF8091980590919905A0919A051F
:10357000B0919B050097A105B10559F00197A109EC
:10358000B1098093980590939905A0939A05B093FB
:103590009B058091980590919905A0919A05B0910D
:1035A0009B05892B8A2B8B2B09F06ECF80917103A1
:1035B00090917203A0917303B0917403892B8A2BAD
:1035C0008B2B09F44ECF81E080939D05B3CF4091C2
:1035D00098055091990560919A0570919B05411548
:1035E00051056105710561F0415051096109710989
:1035F000409398055093990560939A0570939B05A5
:10360000409198055091990560919A0570919B059C
:10361000452B462B472B09F037CF8111C7CF9FCFC2
:1036200080919605882309F431CF80919705CF9139
:103630001F910F91FF90EF90DF90CF90089510921F
:10364000A1051092A2051092A3051092A405109254
:10365000A0051092A6051092A50510929F05109244
:103660009E051092C0051092BF0510929D05109204
:103670009C05109298051092990510929A05109247
:103680009B0510929705109296051092BB0510921B
:10369000BC051092BD051092BE051092BA0510929D
:1036A000B6051092B7051092B8051092B90588EECC
:1036B00093E0A0E0B0E08093710390937203A09335
:1036C0007303B09374031092B2051092B305109275
:1036D000B4051092B5051092AE051092AF05109288
:1036E000B0051092B1051092AD051092AC0581E0C5
:1036F000809370031092AB051092AA051092A90551
:103700001092A8051092A70590E080E0089580919E
:10371000A9059091AA05892B19F58091700388233A
:1037200051F08091AB05811106C081E0809397052F
:103730008093960508952091AB053091700381E048
:1037400090E0332311F090E080E030E08223932377
:10375000892B21F01092970581E0EACF109296050F
:10376000089582E090E0FA01918380838FEF9FEFCC
:103770000895CF93DF93EA01009711F00E944B2E3A
:103780001982188290E080E0DF91CF910895DB01EB
:10379000009719F48FEF8C9308952EEF2C93FC0172
:1037A0003F96EF30F10508F034C08827E552F44E1B
:1037B0008F4F0C945140071C051C031C011CFF1B60
:1037C000FB1BFD1BF91BF71BF51BF21BEE1BEA1B7A
:1037D000F01B091C80E311968C93089589E2FBCFBE
:1037E00082E2F9CF11961C92089583E2F4CF81E230
:1037F000F2CF81E1F0CF87E2EECF8AE2ECCF80E139
:10380000EACF84E2E8CF88E2E6CF86E2E4CF81E344
:10381000E2CF80E2E0CF8091CD059091CE05089572
:103820009093CE058093CD0508958091CC050895A1
:103830009091CC05892B8093CC050895982F909575
:103840008091CC0589238093CC0508958091CB0588
:1038500008958091C9059091CA0508956115710573
:1038600059F0FB0130E020E070E060E024173507FC
:1038700019F06115710511F0CB010895A081B18196
:10388000A817B90709F4BF012F5F3F4F3696EECF57
:103890008091CF0581111CC060D266D29093C20581
:1038A0008093C1050E9449260E945B269093C6051D
:1038B0008093C5050E94D82A0E94DF2A9093C405F0
:1038C0008093C30581E08093CF0590E080E0089568
:1038D00084EF9FEF08958F929F92AF92BF92CF9205
:1038E000DF92EF92FF920F931F93CF93DF9300D05D
:1038F00000D000D01F92CDB7DEB71A861986188681
:103900001F821E821D821C821B821A821982809154
:10391000CF0507EF1FEF882309F49CC08E010D5FD0
:103920001F4F9E012B5F3F4FAE01495F5F4FBE01AE
:10393000675F7F4F90E080E00E945C2C8C010097D5
:1039400021F00596029708F0DBC029853A852115FC
:10395000310509F402C1ED80FE804B815C81B70125
:10396000640F751F8F8198858617970708F4F5C037
:10397000E20EF31ED7019C91903C09F07FC04230CB
:10398000510508F47BC011968C914091CD05509162
:10399000CE05452B09F49CC0913F08F071C02CE185
:1039A000290F2D3008F48BC02DE2290F203108F4A7
:1039B00089C0903C21F48150823008F483C088E3B0
:1039C000890F8B3008F481C097ECC92E9BE1D92E6A
:1039D000E1EBFBE16D817E81AE014F5F5F4F898539
:1039E0009A8519955C01C114D104A1F189809A804E
:1039F0008114910479F18B819C818815990508F4D3
:103A000087C010E000E04B815C8170E060E0C7019E
:103A10000E947B4001151105E9F449815A816985AD
:103A20007A858D819E81680F791FC501F6011995F0
:103A3000E980FA800D811E812F81388549855A855C
:103A40006FEF7FEF81E090E00E94F72B8C01892BD4
:103A500009F056C0C8012A960FB6F894DEBF0FBE13
:103A6000CDBFDF91CF911F910F91FF90EF90DF902D
:103A7000CF90BF90AF909F908F90089580E085CFBA
:103A800030E020E0220F331FF901EF53FA4F01908D
:103A9000F081E02D309709F497CF892F90E01995A8
:103AA000009709F491CFDC011296ED91FC911397E8
:103AB0001496CD90DC90309709F08CCF1FC021E098
:103AC00030E0E0CF22E030E0DDCF23E030E0DACFBD
:103AD000D12CC12CE9EBFBE19F3F09F07BCFE091BA
:103AE000C105F091C205309721F4C90104EF1FEF21
:103AF0000CC08FEF90E019950097A9F604EF1FEF27
:103B000089859A85009709F4A5CF0E944B2EA2CFF4
:103B10000E94262D8C0189859A850E944B2E70E08B
:103B200060E0C4010E94BF2C98878F830E94F42B11
:103B30009E838D836F8178856115710559F0C80169
:103B40000E94D72F9A87898706EF1FEF892B09F0EC
:103B500058CF59CF08EF1FEF56CF08EF1FEFD0CF48
:103B60002091CF05222319F020E00C94602687EFE6
:103B70009FEF08958091CD059091CE0508950E9404
:103B8000E42A0E943E2AF5D0E1ECF5E088E0DF016E
:103B90001D928A95E9F71092CF0590E080E0089594
:103BA0000C949C2821E040E050E0BA010C9460267F
:103BB00086E090E0FA019183808390E080E00895B0
:103BC00047E050E06AEB73E049CEDF92EF92FF925C
:103BD0000F931F93CF93DF938A01EC01C60FD71F7A
:103BE000E090D305F090D405D9800E940E2DD81610
:103BF000190678F082E090E0F801918380838EEFDF
:103C00009FEFDF91CF911F910F91FF90EF90DF9089
:103C10000895EF2841F482E090E0F80191838083D9
:103C200084EF9FEFEECF89818093D20590E00196DB
:103C3000F8019183808390E080E0E3CFCF93DF931E
:103C4000EA010E944D29882321F00E941B2D0E9429
:103C50004E2982E090E0998388838BEF9FEFDF917C
:103C6000CF910895CF93DF93EB0186E0FB01119292
:103C70008A95E9F78FEF8883D8DD8983E7DD8A832A
:103C8000E8DD9D838C83DF91CF910895CF93DF93FF
:103C9000EA010E945029811109C082E090E09983D5
:103CA000888385EF9FEFDF91CF91089590E080E0CA
:103CB000B7DD81E090E09983888390E080E0F3CFE6
:103CC0000F931F93CF93DF93EA018C01060F171F09
:103CD0000E94502981110BC082E090E09983888373
:103CE00085EF9FEFDF91CF911F910F910895F8011C
:103CF0008181823038F082E090E0998388838EEF72
:103D00009FEFF0CF81E090E08BDD88E090E0998339
:103D1000888390E080E0E6CFCF93DF930097D1F4E3
:103D2000EB01FB01329686E0DF011D928A95E9F7EF
:103D30008FEF888385E089831A820E940E2D8B8302
:103D40000E940D2D9D838C8381E08E838F83DF9174
:103D5000CF910895DF91CF911ACD80EE9DE19093A0
:103D6000D1058093D00508958091D0059091D1051B
:103D700008951092D1051092D00508958091D30531
:103D80009091D4050895411105C061157105810513
:103D9000910561F06093D3057093D4058093D505A8
:103DA0009093D6054093D70581E0089580E008956B
:103DB000FF920F931F93CF93DF938A01EC01C60FFD
:103DC000D71FF9800E940E2DF816190668F082E0C0
:103DD00090E0F801918380838EEF9FEFDF91CF9188
:103DE0001F910F91FF9008956C817D818E819F813D
:103DF0004B81C9DF811108C082E090E0F801918316
:103E0000808384EF9FEFEACF89818093D20590E091
:103E10000196F8019183808390E080E0DFCFCF931B
:103E2000DF93EA01FC01E60FF71F6481758186814B
:103E300097814381A8DF811109C082E090E09983D6
:103E4000888384EF9FEFDF91CF91089581E090E028
:103E50009983888390E080E0F6CFE3EDF5E0408140
:103E6000518162817381480F511D611D711D408315
:103E70005183628373830895CF93C091D2054C2FF1
:103E800050E06091D3057091D40501960E94724074
:103E90008C2FE3DF1092D205CF910895009799F40B
:103EA0008091D3059091D4052FEFFB012083892BBE
:103EB00059F02091D20530E02F5F3F4F241735078E
:103EC00019F4CB01D9CF63CC0895009799F4809170
:103ED000D3059091D4052FEFFB012083892B59F056
:103EE0002091D20530E02F5F3F4F2417350719F49A
:103EF000CB01C2CF4CCC089523E1AC01249FC0017B
:103F0000259F900D1124E091DC05F091DD05E80F6F
:103F1000F91F238134812250310981E0223031059B
:103F200008F080E008950F931F93CF93DF930091E3
:103F3000DE051091DF05D0E0C0E080E00C171D0722
:103F400049F491E0811190E0892FDF91CF911F9189
:103F50000F9108958111F5CFCE01CEDF2196EECFDE
:103F6000A091DC05B091DD05109729F12091DE05C7
:103F70003091DF0582179307F0F453E1589F9001C9
:103F8000599F300D1124A20FB31FED91FC91119791
:103F9000309789F012968C91681768F48DE0689FCD
:103FA000E00DF11D112480819181892B21F081E0A8
:103FB0009281491708F080E008959C0143E1429FF7
:103FC000C001439F900D1124E091DC05F091DD05C7
:103FD000E80FF91F8385823091F481E090E06581DC
:103FE000768140917503509176036417750711F43B
:103FF00090E080E0892B19F081E0232B09F080E02C
:104000000895FC01A081B1818DE0689FA00DB11DD4
:10401000112413964D915C9185859685489F90015A
:10402000499F300D589F300D1124C901019661112F
:1040300003C0478144FD04960895EF92FF920F93C9
:104040001F93CF93DF93EA01FC01E60FF71F028174
:104050001381E480F5804F2D6E2DC80181DF811121
:104060000DC082E090E0998388838EEF9FEFDF910F
:10407000CF911F910F91FF90EF900895C8013CDF01
:10408000882339F082E090E09983888388EF9FEF5E
:10409000EECF10937C0300937B03E0927D03F092BC
:1040A0007E0381E090E09983888390E080E0DFCF19
:1040B000CF92DF92EF92FF920F931F93CF93DF93F4
:1040C0007A01EC01C60FD71FC0907B03D0907C0310
:1040D00000917D0310917E03412F602FC60140DFC8
:1040E000811110C082E090E0F701918380838AEF14
:1040F0009FEFDF91CF911F910F91FF90EF90DF9095
:10410000CF900895C601F8DE882341F082E090E068
:10411000F7019183808388EF9FEFEBCF4C815D8126
:104120006E817F819A8189818F3F41F082E090E0AA
:10413000F701918380838EEF9FEFDBCFE3E1EC9D6E
:104140009001ED9D300D1124E091DC05F091DD052D
:10415000E20FF31F0190F081E02D2DE0029FE00DB2
:10416000F11D11240190F081E02D27E0129FE00D58
:10417000F11D1124808391838B8182834383548337
:10418000658376831F5F10937E0381E090E0F701E3
:104190009183808390E080E0ACCFEF92FF920F9309
:1041A0001F93CF93DF937A018C01060F171FC091E5
:1041B000DC05D091DD05209781F021E030E0F801A9
:1041C000828193814091DE055091DF058417950728
:1041D00010F030E020E0232B71F482E090E0F70152
:1041E000918380838EEF9FEFDF91CF911F910F918D
:1041F000FF90EF90089543E1489F9001499F300D53
:104200001124C20FD31F78DE882341F082E090E0B2
:10421000F7019183808388EF9FEFE6CFF801248137
:10422000358120383105C8F687818111D6CF41818B
:10423000842F90E08F7E009741F082E090E0F701BC
:104240009183808386EF9FEFCFCF4F833E832D8373
:10425000268128871986223010F421E0288721E062
:1042600030E0F70131832083BFCF88E090E0FA018E
:104270009183808390E080E00895FB018FEF80833D
:1042800081E181838FEF9FEF9383828380E890E0C9
:1042900095838483168217820895FB018FEF8083B4
:1042A00091E0918382839383848384E3858381E097
:1042B00090E0978386830895DF92EF92FF920F93A9
:1042C0001F93CF93DF93EA01FC01E60FF71F818173
:1042D000813071F082E090E0998388838FEF9FEFC7
:1042E000DF91CF911F910F91FF90EF90DF90089594
:1042F00082819381D4802581E680F7800091DC055E
:104300001091DD050115110539F482E090E09983E3
:1043100088838CEF9FEFE4CF4091DE055091DF055D
:104320008417950738F082E090E0998388838EEFB8
:104330009FEFD6CF892B39F082E090E09983888374
:1043400086EF9FEFCDCF8D2D8D7FB1F72130A1F777
:1043500081E0D11006C091E0E916F10431F080E06F
:1043600004C0E2E0EE16F104D0F3882329F390E0D4
:1043700080E0C2DD882339F082E090E09983888371
:1043800088EF9FEFADCFF801D38681E08487F68672
:10439000E586108A178681E090E09983888390E013
:1043A00080E09ECF4CE050E064EE73E057CA8F92FD
:1043B0009F92BF92CF92DF92EF92FF920F931F9343
:1043C000CF93DF93EA01FC01E60FF71F828193810F
:1043D0000481B580E091DC05F091DD05309791F422
:1043E00082E090E0998388838CEF9FEFDF91CF91FB
:1043F0001F910F91FF90EF90DF90CF90BF909F9013
:104400008F9008952091DE053091DF058217930784
:1044100038F082E090E0998388838EEF9FEFE6CFBB
:1044200023E1289F6001299FD00C1124EC0DFD1D74
:10443000E080F180E114F10499F28281081748F7D5
:104440008DE0089F80011124E00EF11EF7018081AC
:104450009181892B29F6BB20E1F2F7E0BF9E400154
:104460001124C4010E94122EF70191838083E091F0
:10447000DC05F091DD05EC0DFD1D0190F081E02DD6
:10448000E00FF11F80819181009739F482E090E084
:10449000998388838DEF9FEFA9CFA40170E060E03E
:1044A0000E947B408091DC059091DD05C80ED91EED
:1044B000F60180819181080F191FF801B28281E015
:1044C00090E09983888390E080E090CFAF92BF9294
:1044D000CF92DF92FF920F931F93CF93DF93EA0166
:1044E000FC01E60FF71F82819381F4800091DC05C7
:1044F0001091DD050115110581F482E090E09983AA
:1045000088838CEF9FEFDF91CF911F910F91FF90E8
:10451000DF90CF90BF90AF9008952091DE0530914D
:10452000DF058217930738F082E090E09983888353
:104530008EEF9FEFE8CF2FEF2F0D2C3FA8F723E151
:10454000289F6001299FD00C11240C0D1D1DF8011E
:1045500080819181892B89F6FDE0FF9E5001112415
:10456000C5010E94122EF80191838083E091DC0541
:10457000F091DD05EC0DFD1D80819181009739F4EE
:1045800082E090E0998388838DEF9FEFBCCFA501F7
:1045900070E060E00E947B40E091DC05F091DD0579
:1045A000EC0DFD1DF28281E090E09983888390E01C
:1045B00080E0A9CFCF92DF92EF92FF920F931F93EB
:1045C000CF93DF93860F971FFC01028113818091A7
:1045D000DC059091DD05892B81F082E090E0FA0105
:1045E000918380838CEF9FEFDF91CF911F910F918B
:1045F000FF90EF90DF90CF900895C801B0E0A0E069
:104600000197A109B1098F3F9F4FA105B10540F066
:1046100082E090E0FA01918380838EEF9FEFE4CFF8
:104620007A0183E1809F6001819FD00C1124C60133
:104630000E94122EEC01009741F482E090E0F70115
:10464000918380838DEF9FEFCFCFA60170E060E074
:104650000E947B40D093DD05C093DC051093DF05FD
:104660000093DE0590E080E02FEF3FEF41E061E056
:1046700070E08017910741F481E090E0F7019183A9
:10468000808390E080E0B0CF3A8B298B1B864C87EB
:104690007E876D87188A1F8601966396EACFEF9210
:1046A000FF921F93CF93DF93EC0110E0F12CE12CEC
:1046B0006A811617B0F083E0689FB0011124AE0143
:1046C0004F5E5F4FC7010E94772E009721F02FEFBA
:1046D0003FEF3A8B298BDF91CF911F91FF90EF90A5
:1046E0000895612FCE018DDC61E070E00E94BF2C47
:1046F000E816F90608F47C011F5FDACFF8942091E0
:10470000DA053091DB0581E02115310509F080E003
:10471000232B09F0789408952F923F924F925F9245
:104720006F927F928F929F92AF92BF92CF92DF92C1
:10473000EF92FF920F931F93CF93DF933C01660E8E
:10474000771EF301828193814C01B12CA12CC09181
:10475000DC05D091DD05209769F021E030E0609123
:10476000DE057091DF058617970710F030E020E036
:10477000232BD1F482E090E0FA01918380838EEFC5
:104780009FEFDF91CF911F910F91FF90EF90DF90FE
:10479000CF90BF90AF909F908F907F906F905F90E1
:1047A0004F903F902F90089580927F0390928003C6
:1047B000A0928103B092820363E1689F9001699F98
:1047C000300D1124C20FD31FF3018181833040F0DB
:1047D00082E090E0FA019183808386EF9FEFD1CF52
:1047E0002A012B813C81232BF1F4288139819F817F
:1047F00091FF2EC0232B09F46FC02091E1059A810F
:10480000422F490F5527551FBA0141E050E061384A
:10481000710514F050E040E0452B09F45DC02A8793
:10482000920F9093E1058150823008F481C066DFD9
:10483000882309F4D8C0F3018181813009F48DC047
:1048400008F47BC0823009F4C6C090E080E0ADC0BF
:10485000232B09F441C02091E0059A81E22FE90F52
:10486000FF27FF1F41E050E0ED3FF10514F050E05D
:1048700040E0452B89F12A87920F9093E005D3CF32
:10488000A081B181A20FB31F11966C91060F111D6B
:104890000196295F3F4F8417950794F38D859E8578
:1048A000089F1001099F300C189F300C1124C1146F
:1048B000D104D1F48F8184FF17C00E940D2DF5E043
:1048C0002F0E311C21E08215930508F420E0A7018A
:1048D000435F5F4F21110EC082E090E0F2019183AF
:1048E000808387EF9FEF4DCF0E940D2D2FEF221A6F
:1048F000320AE8CF88819981E80EF91EF701148306
:104900000383FFEFCF1ADF0A7A018A818C151D0419
:1049100009F00CF48CCFE881F981EE0DFF1D428186
:1049200050E030E020E010E000E090E080E0B3CF25
:10493000F12CE12CD12CC12CE8CF81E090E09C83BC
:104940008B83F1DA882309F480CF81E090E00E9424
:10495000101C80E40E941E1C78CF89899A890196D8
:1049600061F083E090E09C838B8382E090E00E9482
:10497000101C80E40E94181C68CF8D819E812091BC
:1049800075033091760382179307D1F46091790310
:1049900070917A03AE014F5E5F4F809177039091E3
:1049A00078030E94962F0097E1F2789422E030E09D
:1049B000F20131832083892B99F08DEF9FEFE1CEB7
:1049C00089288A288B2869F6029758F6CE0167DE77
:1049D000188A1F86E8CF82E090E09C838B8335CFD6
:1049E00090E080E0CECE82E090E0F201918380837F
:1049F00085EF9FEFC6CE8F929F92AF92BF92CF92DC
:104A0000DF92EF92FF920F931F93CF93DF93EA0110
:104A10008C01060F171FF8018181833098F082E026
:104A200090E09983888386EF9FEFDF91CF911F916C
:104A30000F91FF90EF90DF90CF90BF90AF909F903D
:104A40008F9008958091DC059091DD05892B61F0B0
:104A500081E090E02091DE053091DF05232B11F4F9
:104A600090E080E0892B39F482E090E0998388839C
:104A70008EEF9FEFDACF42DE882309F4E0C0F80121
:104A80008181813009F496C0E8F0823099F4209158
:104A9000DE053091DF05E091DC05F091DD0590E069
:104AA00080E041E050E02817390709F0BEC03BDA4A
:104AB000811117C0789481E090E09983888390E019
:104AC00080E0B3CF2091DE053091DF05E091DC0579
:104AD000F091DD0590E080E041E050E028173907D3
:104AE00041F481E090E00E94101C80E40E941E1CB2
:104AF000E1CF63817481672B11F054834383019666
:104B00007396ECCFE091DC05F091DD05E00FF11F2D
:104B10002381348122303105D9F4218932892F3F14
:104B20003F4FB1F425813681409175035091760352
:104B30002417350761F5AF014F5E5F4F6091790330
:104B400070917A0380917703909178030E94962F59
:104B5000EFEFCE1ADE0AEE0AFE0A0D5E1F4F4091FD
:104B6000DE055091DF0570E060E0C416D506E6066C
:104B7000F70644F5009731F27894892B09F49BCF1E
:104B800082E090E0998388838DEF9FEF4ECFC11430
:104B9000D104E104F104E1F622303105C8F6CF0179
:104BA0007EDDE091DC05F091DD05E00FF11F108A5C
:104BB0001786CECF10E000E090E080E0C12CD12C31
:104BC0007601CDCF0097C1F610E000E0812C912C4A
:104BD000540183E0E82EF12C1AC0E091DC05F0913D
:104BE000DD05E00FF11F83819481029749F4F4827F
:104BF000E38282E090E00E94101C80E40E94181C76
:104C0000FFEF8F1A9F0AAF0ABF0A0D5E1F4F8091F8
:104C1000DE059091DF05B0E0A0E088169906AA06AF
:104C2000BB06DCF290E080E0A7CF63817481623044
:104C3000710511F4548343830196739634CF82E057
:104C400090E09983888385EF9FEFEFCE0097B9F4CA
:104C50008FEFFB01808320917F033091800343E13C
:104C6000429FC001439F900D1124E091DC05F0911B
:104C7000DD05E80FF91F8285FB01818308950C94FF
:104C8000C71B88E090E0FA019183808390E080E088
:104C900008951092DB051092DA05ECEDF5E086E060
:104CA000DF011D928A95E9F782ED91E29093D90593
:104CB0008093D80508958091D8059091D9050895DD
:104CC0002F923F924F925F926F927F928F929F921C
:104CD000AF92BF92CF92DF92EF92FF920F931F930A
:104CE000CF93DF93CDB7DEB72F970FB6F894DEBF23
:104CF0000FBECDBFF894E091DA05F091DB05319657
:104D0000F093DB05E093DA0578944090DC05509051
:104D1000DD054114510409F40CC2E091DE05F09167
:104D2000DF05EF2B09F405C22D8749875A876B876A
:104D30007C8798878F831201B12CA12C10E000E0B2
:104D40008091DE059091DF05A816B90618F40115CB
:104D5000110529F1F8948091DA059091DB0501970E
:104D60009093DB058093DA057894C8012F960FB6EF
:104D7000F894DEBF0FBECDBFDF91CF911F910F9191
:104D8000FF90EF90DF90CF90BF90AF909F908F906B
:104D90007F906F905F904F903F902F90089571019A
:104DA000E418F508D10117968C91179781FD54C02E
:104DB00013968D919C911497039709F04DC0159609
:104DC0008D919C91EF81F8858E179F0709F044C063
:104DD000B50190E080E07FD48A832091DC0530919A
:104DE000DD053D832C833D85332309F44CC04C8184
:104DF0005D81452B09F49AC18091DE059091DF0514
:104E0000A816B90608F092C1C501D7D88823E9F0E1
:104E10006C817D816E0D7F1D7D836C83DB011F9610
:104E20008D919C91892B89F0D12CC12CF12CE12CF6
:104E3000AC81BD8112968C9112978E151F0409F0DA
:104E400094F450961C921E921F972A81222321F0DF
:104E5000B50190E080E041D43FEFA31AB30A43E1EB
:104E6000240E311C6DCFAC81BD81ED91FC91EC0D18
:104E7000FD1D858196810FD7BFEFEB1AFB0AEDE090
:104E8000CE0ED11CD5CFEC81FD81309709F44EC1F7
:104E90008091DE059091DF05A816B90608F046C19D
:104EA000EE0DFF1DFF87EE87C50187D88B83882312
:104EB00039F1AE85BF851F968D919C9150970196D3
:104EC00021E01D964D915C918417950709F020E033
:104ED0002E831982712C10E000E0AE85BF851296FA
:104EE0008C91781608F45DC0EE85FF8587859089E2
:104EF0000196658576850E941B40908B8787A5CF9C
:104F0000B1E0BE83E6CF992493946BC08BD6F601B3
:104F10009683858382C0D601ED90FC90B7E06B9EAE
:104F2000E00CF11C1124F7016381748180818F3FB3
:104F300061F121E030E002C0220F331F8A95E2F7D1
:104F4000C901092E000CAA0BBB0BFB01408151814A
:104F50006281738184239523A623B72321E0892BC3
:104F60008A2B8B2B09F420E0D4012C93D7011196C6
:104F70008C91F60123853485820F932F911D880E25
:104F8000991E1486138663949BC0418150E0C4012E
:104F90000E947240EBCF998206EF1FEFC5C01982C5
:104FA000C3C0F981F111A0CFEDE07E9E7001112404
:104FB000AE85BF85CD90DC90CE0CDF1C15D49D83D3
:104FC0008C83BB81BB2309F49ECF81E0EE85FF85F6
:104FD00027853089232B09F080E0982E882309F457
:104FE00058C0672D8E859F850CD8D60118969C9346
:104FF0008E93179761E070E0C2D4EE85FF8521891A
:1050000032892F3F320709F481CFBC01C901CFD7C4
:10501000D60116969C938E931597D60115968D9171
:105020009C911697009709F4B6CFEC81FD818E0F05
:105030009F1F1A969C938E931997AE85BF85ED910D
:10504000FC911197EE0EFF1EF70121853285148623
:1050500013861A968C91870DD9018D93711016C005
:10506000EE85FF85878184FF11C049855A856B8550
:105070007C85F9014183528363837483F7018385BF
:1050800094850496A80FB91F14861386F701B2877A
:10509000A187D60115968D919C911697892B09F4BD
:1050A00043C0EE85FF8525813681809175039091FF
:1050B00076032817390779F019968D909C90612C0A
:1050C000D60112968C911297681608F424CF1A967E
:1050D0009C928E921997BE81BB2309F460CF61E048
:1050E00070E0F601878190854AD4D6011796ED903D
:1050F000FC90189715964D915C91E1E0F0E0BA8133
:10510000BB2311F0F0E0E0E00C811D819C01B501B2
:10511000882799278E1B9F0B6AD38C01892B21F03E
:10512000F60185819681B7D57394D7CE0FEF1FEF27
:105130008CCE10E000E00ECE2F923F924F925F9205
:105140006F927F928F929F92AF92BF92CF92DF9297
:10515000EF92FF920F931F93CF93DF938091DC0523
:105160009091DD0510E000E0892BA9F0C7DA0AEF85
:105170001FEF882381F02090DE053090DF05C0917D
:10518000DC05D091DD05D12CC12C10E000E02C1401
:105190003D04A9F47894C801DF91CF911F910F913C
:1051A000FF90EF90DF90CF90BF90AF909F908F9047
:1051B0007F906F905F904F903F902F900895C60121
:1051C0000E94DD1F882309F18B819C810397E9F4FC
:1051D0008F859889892BC9F0B60190E080E07BD259
:1051E00021E030E0882311F030E020E04424552411
:1051F000421A530AB12CA12C912C812C8A8188153A
:10520000190409F038F4188A1F864FEFC41AD40A1B
:105210006396BDCFE881F981EA0DFB1D85819681FA
:10522000892BA1F161E070E087819085A8D33C01D2
:10523000DBD28C01E881F981EA0DFB1D8185928525
:1052400025813681200F311FAC01421B530B9A017F
:1052500047815085421B530B70E060E00E947B4009
:10526000E881F981EA0DFB1DE780F08445815681D4
:105270009301B601C201BBD28C01892B39F0E881C0
:10528000F981EA0DFB1D8581968105D55FEF851AB1
:10529000950A8DE0A80EB11CB1CF30CA789408955C
:1052A0002F923F924F925F926F927F929F92AF9216
:1052B000BF92CF92DF92EF92FF920F931F93CF9303
:1052C000DF9300D000D0CDB7DEB70091DC051091A0
:1052D000DD05992493940115110509F43EC0A090B1
:1052E000DE05B090DF050ADA982E8823B1F110921E
:1052F000DD051092DC051092DF051092DE0510929C
:10530000E0051092E1058FEF9FEFDC0180937F03B2
:1053100090938003A0938103B093820378947FD30A
:105320001E830D83C12CD12C7601C501B0E0A0E015
:1053300089839A83AB83BC8322242A94322C89816B
:105340009A81AB81BC81C816D906EA06FB06F4F047
:10535000C801A1D480E40E941E1C892D26960FB698
:10536000F894DEBF0FBECDBFDF91CF911F910F919B
:10537000FF90EF90DF90CF90BF90AF909F907F9085
:105380006F905F904F903F902F900895AD81BE81B8
:1053900015968D919C911697209175033091760307
:1053A00082179307D1F451968D919C91EED5ED81A2
:1053B000FE8180819181B12CA12C412C512C320194
:1053C000892B89F5BFEFCB1ADB0AEB0AFB0AED81CB
:1053D000FE817396FE83ED83B2CFC114D104E10444
:1053E000F10429F7029718F7ED81FE8181899289EE
:1053F0008F3F980709F029D5AD81BE8152963C9226
:105400002E925197D4CF8A0D9B1DDC018D919C91DA
:10541000009709F040D4BFEF4B1A5B0A6B0A7B0A76
:10542000EDE0AE0EB11CAD81BE818D919C911197C6
:1054300012964C9150E070E060E044165506660606
:1054400077060CF328D4BECFCF93DF93EA0128DF91
:10545000811109C082E090E09983888385EF9FEFF6
:10546000DF91CF91089581E090E00E94101C81E0CF
:1054700090E09983888390E080E0F2CF11DF109272
:10548000D9051092D805089542E050E06CE274E02E
:105490000C942E1CFF920F931F93CF93DF938A01DE
:1054A000EC01C60FD71FF980B9D20897F816190674
:1054B00071F068F082E090E0F801918380838EEFD4
:1054C0009FEFDF91CF911F910F91FF9008956C8115
:1054D0007D818E819F814B810E94C31E811108C0F6
:1054E00082E090E0F8019183808384EF9FEFE9CF21
:1054F000F9800E94BE1E4F2D50E0BE01685F7F4FB5
:105500000E94724089810E942D1F81E090E0F80185
:105510009183808390E080E0D4CFDF92EF92FF927E
:105520000F931F93CF93DF938A01EC01C60FD71F10
:105530000E94BE1E7C01D98071D2DD2059F00297F5
:1055400021E030E0D816190619F010F030E020E024
:10555000232B79F482E090E0F801918380838EEF31
:105560009FEFDF91CF911F910F91FF90EF90DF9010
:105570000895EF2841F482E090E0F8019183808360
:1055800084EF9FEFEECFF9800E94BE1E4F2D50E0BA
:10559000BE016E5F7F4F0E94724089810E942D1F65
:1055A00081E090E0F8019183808390E080E0D9CFA2
:1055B00084E49AE29093E3058093E2050895809154
:1055C000E2059091E30508950895FC01118210828F
:1055D000938382830895DB011D921C92DC01129655
:1055E000ED91FC9113977183608313967C936E9376
:1055F00012970895FC0180819181DB018D939C932A
:10560000A081B181109741F08D919C91918380830D
:10561000892B11F4F383E2830895FC018081918149
:10562000DB018D939C93892B11F4738362837183C7
:1056300060830895FC011182108293838283089510
:10564000CF93DF931F921F92CDB7DEB71A821982D4
:10565000F894BE016F5F7F4F89EE95E0CBDF8981C3
:105660009A81009709F017D389819A81892B89F74C
:10567000BE016F5F7F4F8DEE95E0BCDF89819A811F
:10568000009709F008D389819A81892B89F778944A
:105690000F900F90DF91CF910895CF93DF931F92DA
:1056A0001F92CDB7DEB71A821982F894BE016F5FE0
:1056B0007F4F85EE95E09EDF89819A81009709F002
:1056C000EAD289819A81892B89F778940F900F907B
:1056D000DF91CF91089581E0089590E080E00895F2
:1056E000EF92FF920F931F93CF93DF931F921F921E
:1056F000CDB7DEB71A8219828091E40507EF1FEF5C
:105700008823A1F1F894BE016F5F7F4F8DEE95E085
:1057100071DF789489819A81EE24E394F12C892BAE
:1057200051F4F894BE016F5F7F4F89EE95E062DF20
:105730007894F12CE12C89819A810EEF1FEF00976C
:10574000A9F0FC014281538164E070E076D68C01BF
:10575000892B61F0F89469817A81C701880F991FBC
:10576000880F991F87519A4F58DF7894C8010F907E
:105770000F90DF91CF911F910F91FF90EF900895BF
:105780000F931F93CF93DF9300D01F92CDB7DEB757
:105790001C821B821A8219828091E40507EF1FEF99
:1057A0008823C1F0AE014D5F5F4F64E070E0CE0131
:1057B0000196B6D68C01892B69F4E981FA818B8137
:1057C0009C8193838283F89469817A8185EE95E048
:1057D00002DF7894C8010F900F900F900F90DF9127
:1057E000CF911F910F910895BBD7049608958F9282
:1057F0009F92AF92BF92CF92DF92EF92FF920F9360
:105800001F93CF93DF931F921F92CDB7DEB71A82FB
:105810001982BC016F5F7F4F6330710598F0AA2435
:10582000AA94BA2CC5010F900F90DF91CF911F91D0
:105830000F91FF90EF90DF90CF90BF90AF909F902F
:105840008F9008954115510551F3480159018A017E
:105850006C01CADF8815990511F7E114F104F9F21A
:105860008E0D9F1DA816B906D0F28091E4058823FD
:10587000F1F0F894B501645071099701AE014F5FE2
:105880005F4FC8010496E1D65C01892B71F48981D0
:105890009A81F80193838283C601880F991F880F2C
:1058A000991FB80187519A4F96DE7894BBCF87EF46
:1058B000A82EBB24BA94B6CFAF92BF92CF92DF92FC
:1058C000EF92FF920F931F93CF93DF931F921F923C
:1058D000CDB7DEB71A821982892B09F047C061154E
:1058E000710509F443C04115510509F43FC0211564
:1058F000310509F43BC001151105C1F18091E405A2
:105900008823B9F179016A015B01F894BE016F5FE8
:105910007F4F85EE95E06EDE789489819A810097BD
:1059200059F1DC0112966D917C91A8010496A6D6DE
:105930008C01E981FA81D501ED93FC9382819381F9
:105940000496F601918380834FDFD7018D939C935A
:10595000C8010F900F90DF91CF911F910F91FF9091
:10596000EF90DF90CF90BF90AF9008950FEF1FEFB3
:10597000EFCF07EF1FEFECCF0EEF1FEFE9CFCF9385
:10598000DF93EC01672B71F4F4D68C179D0760F060
:10599000E7D62496C80FD91FE6D68C0F9D1FDF913E
:1059A000CF910895E3D6F1CF90E080E0F8CF0F9348
:1059B0001F93CF93DF932091E40521112BC08B011E
:1059C000EC0189EE95E001DE8DEE95E0FEDD85EEE1
:1059D00095E0FBDD97D00097C1F4CBD670E060E096
:1059E000CEDF43E853E062E070E081D1009769F4D4
:1059F0008091830390918403CED6B801CE0103D564
:105A0000009719F421E02093E405DF91CF911F91D5
:105A10000F91089584EF9FEFF8CFA8C6AAC6CF9341
:105A2000DF93AAD6EC01892B11F40ADE36DECE0113
:105A3000DF91CF910895CF93DF939ED6EC01892B10
:105A400009F4FEDDCE01DF91CF91089580918303AB
:105A5000909184030895CF93DF938091E405D0E083
:105A6000C0E08823D1F09CD6EC01892BB1F4E8DDAD
:105A700014DE8091830390918403E7D1E8D2EC0196
:105A8000892B59F489EE95E0D5DD8DEE95E0D2DDD8
:105A900085EE95E0CFDD1092E405CE01DF91CF9148
:105AA0000895EF92FF920F931F93CF93DF93EC0132
:105AB0007A018B010F5F1F4F0E9DA0010F9D500DAE
:105AC0001E9D500D112470E060E00E947B4090E02C
:105AD00080E0F0E0E0E02FEFE816F90639F4DF911E
