:100000002CC100000C946D350C9498350C94C335BC
:100010000C94EE350C9419360C9444360C946F36CF
:100020000C949A364BC1000049C1000047C1000042
:1000300045C1000043C1000041C100003FC10000B4
:100040003DC100003BC1000039C1000037C10000C4
:1000500035C1000033C1000031C100000C94C53629
:100060002DC100000C94A53A0C94DB3A27C1000086
:1000700025C1000023C1000021C100001FC10000F4
:100080001DC100001BC1000019C1000017C1000004
:100090000C94313B0C94673B11C100000C940E276B
:1000A0000DC100000BC1000009C1000007C1000024
:1000B00005C1000003C1000001C10000FFC0000035
:1000C000FDC00000FBC000000C94F62F0C94BD3B5B
:1000D0000C94F33BF3C000000C94493C0C947F3C1F
:1000E000EDC00000084AD73B3BCE016E84BCBFFD8B
:1000F000C12F3D6C74319ABD56833DDA3D00C77FF8
:1001000011BED9E4BB4C3E916BAAAABE0000008090
:100110003F05A84CCDB2D44EB93836A9020C50B91F
:10012000918688083CA6AAAA2ABE000000803F004B
:1001300000000A0B02090C0D0E0807030401000061
:1001400000000000000000000000000000000000AF
:10015000000000000000000000000000121110006C
:10016000000000000000000000000000000000008F
:1001700000000000000001021020200808102040AC
:10018000102040800201020108040201010204085B
:1001900010204080804020100804020180040201E9
:1001A0008040201008040201080402010102040832
:1001B000102040800102040810204080050505053C
:1001C000070508080808020202020A0A08080404CF
:1001D00004040101010101010101030303030303FD
:1001E0000303040707070C0C0C0C0C0C0C0C02028C
:1001F000020206060606060606060B0B0B0B0B0B89
:100200000B0B000020002300260029002C002F00EB
:100210003200000100000301060109010000220074
:10022000250028002B002E003100340002010000C0
:10023000050108010B0100002100240027002A000D
:100240002D003000330001010000040107010A0104
:10025000B52F043B903B1C3CA83C11241FBECFEFA4
:10026000D1E2DEBFCDBF00E00CBF13E0A0E0B2E002
:10027000EEEAFAE700E00BBF02C007900D92AA3841
:10028000B107D9F729E0AAE8B3E001C01D92A13473
:10029000B207E1F711E0CDE2D1E000E006C021971E
:1002A0000109802FFE010E94343DC832D10780E051
:1002B0000807A9F70E949A300C94553DA1CECF9221
:1002C000DF92EF92FF92CF93882351F16A017B0175
:1002D000CFEFC80F20E030E0A901CB01B6010E94AA
:1002E0009A3118168CF0C701B60190580E940E3250
:1002F0009B01AC016C2F70E090E080E0CF91FF900B
:10030000EF90DF90CF90B2C0C701B6010E940932D2
:100310008C2FCF91FF90EF90DF90CF900C94D83737
:10032000CF91FF90EF90DF90CF9008950F931F93A0
:100330008B019C0183E036952795179507958A9543
:10034000D1F706571C4F462F477021E030E0F901E6
:1003500002C0EE0FFF1F4A95E2F7AF01F8012081BE
:100360002423CB010196211102C090E080E01F916F
:100370000F9108950F931F938B019C0183E0369595
:100380002795179507958A95D1F7677081E090E0DA
:1003900001C0880F6A95EAF7F801E657FC4F208103
:1003A000452B31F48095822380831F910F9108950E
:1003B000822BFACF2F923F924F925F926F927F9251
:1003C0008F929F92AF92BF92CF92DF92EF92FF9265
:1003D0000F931F93CF93DF93D62EC72E782E692EBF
:1003E00049015A01280161E08D2D0E941239CD2D5D
:1003F000DC2D8E010F5F1F4FA8016D2D7C2D872DE9
:10040000962DB8DF20E030E0A901C201B7010E94BB
:10041000EB33181664F4C201B7010E940E322B01AF
:10042000C501B4010E940E32A201CE0123D0C80141
:10043000DF91CF911F910F91FF90EF90DF90CF90C0
:10044000BF90AF909F908F907F906F905F904F90F4
:100450003F902F900895882341F08150682F70E0DD
:1004600090E080E050E040E085CF0895862FB9010C
:100470000C94D8379C01FC01E05DFE4FE491E15003
:10048000E231E0F4F0E08827E75BFD4F8F4F0C94FA
:10049000343D5B02620265027C0291025E02A602AA
:1004A000B202B602CD02E202F7020E0323035E029D
:1004B00038034F03640384B5806884BD60E0822FF5
:1004C0000C944E3984B58062F8CF809180008C7F87
:1004D00082608093800080918100807E8061682BA3
:1004E0006093810050938700409386008091800044
:1004F000806880938000E2CF809180008C7F826052
:100500008093800080918100807E8061682B609361
:100510008100509387004093860080918000806224
:10052000E8CF809180008C7F8260809380008091F2
:100530008100807E8061682B6093810050938700EA
:1005400040938600809180008860D3CF8091B00076
:1005500080688093B0008091B100887F682B6093A1
:10056000B100ACCF8091B0008062F3CF8091900059
:100570008C7F82608093900080919100807E80616A
:10058000682B609391005093970040939600809160
:10059000900080688093900091CF809190008C7F34
:1005A00082608093900080919100807E8061682BB2
:1005B0006093910050939700409396008091900033
:1005C0008062E8CF809190008C7F82608093900061
:1005D00080919100807E8061682B609391005093A0
:1005E000970040939600809190008860D3CF8091CF
:1005F000A0008C7F82608093A0008091A100807E0B
:100600008061682B6093A1005093A7004093A600DF
:100610008091A00080688093A00050CF8091A000BE
:100620008C7F82608093A0008091A100807E806199
:10063000682B6093A1005093A7004093A60080917F
:10064000A0008062E8CF8091A0008C7F82608093C0
:10065000A0008091A100807E8061682B6093A10042
:100660005093A7004093A6008091A0008860D3CF4C
:10067000809120018C7F82608093200180912101F4
:10068000807E8061682B6093210150932701409305
:100690002601809120018068809320010FCF8091F6
:1006A00020018C7F82608093200180912101807ED7
:1006B0008061682B609321015093270140932601AC
:1006C000809120018062E8CF809120018C7F826040
:1006D0008093200180912101807E8061682B60934E
:1006E00021015093270140932601809120018860C9
:1006F000D3CF611102C00C9412396130E1F362E092
:10070000FACF662319F061E00C944E3960E0FCCF1B
:10071000FC01A781B0858C9191858923A481B58145
:100720009C9140815181628173812681922359F08D
:1007300081110BC04F5F5F4F6F4F7F4F40835183DD
:100740006283738308958111F5CF41505109610986
:100750007109F4CF84E993E0DBCF8FE993E0D8CF40
:100760008AEA93E0D5CF85EB93E0D2CFFC01A48158
:10077000B5818C9196818923A781B0859C91408118
:100780005181628173812185922359F0882359F028
:100790004F5F5F4F6F4F7F4F4083518362837383FF
:1007A00008958823A9F34150510961097109F4CFD3
:1007B00084E993E0DBCF8FE993E0D8CF8AEA93E036
:1007C000D5CF85EB93E0D2CF0F931F93CF93DF93D9
:1007D000D82FC62F8A01A09193038BE0A89FD00148
:1007E0001124AC56BC4F1D921D921D921C92139762
:1007F00081E01A968C931A978D2F90E0FC01EA58AD
:10080000FE4FE4911696EC931697FC01E454FE4FCC
:10081000E491F0E0EE0FFF1FEE5FFD4F85919491A4
:1008200015969C938E931497862F90E0FC01EA58BE
:10083000FE4FE4911996EC931997FC01E454FE4F96
:10084000E491F0E0EE0FFF1FEE5FFD4F8591949174
:1008500018969C938E93179760E08D2F0E94123903
:1008600060E08C2F0E94123980919303813009F44B
:100870003FC0A8F0823009F462C0833009F486C01A
:100880008091930391E0980F90939303F8018083F4
:1008900090E080E0DF91CF911F910F91089580E06B
:1008A000D23049F081E0D33031F08EEE8D0F8430BC
:1008B000D8F487E18D1B41E050E06AEA73E00E94C2
:1008C000F33480E0C23049F081E0C33031F08EEE85
:1008D0008C0F843058F487E18C1B41E050E068EDC8
:1008E00073E00E94F334CCCF8FEFE5CF8FEFF5CFDD
:1008F00080E0D23049F081E0D33031F08EEE8D0FC0
:100900008430C8F487E18D1B41E050E06DEA73E06C
:100910000E94F33480E0C23049F081E0C33031F00E
:100920008EEE8C0F843048F487E18C1B41E050E060
:100930006BED73E0D6CF8FEFE7CF8FEFF7CF80E08F
:10094000D23049F081E0D33031F08EEE8D0F84301B
:10095000C8F487E18D1B41E050E060EB73E00E943A
:10096000F33480E0C23049F081E0C33031F08EEEE4
:100970008C0F843048F487E18C1B41E050E06EED31
:1009800073E0AFCF8FEFE7CF8FEFF7CF80E0D230BC
:1009900049F081E0D33031F08EEE8D0F8430C8F411
:1009A00087E18D1B41E050E063EB73E00E94F3347C
:1009B00080E0C23049F081E0C33031F08EEE8C0F20
:1009C000843048F487E18C1B41E050E061EE73E035
:1009D00088CF8FEFE7CF8FEFF7CF9BE0899FF001B4
:1009E0001124EC56FC4F80819181A281B381FB01DF
:1009F00080839183A283B38390E080E008959BE09D
:100A0000899FF0011124EC56FC4F10821182128252
:100A1000138290E080E0089590E080E008954F9286
:100A20005F926F927F928F929F92AF92BF92CF927E
:100A3000DF92EF92FF92CF93DF9300D01F92CDB75A
:100A4000DEB79A8389831092A8071092A9071092A3
:100A5000AA071092AB07DC01CD90DD90ED90FC90E1
:100A600046015701E894B7F820E030E0A901C5013C
:100A7000B4010E94EB3318160CF06DC08092A807E9
:100A80009092A907A092AA07B092AB07C12CD12CD3
:100A900080E8E82E8FE3F82EA981BA8114968D9113
:100AA0009D910D90BC91A02D89839A83AB83BC83CB
:100AB0002C013D01E89477F88090A8079090A90751
:100AC000A090AA07B090AB07A3019201C501B401A1
:100AD0000E949A3187FF4DC0A3019201C501B40164
:100AE0000E94A1314B015C01AC019B01C701B60121
:100AF0000E942C34A50194010E942C3420E030E0A7
:100B000040E85FE30E94D4304092A8075092A907C2
:100B10006092AA077092AB070E9499342091A807AF
:100B20003091A9074091AA075091AB070E942C343D
:100B30000F900F900F900F90DF91CF91FF90EF905B
:100B4000DF90CF90BF90AF909F908F907F906F90ED
:100B50005F904F90089520E030E0A901C701B601F1
:100B60000E94A1319B01AC010E942C346B017C01DD
:100B700093CFA501940169817A818B819C810E9428
:100B8000A1319B01AC010E942C34A70196010E9467
:100B9000D430C2CF2F923F924F925F926F927F924A
:100BA0008F929F92AF92BF92CF92DF92EF92FF927D
:100BB0000F931F93CF93DF9300D01F92CDB7DEB773
:100BC0009C838B838B011A013A832983FC01C080AB
:100BD000D180E280F380FB0180809180A280B3808D
:100BE000A5019401C701B6010E949A31811110C07C
:100BF000F8012481358146815781EB81FC81648134
:100C00007581868197810E949A31882309F4A8C151
:100C1000A7019601C501B4010E94D3306B017C018C
:100C2000C0929C07D0929D07E0929E07F0929F078A
:100C30002091DC083091DD084091DE085091DF08FA
:100C4000F80160817181828193810E94D330A70174
:100C500096010E942C342B013C014092A007509237
:100C6000A1076092A2077092A307A7019601C7018E
:100C7000B6010E942C344B015C018092A407909233
:100C8000A507A092A607B092A707EB81FC8124815B
:100C9000358146815781F80164817581868197810C
:100CA0000E94D3306B017C01C0929C07D0929D07BB
:100CB000E0929E07F0929F072091E0083091E108B2
:100CC0004091E2085091E308F801648175818681C2
:100CD00097810E94D330A70196010E942C34A30172
:100CE00092010E94D4302B013C01A7019601C7015B
:100CF000B6010E942C34A50194010E94D4309B01BE
:100D0000AC01C301B2010E94A1316B017C01C09210
:100D10009C07D0929D07E0929E07F0929F0720E0EB
:100D200030E040E85FE30E94EB331816BCF0F801B6
:100D300080809180A280B38020E030E0A901C701CB
:100D4000B6010E949A3187FF9EC08092A0079092C0
:100D5000A107A092A207B092A3070EC0EB81FC816D
:100D600080819181A281B3818093A0079093A10794
:100D7000A093A207B093A3078091A0079091A10729
:100D8000A091A207B091A307F10180839183A28370
:100D9000B3832091A0073091A1074091A207509101
:100DA000A3076091DC087091DD088091DE089091C6
:100DB000DF080E94D33060935807709359078093DF
:100DC0005A0790935B0720E030E040E85FE3C701FB
:100DD000B6010E94EB3318160CF07CC0EB81FC814D
:100DE00084819581A681B7818093A0079093A10704
:100DF000A093A207B093A3078091A0079091A107A9
:100E0000A091A207B091A307F10184839583A683E3
:100E1000B7832091A0073091A1074091A20750917C
:100E2000A3076091E0087091E1088091E208909139
:100E3000E3080E94D33060935C0770935D07809352
:100E40005E0790935F0788E597E0E9DDE981FA8125
:100E500060837183828393830F900F900F900F9024
:100E6000DF91CF911F910F91FF90EF90DF90CF9086
:100E7000BF90AF909F908F907F906F905F904F90BA
:100E80003F902F900895EB81FC8120813181428138
:100E90005381C701B6010E942C342B013C01A701EC
:100EA000960160E070E080E89FE30E94D330A501E6
:100EB00094010E942C349B01AC01C301B2010E9439
:100EC000D4306093A0077093A1078093A2079093FA
:100ED000A30752CFF80184809580A680B78020E0D8
:100EE00030E0A901C701B6010E949A3187FF09C00D
:100EF0008092A0079092A107A092A207B092A307A8
:100F00007BCFC0909C07D0909D07E0909E07F0900B
:100F10009F07EB81FC812481358146815781C70180
:100F2000B6010E942C342B013C01A701960160E020
:100F300070E080E89FE30E94D330A50194010E94F5
:100F40002C349B01AC01C301B2010E94D4306093E8
:100F5000A0077093A1078093A2079093A3074CCF9B
:100F6000F101C082D182E282F382EB81FC81208197
:100F70003181428153816091DC087091DD0880915C
:100F8000DE089091DF080E94D33060935807709379
:100F9000590780935A0790935B07EB81FC8184810A
:100FA0009581A681B781F10184839583A683B78358
:100FB000EB81FC81248135814681578132CF2F928C
:100FC0003F924F925F926F927F928F929F92AF92D9
:100FD000BF92CF92DF92EF92FF920F931F93CF9326
:100FE000DF93CDB7DEB7CB54D1090FB6F894DEBF8F
:100FF0000FBECDBF26967FAF6EAF269728965FAF08
:101000004EAF28973E8B2D8B2C96FFAEEEAE2C97D5
:10101000FB01E150F04CEE0FFF1FEE0FFF1FE80F3A
:10102000F91F80809180A280B3808F8A988EA98ECC
:10103000BA8EB501A401442777FD4395552766274D
:10104000772729964FAF2997F901E150F04CEE0F21
:10105000FF1FEE0FFF1F2896AEACBFAC2897EA0D1E
:10106000FB1DC080D180E280F380CB8EDC8EED8EC4
:10107000FE8EB701A601442777FD439555276627C5
:1010800077272A964FAF2A97188B0F87F80130E001
:1010900020E02C96EEACFFAC2C972E153F050CF4FF
:1010A0003FC022969FAF8EAF22971A8B098B312CAF
:1010B000212C812C912C540183948D829E82AF82AD
:1010C000B88626968EAC9FAC2697281439047CF1FE
:1010D00029969FAC29972A96AFAC2A9730E020E05A
:1010E00041E050E060E070E09A10F5C1C55BDF4F71
:1010F0000FB6F894DEBF0FBECDBFDF91CF911F9129
:101100000F91FF90EF90DF90CF90BF90AF909F90A6
:101110008F907F906F905F904F903F902F900895A9
:1011200011921192119211922F5F3F4FB2CF2296DE
:10113000EEADFFAD229781919191A191B19122964F
:10114000FFAFEEAF22978F88988CA98CBA8CB7FE30
:1011500023C04D815E816F817885415051096109BD
:1011600071095A016B01A81AB90ACA0ADB0AD60129
:10117000C50121E0CD80DE80EF80F8848C159D05CF
:10118000AE05BF0508F020E0822E912CB12CA12CD9
:101190008D829E82AF82B8865D01CC24DD24A8A218
:1011A000B9A2CAA2DBA29C01AD01442755272CA3FA
:1011B0003DA34EA35FA32C96EEADFFAD2C97E21995
:1011C000F3098D889E888E169F060CF4F4012896EC
:1011D000AEACBFAC28972496BFAEAEAE2497C988FC
:1011E000DA88DC8ACB8A1E861D86812C912C5401DC
:1011F000839489869A86AB86BC86812C912C540177
:10120000CD84DE84CE16DF0604F1F7FF02C0F0E0E5
:10121000E0E0E20DF31D2C96EEACFFAC2C97EE1542
:10122000FF0554F4EE0FFF1FEE0FFF1FE00FF11F3D
:1012300080829182A282B3822FEF221A320AE98938
:10124000FA893496FA8BE98B3CCF2496AEADBFADCC
:101250002497CD90DD90ED90FD902496BFAFAEAF7A
:1012600024972B8D3C8D4D8D5E8D57FF22C0898537
:101270009A85AB85BC850197A109B109AC01BD0177
:101280004C195D096E097F096A017B0181E029859E
:101290003A854B855C85C216D306E406F50608F050
:1012A00080E0482F50E070E060E049875A876B8704
:1012B0007C87B7018827992768A779A78AA79BA762
:1012C000EE24FF2428A139A14AA15BA1C701B601E0
:1012D0000E94033D2B013C012CA13DA14EA15FA129
:1012E00068A579A58AA59BA50E94033D6CA77DA74B
:1012F0008EA79FA7AB89BC894D915D916D917D9122
:10130000BC8BAB8BDB01CA01880D991DAA1DBB1DCF
:1013100089839A83AB83BC8391E09F8F29813A8133
:101320004B815C81281539054A055B0508F01F8E45
:101330002CA13DA14EA15FA1C701B6010E94033DB2
:101340006B017C0189809A80AB80BC808C0C9D1CD9
:10135000AE1CBF1C89829A82AB82BC825201992446
:10136000882488AA99AAAAAABBAA29813A814B8172
:101370005C81280D391D4A1D5B1D2CAB3DAB4EAB6E
:101380005FAB8CA49DA4AEA4BFA45401992488246F
:1013900088AE99AEAAAEBBAE280D391D4A1D5B1DA5
:1013A0002CAF3DAF4EAF5FAFAB89BC8914972D9387
:1013B0003D934D935C93139728A139A14AA15BA15A
:1013C00068A579A58AA59BA50E94033D9F8C690D00
:1013D000711D811D911D230166247724460E571E21
:1013E000681E791E2CA53DA54EA55FA54A01AA241D
:1013F000BB24840C951CA61CB71C81E090E0A0E0E7
:10140000B0E049815A816B817C814C155D056E0588
:101410007F0518F080E090E0DC01880D991DAA1D81
:10142000BB1D41E050E060E070E088A899A8AAA840
:10143000BBA8CCA8DDA8EEA8FFA8C814D904EA046C
:10144000FB0418F040E050E0BA01840F951FA61F7E
:10145000B71F812C912C54018394C8ACD9ACEAAC51
:10146000FBAC2CAD3DAD4EAD5FAD2C153D054E0535
:101470005F0518F0812C912C5401880E991EAA1E2C
:10148000BB1E4D855E854F5F5F4F5E874D87B8CE33
:10149000EF85F889C190D190E190F190F88BEF87BA
:1014A000DB01CA010197A109B1098C199D09AE0997
:1014B000BF09349780839183A283B383E1E08417CB
:1014C0009507A607B70708F0E0E04E2F50E070E060
:1014D00060E02F5F3F4F2C968EAC9FAC2C97281569
:1014E0003905B4F203CE2F923F924F925F926F92E2
:1014F0007F928F929F92AF92BF92CF92DF92EF92A4
:10150000FF920F931F93CF93DF9379011B01DA01B1
:10151000D0E0C0E040E050E0BA01CE15DF059CF01D
:10152000DF91CF911F910F91FF90EF90DF90CF90BF
:10153000BF90AF909F908F907F906F905F904F90F3
:101540003F902F900895FC0181909190A190B190CF
:10155000CF01F10101911191219131911F012401DC
:101560003501401A510A620A730A93018201041B71
:10157000150B260B370B0D931D932D933D9366246E
:101580006394712CC12CD12C452B462B472B39F061
:10159000081519052A053B0538F4612C05C080168D
:1015A0009106A206B306C8F7A301B6012196B5CFEE
:1015B0002F923F924F925F926F927F928F929F9263
:1015C000AF92BF92CF92DF92EF92FF920F931F9351
:1015D000CF93DF9300D01F92CDB7DEB78B015C8332
:1015E0004B83FB01E150F04CEE0FFF1FEE0FFF1F8E
:1015F000E80FF91F408151816281738177FD27C017
:101600004C01B12CA12CC12CD12C7601A016B10615
:1016100064F5F40161917191819191914F010E9462
:101620003A324B815C810E94F8339B01AC01C701C7
:10163000B6010E94D4306B017C012B813C81205E7D
:101640003F4F3C832B833FEFA31AB30ADFCF9A832C
:101650008983312C212C81E090E0A0E0B0E0C12C06
:10166000D12C760120163106CCF0C701B6010F90BF
:101670000F900F900F90DF91CF911F910F91FF90DE
:10168000EF90DF90CF90BF90AF909F908F907F9022
:101690006F905F904F903F902F900895E981FA816D
:1016A0004190519061907190FA83E98340945094F5
:1016B0006094709453014201880E991EAA1EBB1EAD
:1016C000C501B4010E943A324B815C810E94F8331B
:1016D0009B01AC01C701B6010E94D3306B017C01B4
:1016E00081E084149504A604B70408F080E090E03B
:1016F000B0E0A0E02B813C81205E3F4F3C832B83F8
:101700003FEF231A330AAECFFC0191E08091C3036F
:10171000811190E0918308958F929F92AF92BF9232
:10172000CF92DF92EF92FF92CF93DF936B017C0118
:1017300049015A010E940525882399F060913309D7
:10174000709134098091350990913609DF91CF91DC
:10175000FF90EF90DF90CF90BF90AF909F908F90D1
:101760000895C501B4010E9405258111E7CFC70185
:10177000B6010E94C0248823E1F1C501B4010E9492
:10178000C0248823B1F120E030E0A901C701B601EF
:101790000E94EB33CFEFDFEF181614F4C1E0D0E076
:1017A00020E030E0A901C501B4010E94EB336FEFE6
:1017B0007FEF181614F461E070E0072E000C880B20
:1017C000990B0E943C326B017C01BE01DD0F880B3E
:1017D000990B0E943C32A7019601DF91CF91FF90B7
:1017E000EF90DF90CF90BF90AF909F908F900C9430
:1017F000473120E030E0A901C501B4010E949A31CF
:10180000811116C020E030E0A901C701B6010E9495
:10181000EB33181694F020E030E0A901C701B601BF
:101820000E949A3187FD0EC060E070E0CB018ECF40
:10183000A5019401C701B601D0CF6BED7FE089EC23
:101840009FE384CF6BED7FE089EC9FEB7FCF2F92FE
:101850003F924F925F926F927F928F929F92AF9240
:10186000BF92CF92DF92EF92FF920F931F93CF938D
:10187000DF93CDB7DEB7A7970FB6F894DEBF0FBEE4
:10188000CDBF8091C30391E0811190E09093C40398
:1018900091E0980F9A3008F049C09093C3038111EA
:1018A00020C080910C0990910D09A0910E09B09172
:1018B0000F098093300790933107A0933207B093BC
:1018C00033078091100990911109A0911209B091EC
:1018D00013098093340790933507A0933607B0938C
:1018E000370780911A098F3F19F08F5F80931A098B
:1018F0008091180981111DC081E080931809109210
:101900001A0980931909109278071092790710929A
:101910007A0710927B0710927C0710927D07109235
:101920007E0710927F0770E060E0D7C01092C3037B
:10193000B6CF80911909823009F45DC078F5813005
:1019400009F452C020E030E04FEA53E460913007E0
:101950007091310780913207909133070E949A313C
:1019600087FF68C484E0809319098DEC9CECACEC93
:10197000BDE38093780790937907A0937A07B0939B
:101980007B0782E99AE0A6E8BFEB80937C079093FF
:101990007D07A0937E07B0937F079DC0833009F435
:1019A00095C0843079F6C0903007D0903107E09030
:1019B0003207F090330720E030E041EE53E4C701F6
:1019C000B6010E94EB331816A4F080903407909073
:1019D0003507A0903607B090370720E030E048EC9C
:1019E00053E4C501B40127C080911A09843608F474
:1019F0009ACF85E086CF8090340790903507A090ED
:101A00003607B090370720E030E041EE53E4C501DF
:101A1000B4010E94EB33181664F3C0903007D090E5
:101A20003107E0903207F090330720E030E048ECD7
:101A300053E4C701B6010E949A3187FF4CC010924F
:101A40001A0983E080931909109278071092790798
:101A500010927A0710927B07A5019401C701B60185
:101A60000E94D33060938C0770938D0780938E070C
:101A700090938F070E940525882309F4B3C38091B2
:101A8000330990913409A0913509B09136098093BA
:101A90008C0790938D07A0938E07B0938F072BED43
:101AA0003FE049E45FE360918C0770918D0780917E
:101AB0008E0790918F070E942C3460937C0770935F
:101AC0007D0780937E0790937F0705C080911A0958
:101AD000883C08F08ECF61E070E0072E000C880B88
:101AE000990B0E943C32698F7A8F8B8F9C8F20914B
:101AF000C0023091C1024091C2025091C3020E94C3
:101B0000EB3318160CF0BAC380914C0290914D0241
:101B1000A0914E02B0914F0280939007909391074D
:101B2000A0939207B09393076091900770919107EB
:101B300080919207909193070E940E326D8B7E8B5D
:101B40008F8B988F2D893E89217033273F8F2E8F61
:101B5000DC01CB01B695A79597958795AC014170AF
:101B6000552759A348A38D899E89AF89B88D52E026
:101B7000B695A795979587955A95D1F78AA39BA374
:101B8000ACA3BDA3C0903802D0903902E0903A02D5
:101B9000F0903B02A7019601609118087091190816
:101BA00080911A0890911B080E949A31882341F075
:101BB000C0921808D0921908E0921A08F0921B08F7
:101BC000C0903C02D0903D02E0903E02F0903F0277
:101BD000A701960160911008709111088091120878
:101BE000909113080E949A31882341F0C092100806
:101BF000D0921108E0921208F0921308C0904002AF
:101C0000D0904102E0904202F0904302A701960179
:101C1000609114087091150880911608909117082A
:101C20000E949A31882341F0C0921408D09215087E
:101C3000E0921608F09217089CE3E92E98E0F92E3E
:101C40002CE5C22E22E0D22E3CE7A32E38E0B32EA4
:101C50008601D7014D905D906D907D907D01F801DA
:101C600021913191419151918F01C301B2010E94A3
:101C70009A3181110CC3AE14BF0459F700E217E08A
:101C800080E3A82E87E0B82E7801D6016D917D9172
:101C90008D919D916D010E94052591E0811190E04B
:101CA000F70191937F01AE16BF0679F728E237E07E
:101CB000F12CE12CD8018D918D01882329F081E050
:101CC00017969C91911101C080E0F801E95BFF4FEC
:101CD0008083882319F0BFEFEB1AFB0A2017310726
:101CE00049F7E8E6F7E080E030E020E091919923C1
:101CF00031F0D901A05AB84F8C932F5F3F4F8F5FBF
:101D00008830A1F7E114F10409F0E3C210928C07C6
:101D100010928D0710928E0710928F0710928407F1
:101D200010928507109286071092870780908C0783
:101D300090908D07A0908E07B0908F07C090840779
:101D4000D0908507E0908607F09087072091CC021D
:101D50003091CD024091CE025091CF02698D7A8DA3
:101D60008B8D9C8D0E94EB33181614F00C94271960
:101D70008091780790917907A0917A07B0917B07BD
:101D80008093380790933907A0933A07B0933B07A5
:101D900080917C0790917D07A0917E07B0917F078D
:101DA00080933C0790933D07A0933E07B0933F0775
:101DB0008090380790903907A0903A07B0903B0781
:101DC000C0903C07D0903D07E0903E07F0903F0761
:101DD0002091AC023091AD024091AE025091AF0221
:101DE000C501B4010E942C342B013C012091B402A6
:101DF0003091B5024091B6025091B702C701B601C9
:101E00000E942C349B01AC01C301B2010E94D4306A
:101E10006093400770934107809342079093430774
:101E20002091B0023091B1024091B2025091B302C0
:101E3000C501B4010E942C344B015C012091B80211
:101E40003091B9024091BA025091BB02C701B6016C
:101E50000E942C349B01AC01C501B4010E94D43016
:101E60006093440770934507809346079093470714
:101E7000C0904402D0904502E0904602F0904702A4
:101E8000A701960160918F08709190088091910848
:101E9000909192080E949A31882341F0C0928F0855
:101EA000D0929008E0929108F092920880918E086A
:101EB000811110928E08BE01635F7F4F809193085D
:101EC0000E94ED04C0904802D0904902E0904A027E
:101ED000F0904B02A70196016091830870918408ED
:101EE00080918508909186080E949A31882341F05C
:101EF000C0928308D0928408E0928508F092860808
:101F000080918208811110928208BE01675F7F4F25
:101F1000809187080E94ED048091500390915103B5
:101F2000A0915203B091530389839A83AB83BC83FE
:101F30008D859E85AF85B8898D839E83AF83B88755
:101F400032E0E32EF12C0CEA17E021E030E0AE01A4
:101F50004B5F5F4F61E070E0CE01019630D889851C
:101F60009A85AB85BC858D839E83AF83B88704EB50
:101F700017E021E030E0AE014B5F5F4F61E070E0C1
:101F8000CE0101961CD822E030E04CEB57E06CEF1C
:101F900078E08CEA97E0A7DA88E0ECEBF7E0ACEFCA
:101FA000B8E001900D928A95E1F722E030E044EC30
:101FB00057E064E079E0C80196DA88E0E4ECF7E005
:101FC000A4E0B9E001900D928A95E1F750E040E07D
:101FD00062E070E08CEF98E0EBDA20E030E048E47B
:101FE0005DE20E942C3420919C0230919D02409130
:101FF0009E0250919F020E942C346B017C01C09282
:102000008C07D0928D07E0928E07F0928F0750E0F8
:1020100040E062E070E084E099E0CADA20E030E07D
:1020200048E45DE20E942C342091A4023091A50284
:102030004091A6025091A7020E942C34A70196015C
:102040000E94D430609348077093490780934A07F1
:1020500090934B0750E040E062E070E08CEF98E036
:10206000A7DA20E030E048E45DE20E942C342091C1
:10207000A0023091A1024091A2025091A3020E94BD
:102080002C346B017C01C0928C07D0928D07E092BA
:102090008E07F0928F0750E040E062E070E084E04D
:1020A00099E086DA20E030E048E45DE20E942C34DA
:1020B0002091A8023091A9024091AA025091AB024E
:1020C0000E942C34A70196010E94D43060934C07E3
:1020D00070934D0780934E0790934F07C090400731
:1020E000D0904107E0904207F09043078090D002E3
:1020F0009090D102A090D202B090D302A501940199
:10210000C701B6010E94EB33181614F00C9439196C
:102110008092900790929107A0929207B0929307B5
:1021200040904407509045076090460770904707DD
:102130008090D8029090D902A090DA02B090DB0291
:10214000A5019401C301B2010E94EB33181614F0EB
:102150000C9455198092940790929507A092960737
:10216000B092970720919407309195074091960778
:102170005091970760919007709191078091920715
:10218000909193070E94D3304B015C01809290079D
:1021900090929107A0929207B09293078091E002EB
:1021A0009091E102A091E202B091E302898B9A8BB7
:1021B000AB8BBC8B9C01AD01C501B4010E94EB331C
:1021C000181614F00C94711929893A894B895C8985
:1021D0002093900730939107409392075093930771
:1021E0000C948719C0908C07D0908D07E0908E07D3
:1021F000F0908F0720E030E0A901C701B6010E94EE
:102200009A3187FF05C080E090E0A0E8BFEB3FCCAB
:1022100020E030E0A901C701B6010E94EB33181697
:1022200024F080E090E0DC0132CC80E090E0A0E897
:10223000BFE32DCC20E030E04FEA53E46091340757
:102240007091350780913607909137070E949A3137
:1022500087FF69CB82E0809319098DEC9CECACEC94
:10226000BDE38093780790937907A0937A07B093A2
:102270007B0782E99AE0A6E8BFE387CB8091500212
:1022800090915102A0915202B091530245CCC301EA
:10229000B2010E940525882351F0F801349760812E
:1022A0007181828193810E9405258111E4CC80E4B3
:1022B000ECE5F2E0ACE3B8E001900D928A95E1F72D
:1022C00010922408109225081092260810922708D0
:1022D000D5CC20E030E0A901609124087091250858
:1022E00080912608909127080E949A31811182C01E
:1022F00080916007082E000C990BFC01EE0FFF1F68
:10230000EE0FFF1FE45AFD4F4081518162817381BE
:1023100040931C0850931D0860931E0870931F087B
:10232000880F991F880F991FFC01E458FD4F808189
:102330009181A281B3818093200890932108A0937A
:102340002208B093230880E090E0A0E8BFE38093E8
:10235000240890932508A0932608B0932708E1E06D
:10236000ED8FF1E0EF16F10409F046C080916007AF
:10237000082E000C990BFC01EE0FFF1FEE0FFF1F44
:10238000E45AFD4F408151816281738140931C0862
:1023900050931D0860931E0870931F0840932808EF
:1023A0005093290860932A0870932B08880F991F6F
:1023B000880F991FFC01E458FD4F80819181A28113
:1023C000B38180938C0790938D07A0938E07B09371
:1023D0008F078093200890932108A0932208B09340
:1023E000230880932C0890932D08A0932E08B09377
:1023F0002F08D7C21D8EB5CF20E030E040E85FE364
:1024000060912408709125088091260890912708F2
:102410000E94D4300E940932605E784FDB01DF9663
:102420008C91082E000C990BFC01EE0FFF1FEE0F94
:10243000FF1FE45AFD4F40815181628173814093B7
:1024400048075093490760934A0770934B07880FDA
:10245000991F880F991FFC01E458FD4F80819181DD
:10246000A281B38180934C0790934D07A0934E07B0
:10247000B0934F0780911C0890911D08A0911E08F1
:10248000B0911F088093500790935107A093520773
:10249000B09353078091200890912108A0912208C1
:1024A000B09123088093540790935507A093560743
:1024B000B093570720E837E04CE158E068E477E054
:1024C00080E597E00E94CA0520E030E040E85FE345
:1024D0006091240870912508809126089091270822
:1024E0000E94D4300E940932605E784FFB0107AD34
:1024F000002E000C110BF801EE0FFF1FEE0FFF1F57
:10250000E45AFD4F208131814281538160911C0842
:1025100070911D0880911E0890911F080E94D33071
:10252000609348077093490780934A0790934B073D
:10253000000F111F000F111FF801E458FD4F2081FB
:1025400031814281538160912008709121088091EE
:102550002208909123080E94D33060934C07709317
:102560004D0780934E0790934F0788E497E00E94B1
:102570000F05609384077093850780938607909377
:10258000870720E030E040E85FE360912408709125
:10259000250880912608909127080E94D4304B018D
:1025A0005C018092940790929507A0929607B09252
:1025B0009707B701FF0C880B990B0E943C3220E073
:1025C00030E040E85FE30E94D3302B013C01A501DD
:1025D000940160E070E080E89FE30E94D330A301A3
:1025E00092010E94D4300E9409329B01215031098E
:1025F0003FA32EA31A8A198A29893A894EA15FA17D
:1026000042175307A4F149895A89BA01550F880B1B
:10261000990B0E943C32209194073091950740918C
:102620009607509197070E94D4306B017C01C092AD
:102630008807D0928907E0928A07F0928B075D8D18
:1026400051113CC32091140830911508409116088F
:1026500050911708609184077091850780918607D3
:10266000909187070E94EB3318160CF027C320E0E7
:1026700030E040E85FE36091240870912508809184
:102680002608909127080E94D4300E940932605E8B
:10269000784FDB01DF960C91002E000C110BF80136
:1026A000EE0FFF1FEE0FFF1FE45AFD4F2081318117
:1026B0004281538120938C0730938D0740938E077E
:1026C00050938F0760911C0870911D0880911E081F
:1026D00090911F080E94D330609348077093490778
:1026E00080934A0790934B07000F111F000F111F93
:1026F000F801E458FD4F20813181428153812093BC
:1027000090073093910740939207509393076091FD
:1027100020087091210880912208909123080E943E
:10272000D33060934C0770934D0780934E0790937E
:102730004F0788E497E00E940F0560938407709329
:102740008507809386079093870700911C08109156
:102750001D0820911E0830911F0800933807109320
:10276000390720933A0730933B0700918C0710916B
:102770008D0720918E0730918F07009340071093AB
:10278000410720934207309343070091200810919E
:102790002108209122083091230800933C071093D0
:1027A0003D0720933E0730933F070091900710911B
:1027B000910720919207309193070093440710935B
:1027C000450720934607309347072091140830911E
:1027D000150840911608509117080E94D330609355
:1027E000800770938107809382079093830780917D
:1027F000240890912508A0912608B091270880937D
:102800008C0790938D07A0938E07B0938F07C0908D
:102810008007D0908107E0908207F090830720E046
:1028200030E0A901C701B6010E949A3187FF11C0AB
:1028300080908C0790908D07A0908E07B0908F07A6
:10284000A5019401C301B2010E94EB3318160CF4E8
:1028500040C3209140073091410740914207509179
:102860004307609138077091390780913A0790913A
:102870003B070E94D33060934807709349078093C9
:102880004A0790934B0720914407309145074091A8
:1028900046075091470760913C0770913D07809132
:1028A0003E0790913F070E94D33060934C0770938E
:1028B0004D0780934E0790934F0788E497E00E945E
:1028C0000F059B01AC01C701B6010E94A1316B014C
:1028D0007C01C0928C07D0928D07E0928E07F09217
:1028E0008F0720E030E0A9010E94EB3318160CF0AE
:1028F000B8C3A701960160E070E080E89FE30E9402
:10290000D3304B015C012091400730914107409149
:102910004207509143070E942C342B013C01209127
:1029200038073091390740913A0750913B07C7016A
:10293000B6010E942C349B01AC01C301B2010E947C
:10294000D430609328087093290880932A089093C4
:102950002B0820914407309145074091460750913C
:102960004707C501B4010E942C344B015C01209142
:102970003C0730913D0740913E0750913F07C7010A
:10298000B6010E942C349B01AC01C501B4010E9428
:10299000D43060932C0870932D0880932E08909368
:1029A0002F082091DC083091DD084091DE0850911D
:1029B000DF08609128087091290880912A08909179
:1029C0002B080E94D3306B017C012091E0083091EC
:1029D000E1084091E2085091E30860912C08709161
:1029E0002D0880912E0890912F080E94D330A701C6
:1029F00096010E948C0B2091E4083091E5084091EB
:102A0000E6085091E7080E94D3306B017C01C09228
:102A10008C07D0928D07E0928E07F0928F079F77F8
:102A20002BED3FE049E450E40E94EB3318160CF024
:102A300063C02BED3FE049E450E4C701B6010E94BA
:102A4000D4300E940525882309F424C380913309DA
:102A500090913409A0913509B0913609809384078B
:102A600090938507A0938607B093870720E030E016
:102A7000A9016091840770918507809186079091E4
:102A800087070E949A31811121C02BED3FE049E474
:102A900050E460918C0770918D0780918E07909122
:102AA0008F070E94D43020E030E0A9010E94EB3370
:102AB000181664F48BED9FE0A9ECB0E480938407D2
:102AC00090938507A0938607B09387072BED3FE08F
:102AD00049E450E4609184077091850780918607EE
:102AE000909187070E94D33060938C0770938D0775
:102AF00080938E0790938F07C0908C07D0908D079E
:102B0000E0908E07F0908F07C701B6010E948F34C6
:102B10009B01AC010E94D43020911408309115081B
:102B200040911608509117080E94A1314B015C0199
:102B30008092840790928507A0928607B0928707BB
:102B4000C701B6019F772BED3FE049E450E40E94B6
:102B5000D3309F7720E030E040E852E30E949A3182
:102B600087FF23C0C501B4010E94052581111DC046
:102B7000C0908407D0908507E0908607F090870783
:102B800020E030E0A901C701B6010E949A3187FF19
:102B900024C380E090E0A0E8BFEB8093840790938B
:102BA0008507A0938607B0938707C0908407D090CD
:102BB0008507E0908607F0908707C701B6019F77E9
:102BC000209110083091110840911208509113087B
:102BD0000E94EB3318168CF5C701B6010E9405253B
:102BE000882309F40CC38091330990913409A09192
:102BF0003509B091360980938C0790938D07A09387
:102C00008E07B0938F0720911008309111084091E2
:102C100012085091130860918C0770918D07809174
:102C20008E0790918F070E942C34609384077093D5
:102C30008507809386079093870780911808909165
:102C40001908A0911A08B0911B0880938C079093E3
:102C50008D07A0938E07B0938F078091DC08909129
:102C6000DD08A091DE08B091DF08809330089093D2
:102C70003108A0933208B09333088091E008909116
:102C8000E108A091E208B091E308809334089093A2
:102C90003508A0933608B09337088091E4089091E6
:102CA000E508A091E608B091E70880933808909372
:102CB0003908A0933A08B0933B0838C8C701B60159
:102CC0000E940932605E784FFB0127AC022C000C99
:102CD0003308F101EE0FFF1FEE0FFF1FE45AFD4F07
:102CE00080809180A280B38020E030E040E85FE304
:102CF000C701B6010E94D4300E940932605E784F4D
:102D0000DB01DF960C91002E000C110BF801EE0F89
:102D1000FF1FEE0FFF1FE45AFD4FC080D180E280FD
:102D2000F380A7019601C501B4010E94D3306093DE
:102D300048077093490780934A0790934B07809206
:102D4000400790924107A0924207B0924307C09279
:102D50005007D0925107E0925207F0925307F101C9
:102D6000EE0FFF1FEE0FFF1FE458FD4F8080918094
:102D7000A280B38080928C0790928D07A0928E07DC
:102D8000B0928F07000F111F000F111FF801E458B8
:102D9000FD4FC080D180E280F380C0929007D09236
:102DA0009107E0929207F0929307A7019601C5015F
:102DB000B4010E94D33060934C0770934D07809309
:102DC0004E0790934F078092440790924507A09238
:102DD0004607B0924707C0925407D0925507E09239
:102DE0005607F092570788E497E00E940F059B0171
:102DF000AC0160918407709185078091860790915E
:102E000087070E94D430609384077093850780936E
:102E10008607909387072CE837E048E357E060E5A2
:102E200077E080E497E00E94CA05C0908C07D090BC
:102E30008D07E0908E07F0908F07209180073091EA
:102E400081074091820750918307C701B6010E9414
:102E50009A3187FF38C0C0928007D0928107E092F4
:102E60008207F09283078091380790913907A091EB
:102E70003A07B0913B0780931C0890931D08A093DC
:102E80001E08B0931F0880913C0790913D07A091C8
:102E90003E07B0913F078093200890932108A093AC
:102EA0002208B09323088091880790918907A09108
:102EB0008A07B0918B078093240890932508A093EC
:102EC0002608B0932708E989FA893196FA8BE98BAD
:102ED00093CB20E030E040E85FE3C501B4010E94FD
:102EE000D4306B017C01C0928C07D0928D07E092A8
:102EF0008E07F0928F070E940932605E784FDB01E7
:102F0000DF962C90022C000C3308F101EE0FFF1F0E
:102F1000EE0FFF1FE45AFD4F80809180A280B380A6
:102F20008092380790923907A0923A07B0923B07F7
:102F300020E030E040E85FE3C701B6010E94D430F2
:102F40000E940932605E784FFB0107AD002E000C35
:102F5000110BF801EE0FFF1FEE0FFF1FE45AFD4F9C
:102F60002081318142815381209340073093410772
:102F70004093420750934307C501B4010E94D330E8
:102F8000609348077093490780934A0790934B07D3
:102F9000F101EE0FFF1FEE0FFF1FE458FD4F6081A0
:102FA0007181828193816093800770938107809300
:102FB00082079093830760933C0770933D0780934B
:102FC0003E0790933F07000F111F000F111FF801DC
:102FD000E458FD4F20813181428153812093900735
:102FE000309391074093920750939307209344079F
:102FF0003093450740934607509347070E94D330CC
:1030000060934C0770934D0780934E0790934F0742
:1030100088E497E00E940F0520918407309185078E
:1030200040918607509187070E94D43060938407AF
:1030300070938507809386079093870720911408E3
:103040003091150840911608509117080E94D3300E
:103050006093800770938107809382079093830722
:10306000D6CB8091400790914107A0914207B09143
:1030700043078093280890932908A0932A08B093C7
:103080002B088091440790914507A0914607B09185
:103090004707A7C92BED3FE049E450E460918C0756
:1030A00070918D0780918E0790918F070E94D43088
:1030B0000E94C0248111CACC2BED3FE049E450E4CA
:1030C00060918C0770918D0780918E0790918F078A
:1030D0000E94D4304B015C0120E030E0A9010E9445
:1030E0009A31811109C010928407109285071092BD
:1030F000860710928707BACC2BED3FE049EC50E4ED
:10310000C501B4010E9491322B013C014092840719
:1031100050928507609286077092870720E030E022
:10312000A9010E949A318823F1F22BED3FE049EC8E
:1031300050E4C501B4010E94A1316B017C01E89407
:10314000F7F8C0928007D0928107E0928207F09250
:10315000830720E030E040E05FE3C701B6010E9452
:10316000D4300E9477329B01AC01C701B6010E94A6
:10317000D3309B01AC015F77298B3A8B4B8B5C8BF7
:1031800020E030E040E855E2C701B6010E942C344F
:103190009B01AC0169897A898B899C890E94EB33F8
:1031A00018160CF0A0CF20E030E0A901C501B40151
:1031B0000E949A3187FF5ACC2BED3FE049EC50E456
:1031C000C301B2010E94D4306093840770938507D5
:1031D000809386079093870749CC20E030E0A901CF
:1031E000C701B6010E94EB33181624F080E090E08E
:1031F000DC01D3CC80E090E0A0E8BFE3CECCC0906F
:103200008407D0908507E0908607F090870720E03C
:1032100030E0A901C701B6010E949A3187FF05C0BD
:1032200080E090E0A0E8BFEBE6CC20E030E0A90130
:10323000C701B6010E94EB33181624F080E090E03D
:10324000DC01D9CC80E090E0A0E8BFE3D4CC809250
:10325000380790923907A0923A07B0923B07C09284
:103260003C07D0923D07E0923E07F0923F070C9456
:10327000D80E8090D4029090D502A090D602B09043
:10328000D702A5019401C701B6010E949A3187FFB8
:1032900002C00C948810C0929007D0929107E092DF
:1032A0009207F09293070C9490108090DC0290901B
:1032B000DD02A090DE02B090DF02A5019401C301FF
:1032C000B2010E949A3187FF02C00C94AA1040926A
:1032D00094075092950760929607709297070C9406
:1032E000B2108091E4029091E502A091E602B091C3
:1032F000E702898B9A8BAB8BBC8B9C01AD01C5011E
:10330000B4010E949A3187FF02C00C94E4108090AF
:10331000E8029090E902A090EA02B090EB02A501C9
:103320009401C701B6010E94EB3318160CF054C08B
:103330008092940790929507A0929607B092970773
:10334000C090F002D090F102E090F202F090F3020F
:10335000A7019601C301B2010E94EB3318160CF0CD
:1033600054C0C0928C07D0928D07E0928E07F092E5
:103370008F072091940730919507409196075091BF
:10338000970760918C0770918D0780918E079091BF
:103390008F070E94D3306B017C01C0929407D092BA
:1033A0009507E0929607F09297078090F802909028
:1033B000F902A090FA02B090FB02A50194010E94CC
:1033C000EB331816DCF58092940790929507A09243
:1033D0009607B092970742C08090EC029090ED0261
:1033E000A090EE02B090EF02A5019401C701B601D2
:1033F0000E949A3187FD9CCFC0929407D092950786
:10340000E0929607F09297079BCFC090F402D0907D
:10341000F502E090F602F090F702A7019601C301D1
:10342000B2010E949A3187FD9CCF40928C07509246
:103430008D0760928E0770928F079BCF8090FC0261
:103440009090FD02A090FE02B090FF02A5019401B1
:10345000C701B6010E949A3187FDB5CFC090900791
:10346000D0909107E0909207F090930750E040E0F1
:1034700062E070E08CEF98E00E94D80A20E030E033
:1034800048E45DE20E942C349B01AC01C701B60107
:103490000E94D3304B015C0180924007909241071B
:1034A000A0924207B0924307C0909407D09095072E
:1034B000E0909607F090970750E040E062E070E0FF
:1034C00084E099E00E94D80A20E030E048E45DE220
:1034D0000E942C349B01AC01C701B6010E94D3307D
:1034E0006B017C01C0924407D0924507E0924607E9
:1034F000F09247078091E8089091E908A091EA08C6
:10350000B091EB08898B9A8BAB8BBC8B8093940723
:1035100090939507A0939607B09397072091000288
:10352000309101024091020250910302C501B401A1
:103530000E942C342091EC083091ED084091EE0867
:103540005091EF080E94D330209120023091210247
:1035500040912202509123020E942C342B013C0105
:103560004092840750928507609286077092870781
:1035700020912C0230912D0240912E0250912F0269
:10358000C701B6010E942C34698F7A8F8B8F9C8F74
:1035900020910402309105024091060250910702E9
:1035A000C701B6010E942C342091F4083091F5082F
:1035B0004091F6085091F7080E94D33020912402E0
:1035C0003091250240912602509127020E942C340E
:1035D0006B017C01C0928007D0928107E092820744
:1035E000F0928307209128023091290240912A020B
:1035F00050912B02C501B4010E942C3429893A89CB
:103600004B895C890E94D430A30192010E94D4307E
:103610004B015C0180928C0790928D07A0928E07DF
:10362000B0928F072091F0083091F1084091F20894
:103630005091F308698D7A8D8B8D9C8D0E94D430CA
:10364000A70196010E94D4302B013C01C0901003C9
:10365000D0901103E0901203F0901303A70196019C
:10366000C501B4010E94EB3318160CF0D0C1C09212
:103670003807D0923907E0923A07F0923B07A7014A
:103680009601C301B2010E94EB3318160CF0E7C19A
:10369000C0923C07D0923D07E0923E07F0923F0770
:1036A00020913C0730913D0740913E0750913F07E4
:1036B000609118037091190380911A0390911B0374
:1036C0000E942C3460939007709391078093920727
:1036D000909393076AE070E080E090E00E9496018A
:1036E0008C019093B3088093B208C0909007D0905B
:1036F0009107E0909207F090930780901C039090C0
:103700001D03A0901E03B0901F03A5019401C701E3
:10371000B6010E94EB3318160CF0BAC180928C07E8
:1037200090928D07A0928E07B0928F0720E030E034
:103730004FE753E460918C0770918D0780918E075D
:1037400090918F070E949A31181664F480E090E0FF
:10375000AFE7B3E480938C0790938D07A0938E0717
:10376000B0938F0720E030E0A90160918C07709141
:103770008D0780918E0790918F070E94EB3387FF12
:1037800008C010928C0710928D0710928E0710922D
:103790008F0740918C0750918D0760918E07709133
:1037A0008F07C8010E945F0169E070E080E090E04F
:1037B0000E9496018C019093AB088093AA08C09058
:1037C0009007D0909107E0909207F0909307809037
:1037D000240390902503A0902603B0902703A50111
:1037E0009401C701B6010E94EB3318160CF069C1B1
:1037F00080928C0790928D07A0928E07B0928F07CF
:10380000C0908C07D0908D07E0908E07F0908F07C6
:10381000E894F7F820E030E04FE753E4C701B60141
:103820000E949A3118160CF465C1C0928C07D09290
:103830008D07E0928E07F0928F0740918C07509190
:103840008D0760918E0770918F07C8010E945F01FC
:1038500011E0209158023091590240915A02509142
:103860005B0260919007709191078091920790910F
:1038700093070E949A31811101C010E0612F88E006
:103880000E948103209138073091390740913A070F
:1038900050913B0760912C0370912D0380912E0372
:1038A00090912F030E942C349B01AC012093900730
:1038B00030939107409392075093930711E06091E2
:1038C00054027091550280915602909157020E94C5
:1038D0009A31811101C010E0612F8DE00E948103B7
:1038E0006CE070E080E090E00E9496018C01909383
:1038F000A3088093A208C0909007D0909107E09011
:103900009207F09093078090300390903103A0903D
:103910003203B0903303A5019401C701B6010E94A0
:10392000EB3318160CF0F3C080928C0790928D0741
:10393000A0928E07B0928F0720E030E04FE753E46B
:1039400060918C0770918D0780918E0790918F0701
:103950000E949A31181664F480E090E0AFE7B3E477
:1039600080938C0790938D07A0938E07B0938F0759
:1039700020E030E0A90160918C0770918D07809163
:103980008E0790918F070E94EB3387FF08C010923B
:103990008C0710928D0710928E0710928F0740911E
:1039A0008C0750918D0760918E0770918F07C80129
:1039B0000E945F016BE070E080E090E00E94960161
:1039C0008C0190939B0880939A0880909007909028
:1039D0009107A0909207B0909307C0903803D090C1
:1039E0003903E0903A03F0903B03A7019601C5012B
:1039F000B4010E94EB3318160CF0A2C0C0929007DD
:103A0000D0929107E0929207F0929307A9C020917B
:103A10001403309115034091160350911703298B1D
:103A20003A8B4B8B5C8BC501B4010E949A3187FFA6
:103A30000DC089899A89AB89BC8980933807909396
:103A40003907A0933A07B0933B0719CE8092380705
:103A500090923907A0923A07B0923B0710CEC090DF
:103A60001403D0901503E0901603F0901703A701FC
:103A70009601C301B2010E949A3187FD09CE40929E
:103A80003C0750923D0760923E0770923F0708CE78
:103A90008090200390902103A0902203B0902303F4
:103AA000A5019401C701B6010E949A3187FD36CE67
:103AB000C0928C07D0928D07E0928E07F0928F070C
:103AC00035CE8090280390902903A0902A03B090CF
:103AD0002B03A5019401C701B6010E949A3187FD0D
:103AE00087CEC0928C07D0928D07E0928E07F0921D
:103AF0008F0786CE80E090E0AFE7B3E480938C0739
:103B000090938D07A0938E07B0938F0796CE8090E9
:103B1000340390903503A0903603B0903703A5018D
:103B20009401C701B6010E949A3187FDFDCEC09273
:103B30008C07D0928D07E0928E07F0928F07FCCE13
:103B4000C0903C03D0903D03E0903E03F0903F03D3
:103B5000A7019601C501B4010E949A3187FD4ECF9D
:103B6000C0909007D0909107E0909207F090930753
:103B7000E894F7F820E030E04FE753E4C701B601DE
:103B80000E949A3118160CF409C2C0928C07D09288
:103B90008D07E0928E07F0928F0740918C0750912D
:103BA0008D0760918E0770918F07C8010E945F0199
:103BB000C0901409D0901509E0901609F0901709EB
:103BC000C701B6010E943C322B013C012091480301
:103BD0003091490340914A0350914B030E949A311E
:103BE00087FFE9C1F7FCE7C1809040039090410353
:103BF000A0904203B0904303809290079092910767
:103C0000A0929207B092930720E030E040E85FE393
:103C1000609144037091450380914603909147035E
:103C20000E94D3309B01AC01C301B2010E94EB336F
:103C300087FDC5C11092140910921509109216093A
:103C400010921709AE8DBF8D11E0AB2B49F020E02B
:103C500030E0A901C501B4010E949A31811110E040
:103C6000012F6D897E898F89988D23E096958795A0
:103C7000779567952A95D1F761707727611571055A
:103C800009F0612F80E30E9481038AA19BA18170CA
:103C90009927892B09F410E0612F82E30E948103A8
:103CA000E8A1F9A1EF2B19F061E0011101C060E07A
:103CB00084E30E9481034090DC085090DD0860900E
:103CC000DE087090DF0840928C0750928D0760925A
:103CD0008E0770928F07C090E408D090E508E090BE
:103CE000E608F090E708C0929007D0929107E09222
:103CF0009207F09293072091E0083091E1084091FB
:103D0000E2085091E3082D8B3E8B4F8B588F209308
:103D10009407309395074093960750939707C09266
:103D20008807D0928907E0928A07F0928B07C092A9
:103D30009807D0929907E0929A07F0929B07C701E3
:103D4000B6010E949E312091480730914907409169
:103D50004A0750914B07298B3A8B4B8B5C8B809099
:103D6000C4029090C502A090C602B090C7020E9403
:103D70002C34A50194010E942C34A30192010E94CD
:103D8000D4306093DC087093DD088093DE08909354
:103D9000DF08C701B6010E948F349B01AC0169891D
:103DA0007A898B899C890E942C34A50194010E94F8
:103DB0002C342D893E894F89588D0E94D4306093D0
:103DC000E0087093E1088093E2089093E308209163
:103DD0004C0730914D0740914E0750914F07C50158
:103DE000B4010E942C34A70196010E94D430609344
:103DF000E4087093E5088093E6089093E70888E06C
:103E0000ECEAF7E0ACEFB8E001900D928A95E1F7AB
:103E100088E0E4EBF7E0A4E0B9E001900D928A9528
:103E2000E1F72091400730914107409142075091BE
:103E3000430760910C0270910D0280910E029091E7
:103E40000F020E942C342091000330910103409115
:103E50000203509103030E942C342091E808309112
:103E6000E9084091EA085091EB080E94D430609331
:103E7000E8087093E9088093EA089093EB08209192
:103E8000840730918507409186075091870760919C
:103E900004037091050380910603909107030E942B
:103EA0002C342091EC083091ED084091EE085091AF
:103EB000EF080E94D4306093EC087093ED08809373
:103EC000EE089093EF082091440730914507409108
:103ED000460750914707609108027091090280914E
:103EE0000A0290910B020E942C3420910803309119
:103EF000090340910A0350910B030E942C34209136
:103F0000F0083091F1084091F2085091F3080E94B6
:103F1000D4306093F0087093F1088093F208909386
:103F2000F3082091800730918107409182075091DA
:103F3000830760910C0370910D0380910E039091A3
:103F40000F030E942C342091F4083091F508409121
:103F5000F6085091F7080E94D4306093F4087093EB
:103F6000F5088093F6089093F708A7960FB6F89493
:103F7000DEBF0FBECDBFDF91CF911F910F91FF909C
:103F8000EF90DF90CF90BF90AF909F908F907F90F9
:103F90006F905F904F903F902F90089580E090E059
:103FA000AFE7B3E480938C0790938D07A0938E07BF
:103FB000B0938F07F2CD812C912C54011DCE9FEF31
:103FC000C91AD90AE90AF90AC0921409D092150946
:103FD000E0921609F092170935CE48EF58E064E7F1
:103FE00077E080E797E012D5809170079091710794
:103FF000A0917207B091730780930C0990930D09FB
:10400000A0930E09B0930F098091740790917507E2
:10401000A0917607B09177078093100990931109CA
:10402000A0931209B093130948EF58E064E777E0D2
:1040300080E797E0EDC48F929F92AF92BF92EF928C
:10404000FF920F931F93CF9384E090E062D480910E
:104050002F0990913009A0913109B09132098093D4
:10406000D0029093D102A093D202B093D302409198
:104070003709509138096091390970913A09409394
:10408000DC025093DD026093DE027093DF02409306
:10409000EC025093ED026093EE027093EF02809376
:1040A000F0029093F102A093F202B093F302E0ECDD
:1040B000F3E085E0DF011D928A95E9F7E0E2F7E0A1
:1040C0008CEADF011D928A95E9F7ECECF7E08BE5CD
:1040D00091E0DF019C011D9221503040E1F7809179
:1040E000BC029091BD02A091BE02B091BF0280932C
:1040F000300790933107A0933207B0933307809332
:10410000340790933507A0933607B093370781E0C3
:10411000809326098091380290913902A0913A0249
:10412000B0913B028093180890931908A0931A0845
:10413000B0931B0880913C0290913D02A0913E02F9
:10414000B0913F028093100890931108A093120839
:10415000B09313088091400290914102A0914202D5
:10416000B09143028093140890931508A093160809
:10417000B093170881E090E0A0E0B0E08093CC0716
:104180009093CD07A093CE07B093CF0780913309CA
:1041900090913409A0913509B0913609ECE3F8E02B
:1041A00081939193A193B19338E0EC37F307C1F772
:1041B00080931C0890931D08A0931E08B0931F08BD
:1041C0008093200890932108A0932208B09323089D
:1041D000C1E0C0931F098091440290914502A091D3
:1041E0004602B091470280938F0890939008A09365
:1041F0009108B0939208812C912C54018394809261
:10420000890890928A08A0928B08B0928C0843E9A2
:1042100058E063E082E00E94E403C0938D081092AE
:104220008E081092870810927C08C0931E09809116
:10423000480290914902A0914A02B0914B028093AA
:10424000830890938408A0938508B0938608809291
:104250007D0890927E08A0927F08B092800847E87F
:1042600058E063E182E10E94E403C0938108109268
:1042700082081092AC08C09325098092AD089092F4
:10428000AE08A092AF08B092B008E12CF12C8701E3
:10429000A80197016AE070E080E090E00E94DA01F6
:1042A0009093B3088093B208C093B1081092A40809
:1042B000C09324098092A5089092A608A092A7080E
:1042C000B092A808A801970169E070E080E090E052
:1042D0000E94DA019093AB088093AA08C093A908C2
:1042E0001092CC08C09322098092CD089092CE08FB
:1042F000A092CF08B092D00861E088E00E947903D4
:10430000C093D1081092D408C09323098092D50895
:104310009092D608A092D708B092D80861E08DE0BC
:104320000E947903C093D90810929C08C093210978
:1043300080929D0890929E08A0929F08B092A0083B
:10434000A80197016CE070E080E090E00E94DA0143
:104350009093A3088093A208C093A1081092940898
:10436000C09320098092950890929608A092970891
:10437000B0929808A80197016BE070E080E090E0AF
:104380000E94DA0190939B0880939A08C093990841
:104390001092C408C0931D098092C5089092C60867
:1043A000A092C708B092C80861E080E30E94790338
:1043B000C093C9081092BC08C0931C098092BD0824
:1043C0009092BE08A092BF08B092C00861E082E35C
:1043D0000E947903C093C1081092B408C0931B09CE
:1043E0008092B5089092B608A092B708B092B8082B
:1043F00061E084E30E947903C093B9088091BC0214
:104400009091BD02A091BE02B091BF0280930C09B1
:1044100090930D09A0930E09B0930F098093100992
:1044200090931109A0931209B09313098091C802C7
:104430009091C902A091CA02B091CB028093DC088E
:104440009093DD08A093DE08B093DF088093E00826
:104450009093E108A093E208B093E3088093E40806
:104460009093E508A093E608B093E70888E0E0E3BE
:10447000F2E0ACEFB8E001900D928A95E1F788E0A8
:10448000E0E3F2E0A4E0B9E001900D928A95E1F753
:104490008091180290911902A0911A02B0911B020A
:1044A0008093E8089093E908A093EA08B093EB089A
:1044B0008091100290911102A0911202B09113020A
:1044C0008093EC089093ED08A093EE08B093EF086A
:1044D00080911C0290911D02A0911E02B0911F02BA
:1044E0008093F0089093F108A093F208B093F3083A
:1044F0008091140290911502A0911602B0911702BA
:104500008093F4089093F508A093F608B093F70809
:104510001092140910921509109216091092170999
:10452000E092F808F092F9080093FA081093FB085B
:1045300010921A091092180910921909E09278073E
:10454000F092790700937A0710937B07A8019701EF
:10455000609128087091290880912A0890912B0871
:104560000E942C34609328087093290880932A08AD
:1045700090932B08E0927C07F0927D0700937E07D2
:1045800010937F07A801970160912C0870912D0866
:1045900080912E0890912F080E942C3460932C0853
:1045A00070932D0880932E0890932F08A8019701EF
:1045B00060913008709131088091320890913308F1
:1045C0000E942C3460933008709331088093320835
:1045D00090933308A80197016091340870913508D1
:1045E00080913608909137080E942C3460933408EB
:1045F000709335088093360890933708A801970187
:10460000609138087091390880913A0890913B0880
:104610000E942C34609338087093390880933A08CC
:1046200090933B088091330990913409A09135090A
:10463000B091360980931C0890931D08A0931E0822
:10464000B0931F088093200890932108A09322081C
:10465000B0932308A8019701609124087091250860
:1046600080912608909127080E942C34609324089A
:1046700070932508809326089093270880919308CB
:104680000E94FF0480918708CF911F910F91FF90A6
:10469000EF90BF90AF909F908F900C94FF0480910B
:1046A0008808811114C081E080938808809189086E
:1046B00090918A08A0918B08B0918C080197A10570
:1046C000B10529F480918D0881110E940C0580911B
:1046D0007C08811114C081E080937C0880917D0862
:1046E00090917E08A0917F08B09180080197A10564
:1046F000B10529F48091810881110E940C058091F7
:10470000AC0881112EC081E08093AC088091AD0887
:104710009091AE08A091AF08B091B0080197A105A3
:10472000B105F9F48091B1088823D9F06AE070E00E
:1047300080E090E00E9496019093B3088093B208C5
:1047400040E050E0BA010E945F016AE070E080E062
:1047500090E00E9496019093B3088093B2080E9463
:104760002B028091A40881112EC081E08093A408BF
:104770008091A5089091A608A091A708B091A808DB
:104780000197A105B105F9F48091A9088823D9F012
:1047900069E070E080E090E00E9496019093AB08A1
:1047A0008093AA0840E050E0BA010E945F0169E0EE
:1047B00070E080E090E00E9496019093AB088093B7
:1047C000AA080E942B028091CC08811103C081E0CD
:1047D0008093CC088091D408811103C081E080933C
:1047E000D40880919C0881112EC081E080939C08A0
:1047F00080919D0890919E08A0919F08B091A0087B
:104800000197A105B105F9F48091A1088823D9F099
:104810006CE070E080E090E00E9496019093A30825
:104820008093A20840E050E0BA010E945F016CE072
:1048300070E080E090E00E9496019093A30880933E
:10484000A2080E942B028091940881112EC081E061
:10485000809394088091950890919608A09197086C
:10486000B09198080197A105B105F9F480919908D4
:104870008823D9F06BE070E080E090E00E94960120
:1048800090939B0880939A0840E050E0BA010E9400
:104890005F016BE070E080E090E00E9496019093F1
:1048A0009B0880939A080E942B028091C408811172
:1048B00003C081E08093C4088091BC08811103C0CB
:1048C00081E08093BC088091B408811103C081E02D
:1048D0008093B408089560E070E080E89FE7089551
:1048E00060E070E080E89FE7089560E070E080E8B5
:1048F0009FEF089560E070E080E89FEF089560E02A
:1049000070E080EC9FEF089560E070E080EC9FEF36
:104910000895F5DF60933309709334098093350966
:1049200090933609F1DF60932709709328098093EB
:10493000290990932A09CFDF60932F0970933009DA
:104940008093310990933209CBDF60932B097093E8
:104950002C0980932D0990932E09C7DF60933709A6
:10496000709338098093390990933A09C3DF6093B3
:104970003B0970933C0980933D0990933E0908954B
:10498000CF92DF92EF92FF92CF936B017C01AC014B
:104990009B0160912F0970913009809131099091AC
:1049A00032090E949A31C1E0882371F0A701960173
:1049B00060913709709138098091390990913A09CD
:1049C0000E949A318111C0E08C2FCF91FF90EF901F
:1049D000DF90CF9008950F931F938B019C010027C8
:1049E000112720783F770115110520483F4749F4EA
:1049F000AB01BC016F77772781E0452B462B472B16
:104A000009F480E01F910F910895E5CF0C940A2FCF
:104A10000C94432F90E080E0089580917B04909166
:104A20007C04891B990B089590917C0480917B04F0
:104A30002FEF3FEF981748F4E92FF0E0E358FB4FD2
:104A4000208130E09F5F90937C04C9010895E0913C
:104A50007C0480917B04E81730F4F0E0E358FB4FCE
:104A6000808190E008958FEF9FEF0895089591E081
:104A70009093570480937A0410925904109258042A
:104A8000089510924A0481E08093480410924704EC
:104A900061E084E10E944E3961E085E10E944E3977
:104AA000E9EBF0E080818E7F808380818D7F808341
:104AB00088E48093B80085E48093BC000895109248
:104AC0007C0410927B041092590410925804D9CFA0
:104AD000413208F041C090914A049111FCCF91E01D
:104AE00090934A04209348042FEF2093DD03109203
:104AF0002204240F209321049093490490914904A7
:104B0000880F892B8093490480914704813011F5E7
:104B100010924704809149048093BB008091BC00AF
:104B200083FDF8CF85EC8093BC0080914A048130EE
:104B3000E1F380912204841710F440912204A3E24F
:104B4000B4E0962FFB018E2F891B841730F48D91D2
:104B50008193F9CF85EEE7CF40E0842F08950F933E
:104B6000413208F04BC090914A049111FCCF92E081
:104B700090934A04009348049FEF9093DD031092B2
:104B8000220440932104362FA3E2B4E0FB019E2FC0
:104B9000931B941718F491919D93F9CF10924904A7
:104BA00090914904880F892B809349048091470490
:104BB000813011F510924704809149048093BB0025
:104BC0008091BC0083FDF8CF85EC8093BC0022234C
:104BD00021F080914A048230D1F38091DD038F3F30
:104BE00079F08091DD03803269F08091DD038033BC
:104BF00059F084E00F91089585EEE7CF81E0FACF78
:104C000080E0F8CF82E0F6CF83E0F4CF0F93062F59
:104C100021E0409158046AE574E080917A049FDFB6
:104C20001092590410925804109257040F9108954D
:104C30004F925F926F927F92AF92BF92CF92EF921C
:104C4000FF920F931F93CF93DF935C01F62ED42F27
:104C500028013901EE2011F1862F09DFCE2DC43055
:104C600008F0C3E0C150B8F028E0C29FC001112491
:104C7000A301920104C056954795379527958A95CB
:104C8000D2F7B901D501ED91FC910190F081E02DB1
:104C9000C5011995E7CF60E0C501B8DF4D2FD132CE
:104CA00008F040E22C2D6DE774E08F2D11DF10929B
:104CB0007C0480937B04DF91CF911F910F91FF9033
:104CC000EF90CF90BF90AF907F906F905F904F909C
:104CD0000895CF92EF920F931F93C22EE12C00E024
:104CE00010E09801A5DF1F910F91EF90CF900895EC
:104CF00021E0EFCF61E08ACF2091FF03260F332719
:104D0000331F21323105E4F420914A042430D1F4D8
:104D1000FC0190E080E0861760F4A091FF032191F0
:104D2000AC014F5F5B4FA40FB52FB11D2C930196C3
:104D3000F2CF8091FF03680F6093FF0380E0089536
:104D400081E0089582E00895CF93DF931F92CDB75D
:104D5000DEB76983209157042223F9F0209158048B
:104D6000203258F021E030E0FC013383228390E0D0
:104D700080E00F90DF91CF91089580915904E82F42
:104D8000F0E0E65AFB4F998190838F5F809359043E
:104D90008093580481E090E0ECCF61E0CE01019671
:104DA000ABDFF8CFCF92DF92EF92FF920F931F937A
:104DB000CF93DF937C01CB018A01209157042223FA
:104DC00089F0EB016B01C40ED51ECC15DD0561F039
:104DD0006991D701ED91FC910190F081E02DC7011F
:104DE0001995F3CF642F88DFC801DF91CF911F9110
:104DF0000F91FF90EF90DF90CF90089585ED809315
:104E0000BC008091BC0084FDFCCF10924A04089540
:104E100085EC8093BC0010924A0408951F920F9273
:104E20000FB60F9211240BB60F922F933F934F930F
:104E30005F936F937F938F939F93AF93BF93EF9302
:104E4000FF938091B900887F803609F44CC008F048
:104E50003FC0883209F4A8C028F5803109F49CC00D
:104E6000C8F4882309F4F8C0883009F495C0FF918C
:104E7000EF91BF91AF919F918F917F916F915F91D2
:104E80004F913F912F910F900BBE0F900FBE0F903F
:104E90001F901895883109F487C0803241F78093BC
:104EA000DD0314C0803409F49CC040F48033B9F3AE
:104EB0008833E9F68093DD03ABDFD9CF803509F481
:104EC00084C0883509F495C0883489F697DFCFCF40
:104ED000883909F48CC038F5883729F050F48836C1
:104EE00011F0803721F683E080934A041092DE03AC
:104EF00057C0883809F47BC0803919F0803809F030
:104F0000B6CF8091DE03803208F071C0E091DE03FD
:104F100081E08E0F8093DE038091BB00F0E0E152D0
:104F2000FC4F80833DC0803B39F0E0F4803A09F4C7
:104F300079C0883A09F09BCF84E080934A041092AC
:104F400000041092FF03E0914504F0914604199586
:104F50008091FF0381110FC081E08093FF031092C5
:104F6000010409C0803C09F475C0883C09F472C092
:104F7000883B09F07CCFE091000481E08E0F8093A4
:104F80000004F0E0EF5FFB4F80818093BB009091C5
:104F900000048091FF0329C0809149048093BB00E5
:104FA00085EC8093BC0063CF909122048091210412
:104FB000981758F5E091220481E08E0F8093220427
:104FC000F0E0ED5DFB4F8081E9CFE091220481E0CC
:104FD0008E0F809322048091BB00F0E0ED5DFB4FCB
:104FE000808390912204809121049817C8F285E86B
:104FF000D8CFE091220481E08E0F8093220480912B
:10500000BB00F0E0ED5DFB4F80838091480481118F
:105010005DCF81E08093470484EA8093BC001092C6
:105020004A0425CFF5DE8091DE03803230F4E09132
:10503000DE03F0E0E152FC4F10826091DE0370E08D
:10504000E0914304F09144048FED93E019951092A0
:10505000DE030DCF85ECE1CF1092DD0337CF0F9348
:105060001F93CF93DF93EC01062F142F8981FFDC70
:10507000602F8BE494E068DE612F8BE494E064DEC3
:105080008BE494E037DE8883DF91CF911F910F91FD
:1050900008951F93CF93DF93EC01162F462F4F7780
:1050A0006AE8DDDF1983DF91CF911F910895FF92A8
:1050B0000F931F93CF93DF93EC01F62E142F052F40
:1050C0008981D5DC6F2D8BE494E03EDE602F8BE48C
:1050D00094E03ADE612F8BE494E036DE8BE494E0DA
:1050E00009DE8883DF91CF911F910F91FF90089582
:1050F000CF92DF92EF92FF921F93CF93DF93EC0159
:10510000162F69017A018981B2DC612F8BE494E06A
:105110001BDE6F2D7727882799278BE494E014DE18
:10512000B701882799278BE494E00EDE99278F2D0D
:105130007E2D6D2D8BE494E007DE6C2D8BE494E0E6
:1051400003DE8BE494E0D6DD8883DF91CF911F915D
:10515000FF90EF90DF90CF9008951F93CF93DF9350
:10516000EC01162F898183DC612F8BE494E0ECDD68
:105170008BE494E0BFDD888341E069818BE494E0B7
:10518000B7DD8BE494E050DCDF91CF911F9108955F
:105190001F93CF93DF93EC01162F898168DC612F79
:1051A0008BE494E0D1DD8BE494E0A4DD888342E0DD
:1051B00069818BE494E09CDD8BE494E035DCD82FAE
:1051C00080E0C82F8BE494E02FDC8C2B9D2BDF91AB
:1051D000CF911F910895DF92EF92FF920F931F934B
:1051E000CF93DF937C01C62FD42E052F122FFC0105
:1051F00081813DDC6C2F8BE494E0A6DDCD2DD02F9A
:10520000115028F069918BE494E09EDDF9CF8BE496
:1052100094E070DDF7018083DF91CF911F910F91B2
:10522000FF90EF90DF900895EF92FF920F931F93FE
:10523000CF93DF93EC01E62EF42E052F122F8981F8
:1052400016DC6E2D8BE494E07FDD8BE494E052DD80
:105250008883412F69818BE494E04ADDCF2DD02FE4
:10526000115028F08BE494E0DFDB8993F9CFDF91D4
:10527000CF911F910F91FF90EF90089561157105E7
:1052800029F460E56ADF8F5F880F0895613071054A
:1052900011F460E7F7CF8FEF0895CF92DF92EF928E
:1052A000FF92CF93DF93EC016A017B0141E060E85C
:1052B000D6DE41E06FEFCE01D2DE40E060E0CE010D
:1052C000CEDE4F8161E9CE01CADE41E060E0CE0171
:1052D000C6DE40E06FEFCE01C2DE40E060E8CE0106
:1052E000BEDE42E0C114D104E104F10491F068EFA4
:1052F000CE014EDF009739F0DC01A70196010E9434
:105300003C3D6B017C01A701960164E0CE01F0DE1B
:1053100044E060E0CE01DF91CF91FF90EF90DF900D
:10532000CF909DCE0F931F93CF93DF93EC010E94FC
:105330000F377E836D8363E1CE010FDF8770C9F481
:105340008A819B81892BB9F30E940F372D813E8181
:10535000621B730B8A819B818617970760F781E038
:105360008C830FEF1FEFC801DF91CF911F910F9139
:1053700008956EE1CE010CDF8C0141E06BE0CE01BF
:105380006EDEF1CFEF92FF920F931F93CF93DF93D7
:10539000EC017B018A0141E060E861DE41E06FEFF2
:1053A000CE015DDE40E060E0CE0159DE46E06FEF09
:1053B000CE0155DE63E8CE01D0DE482F446063E8BD
:1053C000CE014DDE47E06FEFCE0149DE41E061E8FE
:1053D000CE0145DE41E060E8CE0141DE4BE664E906
:1053E000CE013DDE40E063E8CE0139DE0E940F379A
:1053F0007E836D8363E8CE01B0DE811111C08A81A6
:105400009B81892BB9F30E940F372D813E81621B4E
:10541000730B8A819B818617970760F780E031C004
:1054200041E063E8CE011BDE62E9CE0196DE982FF3
:105430009F77F7019083881F8827881FF801808352
:1054400040E061E8CE010BDE46E06FEFCE0107DE03
:1054500063E8CE0182DE482F4B7F63E8CE01FFDD9B
:1054600041E06FEFCE01FBDD41E060E0CE01F7DD12
:1054700040E06FEFCE01F3DD40E060E8CE01EFDD0C
:1054800081E0DF91CF911F910F91FF90EF900895F0
:10549000CF93DF93EB0161E060DE84FB992790F905
:1054A000988383FB992790F99A8382FB992790F937
:1054B000998386FB992790F99B83881F8827881FEB
:1054C0008C83DF91CF9108959C013327A90102C0FD
:1054D000440F551F9A95E2F7CA01019608950F935C
:1054E0001F930097B9F00197B0E0A0E050E040E0D2
:1054F0008C019D010027012B022B032B39F0B6955F
:10550000A795979587954F5F5F4FF2CF342F22274E
:10551000822B932B1F910F9108954F925F926F9260
:105520007F928F929F92AF92BF92CF92DF92EF9233
:10553000FF925C01A62FB0E020E03FE24AE350E09A
:105540000E943C3D6B017C0124EFC20E21E0D21E83
:10555000E11CF11C88EE482E83E0582E612C712C42
:10556000C701B601A30192010E94123DD5010E941C
:105570003C3D4B015C01C701B60120ED37E040E046
:1055800050E00E94123DC501B401620F731F841FD9
:10559000951FA30192010E94123DCA01B901FF901B
:1055A000EF90DF90CF90BF90AF909F908F907F90C3
:1055B0006F905F904F900895EF92FF920F931F931B
:1055C000CF93DF938C017B01EA0170E060E056DE4F
:1055D00090E09983888366E4C801BFDD90E001967E
:1055E0009D838C83688199DF6A877B878C879D8701
:1055F00061E5C801CDDD68DF9F838E8368818DDF23
:105600006E877F87888B998B60E7C801A6DD8F5FE7
:10561000880F90E09B838A8361E7C801B9DD54DF7E
:1056200099878887F7012381222331F02E813F81DA
:10563000821B930B998788876A81888599856DDF9E
:105640006A8B7B8B8C8B9D8BDF91CF911F910F9100
:10565000FF90EF900895CF92DF92EF92FF920F9319
:105660001F93CF93DF93CDB7DEB76B970FB6F89448
:10567000DEBF0FBECDBF8C01BE01695E7F4F08DF6C
:10568000AE014F5F5F4FBE01695E7F4FC80194DF7F
:105690008F89882309F454C06B857C858D859E8510
:1056A0006C57724F8F4F9F4F298D222309F44DC0A5
:1056B000CB84DC84ED84FE8422EBC20E22E0D21E79
:1056C000E11CF11CCC0CDD1CEE1CFF1C6C0D7D1DC7
:1056D0008E1D9F1D2A8D222371F0CF84D888E988E2
:1056E000FA88F4E9CF0EF2E0DF1EE11CF11C6C0D2C
:1056F0007D1D8E1D9F1D2B8D222371F0CB88DC8894
:10570000ED88FE8826E2C20E22E0D21EE11CF11CCA
:105710006C0D7D1D8E1D9F1DF8016087718782872E
:1057200093876B960FB6F894DEBF0FBECDBFDF91A7
:10573000CF911F910F91FF90EF90DF90CF90089540
:1057400066E37BE080E090E0AFCF288D222311F26A
:10575000CB84DC84ED84FE84E4E9CE0EE2E0DE1E40
:10576000E11CF11CB3CF8F929F92AF92BF92CF9268
:10577000DF92EF92FF924B015C01A42FB0E020E09A
:105780003FE24AE350E00E943C3D6B017C0124EF84
:10579000C20E21E0D21EE11CF11CA8EEB3E0A5016F
:1057A00094010E943C3D4B015C01C701B60120ED14
:1057B00037E040E050E00E94123D820E931EA41E8E
:1057C000B51EC701B60128EE33E040E050E00E946C
:1057D000123DC501B4010E94123DCA01B901FF90FA
:1057E000EF90DF90CF90BF90AF909F908F900895F3
:1057F0008F929F92AF92BF92CF92DF92EF92FF92E1
:105800000F931F93CF93DF93CDB7DEB76B970FB690
:10581000F894DEBF0FBECDBF40322EE452076105C3
:10582000710508F48DC04A015B017C01BE01695E0F
:105830007F4F2EDEAE014F5F5F4FBE01695E7F4F2F
:10584000C701BADE8F8908EE18E020E030E0882337
:1058500041F00B851C852D853E850A5C144F2F4F2A
:105860003F4F898D882309F45BC08B859C85AD856E
:10587000BE858E549D4FAF4FBF4F880F991FAA1FF3
:10588000BB1F080F191F2A1F3B1FCA8CCC2061F0B9
:105890008F859889A989BA898C569D4FAF4FBF4F84
:1058A000080F191F2A1F3B1FDB8CDD2009F445C0A0
:1058B0000A5D1D4F2F4F3F4F80169106A206B3067B
:1058C00008F43EC0C501B401601B710B820B930B41
:1058D0004B8149DF9B01CC2021F02F813885260F99
:1058E000371FC901FCDDAC0161E7C701E0DBF7014F
:1058F00080869186A286B3868D2D6B960FB6F8941E
:10590000DEBF0FBECDBFDF91CF911F910F91FF90F2
:10591000EF90DF90CF90BF90AF909F908F900895C1
:10592000888D882309F4B1CF8B859C85AD85BE8594
:105930008C569D4FAF4FBF4FA4CFDD24D394DCCF07
:10594000D12CDACFCF93DF93EC01462F416060E09A
:1059500086DB0E940F377E836D8363E1CE01FDDB22
:10596000877089F48A819B81892BB9F30E940F3754
:105970002D813E81621B730B8A819B81861797075D
:1059800060F780E009C041E06BE0CE0168DB40E0F9
:1059900060E0CE0164DB81E0DF91CF910895EF926A
:1059A000FF920F931F93CF93DF9300D000D01F92ED
:1059B0001F92CDB7DEB78C01662339F069E8CDDBE5
:1059C000482F416069E8C8014ADB40E068E8C80147
:1059D00046DB41E060E8C80142DB41E06FEFC8010F
:1059E0003EDB40E060E0C8013ADB61E9C801B5DBBD
:1059F000F801878341E060E0C80131DB40E06FEFF0
:105A0000C8012DDB40E060E8C80129DB60E6C80181
:105A1000A4DB482F426160E6C80121DB40E250E090
:105A200064E4C80144DB4FEF61E0C80118DBAE015C
:105A3000495F5F4FBE01685F7F4FC801A3DC8111E2
:105A40000FC0F12C8F2D28960FB6F894DEBF0FBE35
:105A5000CDBFDF91CF911F910F91FF90EF900895EF
:105A600026E0AE014F5F5F4F60EBC801DDDB41E038
:105A70006FEFC801F4DA40E06FE4C801F0DA4CE2FD
:105A80006EE4C801ECDA40E06FEFC801E8DA44EBFD
:105A900066EBC801E4DA8F81ACE0811101C0A0E0BF
:105AA000B88580E090E0EE24E394F12C482F4695F1
:105AB0004695469550E021E030E02C0F3D1F240F25
:105AC000351FF9012081682F67708A1710F0B9130C
:105AD00097C1E1E0F0E0EC0FFD1F4E0F5F1FF701F3
