:10000000F9C0000028C1000026C1000024C1000082
:1000100022C1000020C100001EC100001CC1000060
:100020001AC1000018C1000016C1000014C1000070
:1000300012C1000010C100000EC100000CC1000080
:100040000AC1000008C1000006C1000004C1000090
:1000500002C1000000C10000FEC000000C94381670
:10006000FAC000000C94181A0C944E1AF4C0000048
:10007000F2C00000F0C00000EEC00000ECC00000C4
:10008000EAC00000E8C00000E6C00000E4C00000D4
:100090000C94A41A0C94DA1ADEC000000C94CC0A5A
:1000A000DAC00000D8C00000D6C00000D4C00000F4
:1000B000D2C00000D0C00000CEC00000CCC0000004
:1000C000CAC00000C8C000000C94A8130C94301BD8
:1000D0000C94661BC0C000000C94BC1B0C94F21B5B
:1000E000BAC0000000000A0B02090C0D0E0807033D
:1000F00004010000000000000000000000000000FB
:1001000000000000000000000000000000000000EF
:1001100012111000000000000000000000000000AC
:100120000000000000000000000001021020200874
:100130000810204010204080020102010804020142
:1001400001020408102040808040201008040201B1
:10015000800402018040201008040201080402010A
:100160000102040810204080010204081020408091
:1001700005050505070508080808020202020A0A23
:100180000808040404040101010101010101030341
:10019000030303030303040707070C0C0C0C0C0CEC
:1001A0000C0C0202020206060606060606060B0BE9
:1001B0000B0B0B0B0B0B00002200250028002B0063
:1001C0002E003100340002010000050108010B017E
:1001D00000002100240027002A002D0030003300F9
:1001E00001010000040107010A016813771A031BCB
:1001F0008F1B1B1C11241FBECFEFD1E2DEBFCDBF72
:1002000000E00CBF12E0A0E0B2E0E6E7F9E300E0B6
:100210000BBF02C007900D92A238B107D9F726E0B4
:10022000A2E8B2E001C01D92AE35B207E1F710E0DE
:10023000CAEFD0E000E006C021970109802FFE013F
:100240000E94981CC53FD10780E00807A9F70E94CB
:100250004C140C94B91CD4CE611102C00C948518B6
:100260006130E1F362E0FACF662319F061E00C94AB
:10027000C11860E0FCCFCF92DF92EF92FF92CF9354
:10028000882351F16A017B01CFEFC80F20E030E0F5
:10029000A901CB01B6010E94EA1418168CF0C7011F
:1002A000B60190580E94F3149B01AC016C2F70E0D2
:1002B00090E080E0CF91FF90EF90DF90CF90B2C0C0
:1002C000C701B6010E94EE148C2FCF91FF90EF90E2
:1002D000DF90CF900C944B17CF91FF90EF90DF9071
:1002E000CF9008950F931F938B019C0183E0369567
:1002F0002795179507958A95D1F70E571D4F462FCD
:10030000477021E030E0F90102C0EE0FFF1F4A956F
:10031000E2F7AF01F80120812423CB0101962111DE
:1003200002C090E080E01F910F9108950F931F93FA
:100330008B019C0183E036952795179507958A9543
:10034000D1F7677081E090E001C0880F6A95EAF705
:10035000F801EE57FD4F2081452B31F48095822323
:1003600080831F910F910895822BFACF2F923F9295
:100370004F925F926F927F928F929F92AF92BF92B5
:10038000CF92DF92EF92FF920F931F93CF93DF9361
:10039000D62EC72E782E692E49015A01280161E018
:1003A0008D2D0E948518CD2DDC2D8E010F5F1F4FE6
:1003B000A8016D2D7C2D872D962DB8DF20E030E033
:1003C000A901C201B7010E94D115181664F4C20137
:1003D000B7010E94F3142B01C501B4010E94F3146C
:1003E000A201CE0123D0C801DF91CF911F910F91BF
:1003F000FF90EF90DF90CF90BF90AF909F908F9045
:100400007F906F905F904F903F902F90089588233A
:1004100041F08150682F70E090E080E050E040E0D3
:1004200085CF0895862FB9010C944B179C01FC01D0
:10043000EC51FF4FE491E150E231E0F4F0E0882725
:10044000EB5DFD4F8F4F0C94981C37023E0241022A
:1004500058026D023A0282028E029202A902BE0284
:10046000D302EA02FF023A0214032B03400384B5CD
:10047000806884BD60E0822F0C94C11884B58062CE
:10048000F8CF809180008C7F826080938000809183
:100490008100807E8061682B60938100509387008B
:1004A0004093860080918000806880938000E2CF36
:1004B000809180008C7F8260809380008091810099
:1004C000807E8061682B6093810050938700409309
:1004D0008600809180008062E8CF809180008C7FD0
:1004E00082608093800080918100807E8061682B93
:1004F0006093810050938700409386008091800034
:100500008860D3CF8091B00080688093B0008091E4
:10051000B100887F682B6093B100ACCF8091B000B0
:100520008062F3CF809190008C7F826080939000F6
:1005300080919100807E8061682B60939100509340
:10054000970040939600809190008068809390007F
:1005500091CF809190008C7F8260809390008091F9
:100560009100807E8061682B60939100509397008A
:1005700040939600809190008062E8CF8091900037
:100580008C7F82608093900080919100807E80615A
:10059000682B609391005093970040939600809150
:1005A00090008860D3CF8091A0008C7F8260809380
:1005B000A0008091A100807E8061682B6093A100E3
:1005C0005093A7004093A6008091A000806880937C
:1005D000A00050CF8091A0008C7F82608093A0000B
:1005E0008091A100807E8061682B6093A100509370
:1005F000A7004093A6008091A0008062E8CF809180
:10060000A0008C7F82608093A0008091A100807EFA
:100610008061682B6093A1005093A7004093A600CF
:100620008091A0008860D3CF809120018C7F826070
:100630008093200180912101807E8061682B6093EE
:100640002101509327014093260180912001806869
:10065000809320010FCF809120018C7F8260809356
:10066000200180912101807E8061682B60932101AF
:100670005093270140932601809120018062E8CFAA
:10068000809120018C7F82608093200180912101E4
:10069000807E8061682B60932101509327014093F5
:1006A0002601809120018860D3CFFC0191E08091E8
:1006B0008E02811190E0918308952F923F924F9284
:1006C0005F926F927F928F929F92AF92BF92CF92E2
:1006D000DF92EF92FF920F931F93CF93DF9300D09F
:1006E00000D01F92CDB7DEB780918E0291E08111CC
:1006F00090E090938F0291E0980F9A3008F01BC31E
:1007000090938E02811120C08091470690914806F7
:10071000A0914906B0914A068093EB059093EC05B1
:10072000A093ED05B093EE0580914B0690914C0699
:10073000A0914D06B0914E068093EF059093F00581
:10074000A093F105B093F205C090EB05D090EC05B5
:10075000E090ED05F090EE0580910002909101028D
:10076000A0910202B091030289839A83AB83BC8378
:100770008090EF059090F005A090F105B090F20503
:1007800040900402509005026090060270900702AB
:1007900091E09D8329813A814B815C81C701B6013B
:1007A0000E94D11587FD1D8281E03D80382611E031
:1007B000A3019201C501B4010E94D11587FD10E08B
:1007C00081E01827012F311001C000E0A02FB0E018
:1007D000BE83AD83332061F0A3019201C501B40152
:1007E0000E94D11587FD04C021E030E03E832D83B7
:1007F0008D819E81880F991F9E838D8329813A81E7
:100800004B815C81C701B6010E94D11587FD96C25C
:1008100033243394212CA3019201C501B4010E9419
:10082000D11587FD312C832D922DAD81BE81A82B52
:10083000B92BAA0FBB1FBE83AD8329813A814B819F
:100840005C81C701B6010E94D11587FD10E02D81A2
:100850003E81212B220F331F322E302A032D069585
:10086000302F3170232E10E0C801969587959E8316
:100870008D83409014025090150260901602709083
:1008800017028091180290911902A0911A02B0915A
:100890001B0289839A83AB83BC83A3019201C501A8
:1008A000B4010E94861429813A814B815C810E94A7
:1008B000D5154B015C01A3019201C701B6010E944D
:1008C000861429813A814B815C810E94D5153B01B8
:1008D0006C01E0901C02F0901D0290911E029F831B
:1008E000A0911F02A9839301A601B701892F9A2F16
:1008F0000E94EA1487FD16C0E0902002F0902102C9
:10090000B0912202BF832091230229839301A60183
:10091000B7018B2F99810E94D11518161CF0730115
:10092000CF82D98220912402309125024091260263
:1009300050912702B7018F8199810E94D5156F834D
:1009400079836C016AE070E080E090E0CBDC7C01B0
:1009500090934206809341064090280250902902CD
:1009600060902A0270902B022F813981A601B2017A
:10097000C3010E94EA1487FD14C040902C025090DD
:100980002D0260902E0270902F022F813981A601D6
:10099000B201C3010E94D11518161CF04F80598076
:1009A000360120E030E04FE753E4B201C3010E947A
:1009B000EA1418160CF4C5C120E030E0A901B20118
:1009C000C3010E94D11587FDC3C1A201B301C701B4
:1009D00052DC69E070E080E090E084DC7C01909380
:1009E0003A06809339064090300250903102609070
:1009F0003202709033022F813981A601C301B20106
:100A00000E94EA1487FD14C04090340250903502D1
:100A100060903602709037022F813981A601C301A0
:100A2000B2010E94D11518161CF04F805980360172
:100A3000E89477F820E030E04FE753E4C301B201D7
:100A40000E94EA14181634F4412C512C4FE7642EFE
:100A500043E4742EB301A201C7010DDCFF24F3941B
:100A60002F813981A60160910C0270910D02809155
:100A70000E0290910F020E94EA14811101C0F12C24
:100A80006F2D88E0F1DBE0901C02F0901D023091A8
:100A90001E023F8380911F0289839401A501B70143
:100AA0008F8199810E94EA1487FD16C0E090200290
:100AB000F0902102909122029F83A0912302A983AA
:100AC0009401A501B701892F9A2F0E94D1151816FC
:100AD0001CF07401AF82B982209138023091390242
:100AE00040913A0250913B02B7018F8199810E9457
:100AF000D5154B015C01B1E0B9839B01AC0160915C
:100B000008027091090280910A0290910B020E94E2
:100B1000EA14811101C0198269818DE0A5DB6CE0C6
:100B200070E080E090E0DEDB9A8389839093320668
:100B300080933106C0903C02D0903D02E0903E028E
:100B4000F0903F029401A501B601C7010E94EA148A
:100B500087FD12C0C0904002D0904102E090420256
:100B6000F09043029401A501B601C7010E94D1157E
:100B7000181614F06401750120E030E04FE753E4EB
:100B8000B601C7010E94EA1418160CF4E6C020E072
:100B900030E0A901B601C7010E94D11587FDE4C06C
:100BA000A601B70189819A8166DB6BE070E080E085
:100BB00090E098DB9A83898390932A068093290694
:100BC000C0904402D0904502E0904602F090470267
:100BD0009401A501C701B6010E94EA1487FD12C065
:100BE000C0904802D0904902E0904A02F0904B0237
:100BF0009401A501C701B6010E94D115181614F081
:100C000064017501E894F7F820E030E04FE753E421
:100C1000C701B6010E94EA14181634F4C12CD12C75
:100C20009FE7E92E93E4F92EB701A60189819A8105
:100C300022DBC0904F06D0905006E0905106F09015
:100C40005206C701B6010E9421152B013C012091DB
:100C500054023091550240915602509157020E9421
:100C6000EA1487FF86C0F7FC84C080904C02909005
:100C70004D02A0904E02B0904F0220E030E040E8DC
:100C80005FE3609150027091510280915202909105
:100C900053020E9485149B01AC01C301B2010E9462
:100CA000D11587FD6AC010924F061092500610921F
:100CB00051061092520630FE6EC031E0398320E0BA
:100CC00030E0A901C501B4010E94EA148111198222
:100CD00099819F83169507951695079560E0012BDE
:100CE00009F0698180E3C0DAAD81A0FF19826981D2
:100CF00082E3BADA222021F061E0BF81B11101C0A4
:100D000060E084E327960FB6F894DEBF0FBECDBF38
:100D1000DF91CF911F910F91FF90EF90DF90CF90D7
:100D2000BF90AF909F908F907F906F905F904F900B
:100D30003F902F9099CA10928E02E4CC90E080E010
:100D400074CD412C512C5FE7652E63E4762E3DCEA9
:100D5000412C512C612C712C38CEC12CD12C2FE779
:100D6000E22E33E4F32E1CCFC12CD12CE12CF12C3C
:100D700017CF812C912C540180CF2FEFC21AD20AA9
:100D8000E20AF20AC0924F06D0925006E092510653
:100D9000F092520690CF81E089839ACF43E456E0E7
:100DA00067EF75E083EF95E0EFD1EBEEF5E080853E
:100DB0009185A285B3858093470690934806A093BA
:100DC0004906B0934A0684859585A685B7858093A4
:100DD0004B0690934C06A0934D06B0934E0643E409
:100DE00056E067EF75E083EF95E0D0C14F925F92D8
:100DF0006F927F92AF92BF92DF92EF92FF920F932A
:100E00001F93CF93DF93EBE8F2E085E0DF011D92C3
:100E10008A95E9F7E3EFF5E088E0DF011D928A9516
:100E2000E9F7CBEFD5E081E6FE0111928A95E9F76B
:100E300080E0A82E82E0B82EF50180899189A289F0
:100E4000B389EBEEF5E080839183A283B38384833F
:100E50009583A683B783DD24D394D0925806412C82
:100E6000512C3201439440923C0650923D066092D0
:100E70003E0670923F06E12CF12C8701A8019701F4
:100E80006AE070E080E090E071DA9093420680932F
:100E90004106D092400618AED092570649AE5AAEDF
:100EA0006BAE7CAEA801970169E070E080E090E055
:100EB0005DDA9FAF8EAFDDAE1882D09255064982C3
:100EC0005A826B827C8261E088E0C6D9DD82188616
:100ED000D092560649865A866B867C8661E08DE004
:100EE000BBD9DD8618AAD092540649AA5AAA6BAA81
:100EF0007CAAA80197016CE070E080E090E036DA0F
:100F00009FAB8EABDDAA18A6D092530649A65AA66F
:100F10006BA67CA6A80197016BE070E080E090E0F2
:100F200025DA9FA78EA7DDA618A2D0925B0649A25C
:100F30005AA26BA27CA261E080E38ED9DDA2188E5A
:100F4000D0925A06498E5A8E6B8E7C8E61E082E377
:100F500083D9DD8E188AD0925906498A5A8A6B8ABB
:100F60007C8A61E084E378D9DD8AF5018089918902
:100F7000A289B3898093470690934806A0934906B7
:100F8000B0934A0680934B0690934C06A0934D066F
:100F9000B0934E0610924F061092500610925106D2
:100FA00010925206E0924306F092440600934506E2
:100FB00010934606DF91CF911F910F91FF90EF9014
:100FC000DF90BF90AF907F906F905F904F900895AB
:100FD00080913B0681112AC081E080933B0680917D
:100FE0003C0690913D06A0913E06B0913F060197C8
:100FF000A105B105D9F4809140068823B9F06AE0D3
:1010000070E080E090E06ED99093420680934106B4
:1010100040E050E0BA012FD96AE070E080E090E053
:1010200061D99093420680934106F1D980913306AD
:1010300081112AC081E0809333068091340690911B
:101040003506A0913606B09137060197A105B10586
:10105000D9F4809138068823B9F069E070E080E027
:1010600090E040D990933A068093390640E050E0F2
:10107000BA0101D969E070E080E090E033D9909343
:101080003A0680933906C3D98091FB05811103C0CC
:1010900081E08093FB0580910306811103C081E00C
:1010A0008093030680912B0681112AC081E08093F2
:1010B0002B0680912C0690912D06A0912E06B091C2
:1010C0002F060197A105B105D9F480913006882338
:1010D000B9F06CE070E080E090E004D990933206C3
:1010E0008093310640E050E0BA01C5D86CE070E072
:1010F00080E090E0F7D8909332068093310687D94C
:101100008091230681112AC081E08093230680917B
:10111000240690912506A0912606B09127060197F6
:10112000A105B105D9F4809128068823B9F06BE0B8
:1011300070E080E090E0D6D890932A06809329064C
:1011400040E050E0BA0197D86BE070E080E090E0BA
:10115000C9D890932A068093290659D980911B06F5
:10116000811103C081E080931B06809113068111D9
:1011700003C081E08093130680910B06811103C0A8
:1011800081E080930B0608950C94C6120C94FF1214
:1011900090E080E008958091460390914703891B79
:1011A000990B089590914703809146032FEF3FEFED
:1011B000981748F4E92FF0E0E85BFC4F208130E01D
:1011C0009F5F90934703C9010895E0914703809181
:1011D0004603E81730F4F0E0E85BFC4F808190E0D4
:1011E00008958FEF9FEF0895089591E09093220363
:1011F00080934503109224031092230308951092C4
:10120000150381E0809313031092120361E084E1DF
:101210000E94C11861E085E10E94C118E9EBF0E08D
:1012200080818E7F808380818D7F808388E480931E
:10123000B80085E48093BC00089510924703109293
:1012400046031092240310922303D9CF413208F0B1
:1012500041C0909115039111FCCF91E0909315033B
:10126000209313032FEF2093A8021092ED02240F76
:101270002093EC029093140390911403880F892B10
:101280008093140380911203813011F510921203A0
:10129000809114038093BB008091BC0083FDF8CF44
:1012A00085EC8093BC00809115038130E1F380913F
:1012B000ED02841710F44091ED02AEEEB2E0962FED
:1012C000FB018E2F891B841730F48D918193F9CF08
:1012D00085EEE7CF40E0842F08950F93413208F068
:1012E0004BC0909115039111FCCF92E090931503A0
:1012F000009313039FEF9093A8021092ED02409386
:10130000EC02362FAEEEB2E0FB019E2F931B94173A
:1013100018F491919D93F9CF1092140390911403B6
:10132000880F892B8093140380911203813011F56B
:1013300010921203809114038093BB008091BC0033
:1013400083FDF8CF85EC8093BC00222321F08091AF
:1013500015038230D1F38091A8028F3F79F08091FC
:10136000A802803269F08091A802803359F084E0AD
:101370000F91089585EEE7CF81E0FACF80E0F8CFB6
:1013800082E0F6CF83E0F4CF0F93062F21E0409167
:10139000230365E273E0809145039FDF10922403ED
:1013A00010922303109222030F9108954F925F929F
:1013B0006F927F92AF92BF92CF92EF92FF920F9374
:1013C0001F93CF93DF935C01F62ED42F28013901B0
:1013D000EE2011F1862F09DFCE2DC43008F0C3E0D6
:1013E000C150B8F028E0C29FC0011124A3019201AE
:1013F00004C056954795379527958A95D2F7B90138
:10140000D501ED91FC910190F081E02DC501199578
:10141000E7CF60E0C501B8DF4D2FD13208F040E2E0
:101420002C2D68E473E08F2D11DF10924703809319
:101430004603DF91CF911F910F91FF90EF90CF90D6
:10144000BF90AF907F906F905F904F900895CF9234
:10145000EF920F931F93C22EE12C00E010E0980151
:10146000A5DF1F910F91EF90CF90089521E0EFCF6E
:1014700061E08ACF2091CA02260F3327331F213221
:101480003105E4F4209115032430D1F4FC0190E0FF
:1014900080E0861760F4A091CA022191AC01445308
:1014A0005D4FA40FB52FB11D2C930196F2CF809103
:1014B000CA02680F6093CA0280E0089581E008952F
:1014C00082E00895CF93DF931F92CDB7DEB7698393
:1014D000209122032223F9F020912303203258F097
:1014E00021E030E0FC013383228390E080E00F9024
:1014F000DF91CF91089580912403E82FF0E0EB5D18
:10150000FC4F998190838F5F809324038093230302
:1015100081E090E0ECCF61E0CE010196ABDFF8CF47
:10152000CF92DF92EF92FF920F931F93CF93DF93AF
:101530007C01CB018A0120912203222389F0EB0157
:101540006B01C40ED51ECC15DD0561F06991D70184
:10155000ED91FC910190F081E02DC7011995F3CF39
:10156000642F88DFC801DF91CF911F910F91FF9009
:10157000EF90DF90CF90089585ED8093BC0080912F
:10158000BC0084FDFCCF10921503089585EC809378
:10159000BC001092150308951F920F920FB60F9280
:1015A00011240BB60F922F933F934F935F936F933A
:1015B0007F938F939F93AF93BF93EF93FF9380910C
:1015C000B900887F803609F44CC008F03FC08832EB
:1015D00009F4A8C028F5803109F49CC0C8F4882318
:1015E00009F4F8C0883009F495C0FF91EF91BF91DC
:1015F000AF919F918F917F916F915F914F913F91AB
:101600002F910F900BBE0F900FBE0F901F9018954B
:10161000883109F487C0803241F78093A80214C052
:10162000803409F49CC040F48033B9F38833E9F680
:101630008093A802ABDFD9CF803509F484C0883508
:1016400009F495C0883489F697DFCFCF883909F43B
:101650008CC038F5883729F050F4883611F080377F
:1016600021F683E0809315031092A90257C08838B1
:1016700009F47BC0803919F0803809F0B6CF809129
:10168000A902803208F071C0E091A90281E08E0FBA
:101690008093A9028091BB00F0E0E655FD4F808366
:1016A0003DC0803B39F0E0F4803A09F479C0883AD3
:1016B00009F09BCF84E0809315031092CB02109227
:1016C000CA02E0911003F091110319958091CA02AA
:1016D00081110FC081E08093CA021092CC0209C030
:1016E000803C09F475C0883C09F472C0883B09F05D
:1016F0007CCFE091CB0281E08E0F8093CB02F0E0B3
:10170000E453FD4F80818093BB009091CB02809188
:10171000CA0229C0809114038093BB0085EC80939A
:10172000BC0063CF9091ED028091EC02981758F5C0
:10173000E091ED0281E08E0F8093ED02F0E0E25146
:10174000FD4F8081E9CFE091ED0281E08E0F809323
:10175000ED028091BB00F0E0E251FD4F808390915B
:10176000ED028091EC029817C8F285E8D8CFE0919D
:10177000ED0281E08E0F8093ED028091BB00F0E0DE
:10178000E251FD4F80838091130381115DCF81E091
:101790008093120384EA8093BC001092150325CF36
:1017A000F5DE8091A902803230F4E091A902F0E0E8
:1017B000E655FD4F10826091A90270E0E0910E03A2
:1017C000F0910F038AEA92E019951092A9020DCFC9
:1017D00085ECE1CF1092A80237CF0F931F93CF93E0
:1017E000DF93EC01062F142F8981FFDC602F86E147
:1017F00093E068DE612F86E193E064DE86E193E0AA
:1018000037DE8883DF91CF911F910F9108951F9349
:10181000CF93DF93EC01162F462F4F776AE8DDDF79
:101820001983DF91CF911F910895FF920F931F931A
:10183000CF93DF93EC01F62E142F052F8981D5DC91
:101840006F2D86E193E03EDE602F86E193E03ADE85
:10185000612F86E193E036DE86E193E009DE88833E
:10186000DF91CF911F910F91FF900895CF92DF925A
:10187000EF92FF921F93CF93DF93EC01162F690134
:101880007A018981B2DC612F86E193E01BDE6F2D46
:1018900077278827992786E193E014DEB701882708
:1018A000992786E193E00EDE99278F2D7E2D6D2DF1
:1018B00086E193E007DE6C2D86E193E003DE86E1AE
:1018C00093E0D6DD8883DF91CF911F91FF90EF9059
:1018D000DF90CF9008951F93CF93DF93EC01162FE5
:1018E000898183DC612F86E193E0ECDD86E193E082
:1018F000BFDD888341E0698186E193E0B7DD86E161
:1019000093E050DCDF91CF911F9108951F93CF9307
:10191000DF93EC01162F898168DC612F86E193E06B
:10192000D1DD86E193E0A4DD888342E0698186E130
:1019300093E09CDD86E193E035DCD82F80E0C82F72
:1019400086E193E02FDC8C2B9D2BDF91CF911F91B3
:101950000895DF92EF92FF920F931F93CF93DF933F
:101960007C01C62FD42E052F122FFC0181813DDC76
:101970006C2F86E193E0A6DDCD2DD02F115028F0FD
:10198000699186E193E09EDDF9CF86E193E070DD19
:10199000F7018083DF91CF911F910F91FF90EF901E
:1019A000DF900895EF92FF920F931F93CF93DF93F1
:1019B000EC01E62EF42E052F122F898116DC6E2DF8
:1019C00086E193E07FDD86E193E052DD8883412F5D
:1019D000698186E193E04ADDCF2DD02F115028F0A8
:1019E00086E193E0DFDB8993F9CFDF91CF911F91FF
:1019F0000F91FF90EF9008956115710529F460E54E
:101A00006ADF8F5F880F08956130710511F460E718
:101A1000F7CF8FEF0895CF92DF92EF92FF92CF939F
:101A2000DF93EC016A017B0141E060E8D6DE41E032
:101A30006FEFCE01D2DE40E060E0CE01CEDE4F811E
:101A400061E9CE01CADE41E060E0CE01C6DE40E0E1
:101A50006FEFCE01C2DE40E060E8CE01BEDE42E0C4
:101A6000C114D104E104F10491F068EFCE014EDF1E
:101A7000009739F0DC01A70196010E94A01C6B01C0
:101A80007C01A701960164E0CE01F0DE44E060E055
:101A9000CE01DF91CF91FF90EF90DF90CF909DCE60
:101AA0000F931F93CF93DF93EC010E9482167E83E6
:101AB0006D8363E1CE010FDF8770C9F48A819B815A
:101AC000892BB9F30E9482162D813E81621B730B14
:101AD0008A819B818617970760F781E08C830FEFDF
:101AE0001FEFC801DF91CF911F910F9108956EE113
:101AF000CE010CDF8C0141E06BE0CE016EDEF1CF58
:101B0000EF92FF920F931F93CF93DF93EC017B0132
:101B10008A0141E060E861DE41E06FEFCE015DDE09
:101B200040E060E0CE0159DE46E06FEFCE0155DEC9
:101B300063E8CE01D0DE482F446063E8CE014DDE7D
:101B400047E06FEFCE0149DE41E061E8CE0145DEBE
:101B500041E060E8CE0141DE4BE664E9CE013DDEC6
:101B600040E063E8CE0139DE0E9482167E836D83F9
:101B700063E8CE01B0DE811111C08A819B81892B7F
:101B8000B9F30E9482162D813E81621B730B8A81FC
:101B90009B818617970760F780E031C041E063E8DA
:101BA000CE011BDE62E9CE0196DE982F9F77F7010A
:101BB0009083881F8827881FF801808340E061E8B0
:101BC000CE010BDE46E06FEFCE0107DE63E8CE010B
:101BD00082DE482F4B7F63E8CE01FFDD41E06FEFEF
:101BE000CE01FBDD41E060E0CE01F7DD40E06FEFCC
:101BF000CE01F3DD40E060E8CE01EFDD81E0DF9172
:101C0000CF911F910F91FF90EF900895CF93DF93A5
:101C1000EB0161E060DE84FB992790F9988383FBF8
:101C2000992790F99A8382FB992790F9998386FBEB
:101C3000992790F99B83881F8827881F8C83DF91C1
:101C4000CF9108959C013327A90102C0440F551F6D
:101C50009A95E2F7CA01019608950F931F93009792
:101C6000B9F00197B0E0A0E050E040E08C019D01A8
:101C70000027012B022B032B39F0B695A7959795DA
:101C800087954F5F5F4FF2CF342F2227822B932B04
:101C90001F910F9108954F925F926F927F928F9252
:101CA0009F92AF92BF92CF92DF92EF92FF925C0130
:101CB000A62FB0E020E03FE24AE350E00E94A01CE3
:101CC0006B017C0124EFC20E21E0D21EE11CF11C4D
:101CD00088EE482E83E0582E612C712CC701B60186
:101CE000A30192010E94761CD5010E94A01C4B0109
:101CF0005C01C701B60120ED37E040E050E00E94F2
:101D0000761CC501B401620F731F841F951FA301C8
:101D100092010E94761CCA01B901FF90EF90DF90FA
:101D2000CF90BF90AF909F908F907F906F905F907B
:101D30004F900895EF92FF920F931F93CF93DF93ED
:101D40008C017B01EA0170E060E056DE90E099834F
:101D5000888366E4C801BFDD90E001969D838C8393
:101D6000688199DF6A877B878C879D8761E5C801D9
:101D7000CDDD68DF9F838E8368818DDF6E877F87EF
:101D8000888B998B60E7C801A6DD8F5F880F90E094
:101D90009B838A8361E7C801B9DD54DF998788870F
:101DA000F7012381222331F02E813F81821B930B87
:101DB000998788876A81888599856DDF6A8B7B8B97
:101DC0008C8B9D8BDF91CF911F910F91FF90EF90A6
:101DD0000895CF92DF92EF92FF920F931F93CF93CC
:101DE000DF93CDB7DEB76B970FB6F894DEBF0FBEAB
:101DF000CDBF8C01BE01695E7F4F08DFAE014F5F32
:101E00005F4FBE01695E7F4FC80194DF8F898823D1
:101E100009F454C06B857C858D859E856C57724F07
:101E20008F4F9F4F298D222309F44DC0CB84DC8432
:101E3000ED84FE8422EBC20E22E0D21EE11CF11CD6
:101E4000CC0CDD1CEE1CFF1C6C0D7D1D8E1D9F1D22
:101E50002A8D222371F0CF84D888E988FA88F4E9A2
:101E6000CF0EF2E0DF1EE11CF11C6C0D7D1D8E1DFE
:101E70009F1D2B8D222371F0CB88DC88ED88FE8896
:101E800026E2C20E22E0D21EE11CF11C6C0D7D1D6B
:101E90008E1D9F1DF80160877187828793876B96DF
:101EA0000FB6F894DEBF0FBECDBFDF91CF911F916B
:101EB0000F91FF90EF90DF90CF90089566E37BE065
:101EC00080E090E0AFCF288D222311F2CB84DC8418
:101ED000ED84FE84E4E9CE0EE2E0DE1EE11CF11C9E
:101EE000B3CF8F929F92AF92BF92CF92DF92EF9239
:101EF000FF924B015C01A42FB0E020E03FE24AE3F7
:101F000050E00E94A01C6B017C0124EFC20E21E076
:101F1000D21EE11CF11CA8EEB3E0A50194010E94C1
:101F2000A01C4B015C01C701B60120ED37E040E089
:101F300050E00E94761C820E931EA41EB51EC7019F
:101F4000B60128EE33E040E050E00E94761CC50167
:101F5000B4010E94761CCA01B901FF90EF90DF9096
:101F6000CF90BF90AF909F908F9008958F929F9247
:101F7000AF92BF92CF92DF92EF92FF920F931F9397
:101F8000CF93DF93CDB7DEB76B970FB6F894DEBF74
:101F90000FBECDBF40322EE452076105710508F433
:101FA0008DC04A015B017C01BE01695E7F4F2EDE60
:101FB000AE014F5F5F4FBE01695E7F4FC701BADE62
:101FC0008F8908EE18E020E030E0882341F00B858F
:101FD0001C852D853E850A5C144F2F4F3F4F898D00
:101FE000882309F45BC08B859C85AD85BE858E54A6
:101FF0009D4FAF4FBF4F880F991FAA1FBB1F080FE0
:10200000191F2A1F3B1FCA8CCC2061F08F8598892D
:10201000A989BA898C569D4FAF4FBF4F080F191F22
:102020002A1F3B1FDB8CDD2009F445C00A5D1D4FD4
:102030002F4F3F4F80169106A206B30608F43EC00C
:10204000C501B401601B710B820B930B4B8149DFFF
:102050009B01CC2021F02F813885260F371FC90125
:10206000FCDDAC0161E7C701E0DBF701808691860A
:10207000A286B3868D2D6B960FB6F894DEBF0FBE89
:10208000CDBFDF91CF911F910F91FF90EF90DF9027
:10209000CF90BF90AF909F908F900895888D8823A8
:1020A00009F4B1CF8B859C85AD85BE858C569D4F3F
:1020B000AF4FBF4FA4CFDD24D394DCCFD12CDACFE8
:1020C000CF93DF93EC01462F416060E086DB1AD6A8
:1020D0007E836D8363E1CE01FEDB877081F48A81AC
:1020E0009B81892BB9F30ED62D813E81621B730B28
:1020F0008A819B818617970768F780E009C041E0D5
:102100006BE0CE016ADB40E060E0CE0166DB81E09F
:10211000DF91CF910895EF92FF920F931F93CF938A
:10212000DF9300D000D01F921F92CDB7DEB78C0195
:10213000662339F069E8CFDB482F416069E8C801C0
:102140004CDB40E068E8C80148DB41E060E8C801DA
:1021500044DB41E06FEFC80140DB40E060E0C801D4
:102160003CDB61E9C801B7DBF801878341E060E04F
:10217000C80133DB40E06FEFC8012FDB40E060E8CF
:10218000C8012BDB60E6C801A6DB482F426160E690
:10219000C80123DB40E250E064E4C80146DB4FEFB6
:1021A00061E0C8011ADBAE01495F5F4FBE01685FA5
:1021B0007F4FC801A5DC81110FC0F12C8F2D28960F
:1021C0000FB6F894DEBF0FBECDBFDF91CF911F9148
:1021D0000F91FF90EF90089526E0AE014F5F5F4FA3
:1021E00060EBC801DFDB41E06FEFC801F6DA40E0E9
:1021F0006FE4C801F2DA4CE26EE4C801EEDA40E0C6
:102200006FEFC801EADA44EB66EBC801E6DA8F81CA
:10221000ACE0811101C0A0E0B88580E090E0EE2440
:10222000E394F12C482F46954695469550E021E0E1
:1022300030E02C0F3D1F240F351FF9012081682F3E
:1022400067708A1710F0B91397C1E1E0F0E0EC0F66
:10225000FD1F4E0F5F1FF70102C0EE0FFF1F6A95B3
:10226000E2F7BF0160952623FA0120838F5F803358
:10227000C9F626E0AE014F5F5F4F60EBC80169DB36
:1022800041E06FEFC801A9DA40E060E0C801A5DADB
:1022900040E06FEFC801A1DA40E069E0C8019DDAD3
:1022A00040E060E1C80199DA40E061E1C80195DAF7
:1022B00041E064E2C80191DA4FEF65E2C8018DDACE
:1022C00040E065E7C80189DA41E06FEFC80185DACF
:1022D0004CE26EE4C80181DA40E068E4C8017DDACE
:1022E00040E260E3C80179DA40E06FEFC80175DAD7
:1022F00049E060E3C80171DA40E064E5C8016DDAE5
:1023000044E061E3C80169DA43E062E3C80165DAE9
:1023100043E860E4C80161DA45E266E4C8015DDAD9
:1023200040E060E6C80159DA40E067E2C80155DAEA
:1023300046E060E5C80151DA40E061E5C8014DDAE8
:1023400046E962E5C80149DA48E066E5C80145DAD0
:1023500040E367E5C80141DA40E061E6C8013DDAE3
:1023600040E062E6C80139DA40E064E6C80135DAE7
:1023700040E065E6C80131DA40EA66E6C8012DDAD8
:1023800041E06FEFC80129DA42E362E2C80125DAD1
:1023900044E167E4C80121DA4FEF69E4C8011DDABE
:1023A00040E06AE4C80119DA40E06FEFC80115DACD
:1023B0004AE06AE7C80111DA40E06BE7C8010DDACC
:1023C00041E268E7C80109DA41E06FEFC80105DAC8
:1023D00044E363E2C80101DA40E062E4C801FDD9E8
:1023E0004FEF64E4C801F9D946E265E4C801F5D9C4
:1023F00045E066E4C801F1D940E460E4C801EDD9E4
:1024000046E06EE0C801E9D94AE160E2C801E5D9D9
:1024100040E463E4C801E1D940E06FEFC801DDD9D1
:1024200043E064E3C801D9D944E465E3C801D5D9E0
:1024300041E06FEFC801D1D944E061E3C801CDD9D3
:1024400049E06BE4C801C9D945E06CE4C801C5D9CD
:1024500044E06DE4C801C1D940E06FEFC801BDD9C7
:1024600040E064E4C801B9D940E265E4C801B5D9E7
:1024700048E067E4C801B1D948E268E4C801ADD9D1
:1024800040E067E6C801A9D944E060E7C801A5D9E2
:1024900041E061E7C801A1D94EEF62E7C8019DD9CB
:1024A00040E066E7C80199D940E067E7C80195D9DF
:1024B00041E06FEFC80191D941E06DE0C8018DD9CD
:1024C00040E06FEFC80189D941E060E8C80185D9D3
:1024D00048EF61E0C80181D941E06FEFC8017DD9C3
:1024E00041E06EE8C80179D941E060E0C80175D9E2
:1024F00040E06FEFC80171D940E060E8C8016DD9D4
:1025000044E06AE0C80169D964E8C801E4D9482F09
:102510004F7E64E8C80161D941E06BE0C8015DD934
:10252000C80157DCF801608771878287938748EE7E
:1025300061E0C80152D9F8014085518562857385F3
:10254000C80114DD41E061E0C80147D960E4C80179
:10255000B7DD882309F431CE42E061E0C8013DD9FE
:1025600060E0C801ADDDF82E882309F426CE48EEE0
:1025700061E0C80132D922CE30E002C035952795FE
:102580006A95E2F720FF72CE9F5F70CECF92DF9206
:10259000EF92FF920F931F93CF93DF937C018B01F8
:1025A000FA0120E030E040E85FE3608171818281E0
:1025B000938110D281111AC08CE992E071DA6C011A
:1025C00080E992E06DDAEC01B60190E080E037D26C
:1025D000F7016083718382839383BE0190E080E082
:1025E0002ED2F8016083718382839383DF91CF9130
:1025F0001F910F91FF90EF90DF90CF900895CF93B0
:10260000DF93EA0120E030E040E85FE36881798110
:102610008A819B81DFD1882309F457C061E08EE174
:1026200074D561E080E271D561E082E26ED561E04F
:102630008EE1A7D560E080E2A4D560E082E2A1D57A
:1026400086E193E00E941D0969E28CE992E0DFD8FF
:1026500060E08EE15AD56AE070E080E090E083D3DC
:1026600061E082E28ED56BE280E992E0D0D860E052
:1026700082E24BD56AE070E080E090E074D361E0E4
:102680008CE992E048DD61E080E992E044DD88E891
:1026900093E190939F0280939E0290939302809384
:1026A000920240E050E0BA018CE992E0B4D940E0F7
:1026B00050E0BA0180E992E0AED980E090E0A0E875
:1026C000BFE388839983AA83BB83DF91CF91089569
:1026D000E6E1F3E01382128288EE93E0A0E0B0E03E
:1026E00084839583A683B78382E692E09183808377
:1026F000ECE9F2E089E28183138212821482E0E93C
:10270000F2E08183138212821482089526E030E081
:1027100040E855E260E070E090E080E000C0813089
:10272000910569F01CF4892B39F0089582309105E8
:1027300049F0039751F0089587E793E019C684E1C3
:1027400094E0FCCF81EB94E0F9CF8EE495E0F6CFF6
:102750001F920F920FB60F9211240BB60F922F9368
:102760003F934F935F936F937F938F939F93AF9319
:10277000BF93EF93FF938FE89DEF90932501809394
:10278000240134D0FF91EF91BF91AF919F918F9130
:102790007F916F915F914F913F912F910F900BBE61
:1027A0000F900FBE0F901F9018958FE89DEF90939C
:1027B000250180932401A3E7B0E08C918E7F8C9358
:1027C000E0E2F1E080818C7F8083E1E2F1E08081D2
:1027D000877E808380818460808380818C7F8083FA
:1027E0008C9181608C93089581E00895CF93DF935D
:1027F0001F921F92CDB7DEB780916A0391E0980FC8
:1028000090936A03882369F021E030E030936D03F0
:1028100020936C0380936A030F900F90DF91CF9108
:102820000895CE0101960E94550378940E945D039D
:10283000F89480916A03815080936A038A81882387
:1028400089F08091690391E0980F90936903882340
:1028500049F021E030E030936D0320936C038093C6
:102860006903DACF809169038823B1F280916B0309
:102870008111D2CF81E080936B0378940E94CE06C1
:10288000F8948091690381508093690380916B0370
:10289000815080936B03C0CFCF93DF9310925D067E
:1028A00010925C0696D232DFC0915C02D0915D023C
:1028B000198218820E94F606F89477DF81E0288159
:1028C0003981232B09F080E080935C06789478941A
:1028D00080915C06811108C00E94E807F89490E09E
:1028E00080E0DF91CF91089581E028813981232B09
:1028F00009F480E080935D0690915D0681E091117E
:1029000080E080935C0670DFE3CF5058BB27AA2796
:102910000ED00DC1FED030F003D120F031F49F3F36
:1029200011F41EF4F3C00EF4E095E7FBE9C0E92FC3
:102930000FD180F3BA17620773078407950718F061
:1029400071F49EF527C10EF4E0950B2EBA2FA02D41
:102950000B01B90190010C01CA01A0011124FF274C
:10296000591B99F0593F50F4503E68F11A16F04047
:10297000A22F232F342F4427585FF3CF4695379546
:102980002795A795F0405395C9F77EF41F16BA0B0B
:10299000620B730B840BBAF09150A1F0FF0FBB1FB9
:1029A000661F771F881FC2F70EC0BA0F621F731F02
:1029B000841F48F4879577956795B795F7959E3F5F
:1029C00008F0B3CF9395880F08F09927EE0F9795ED
:1029D0008795089571D008F481E0089504D0689433
:1029E000B111D9C00895BCD088F09F5790F0B92F8D
:1029F0009927B751A0F0D1F0660F771F881F991F54
:102A00001AF0BA95C9F712C0B13081F0C3D0B1E065
:102A10000895C0C0672F782F8827B85F39F0B93F75
:102A2000CCF3869577956795B395D9F73EF4909555
:102A30008095709561957F4F8F4F9F4F0895E894D3
:102A400009C097FB3EF490958095709561957F4FF6
:102A50008F4F9F4F9923A9F0F92F96E9BB279395A4
:102A6000F695879577956795B795F111F8CFFAF4B4
:102A7000BB0F11F460FF1BC06F5F7F4F8F4F9F4FE5
:102A800016C0882311F096E911C0772321F09EE843
:102A9000872F762F05C0662371F096E8862F70E0A9
:102AA00060E02AF09A95660F771F881FDAF7880F83
:102AB0009695879597F90895990F0008550FAA0BD9
:102AC000E0E8FEEF16161706E807F907C0F0121641
:102AD0001306E407F50798F0621B730B840B950B44
:102AE00039F40A2661F0232B242B252B21F4089599
:102AF0000A2609F4A140A6958FEF811D811D089536
:102B000097F99F6780E870E060E008959FEF80ECA0
:102B1000089500240A941616170618060906089543
:102B200000240A9412161306140605060895092EA9
:102B30000394000C11F4882352F0BB0F40F4BF2B18
:102B400011F460FF04C06F5F7F4F8F4F9F4F089558
:102B500057FD9058440F551F59F05F3F71F047954E
:102B6000880F97FB991F61F09F3F79F08795089533
:102B7000121613061406551FF2CF4695F1DF08C052
:102B8000161617061806991FF1CF8695710561056F
:102B900008940895E894BB2766277727CB0197F917
:102BA00008958ADF08F48FEF08950BD0C0CFB1DF0E
:102BB00028F0B6DF18F0952309F0A2CFA7CF112493
:102BC000EACFC6DFA0F3959FD1F3950F50E0551FD4
:102BD000629FF001729FBB27F00DB11D639FAA2772
:102BE000F00DB11DAA1F649F6627B00DA11D661FC1
:102BF000829F2227B00DA11D621F739FB00DA11DE2
:102C0000621F839FA00D611D221F749F3327A00D9B
:102C1000611D231F849F600D211D822F762F6A2F37
:102C200011249F5750408AF0E1F088234AF0EE0FBC
:102C3000FF1FBB1F661F771F881F91505040A9F7C9
:102C40009E3F510570F05CCFA6CF5F3FECF3983EFE
:102C5000DCF3869577956795B795F795E7959F5F30
:102C6000C1F7FE2B880F911D9695879597F90895CA
:102C70001F920F920FB60F9211242F933F938F93B1
:102C80009F93AF93BF9380916F0390917003A09136
:102C90007103B091720330916E0323E0230F2D373F
:102CA00058F50196A11DB11D20936E0380936F030B
:102CB00090937003A0937103B09372038091730398
:102CC00090917403A0917503B09176030196A11DB4
:102CD000B11D8093730390937403A0937503B09315
:102CE0007603BF91AF919F918F913F912F910F905C
:102CF0000FBE0F901F90189526E8230F0296A11D76
:102D0000B11DD2CF2FB7F89460916F03709170030B
:102D100080917103909172032FBF08953FB7F8948B
:102D20008091730390917403A0917503B091760321
:102D300026B5A89B05C02F3F19F00196A11DB11D16
:102D40003FBFBA2FA92F982F8827BC01CD01620F52
:102D5000711D811D911D42E0660F771F881F991F0D
:102D60004A95D1F708958F929F92AF92BF92CF92DA
:102D7000DF92EF92FF926B017C01D0DF4B015C018F
:102D8000C114D104E104F104D9F0AFD5C7DF68194B
:102D900079098A099B09683E73408105910580F392
:102DA00021E0C21AD108E108F10888EE880E83E01C
:102DB000981EA11CB11CC114D104E104F10431F727
:102DC000FF90EF90DF90CF90BF90AF909F908F904B
:102DD0000895789484B5826084BD84B5816084BD93
:102DE00085B5826085BD85B5816085BDEEE6F0E084
:102DF000808181608083E1E8F0E0108280818260E0
:102E00008083808181608083E0E8F0E08081816060
:102E10008083E1EBF0E0808184608083E0EBF0E090
:102E2000808181608083E1E9F0E08081826080833D
:102E3000808181608083E0E9F0E08081816080832F
:102E4000E1EAF0E08081826080838081816080831C
:102E5000E0EAF0E0808181608083E1E2F1E080815E
:102E600082608083808181608083E0E2F1E0808104
:102E700081608083EAE7F0E08081846080838081E4
:102E8000826080838081816080838081806880838C
:102E90001092C10008951F93CF93DF93182FEB0179
:102EA00061E033D1209731F460E0812FDF91CF9141
:102EB0001F9167C1CF3FD10511F461E0F6CFE12F3B
:102EC000F0E0EC51FF4FE491E150E23108F0B2C084
:102ED000F0E08827E259F84E8F4F2AC580178817EF
:102EE0008D179717A1171A18AB17B317BB17C5176C
:102EF000CF17D917E817F2171A18FC170618101869
:102F000084B5806884BDC7BDDF91CF911F910895BE
:102F100084B5806284BDC8BDF7CF80918000806891
:102F200080938000D0938900C0938800EDCF80917A
:102F30008000806280938000D0938B00C0938A00D1
:102F4000E3CF80918000886080938000D0938D00D3
:102F5000C0938C00D9CF8091B00080688093B0007E
:102F6000C093B300D1CF8091B00080628093B00055
:102F7000C093B400C9CF8091900080688093900086
:102F8000D0939900C0939800BFCF80919000806249
:102F900080939000D0939B00C0939A00B5CF80910E
:102FA0009000886080939000D0939D00C0939C0017
:102FB000ABCF8091A00080688093A0008091A0009A
:102FC0008F7B8093A000D093A900C093A8009CCFD2
:102FD0008091A00080628093A000D093AB00C0934A
:102FE000AA0092CF8091A00088608093A000D09327
:102FF000AD00C093AC0088CF8091200180688093A1
:103000002001D0932901C09328017ECF8091200117
:10301000806280932001D0932B01C0932A0174CF4A
:1030200080912001886080932001D0932D01C0936E
:103030002C016ACFC038D1050CF03FCF35CF81507D
:10304000823108F059C0E82FF0E08827E65DF74E9E
:103050008F4F6EC44A184E183C18421846187C18F8
:10306000511857185B186118651869186F1873188C
:103070007C1877187D188118809180008F77809355
:1030800080000895809180008F7DF9CF809180002D
:10309000877FF5CF84B58F7784BD089584B58F7D04
:1030A000FBCF8091B0008F778093B000089580911E
:1030B000B0008F7DF9CF809190008F778093900042
:1030C0000895809190008F7DF9CF80919000877F47
:1030D000F5CF8091A0008F778093A0000895809114
:1030E000A0008F7DF9CF8091A000877FF5CF8091E0
:1030F00020018F77809320010895809120018F7D9A
:10310000F9CF80912001877FF5CFCF93DF9390E0B7
:10311000FC01E65DFE4F249180599E4FFC01849195
:103120008823C9F090E0880F991FFC01E053FE4FFF
:10313000A591B491FC01EA54FE4FC591D49161115F
:103140000DC09FB7F8948C91209582238C93888131
:10315000282328839FBFDF91CF910895623051F4D7
:103160009FB7F8943C91822F809583238C93E881BC
:103170002E2BEFCF8FB7F894EC912E2B2C938FBF83
:10318000EACF1F93CF93DF93282F30E0F901EC5162
:10319000FF4F8491F901E65DFE4FD491F901E059AA
:1031A000FE4FC491CC23A1F0162F811148DFEC2FE4
:1031B000F0E0EE0FFF1FEA54FE4FA591B4918FB7D8
:1031C000F894EC91111108C0D095DE23DC938FBFE9
:1031D000DF91CF911F910895DE2BF8CFFC01918DE7
:1031E000228D892F90E0805C9F4F821B91098F7305
:1031F00099270895FC01918D828D981731F0828D69
:10320000E80FF11D858D90E008958FEF9FEF0895F1
:10321000FC01918D828D981761F0A28DAE0FBF2FAA
:10322000B11D5D968C91928D9F5F9F73928F90E000
:1032300008958FEF9FEF0895FC01538D448D252F46
:1032400030E0842F90E0821B930B541710F0CF9640
:10325000089501970895FC01A48DA80FB92FB11D01
:10326000A35ABF4F2C91848D90E001968F739927BC
:10327000848FA689B7892C93A089B1898C9183709A
:1032800080648C93938D848D981306C00288F38993
:10329000E02D80818F7D80830895CF93DF93EC01B3
:1032A000888D8823B1F0AA89BB89E889F9898C9136
:1032B00085FD03C0808186FD0CC00FB607FCF7CFEB
:1032C0008C9185FFF2CF808185FFEDCFCE01C3DFEA
:1032D000EACFDF91CF910895EF92FF920F931F9362
:1032E000CF93DF93EC0181E0888F9B8D8C8D9813B9
:1032F0001AC0E889F989808185FF15C09FB7F894C5
:10330000EE89FF896083E889F98980818370806410
:1033100080839FBF81E090E0DF91CF911F910F915B
:10332000FF90EF900895F62E0B8D10E00F5F1F4F6A
:103330000F731127E02E8C8D8E110BC00FB607FC7A
:10334000FACFE889F989808185FFF5CFCE0183DF47
:10335000F2CFEB8DEC0FFD2FF11DE35AFF4FF08202
:103360009FB7F8940B8FEA89FB8980818062D0CF68
:10337000CF92DF92EF92FF921F93CF93DF93EC01F6
:103380006A017B01122FE889F98982E08083C114E8
:1033900081EED806E104F10499F060E079E08DE374
:1033A00090E0A7019601A2D22150310941095109AB
:1033B0005695479537952795211580E1380790F068
:1033C000E889F989108260E874E88EE190E0A7014D
:1033D00096018CD2215031094109510956954795E2
:1033E00037952795EC85FD853083EE85FF85208315
:1033F000188EEC89FD891083EA89FB8980818061C0
:103400008083EA89FB89808188608083EA89FB89DF
:10341000808180688083EA89FB8980818F7D8083B9
:10342000DF91CF911F91FF90EF90DF90CF900895A3
:103430001F920F920FB60F9211240BB60F922F937B
:103440008F939F93EF93FF93E0918703F09188030D
:103450008081E0918D03F0918E0382FD1DC09081EB
:10346000809190038F5F8F7320919103821741F0B9
:10347000E0919003F0E0E958FC4F958F8093900322
:10348000FF91EF919F918F912F910F900BBE0F9015
:103490000FBE0F901F9018958081F2CF1F920F9250
:1034A0000FB60F9211240BB60F922F933F934F93A9
:1034B0005F936F937F938F939F93AF93BF93EF939C
:1034C000FF9387E793E0C7DEFF91EF91BF91AF9144
:1034D0009F918F917F916F915F914F913F912F912C
:1034E0000F900BBE0F900FBE0F901F901895E7E73F
:1034F000F3E01382128288EE93E0A0E0B0E08483D0
:103500009583A683B78384E792E09183808385ECDB
:1035100090E09587848784EC90E09787868780EC9D
:1035200090E0918B808B81EC90E0938B828B82EC8E
:1035300090E0958B848B86EC90E0978B868B118E38
:10354000128E138E148E08951F920F920FB60F9243
:1035500011240BB60F922F938F939F93EF93FF93AA
:10356000E0912404F09125048081E0912A04F091F7
:103570002B0482FD1DC0908180912D048F5F8F737D
:1035800020912E04821741F0E0912D04F0E0EC5ED2
:10359000FB4F958F80932D04FF91EF919F918F9119
:1035A0002F910F900BBE0F900FBE0F901F9018958C
:1035B0008081F2CF1F920F920FB60F9211240BB69B
:1035C0000F922F933F934F935F936F937F938F93BC
:1035D0009F93AF93BF93EF93FF9384E194E03BDE1F
:1035E000FF91EF91BF91AF919F918F917F916F91DB
:1035F0005F914F913F912F910F900BBE0F900FBE97
:103600000F901F901895E4E1F4E01382128288EE87
:1036100093E0A0E0B0E084839583A683B78384E73A
:1036200092E0918380838DEC90E0958784878CEC89
:1036300090E09787868788EC90E0918B808B89EC6F
:1036400090E0938B828B8AEC90E0958B848B8EEC50
:1036500090E0978B868B118E128E138E148E0895A8
:103660001F920F920FB60F9211240BB60F922F9349
:103670008F939F93EF93FF93E091C104F091C20465
:103680008081E091C704F091C80482FD1DC0908143
:103690008091CA048F5F8F732091CB04821741F011
:1036A000E091CA04F0E0EF54FB4F958F8093CA0479
:1036B000FF91EF919F918F912F910F900BBE0F90E3
:1036C0000FBE0F901F9018958081F2CF1F920F921E
:1036D0000FB60F9211240BB60F922F933F934F9377
:1036E0005F936F937F938F939F93AF93BF93EF936A
:1036F000FF9381EB94E0AFDDFF91EF91BF91AF912C
:103700009F918F917F916F915F914F913F912F91F9
:103710000F900BBE0F900FBE0F901F901895E1EB0E
:10372000F4E01382128288EE93E0A0E0B0E084839C
:103730009583A683B78384E792E09183808385EDA8
:1037400090E09587848784ED90E09787868780ED69
:1037500090E0918B808B81ED90E0938B828B82ED5A
:1037600090E0958B848B86ED90E0978B868B118E05
:10377000128E138E148E08951F920F920FB60F9211
:1037800011240BB60F922F938F939F93EF93FF9378
:10379000E0915E05F0915F058081E0916405F09114
:1037A000650582FD1DC09081809167058F5F8F73D5
:1037B00020916805821741F0E0916705F0E0E25B37
:1037C000FA4F958F80936705FF91EF919F918F91AD
:1037D0002F910F900BBE0F900FBE0F901F9018955A
:1037E0008081F2CF1F920F920FB60F9211240BB669
:1037F0000F922F933F934F935F936F937F938F938A
:103800009F93AF93BF93EF93FF938EE495E023DDF7
:10381000FF91EF91BF91AF919F918F917F916F91A8
:103820005F914F913F912F910F900BBE0F900FBE64
:103830000F901F901895EEE4F5E01382128288EE47
:1038400093E0A0E0B0E084839583A683B78384E708
:1038500092E09183808385E391E09587848784E378
:1038600091E09787868780E391E0918B808B81E35D
:1038700091E0938B828B82E391E0958B848B86E33E
:1038800091E0978B868B118E128E138E148E089575
:10389000AF92BF92CF92DF92EF92FF920F931F935E
:1038A000CF93DF936C017B018B01040F151FEB019C
:1038B0005E01AE18BF08C017D10759F06991D60153
:1038C000ED91FC910190F081E02DC6011995892BB5
:1038D00079F7C501DF91CF911F910F91FF90EF9084
:1038E000DF90CF90BF90AF9008950895A1E21A2E77
:1038F000AA1BBB1BFD010DC0AA1FBB1FEE1FFF1F94
:10390000A217B307E407F50720F0A21BB30BE40BE3
:10391000F50B661F771F881F991F1A9469F760952A
:103920007095809590959B01AC01BD01CF010895E4
:10393000EE0FFF1F881F8BBF0790F691E02D1994A3
:1039400009D0A59F900DB49F900DA49F800D911D4F
:1039500011240895A29FB001B39FC001A39F700DD1
:10396000811D1124911DB29F700D811D1124911D87
:063970000895F894FFCF5A
:103976000000AF430000AF4300000000000000005D
:1039860000000000000020C39A99993E00001643EB
:10399600000000000000803F00007F4300000000A0
:1039A6000000000000007FC30000803F00007F434E
:1039B600000000000000000000007FC30000803F00
:1039C600000048420000C841000000008B020000D1
:1039D6000000620A900AC808F408CB08D208E50875
:1039E600000000006C19481C1C194D19EE18081926
:0239F600FA18BD
:00000001FF
