:10000000F9C0000028C1000026C1000024C1000082
:1000100022C1000020C100001EC100001CC1000060
:100020001AC1000018C1000016C1000014C1000070
:1000300012C1000010C100000EC100000CC1000080
:100040000AC1000008C1000006C1000004C1000090
:1000500002C1000000C10000FEC000000C949235F7
:10006000FAC000000C949E380C94D438F4C0000000
:10007000F2C00000F0C00000EEC00000ECC00000C4
:10008000EAC00000E8C00000E6C00000E4C00000D4
:100090000C942A390C946039DEC000000C948B2932
:1000A000DAC00000D8C00000D6C00000D4C00000F4
:1000B000D2C00000D0C00000CEC00000CCC0000004
:1000C000CAC00000C8C000000C9440320C94B6397D
:1000D0000C94EC39C0C000000C94423A0C94783A6D
:1000E000BAC0000000000A0B02090C0D0E0807033D
:1000F00004010000000000000000000000000000FB
:1001000000000000000000000000000000000000EF
:1001100012111000000000000000000000000000AC
:100120000000000000000000000001021020200874
:100130000810204010204080020102010804020142
:1001400001020408102040808040201008040201B1
:10015000800402018040201008040201080402010A
:100160000102040810204080010204081020408091
:1001700005050505070508080808020202020A0A23
:100180000808040404040101010101010101030341
:10019000030303030303040707070C0C0C0C0C0CEC
:1001A0000C0C0202020206060606060606060B0BE9
:1001B0000B0B0B0B0B0B00002200250028002B0063
:1001C0002E003100340002010000050108010B017E
:1001D00000002100240027002A002D0030003300F9
:1001E00001010000040107010A011832FD388939B4
:1001F000153AA13A11241FBECFEFD1E2DEBFCDBF29
:1002000000E00CBF12E0A0E0B2E0EAECF6E700E0AC
:100210000BBF02C007900D92A63DB107D9F729E0A8
:10022000A6EDB2E001C01D92AB3AB207E1F710E0D3
:10023000CAEFD0E000E006C021970109802FFE013F
:100240000E94323BC53FD10780E00807A9F70E9412
:100250005C330C94633BD4CECF92DF92EF92FF924B
:100260006B017C01C114D104E104F10469F48091B3
:100270000002811109C080910202909103020E9444
:10028000C62781E080930002C601880F991F880F5E
:10029000991F80509E4FFF90EF90DF90CF90089570
:1002A000009781F0FC012181211104C040EA56E849
:1002B00061E070E0FC01828193810E94E22790E07E
:1002C00080E0089588E090E008954F925F926F92E9
:1002D0007F928F929F92AF92BF92CF92DF92EF92D6
:1002E000FF920F931F93CF93DF930097C9F12801DB
:1002F00039017A01EC01402F8A819B810E94F52807
:100300008A819B81DC01ED91FC910084F185E02DD7
:100310001995892B01F16701812C912C54018A8157
:100320009B81DC01ED91FC910084F185E02D199514
:10033000892B91F184149504A604B70469F18A818C
:100340009B81DC01ED91FC910284F385E02D1995F0
:100350008F3F9807C1F484E0F70111928A95E9F77D
:1003600088E090E0DF91CF911F910F91FF90EF9087
:10037000DF90CF90BF90AF909F908F907F906F90C5
:100380005F904F900895FFEF8F1A9F0AAF0ABF0A40
:10039000D6018D936D01C3CF90E080E0E3CF8F92C3
:1003A0009F92AF92BF92CF92DF92EF920F931F93E3
:1003B000CF93DF930097F1F06A01EC018A819B8172
:1003C0000E949E278A819B81DC01ED91FC91028035
:1003D000F381E02DA801B60119958A819B8160E027
:1003E000E11001C061E00E948328882389F08250D7
:1003F000823088F088E090E0DF91CF911F910F91DB
:10040000EF90DF90CF90BF90AF909F908F90089526
:1004100090E080E0F1CF84E090E0EECF089581306D
:10042000910571F01CF4892B39F008958230910503
:1004300051F0039759F008958AEE96E00C943E38F7
:1004400087E897E0FBCF84E298E0F8CF81EC98E072
:10045000F5CF8F929F92AF92BF92CF92DF92EF92A1
:10046000FF926B017C010E94DC354B015C010E9414
:10047000DC35681979098A099B09C616D706E8068A
:10048000F906A8F7FF90EF90DF90CF90BF90AF9064
:100490009F908F9008950C94DC3590E080E0089553
:1004A0000F931F93009709F488C06115710509F433
:1004B00084C0009108021091090220910A02309133
:1004C0000B020E3F1F4F2F4F3F4F09F067C04FEFFA
:1004D0005FEFBA01409308025093090260930A0249
:1004E00070930B02409108025091090260910A0238
:1004F00070910B02DC011296ED91FC91808191814B
:10050000A281B3818093440390934503A093460353
:10051000B093470384819581A681B781809340037E
:1005200090934103A0934203B09343038085918548
:10053000A285B38580933C0390933D03A0933E0333
:10054000B0933F0384859585A685B785809338034E
:1005500090933903A0933A03B0933B031092340372
:100560001092350310923603109237030E946C0BE1
:1005700081E99BE09093D7028093D6029093D902B1
:100580008093D80298D7009731F421E030E030937F
:100590004903209348031F910F9108950091080289
:1005A0001091090220910A0230910B02DB010D9398
:1005B0001D932D933C93139795CF8FEF9FEFEBCF28
:1005C0008F929F92AF92BF92CF92DF92EF92FF9263
:1005D0001F93CF93DF934B015C0110914B0382E09B
:1005E00090E0909349038093480381149104A104FF
:1005F000B10441F480914B03811104C080914A03FE
:10060000C1E08111C0E0C12CD12C760180914B0357
:10061000811106C080914A03811102C0CC23D9F018
:1006200083E090E09093490380934803CC2379F1D1
:10063000CCE9DFEF111102C00E94F50ECE01DF916F
:10064000CF911F91FF90EF90DF90CF90BF90AF9030
:100650009F908F9008956AE070E080E090E00E94A3
:100660000D3680E1C80E87E2D81EE11CF11C8FEF29
:1006700088169806A806B80631F0C1E08C149D04CF
:10068000AE04BF0408F0C0E080E049D7BFCFD0E09F
:10069000C0E0D0CFCF92DF92EF92FF920F931F93E3
:1006A000CF93DF938F3F910511F008F050C0209158
:1006B0004803309149032330310539F02091480334
:1006C000309149032130310531F424E030E030939A
:1006D0004903209348036A017B01EC0182309105B4
:1006E000A0F011E0AE01C701B601E4D6AB01BC0138
:1006F000CE011123F9F0DF91CF911F910F91FF905F
:10070000EF90DF90CF900C941E118C01000F111F01
:100710000A521D4FD8018D919C91892B11F30E9493
:1007200028110297F1F6D801ED91FC91CE011995AF
:10073000182FD8CF0E94401190E080E0DF91CF9138
:100740001F910F91FF90EF90DF90CF9008958FEF62
:100750009FEFF4CF80E0E3C6CF93DF9386E090E095
:10076000909349038093480333D7EC01E6EDF2E020
:1007700084E0DF011D928A95E9F70E948D0E1092A8
:10078000490310924803CE01DF91CF9108958091E3
:100790004A0308958091330308956093080270938B
:1007A000090280930A0290930B0290E080E0089582
:1007B0004F925F926F927F928F929F92AF92BF9271
:1007C000CF92DF92EF92FF920F931F93CF93DF931D
:1007D000CDB7DEB72D970FB6F894DEBF0FBECDBFF5
:1007E000C0900402D0900502E0900602F09007024B
:1007F000A70196016091640970916509809166096D
:10080000909167090E944934882341F0C09264099D
:10081000D0926509E0926609F092670980916809B3
:10082000811104C038DE81E0809368091092790953
:100830008BE38D87C12CEE24E39401E010E020E0EF
:1008400030E0AE01435F5F4F68E670E080916E0973
:1008500090916F09A4DD882389F01F82188619867C
:100860001A861B861C8690917A0991118CC09091F2
:10087000790991111DC0809379091AC0CC24C394C1
:10088000E12C06E010E020E030E0AE014F5F5F4F6A
:1008900068E670E080916E0990916F0916DD86E040
:1008A000FE013196DE01179601900D928A95E1F7CF
:1008B0006F817885762767277627072E000C880BAF
:1008C000990B0E947B344B015C0169857A85762700
:1008D00067277627072E000C880B990B0E947B3424
:1008E0006B017C016B857C85762767277627072E31
:1008F000000C880B990B0E947B342B013C018091EA
:100900007B09882309F443C010928109109282095F
:100910001092830910928409109285091092860919
:1009200010928709109288091092890910928A09F9
:1009300010928B0910928C0983E48D87C12CEE24D0
:10094000E39401E010E020E030E0AE01435F5F4F50
:1009500068E670E080916E0990916F0920DD882330
:1009600009F458C01F82188619861A861B861C86B1
:1009700090917A09911152C190917909911164C0B5
:100980008093790961C081E080937B0991CF2AE04F
:1009900038EE4CE151E4C501B4010E942F3520E04E
:1009A00030E040E05AE30E942F3560938109709354
:1009B000820980938309909384092AE038EE4CE100
:1009C00051E4C701B6010E942F3520E030E040E03D
:1009D0005AE30E942F3560938509709386098093AE
:1009E0008709909388092AE038EE4CE151E4C3016D
:1009F000B2010E942F3520E030E040E05AE30E942F
:100A00002F356093890970938A0980938B0990939D
:100A10008C0992CFCC24C394E12C06E010E020E0B6
:100A200030E0AE014F5F5F4F68E670E080916E0985
:100A300090916F094ADC86E0FE013196DE0117963F
:100A400001900D928A95E1F76F8178857627672767
:100A50007627072E000C880B990B0E947B344B01E4
:100A60005C0169857A85762767277627072E000C33
:100A7000880B990B0E947B346B017C016B857C8514
:100A8000762767277627072E000C880B990B0E9484
:100A90007B342B013C0180917B09882309F4C2C07F
:100AA00010928D0910928E0910928F091092900960
:100AB0001092910910929209109293091092940940
:100AC0001092950910929609109297091092980920
:100AD0004CE759E06DE979E089E999E0E6D3809146
:100AE000990990919A09A0919B09B0919C098093D2
:100AF000A1099093A209A093A309B093A40980919E
:100B00009D0990919E09A0919F09B091A0098093A1
:100B1000A5099093A609A093A709B093A8094CE74B
:100B200059E06DE979E089E999E0C1D3C090060305
:100B3000D0900703E0900803F09009038FEFC81AE4
:100B4000D80AE80AF80AC0920603D0920703E09296
:100B50000803F0920903C114D104E104F10499F4EB
:100B600080910A0390910B03A0910C03B0910D03A7
:100B70000196A11DB11D80930A0390930B03A093CE
:100B80000C03B0930D0380900E0390900F03A09080
:100B90001003B090110360910A0370910B038091D0
:100BA0000C0390910D030E947934A50194010E94D9
:100BB0002F3520E030E040E85FE40E942F352B0124
:100BC0003C01C701B6010E947934A50194010E943D
:100BD0002F359B01AC01C301B2010E94E533609344
:100BE00002037093030380930403909305032D96EF
:100BF0000FB6F894DEBF0FBECDBFDF91CF911F912E
:100C00000F91FF90EF90DF90CF90BF90AF909F90AB
:100C10008F907F906F905F904F90089581E08093C8
:100C20007B0912CF20E030E04AEF5BE3C501B4015D
:100C30000E942F3560938D0970938E0980938F09E0
:100C40009093900920E030E04AEF5BE3C701B601E2
:100C50000E942F35609391097093920980939309B4
:100C60009093940920E030E04AEF5BE3C301B201C6
:100C70000E942F3560939509709396098093970988
:100C80009093980925CFCF92EF92FF920F931F93E5
:100C9000CF93DF9300D01F921F92CDB7DEB7ECEE5B
:100CA000F2E08BE2DF011D928A95E9F780E090E0A7
:100CB000A0E8BFEB8093120390931303A093140357
:100CC000B09315038AE097EDA3E2BCE380930E0393
:100CD00090930F03A0931003B093110381E69CEE51
:100CE000A5EEBAE98093F0029093F102A093F2028C
:100CF000B093F3028AE898E4AAE4B8E18093F4029E
:100D00009093F502A093F602B093F70283EA90ED78
:100D1000A7EDBDEB8093F8029093F902A093FA023D
:100D2000B093FB0281EC92E7A7E4BCEE8093FC0257
:100D30009093FD02A093FE02B093FF0280EE92E03A
:100D40009093EF028093EE028AED92E09093E1029D
:100D50008093E00281E392E09093DB028093DA02D9
:100D60009093DD028093DC029093DF028093DE0299
:100D700080E093E09093E5028093E40280EF92E0BC
:100D80009093E3028093E20282E093E09093E70283
:100D90008093E602E1E8F9E088E2DF011D928A959E
:100DA000E9F7E2E6F9E08FE1DF011D928A95E9F7C4
:100DB00080E090E5A3ECB8E4809374099093750902
:100DC000A0937609B093770910925E09FF24F394FB
:100DD000F09280098091040290910502A091060290
:100DE000B09107028093640990936509A093660906
:100DF000B093670981E090E0A0E0B0E080935F09E4
:100E000090936009A0936109B0936209F0927A0906
:100E100050E040E060E070E0CB011EDA90936F0993
:100E200080936E0940EA56E861E070E040937009F3
:100E300050937109609372097093730931DA80E8F5
:100E40008A838BE6898389819A819C838B83C12CD9
:100E5000E12C02E010E020E030E0AE014D5F5F4F9A
:100E600068E670E080916E0990916F0998DA8823A6
:100E700039F090917A09992309F471C1F0927B09B4
:100E800061E070E080E090E0E4DA1A8289819A8182
:100E90009C838B83C12CE12C02E010E020E030E049
:100EA000AE014D5F5F4F68E670E080916E099091F2
:100EB0006F0975DA882341F090917A09992309F432
:100EC00055C181E080937B0964E670E080E090E0AA
:100ED000C0DA85E78D83C12CEE24E39401E010E0B5
:100EE00020E030E0AE014B5F5F4F68E670E080913C
:100EF0006E0990916F0953DA81116FC1CC24C394AC
:100F0000E12C01E010E020E030E0AE014B5F5F4FEC
:100F100068E670E080916E0990916F09D6D99D8145
:100F200081E0983609F080E080937809983609F0DE
:100F3000F9C089E1898389819A819C838B83C12C43
:100F4000E12C02E010E020E030E0AE014D5F5F4FA9
:100F500068E670E080916E0990916F0920DA88232D
:100F600041F090917A09992309F40CC181E08093B2
:100F70007B098CE18D83C12CEE24E39401E010E029
:100F800020E030E0AE014B5F5F4F68E670E080919B
:100F90006E0990916F0903DA81112AC1CC24C394A0
:100FA000E12C01E010E020E030E0AE014B5F5F4F4C
:100FB00068E670E080916E0990916F0986D99D81F5
:100FC00098619A838CE1898389819A819C838B8340
:100FD000C12CE12C02E010E020E030E0AE014D5FDA
:100FE0005F4F68E670E080916E0990916F09D7D9E4
:100FF000882341F090917A09992309F4CFC081E0C8
:1010000080937B098BE18D83C12CEE24E39401E076
:1010100010E020E030E0AE014B5F5F4F68E670E02B
:1010200080916E0990916F09BAD98111ECC0CC24DE
:10103000C394E12C01E010E020E030E0AE014B5F12
:101040005F4F68E670E080916E0990916F093DD91D
:101050009D81977E9A838BE1898389819A819C8384
:101060008B83C12CE12C02E010E020E030E0AE01E7
:101070004D5F5F4F68E670E080916E0990916F0957
:101080008ED9882341F090917A09992309F492C06E
:1010900081E080937B098AE18D83C12CEE24E39467
:1010A00001E010E020E030E0AE014B5F5F4F68E60A
:1010B00070E080916E0990916F0971D98111AEC075
:1010C000CC24C394E12C01E010E020E030E0AE013C
:1010D0004B5F5F4F68E670E080916E0990916F09F9
:1010E000F4D89D81987F91609A838AE18983898170
:1010F0009A819C838B83C12CE12C02E010E020E0DC
:1011000030E0AE014D5F5F4F68E670E080916E09A0
:1011100090916F0944D9882341F090917A099923DD
:1011200009F454C081E080937B0910927A0981E030
:101130008093630910927C0910927D0910927E09B8
:1011400010927F090F900F900F900F900F90DF91EA
:10115000CF911F910F91FF90EF90CF9008959091B4
:10116000790991118DCE809379098ACE9091790970
:101170009111AACE80937909A7CE81E080937B0953
:1011800090E0CECE909179099111F3CE80937909B8
:10119000F0CE81E080937B0990E012CF90917909A5
:1011A000911130CF809379092DCF81E080937B0915
:1011B00090E04FCF9091790991116DCF809379098B
:1011C0006ACF81E080937B0990E08CCF9091790980
:1011D0009111ABCF80937909A8CF90917A099111A1
:1011E000CCCF909179099111CBCF8093790998CE8A
:1011F00090917A099111CDCF909179099111CCCF2D
:1012000080937909DDCE90917A099111CECF90919A
:1012100079099111CDCF809379091BCF90917A09EB
:101220009111CFCF909179099111CECF8093790907
:1012300059CF80915E09811118C081E080935E09C9
:1012400080915F0990916009A0916109B091620954
:101250000197A105B10549F480916309882329F01C
:1012600080916E0990916F09D9D880916909811197
:101270001BC081E08093690980916A0990916B0994
:10128000A0916C09B0916D090197A105B10561F4B8
:1012900082E090E0A0E0B0E080936A0990936B094F
:1012A000A0936C09B0936D0908950C9485310C944A
:1012B000AF314F925F926F927F928F929F92AF92D7
:1012C000BF92CF92DF92EF92FF920F931F93F89409
:1012D00040902303509024036090250370902603D0
:1012E000C0901703D0901803E0901903F0901A03F0
:1012F000452B09F0A4C09B01AC012419350946090E
:10130000570929013A0100911F03109120032091F0
:1013100021033091220348015901840C951CA61C1D
:10132000B71C80169106A206B306A0F400911B0319
:1013300010911C0320911D0330911E030F5F1F4F5E
:101340002F4F3F4F00931B0310931C0320931D034B
:1013500030931E0380921F0390922003A0922103DA
:10136000B092220300911B0310911C0320911D03D6
:1013700030911E038092270390922803A0922903A4
:10138000B0922A0300932B0310932C0320932D0378
:1013900030932E03609323037093240380932503DB
:1013A00090932603A0E1B7E2A30192010E943A3B89
:1013B0006C0D7D1D8E1D9F1D609317037093180388
:1013C0008093190390931A03009108021091090267
:1013D00020910A0230910B020F3F1F4F2F4F3F4FBA
:1013E000F1F0009108021091090220910A02309157
:1013F0000B020E3F1F4F2F4F3F4F89F0C090080246
:10140000D0900902E0900A02F0900B0221E08C14C7
:101410009D04AE04BF0408F420E0209333037894C5
:101420001F910F91FF90EF90DF90CF90BF90AF9002
:101430009F908F907F906F905F904F9008954B0199
:101440005C0184189508A608B708A3019201261B21
:10145000370B480B590B6415750586059705D0F0B9
:1014600082169306A406B50640F420E030E0A901F8
:1014700081149104A104B10491F4A0E1B7E20E94A7
:101480003A3BA7019601261B370B480B590BCA01A3
:10149000B901C5CF82169306A406B50670F7A0E180
:1014A000B7E2A50194010E943A3B6C0D7D1D8E1D93
:1014B0009F1DB5CFFECECF93DF9300D01F92CDB747
:1014C000DEB71C821B821A82198210922F0310929F
:1014D00030031092310310923203BE016F5F7F4FD1
:1014E000CE0103960E945A2769817A818B819C8163
:1014F0000E944420009761F4BE016F5F7F4FCE01D0
:1015000003960E94662769817A818B819C812ED502
:101510000F900F900F900F90DF91CF910895FF9251
:101520000F931F93CF93DF93082F60E070E0CB0100
:101530000E940D36FF24F3940E942D1FEC01892B8D
:1015400089F010E0CE3F8FEFD80769F0002361F1FA
:1015500060E070E0CB010E940D3681E090E0892BC5
:1015600059F322C011E025D5EC01892B21F0CE3FA3
:101570008FEFD80759F711111EC011E0229609F418
:1015800010E00E94DD1EEC01892B21F0CE3F8FEF91
:10159000D807E1F6111111C011E0CE3F8FEFD80747
:1015A00009F410E001110BC0CE01DF91CF911F9122
:1015B0000F91FF90089511E0E4CF11E0F3CF60E0C8
:1015C00070E0CB010E940D361F25812F90E0C7CF20
:1015D000CF93DF9380913303882321F060E070E0A4
:1015E000CB014CD635D6D0E0C0E0892B71F06AE053
:1015F00070E080E090E00E940D3681E090DF28D618
:101600002196C03D27E0D20781F727D60E94982077
:1016100010924B0310924A03109244031092450318
:101620001092460310924703109240031092410318
:10163000109242031092430310923C0310923D0318
:1016400010923E0310923F03109238031092390318
:1016500010923A0310923B03109234031092350318
:1016600010923603109237034EEF5FEF6FEF7FEF6C
:10167000409308025093090260930A0270930B0290
:1016800010923303E7E2F3E028E0DF011D922A9590
:10169000E9F710922303109224031092250310926D
:1016A000260310921F031092200310922103109220
:1016B000220310921B0310921C0310921D03109220
:1016C0001E03109217031092180310921903109220
:1016D0001A03DF91CF910895109257031092580387
:1016E0001092590310925A031092560380915F038F
:1016F0009091600390935503809354031092530389
:101700001092520310924E0310924F031092500306
:101710001092510310925C0310925B0390E080E002
:101720000895CF92DF92EF92FF920F931F93CF9382
:101730008C01892B09F055C020915F033091600323
:10174000809154039091550340915F035091600341
:1017500050935503409354032817390781F0109292
:1017600053031092520310924E0310924F031092A3
:1017700050031092510310925C0310925B0380910E
:101780005F0390916003019761F580915B039091F5
:101790005C03892B21F480910C02811112C080918D
:1017A0005B0390915C030197E1F480914E0390916B
:1017B0004F03A0915003B09151030197A105B105CA
:1017C00081F410924E0310924F0310925003109226
:1017D000510310920C0282E090E090935C0380939E
:1017E0005B0380915F0390916003019709F01CC136
:1017F00080917503909176038017910709F014C1C9
:101800008091710390917203A0917303B09174035E
:10181000009709F409C12091700321110DC0409176
:101820007103509172036091730370917403452B9F
:10183000462B472B09F4F8C020915B0330915C03E1
:101840002230310509F0F0C0209152032111ECC083
:10185000FC01C080D180E280F38080915603882310
:1018600009F4D3C08091620390916303892B09F43A
:10187000FDC0209162033091630381E02230310585
:1018800009F080E02091620330916303C1E02130D0
:10189000310549F02091620330916303C1E02230A9
:1018A000310509F0C0E0882309F456C020916C038B
:1018B00030916D0340916E0350916F03C701B601E3
:1018C0000E942B3587FD14C020916C0330916D036D
:1018D00040916E0350916F036091570370915803CC
:1018E0008091590390915A030E94493487FD22C088
:1018F00020916C0330916D0340916E0350916F0302
:10190000C701B6010E942B35181634F520916C03DF
:1019100030916D0340916E0350916F0360915703B6
:10192000709158038091590390915A030E94493451
:10193000811112C08091640390916503A0916603A8
:10194000B0916703892B8A2B8B2B19F481E080934C
:10195000530381E080935203CC2309F456C02091B5
:101960006C0330916D0340916E0350916F03C7017A
:10197000B6010E94493487FF14C020916C03309156
:101980006D0340916E0350916F0360915703709106
:1019900058038091590390915A030E942B3587FF79
:1019A00022C020916C0330916D0340916E035091E1
:1019B0006F03C701B6010E944934811126C02091EE
:1019C0006C0330916D0340916E0350916F036091F1
:1019D0005703709158038091590390915A030E94C4
:1019E0002B35181694F48091640390916503A091AF
:1019F0006603B0916703892B8A2B8B2B19F481E046
:101A00008093530381E08093520381E090915203CD
:101A1000911180E080935603C0925703D0925803EF
:101A2000E0925903F0925A03012B09F067C18091AB
:101A30005B0390915C03892BD9F41092610310929F
:101A4000520380910C02882379F082E090E0909319
:101A50005C0380935B0310920C0220915F03309132
:101A6000600381E0232BE9F080E01BC081E00ACF16
:101A700010920C0280916103882349F01092530365
:101A800010925C0310925B0310926103EDCF809182
:101A90005F0390916003892BE1F0809152031092D3
:101AA000520320915B0330915C032230310509F42D
:101AB0005EC088F42115310509F448C02130310594
:101AC00009F4F3C010925303109252031092610371
:101AD00038C081E0E6CF2330310509F4B1C02430AD
:101AE000310581F740914E0350914F0360915003AF
:101AF00070915103411551056105710561F0415027
:101B000051096109710940934E0350934F0360934B
:101B100050037093510340914E0350914F036091D5
:101B2000500370915103452B462B472BD9F420913C
:101B30005D0330915E032130310509F046C01092FB
:101B4000530310925C0310925B030CC080910C0253
:101B5000882341F082E090E090935C0380935B03E4
:101B600010920C0210924C0380915303CEC0882334
:101B7000C9F38091640390916503A0916603B091CD
:101B80006703181619061A061B060CF07DC0809113
:101B90005F0390916003019709F076C08091640320
:101BA00090916503A0916603B091670380934E0303
:101BB00090934F03A0935003B093510383E090E0C0
:101BC00090935C0380935B03CDCF40916803509169
:101BD000690360916A0370916B03452B462B472B79
:101BE000A9F0109253038091680390916903A0912A
:101BF0006A03B0916B0380934E0390934F03A093BD
:101C00005003B093510381E090E0DACF882399F03C
:101C100080910D0290910E02A0910F02B0911002DE
:101C200080934E0390934F03A0935003B0935103BE
:101C300084E090E0C5CF1092530382E090E0C0CFE3
:101C400080914E0390914F03A0915003B0915103A6
:101C50000097A105B10559F00197A109B109809339
:101C60004E0390934F03A0935003B0935103809180
:101C70004E0390914F03A0915003B0915103892BD3
:101C80008A2B8B2B09F06ECF80910D0290910E0262
:101C9000A0910F02B0911002892B8A2B8B2B09F493
:101CA0004ECF81E080935303B3CF40914E035091C8
:101CB0004F03609150037091510341155105610527
:101CC000710561F0415051096109710940934E035A
:101CD00050934F03609350037093510340914E0310
:101CE00050914F036091500370915103452B462B47
:101CF000472B09F037CF8111C7CF9FCF80914C037D
:101D0000882309F431CF80914D03CF911F910F911A
:101D1000FF90EF90DF90CF900895109257031092AC
:101D200058031092590310925A03109256031092BE
:101D30005C0310925B0310925503109254031092AF
:101D4000760310927503109253031092520310926F
:101D50004E0310924F0310925003109251031092B1
:101D60004D0310924C031092710310927203109263
:101D70007303109274031092700310926C0310920C
:101D80006D0310926E0310926F0388EE93E0A0E053
:101D9000B0E080930D0290930E02A0930F02B093D7
:101DA0001002109268031092690310926A03109255
:101DB0006B031092640310926503109266031092F5
:101DC0006703109263031092620381E080930C0218
:101DD000109261031092600310925F0310925E03F1
:101DE00010925D0390E080E0089580915F039091F0
:101DF0006003892B19F580910C02882351F08091A2
:101E00006103811106C081E080934D0380934C03F0
:101E100008952091610330910C0281E090E033231A
:101E200011F090E080E030E082239323892B21F0B1
:101E300010924D0381E0EACF10924C03089582E0A6
:101E400090E0FA01918380838FEF9FEF0895CF9305
:101E5000DF93EA01009711F00E94B82119821882DD
:101E600090E080E0DF91CF910895DB01009719F4B5
:101E70008FEF8C9308952EEF2C93FC013F96EF305B
:101E8000F10508F034C08827E75BF04F8F4F0C94C2
:101E9000323B750F730F710F6F0F6D0F690F6B0F63
:101EA000670F650F630F600F5C0F580F5E0F770FA2
:101EB00080E311968C93089589E2FBCF82E2F9CFFB
:101EC00011961C92089583E2F4CF81E2F2CF81E172
:101ED000F0CF87E2EECF8AE2ECCF80E1EACF84E276
:101EE000E8CF88E2E6CF86E2E4CF81E3E2CF80E28A
:101EF000E0CF8091830390918403089590938403AD
:101F000080938303089580918203089590918203C2
:101F1000892B809382030895982F90958091820356
:101F2000892380938203089580918103089580918D
:101F30007F039091800308956115710559F0FB01AD
:101F400030E020E070E060E02417350719F06115FB
:101F5000710511F0CB010895A081B181A817B907CF
:101F600009F4BF012F5F3F4F3696EECF8091850376
:101F700081111CC060D266D290937803809377035E
:101F80000E94B6190E94C81990937C0380937B032A
:101F90000E94451E0E944C1E90937A038093790301
:101FA00081E08093850390E080E0089584EF9FEFC7
:101FB00008958F929F92AF92BF92CF92DF92EF924D
:101FC000FF920F931F93CF93DF9300D000D000D0E8
:101FD0001F92CDB7DEB71A86198618861F821E8219
:101FE0001D821C821B821A8219828091850307EF51
:101FF0001FEF882309F49CC08E010D5F1F4F9E01C7
:102000002B5F3F4FAE01495F5F4FBE01675F7F4F60
:1020100090E080E00E94C91F8C01009721F0059696
:10202000029708F0DBC029853A852115310509F4AE
:1020300002C1ED80FE804B815C81B701640F751F8A
:102040008F8198858617970708F4F5C0E20EF31E76
:10205000D7019C91903C09F07FC04230510508F4B3
:102060007BC011968C914091830350918403452B42
:1020700009F49CC0913F08F071C02CE1290F2D306C
:1020800008F48BC02DE2290F203108F489C0903C60
:1020900021F48150823008F483C088E3890F8B30AB
:1020A00008F481C095E3C92E9FE0D92EEFE1FFE04F
:1020B0006D817E81AE014F5F5F4F89859A8519954D
:1020C0005C01C114D104A1F189809A80811491042A
:1020D00079F18B819C818815990508F487C010E0FF
:1020E00000E04B815C8170E060E0C7010E945C3BD6
:1020F00001151105E9F449815A8169857A858D8137
:102100009E81680F791FC501F6011995E980FA8053
:102110000D811E812F81388549855A856FEF7FEFAC
:1021200081E090E00E94641F8C01892B09F056C069
:10213000C8012A960FB6F894DEBF0FBECDBFDF915F
:10214000CF911F910F91FF90EF90DF90CF90BF90B4
:10215000AF909F908F90089580E085CF30E020E091
:10216000220F331FF901E958FC4F0190F081E02D57
:10217000309709F497CF892F90E01995009709F4CB
:1021800091CFDC011296ED91FC9113971496CD90AE
:10219000DC90309709F08CCF1FC021E030E0E0CF19
:1021A00022E030E0DDCF23E030E0DACFD12CC12CCB
:1021B000E7E2FFE09F3F09F07BCFE0917703F091EA
:1021C0007803309721F4C90104EF1FEF0CC08FEFA3
:1021D00090E019950097A9F604EF1FEF89859A857D
:1021E000009709F4A5CF0E94B821A2CF0E949320A6
:1021F0008C0189859A850E94B82170E060E0C40155
:102200000E942C2098878F830E94611F9E838D835C
:102210006F8178856115710559F0C8010E944423CA
:102220009A87898706EF1FEF892B09F058CF59CF7E
:1022300008EF1FEF56CF08EF1FEFD0CF2091850397
:10224000222319F020E00C94CD1987EF9FEF089519
:10225000809183039091840308950E94511E0E94EF
:10226000AB1DF5D0E7E7F3E088E0DF011D928A952A
:10227000E9F71092850390E080E008950C94091C22
:1022800021E040E050E0BA010C94CD1986E090E0E6
:10229000FA019183808390E080E0089547E050E068
:1022A00064E372E049CEDF92EF92FF920F931F93A7
:1022B000CF93DF938A01EC01C60FD71FE09089030B
:1022C000F0908A03D9800E947B20D816190678F0F6
:1022D00082E090E0F801918380838EEF9FEFDF91A1
:1022E000CF911F910F91FF90EF90DF900895EF280D
:1022F00041F482E090E0F8019183808384EF9FEFC6
:10230000EECF89818093880390E00196F801918354
:10231000808390E080E0E3CFCF93DF93EA010E94D7
:10232000BA1C882321F00E9488200E94BB1C82E0F6
:1023300090E0998388838BEF9FEFDF91CF91089591
:10234000CF93DF93EB0186E0FB0111928A95E9F7C9
:102350008FEF8883D8DD8983E7DD8A83E8DD9D837D
:102360008C83DF91CF910895CF93DF93EA010E9490
:10237000BD1C811109C082E090E09983888385EFBC
:102380009FEFDF91CF91089590E080E0B7DD81E08D
:1023900090E09983888390E080E0F3CF0F931F93C0
:1023A000CF93DF93EA018C01060F171F0E94BD1C1B
:1023B00081110BC082E090E09983888385EF9FEFC5
:1023C000DF91CF911F910F910895F80181818230A3
:1023D00038F082E090E0998388838EEF9FEFF0CF12
:1023E00081E090E08BDD88E090E09983888390E045
:1023F00080E0E6CFCF93DF930097D1F4EB01FB01B0
:10240000329686E0DF011D928A95E9F78FEF888387
:1024100085E089831A820E947B208B830E947A2028
:102420009D838C8381E08E838F83DF91CF9108958C
:10243000DF91CF911ACD8EE491E190938703809341
:1024400086030895809186039091870308951092E2
:1024500087031092860308958091890390918A03DF
:102460000895411105C0611571058105910561F05F
:102470006093890370938A0380938B0390938C03FA
:1024800040938D0381E0089580E00895FF920F93BB
:102490001F93CF93DF938A01EC01C60FD71FF980FA
:1024A0000E947B20F816190668F082E090E0F8019F
:1024B000918380838EEF9FEFDF91CF911F910F91DA
:1024C000FF9008956C817D818E819F814B81C9DF52
:1024D000811108C082E090E0F8019183808384EF4D
:1024E0009FEFEACF89818093880390E00196F801FD
:1024F0009183808390E080E0DFCFCF93DF93EA0188
:10250000FC01E60FF71F6481758186819781438105
:10251000A8DF811109C082E090E09983888384EF6D
:102520009FEFDF91CF91089581E090E099838883B8
:1025300090E080E0F6CFE9E8F3E0408151816281EC
:102540007381480F511D611D711D4083518362834A
:1025500073830895CF93C09188034C2F50E060910E
:10256000890370918A0301960E94533B8C2FE3DF0D
:1025700010928803CF910895009799F48091890370
:1025800090918A032FEFFB012083892B59F0209132
:10259000880330E02F5F3F4F2417350719F4CB0134
:1025A000D9CF63CC0895009799F4809189039091D5
:1025B0008A032FEFFB012083892B59F02091880398
:1025C00030E02F5F3F4F2417350719F4CB01C2CFFE
:1025D0004CCC089523E1AC01249FC001259F900DB0
:1025E0001124E0919203F0919303E80FF91F2381E6
:1025F00034812250310981E02230310508F080E039
:1026000008950F931F93CF93DF930091940310913C
:102610009503D0E0C0E080E00C171D0749F491E07D
:10262000811190E0892FDF91CF911F910F91089533
:102630008111F5CFCE01CEDF2196EECFA09192038E
:10264000B0919303109729F1209194033091950351
:1026500082179307F0F453E1589F9001599F300D72
:102660001124A20FB31FED91FC911197309789F0BF
:1026700012968C91681768F48DE0689FE00DF11D4B
:10268000112480819181892B21F081E09281491769
:1026900008F080E008959C0143E1429FC001439F00
:1026A000900D1124E0919203F0919303E80FF91F2C
:1026B0008385823091F481E090E06581768140915C
:1026C0001102509112026417750711F490E080E036
:1026D000892B19F081E0232B09F080E00895FC019B
:1026E000A081B1818DE0689FA00DB11D11241396CA
:1026F0004D915C9185859685489F9001499F300D4D
:10270000589F300D1124C9010196611103C0478102
:1027100044FD04960895EF92FF920F931F93CF9379
:10272000DF93EA01FC01E60FF71F02811381E480C9
:10273000F5804F2D6E2DC80181DF81110DC082E023
:1027400090E0998388838EEF9FEFDF91CF911F9167
:102750000F91FF90EF900895C8013CDF882339F076
:1027600082E090E09983888388EF9FEFEECF10930B
:10277000180200931702E0921902F0921A0281E007
:1027800090E09983888390E080E0DFCFCF92DF9262
:10279000EF92FF920F931F93CF93DF937A01EC0197
:1027A000C60FD71FC0901702D090180200911902CF
:1027B00010911A02412F602FC60140DF811110C015
:1027C00082E090E0F701918380838AEF9FEFDF91B1
:1027D000CF911F910F91FF90EF90DF90CF900895D0
:1027E000C601F8DE882341F082E090E0F701918392
:1027F000808388EF9FEFEBCF4C815D816E817F817D
:102800009A8189818F3F41F082E090E0F7019183C6
:1028100080838EEF9FEFDBCFE3E1EC9D9001ED9D98
:10282000300D1124E0919203F0919303E20FF31F16
:102830000190F081E02D2DE0029FE00DF11D1124AB
:102840000190F081E02D27E0129FE00DF11D112491
:10285000808391838B8182834383548365837683D2
:102860001F5F10931A0281E090E0F701918380834B
:1028700090E080E0ACCFEF92FF920F931F93CF9345
:10288000DF937A018C01060F171FC0919203D0913C
:102890009303209781F021E030E0F8018281938159
:1028A00040919403509195038417950710F030E000
:1028B00020E0232B71F482E090E0F7019183808384
:1028C0008EEF9FEFDF91CF911F910F91FF90EF90CF
:1028D000089543E1489F9001499F300D1124C20F94
:1028E000D31F78DE882341F082E090E0F7019183E6
:1028F000808388EF9FEFE6CFF8012481358120386F
:102900003105C8F687818111D6CF4181842F90E0AF
:102910008F7E009741F082E090E0F7019183808301
:1029200086EF9FEFCFCF4F833E832D83268128876D
:102930001986223010F421E0288721E030E0F701E9
:1029400031832083BFCF88E090E0FA0191838083B8
:1029500090E080E00895FB018FEF808381E1818327
:102960008FEF9FEF9383828380E890E09583848349
:10297000168217820895FB018FEF808391E0918387
:1029800082839383848384E3858381E090E09783CB
:1029900086830895DF92EF92FF920F931F93CF9358
:1029A000DF93EA01FC01E60FF71F8181813071F0AE
:1029B00082E090E0998388838FEF9FEFDF91CF9142
:1029C0001F910F91FF90EF90DF9008958281938186
:1029D000D4802581E680F7800091920310919303C3
:1029E0000115110539F482E090E0998388838CEF1A
:1029F0009FEFE4CF4091940350919503841795077E
:102A000038F082E090E0998388838EEF9FEFD6CFF5
:102A1000892B39F082E090E09983888386EF9FEFDD
:102A2000CDCF8D2D8D7FB1F72130A1F781E0D11071
:102A300006C091E0E916F10431F080E004C0E2E064
:102A4000EE16F104D0F3882329F390E080E0C2DD94
:102A5000882339F082E090E09983888388EF9FEFA4
:102A6000ADCFF801D38681E08487F686E586108AAB
:102A7000178681E090E09983888390E080E09ECF84
:102A80004CE050E06EE572E057CA8F929F92BF9281
:102A9000CF92DF92EF92FF920F931F93CF93DF932A
:102AA000EA01FC01E60FF71F828193810481B58062
:102AB000E0919203F0919303309791F482E090E0DB
:102AC000998388838CEF9FEFDF91CF911F910F91B6
:102AD000FF90EF90DF90CF90BF909F908F900895E0
:102AE00020919403309195038217930738F082E088
:102AF00090E0998388838EEF9FEFE6CF23E1289FB4
:102B00006001299FD00C1124EC0DFD1DE080F180A7
:102B1000E114F10499F28281081748F78DE0089FCB
:102B200080011124E00EF11EF70180819181892B33
:102B300029F6BB20E1F2F7E0BF9E40011124C40159
:102B40000E947F21F70191838083E0919203F091AD
:102B50009303EC0DFD1D0190F081E02DE00FF11FBE
:102B600080819181009739F482E090E09983888395
:102B70008DEF9FEFA9CFA40170E060E00E945C3B65
:102B80008091920390919303C80ED91EF601808123
:102B90009181080F191FF801B28281E090E09983BA
:102BA000888390E080E090CFAF92BF92CF92DF9287
:102BB000FF920F931F93CF93DF93EA01FC01E60F7F
:102BC000F71F82819381F480009192031091930307
:102BD0000115110581F482E090E0998388838CEFE0
:102BE0009FEFDF91CF911F910F91FF90DF90CF90DA
:102BF000BF90AF9008952091940330919503821770
:102C0000930738F082E090E0998388838EEF9FEFFE
:102C1000E8CF2FEF2F0D2C3FA8F723E1289F60016D
:102C2000299FD00C11240C0D1D1DF801808191816C
:102C3000892B89F6FDE0FF9E50011124C5010E94F9
:102C40007F21F80191838083E0919203F0919303B7
:102C5000EC0DFD1D80819181009739F482E090E0B8
:102C6000998388838DEF9FEFBCCFA50170E060E072
:102C70000E945C3BE0919203F0919303EC0DFD1DEB
:102C8000F28281E090E09983888390E080E0A9CF90
:102C9000CF92DF92EF92FF920F931F93CF93DF9328
:102CA000860F971FFC0102811381809192039091FE
:102CB0009303892B81F082E090E0FA019183808375
:102CC0008CEF9FEFDF91CF911F910F91FF90EF90CD
:102CD000DF90CF900895C801B0E0A0E00197A1096E
:102CE000B1098F3F9F4FA105B10540F082E090E010
:102CF000FA01918380838EEF9FEFE4CF7A0183E125
:102D0000809F6001819FD00C1124C6010E947F2109
:102D1000EC01009741F482E090E0F7019183808319
:102D20008DEF9FEFCFCFA60170E060E00E945C3B8B
:102D3000D0939303C093920310939503009394034D
:102D400090E080E02FEF3FEF41E061E070E080171E
:102D5000910741F481E090E0F7019183808390E056
:102D600080E0B0CF3A8B298B1B864C877E876D879E
:102D7000188A1F8601966396EACFEF92FF921F93FF
:102D8000CF93DF93EC0110E0F12CE12C6A81161750
:102D9000B0F083E0689FB0011124AE014F5E5F4F39
:102DA000C7010E94E421009721F02FEF3FEF3A8BFB
:102DB000298BDF91CF911F91FF90EF900895612FA4
:102DC000CE018DDC61E070E00E942C20E816F9064F
:102DD00008F47C011F5FDACFF894209190033091C2
:102DE000910381E02115310509F080E0232B09F0E2
:102DF000789408952F923F924F925F926F927F92B4
:102E00008F929F92AF92BF92CF92DF92EF92FF92FA
:102E10000F931F93CF93DF933C01660E771EF30150
:102E2000828193814C01B12CA12CC0919203D0914D
:102E30009303209769F021E030E060919403709152
:102E400095038617970710F030E020E0232BD1F48C
:102E500082E090E0FA01918380838EEF9FEFDF9113
:102E6000CF911F910F91FF90EF90DF90CF90BF9087
:102E7000AF909F908F907F906F905F904F903F901A
:102E80002F90089580921B0290921C02A0921D0226
:102E9000B0921E0263E1689F9001699F300D11247A
:102EA000C20FD31FF3018181833040F082E090E0B4
:102EB000FA019183808386EF9FEFD1CF2A012B8186
:102EC0003C81232BF1F4288139819F8191FF2EC011
:102ED000232B09F46FC0209197039A81422F490F49
:102EE0005527551FBA0141E050E06138710514F0D3
:102EF00050E040E0452B09F45DC02A87920F909383
:102F000097038150823008F481C066DF882309F47A
:102F1000D8C0F3018181813009F48DC008F47BC0F1
:102F2000823009F4C6C090E080E0ADC0232B09F4E4
:102F300041C0209196039A81E22FE90FFF27FF1FDE
:102F400041E050E0ED3FF10514F050E040E0452B4A
:102F500089F12A87920F90939603D3CFA081B181F4
:102F6000A20FB31F11966C91060F111D0196295FD8
:102F70003F4F8417950794F38D859E85089F100118
:102F8000099F300C189F300C1124C114D104D1F4C6
:102F90008F8184FF17C00E947A20F5E02F0E311C2C
:102FA00021E08215930508F420E0A701435F5F4FFD
:102FB00021110EC082E090E0F2019183808387EFBF
:102FC0009FEF4DCF0E947A202FEF221A320AE8CFCE
:102FD00088819981E80EF91EF70114830383FFEFBE
:102FE000CF1ADF0A7A018A818C151D0409F00CF4CE
:102FF0008CCFE881F981EE0DFF1D428150E030E079
:1030000020E010E000E090E080E0B3CFF12CE12C74
:10301000D12CC12CE8CF81E090E09C838B83F1DA46
:10302000882309F480CF81E090E00E947E0F80E445
:103030000E948C0F78CF89899A89019661F083E08C
:1030400090E09C838B8382E090E00E947E0F80E47E
:103050000E94860F68CF8D819E8120911102309150
:10306000120282179307D1F4609115027091160233
:10307000AE014F5E5F4F80911302909114020E9447
:1030800003230097E1F2789422E030E0F2013183EB
:103090002083892B99F08DEF9FEFE1CE89288A2834
:1030A0008B2869F6892B59F6CE0167DE188A1F86B0
:1030B000E8CF82E090E09C838B8335CF90E080E086
:1030C000CECE82E090E0F2019183808385EF9FEF86
:1030D000C6CE8F929F92AF92BF92CF92DF92EF9225
:1030E000FF920F931F93CF93DF93EA018C01060F9A
:1030F000171FF8018181833098F082E090E0998376
:10310000888386EF9FEFDF91CF911F910F91FF9002
:10311000EF90DF90CF90BF90AF909F908F900895E9
:103120008091920390919303892B61F081E090E06C
:103130002091940330919503232B11F490E080E0CB
:10314000892B39F482E090E0998388838EEF9FEF9A
:10315000DACF42DE882309F4DFC0F80181818130B3
:1031600009F495C0E8F0823099F4209194033091ED
:103170009503E0919203F091930390E080E041E0A9
:1031800050E02817390709F0BDC03BDA811117C09C
:10319000789481E090E09983888390E080E0B3CFD9
:1031A0002091940330919503E0919203F091930361
:1031B00090E080E041E050E02817390741F481E0D9
:1031C00090E00E947E0F80E40E948C0FE1CF63812B
:1031D0007481672B11F05483438301967396ECCF6F
:1031E000E0919203F0919303E00FF11F238134816A
:1031F00022303105D9F4218932892F3F3F4FB1F474
:103200002581368140911102509112022417350711
:1032100061F5AF014F5E5F4F60911502709116022C
:1032200080911302909114020E940323EFEFCE1AB3
:10323000DE0AEE0AFE0A0D5E1F4F40919403509184
:10324000950370E060E0C416D506E606F7063CF587
:10325000009731F27894892B09F49BCF82E090E0BB
:10326000998388838DEF9FEF4ECFC114D104E10481
:10327000F104E1F6232BD1F6CF017FDDE09192033B
:10328000F0919303E00FF11F108A1786CFCF10E063
:1032900000E090E080E0C12CD12C7601CECF0097E9
:1032A000C9F610E000E0812C912C540183E0E82E57
:1032B000F12C1AC0E0919203F0919303E00FF11FFB
:1032C00083819481029749F4F482E38282E090E062
:1032D0000E947E0F80E40E94860FFFEF8F1A9F0AE4
:1032E000AF0ABF0A0D5E1F4F809194039091950322
:1032F000B0E0A0E088169906AA06BB06DCF290E0D2
:1033000080E0A8CF638174816230710511F4548329
:1033100043830196739635CF82E090E0998388834A
:1033200085EF9FEFF0CE0097B9F48FEFFB0180831C
:1033300020911B0230911C0243E1429FC001439F38
:10334000900D1124E0919203F0919303E80FF91F7F
:103350008285FB01818308950C94350F88E090E00D
:10336000FA019183808390E080E0089510929103A8
:1033700010929003E2E9F3E086E0DF011D928A9566
:10338000E9F780E495E190938F0380938E0308958D
:1033900080918E0390918F0308952F923F924F92C8
:1033A0005F926F927F928F929F92AF92BF92CF92D5
:1033B000DF92EF92FF920F931F93CF93DF93CDB7DE
:1033C000DEB72F970FB6F894DEBF0FBECDBFF894CF
:1033D000E0919003F09191033196F0939103E09383
:1033E00090037894409092035090930341145104B9
:1033F00009F40CC2E0919403F0919503EF2B09F4CA
:1034000005C22D8749875A876B877C8798878F836A
:103410001201B12CA12C10E000E080919403909156
:103420009503A816B90618F40115110529F1F894A9
:1034300080919003909191030197909391038093D1
:1034400090037894C8012F960FB6F894DEBF0FBE94
:10345000CDBFDF91CF911F910F91FF90EF90DF9043
:10346000CF90BF90AF909F908F907F906F905F9024
:103470004F903F902F9008957101E418F508D10105
:1034800017968C91179781FD54C013968D919C913E
:103490001497039709F04DC015968D919C91EF817B
:1034A000F8858E179F0709F044C0B50190E080E0D1
:1034B0007FD48A8320919203309193033D832C83A0
:1034C0003D85332309F44CC04C815D81452B09F4C3
:1034D0009AC18091940390919503A816B90608F0BB
:1034E00092C1C501D8D88823E9F06C817D816E0D29
:1034F0007F1D7D836C83DB011F968D919C91892BB1
:1035000089F0D12CC12CF12CE12CAC81BD8112961B
:103510008C9112978E151F0409F094F450961C920A
:103520001E921F972A81222321F0B50190E080E0AE
:1035300041D43FEFA31AB30A43E1240E311C6DCFEF
:10354000AC81BD81ED91FC91EC0DFD1D85819681D5
:103550000FD7BFEFEB1AFB0AEDE0CE0ED11CD5CF93
:10356000EC81FD81309709F44EC1809194039091D4
:103570009503A816B90608F046C1EE0DFF1DFF879A
:10358000EE87C50188D88B83882339F1AE85BF8546
:103590001F968D919C915097019621E01D964D911B
:1035A0005C918417950709F020E02E831982712C15
:1035B00010E000E0AE85BF8512968C91781608F475
:1035C0005DC0EE85FF858785908901966585768546
:1035D0000E94FC3A908B8787A5CFB1E0BE83E6CFEF
:1035E000992493946BC08BD6F6019683858382C011
:1035F000D601ED90FC90B7E06B9EE00CF11C11241D
:10360000F7016381748180818F3F61F121E030E0B7
:1036100002C0220F331F8A95E2F7C901092E000C60
:10362000AA0BBB0BFB014081518162817381842312
:103630009523A623B72321E0892B8A2B8B2B09F412
:1036400020E0D4012C93D70111968C91F6012385AB
:103650003485820F932F911D880E991E1486138630
:1036600063949BC0418150E0C4010E94533BEBCF67
:10367000998206EF1FEFC5C01982C3C0F981F1110D
:10368000A0CFEDE07E9E70011124AE85BF85CD9068
:10369000DC90CE0CDF1C15D49D838C83BB81BB23B7
:1036A00009F49ECF81E0EE85FF8527853089232BA5
:1036B00009F080E0982E882309F458C0672D8E8584
:1036C0009F850DD8D60118969C938E93179761E02D
:1036D00070E0C2D4EE85FF85218932892F3F320701
:1036E00009F481CFBC01C901CFD7D60116969C93AE
:1036F0008E931597D60115968D919C9116970097EC
:1037000009F4B6CFEC81FD818E0F9F1F1A969C9312
:103710008E931997AE85BF85ED91FC911197EE0EB2
:10372000FF1EF70121853285148613861A968C9127
:10373000870DD9018D93711016C0EE85FF858781A5
:1037400084FF11C049855A856B857C85F9014183C9
:10375000528363837483F701838594850496A80F4D
:10376000B91F14861386F701B287A187D601159673
:103770008D919C911697892B09F443C0EE85FF85A6
:103780002581368180911102909112022817390704
:1037900079F019968D909C90612CD60112968C919F
:1037A0001297681608F424CF1A969C928E92199755
:1037B000BE81BB2309F460CF61E070E0F601878130
:1037C00090854AD4D6011796ED90FC9018971596DF
:1037D0004D915C91E1E0F0E0BA81BB2311F0F0E0A3
:1037E000E0E00C811D819C01B501882799278E1B83
:1037F0009F0B6AD38C01892B21F0F601858196817C
:10380000B7D57394D7CE0FEF1FEF8CCE10E000E04A
:103810000ECE2F923F924F925F926F927F928F9235
:103820009F92AF92BF92CF92DF92EF92FF920F934F
:103830001F93CF93DF93809192039091930310E0B5
:1038400000E0892BA9F0C8DA0AEF1FEF882381F086
:103850002090940330909503C0919203D0919303EC
:10386000D12CC12C10E000E02C143D04A9F4789474
:10387000C801DF91CF911F910F91FF90EF90DF90E2
:10388000CF90BF90AF909F908F907F906F905F9000
:103890004F903F902F900895C6010E944B138823AC
:1038A00009F18B819C810397E9F48F859889892B95
:1038B000C9F0B60190E080E07BD221E030E08823BF
:1038C00011F030E020E044245524421A530AB12C70
:1038D000A12C912C812C8A818815190409F038F4C7
:1038E000188A1F864FEFC41AD40A6396BDCFE881A9
:1038F000F981EA0DFB1D85819681892BA1F161E09B
:1039000070E087819085A8D33C01DBD28C01E881EF
:10391000F981EA0DFB1D8185928525813681200F75
:10392000311FAC01421B530B9A0147815085421B4A
:10393000530B70E060E00E945C3BE881F981EA0D86
:10394000FB1DE780F084458156819301B601C201D9
:10395000BBD28C01892B39F0E881F981EA0DFB1D7E
:103960008581968105D55FEF851A950A8DE0A80EB1
:10397000B11CB1CF31CA789408952F923F924F92E3
:103980005F926F927F929F92AF92BF92CF92DF929F
:10399000EF92FF920F931F93CF93DF9300D000D04D
:1039A000CDB7DEB7009192031091930399249394BD
:1039B0000115110509F43EC0A0909403B090950341
:1039C0000BDA982E8823B1F1109293031092920390
:1039D00010929503109294031092960310929703FD
:1039E0008FEF9FEFDC0180931B0290931C02A0934A
:1039F0001D02B0931E0278947FD31E830D83C12CC9
:103A0000D12C7601C501B0E0A0E089839A83AB8315
:103A1000BC8322242A94322C89819A81AB81BC8177
:103A2000C816D906EA06FB06F4F0C801A1D480E462
:103A30000E948C0F892D26960FB6F894DEBF0FBE1C
:103A4000CDBFDF91CF911F910F91FF90EF90DF904D
:103A5000CF90BF90AF909F907F906F905F904F906E
:103A60003F902F900895AD81BE8115968D919C91C8
:103A70001697209111023091120282179307D1F408
:103A800051968D919C91EED5ED81FE818081918141
:103A9000B12CA12C412C512C3201892B89F5BFEF7F
:103AA000CB1ADB0AEB0AFB0AED81FE817396FE83DB
:103AB000ED83B2CFC114D104E104F10429F7892BBD
:103AC00019F7ED81FE81818992898F3F980709F06E
:103AD00029D5AD81BE8152963C922E925197D4CF7A
:103AE0008A0D9B1DDC018D919C91009709F040D4BB
:103AF000BFEF4B1A5B0A6B0A7B0AEDE0AE0EB11CFE
:103B0000AD81BE818D919C91119712964C9150E0A0
:103B100070E060E044165506660677060CF328D47C
:103B2000BECFCF93DF93EA0128DF811109C082E085
:103B300090E09983888385EF9FEFDF91CF9108957F
:103B400081E090E00E947E0F81E090E0998388837D
:103B500090E080E0F2CF11DF10928F0310928E037D
:103B6000089542E050E066EA72E00C949C0FFF92E8
:103B70000F931F93CF93DF938A01EC01C60FD71FDA
:103B8000F980B9D20897F816190671F068F082E04A
:103B900090E0F801918380838EEF9FEFDF91CF91CA
:103BA0001F910F91FF9008956C817D818E819F817F
:103BB0004B810E943112811108C082E090E0F8012F
:103BC0009183808384EF9FEFE9CFF9800E942C12CC
:103BD0004F2D50E0BE01685F7F4F0E94533B8981AB
:103BE0000E949B1281E090E0F8019183808390E035
:103BF00080E0D4CFDF92EF92FF920F931F93CF9389
:103C0000DF938A01EC01C60FD71F0E942C127C01A2
:103C1000D98071D2DD2059F0029721E030E0D8162A
:103C2000190619F010F030E020E0232B79F482E03F
:103C300090E0F801918380838EEF9FEFDF91CF9129
:103C40001F910F91FF90EF90DF900895EF2841F4BE
:103C500082E090E0F8019183808384EF9FEFEECFC4
:103C6000F9800E942C124F2D50E0BE016E5F7F4FF5
:103C70000E94533B89810E949B1281E090E0F801F1
:103C80009183808390E080E0D9CF81EB9DE1909398
:103C900099038093980308958091980390919903D4
:103CA00008950895FC011182108293838283089500
:103CB000DB011D921C92DC011296ED91FC91139791
:103CC0007183608313967C936E9312970895FC0121
:103CD00080819181DB018D939C93A081B1811097AC
:103CE00041F08D919C9191838083892B11F4F38312
:103CF000E2830895FC0180819181DB018D939C9387
:103D0000892B11F473836283718360830895FC01AE
:103D100011821082938382830895CF93DF931F9241
:103D20001F92CDB7DEB71A821982F894BE016F5F79
:103D30007F4F8FE993E0CBDF89819A81009709F06B
:103D400017D389819A81892B89F7BE016F5F7F4FD5
:103D500083EA93E0BCDF89819A81009709F008D358
:103D600089819A81892B89F778940F900F90DF9140
:103D7000CF910895CF93DF931F921F92CDB7DEB7F7
:103D80001A821982F894BE016F5F7F4F8BE993E02E
:103D90009EDF89819A81009709F0EAD289819A8110
:103DA000892B89F778940F900F90DF91CF91089528
:103DB00081E0089590E080E00895EF92FF920F93E4
:103DC0001F93CF93DF931F921F92CDB7DEB71A8256
:103DD000198280919A0307EF1FEF8823A1F1F894CD
:103DE000BE016F5F7F4F83EA93E071DF7894898132
:103DF0009A81EE24E394F12C892B51F4F894BE01BE
:103E00006F5F7F4F8FE993E062DF7894F12CE12CB4
:103E100089819A810EEF1FEF0097A9F0FC01428182
:103E2000538164E070E07AD68C01892B61F0F894BC
:103E300069817A81C701880F991F880F991F815660
:103E40009C4F58DF7894C8010F900F90DF91CF916D
:103E50001F910F91FF90EF9008950F931F93CF93B1
:103E6000DF9300D01F92CDB7DEB71C821B821A826F
:103E7000198280919A0307EF1FEF8823C1F0AE01EA
:103E80004D5F5F4F64E070E0CE010196BAD68C01C1
:103E9000892B69F4E981FA818B819C8193838283E8
:103EA000F89469817A818BE993E002DF7894C80104
:103EB0000F900F900F900F90DF91CF911F910F9166
:103EC0000895BFD7049608958F929F92AF92BF92A4
:103ED000CF92DF92EF92FF920F931F93CF93DF93D6
:103EE0001F921F92CDB7DEB71A821982BC016F5F95
:103EF0007F4F6330710598F0AA24AA94BA2CC501AB
:103F00000F900F90DF91CF911F910F91FF90EF9045
:103F1000DF90CF90BF90AF909F908F900895411504
:103F2000510551F3480159018A016C01CADF881516
:103F3000990511F7E114F104F9F28E0D9F1DA816F1
:103F4000B906D0F280919A038823F1F0F894B50174
:103F5000645071099701AE014F5F5F4FC80104962D
:103F6000E5D65C01892B71F489819A81F8019383EC
:103F70008283C601880F991F880F991FB801815647
:103F80009C4F96DE7894BBCF87EFA82EBB24BA94C3
:103F9000B6CFAF92BF92CF92DF92EF92FF920F9384
:103FA0001F93CF93DF931F921F92CDB7DEB71A8274
:103FB0001982892B09F047C06115710509F443C0C6
:103FC0004115510509F43FC02115310509F43BC0E5
:103FD00001151105C1F180919A038823B9F1790186
:103FE0006A015B01F894BE016F5F7F4F8BE993E03C
:103FF0006EDE789489819A81009759F1DC011296DE
:104000006D917C91A8010496AAD68C01E981FA8170
:10401000D501ED93FC93828193810496F6019183FF
:1040200080834FDFD7018D939C93C8010F900F9031
:10403000DF91CF911F910F91FF90EF90DF90CF9084
:10404000BF90AF9008950FEF1FEFEFCF07EF1FEF77
:10405000ECCF0EEF1FEFE9CFCF93DF93EC01672B8F
:1040600071F4F8D68C179D0760F0EBD62496C80F34
:10407000D91FEAD68C0F9D1FDF91CF910895E7D607
:10408000F1CF90E080E0F8CF0F931F93CF93DF93B1
:1040900020919A0321112BC08B01EC018FE993E051
:1040A00001DE83EA93E0FEDD8BE993E0FBDD97D050
:1040B0000097C1F4CFD670E060E0CEDF4FE152E070
:1040C00062E070E081D1009769F480911F029091C5
:1040D0002002D2D6B801CE0107D5009719F421E00D
:1040E00020939A03DF91CF911F910F91089584EF50
:1040F0009FEFF8CFACC6AEC6CF93DF93AED6EC0140
:10410000892B11F40ADE36DECE01DF91CF910895BE
:10411000CF93DF93A2D6EC01892B09F4FEDDCE010B
:10412000DF91CF91089580911F0290912002089510
:10413000CF93DF9380919A03D0E0C0E08823D1F041
:10414000A0D6EC01892BB1F4E8DD14DE80911F02CA
:1041500090912002E7D1E8D2EC01892B59F48FE944
:1041600093E0D5DD83EA93E0D2DD8BE993E0CFDD08
:1041700010929A03CE01DF91CF910895EF92FF92B2
:104180000F931F93CF93DF93EC017A018B010F5FA5
:104190001F4F0E9DA0010F9D500D1E9D500D11240F
:1041A00070E060E00E945C3B90E080E0F0E0E0E0E6
:1041B0002FEFE816F90639F4DF91CF911F910F9197
:1041C000FF90EF9008951A8219822883309711F09A
:1041D000D283C1830196FE01C00FD11FEACFCF92D7
:1041E000DF92EF92FF920F931F93CF93DF9304E53B
:1041F00015E00C7F43E050E061E272E087E292E07C
:1042000020D481E2E82E82E0F82E97E2C92E92E0D7
:10421000D92ECBECD5E0D7014D915D917D01F60112
:10422000619171916F01198308835D834C835B8376
:104230004A837F836E839B012F5F3F4F249FC00182
:10424000259F900D349F900D112499878887011523
:10425000110511F0C80192DF88859985080F191F93
:104260002A96F7E2EF16F2E0FF06A9F6E9EAF3E094
:1042700088EA91E0DF019C011D9221503040E1F776
:104280001092A8031092A7031092EA051092E90574
:104290001092EE051092ED051092EC051092EB05D0
:1042A0001092F0051092EF051092F2051092F105B0
:1042B0001092F4051092F3051092F8051092F7058C
:1042C0001092F6051092F5051092FA051092F90574
:1042D0001092FC051092FB051092C8051092C705BC
:1042E0001092CA051092C90590E080E0DF91CF914D
:1042F0001F910F91FF90EF90DF90CF90089500975E
:10430000F1F0F894A7E2B2E0EBECF5E030E020E069
:104310004D915D9148175907A8F04281538141158D
:10432000510581F08AE0829FF001839FF00D1124F6
:10433000E553FA4F80819181009759F4789490E089
:1043400080E008952F5F3F4F3A962330310501F703
:10435000F5CFDC0111966D917C91718360834150A2
:10436000510953834283FC012193CF01789408952E
:10437000009749F1DC018E91853041F4E091C90547
:10438000F091CA053097F9F0CD0119948530D8F431
:10439000282F30E0F8948FEF8C938AE0829FF00111
:1043A000839FF00D1124E553FA4F8081918112967D
:1043B0009C938E931197B183A08382819381019600
:1043C0009383828378940895CF92DF92EF92FF9245
:1043D0000F931F93CF93DF939C018CEA93E08C7F24
:1043E0004115510509F49BC02115310509F497C009
:1043F0006115710509F493C07A01AB01B9016D5FD4
:104400007F4F6C7F9B012F5F3F4F249F8001259F33
:10441000100D349F100D1124F8942091E90530916E
:10442000EA05232B59F42091F1053091F20521156D
:10443000310569F12017310708F058C02091F305C4
:104440003091F405232B91F42091F1053091F20580
:10445000820F931F2091FB053091FC05211531053A
:1044600009F441C02017310708F056C07894CFEF07
:10447000DFEF86EF9FEFF701D183C083DF91CF910C
:104480001F910F91FF90EF90DF90CF900895C3E0C0
:10449000D0E0C090A703D090A80325EA31E02C1902
:1044A0003D092017310710F32AE02C9FF0012D9FC2
:1044B000F00D1124E553FA4F918380835583448393
:1044C000538342837783668311870087009709F0BF
:1044D00055DE0C0D1D1D1093A8030093A7037894BF
:1044E00090E080E0C8CFC4E0D0E0D3CFC3E0D0E01C
:1044F0002AE02C9FF0012D9FF00D1124E553FA4F77
:104500009183808355834483538342837783668377
:10451000009729F333DEE3CFC4E0D0E0E9CF8FEF9B
:104520009FEFACCF9C010397029708F069C0F89405
:1045300084E09AE0482F50E0241735070CF44DC072
:1045400091E08AE0829FF001839FF00D1124E553F2
:10455000FA4F1182108215821482138212821782FE
:1045600016829923B1F18091E9059091EA05892B92
:10457000A9F42091F1053091F2052115310571F072
:104580008091A7039091A803821B930B9093A8039B
:104590008093A7031092F2051092F1058091F30524
:1045A0009091F405892BA9F42091FB053091FC052D
:1045B0002115310571F08091A7039091A803821B0A
:1045C000930B9093A8038093A7031092FC0510927D
:1045D000FB05789490E080E00895949FF001959F0A
:1045E000F00D1124E553FA4F40815181452B31F4F0
:1045F00040855185452B11F481509CCF90E0A1CF8F
:104600008FEF9FEF08954115510549F1009739F15A
:104610006115710521F1F8942091C7053091C80505
:10462000232BB9F42091C9053091CA05232B89F4B5
:104630009093C8058093C7057093CA056093C90518
:10464000789425E030E090E080E0FA013183208327
:10465000089578942FEF3FEF86EF9FEFF6CF8FEF1F
:104660009FEF0895059769F4F8941092C805109289
:10467000C7051092CA051092C905789490E080E0B1
:1046800008958FEF9FEF08956115710519F4F0E01B
:10469000E0E011C08530910581F4E091C705F0910B
:1046A000C8053097A1F3CB0101961995009779F3CE
:1046B000FC0185E08193CF0108959C0123503109CD
:1046C0002230310520F72AE0289FD001299FB00D24
:1046D0001124A553BA4F2D913C911197232BB9F278
:1046E00016962D913C9117972617370780F2F8946C
:1046F00012962D913C9113972115310529F0ED91DA
:10470000FC911197309711F47894C1CF4181528177
:1047100011965C934E932150310913963C932E933E
:10472000129781937894C7CFE1E5F5E086E7DF0142
:104730001D928A95E9F7E9EAF3E088EA91E0DF0162
:104740009C011D9221503040E1F71092A803109275
:10475000A703EBECF5E082E3DF011D928A95E9F710
:10476000E7ECF5E084E0DF011D928A95E9F790E03F
:1047700080E00895CF93DF93C0912D02D0912E0257
:10478000CF3FDC0761F40E94A13290932E02809308
:104790002D0297FF09C0D0932E02C0932D0284EF03
:1047A0009FEFDF91CF91089590E080E0FACF8230C3
:1047B000910528F48093FD0590E080E008958FEF47
:1047C0009FEF08954F925F926F927F92AF92BF9248
:1047D000CF92DF92EF92FF920F931F93CF93DF93CD
:1047E0001F921F92CDB7DEB71A821982009709F483
:1047F0007AC06115710509F476C020912D023091BF
:104800002E0207EF1FEF2F3F3F4F09F446C06B0109
:104810005C01412C512C3201F12CE12C10E000E024
:104820009E012F5F3F4FA6014E195F09B5016E0D26
:104830007F1D80912D0290912E020E940133892BC1
:1048400009F04BC089819A81009741F4E114F10489
:1048500029F42091FD05222309F442C0E80EF91E37
:10486000EC14FD04D0F480E8481684E858068EE184
:104870006806710420F560E070E0CB010E940D36FF
:104880002AE0420E511C611C711C0A3F4FEF1407B5
:1048900021F0043F8FEF1807A1F4C8010F900F908B
:1048A000DF91CF911F910F91FF90EF90DF90CF900C
:1048B000BF90AF907F906F905F904F90089501EF01
:1048C0001FEF81E090E0013F2FEF120711F090E021
:1048D00080E0892B09F4A4CFE0CF04EF1FEFDDCFF8
:1048E0000AEF1FEFDACF0FEF1FEFD7CF4F925F9294
:1048F0006F927F92AF92BF92CF92DF92EF92FF9230
:104900000F931F93CF93DF931F921F92CDB7DEB704
:104910001A821982009709F47AC06115710509F4A9
:1049200076C020912D0230912E0207EF1FEF2F3F0E
:104930003F4F09F446C06B015C01412C512C320100
:10494000F12CE12C10E000E09E012F5F3F4FA6010B
:104950004E195F09B5016E0D7F1D80912D0290915A
:104960002E020E94B732892B09F04BC089819A81AF
:10497000009741F4E114F10429F42091FD0522236C
:1049800009F442C0E80EF91EEC14FD04D0F480E4F2
:10499000481682E458068FE06806710420F560E04E
:1049A00070E0CB010E940D362AE0420E511C611CC2
:1049B000711C0E3F4FEF140721F0043F8FEF1807D3
:1049C000A1F4C8010F900F90DF91CF911F910F912B
:1049D000FF90EF90DF90CF90BF90AF907F906F905F
:1049E0005F904F90089502EF1FEF81E090E0023F4B
:1049F0002FEF120711F090E080E0892B09F4A4CF8B
:104A0000E0CF04EF1FEFDDCF0EEF1FEFDACF0FEF98
:104A10001FEFD7CF80912D0290912E028F3F9807E4
:104A200051F00E949932892B49F48FEF9FEF9093B8
:104A30002E0280932D0290E080E0089584EF9FEF96
:104A40000895CF92DF92EF92FF920F931F93CF932F
:104A5000DF9321E04115510509F020E04150510953
:104A600021112CC0DC01FB01D12CC12C21E022C082
:104A70003FEFC31AD30A7D010D911D91E701EA8032
:104A8000FB80E016F106A8F420813181E280F380FA
:104A9000F182E08233832283ED90FC9011979D0197
:104AA00022503109E901F982E88211961C930E9394
:104AB00020E03296C416D506D8F2D2CFDF91CF913E
:104AC0001F910F91FF90EF90DF90CF900895FC0120
:104AD000680F791F90E080E0E617F70709F4089562
:104AE0002191820F911DF8CF2091FE05211113C055
:104AF00041DE009791F41092040610920306109282
:104B0000020610920106109200061092FF0521E0A5
:104B10002093FE05089584EF9FEF0895AF92BF9212
:104B2000CF92DF92EF92FF920F931F93CF93DF9379
:104B3000009709F460C04630510508F45CC020912C
:104B4000FE05C7EFDFEF222309F449C08C01060FF1
:104B5000171FF801C080D180C114D10409F44EC0E0
:104B600096012A5F3F4F4217530708F447C07C0164
:104B7000809103069091040693838283B6016C5F53
:104B80007F4F5801A60EB71EC801A1DFF501918322
:104B9000808364E070E0C80115DEEC01892BF9F434
:104BA00081E090E004DEB601C80104960BDEEC0162
:104BB000892B91F462E070E0C50104DEEC01892BE1
:104BC00059F4C701D5DB8091030690910406019644
:104BD000909304068093030690E080E0E8DDCE0128
:104BE000DF91CF911F910F91FF90EF90DF90CF90C9
:104BF000BF90AF900895CFEFDFEFF1CFC9EFDFEFB8
:104C0000EECF6F927F928F929F92AF92BF92CF9290
:104C1000DF92EF92FF920F931F93CF93DF9300D019
:104C20001F92CDB7DEB7009709F47AC04115510540
:104C300009F476C02091FE0507EF1FEF222309F447
:104C40004DC03A017B015C0164E070E0CE01019649
:104C50004DDE8C01892B09F041C009811A810115B3
:104C6000110509F45AC0480186E0880E911CB7016D
:104C7000680D791D80912F029091300205DD6C0145
:104C8000009709F450C0A70170E060E00E945C3B0F
:104C900089819A81AB81BC81EC0CFD1CF701819369
:104CA0009193A193B1937F0181E090E080DDB80101
:104CB000C7011CDE892B31F562E070E0C701800F6F
:104CC000911F14DE8C01892BE9F490E080E06FDD08
:104CD000F501D182C082F30191828082C8010F90D8
:104CE0000F900F900F90DF91CF911F910F91FF9038
:104CF000EF90DF90CF90BF90AF909F908F907F907C
:104D00006F90089590E080E052DDF50111821082ED
:104D1000F30111821082C6012BDB09EF1FEFDECFFA
:104D20000FEF1FEFDBCF06EF1FEFD8CF0097A1F0FB
:104D30004115510589F02115310571F0F9013696BB
:104D40006E177F0748F0DC012D933C93DA01ED9359
:104D5000FC9390E080E008958FEF9FEF0895AF926D
:104D6000BF92CF92DF92EF92FF920F931F93CF9358
:104D7000DF93009709F45FC04115510509F45BC04A
:104D80006530710508F457C02091FE05C7EFDFEFCD
:104D9000222391F1DC01CD90DC9011971296ED91D8
:104DA000FC9196012A5F3F4FC9EFDFEF26173707C7
:104DB00019F5C091FF05D0910006209749F521E033
:104DC00030E0309300062093FF057A018C01F093C8
:104DD0000206E09301065601B4E0AB0EB11CB5012A
:104DE00076DE0A0D1B1DF8012081318182179307A1
:104DF00029F5D701CD92DC92CE01DF91CF911F91A1
:104E00000F91FF90EF90DF90CF90BF90AF900895FB
:104E100020910106309102062F5F3F4FCCEFDFEF6C
:104E2000E217F30790F2CBEFDFEF2E173F0768F2A0
:104E3000D0E0C0E0CACFCFEFDFEFDECFC3EFDFEFD0
:104E4000DBCF84E090E0089582E090E008958CEF5D
:104E50009FEF089580E290E008951092040610926A
:104E6000030610920206109201061092000610929C
:104E7000FF0590E080E008959093300280932F0228
:104E800008958091FE05882391F0C4DD009789F490
:104E90001092040610920306109202061092010668
:104EA000109200061092FF051092FE05089590E002
:104EB00080E00895009749F06115710531F0FC011B
:104EC00011821082FB01118210820895F3CF90E0CD
:104ED00080E008958091BB069091BC06891B990BD8
:104EE00008959091BC068091BB062FEF3FEF981775
:104EF00048F4E92FF0E0E354F94F208130E09F5F60
:104F00009093BC06C9010895E091BC068091BB0650
:104F1000E81730F4F0E0E354F94F808190E0089511
:104F20008FEF9FEF0895089591E0909397068093F7
:104F3000BA061092990610929806089581E080931F
:104F400097066093BA0610929906109298060895F3
:104F500010928A0681E0809388061092870661E0AD
:104F600084E10E94473761E085E10E944737E9EB21
:104F7000F0E080818E7F808380818D7F808388E4D4
:104F80008093B80085E48093BC0008951092BC061D
:104F90001092BB061092990610929806D9CF9B01E9
:104FA000AC0160E074E284EF90E00E94103B20517D
:104FB0003109410951095695479537952795209311
:104FC000B8000895CB01BA01EACF413208F041C0E0
:104FD00090918A069111FCCF91E090938A062093DC
:104FE00088062FEF20931D0610926206240F20934F
:104FF00061069093890690918906880F892B80938A
:10500000890680918706813011F51092870680917C
:1050100089068093BB008091BC0083FDF8CF85ECAE
:105020008093BC0080918A068130E1F38091620612
:10503000841710F440916206A3E6B6E0962FFB01B8
:105040008E2F891B841730F48D918193F9CF85EED3
:10505000E7CF40E0842F08950F93413208F04BC012
:1050600090918A069111FCCF92E090938A0600936A
:1050700088069FEF90931D0610926206409361068A
:10508000362FA3E6B6E0FB019E2F931B941718F46E
:1050900091919D93F9CF1092890690918906880F7E
:1050A000892B8093890680918706813011F51092B3
:1050B0008706809189068093BB008091BC0083FDA8
:1050C000F8CF85EC8093BC00222321F080918A06E2
:1050D0008230D1F380911D068F3F79F080911D06BB
:1050E000803269F080911D06803359F084E00F9181
:1050F000089585EEE7CF81E0FACF80E0F8CF82E037
:10510000F6CF83E0F4CF0F93062F21E0409198066D
:105110006AE976E08091BA069FDF109299061092B4
:105120009806109297060F9108954F925F926F9292
:105130007F92AF92BF92CF92EF92FF920F931F9305
:10514000CF93DF935C01F62ED42F28013901EE2096
:1051500011F1862FE9DECE2DC43008F0C3E0C15036
:10516000B8F028E0C29FC0011124A301920104C03D
:1051700056954795379527958A95D2F7B901D50168
:10518000ED91FC910190F081E02DC5011995E7CFDB
:1051900060E0C501B8DF4D2FD13208F040E22C2D80
:1051A0006DEB76E08F2D11DF1092BC068093BB066D
:1051B000DF91CF911F910F91FF90EF90CF90BF9013
:1051C000AF907F906F905F904F900895CF92EF9245
:1051D0000F931F93C22EE12C00E010E09801A5DF91
:1051E0001F910F91EF90CF90089521E0EFCF61E0F4
:1051F0008ACF20913F06260F3327331F21323105F6
:10520000E4F420918A062430D1F4FC0190E080E09F
:10521000861760F4A0913F062191AC014F5B594F76
:10522000A40FB52FB11D2C930196F2CF80913F06AC
:10523000680F60933F0680E0089581E0089582E062
:105240000895CF93DF931F92CDB7DEB76983209186
:1052500097062223F9F020919806203258F021E099
:1052600030E0FC013383228390E080E00F90DF91F7
:10527000CF91089580919906E82FF0E0E656F94F16
:10528000998190838F5F809399068093980681E03F
:1052900090E0ECCF61E0CE010196ABDFF8CFCF928A
:1052A000DF92EF92FF920F931F93CF93DF937C01D6
:1052B000CB018A0120919706222389F0EB016B0133
:1052C000C40ED51ECC15DD0561F06991D701ED91B5
:1052D000FC910190F081E02DC7011995F3CF642F67
:1052E00088DFC801DF91CF911F910F91FF90EF9060
:1052F000DF90CF90089585ED8093BC008091BC0035
:1053000084FDFCCF10928A06089585EC8093BC0042
:1053100010928A0608951F920F920FB60F921124D1
:105320000BB60F922F933F934F935F936F937F939F
:105330008F939F93AF93BF93EF93FF938091B900A7
:10534000887F803609F44CC008F03FC0883209F4E9
:10535000A8C028F5803109F49CC0C8F4882309F45A
:10536000F8C0883009F495C0FF91EF91BF91AF91DB
:105370009F918F917F916F915F914F913F912F916D
:105380000F900BBE0F900FBE0F901F901895883195
:1053900009F487C0803241F780931D0614C0803421
:1053A00009F49CC040F48033B9F38833E9F6809364
:1053B0001D06ABDFD9CF803509F484C0883509F4E8
:1053C00095C0883489F697DFCFCF883909F48CC02F
:1053D00038F5883729F050F4883611F0803721F6F7
:1053E00083E080938A0610921E0657C0883809F41D
:1053F0007BC0803919F0803809F0B6CF80911E0645
:10540000803208F071C0E0911E0681E08E0F80931B
:105410001E068091BB00F0E0E15EF94F80833DC045
:10542000803B39F0E0F4803A09F479C0883A09F019
:105430009BCF84E080938A061092400610923F062C
:10544000E0918506F0918606199580913F068111BD
:105450000FC081E080933F061092410609C0803C56
:1054600009F475C0883C09F472C0883B09F07CCF10
:10547000E091400681E08E0F80934006F0E0EF5B04
:10548000F94F80818093BB009091400680913F0648
:1054900029C0809189068093BB0085EC8093BC0075
:1054A00063CF9091620680916106981758F5E0915C
:1054B000620681E08E0F80936206F0E0ED59F94FAD
:1054C0008081E9CFE091620681E08E0F80936206D1
:1054D0008091BB00F0E0ED59F94F80839091620616
:1054E000809161069817C8F285E8D8CFE0916206EE
:1054F00081E08E0F809362068091BB00F0E0ED5951
:10550000F94F80838091880681115DCF81E080937F
:10551000870684EA8093BC0010928A0625CFF5DEC8
:1055200080911E06803230F4E0911E06F0E0E15ECC
:10553000F94F108260911E0670E0E0918306F091B1
:1055400084068FE196E0199510921E060DCF85EC2A
:10555000E1CF10921D0637CF0F931F93CF93DF93A8
:10556000EC01062F142F8981DFDC602F8BE896E099
:1055700068DE612F8BE896E064DE8BE896E037DE2C
:105580008883DF91CF911F910F9108951F93CF933F
:10559000DF93EC01162F462F4F776AE8DDDF198382
:1055A000DF91CF911F910895FF920F931F93CF9397
:1055B000DF93EC01F62E142F052F8981B5DC6F2DBA
:1055C0008BE896E03EDE602F8BE896E03ADE612FB6
:1055D0008BE896E036DE8BE896E009DE8883DF9183
:1055E000CF911F910F91FF900895CF92DF92EF928C
:1055F000FF921F93CF93DF93EC01162F69017A017D
:10560000898192DC612F8BE896E01BDE6F2D772776
:10561000882799278BE896E014DEB7018827992719
:105620008BE896E00EDE99278F2D7E2D6D2D8BE871
:1056300096E007DE6C2D8BE896E003DE8BE896E0C3
:10564000D6DD8883DF91CF911F91FF90EF90DF909F
:10565000CF9008951F93CF93DF93EC01162F89818C
:1056600063DC612F8BE896E0ECDD8BE896E0BFDD34
:10567000888341E069818BE896E0B7DD8BE896E0AE
:1056800030DCDF91CF911F9108951F93CF93DF936B
:10569000EC01162F898148DC612F8BE896E0D1DD83
:1056A0008BE896E0A4DD888342E069818BE896E090
:1056B0009CDD8BE896E015DCD82F80E0C82F8BE8C6
:1056C00096E00FDC8C2B9D2BDF91CF911F910895DD
:1056D000DF92EF92FF920F931F93CF93DF937C01A2
:1056E000C62FD42E052F122FFC0181811DDC6C2FBB
:1056F0008BE896E0A6DDCD2DD02F115028F06991D2
:105700008BE896E09EDDF9CF8BE896E070DDF7013F
:105710008083DF91CF911F910F91FF90EF90DF90E9
:105720000895EF92FF920F931F93CF93DF93EC01B5
:10573000E62EF42E052F122F8981F6DB6E2D8BE8D5
:1057400096E07FDD8BE896E052DD8883412F69810A
:105750008BE896E04ADDCF2DD02F115028F08BE852
:1057600096E0BFDB8993F9CFDF91CF911F910F9125
:10577000FF90EF9008956115710529F460E56ADFE7
:105780008F5F880F08956130710511F460E7F7CFDE
:105790008FEF0895CF92DF92EF92FF92CF93DF9336
:1057A000EC016A017B0141E060E8D6DE41E06FEF89
:1057B000CE01D2DE40E060E0CE01CEDE4F8161E975
:1057C000CE01CADE41E060E0CE01C6DE40E06FEF10
:1057D000CE01C2DE40E060E8CE01BEDE42E0C11490
:1057E000D104E104F10491F068EFCE014EDF00979F
:1057F00039F0DC01A70196010E943A3B6B017C0164
:10580000A701960164E0CE01F0DE44E060E0CE0145
:10581000DF91CF91FF90EF90DF90CF909DCE0F93CF
:105820001F93CF93DF93EC010E94DC357E836D8361
:1058300063E1CE010FDF8770C9F48A819B81892BD8
:10584000B9F30E94DC352D813E81621B730B8A8186
:105850009B818617970760F781E08C830FEF1FEF1E
:10586000C801DF91CF911F910F9108956EE1CE0194
:105870000CDF8C0141E06BE0CE016EDEF1CFEF92E8
:10588000FF920F931F93CF93DF93EC017B018A016B
:1058900041E060E861DE41E06FEFCE015DDE40E0B7
:1058A00060E0CE0159DE46E06FEFCE0155DE63E8E1
:1058B000CE01D0DE482F446063E8CE014DDE47E0E4
:1058C0006FEFCE0149DE41E061E8CE0145DE41E007
:1058D00060E8CE0141DE4BE664E9CE013DDE40E00A
:1058E00063E8CE0139DE0E94DC357E836D8363E898
:1058F000CE01B0DE811111C08A819B81892BB9F361
:105900000E94DC352D813E81621B730B8A819B8155
:105910008617970760F780E031C041E063E8CE0169
:105920001BDE62E9CE0196DE982F9F77F701908308
:10593000881F8827881FF801808340E061E8CE0136
:105940000BDE46E06FEFCE0107DE63E8CE0182DEBC
:10595000482F4B7F63E8CE01FFDD41E06FEFCE01C2
:10596000FBDD41E060E0CE01F7DD40E06FEFCE010E
:10597000F3DD40E060E8CE01EFDD81E0DF91CF9123
:105980001F910F91FF90EF900895CF93DF93EB015C
:1059900061E060DE84FB992790F9988383FB992767
:1059A00090F99A8382FB992790F9998386FB99272E
:1059B00090F99B83881F8827881F8C83DF91CF9164
:1059C00008959C013327A90102C0440F551F9A95E1
:1059D000E2F7CA01019608950F931F930097B9F05B
:1059E0000197B0E0A0E050E040E08C019D0100276D
:1059F000012B022B032B39F0B695A7959795879528
:105A00004F5F5F4FF2CF342F2227822B932B1F91B2
:105A10000F9108954F925F926F927F928F929F9213
:105A2000AF92BF92CF92DF92EF92FF925C01A62FCE
:105A3000B0E020E03FE24AE350E00E943A3B6B01D5
:105A40007C0124EFC20E21E0D21EE11CF11C88EE85
:105A5000482E83E0582E612C712CC701B601A3019A
:105A600092010E94103BD5010E943A3B4B015C0120
:105A7000C701B60120ED37E040E050E00E94103B46
:105A8000C501B401620F731F841F951FA30192010A
:105A90000E94103BCA01B901FF90EF90DF90CF90B8
:105AA000BF90AF909F908F907F906F905F904F903E
:105AB0000895EF92FF920F931F93CF93DF938C0182
:105AC0007B01EA0170E060E056DE90E09983888314
:105AD00066E4C801BFDD90E001969D838C836881F8
