:10000000F8C0000026C1000024C1000022C1000089
:1000100020C100001EC100001CC100001AC1000068
:1000200018C1000016C1000014C1000012C1000078
:1000300010C100000EC100000CC100000AC1000088
:1000400008C1000006C1000004C1000002C1000098
:1000500000C10000FEC00000FCC00000ACC70000F2
:10006000F8C000000C94540B0C948A0BF2C00000F2
:10007000F0C00000EEC00000ECC00000EAC00000CC
:10008000E8C00000E6C00000E4C00000E2C00000DC
:100090000C94E00B0C94160CDCC00000DAC00000DD
:1000A000D8C00000D6C00000D4C00000D2C00000FC
:1000B000D0C00000CEC00000CCC00000CAC000000C
:1000C000C8C00000C6C00000C8C500000C946C0C7D
:1000D0000C94A20CBEC000000C94F80C0C942E0DD5
:1000E000B8C0000000000A0B02090C0D0E0807033F
:1000F00004010000000000000000000000000000FB
:1001000000000000000000000000000000000000EF
:1001100012111000000000000000000000000000AC
:100120000000000000000000000001021020200874
:100130000810204010204080020102010804020142
:1001400001020408102040808040201008040201B1
:10015000800402018040201008040201080402010A
:100160000102040810204080010204081020408091
:1001700005050505070508080808020202020A0A23
:100180000808040404040101010101010101030341
:10019000030303030303040707070C0C0C0C0C0CEC
:1001A0000C0C0202020206060606060606060B0BE9
:1001B0000B0B0B0B0B0B00002200250028002B0063
:1001C0002E003100340002010000050108010B017E
:1001D00000002100240027002A002D0030003300F9
:1001E00001010000040107010A01B30B3F0CCB0C15
:1001F000570D11241FBECFEFD1E2DEBFCDBF00E00F
:100200000CBF12E0A0E0B2E0EAEBFBE100E00BBFC4
:1002100002C007900D92AC34B107D9F725E0ACE4E9
:10022000B2E001C01D92AF30B207E1F710E0C9EFB4
:10023000D0E000E006C021970109802FFE010E9456
:10024000D30DC53FD10780E00807A9F76CD50C9402
:10025000DB0DD6CECF92DF92EF92FF92CF93882321
:1002600031F16A017B01CFEFC80F20E030E0A90136
:10027000CB01B6018FD5181684F0C701B60190588E
:1002800092D59B01AC016C2F70E090E080E0CF91A3
:10029000FF90EF90DF90CF90ADC0C701B6017ED543
:1002A0008C2FCF91FF90EF90DF90CF9030C7CF9100
:1002B000FF90EF90DF90CF9008950F931F938B01E5
:1002C0009C0183E036952795179507958A95D1F778
:1002D000045B1D4F462F477021E030E0F90102C05A
:1002E000EE0FFF1F4A95E2F7AF01F80120812423AA
:1002F000CB010196211102C090E080E01F910F9187
:1003000008950F931F938B019C0183E036952795E9
:10031000179507958A95D1F7677081E090E001C045
:10032000880F6A95EAF7F801E45BFD4F2081452BC1
:1003300031F48095822380831F910F910895822B41
:10034000FACF2F923F924F925F926F927F928F924D
:100350009F92AF92BF92CF92DF92EF92FF920F9354
:100360001F93CF93DF93D62EC72E782E692E490187
:100370005A01280161E08D2D0E94C109CD2DDC2D8F
:100380008E010F5F1F4FA8016D2D7C2D872D962D9F
:10039000B8DF20E030E0A901C201B7017DD5181611
:1003A00054F4C201B701FFD42B01C501B401FBD441
:1003B000A201CE0122D0C801DF91CF911F910F91F0
:1003C000FF90EF90DF90CF90BF90AF909F908F9075
:1003D0007F906F905F904F903F902F90089588236B
:1003E00041F08150682F70E090E080E050E040E004
:1003F00088CF0895862FB9018AC69C01FC01EC5173
:10040000FF4FE491E150E231E0F4F0E08827E45F4F
:10041000FD4F8F4F0C94D30D1E02240227023E0283
:10042000530221026802740278028F02A402B90208
:10043000D002E5022102FA021103260384B5806886
:1004400084BD60E0822FD9C784B58062F9CF8091E6
:1004500080008C7F82608093800080918100807E0C
:100460008061682B609381005093870040938600E1
:1004700080918000806880938000E3CF809180002D
:100480008C7F82608093800080918100807E80617B
:10049000682B609381005093870040938600809181
:1004A00080008062E8CF809180008C7F82608093A2
:1004B000800080918100807E8061682B6093810044
:1004C0005093870040938600809180008860D3CF4E
:1004D0008091B00080688093B0008091B100887FE7
:1004E000682B6093B100ADCF8091B0008062F3CFF4
:1004F000809190008C7F8260809390008091910029
:10050000807E8061682B60939100509397004093A8
:1005100096008091900080688093900092CF8091A7
:1005200090008C7F82608093900080919100807E0B
:100530008061682B609391005093970040939600E0
:10054000809190008062E8CF809190008C7F8260E3
:100550008093900080919100807E8061682B6093F1
:10056000910050939700409396008091900088608E
:10057000D3CF8091A0008C7F82608093A000809177
:10058000A100807E8061682B6093A1005093A7003A
:100590004093A6008091A00080688093A00051CF76
:1005A0008091A0008C7F82608093A0008091A10048
:1005B000807E8061682B6093A1005093A7004093D8
:1005C000A6008091A0008062E8CF8091A0008C7F7F
:1005D00082608093A0008091A100807E8061682B62
:1005E0006093A1005093A7004093A6008091A000C3
:1005F0008860D3CF809120018C7F8260809320011E
:1006000080912101807E8061682B6093210150934D
:10061000270140932601809120018068809320016A
:1006200010CF809120018C7F826080932001809187
:100630002101807E8061682B609321015093270106
:1006400040932601809120018062E8CF80912001B3
:100650008C7F82608093200180912101807E806167
:10066000682B6093210150932701409326018091CC
:1006700020018860D3CF611101C083C66130E9F3E6
:1006800062E0FBCF662311F061E0B7C660E0FDCF0A
:100690008F929F92AF92BF92CF92DF92EF92FF9292
:1006A0000F931F93CF93DF9320910802309109029B
:1006B00040910A0250910B0260910C0270910D0260
:1006C00080910E0290910F02EBD34B015C01C1E0CF
:1006D0009B01AC01609100027091010280910202C5
:1006E0009091030257D3811101C0C0E06C2F8DE0BF
:1006F000C9DF6CE070E080E090E0DFDD7C0190938A
:10070000E6048093E5040091100210911102D0914B
:100710001202C09113029401A501B8018D2F9C2FE4
:1007200039D387FD13C00091140210911502D091A6
:100730001602C09117029401A501B8018D2F9C2FBC
:10074000ABD318161CF08401DA2DCB2D20E030E05D
:100750004FE753E4B8018D2F9C2F1CD318160CF4CF
:100760000BC120E030E0A901B8018D2F9C2F94D35C
:1007700087FF04C000E010E0D0E0C0E0A8016D2FCA
:100780007C2FC70167DD6BE070E080E090E095DDD5
:10079000EC019093DE048093DD04C0901802D090A9
:1007A0001902E0901A02F0901B029401A501C70102
:1007B000B601F0D287FD11C0C0901C02D0901D027E
:1007C000E0901E02F0901F029401A501C701B6013E
:1007D00063D3181614F064017501E894F7F820E06B
:1007E00030E04FE753E4C701B601D4D2181634F411
:1007F000C12CD12C9FE7E92E93E4F92EB701A60175
:10080000CE0128DD20912002309121024091220268
:10081000509123026091240270912502809126025A
:10082000909127023DD35B018C016AE070E080E08B
:1008300090E043DD6C019093F6048093F504E09022
:100840002802F0902902D0912A02C0912B02950132
:10085000A801B7018D2F9C2F9DD287FD13C0E0907A
:100860002C02F0902D02D0912E02C0912F02950102
:10087000A801B7018D2F9C2F0FD318161CF07501FE
:10088000D02FC12F20E030E04FE753E4B7018D2F88
:100890009C2F80D218160CF474C020E030E0A9011F
:1008A000B7018D2F9C2FF8D287FF04C0E12CF12CCB
:1008B000D0E0C0E0A7016D2F7C2FC601CBDC69E042
:1008C00070E080E090E0F9DCEC019093EE0480931E
:1008D000ED04C0903002D0903102E0903202F090EE
:1008E00033029501A801C701B60154D287FD11C09A
:1008F000C0903402D0903502E0903602F09037027A
:100900009501A801C701B601C7D2181614F06501F8
:100910007801E894F7F820E030E04FE753E4C701AE
:10092000B60138D2181634F4C12CD12C8FE7E82E3A
:1009300083E4F82EB701A601CE018CDCC1E095015D
:10094000A8016091040270910502809106029091C5
:10095000070220D2811101C0C0E06C2F88E0DF9136
:10096000CF911F910F91FF90EF90DF90CF90BF90AC
:10097000AF909F908F9086CE00E010E0DFE7C3E459
:10098000FDCEE12CF12CDFE7C3E494CF8F929F9250
:10099000AF92BF92DF92EF92FF920F931F93CF938C
:1009A000DF931092560210925502C7EDD4E086E311
:1009B000FE0111928A95E9F7DD24D394DBAA812CFC
:1009C000912C5401839489A69AA6ABA6BCA661E09B
:1009D0008DE051DEDDA61886D9AA89869A86AB8677
:1009E000BC86E12CF12C8701A80197016CE070E036
:1009F00080E090E0A6DC9F878E87DD861882D8AAEB
:100A000089829A82AB82BC82A80197016BE070E078
:100A100080E090E096DC9F838E83DD82188EDDAAD5
:100A2000898E9A8EAB8EBC8EA80197016AE070E029
:100A300080E090E086DC9F8F8E8FDD8E188ADCAAA6
:100A4000898A9A8AAB8ABC8AA801970169E070E01A
:100A500080E090E076DC9F8B8E8BDD8A18A2DAAA8C
:100A600089A29AA2ABA2BCA261E088E004DEDDA26A
:100A7000DF91CF911F910F91FF90EF90DF90BF908A
:100A8000AF909F908F9008958091FF04811103C0D3
:100A900081E08093FF048091DF0481112AC081E00E
:100AA0008093DF048091E0049091E104A091E2043E
:100AB000B091E3040197A105B105D9F48091E40454
:100AC0008823B9F06CE070E080E090E0F6DB909372
:100AD000E6048093E50440E050E0BA01BBDB6CE043
:100AE00070E080E090E0E9DB9093E6048093E50419
:100AF00076DC8091D70481112AC081E08093D704ED
:100B00008091D8049091D904A091DA04B091DB04CB
:100B10000197A105B105D9F48091DC048823B9F0CF
:100B20006BE070E080E090E0C8DB9093DE0480939F
:100B3000DD0440E050E0BA018DDB6BE070E080E066
:100B400090E0BBDB9093DE048093DD0448DC809171
:100B5000EF0481112AC081E08093EF048091F004BA
:100B60009091F104A091F204B091F3040197A105D2
:100B7000B105D9F48091F4048823B9F06AE070E0FB
:100B800080E090E09ADB9093F6048093F50440E0D7
:100B900050E0BA015FDB6AE070E080E090E08DDB5E
:100BA0009093F6048093F5041ADC8091E704811198
:100BB0002AC081E08093E7048091E8049091E904E1
:100BC000A091EA04B091EB040197A105B105D9F415
:100BD0008091EC048823B9F069E070E080E090E057
:100BE0006CDB9093EE048093ED0440E050E0BA019A
:100BF00031DB69E070E080E090E05FDB9093EE0431
:100C00008093ED04ECDB8091F704811103C081E057
:100C10008093F704089526E030E040E855E260E074
:100C200070E090E080E000C08130910569F01CF434
:100C3000892B39F008958230910549F0039751F0DE
:100C4000089583E692E0D0C480E093E0FCCF8DE984
:100C500093E0F9CF8AE394E0F6CF1F920F920FB69C
:100C60000F9211240BB60F922F933F934F935F93E4
:100C70006F937F938F939F93AF93BF93EF93FF9364
:100C80008BEC93EF909325018093240134D0FF9156
:100C9000EF91BF91AF919F918F917F916F915F91F4
:100CA0004F913F912F910F900BBE0F900FBE0F9061
:100CB0001F9018958BEC93EF90932501809324015E
:100CC000A3E7B0E08C918E7F8C93E0E2F1E080812D
:100CD0008C7F8083E1E2F1E08081877E8083808168
:100CE0008560808380818D7F80838C9181608C93EF
:100CF000089581E008958091570291E0980F9093B4
:100D00005702882349F021E030E0309359022093C4
:100D100058028093570208957894BADCF894809131
:100D200057028150F6CFCF93DF9310920E051092A9
:100D30000D058BD170DFC0913802D0913902198234
:100D4000188224DEF894B6DF81E028813981232BD4
:100D500009F080E080930D057894789480910D05DA
:100D6000811107C091DEF89490E080E0DF91CF918F
:100D7000089581E028813981232B09F480E0809354
:100D80000E0590910E0581E0911180E080930D0594
:100D9000B0DFE4CF34D008F481E0089504D0689443
:100DA000B11174C0089557D088F09F5790F0B92FB3
:100DB0009927B751A0F0D1F0660F771F881F991FB0
:100DC0001AF0BA95C9F712C0B13081F05ED0B1E027
:100DD00008955BC0672F782F8827B85F39F0B93F37
:100DE000CCF3869577956795B395D9F73EF49095B2
:100DF0008095709561957F4F8F4F9F4F0895990F04
:100E00000008550FAA0BE0E8FEEF16161706E807D4
:100E1000F907C0F012161306E407F50798F0621BF5
:100E2000730B840B950B39F40A2661F0232B242BCA
:100E3000252B21F408950A2609F4A140A6958FEFE9
:100E4000811D811D089557FD9058440F551F59F07D
:100E50005F3F71F04795880F97FB991F61F09F3FA7
:100E600079F087950895121613061406551FF2CFD0
:100E70004695F1DF08C0161617061806991FF1CF20
:100E800086957105610508940895E894BB27662747
:100E90007727CB0197F90895B2DF08F48FEF089513
:100EA0000BD078C069D028F06ED018F0952309F0E7
:100EB0005AC05FC01124EACFC6DFA0F3959FD1F3DB
:100EC000950F50E0551F629FF001729FBB27F00DF8
:100ED000B11D639FAA27F00DB11DAA1F649F66274D
:100EE000B00DA11D661F829F2227B00DA11D621F9C
:100EF000739FB00DA11D621F839FA00D611D221F56
:100F0000749F3327A00D611D231F849F600D211D39
:100F1000822F762F6A2F11249F5750408AF0E1F0DC
:100F200088234AF0EE0FFF1FBB1F661F771F881F25
:100F300091505040A9F79E3F510570F014C0A6CFC4
:100F40005F3FECF3983EDCF3869577956795B79510
:100F5000F795E7959F5FC1F7FE2B880F911D96953A
:100F6000879597F9089597F99F6780E870E060E0AA
:100F700008959FEF80EC089500240A941616170632
:100F800018060906089500240A941216130614067A
:100F900005060895092E0394000C11F4882352F0DD
:100FA000BB0F40F4BF2B11F460FF04C06F5F7F4F95
:100FB0008F4F9F4F08951F920F920FB60F921124DB
:100FC0002F933F938F939F93AF93BF9380915B0237
:100FD00090915C02A0915D02B0915E0230915A0244
:100FE00023E0230F2D3758F50196A11DB11D209345
:100FF0005A0280935B0290935C02A0935D02B093CF
:101000005E0280915F0290916002A0916102B091B6
:1010100062020196A11DB11D80935F029093600250
:10102000A0936102B0936202BF91AF919F918F91A3
:101030003F912F910F900FBE0F901F90189526E8AB
:10104000230F0296A11DB11DD2CF789484B5826082
:1010500084BD84B5816084BD85B5826085BD85B55C
:10106000816085BDEEE6F0E0808181608083E1E80B
:10107000F0E0108280818260808380818160808343
:10108000E0E8F0E0808181608083E1EBF0E0808146
:1010900084608083E0EBF0E0808181608083E1E91F
:1010A000F0E0808182608083808181608083E0E9DC
:1010B000F0E0808181608083E1EAF0E080818260FD
:1010C0008083808181608083E0EAF0E080818160BC
:1010D0008083E1E2F1E080818260808380818160B1
:1010E0008083E0E2F1E0808181608083EAE7F0E0E4
:1010F0008081846080838081826080838081816040
:1011000080838081806880831092C10008951F933E
:10111000CF93DF93182FEB0161E033D1209731F4A7
:1011200060E0812FDF91CF911F9167C1CF3FD10543
:1011300011F461E0F6CFE12FF0E0EC51FF4FE491C4
:10114000E150E23108F0B2C0F0E08827E655F74FF1
:101150008F4F29C5BC08C408C908D308DD08560943
:10116000E708EF08F70801090B09150924092E09FA
:101170005609380942094C0984B5806884BDC7BD49
:10118000DF91CF911F91089584B5806284BDC8BD61
:10119000F7CF80918000806880938000D093890091
:1011A000C0938800EDCF80918000806280938000A2
:1011B000D0938B00C0938A00E3CF80918000886039
:1011C00080938000D0938D00C0938C00D9CF809104
:1011D000B00080688093B000C093B300D1CF8091FD
:1011E000B00080628093B000C093B400C9CF8091FA
:1011F0009000806880939000D0939900C0939800ED
:10120000BFCF80919000806280939000D0939B002C
:10121000C0939A00B5CF8091900088608093900031
:10122000D0939D00C0939C00ABCF8091A0008068BC
:101230008093A0008091A0008F7B8093A000D0932A
:10124000A900C093A8009CCF8091A00080628093E9
:10125000A000D093AB00C093AA0092CF8091A000D1
:1012600088608093A000D093AD00C093AC0088CF7D
:1012700080912001806880932001D0932901C09340
:1012800028017ECF80912001806280932001D0933D
:101290002B01C0932A0174CF809120018860809334
:1012A0002001D0932D01C0932C016ACFC038D10505
:1012B0000CF03FCF35CF8150823108F059C0E82F74
:1012C000F0E08827EA59F64F8F4F6DC486098A09E6
:1012D00078097E098209B8098D09930997099D0942
:1012E000A109A509AB09AF09B809B309B909BD0935
:1012F000809180008F778093800008958091800096
:101300008F7DF9CF80918000877FF5CF84B58F776F
:1013100084BD089584B58F7DFBCF8091B0008F7719
:101320008093B00008958091B0008F7DF9CF8091B7
:1013300090008F77809390000895809190008F7D2A
:10134000F9CF80919000877FF5CF8091A0008F77B3
:101350008093A00008958091A0008F7DF9CF8091A7
:10136000A000877FF5CF809120018F7780932001A7
:101370000895809120018F7DF9CF80912001877F92
:10138000F5CFCF93DF9390E0FC01E65DFE4F249113
:1013900080599E4FFC0184918823C9F090E0880F0A
:1013A000991FFC01E053FE4FA591B491FC01EA5452
:1013B000FE4FC591D49161110DC09FB7F8948C91E7
:1013C000209582238C938881282328839FBFDF91D7
:1013D000CF910895623051F49FB7F8943C91822FD9
:1013E000809583238C93E8812E2BEFCF8FB7F894D1
:1013F000EC912E2B2C938FBFEACF1F93CF93DF93CB
:10140000282F30E0F901EC51FF4F8491F901E65D9E
:10141000FE4FD491F901E059FE4FC491CC23A1F0C5
:10142000162F811148DFEC2FF0E0EE0FFF1FEA547A
:10143000FE4FA591B4918FB7F894EC91111108C0AB
:10144000D095DE23DC938FBFDF91CF911F9108955C
:10145000DE2BF8CFFC01918D228D892F90E0805CEE
:101460009F4F821B91098F7399270895FC01918DDD
:10147000828D981731F0828DE80FF11D858D90E0F7
:1014800008958FEF9FEF0895FC01918D828D98173D
:1014900061F0A28DAE0FBF2FB11D5D968C91928D24
:1014A0009F5F9F73928F90E008958FEF9FEF089555
:1014B000FC01538D448D252F30E0842F90E0821B5A
:1014C000930B541710F0CF96089501970895FC01DF
:1014D000A48DA80FB92FB11DA35ABF4F2C91848D95
:1014E00090E001968F739927848FA689B7892C93F2
:1014F000A089B1898C91837080648C93938D848D45
:10150000981306C00288F389E02D80818F7D808347
:101510000895CF93DF93EC01888D8823B1F0AA89D9
:10152000BB89E889F9898C9185FD03C0808186FD9E
:101530000CC00FB607FCF7CF8C9185FFF2CF8081EE
:1015400085FFEDCFCE01C3DFEACFDF91CF910895C4
:10155000EF92FF920F931F93CF93DF93EC0181E003
:10156000888F9B8D8C8D98131AC0E889F9898081AA
:1015700085FF15C09FB7F894EE89FF896083E889DD
:10158000F98980818370806480839FBF81E090E0CF
:10159000DF91CF911F910F91FF90EF900895F62E5C
:1015A0000B8D10E00F5F1F4F0F731127E02E8C8DF6
:1015B0008E110BC00FB607FCFACFE889F98980813C
:1015C00085FFF5CFCE0183DFF2CFEB8DEC0FFD2F42
:1015D000F11DE35AFF4FF0829FB7F8940B8FEA8911
:1015E000FB8980818062D0CFCF92DF92EF92FF9211
:1015F0001F93CF93DF93EC016A017B01122FE889DF
:10160000F98982E08083C11481EED806E104F104F7
:1016100099F060E079E08DE390E0A7019601A1D216
:10162000215031094109510956954795379527951C
:10163000211580E1380790F0E889F989108260E887
:1016400074E88EE190E0A70196018BD22150310918
:10165000410951095695479537952795EC85FD85A4
:101660003083EE85FF852083188EEC89FD891083F9
:10167000EA89FB89808180618083EA89FB89808196
:1016800088608083EA89FB89808180688083EA8919
:10169000FB8980818F7D8083DF91CF911F91FF90A7
:1016A000EF90DF90CF9008951F920F920FB60F9298
:1016B00011240BB60F922F938F939F93EF93FF9369
:1016C000E0917302F09174028081E0917902F091CF
:1016D0007A0282FD1DC0908180917C028F5F8F73A2
:1016E00020917D02821741F0E0917C02F0E0ED59FB
:1016F000FD4F958F80937C02FF91EF919F918F9189
:101700002F910F900BBE0F900FBE0F901F9018954A
:101710008081F2CF1F920F920FB60F9211240BB659
:101720000F922F933F934F935F936F937F938F937A
:101730009F93AF93BF93EF93FF9383E692E0C7DE4F
:10174000FF91EF91BF91AF919F918F917F916F9199
:101750005F914F913F912F910F900BBE0F900FBE55
:101760000F901F901895E3E6F2E01382128288EE44
:1017700093E0A0E0B0E084839583A683B7838EE3F3
:1017800092E09183808385EC90E09587848784EC58
:1017900090E09787868780EC90E0918B808B81EC3E
:1017A00090E0938B828B82EC90E0958B848B86EC1F
:1017B00090E0978B868B118E128E138E148E089567
:1017C0001F920F920FB60F9211240BB60F922F9308
:1017D0008F939F93EF93FF93E0911003F091110388
:1017E0008081E0911603F091170382FD1DC0908166
:1017F000809119038F5F8F7320911A03821741F034
:10180000E0911903F0E0E050FD4F958F80931903AC
:10181000FF91EF919F918F912F910F900BBE0F90A1
:101820000FBE0F901F9018958081F2CF1F920F92DC
:101830000FB60F9211240BB60F922F933F934F9335
:101840005F936F937F938F939F93AF93BF93EF9328
:10185000FF9380E093E03BDEFF91EF91BF91AF916A
:101860009F918F917F916F915F914F913F912F91B8
:101870000F900BBE0F900FBE0F901F901895E0E0D9
:10188000F3E01382128288EE93E0A0E0B0E084835C
:101890009583A683B7838EE392E0918380838DEC5A
:1018A00090E0958784878CEC90E09787868788EC1A
:1018B00090E0918B808B89EC90E0938B828B8AEC0B
:1018C00090E0958B848B8EEC90E0978B868B118EBD
:1018D000128E138E148E08951F920F920FB60F92D0
:1018E00011240BB60F922F938F939F93EF93FF9337
:1018F000E091AD03F091AE038081E091B303F091EC
:10190000B40382FD1DC090818091B6038F5F8F73F9
:101910002091B703821741F0E091B603F0E0E3565F
:10192000FC4F958F8093B603FF91EF919F918F911C
:101930002F910F900BBE0F900FBE0F901F90189518
:101940008081F2CF1F920F920FB60F9211240BB627
:101950000F922F933F934F935F936F937F938F9348
:101960009F93AF93BF93EF93FF938DE993E0AFDD28
:10197000FF91EF91BF91AF919F918F917F916F9167
:101980005F914F913F912F910F900BBE0F900FBE23
:101990000F901F901895EDE9F3E01382128288EE04
:1019A00093E0A0E0B0E084839583A683B7838EE3C1
:1019B00092E09183808385ED90E09587848784ED24
:1019C00090E09787868780ED90E0918B808B81ED0A
:1019D00090E0938B828B82ED90E0958B848B86EDEB
:1019E00090E0978B868B118E128E138E148E089535
:1019F0001F920F920FB60F9211240BB60F922F93D6
:101A00008F939F93EF93FF93E0914A04F0914B04DF
:101A10008081E0915004F091510482FD1DC09081BD
:101A2000809153048F5F8F7320915404821741F08B
:101A3000E0915304F0E0E65CFB4F958F80935304F4
:101A4000FF91EF919F918F912F910F900BBE0F906F
:101A50000FBE0F901F9018958081F2CF1F920F92AA
:101A60000FB60F9211240BB60F922F933F934F9303
:101A70005F936F937F938F939F93AF93BF93EF93F6
:101A8000FF938AE394E023DDFF91EF91BF91AF9143
:101A90009F918F917F916F915F914F913F912F9186
:101AA0000F900BBE0F900FBE0F901F901895EAE39A
:101AB000F4E01382128288EE93E0A0E0B0E0848329
:101AC0009583A683B7838EE392E09183808385E339
:101AD00091E09587848784E391E09787868780E308
:101AE00091E0918B808B81E391E0938B828B82E3F9
:101AF00091E0958B848B86E391E0978B868B118E9A
:101B0000128E138E148E0895AF92BF92CF92DF92F1
:101B1000EF92FF920F931F93CF93DF936C017B01A2
:101B20008B01040F151FEB015E01AE18BF08C01733
:101B3000D10759F06991D601ED91FC910190F081A6
:101B4000E02DC6011995892B79F7C501DF91CF9159
:101B50001F910F91FF90EF90DF90CF90BF90AF90CB
:101B60000895A1E21A2EAA1BBB1BFD010DC0AA1FDE
:101B7000BB1FEE1FFF1FA217B307E407F50720F0F6
:101B8000A21BB30BE40BF50B661F771F881F991F71
:101B90001A9469F760957095809590959B01AC01BA
:101BA000BD01CF010895EE0FFF1F881F8BBF079067
:0A1BB000F691E02D1994F894FFCF90
:101BBA0000000000000000000000C8420000803F52
:101BCA0000007F43000000000000000000007FC307
:101BDA000000C8420000803F00007F430000000070
:101BEA000000000000007FC3550200000000A80AA0
:0C1BFA00840D580A890A2A0A440A360A97
:00000001FF
