:10000000F9C0000028C1000026C1000024C1000082
:1000100022C1000020C100001EC100001CC1000060
:100020001AC1000018C1000016C1000014C1000070
:1000300012C1000010C100000EC100000CC1000080
:100040000AC1000008C1000006C1000004C1000090
:1000500002C1000000C10000FEC000000C94F63197
:10006000FAC000000C9402350C943835F4C000003E
:10007000F2C00000F0C00000EEC00000ECC00000C4
:10008000EAC00000E8C00000E6C00000E4C00000D4
:100090000C948E350C94C435DEC000000C943F25C2
:1000A000DAC00000D8C00000D6C00000D4C00000F4
:1000B000D2C00000D0C00000CEC00000CCC0000004
:1000C000CAC00000C8C000000C943E2E0C941A3622
:1000D0000C945036C0C000000C94A6360C94DC364C
:1000E000BAC0000000000A0B02090C0D0E0807033D
:1000F00004010000000000000000000000000000FB
:1001000000000000000000000000000000000000EF
:1001100012111000000000000000000000000000AC
:100120000000000000000000000001021020200874
:100130000810204010204080020102010804020142
:1001400001020408102040808040201008040201B1
:10015000800402018040201008040201080402010A
:100160000102040810204080010204081020408091
:1001700005050505070508080808020202020A0A23
:100180000808040404040101010101010101030341
:10019000030303030303040707070C0C0C0C0C0CEC
:1001A0000C0C0202020206060606060606060B0BE9
:1001B0000B0B0B0B0B0B00002200250028002B0063
:1001C0002E003100340002010000050108010B017E
:1001D00000002100240027002A002D0030003300F9
:1001E00001010000040107010A01F82D6135ED3518
:1001F0007936053711241FBECFEFD1E2DEBFCDBF68
:1002000000E00CBF12E0A0E0B2E0E2E9FFE600E0AF
:100210000BBF02C007900D92A23FB107D9F729E0AA
:10022000A2EFB2E001C01D92A934B207E1F710E0DD
:10023000CAEFD0E000E006C021970109802FFE013F
:100240000E949637C53FD10780E00807A9F70E94B2
:100250005A2F0C94C737D4CE611102C00C946F335F
:100260006130E1F362E0FACF662319F061E00C94AB
:10027000AB3360E0FCCF90E080E008950F931F93D4
:10028000009709F487C06115710509F483C00091D6
:1002900024021091250220912602309127020E3F60
:1002A0001F4F2F4F3F4F09F066C04FEF5FEFBA016E
:1002B00040932402509325026093260270932702F4
:1002C00040912402509125026091260270912702EC
:1002D000DC011296ED91FC9180819181A281B38124
:1002E00080936E0390936F03A0937003B093710398
:1002F00084819581A681B78180936A0390936B0373
:10030000A0936C03B0936D0380859185A285B3851E
:100310008093660390936703A0936803B093690387
:1003200084859585A685B785809362039093630342
:10033000A0936403B093650310925E0310925F0371
:1003400010926003109261039BD585E697E090932D
:10035000F3028093F2029093F5028093F4027FD42B
:10036000009731F421E030E030937303209372035F
:100370001F910F9108950091240210912502209160
:10038000260230912702DB010D931D932D933C93A0
:10039000139796CF8FEF9FEFEBCF8F929F92AF92F5
:1003A000BF92CF92DF92EF92FF921F93CF93DF9392
:1003B0004B015C011091750382E090E09093730310
:1003C0008093720381149104A104B10441F48091DB
:1003D0007503811104C080917403C1E08111C0E0F4
:1003E000C12CD12C760180917503811106C08091BA
:1003F0007403811102C0CC23D9F083E090E0909384
:10040000730380937203CC2379F1CCE9DFEF1111F0
:1004100002C00E94C90ACE01DF91CF911F91FF90C7
:10042000EF90DF90CF90BF90AF909F908F90089506
:100430006AE070E080E090E00E94713280E1C80ED6
:1004400087E2D81EE11CF11C8FEF88169806A806DB
:10045000B80631F0C1E08C149D04AE04BF0408F06E
:10046000C0E080E030D4BFCFD0E0C0E0D0CFCF92AA
:10047000DF92EF92FF920F931F93CF93DF938F3F03
:10048000910511F008F050C0209172033091730370
:100490002330310539F020917203309173032130FC
:1004A000310531F424E030E030937303209372037C
:1004B0006A017B01EC0182309105A0F011E0AE01F0
:1004C000C701B601CBD3AB01BC01CE011123F9F0BA
:1004D000DF91CF911F910F91FF90EF90DF90CF9020
:1004E0000C94F20C8C01000F111F0E501D4FD801FF
:1004F0008D919C91892B11F30E94FC0C0297F1F6CF
:10050000D801ED91FC91CE011995182FD8CF0E94FA
:10051000140D90E080E0DF91CF911F910F91FF903B
:10052000EF90DF90CF9008958FEF9FEFF4CF80E0B2
:10053000CAC3CF93DF9386E090E0909373038093D8
:1005400072031AD4EC01E2EFF2E084E0DF011D92C5
:100550008A95E9F7B6D71092730310927203CE0111
:10056000DF91CF91089580917403089580915D0388
:10057000089560932402709325028093260290933D
:10058000270290E080E00895CF92DF92EF92FF92F1
:100590006B017C019F7720E030E040E859E50E9444
:1005A0005A3087FF2BC020E030E040E05FE3C70116
:1005B000B6010E948F3187FD0EC020E030E040E0A0
:1005C0005FE3C701B6010E94E32FFF90EF90DF9039
:1005D000CF900C94C73020E030E040E05FEBC701E3
:1005E000B6010E948F31181684F420E030E0A90192
:1005F000C701B6010E9493316B017C01C701B601AE
:10060000FF90EF90DF90CF90089520E030E040E041
:100610005FE3C701B6010E94E22FFF90EF90DF90E9
:10062000CF900C9447304F925F926F927F928F924F
:100630009F92AF92BF92CF92DF92EF92FF9220E40F
:1006400039E044E259E060E279E08CE199E001D2DE
:1006500040911C0950911D0960911E0970911F095C
:100660008091180290911902A0911A02B0911B0278
:1006700084179507A607B7070CF00FC16091100209
:100680007091110280911202909113027DDF6B0133
:100690007C0120E030E040E853E40E945A306FEFE4
:1006A00087FF0EC020E030E0A901C701B6010E941B
:1006B0008F3160E087FD04C0C701B6010E945E3043
:1006C00080E3D2DD409120095091210960912209F7
:1006D0007091230980911C0290911D02A0911E022D
:1006E000B0911F0284179507A607B7070CF0DEC06C
:1006F00060910002709101028091020290910302C8
:1007000043DF6B017C0120E030E040E853E40E94CD
:100710005A306FEF87FF0EC020E030E0A901C7011B
:10072000B6010E948F3160E087FD04C0C701B601A9
:100730000E945E3082E398DD4091240950912509A2
:1007400060912609709127098091200290912102E1
:10075000A0912202B091230284179507A607B7073C
:100760000CF0ADC0609108027091090280910A02FC
:1007700090910B0209DF6B017C0120E030E040E842
:1007800053E40E945A306FEF87FF0EC020E030E044
:10079000A901C701B6010E948F3160E087FD04C046
:1007A000C701B6010E945E3084E35EDD20E439E0DB
:1007B00044E259E060E279E08CE199E04CD1C090EC
:1007C0003003D0903103E0903203F09033038FEF89
:1007D000C81AD80AE80AF80AC0923003D092310346
:1007E000E0923203F0923303C114D104E104F10426
:1007F00099F48091340390913503A0913603B09120
:1008000037030196A11DB11D8093340390933503E6
:10081000A0933603B0933703809038039090390348
:10082000A0903A03B0903B0360913403709135037C
:1008300080913603909137030E948A30A50194017C
:100840000E94933120E030E040E85FE40E94933161
:100850002B013C01C701B6010E948A30A501940119
:100860000E9493319B01AC01C301B2010E94E32FAE
:1008700060932C0370932D0380932E0390932F038A
:10088000FF90EF90DF90CF90BF90AF909F908F90B0
:100890007F906F905F904F900895609114027091D7
:1008A00015028091160290911702F0CE6091040219
:1008B00070910502809106029091070221CF60910C
:1008C0000C0270910D0280910E0290910F0252CF96
:1008D000CF92DF92EF92FF921F93CF93DF93E6E1E7
:1008E000F3E08BE2DF011D928A95E9F780E090E06A
:1008F000A0E8BFEB86A397A3A0A7B1A78AE097EDD6
:10090000A3E2BCE382A393A3A4A3B5A38AE092EFDE
:10091000AAE5B6EF84839583A683B78385E193E246
:10092000A5E7B8EB80879187A287B38784E99DE428
:10093000A3E1B6E284879587A687B78782EA9FEB13
:10094000A6E3BDE8808B918BA28BB38BAAE0B3E0CA
:10095000B383A283E6EFF2E01196FC93EE938DE46D
:1009600092E09183808393838283958384839783AA
:1009700086839187808793878287958784879787E7
:100980008687918B808B938B828B8AE293E015967E
:100990009C938E9314978AE193E013969C938E9385
:1009A00012978CE293E017969C938E931697ECE146
:1009B000F9E08CE0DF011D928A95E9F7C8E2D9E001
:1009C0008FE1FE0111928A95E9F711E01E8FC12C8B
:1009D000D12C7601C394C98ADA8AEB8AFC8A61E059
:1009E00080E33ADC1D8B18861D8FC986DA86EB867C
:1009F000FC8661E082E330DC1D8718821C8FC9828F
:100A0000DA82EB82FC8261E084E326DC1D83188EAF
:100A1000198E1A8E1B8EDF91CF911F91FF90EF9050
:100A2000DF90CF90089580913809811103C081E053
:100A30008093380980913009811103C081E080934F
:100A4000300980912809811103C081E08093280931
:100A500008950C94392D0C94722D4F925F926F92E1
:100A60007F928F929F92AF92BF92CF92DF92EF923E
:100A7000FF920F931F93F89440904D0350904E03B4
:100A800060904F0370905003C0904103D090420398
:100A9000E0904303F0904403452B09F0A4C09B0170
:100AA000AC01241935094609570929013A01009179
:100AB000490310914A0320914B0330914C034801A4
:100AC0005901840C951CA61CB71C80169106A20621
:100AD000B306A0F40091450310914603209147030B
:100AE000309148030F5F1F4F2F4F3F4F0093450337
:100AF00010934603209347033093480380924903A1
:100B000090924A03A0924B03B0924C03009145038C
:100B1000109146032091470330914803809251037E
:100B200090925203A0925303B09254030093550342
:100B300010935603209357033093580360934D034B
:100B400070934E0380934F0390935003A0E1B7E25C
:100B5000A30192010E949E376C0D7D1D8E1D9F1D6D
:100B60006093410370934203809343039093440343
:100B70000091240210912502209126023091270233
:100B80000F3F1F4F2F4F3F4FF1F000912402109164
:100B9000250220912602309127020E3F1F4F2F4F32
:100BA0003F4F89F0C0902402D0902502E0902602A9
:100BB000F090270221E08C149D04AE04BF0408F4D9
:100BC00020E020935D0378941F910F91FF90EF90A8
:100BD000DF90CF90BF90AF909F908F907F906F905D
:100BE0005F904F9008954B015C0184189508A6080A
:100BF000B708A3019201261B370B480B590B64154C
:100C0000750586059705D0F082169306A406B506ED
:100C100040F420E030E0A90181149104A104B10462
:100C200091F4A0E1B7E20E949E37A7019601261B2E
:100C3000370B480B590BCA01B901C5CF8216930671
:100C4000A406B50670F7A0E1B7E2A50194010E94E1
:100C50009E376C0D7D1D8E1D9F1DB5CFFECECF9393
:100C6000DF9300D01F92CDB7DEB71C821B821A82A1
:100C700019821092590310925A0310925B0310923A
:100C80005C03BE016F5F7F4FCE0103960E942E234F
:100C900069817A818B819C810E94181C009761F484
:100CA000BE016F5F7F4FCE0103960E943A23698198
:100CB0007A818B819C812ED50F900F900F900F9091
:100CC000DF91CF910895FF920F931F93CF93DF93FE
:100CD000082F60E070E0CB010E947132FF24F39492
:100CE0000E94011BEC01892B89F010E0CE3F8FEFB1
:100CF000D80769F0002361F160E070E0CB010E9449
:100D0000713281E090E0892B59F322C011E025D5A2
:100D1000EC01892B21F0CE3F8FEFD80759F7111145
:100D20001EC011E0229609F410E00E94B11AEC01F5
:100D3000892B21F0CE3F8FEFD807E1F6111111C0BA
:100D400011E0CE3F8FEFD80709F410E001110BC07E
:100D5000CE01DF91CF911F910F91FF90089511E087
:100D6000E4CF11E0F3CF60E070E0CB010E9471327C
:100D70001F25812F90E0C7CFCF93DF9380915D0334
:100D8000882321F060E070E0CB014CD635D6D0E06E
:100D9000C0E0892B71F06AE070E080E090E00E9492
:100DA000713281E090DF28D62196C03D27E0D2073E
:100DB00081F727D60E946C1C109275031092740361
:100DC00010926E0310926F031092700310927103D1
:100DD00010926A0310926B0310926C0310926D03D1
:100DE00010926603109267031092680310926903D1
:100DF00010926203109263031092640310926503D1
:100E000010925E0310925F031092600310926103D0
:100E10004EEF5FEF6FEF7FEF409324025093250278
:100E2000609326027093270210925D03E1E5F3E0E0
:100E300028E0DF011D922A95E9F710924D031092E8
:100E40004E0310924F0310925003109249031092D8
:100E50004A0310924B0310924C03109245031092D8
:100E600046031092470310924803109241031092D8
:100E700042031092430310924403DF91CF910895EF
:100E800010928103109282031092830310928403C4
:100E9000109280038091890390918A0390937F033D
:100EA00080937E0310927D0310927C03109278034E
:100EB0001092790310927A0310927B0310928603AA
:100EC0001092850390E080E00895CF92DF92EF9238
:100ED000FF920F931F93CF938C01892B09F055C07C
:100EE0002091890330918A0380917E0390917F0342
:100EF0004091890350918A0350937F0340937E036E
:100F00002817390781F010927D0310927C0310920C
:100F100078031092790310927A0310927B03109257
:100F20008603109285038091890390918A0301972B
:100F300061F58091850390918603892B21F480913E
:100F40002802811112C08091850390918603019738
:100F5000E1F48091780390917903A0917A03B091A4
:100F60007B030197A105B10581F4109278031092DB
:100F7000790310927A0310927B031092280282E088
:100F800090E09093860380938503809189039091EC
:100F90008A03019709F01CC180919F039091A003DF
:100FA0008017910709F014C180919B0390919C03D5
:100FB000A0919D03B0919E03009709F409C120916F
:100FC0009A0321110DC040919B0350919C036091A5
:100FD0009D0370919E03452B462B472B09F4F8C0C7
:100FE00020918503309186032230310509F0F0C04D
:100FF00020917C032111ECC0FC01C080D180E280F3
:10100000F38080918003882309F4D3C080918C03FE
:1010100090918D03892B09F4FDC020918C033091B0
:101020008D0381E02230310509F080E020918C03AE
:1010300030918D03C1E02130310549F020918C03BE
:1010400030918D03C1E02230310509F0C0E08823E2
:1010500009F456C02091960330919703409198036C
:1010600050919903C701B6010E948F3187FD14C0CA
:1010700020919603309197034091980350919903E2
:101080006091810370918203809183039091840326
:101090000E945A3087FD22C0209196033091970319
:1010A0004091980350919903C701B6010E948F3176
:1010B000181634F5209196033091970340919803C8
:1010C0005091990360918103709182038091830311
:1010D000909184030E945A30811112C080918E0336
:1010E00090918F03A0919003B0919103892B8A2B4B
:1010F0008B2B19F481E080937D0381E080937C0346
:10110000CC2309F456C02091960330919703409167
:10111000980350919903C701B6010E945A3087FF86
:1011200014C02091960330919703409198035091F9
:101130009903609181037091820380918303909160
:1011400084030E948F3187FF22C020919603309143
:1011500097034091980350919903C701B6010E94EB
:101160005A30811126C02091960330919703409107
:10117000980350919903609181037091820380914B
:101180008303909184030E948F31181694F4809108
:101190008E0390918F03A0919003B0919103892BBE
:1011A0008A2B8B2B19F481E080937D0381E080935F
:1011B0007C0381E090917C03911180E08093800317
:1011C000C0928103D0928203E0928303F092840361
:1011D000012B09F067C18091850390918603892BCB
:1011E000D9F410928B0310927C03809128028823FB
:1011F00079F082E090E090938603809385031092CB
:1012000028022091890330918A0381E0232BE9F0A1
:1012100080E01BC081E00ACF1092280280918B03EE
:10122000882349F010927D03109286031092850363
:1012300010928B03EDCF8091890390918A03892BC3
:10124000E1F080917C0310927C0320918503309122
:1012500086032230310509F45EC088F4211531057A
:1012600009F448C02130310509F4F3C010927D0320
:1012700010927C0310928B0338C081E0E6CF2330BC
:10128000310509F4B1C02430310581F7409178036C
:101290005091790360917A0370917B034115510558
:1012A0006105710561F0415051096109710940936F
:1012B00078035093790360937A0370937B03409192
:1012C00078035091790360917A0370917B03452BE9
:1012D000462B472BD9F42091870330918803213086
:1012E000310509F046C010927D03109286031092DA
:1012F00085030CC080912802882341F082E090E0B1
:1013000090938603809385031092280210927603AF
:1013100080917D03CEC08823C9F380918E03909184
:101320008F03A0919003B0919103181619061A0625
:101330001B060CF07DC08091890390918A03019770
:1013400009F076C080918E0390918F03A091900355
:10135000B09191038093780390937903A0937A03DB
:10136000B0937B0383E090E09093860380938503A2
:10137000CDCF40919203509193036091940370916B
:101380009503452B462B472BA9F010927D038091A6
:10139000920390919303A0919403B091950380934D
:1013A000780390937903A0937A03B0937B0381E051
:1013B00090E0DACF882399F08091290290912A0257
:1013C000A0912B02B0912C02809378039093790323
:1013D000A0937A03B0937B0384E090E0C5CF109292
:1013E0007D0382E090E0C0CF8091780390917903F3
:1013F000A0917A03B0917B030097A105B10559F044
:101400000197A109B1098093780390937903A09380
:101410007A03B0937B038091780390917903A09134
:101420007A03B0917B03892B8A2B8B2B09F06ECF2B
:101430008091290290912A02A0912B02B0912C0256
:10144000892B8A2B8B2B09F44ECF81E080937D036F
:10145000B3CF409178035091790360917A037091F2
:101460007B03411551056105710561F0415051093A
:1014700061097109409378035093790360937A036B
:1014800070937B03409178035091790360917A03C4
:1014900070917B03452B462B472B09F037CF8111E9
:1014A000C7CF9FCF80917603882309F431CF8091F5
:1014B0007703CF911F910F91FF90EF90DF90CF9026
:1014C0000895109281031092820310928303109268
:1014D0008403109280031092860310928503109269
:1014E0007F0310927E031092A00310929F0310922C
:1014F0007D0310927C03109278031092790310926E
:101500007A0310927B031092770310927603109265
:101510009B0310929C0310929D0310929E031092C5
:101520009A031092960310929703109298031092C8
:10153000990388EE93E0A0E0B0E0809329029093B5
:101540002A02A0932B02B0932C02109292031092C5
:101550009303109294031092950310928E031092AD
:101560008F03109290031092910310928D031092AA
:101570008C0381E08093280210928B0310928A03DF
:1015800010928903109288031092870390E080E004
:1015900008958091890390918A03892B19F5809190
:1015A0002802882351F080918B03811106C081E0CD
:1015B0008093770380937603089520918B03309175
:1015C000280281E090E0332311F090E080E030E0E9
:1015D00082239323892B21F01092770381E0EACFB5
:1015E00010927603089582E090E0FA01918380835F
:1015F0008FEF9FEF0895CF93DF93EA01009711F0EB
:101600000E948C1D1982188290E080E0DF91CF91BA
:101610000895DB01009719F48FEF8C9308952EEF56
:101620002C93FC013F96EF30F10508F034C0882779
:10163000E35EF44F8F4F0C949637490B470B450BE5
:10164000430B410B3D0B3F0B3B0B390B370B340B63
:10165000300B2C0B320B4B0B80E311968C930895BF
:1016600089E2FBCF82E2F9CF11961C92089583E2C2
:10167000F4CF81E2F2CF81E1F0CF87E2EECF8AE2D0
:10168000ECCF80E1EACF84E2E8CF88E2E6CF86E2E1
:10169000E4CF81E3E2CF80E2E0CF8091AD0390918F
:1016A000AE0308959093AE038093AD0308958091A7
:1016B000AC0308959091AC03892B8093AC030895FB
:1016C000982F90958091AC0389238093AC03089563
:1016D0008091AB0308958091A9039091AA03089586
:1016E0006115710559F0FB0130E020E070E060E029
:1016F0002417350719F06115710511F0CB01089514
:10170000A081B181A817B90709F4BF012F5F3F4F2E
:101710003696EECF8091AF0381111CC060D266D2A5
:101720009093A2038093A1030E948A150E949C15A6
:101730009093A6038093A5030E94191A0E94201A71
:101740009093A4038093A30381E08093AF0390E080
:1017500080E0089584EF9FEF08958F929F92AF925B
:10176000BF92CF92DF92EF92FF920F931F93CF938E
:10177000DF9300D000D000D01F92CDB7DEB71A861D
:10178000198618861F821E821D821C821B821A8265
:1017900019828091AF0307EF1FEF882309F49CC0E3
:1017A0008E010D5F1F4F9E012B5F3F4FAE01495FC2
:1017B0005F4FBE01675F7F4F90E080E00E949D1BFE
:1017C0008C01009721F00596029708F0DBC029856F
:1017D0003A852115310509F402C1ED80FE804B8167
:1017E0005C81B701640F751F8F81988586179707F5
:1017F00008F4F5C0E20EF31ED7019C91903C09F06D
:101800007FC04230510508F47BC011968C91409105
:10181000AD035091AE03452B09F49CC0913F08F0F5
:1018200071C02CE1290F2D3008F48BC02DE2290F57
:10183000203108F489C0903C21F48150823008F4B2
:1018400083C088E3890F8B3008F481C099E0C92EEA
:101850009BE0D92EE3EFFAE06D817E81AE014F5F10
:101860005F4F89859A8519955C01C114D104A1F156
:1018700089809A808114910479F18B819C818815EB
:10188000990508F487C010E000E04B815C8170E0AE
:1018900060E0C7010E94C03701151105E9F44981D4
:1018A0005A8169857A858D819E81680F791FC5016E
:1018B000F6011995E980FA800D811E812F81388506
:1018C00049855A856FEF7FEF81E090E00E94381BD9
:1018D0008C01892B09F056C0C8012A960FB6F894DE
:1018E000DEBF0FBECDBFDF91CF911F910F91FF9053
:1018F000EF90DF90CF90BF90AF909F908F90089522
:1019000080E085CF30E020E0220F331FF901EF5552
:10191000FC4F0190F081E02D309709F497CF892F8B
:1019200090E01995009709F491CFDC011296ED91A2
:10193000FC9113971496CD90DC90309709F08CCFE2
:101940001FC021E030E0E0CF22E030E0DDCF23E037
:1019500030E0DACFD12CC12CEBEFFAE09F3F09F059
:101960007BCFE091A103F091A203309721F4C9014C
:1019700004EF1FEF0CC08FEF90E019950097A9F6C8
:1019800004EF1FEF89859A85009709F4A5CF0E947F
:101990008C1DA2CF0E94671C8C0189859A850E94AC
:1019A0008C1D70E060E0C4010E94001C98878F834A
:1019B0000E94351B9E838D836F817885611571052B
:1019C00059F0C8010E94181F9A87898706EF1FEFF8
:1019D000892B09F058CF59CF08EF1FEF56CF08EFEA
:1019E0001FEFD0CF2091AF03222319F020E00C94F9
:1019F000A11587EF9FEF08958091AD039091AE03FD
:101A000008950E94251A0E947F19F5D0E1EAF3E0BB
:101A100088E0DF011D928A95E9F71092AF0390E00C
:101A200080E008950C94DD1721E040E050E0BA0119
:101A30000C94A11586E090E0FA019183808390E0F8
:101A400080E0089547E050E060E572E049CEDF9223
:101A5000EF92FF920F931F93CF93DF938A01EC01D4
:101A6000C60FD71FE090B303F090B403D9800E9453
:101A70004F1CD816190678F082E090E0F8019183A7
:101A800080838EEF9FEFDF91CF911F910F91FF9099
:101A9000EF90DF900895EF2841F482E090E0F801A4
:101AA0009183808384EF9FEFEECF89818093B2038F
:101AB00090E00196F8019183808390E080E0E3CF8D
:101AC000CF93DF93EA010E948E18882321F00E94B1
:101AD0005C1C0E948F1882E090E0998388838BEFD2
:101AE0009FEFDF91CF910895CF93DF93EB0186E0D5
:101AF000FB0111928A95E9F78FEF8883D8DD8983FE
:101B0000E7DD8A83E8DD9D838C83DF91CF910895A3
:101B1000CF93DF93EA010E949118811109C082E0FE
:101B200090E09983888385EF9FEFDF91CF910895AF
:101B300090E080E0B7DD81E090E09983888390E0D9
:101B400080E0F3CF0F931F93CF93DF93EA018C01D3
:101B5000060F171F0E94911881110BC082E090E0C0
:101B60009983888385EF9FEFDF91CF911F910F912C
:101B70000895F8018181823038F082E090E0998305
:101B800088838EEF9FEFF0CF81E090E08BDD88E0DF
:101B900090E09983888390E080E0E6CFCF93DF9355
:101BA0000097D1F4EB01FB01329686E0DF011D9234
:101BB0008A95E9F78FEF888385E089831A820E94EE
:101BC0004F1C8B830E944E1C9D838C8381E08E83EF
:101BD0008F83DF91CF910895DF91CF911ACD82E26B
:101BE0009DE09093B1038093B00308958091B0037A
:101BF0009091B10308951092B1031092B00308952B
:101C00008091B3039091B4030895411105C061150B
:101C100071058105910561F06093B3037093B4037E
:101C20008093B5039093B6034093B70381E0089582
:101C300080E00895FF920F931F93CF93DF938A0163
:101C4000EC01C60FD71FF9800E944F1CF816190629
:101C500068F082E090E0F801918380838EEF9FEF3F
:101C6000DF91CF911F910F91FF9008956C817D813D
:101C70008E819F814B81C9DF811108C082E090E095
:101C8000F8019183808384EF9FEFEACF898180936D
:101C9000B20390E00196F8019183808390E080E0A8
:101CA000DFCFCF93DF93EA01FC01E60FF71F6481DA
:101CB0007581868197814381A8DF811109C082E007
:101CC00090E09983888384EF9FEFDF91CF9108950F
:101CD00081E090E09983888390E080E0F6CFE3EBA9
:101CE000F3E04081518162817381480F511D611D74
:101CF000711D40835183628373830895CF93C09194
:101D0000B2034C2F50E06091B3037091B40301967D
:101D10000E94B7378C2FE3DF1092B203CF91089562
:101D2000009799F48091B3039091B4032FEFFB01D6
:101D30002083892B59F02091B20330E02F5F3F4F71
:101D40002417350719F4CB01D9CF63CC0895009738
:101D500099F48091B3039091B4032FEFFB0120839A
:101D6000892B59F02091B20330E02F5F3F4F2417A9
:101D7000350719F4CB01C2CF4CCC089523E1AC0157
:101D8000249FC001259F900D1124E091BC03F09188
:101D9000BD03E80FF91F238134812250310981E00E
:101DA0002230310508F080E008950F931F93CF9300
:101DB000DF930091BE031091BF03D0E0C0E080E04C
:101DC0000C171D0749F491E0811190E0892FDF91F4
:101DD000CF911F910F9108958111F5CFCE01CEDFE4
:101DE0002196EECFA091BC03B091BD03109729F1CD
:101DF0002091BE033091BF0382179307F0F453E1A3
:101E0000589F9001599F300D1124A20FB31FED91DF
:101E1000FC911197309789F012968C91681768F4AD
:101E20008DE0689FE00DF11D112480819181892B47
:101E300021F081E09281491708F080E008959C012B
:101E400043E1429FC001439F900D1124E091BC03E8
:101E5000F091BD03E80FF91F8385823091F481E092
:101E600090E06581768140912D0250912E02641799
:101E7000750711F490E080E0892B19F081E0232BA5
:101E800009F080E00895FC01A081B1818DE0689F98
:101E9000A00DB11D112413964D915C9185859685F9
:101EA000489F9001499F300D589F300D1124C90162
:101EB0000196611103C0478144FD04960895EF9295
:101EC000FF920F931F93CF93DF93EA01FC01E60F7C
:101ED000F71F02811381E480F5804F2D6E2DC8011C
:101EE00081DF81110DC082E090E0998388838EEFBD
:101EF0009FEFDF91CF911F910F91FF90EF90089589
:101F0000C8013CDF882339F082E090E09983888320
:101F100088EF9FEFEECF1093340200933302E092EC
:101F20003502F092360281E090E09983888390E058
:101F300080E0DFCFCF92DF92EF92FF920F931F935B
:101F4000CF93DF937A01EC01C60FD71FC090330205
:101F5000D09034020091350210913602412F602F4B
:101F6000C60140DF811110C082E090E0F70191834B
:101F700080838AEF9FEFDF91CF911F910F91FF90A8
:101F8000EF90DF90CF900895C601F8DE882341F0EE
:101F900082E090E0F7019183808388EF9FEFEBCFA1
:101FA0004C815D816E817F819A8189818F3F41F073
:101FB00082E090E0F701918380838EEF9FEFDBCF8B
:101FC000E3E1EC9D9001ED9D300D1124E091BC0307
:101FD000F091BD03E20FF31F0190F081E02D2DE0A1
:101FE000029FE00DF11D11240190F081E02D27E00A
:101FF000129FE00DF11D1124808391838B818283D8
:1020000043835483658376831F5F1093360281E098
:1020100090E0F7019183808390E080E0ACCFEF9275
:10202000FF920F931F93CF93DF937A018C01060FDA
:10203000171FC091BC03D091BD03209781F021E010
:1020400030E0F801828193814091BE035091BF033B
:102050008417950710F030E020E0232B71F482E024
:1020600090E0F701918380838EEF9FEFDF91CF9116
:102070001F910F91FF90EF90089543E1489F9001C9
:10208000499F300D1124C20FD31F78DE882341F001
:1020900082E090E0F7019183808388EF9FEFE6CFA5
:1020A000F8012481358120383105C8F687818111F6
:1020B000D6CF4181842F90E08F7E009741F082E05F
:1020C00090E0F7019183808386EF9FEFCFCF4F831E
:1020D0003E832D83268128871986223010F421E043
:1020E000288721E030E0F70131832083BFCF88E0EB
:1020F00090E0FA019183808390E080E00895FB01F5
:102100008FEF808381E181838FEF9FEF93838283C1
:1021100080E890E095838483168217820895FB01FE
:102120008FEF808391E0918382839383848384E320
:10213000858381E090E0978386830895DF92EF9214
:10214000FF920F931F93CF93DF93EA01FC01E60FF9
:10215000F71F8181813071F082E090E0998388835C
:102160008FEF9FEFDF91CF911F910F91FF90EF9035
:10217000DF90089582819381D4802581E680F78065
:102180000091BC031091BD030115110539F482E0E3
:1021900090E0998388838CEF9FEFE4CF4091BE035A
:1021A0005091BF038417950738F082E090E099833F
:1021B00088838EEF9FEFD6CF892B39F082E090E0B5
:1021C0009983888386EF9FEFCDCF8D2D8D7FB1F7DB
:1021D0002130A1F781E0D11006C091E0E916F104A9
:1021E00031F080E004C0E2E0EE16F104D0F3882381
:1021F00029F390E080E0C2DD882339F082E090E0AE
:102200009983888388EF9FEFADCFF801D38681E073
:102210008487F686E586108A178681E090E09983A8
:10222000888390E080E09ECF4CE050E06AE772E067
:1022300057CA8F929F92BF92CF92DF92EF92FF92F6
:102240000F931F93CF93DF93EA01FC01E60FF71F73
:10225000828193810481B580E091BC03F091BD033C
:10226000309791F482E090E0998388838CEF9FEF20
:10227000DF91CF911F910F91FF90EF90DF90CF9062
:10228000BF909F908F9008952091BE033091BF031F
:102290008217930738F082E090E0998388838EEF6D
:1022A0009FEFE6CF23E1289F6001299FD00C1124E6
:1022B000EC0DFD1DE080F180E114F10499F28281C2
:1022C000081748F78DE0089F80011124E00EF11EE9
:1022D000F70180819181892B29F6BB20E1F2F7E09B
:1022E000BF9E40011124C4010E94531DF701918338
:1022F0008083E091BC03F091BD03EC0DFD1D0190C6
:10230000F081E02DE00FF11F80819181009739F479
:1023100082E090E0998388838DEF9FEFA9CFA4019D
:1023200070E060E00E94C0378091BC039091BD03D3
:10233000C80ED91EF60180819181080F191FF8017E
:10234000B28281E090E09983888390E080E090CF32
:10235000AF92BF92CF92DF92FF920F931F93CF93D2
:10236000DF93EA01FC01E60FF71F82819381F4807D
:102370000091BC031091BD030115110581F482E0A9
:1023800090E0998388838CEF9FEFDF91CF911F912D
:102390000F91FF90DF90CF90BF90AF900895209164
:1023A000BE033091BF038217930738F082E090E0BC
:1023B000998388838EEF9FEFE8CF2FEF2F0D2C3F6F
:1023C000A8F723E1289F6001299FD00C11240C0D50
:1023D0001D1DF80180819181892B89F6FDE0FF9E0A
:1023E00050011124C5010E94531DF801918380837F
:1023F000E091BC03F091BD03EC0DFD1D8081918146
:10240000009739F482E090E0998388838DEF9FEF05
:10241000BCCFA50170E060E00E94C037E091BC0332
:10242000F091BD03EC0DFD1DF28281E090E09983F7
:10243000888390E080E0A9CFCF92DF92EF92FF9265
:102440000F931F93CF93DF93860F971FFC01028199
:1024500013818091BC039091BD03892B81F082E0B0
:1024600090E0FA01918380838CEF9FEFDF91CF9111
:102470001F910F91FF90EF90DF90CF900895C801CA
:10248000B0E0A0E00197A109B1098F3F9F4FA105DE
:10249000B10540F082E090E0FA01918380838EEFF5
:1024A0009FEFE4CF7A0183E1809F6001819FD00C90
:1024B0001124C6010E94531DEC01009741F482E0F3
:1024C00090E0F701918380838DEF9FEFCFCFA6013E
:1024D00070E060E00E94C037D093BD03C093BC039E
:1024E0001093BF030093BE0390E080E02FEF3FEF17
:1024F00041E061E070E08017910741F481E090E0F5
:10250000F7019183808390E080E0B0CF3A8B298BF4
:102510001B864C877E876D87188A1F860196639677
:10252000EACFEF92FF921F93CF93DF93EC0110E07D
:10253000F12CE12C6A811617B0F083E0689FB0019E
:102540001124AE014F5E5F4FC7010E94B81D009776
:1025500021F02FEF3FEF3A8B298BDF91CF911F9125
:10256000FF90EF900895612FCE018DDC61E070E067
:102570000E94001CE816F90608F47C011F5FDACF00
:10258000F8942091BA033091BB0381E02115310505
:1025900009F080E0232B09F0789408952F923F9260
:1025A0004F925F926F927F928F929F92AF92BF9263
:1025B000CF92DF92EF92FF920F931F93CF93DF930F
:1025C0003C01660E771EF301828193814C01B12C90
:1025D000A12CC091BC03D091BD03209769F021E0EC
:1025E00030E06091BE037091BF038617970710F02B
:1025F00030E020E0232BD1F482E090E0FA019183D7
:1026000080838EEF9FEFDF91CF911F910F91FF900D
:10261000EF90DF90CF90BF90AF909F908F907F9082
:102620006F905F904F903F902F9008958092370267
:1026300090923802A0923902B0923A0263E1689F08
:102640009001699F300D1124C20FD31FF3018181C6
:10265000833040F082E090E0FA019183808386EF3E
:102660009FEFD1CF2A012B813C81232BF1F42881CC
:1026700039819F8191FF2EC0232B09F46FC02091D7
:10268000C1039A81422F490F5527551FBA0141E0D6
:1026900050E06138710514F050E040E0452B09F43A
:1026A0005DC02A87920F9093C1038150823008F455
:1026B00081C066DF882309F4D8C0F30181818130AD
:1026C00009F48DC008F47BC0823009F4C6C090E0E4
:1026D00080E0ADC0232B09F441C02091C0039A8152
:1026E000E22FE90FFF27FF1F41E050E0ED3FF1052A
:1026F00014F050E040E0452B89F12A87920F909327
:10270000C003D3CFA081B181A20FB31F11966C91EA
:10271000060F111D0196295F3F4F8417950794F30B
:102720008D859E85089F1001099F300C189F300CE5
:102730001124C114D104D1F48F8184FF17C00E94E9
:102740004E1CF5E02F0E311C21E08215930508F494
:1027500020E0A701435F5F4F21110EC082E090E0AF
:10276000F2019183808387EF9FEF4DCF0E944E1C33
:102770002FEF221A320AE8CF88819981E80EF91EDC
:10278000F70114830383FFEFCF1ADF0A7A018A81EE
:102790008C151D0409F00CF48CCFE881F981EE0D45
:1027A000FF1D428150E030E020E010E000E090E0CA
:1027B00080E0B3CFF12CE12CD12CC12CE8CF81E00B
:1027C00090E09C838B83F1DA882309F480CF81E049
:1027D00090E00E94520B80E40E94600B78CF8989C0
:1027E0009A89019661F083E090E09C838B8382E07C
:1027F00090E00E94520B80E40E945A0B68CF8D81BA
:102800009E8120912D0230912E0282179307D1F4E0
:102810006091310270913202AE014F5E5F4F809144
:102820002F02909130020E94D71E0097E1F2789417
:1028300022E030E0F20131832083892B99F08DEF83
:102840009FEFE1CE89288A288B2869F6892B59F6D3
:10285000CE0167DE188A1F86E8CF82E090E09C8375
:102860008B8335CF90E080E0CECE82E090E0F20125
:102870009183808385EF9FEFC6CE8F929F92AF9218
:10288000BF92CF92DF92EF92FF920F931F93CF935D
:10289000DF93EA018C01060F171FF8018181833055
:1028A00098F082E090E09983888386EF9FEFDF9134
:1028B000CF911F910F91FF90EF90DF90CF90BF903D
:1028C000AF909F908F9008958091BC039091BD032D
:1028D000892B61F081E090E02091BE033091BF032D
:1028E000232B11F490E080E0892B39F482E090E012
:1028F000998388838EEF9FEFDACF42DE882309F435
:10290000DFC0F8018181813009F495C0E8F08230A0
:1029100099F42091BE033091BF03E091BC03F09184
:10292000BD0390E080E041E050E02817390709F04E
:10293000BDC03BDA811117C0789481E090E09983A3
:10294000888390E080E0B3CF2091BE033091BF0335
:10295000E091BC03F091BD0390E080E041E050E0E5
:102960002817390741F481E090E00E94520B80E47F
:102970000E94600BE1CF63817481672B11F0548357
:10298000438301967396ECCFE091BC03F091BD03B5
:10299000E00FF11F2381348122303105D9F42189E0
:1029A00032892F3F3F4FB1F42581368140912D026E
:1029B00050912E022417350761F5AF014F5E5F4F2E
:1029C000609131027091320280912F029091300219
:1029D0000E94D71EEFEFCE1ADE0AEE0AFE0A0D5E47
:1029E0001F4F4091BE035091BF0370E060E0C416DA
:1029F000D506E606F7063CF5009731F27894892B68
:102A000009F49BCF82E090E0998388838DEF9FEF5C
:102A10004ECFC114D104E104F104E1F6232BD1F629
:102A2000CF017FDDE091BC03F091BD03E00FF11F0A
:102A3000108A1786CFCF10E000E090E080E0C12C34
:102A4000D12C7601CECF0097C9F610E000E0812CA2
:102A5000912C540183E0E82EF12C1AC0E091BC03C4
:102A6000F091BD03E00FF11F83819481029749F437
:102A7000F482E38282E090E00E94520B80E40E94A4
:102A80005A0BFFEF8F1A9F0AAF0ABF0A0D5E1F4F46
:102A90008091BE039091BF03B0E0A0E08816990634
:102AA000AA06BB06DCF290E080E0A8CF63817481C7
:102AB0006230710511F4548343830196739635CFC8
:102AC00082E090E09983888385EF9FEFF0CE0097B6
:102AD000B9F48FEFFB0180832091370230913802E7
:102AE00043E1429FC001439F900D1124E091BC033C
:102AF000F091BD03E80FF91F8285FB0181830895E2
:102B00000C94090B88E090E0FA019183808390E0B7
:102B100080E008951092BB031092BA03ECEBF3E04F
:102B200086E0DF011D928A95E9F784E191E19093B7
:102B3000B9038093B80308958091B8039091B903C5
:102B400008952F923F924F925F926F927F928F9251
:102B50009F92AF92BF92CF92DF92EF92FF920F932C
:102B60001F93CF93DF93CDB7DEB72F970FB6F894AF
:102B7000DEBF0FBECDBFF894E091BA03F091BB0366
:102B80003196F093BB03E093BA0378944090BC0372
:102B90005090BD034114510409F40CC2E091BE03EE
:102BA000F091BF03EF2B09F405C22D8749875A879F
:102BB0006B877C8798878F831201B12CA12C10E042
:102BC00000E08091BE039091BF03A816B90618F4E7
:102BD0000115110529F1F8948091BA039091BB0376
:102BE00001979093BB038093BA037894C8012F9602
:102BF0000FB6F894DEBF0FBECDBFDF91CF911F910E
:102C00000F91FF90EF90DF90CF90BF90AF909F908B
:102C10008F907F906F905F904F903F902F9008958E
:102C20007101E418F508D10117968C91179781FD71
:102C300054C013968D919C911497039709F04DC041
:102C400015968D919C91EF81F8858E179F0709F05D
:102C500044C0B50190E080E07FD48A832091BC031A
:102C60003091BD033D832C833D85332309F44CC053
:102C70004C815D81452B09F49AC18091BE039091EE
:102C8000BF03A816B90608F092C1C501D8D8882399
:102C9000E9F06C817D816E0D7F1D7D836C83DB018E
:102CA0001F968D919C91892B89F0D12CC12CF12CF0
:102CB000E12CAC81BD8112968C9112978E151F0468
:102CC00009F094F450961C921E921F972A81222399
:102CD00021F0B50190E080E041D43FEFA31AB30AA0
:102CE00043E1240E311C6DCFAC81BD81ED91FC918F
:102CF000EC0DFD1D858196810FD7BFEFEB1AFB0A06
:102D0000EDE0CE0ED11CD5CFEC81FD81309709F4DA
:102D10004EC18091BE039091BF03A816B90608F07A
:102D200046C1EE0DFF1DFF87EE87C50188D88B8356
:102D3000882339F1AE85BF851F968D919C91509760
:102D4000019621E01D964D915C918417950709F03D
:102D500020E02E831982712C10E000E0AE85BF8543
:102D600012968C91781608F45DC0EE85FF858785F4
:102D700090890196658576850E946037908B87875C
:102D8000A5CFB1E0BE83E6CF992493946BC08BD6D8
:102D9000F6019683858382C0D601ED90FC90B7E062
:102DA0006B9EE00CF11C1124F7016381748180811A
:102DB0008F3F61F121E030E002C0220F331F8A957E
:102DC000E2F7C901092E000CAA0BBB0BFB014081E5
:102DD00051816281738184239523A623B72321E047
:102DE000892B8A2B8B2B09F420E0D4012C93D7015B
:102DF00011968C91F60123853485820F932F911DB6
:102E0000880E991E1486138663949BC0418150E0FE
:102E1000C4010E94B737EBCF998206EF1FEFC5C000
:102E20001982C3C0F981F111A0CFEDE07E9E70013F
:102E30001124AE85BF85CD90DC90CE0CDF1C15D45F
:102E40009D838C83BB81BB2309F49ECF81E0EE85FB
:102E5000FF8527853089232B09F080E0982E882371
:102E600009F458C0672D8E859F850DD8D601189618
:102E70009C938E93179761E070E0C2D4EE85FF8536
:102E8000218932892F3F320709F481CFBC01C90162
:102E9000CFD7D60116969C938E931597D60115968B
:102EA0008D919C911697009709F4B6CFEC81FD8126
:102EB0008E0F9F1F1A969C938E931997AE85BF8590
:102EC000ED91FC911197EE0EFF1EF70121853285E1
:102ED000148613861A968C91870DD9018D937110E3
:102EE00016C0EE85FF85878184FF11C049855A850C
:102EF0006B857C85F9014183528363837483F70179
:102F0000838594850496A80FB91F14861386F7014C
:102F1000B287A187D60115968D919C911697892B22
:102F200009F443C0EE85FF852581368180912D020D
:102F300090912E022817390779F019968D909C9060
:102F4000612CD60112968C911297681608F424CF42
:102F50001A969C928E921997BE81BB2309F460CF7A
:102F600061E070E0F601878190854AD4D60117961A
:102F7000ED90FC90189715964D915C91E1E0F0E092
:102F8000BA81BB2311F0F0E0E0E00C811D819C01CF
:102F9000B501882799278E1B9F0B6AD38C01892B3B
:102FA00021F0F60185819681B7D57394D7CE0FEFC6
:102FB0001FEF8CCE10E000E00ECE2F923F924F928A
:102FC0005F926F927F928F929F92AF92BF92CF92B9
:102FD000DF92EF92FF920F931F93CF93DF93809135
:102FE000BC039091BD0310E000E0892BA9F0C8DA82
:102FF0000AEF1FEF882381F02090BE033090BF03BB
:10300000C091BC03D091BD03D12CC12C10E000E0D5
:103010002C143D04A9F47894C801DF91CF911F913D
:103020000F91FF90EF90DF90CF90BF90AF909F9067
:103030008F907F906F905F904F903F902F9008956A
:10304000C6010E941F0F882309F18B819C81039781
:10305000E9F48F859889892BC9F0B60190E080E06A
:103060007BD221E030E0882311F030E020E04424DE
:103070005524421A530AB12CA12C912C812C8A81FF
:103080008815190409F038F4188A1F864FEFC41AFE
:10309000D40A6396BDCFE881F981EA0DFB1D8581D5
:1030A0009681892BA1F161E070E087819085A8D39A
:1030B0003C01DBD28C01E881F981EA0DFB1D8185A1
:1030C000928525813681200F311FAC01421B530BA5
:1030D0009A0147815085421B530B70E060E00E94CB
:1030E000C037E881F981EA0DFB1DE780F084458156
:1030F00056819301B601C201BBD28C01892B39F0F4
:10310000E881F981EA0DFB1D8581968105D55FEF88
:10311000851A950A8DE0A80EB11CB1CF31CA7894FA
:1031200008952F923F924F925F926F927F929F925B
:10313000AF92BF92CF92DF92EF92FF920F931F93C5
:10314000CF93DF9300D000D0CDB7DEB70091BC03A2
:103150001091BD03992493940115110509F43EC003
:10316000A090BE03B090BF030BDA982E8823B1F174
:103170001092BD031092BC031092BF031092BE03C5
:103180001092C0031092C1038FEF9FEFDC01809378
:10319000370290933802A0933902B0933A027894A0
:1031A0007FD31E830D83C12CD12C7601C501B0E0E5
:1031B000A0E089839A83AB83BC8322242A94322C97
:1031C00089819A81AB81BC81C816D906EA06FB06C3
:1031D000F4F0C801A1D480E40E94600B892D2696EA
:1031E0000FB6F894DEBF0FBECDBFDF91CF911F9118
:1031F0000F91FF90EF90DF90CF90BF90AF909F9096
:103200007F906F905F904F903F902F900895AD8189
:10321000BE8115968D919C91169720912D0230912B
:103220002E0282179307D1F451968D919C91EED581
:10323000ED81FE8180819181B12CA12C412C512CFA
:103240003201892B89F5BFEFCB1ADB0AEB0AFB0AA7
:10325000ED81FE817396FE83ED83B2CFC114D1045C
:10326000E104F10429F7892B19F7ED81FE818189A9
:1032700092898F3F980709F029D5AD81BE8152967A
:103280003C922E925197D4CF8A0D9B1DDC018D91DB
:103290009C91009709F040D4BFEF4B1A5B0A6B0A70
:1032A0007B0AEDE0AE0EB11CAD81BE818D919C918B
:1032B000119712964C9150E070E060E0441655066C
:1032C000660677060CF328D4BECFCF93DF93EA01CE
:1032D00028DF811109C082E090E09983888385EF1F
:1032E0009FEFDF91CF91089581E090E00E94520B13
:1032F00081E090E09983888390E080E0F2CF11DF55
:103300001092B9031092B803089542E050E062ECC5
:1033100072E00C94700BFF920F931F93CF93DF9387
:103320008A01EC01C60FD71FF980B9D20897F816A9
:10333000190671F068F082E090E0F80191838083D3
:103340008EEF9FEFDF91CF911F910F91FF90089526
:103350006C817D818E819F814B810E94050E811140
:1033600008C082E090E0F8019183808384EF9FEFB2
:10337000E9CFF9800E94000E4F2D50E0BE01685F3A
:103380007F4F0E94B73789810E946F0E81E090E0E5
:10339000F8019183808390E080E0D4CFDF92EF92B8
:1033A000FF920F931F93CF93DF938A01EC01C60F17
:1033B000D71F0E94000E7C01D98071D2DD2059F008
:1033C000029721E030E0D816190619F010F030E02D
:1033D00020E0232B79F482E090E0F8019183808350
:1033E0008EEF9FEFDF91CF911F910F91FF90EF90A4
:1033F000DF900895EF2841F482E090E0F801918396
:10340000808384EF9FEFEECFF9800E94000E4F2D56
:1034100050E0BE016E5F7F4F0E94B73789810E94E6
:103420006F0E81E090E0F8019183808390E080E06E
:10343000D9CF85E899E19093C3038093C20308959F
:103440008091C2039091C30308950895FC011182F5
:103450001082938382830895DB011D921C92DC010C
:103460001296ED91FC9113977183608313967C9370
:103470006E9312970895FC0180819181DB018D93F9
:103480009C93A081B181109741F08D919C91918383
:103490008083892B11F4F383E2830895FC018081FA
:1034A0009181DB018D939C93892B11F4738362834B
:1034B000718360830895FC0111821082938382835B
:1034C0000895CF93DF931F921F92CDB7DEB71A8274
:1034D0001982F894BE016F5F7F4F89EC93E0CBDFD8
:1034E00089819A81009709F017D389819A81892B64
:1034F00089F7BE016F5F7F4F8DEC93E0BCDF898160
:103500009A81009709F008D389819A81892B89F7DC
:1035100078940F900F90DF91CF910895CF93DF9320
:103520001F921F92CDB7DEB71A821982F894BE019E
:103530006F5F7F4F85EC93E09EDF89819A810097D2
:1035400009F0EAD289819A81892B89F778940F90C2
:103550000F90DF91CF91089581E0089590E080E091
:103560000895EF92FF920F931F93CF93DF931F92D3
:103570001F92CDB7DEB71A8219828091C40307EF7C
:103580001FEF8823A1F1F894BE016F5F7F4F8DEC90
:1035900093E071DF789489819A81EE24E394F12C91
:1035A000892B51F4F894BE016F5F7F4F89EC93E053
:1035B00062DF7894F12CE12C89819A810EEF1FEF64
:1035C0000097A9F0FC014281538164E070E07AD653
:1035D0008C01892B61F0F89469817A81C701880F89
:1035E000991F880F991F87539C4F58DF7894C80103
:1035F0000F900F90DF91CF911F910F91FF90EF905F
:1036000008950F931F93CF93DF9300D01F92CDB7F0
:10361000DEB71C821B821A8219828091C40307EFD5
:103620001FEF8823C1F0AE014D5F5F4F64E070E093
:10363000CE010196BAD68C01892B69F4E981FA8111
:103640008B819C8193838283F89469817A8185EC54
:1036500093E002DF7894C8010F900F900F900F90C5
:10366000DF91CF911F910F910895BFD704960895D0
:103670008F929F92AF92BF92CF92DF92EF92FF9282
:103680000F931F93CF93DF931F921F92CDB7DEB797
:103690001A821982BC016F5F7F4F6330710598F009
:1036A000AA24AA94BA2CC5010F900F90DF91CF9154
:1036B0001F910F91FF90EF90DF90CF90BF90AF9050
:1036C0009F908F9008954115510551F3480159017C
:1036D0008A016C01CADF8815990511F7E114F1041C
:1036E000F9F28E0D9F1DA816B906D0F28091C40381
:1036F0008823F1F0F894B501645071099701AE0187
:103700004F5F5F4FC8010496E5D65C01892B71F4C9
:1037100089819A81F80193838283C601880F991F5A
:10372000880F991FB80187539C4F96DE7894BBCFC2
:1037300087EFA82EBB24BA94B6CFAF92BF92CF9298
:10374000DF92EF92FF920F931F93CF93DF931F921D
:103750001F92CDB7DEB71A821982892B09F047C0B4
:103760006115710509F443C04115510509F43FC0C5
:103770002115310509F43BC001151105C1F18091F6
:10378000C4038823B9F179016A015B01F894BE0191
:103790006F5F7F4F85EC93E06EDE789489819A812C
:1037A000009759F1DC0112966D917C91A801049665
:1037B000AAD68C01E981FA81D501ED93FC9382812F
:1037C00093810496F601918380834FDFD7018D9317
:1037D0009C93C8010F900F90DF91CF911F910F9193
:1037E000FF90EF90DF90CF90BF90AF9008950FEFD4
:1037F0001FEFEFCF07EF1FEFECCF0EEF1FEFE9CF7B
:10380000CF93DF93EC01672B71F4F8D68C179D07EB
:1038100060F0EBD62496C80FD91FEAD68C0F9D1FF7
:10382000DF91CF910895E7D6F1CF90E080E0F8CF17
:103830000F931F93CF93DF932091C40321112BC0CB
:103840008B01EC0189EC93E001DE8DEC93E0FEDD71
:1038500085EC93E0FBDD97D00097C1F4CFD670E004
:1038600060E0CEDF4BE352E062E070E081D1009790
:1038700069F480913B0290913C02D2D6B801CE010E
:1038800007D5009719F421E02093C403DF91CF916D
:103890001F910F91089584EF9FEFF8CFACC6AEC68D
:1038A000CF93DF93AED6EC01892B11F40ADE36DE1E
:1038B000CE01DF91CF910895CF93DF93A2D6EC0193
:1038C000892B09F4FEDDCE01DF91CF91089580911F
:1038D0003B0290913C020895CF93DF938091C40303
:1038E000D0E0C0E08823D1F0A0D6EC01892BB1F460
:1038F000E8DD14DE80913B0290913C02E7D1E8D2F2
:10390000EC01892B59F489EC93E0D5DD8DEC93E043
:10391000D2DD85EC93E0CFDD1092C403CE01DF91C0
:10392000CF910895EF92FF920F931F93CF93DF9360
:10393000EC017A018B010F5F1F4F0E9DA0010F9DBF
:10394000500D1E9D500D112470E060E00E94C037A4
:1039500090E080E0F0E0E0E02FEFE816F90639F4BF
:10396000DF91CF911F910F91FF90EF9008951A82F0
:1039700019822883309711F0D283C1830196FE010A
:10398000C00FD11FEACFCF92DF92EF92FF920F9339
:103990001F93CF93DF9306E015E00C7F43E050E0E8
:1039A0006DE372E083E492E020D48DE3E82E82E0C0
:1039B000F82E93E4C92E92E0D92ECDE7D5E0D701B9
:1039C0004D915D917D01F601619171916F011983B6
:1039D00008835D834C835B834A837F836E839B0173
:1039E0002F5F3F4F249FC001259F900D349F900D66
:1039F0001124998788870115110511F0C80192DFFC
:103A000088859985080F191F2A96F3E4EF16F2E0CE
:103A1000FF06A9F6E3EDF3E080E391E0DF019C010E
:103A20001D9221503040E1F71092D2031092D10341
:103A300010929C0510929B051092A00510929F0574
:103A400010929E0510929D051092A2051092A1055C
:103A50001092A4051092A3051092A6051092A50538
:103A60001092AA051092A9051092A8051092A70518
:103A70001092AC051092AB051092AE051092AD05F8
:103A800010927A051092790510927C0510927B05B0
:103A900090E080E0DF91CF911F910F91FF90EF9028
:103AA000DF90CF9008950097F1F0F894A3E4B2E08E
:103AB000EDE7F5E030E020E04D915D9148175907C2
:103AC000A8F0428153814115510581F08AE0829F1F
:103AD000F001839FF00D1124E358FA4F808191810A
:103AE000009759F4789490E080E008952F5F3F4F5D
:103AF0003A962330310501F7F5CFDC0111966D912F
:103B00007C91718360834150510953834283FC014E
:103B10002193CF0178940895009749F1DC018E91AB
:103B2000853041F4E0917B05F0917C053097F9F008
:103B3000CD0119948530D8F4282F30E0F8948FEF18
:103B40008C938AE0829FF001839FF00D1124E3584B
:103B5000FA4F8081918112969C938E931197B18335
:103B6000A0838281938101969383828378940895C0
:103B7000CF92DF92EF92FF920F931F93CF93DF9339
:103B80009C0186ED93E08C7F4115510509F49BC0A3
:103B90002115310509F497C06115710509F493C029
:103BA0007A01AB01B9016D5F7F4F6C7F9B012F5F85
:103BB0003F4F249F8001259F100D349F100D11242D
:103BC000F89420919B0530919C05232B59F420916A
:103BD000A3053091A4052115310569F1201731079E
:103BE00008F058C02091A5053091A605232B91F42B
:103BF0002091A3053091A405820F931F2091AD055C
:103C00003091AE052115310509F441C02017310767
:103C100008F056C07894CFEFDFEF86EF9FEFF70103
:103C2000D183C083DF91CF911F910F91FF90EF90CF
:103C3000DF90CF900895C3E0D0E0C090D103D09042
:103C4000D2032DE231E02C193D092017310710F382
:103C50002AE02C9FF0012D9FF00D1124E358FA4F1C
:103C60009183808355834483538342837783668320
:103C700011870087009709F055DE0C0D1D1D10936C
:103C8000D2030093D103789490E080E0C8CFC4E0E1
:103C9000D0E0D3CFC3E0D0E02AE02C9FF0012D9FED
:103CA000F00D1124E358FA4F9183808355834483A8
:103CB0005383428377836683009729F333DEE3CF10
:103CC000C4E0D0E0E9CF8FEF9FEFACCF9C0103972A
:103CD000029708F069C0F89484E09AE0482F50E019
:103CE000241735070CF44DC091E08AE0829FF00163
:103CF000839FF00D1124E358FA4F11821082158230
:103D0000148213821282178216829923B1F1809154
:103D10009B0590919C05892BA9F42091A3053091D6
:103D2000A4052115310571F08091D1039091D20342
:103D3000821B930B9093D2038093D1031092A4051E
:103D40001092A3058091A5059091A605892BA9F451
:103D50002091AD053091AE052115310571F08091AE
:103D6000D1039091D203821B930B9093D203809343
:103D7000D1031092AE051092AD05789490E080E0EA
:103D80000895949FF001959FF00D1124E358FA4F88
:103D900040815181452B31F440855185452B11F4EB
:103DA00081509CCF90E0A1CF8FEF9FEF08954115F8
:103DB000510549F1009739F16115710521F1F89428
:103DC0002091790530917A05232BB9F420917B0558
:103DD00030917C05232B89F490937A0580937905A3
:103DE00070937C0560937B05789425E030E090E04B
:103DF00080E0FA0131832083089578942FEF3FEF1C
:103E000086EF9FEFF6CF8FEF9FEF0895059769F448
:103E1000F89410927A051092790510927C05109210
:103E20007B05789490E080E008958FEF9FEF0895F0
:103E30006115710519F4F0E0E0E011C085309105DD
:103E400081F4E0917905F0917A053097A1F3CB01E7
:103E500001961995009779F3FC0185E08193CF01D4
:103E600008959C01235031092230310520F72AE0C2
:103E7000289FD001299FB00D1124A358BA4F2D912E
:103E80003C911197232BB9F216962D913C911797DF
:103E90002617370780F2F89412962D913C911397CC
:103EA0002115310529F0ED91FC911197309711F40E
:103EB0007894C1CF4181528111965C934E932150E9
:103EC000310913963C932E93129781937894C7CF20
:103ED000E3E0F5E086E7DF011D928A95E9F7E3ED7F
:103EE000F3E080E391E0DF019C011D92215030401E
:103EF000E1F71092D2031092D103EDE7F5E082E3EF
:103F0000DF011D928A95E9F7E9E7F5E084E0DF013A
:103F10001D928A95E9F790E080E00895CF93DF93B2
:103F2000C0914902D0914A02CF3FDC0761F40E9460
:103F30009F2E90934A028093490297FF09C0D09325
:103F40004A02C093490284EF9FEFDF91CF91089519
:103F500090E080E0FACF8230910528F48093AF059D
:103F600090E080E008958FEF9FEF08954F925F9269
:103F70006F927F92AF92BF92CF92DF92EF92FF92B9
:103F80000F931F93CF93DF931F921F92CDB7DEB78E
:103F90001A821982009709F47AC06115710509F433
:103FA00076C02091490230914A0207EF1FEF2F3F60
:103FB0003F4F09F446C06B015C01412C512C32018A
:103FC000F12CE12C10E000E09E012F5F3F4FA60195
:103FD0004E195F09B5016E0D7F1D809149029091C8
:103FE0004A020E94FE2E892B09F04BC089819A81DA
:103FF000009741F4E114F10429F42091AF05222344
:1040000009F442C0E80EF91EEC14FD04D0F480E877
:10401000481684E858068EE16806710420F560E0D1
:1040200070E0CB010E9471322AE0420E511C611CEB
:10403000711C0A3F4FEF140721F0043F8FEF180760
:10404000A1F4C8010F900F90DF91CF911F910F91B4
:10405000FF90EF90DF90CF90BF90AF907F906F90E8
:104060005F904F90089501EF1FEF81E090E0013FD6
:104070002FEF120711F090E080E0892B09F4A4CF14
:10408000E0CF04EF1FEFDDCF0AEF1FEFDACF0FEF26
:104090001FEFD7CF4F925F926F927F92AF92BF92F6
:1040A000CF92DF92EF92FF920F931F93CF93DF9304
:1040B0001F921F92CDB7DEB71A821982009709F4BA
:1040C0007AC06115710509F476C0209149023091DA
:1040D0004A0207EF1FEF2F3F3F4F09F446C06B0125
:1040E0005C01412C512C3201F12CE12C10E000E05C
:1040F0009E012F5F3F4FA6014E195F09B5016E0D5E
:104100007F1D8091490290914A020E94B42E892B12
:1041100009F04BC089819A81009741F4E114F104C0
:1041200029F42091AF05222309F442C0E80EF91EBC
:10413000EC14FD04D0F480E4481682E458068FE0C5
:104140006806710420F560E070E0CB010E947132D6
:104150002AE0420E511C611C711C0E3F4FEF1407E8
:1041600021F0043F8FEF1807A1F4C8010F900F90C2
:10417000DF91CF911F910F91FF90EF90DF90CF9043
:10418000BF90AF907F906F905F904F90089502EF37
:104190001FEF81E090E0023F2FEF120711F090E057
:1041A00080E0892B09F4A4CFE0CF04EF1FEFDDCF2F
:1041B0000EEF1FEFDACF0FEF1FEFD7CF809149023D
:1041C00090914A028F3F980751F00E94972E892BB9
:1041D00049F48FEF9FEF90934A028093490290E059
:1041E00080E0089584EF9FEF0895CF92DF92EF92E1
:1041F000FF920F931F93CF93DF9321E04115510559
:1042000009F020E04150510921112CC0DC01FB01D3
:10421000D12CC12C21E022C03FEFC31AD30A7D016B
:104220000D911D91E701EA80FB80E016F106A8F4EC
:1042300020813181E280F380F182E0823383228326
:10424000ED90FC9011979D0122503109E901F9820E
:10425000E88211961C930E9320E03296C416D50680
:10426000D8F2D2CFDF91CF911F910F91FF90EF90B5
:10427000DF90CF900895FC01680F791F90E080E0F7
:10428000E617F70709F408952191820F911DF8CFE1
:104290002091B005211113C041DE009791F41092D6
:1042A000B6051092B5051092B4051092B3051092A0
:1042B000B2051092B10521E02093B005089584EF76
:1042C0009FEF0895AF92BF92CF92DF92EF92FF924D
:1042D0000F931F93CF93DF93009709F460C046308C
:1042E000510508F45CC02091B005C7EFDFEF222331
:1042F00009F449C08C01060F171FF801C080D18056
:10430000C114D10409F44EC096012A5F3F4F4217F1
:10431000530708F447C07C018091B5059091B6051C
:1043200093838283B6016C5F7F4F5801A60EB71E40
:10433000C801A1DFF5019183808364E070E0C801CA
:1043400015DEEC01892BF9F481E090E004DEB60182
:10435000C80104960BDEEC01892B91F462E070E059
:10436000C50104DEEC01892B59F4C701D5DB80912E
:10437000B5059091B60501969093B6058093B50565
:1043800090E080E0E8DDCE01DF91CF911F910F91A9
:10439000FF90EF90DF90CF90BF90AF900895CFEF58
:1043A000DFEFF1CFC9EFDFEFEECF6F927F928F9209
:1043B0009F92AF92BF92CF92DF92EF92FF920F93B4
:1043C0001F93CF93DF9300D01F92CDB7DEB7009736
:1043D00009F47AC04115510509F476C02091B00561
:1043E00007EF1FEF222309F44DC03A017B015C0166
:1043F00064E070E0CE0101964DDE8C01892B09F05E
:1044000041C009811A810115110509F45AC04801FA
:1044100086E0880E911CB701680D791D80914B02D2
:1044200090914C0205DD6C01009709F450C0A70182
:1044300070E060E00E94C03789819A81AB81BC81C5
:10444000EC0CFD1CF70181939193A193B1937F0133
:1044500081E090E080DDB801C7011CDE892B31F5D9
:1044600062E070E0C701800F911F14DE8C01892B80
:10447000E9F490E080E06FDDF501D182C082F301C4
:1044800091828082C8010F900F900F900F90DF9162
:10449000CF911F910F91FF90EF90DF90CF90BF9041
:1044A000AF909F908F907F906F90089590E080E004
:1044B00052DDF50111821082F30111821082C601D2
:1044C0002BDB09EF1FEFDECF0FEF1FEFDBCF06EF88
:1044D0001FEFD8CF0097A1F04115510589F02115A4
:1044E000310571F0F90136966E177F0748F0DC014F
:1044F0002D933C93DA01ED93FC9390E080E00895D6
:104500008FEF9FEF0895AF92BF92CF92DF92EF921D
:10451000FF920F931F93CF93DF93009709F45FC02F
:104520004115510509F45BC06530710508F457C0A9
:104530002091B005C7EFDFEF222391F1DC01CD9090
:10454000DC9011971296ED91FC9196012A5F3F4FF6
:10455000C9EFDFEF2617370719F5C091B105D091E4
:10456000B205209749F521E030E03093B205209361
:10457000B1057A018C01F093B405E093B3055601BF
:10458000B4E0AB0EB11CB50176DE0A0D1B1DF801BF
:10459000208131818217930729F5D701CD92DC92D2
:1045A000CE01DF91CF911F910F91FF90EF90DF909F
:1045B000CF90BF90AF9008952091B3053091B4058E
:1045C0002F5F3F4FCCEFDFEFE217F30790F2CBEF17
:1045D000DFEF2E173F0768F2D0E0C0E0CACFCFEF81
:1045E000DFEFDECFC3EFDFEFDBCF84E090E00895B5
:1045F00082E090E008958CEF9FEF089580E290E0D4
:1046000008951092B6051092B5051092B405109257
:10461000B3051092B2051092B10590E080E00895C4
:1046200090934C0280934B0208958091B0058823AB
:1046300091F0C4DD009789F41092B6051092B5058B
:104640001092B4051092B3051092B2051092B10504
:104650001092B005089590E080E00895009749F029
:104660006115710531F0FC0111821082FB0111828C
:1046700010820895F3CF90E080E00895809179064C
:1046800090917A06891B990B089590917A068091F2
:1046900079062FEF3FEF981748F4E92FF0E0E5583F
:1046A000F94F208130E09F5F90937A06C901089509
:1046B000E0917A0680917906E81730F4F0E0E55849
:1046C000F94F808190E008958FEF9FEF089508954E
:1046D00091E09093550680937806109257061092B9
:1046E000560608951092480681E08093460610927F
:1046F000450661E084E10E94AB3361E085E10E9400
:10470000AB33E9EBF0E080818E7F808380818D7F09
:10471000808388E48093B80085E48093BC0008958A
:1047200010927A0610927906109257061092560649
:10473000D9CF413208F041C0909148069111FCCF89
:1047400091E090934806209346062FEF2093DB05D7
:1047500010922006240F20931F06909347069091F5
:104760004706880F892B8093470680914506813044
:1047700011F510924506809147068093BB00809109
:10478000BC0083FDF8CF85EC8093BC008091480687
:104790008130E1F380912006841710F440912006C7
:1047A000A1E2B6E0962FFB018E2F891B841730F40F
:1047B0008D918193F9CF85EEE7CF40E0842F089566
:1047C0000F93413208F04BC0909148069111FCCFF5
:1047D00092E090934806009346069FEF9093DB0586
:1047E0001092200640931F06362FA1E2B6E0FB018F
:1047F0009E2F931B941718F491919D93F9CF1092CB
:10480000470690914706880F892B80934706809131
:104810004506813011F51092450680914706809338
:10482000BB008091BC0083FDF8CF85EC8093BC0079
:10483000222321F0809148068230D1F38091DB055C
:104840008F3F79F08091DB05803269F08091DB0544
:10485000803359F084E00F91089585EEE7CF81E031
:10486000FACF80E0F8CF82E0F6CF83E0F4CF0F9369
:10487000062F21E04091560668E576E080917806A3
:104880009FDF1092570610925606109255060F9110
:1048900008954F925F926F927F92AF92BF92CF92A4
:1048A000EF92FF920F931F93CF93DF935C01F62E4D
:1048B000D42F28013901EE2011F1862F09DFCE2DEA
:1048C000C43008F0C3E0C150B8F028E0C29FC00176
:1048D0001124A301920104C0569547953795279559
:1048E0008A95D2F7B901D501ED91FC910190F08143
:1048F000E02DC5011995E7CF60E0C501B8DF4D2F68
:10490000D13208F040E22C2D6BE776E08F2D11DFDD
:1049100010927A0680937906DF91CF911F910F91C3
:10492000FF90EF90CF90BF90AF907F906F905F908F
:104930004F900895CF92EF920F931F93C22EE12CC8
:1049400000E010E09801A5DF1F910F91EF90CF904C
:10495000089521E0EFCF61E08ACF2091FD05260F79
:104960003327331F21323105E4F4209148062430E7
:10497000D1F4FC0190E080E0861760F4A091FD0581
:104980002191AC0141505A4FA40FB52FB11D2C936A
:104990000196F2CF8091FD05680F6093FD0580E0E0
:1049A000089581E0089582E00895CF93DF931F92E8
:1049B000CDB7DEB76983209155062223F9F0209107
:1049C0005606203258F021E030E0FC013383228388
:1049D00090E080E00F90DF91CF910895809157068D
:1049E000E82FF0E0E85AF94F998190838F5F809328
:1049F00057068093560681E090E0ECCF61E0CE014F
:104A00000196ABDFF8CFCF92DF92EF92FF920F9338
:104A10001F93CF93DF937C01CB018A012091550630
:104A2000222389F0EB016B01C40ED51ECC15DD05E8
:104A300061F06991D701ED91FC910190F081E02D39
:104A4000C7011995F3CF642F88DFC801DF91CF919B
:104A50001F910F91FF90EF90DF90CF90089585ED1B
:104A60008093BC008091BC0084FDFCCF109248066E
:104A7000089585EC8093BC001092480608951F921B
:104A80000F920FB60F9211240BB60F922F933F93F4
:104A90004F935F936F937F938F939F93AF93BF9346
:104AA000EF93FF938091B900887F803609F44CC062
:104AB00008F03FC0883209F4A8C028F5803109F415
:104AC0009CC0C8F4882309F4F8C0883009F495C064
:104AD000FF91EF91BF91AF919F918F917F916F91D6
:104AE0005F914F913F912F910F900BBE0F900FBE92
:104AF0000F901F901895883109F487C0803241F7D4
:104B00008093DB0514C0803409F49CC040F48033EA
:104B1000B9F38833E9F68093DB05ABDFD9CF803575
:104B200009F484C0883509F495C0883489F697DF84
:104B3000CFCF883909F48CC038F5883729F050F484
:104B4000883611F0803721F683E080934806109272
:104B5000DC0557C0883809F47BC0803919F08038EB
:104B600009F0B6CF8091DC05803208F071C0E09189
:104B7000DC0581E08E0F8093DC058091BB00F0E0C6
:104B8000E352FA4F80833DC0803B39F0E0F4803A35
:104B900009F479C0883A09F09BCF84E080934806F5
:104BA0001092FE051092FD05E0914306F091440637
:104BB00019958091FD0581110FC081E08093FD055D
:104BC0001092FF0509C0803C09F475C0883C09F4C7
:104BD00072C0883B09F07CCFE091FE0581E08E0F2A
:104BE0008093FE05F0E0E150FA4F80818093BB0096
:104BF0009091FE058091FD0529C080914706809324
:104C0000BB0085EC8093BC0063CF9091200680911F
:104C10001F06981758F5E091200681E08E0F8093CB
:104C20002006F0E0EF5DF94F8081E9CFE0912006AA
:104C300081E08E0F809320068091BB00F0E0EF5D55
:104C4000F94F80839091200680911F069817C8F233
:104C500085E8D8CFE091200681E08E0F8093200672
:104C60008091BB00F0E0EF5DF94F808380914606B4
:104C700081115DCF81E08093450684EA8093BC007A
:104C80001092480625CFF5DE8091DC05803230F4A5
:104C9000E091DC05F0E0E352FA4F10826091DC0510
:104CA00070E0E0914106F09142068DED95E0199596
:104CB0001092DC050DCF85ECE1CF1092DB0537CFEC
:104CC0000F931F93CF93DF93EC01062F142F89814D
:104CD000FFDC602F89E496E068DE612F89E496E0CE
:104CE00064DE89E496E037DE8883DF91CF911F91FF
:104CF0000F9108951F93CF93DF93EC01162F462F4A
:104D00004F776AE8DDDF1983DF91CF911F91089516
:104D1000FF920F931F93CF93DF93EC01F62E142F86
:104D2000052F8981D5DC6F2D89E496E03EDE602F6A
:104D300089E496E03ADE612F89E496E036DE89E484
:104D400096E009DE8883DF91CF911F910F91FF904C
:104D50000895CF92DF92EF92FF921F93CF93DF934C
:104D6000EC01162F69017A018981B2DC612F89E497
:104D700096E01BDE6F2D77278827992789E496E038
:104D800014DEB7018827992789E496E00EDE99277B
:104D90008F2D7E2D6D2D89E496E007DE6C2D89E444
:104DA00096E003DE89E496E0D6DD8883DF91CF913B
:104DB0001F91FF90EF90DF90CF9008951F93CF93B6
:104DC000DF93EC01162F898183DC612F89E496E063
:104DD000ECDD89E496E0BFDD888341E0698189E408
:104DE00096E0B7DD89E496E050DCDF91CF911F912A
:104DF00008951F93CF93DF93EC01162F898168DC10
:104E0000612F89E496E0D1DD89E496E0A4DD888312
:104E100042E0698189E496E09CDD89E496E035DC36
:104E2000D82F80E0C82F89E496E02FDC8C2B9D2BB7
:104E3000DF91CF911F910895DF92EF92FF920F9330
:104E40001F93CF93DF937C01C62FD42E052F122FF3
:104E5000FC0181813DDC6C2F89E496E0A6DDCD2D3F
:104E6000D02F115028F0699189E496E09EDDF9CFAA
:104E700089E496E070DDF7018083DF91CF911F9187
:104E80000F91FF90EF90DF900895EF92FF920F93B4
:104E90001F93CF93DF93EC01E62EF42E052F122FF4
:104EA000898116DC6E2D89E496E07FDD89E496E049
:104EB00052DD8883412F698189E496E04ADDCF2D58
:104EC000D02F115028F089E496E0DFDB8993F9CFE9
:104ED000DF91CF911F910F91FF90EF900895611591
:104EE000710529F460E56ADF8F5F880F08956130EE
:104EF000710511F460E7F7CF8FEF0895CF92DF923D
:104F0000EF92FF92CF93DF93EC016A017B0141E0C6
:104F100060E8D6DE41E06FEFCE01D2DE40E060E037
:104F2000CE01CEDE4F8161E9CE01CADE41E060E014
:104F3000CE01C6DE40E06FEFCE01C2DE40E060E8A9
:104F4000CE01BEDE42E0C114D104E104F10491F0CF
:104F500068EFCE014EDF009739F0DC01A701960122
:104F60000E949E376B017C01A701960164E0CE018F
:104F7000F0DE44E060E0CE01DF91CF91FF90EF9052
:104F8000DF90CF909DCE0F931F93CF93DF93EC01D3
:104F90000E9440327E836D8363E1CE010FDF877014
:104FA000C9F48A819B81892BB9F30E9440322D81FB
:104FB0003E81621B730B8A819B818617970760F77E
:104FC00081E08C830FEF1FEFC801DF91CF911F911C
:104FD0000F9108956EE1CE010CDF8C0141E06BE092
:104FE000CE016EDEF1CFEF92FF920F931F93CF931E
:104FF000DF93EC017B018A0141E060E861DE41E082
:105000006FEFCE015DDE40E060E0CE0159DE46E0AC
:105010006FEFCE0155DE63E8CE01D0DE482F44604D
:1050200063E8CE014DDE47E06FEFCE0149DE41E09F
:1050300061E8CE0145DE41E060E8CE0141DE4BE6AD
:1050400064E9CE013DDE40E063E8CE0139DE0E9436
:1050500040327E836D8363E8CE01B0DE811111C0E2
:105060008A819B81892BB9F30E9440322D813E8138
:10507000621B730B8A819B818617970760F780E01C
:1050800031C041E063E8CE011BDE62E9CE0196DE6D
:10509000982F9F77F7019083881F8827881FF80132
:1050A000808340E061E8CE010BDE46E06FEFCE0189
:1050B00007DE63E8CE0182DE482F4B7F63E8CE0136
:1050C000FFDD41E06FEFCE01FBDD41E060E0CE01AE
:1050D000F7DD40E06FEFCE01F3DD40E060E8CE01A8
:1050E000EFDD81E0DF91CF911F910F91FF90EF9065
:1050F0000895CF93DF93EB0161E060DE84FB992795
:1051000090F9988383FB992790F99A8382FB9927DA
:1051100090F9998386FB992790F99B83881F8827AC
:10512000881F8C83DF91CF9108959C013327A901BB
:1051300002C0440F551F9A95E2F7CA0101960895DF
:105140000F931F930097B9F00197B0E0A0E050E0F3
:1051500040E08C019D010027012B022B032B39F02D
:10516000B695A795979587954F5F5F4FF2CF342FF0
:105170002227822B932B1F910F9108954F925F92BC
:105180006F927F928F929F92AF92BF92CF92DF9257
:10519000EF92FF925C01A62FB0E020E03FE24AE3ED
:1051A00050E00E949E376B017C0124EFC20E21E08B
:1051B000D21EE11CF11C88EE482E83E0582E612C93
:1051C000712CC701B601A30192010E947437D50169
:1051D0000E949E374B015C01C701B60120ED37E00C
:1051E00040E050E00E947437C501B401620F731FA4
:1051F000841F951FA30192010E947437CA01B9014F
:10520000FF90EF90DF90CF90BF90AF909F908F90E6
:105210007F906F905F904F900895EF92FF920F9361
:105220001F93CF93DF938C017B01EA0170E060E074
:1052300056DE90E09983888366E4C801BFDD90E084
:1052400001969D838C83688199DF6A877B878C8731
:105250009D8761E5C801CDDD68DF9F838E8368810E
:105260008DDF6E877F87888B998B60E7C801A6DD0D
:105270008F5F880F90E09B838A8361E7C801B9DD67
:1052800054DF99878887F7012381222331F02E810B
:105290003F81821B930B998788876A8188859985CE
:1052A0006DDF6A8B7B8B8C8B9D8BDF91CF911F91F8
:1052B0000F91FF90EF900895CF92DF92EF92FF92BF
:1052C0000F931F93CF93DF93CDB7DEB76B970FB6D6
:1052D000F894DEBF0FBECDBF8C01BE01695E7F4F6B
:1052E00008DFAE014F5F5F4FBE01695E7F4FC801AF
:1052F00094DF8F89882309F454C06B857C858D8564
:105300009E856C57724F8F4F9F4F298D222309F432
:105310004DC0CB84DC84ED84FE8422EBC20E22E0FF
:10532000D21EE11CF11CCC0CDD1CEE1CFF1C6C0D14
:105330007D1D8E1D9F1D2A8D222371F0CF84D8885C
:10534000E988FA88F4E9CF0EF2E0DF1EE11CF11CD7
:105350006C0D7D1D8E1D9F1D2B8D222371F0CB8822
:10536000DC88ED88FE8826E2C20E22E0D21EE11C17
:10537000F11C6C0D7D1D8E1D9F1DF80160877187CE
:10538000828793876B960FB6F894DEBF0FBECDBFB2
:10539000DF91CF911F910F91FF90EF90DF90CF9011
:1053A000089566E37BE080E090E0AFCF288D222374
:1053B00011F2CB84DC84ED84FE84E4E9CE0EE2E0DD
:1053C000DE1EE11CF11CB3CF8F929F92AF92BF9271
:1053D000CF92DF92EF92FF924B015C01A42FB0E0DD
:1053E00020E03FE24AE350E00E949E376B017C01DF
:1053F00024EFC20E21E0D21EE11CF11CA8EEB3E0A6
:10540000A50194010E949E374B015C01C701B601C2
:1054100020ED37E040E050E00E947437820E931E8A
:10542000A41EB51EC701B60128EE33E040E050E0EF
:105430000E947437C501B4010E947437CA01B901D2
:10544000FF90EF90DF90CF90BF90AF909F908F90A4
:1054500008958F929F92AF92BF92CF92DF92EF9278
:10546000FF920F931F93CF93DF93CDB7DEB76B9768
:105470000FB6F894DEBF0FBECDBF40322EE4520708
:105480006105710508F48DC04A015B017C01BE0114
:10549000695E7F4F2EDEAE014F5F5F4FBE01695EDA
:1054A0007F4FC701BADE8F8908EE18E020E030E0B8
:1054B000882341F00B851C852D853E850A5C144FA1
:1054C0002F4F3F4F898D882309F45BC08B859C85C6
:1054D000AD85BE858E549D4FAF4FBF4F880F991F2E
:1054E000AA1FBB1F080F191F2A1F3B1FCA8CCC20E5
:1054F00061F08F859889A989BA898C569D4FAF4FE5
:10550000BF4F080F191F2A1F3B1FDB8CDD2009F43A
:1055100045C00A5D1D4F2F4F3F4F80169106A206D2
:10552000B30608F43EC0C501B401601B710B820BC9
:10553000930B4B8149DF9B01CC2021F02F813885D3
:10554000260F371FC901FCDDAC0161E7C701E0DBB5
:10555000F70180869186A286B3868D2D6B960FB655
:10556000F894DEBF0FBECDBFDF91CF911F910F9199
:10557000FF90EF90DF90CF90BF90AF909F908F9073
:105580000895888D882309F4B1CF8B859C85AD85DE
:10559000BE858C569D4FAF4FBF4FA4CFDD24D39413
:1055A000DCCFD12CDACFCF93DF93EC01462F4160D3
:1055B00060E086DB65D77E836D8363E1CE01FEDB31
:1055C000877081F48A819B81892BB9F359D72D810A
:1055D0003E81621B730B8A819B818617970768F750
:1055E00080E009C041E06BE0CE016ADB40E060E0B2
:1055F000CE0166DB81E0DF91CF910895EF92FF92BB
:105600000F931F93CF93DF9300D000D01F921F9270
:10561000CDB7DEB78C01662339F069E8CFDB482FC0
:10562000416069E8C8014CDB40E068E8C80148DB3C
:1056300041E060E8C80144DB41E06FEFC80140DBB6
:1056400040E060E0C8013CDB61E9C801B7DBF8017C
:10565000878341E060E0C80133DB40E06FEFC801C1
:105660002FDB40E060E8C8012BDB60E6C801A6DB69
:10567000482F426160E6C80123DB40E250E064E469
:10568000C80146DB4FEF61E0C8011ADBAE01495F9C
:105690005F4FBE01685F7F4FC801A5DC81110FC05D
:1056A000F12C8F2D28960FB6F894DEBF0FBECDBF1C
:1056B000DF91CF911F910F91FF90EF90089526E019
:1056C000AE014F5F5F4F60EBC801DFDB41E06FEF82
:1056D000C801F6DA40E06FE4C801F2DA4CE26EE4A9
:1056E000C801EEDA40E06FEFC801EADA44EB66EB9E
:1056F000C801E6DA8F81ACE0811101C0A0E0B88575
:1057000080E090E0EE24E394F12C482F46954695F6
:10571000469550E021E030E02C0F3D1F240F351F4F
:10572000F9012081682F67708A1710F0B91397C1AB
:10573000E1E0F0E0EC0FFD1F4E0F5F1FF70102C02C
:10574000EE0FFF1F6A95E2F7BF0160952623FA016D
:1057500020838F5F8033C9F626E0AE014F5F5F4F35
:1057600060EBC80169DB41E06FEFC801A9DA40E0F6
:1057700060E0C801A5DA40E06FEFC801A1DA40E0BF
:1057800069E0C8019DDA40E060E1C80199DA40E0D3
:1057900061E1C80195DA41E064E2C80191DA4FEFB6
:1057A00065E2C8018DDA40E065E7C80189DA41E0C9
:1057B0006FEFC80185DA4CE26EE4C80181DA40E09F
:1057C00068E4C8017DDA40E260E3C80179DA40E0CC
:1057D0006FEFC80175DA49E060E3C80171DA40E0B3
:1057E00064E5C8016DDA44E061E3C80169DA43E0C9
:1057F00062E3C80165DA43E860E4C80161DA45E2C2
:1058000066E4C8015DDA40E060E6C80159DA40E0CC
:1058100067E2C80155DA46E060E5C80151DA40E0C8
:1058200061E5C8014DDA46E962E5C80149DA48E0B8
:1058300066E5C80145DA40E367E5C80141DA40E0C2
:1058400061E6C8013DDA40E062E6C80139DA40E0CD
:1058500064E6C80135DA40E065E6C80131DA40EABD
:1058600066E6C8012DDA41E06FEFC80129DA42E3AC
:1058700062E2C80125DA44E167E4C80121DA4FEFAA
:1058800069E4C8011DDA40E06AE4C80119DA40E0C1
:105890006FEFC80115DA4AE06AE7C80111DA40E0A3
:1058A0006BE7C8010DDA41E268E7C80109DA41E0B7
:1058B0006FEFC80105DA44E363E2C80101DA40E0B2
:1058C00062E4C801FDD94FEF64E4C801F9D946E2AA
:1058D00065E4C801F5D945E066E4C801F1D940E4C2
:1058E00060E4C801EDD946E06EE0C801E9D94AE1BB
:1058F00060E2C801E5D940E463E4C801E1D940E0D1
:105900006FEFC801DDD943E064E3C801D9D944E4AD
:1059100065E3C801D5D941E06FEFC801D1D944E0B2
:1059200061E3C801CDD949E06BE4C801C9D945E0BC
:105930006CE4C801C5D944E06DE4C801C1D940E0B8
:105940006FEFC801BDD940E064E4C801B9D940E2B5
:1059500065E4C801B5D948E067E4C801B1D948E2B7
:1059600068E4C801ADD940E067E6C801A9D944E0C0
:1059700060E7C801A5D941E061E7C801A1D94EEFB0
:1059800062E7C8019DD940E066E7C80199D940E0C7
:1059900067E7C80195D941E06FEFC80191D941E0AF
:1059A0006DE0C8018DD940E06FEFC80189D941E0B1
:1059B00060E8C80185D948EF61E0C80181D941E0BC
:1059C0006FEFC8017DD941E06EE8C80179D941E0A7
:1059D00060E0C80175D940E06FEFC80171D940E0BF
:1059E00060E8C8016DD944E06AE0C80169D964E89B
:1059F000C801E4D9482F4F7E64E8C80161D941E06D
:105A00006BE0C8015DD9C80157DCF8016087718778
:105A10008287938748EE61E0C80152D9F80140853A
:105A2000518562857385C80114DD41E061E0C801DC
:105A300047D960E4C801B7DD882309F431CE42E0DC
:105A400061E0C8013DD960E0C801ADDDF82E8823D2
:105A500009F426CE48EE61E0C80132D922CE30E00A
:105A600002C0359527956A95E2F720FF72CE9F5FB9
:105A700070CEEF92FF920F931F93CF93DF937C0131
:105A80008B01EA01F90120E030E040E85FE360814A
:105A90007181828193810ED381111DC08FEC95E0BD
:105AA00072DAB0E0A0E0F70180839183A283B38330
:105AB00083EC95E068DAB0E0A0E0F80180839183A0
:105AC000A283B38387EB95E05EDAB0E0A0E0888341
:105AD0009983AA83BB83DF91CF911F910F91FF9090
