:10000000F8C0000027C1000025C1000023C1000086
:1000100021C100001FC100001DC100001BC1000064
:1000200019C1000017C1000015C1000013C1000074
:1000300011C100000FC100000DC100000BC1000084
:1000400009C1000007C1000005C1000003C1000094
:1000500001C10000FFC00000FDC000000C94052697
:10006000F9C000000C9405290C943B29F3C0000052
:10007000F1C00000EFC00000EDC00000EBC00000C8
:10008000E9C00000E7C00000E5C00000E3C00000D8
:100090000C9491290C94C729DDC00000DBC000003E
:1000A000D9C00000D7C00000D5C00000D3C00000F8
:1000B000D1C00000CFC00000CDC00000CBC0000008
:1000C000C9C00000C7C000000C94B4220C941D2AC3
:1000D0000C94532ABFC000000C94A92A0C94DF2A68
:1000E000B9C0000000000A0B02090C0D0E0807033E
:1000F00004010000000000000000000000000000FB
:1001000000000000000000000000000000000000EF
:1001100012111000000000000000000000000000AC
:100120000000000000000000000001021020200874
:100130000810204010204080020102010804020142
:1001400001020408102040808040201008040201B1
:10015000800402018040201008040201080402010A
:100160000102040810204080010204081020408091
:1001700005050505070508080808020202020A0A23
:100180000808040404040101010101010101030341
:10019000030303030303040707070C0C0C0C0C0CEC
:1001A0000C0C0202020206060606060606060B0BE9
:1001B0000B0B0B0B0B0B00002200250028002B0063
:1001C0002E003100340002010000050108010B017E
:1001D00000002100240027002A002D0030003300F9
:1001E00001010000040107010A016429F0297C2AA9
:1001F000082B11241FBECFEFD1E2DEBFCDBF00E040
:100200000CBF12E0A0E0B2E0E8E9F7E500E00BBFC8
:1002100002C007900D92AE3CB107D9F728E0AEECD2
:10022000B2E001C01D92A530B207E1F710E0C9EFBE
:10023000D0E000E006C021970109802FFE010E9456
:10024000992BC53FD10780E00807A9F70E94CF236B
:100250000C94CA2BD5CE611102C00C947227613068
:10026000E1F362E0FACF662319F061E00C94AE2767
:1002700060E0FCCF90E080E008950F931F9300971B
:1002800009F487C06115710509F483C0009111025A
:100290001091120220911302309114020E3F1F4F51
:1002A0002F4F3F4F09F066C04FEF5FEFBA01409309
:1002B0001102509312026093130270931402409142
:1002C0001102509112026091130270911402DC012C
:1002D0001296ED91FC9180819181A281B3818093EE
:1002E0003E0390933F03A0934003B0934103848166
:1002F0009581A681B78180933A0390933B03A093A5
:100300003C03B0933D0380859185A285B38580939E
:10031000360390933703A0933803B0933903848551
:100320009585A685B7858093320390933303A09378
:100330003403B093350310922E0310922F031092C2
:10034000300310923103F9D482EC96E09093CF02FF
:100350008093CE029093D1028093D002DDD3009798
:1003600031F421E030E030934303209342031F91A6
:100370000F91089500911102109112022091130221
:1003800030911402DB010D931D932D933C93139731
:1003900096CF8FEF9FEFEBCF8F929F92AF92BF924E
:1003A000CF92DF92EF92FF921F93CF93DF934B0197
:1003B0005C011091450382E090E0909343038093A9
:1003C000420381149104A104B10441F480914503D6
:1003D000811104C080914403C1E08111C0E0C12CAF
:1003E000D12C760180914503811106C08091440390
:1003F000811102C0CC23D9F083E090E090934303B5
:1004000080934203CC2379F1CCE9DFEF111102C0D4
:100410000E94260ACE01DF91CF911F91FF90EF90AD
:10042000DF90CF90BF90AF909F908F9008956AE03B
:1004300070E080E090E00E94742680E1C80E87E2C0
:10044000D81EE11CF11C8FEF88169806A806B80686
:1004500031F0C1E08C149D04AE04BF0408F0C0E08C
:1004600080E08ED3BFCFD0E0C0E0D0CFCF92DF927C
:10047000EF92FF920F931F93CF93DF938F3F9105DE
:1004800011F008F050C02091420330914303233013
:10049000310539F020914203309143032130310579
:1004A00031F424E030E030934303209342036A01A7
:1004B0007B01EC0182309105A0F011E0AE01C70193
:1004C000B60129D3AB01BC01CE011123F9F0DF91B4
:1004D000CF911F910F91FF90EF90DF90CF900C94F0
:1004E0004F0C8C01000F111F02531D4FD8018D912D
:1004F0009C91892B11F30E94590C0297F1F6D801B7
:10050000ED91FC91CE011995182FD8CF0E94710C56
:1005100090E080E0DF91CF911F910F91FF90EF90DD
:10052000DF90CF9008958FEF9FEFF4CF80E028C346
:10053000CF93DF9386E090E0909343038093420350
:1005400078D3EC01EEECF2E084E0DF011D928A95B5
:10055000E9F714D71092430310924203CE01DF91C2
:10056000CF91089580914403089580912D030895BB
:1005700060931102709312028093130290931402FD
:1005800090E080E008952F923F924F925F926F9299
:100590007F928F929F92AF92BF92CF92DF92EF9213
:1005A000FF920F931F93CF93DF932090100220921E
:1005B000FF07C22DC6958C2F8170382ED0E08E019A
:1005C00016950795C090F807D090F907E090FA07C4
:1005D000F090FB07C701B6010E94EE242B013C01FD
:1005E000209108023091090240910A0250910B02B9
:1005F0000E94BC2487FFC4C0F7FCC2C080900002E8
:1006000090900102A0900202B090030220E030E03E
:1006100040E85FE360910402709105028091060258
:10062000909107020E9457249B01AC01C301B201C3
:100630000E949E2587FDA8C01092F8071092F90726
:100640001092FA071092FB07FF24F39420FE09C0D2
:1006500020E030E0A901C501B4010E94BC24811151
:10066000F12CDF2DC2FB662760F9C2FD6F2D609370
:10067000000880E3F8DD00FFF12CF09201086F2DF7
:1006800082E3F1DD332019F061E0D11101C060E0B7
:100690006093020884E3E7DDC0900003D09001037B
:1006A000E0900203F09003038FEFC81AD80AE80A1B
:1006B000F80AC0920003D0920103E0920203F09284
:1006C0000303C114D104E104F10499F480910403FB
:1006D00090910503A0910603B09107030196A11D17
:1006E000B11D8093040390930503A0930603B09378
:1006F00007038090080390900903A0900A03B0902C
:100700000B0360910403709105038091060390919F
:1007100007030E94EC24A50194010E94A22520E079
:1007200030E040E85FE40E94A2252B013C01C701B4
:10073000B6010E94EC24A50194010E94A2259B0110
:10074000AC01C301B2010E9458246093FC02709373
:10075000FD028093FE029093FF02DF91CF911F91E3
:100760000F91FF90EF90DF90CF90BF90AF909F9050
:100770008F907F906F905F904F903F902F90089553
:10078000812C912C540142CF8FEFC81AD80AE80A65
:10079000F80AC092F807D092F907E092FA07F092AF
:1007A000FB0752CFCF92DF92EF92FF921F93CF932E
:1007B000DF93E6EEF2E08BE2DF011D928A95E9F726
:1007C00080E090E0A0E8BFEB86A397A3A0A7B1A725
:1007D0008AE097EDA3E2BCE382A393A3A4A3B5A30D
:1007E00080E493E4A4E3BFE384839583A683B78383
:1007F00084E392E5AAEAB3E780879187A287B3876B
:1008000082E896E2A2E5B3E684879587A687B78754
:1008100088E490E1A8EBB5E7808B918BA28BB38B3A
:10082000AAEDB2E0B383A283E2EDF2E01196FC936D
:10083000EE938AE392E0918380839383828395830E
:100840008483978386838AEF92E015969C938E9398
:1008500014978AEE92E013969C938E9312978CEFE6
:1008600092E017969C938E931697EFEFF7E084E053
:10087000DF011D928A95E9F7C0EED7E08FE1DE0136
:100880001D928A95E9F780911002808311E01E8FF6
:10089000C12CD12C7601C394C98ADA8AEB8AFC8AEE
:1008A00061E080E3D8DC1D8B18861D8FC986DA864F
:1008B000EB86FC8661E082E3CEDC1D8718821C8F0C
:1008C000C982DA82EB82FC8261E084E3C4DC1D83AE
:1008D000188E198E1A8E1B8EDF91CF911F91FF906B
:1008E000EF90DF90CF9008958091F007811103C0C1
:1008F00081E08093F0078091E807811103C081E0D7
:100900008093E8078091E007811103C081E0809324
:10091000E00708954F925F926F927F928F929F921D
:10092000AF92BF92CF92DF92EF92FF920F931F93FD
:10093000F89440901D0350901E0360901F03709028
:100940002003C0901103D0901203E0901303F090A5
:100950001403452B09F0A4C09B01AC0124193509EF
:100960004609570929013A010091190310911A0308
:1009700020911B0330911C0348015901840C951CE4
:10098000A61CB71C80169106A206B306A0F400911F
:1009900015031091160320911703309118030F5F70
:1009A0001F4F2F4F3F4F00931503109316032093B3
:1009B0001703309318038092190390921A03A092A0
:1009C0001B03B0921C030091150310911603209194
:1009D0001703309118038092210390922203A09272
:1009E0002303B0922403009325031093260320933E
:1009F00027033093280360931D0370931E03809395
:100A00001F0390932003A0E1B7E2A30192010E948B
:100A1000A12B6C0D7D1D8E1D9F1D60931103709386
:100A20001203809313039093140300911102109109
:100A3000120220911302309114020F3F1F4F2F4FCB
:100A40003F4FF1F000911102109112022091130218
:100A5000309114020E3F1F4F2F4F3F4F89F0C0902F
:100A60001102D0901202E0901302F090140221E0E3
:100A70008C149D04AE04BF0408F420E020932D03E1
:100A800078941F910F91FF90EF90DF90CF90BF90DF
:100A9000AF909F908F907F906F905F904F90089550
:100AA0004B015C0184189508A608B708A3019201C0
:100AB000261B370B480B590B6415750586059705E2
:100AC000D0F082169306A406B50640F420E030E08C
:100AD000A90181149104A104B10491F4A0E1B7E249
:100AE0000E94A12BA7019601261B370B480B590B1F
:100AF000CA01B901C5CF82169306A406B50670F7E0
:100B0000A0E1B7E2A50194010E94A12B6C0D7D1D0F
:100B10008E1D9F1DB5CFFECECF93DF9300D01F92C9
:100B2000CDB7DEB71C821B821A821982109229036C
:100B300010922A0310922B0310922C03BE016F5FB8
:100B40007F4FCE0103960E94852269817A818B8135
:100B50009C810E94751B009761F4BE016F5F7F4FFF
:100B6000CE0103960E94912269817A818B819C81BA
:100B70002ED50F900F900F900F90DF91CF91089589
:100B8000FF920F931F93CF93DF93082F60E070E0E5
:100B9000CB010E947426FF24F3940E945E1AEC019C
:100BA000892B89F010E0CE3F8FEFD80769F0002342
:100BB00061F160E070E0CB010E94742681E090E07A
:100BC000892B59F322C011E025D5EC01892B21F0A6
:100BD000CE3F8FEFD80759F711111EC011E02296B2
:100BE00009F410E00E940E1AEC01892B21F0CE3F8F
:100BF0008FEFD807E1F6111111C011E0CE3F8FEF52
:100C0000D80709F410E001110BC0CE01DF91CF919C
:100C10001F910F91FF90089511E0E4CF11E0F3CF01
:100C200060E070E0CB010E9474261F25812F90E0C8
:100C3000C7CFCF93DF9380912D03882321F060E00D
:100C400070E0CB014CD635D6D0E0C0E0892B71F0F6
:100C50006AE070E080E090E00E94742681E090DF1E
:100C600028D62196C03D27E0D20781F727D60E94DB
:100C7000C91B109245031092440310923E03109238
:100C80003F03109240031092410310923A031092D6
:100C90003B0310923C0310923D03109236031092D6
:100CA00037031092380310923903109232031092D6
:100CB0003303109234031092350310922E031092D6
:100CC0002F0310923003109231034EEF5FEF6FEF5E
:100CD0007FEF4093110250931202609313027093BE
:100CE000140210922D03E1E2F3E028E0DF011D92EF
:100CF0002A95E9F710921D0310921E0310921F030C
:100D0000109220031092190310921A0310921B03E1
:100D100010921C03109215031092160310921703E1
:100D200010921803109211031092120310921303E1
:100D300010921403DF91CF910895109251031092F5
:100D40005203109253031092540310925003809157
:100D5000590390915A0390934F0380934E0310923E
:100D60004D0310924C0310924803109249031092C5
:100D70004A0310924B03109256031092550390E0D1
:100D800080E00895CF92DF92EF92FF920F931F932E
:100D9000CF938C01892B09F055C0209159033091D4
:100DA0005A0380914E0390914F0340915903509103
:100DB0005A0350934F0340934E032817390781F08D
:100DC00010924D0310924C03109248031092490365
:100DD00010924A0310924B0310925603109255033F
:100DE0008091590390915A03019761F580915503C1
:100DF00090915603892B21F480911502811112C024
:100E000080915503909156030197E1F48091480336
:100E100090914903A0914A03B0914B030197A1051A
:100E2000B10581F4109248031092490310924A03CD
:100E300010924B031092150282E090E090935603BB
:100E4000809355038091590390915A03019709F0BB
:100E50001CC180916F03909170038017910709F076
:100E600014C180916B0390916C03A0916D03B091BC
:100E70006E03009709F409C120916A0321110DC086
:100E800040916B0350916C0360916D0370916E0300
:100E9000452B462B472B09F4F8C020915503309180
:100EA00056032230310509F0F0C020914C03211186
:100EB000ECC0FC01C080D180E280F38080915003BF
:100EC000882309F4D3C080915C0390915D03892B42
:100ED00009F4FDC020915C0330915D0381E0223074
:100EE000310509F080E020915C0330915D03C1E0A1
:100EF0002130310549F020915C0330915D03C1E060
:100F00002230310509F0C0E0882309F456C0209151
:100F10006603309167034091680350916903C701EC
:100F2000B6010E949E2587FD14C020916603309172
:100F30006703409168035091690360915103709178
:100F4000520380915303909154030E94BC2487FD67
:100F500022C020916603309167034091680350914D
:100F60006903C701B6010E949E25181634F5209129
:100F70006603309167034091680350916903609163
:100F800051037091520380915303909154030E9436
:100F9000BC24811112C080915E0390915F03A091E7
:100FA0006003B0916103892B8A2B8B2B19F481E0AC
:100FB00080934D0381E080934C03CC2309F456C009
:100FC0002091660330916703409168035091690353
:100FD000C701B6010E94BC2487FF14C0209166039C
:100FE0003091670340916803509169036091510308
:100FF0007091520380915303909154030E949E2557
:1010000087FF22C0209166033091670340916803F7
:1010100050916903C701B6010E94BC24811126C00A
:1010200020916603309167034091680350916903F2
:101030006091510370915203809153039091540336
:101040000E949E25181694F480915E0390915F0390
:10105000A0916003B0916103892B8A2B8B2B19F42B
:1010600081E080934D0381E080934C0381E0909177
:101070004C03911180E080935003C0925103D092B1
:101080005203E0925303F0925403012B09F067C11D
:101090008091550390915603892BD9F410925B03EC
:1010A00010924C0380911502882379F082E090E041
:1010B0009093560380935503109215022091590383
:1010C00030915A0381E0232BE9F080E01BC081E0DE
:1010D0000ACF1092150280915B03882349F0109289
:1010E0004D03109256031092550310925B03EDCFFF
:1010F0008091590390915A03892BE1F080914C0320
:1011000010924C0320915503309156032230310543
:1011100009F45EC088F42115310509F448C0213076
:10112000310509F4F3C010924D0310924C03109254
:101130005B0338C081E0E6CF2330310509F4B1C04C
:101140002430310581F74091480350914903609163
:101150004A0370914B03411551056105710561F01A
:101160004150510961097109409348035093490363
:1011700060934A0370934B03409148035091490395
:1011800060914A0370914B03452B462B472BD9F4B2
:1011900020915703309158032130310509F046C0A2
:1011A00010924D0310925603109255030CC080917B
:1011B0001502882341F082E090E0909356038093DB
:1011C0005503109215021092460380914D03CEC034
:1011D0008823C9F380915E0390915F03A09160031F
:1011E000B0916103181619061A061B060CF07DC093
:1011F0008091590390915A03019709F076C080912C
:101200005E0390915F03A0916003B09161038093AE
:10121000480390934903A0934A03B0934B0383E0A0
:1012200090E09093560380935503CDCF4091620395
:10123000509163036091640370916503452B462BC5
:10124000472BA9F010924D038091620390916303A4
:10125000A0916403B0916503809348039093490380
:10126000A0934A03B0934B0381E090E0DACF882348
:1012700099F08091160290911702A0911802B091F6
:1012800019028093480390934903A0934A03B093B3
:101290004B0384E090E0C5CF10924D0382E090E0D4
:1012A000C0CF8091480390914903A0914A03B09127
:1012B0004B030097A105B10559F00197A109B109A8
:1012C0008093480390934903A0934A03B0934B0340
:1012D0008091480390914903A0914A03B0914B0338
:1012E000892B8A2B8B2B09F06ECF8091160290915F
:1012F0001702A0911802B0911902892B8A2B8B2B0F
:1013000009F44ECF81E080934D03B3CF4091480361
:101310005091490360914A0370914B034115510567
:101320006105710561F041505109610971094093EE
:1013300048035093490360934A0370934B034091D1
:1013400048035091490360914A0370914B03452B28
:10135000462B472B09F037CF8111C7CF9FCF809104
:101360004603882309F431CF80914703CF911F9121
:101370000F91FF90EF90DF90CF900895109251035E
:101380001092520310925303109254031092500380
:10139000109256031092550310924F0310924E0371
:1013A0001092700310926F0310924D0310924C0331
:1013B000109248031092490310924A0310924B0373
:1013C000109247031092460310926B0310926C0325
:1013D00010926D0310926E0310926A0310926603CE
:1013E00010926703109268031092690388EE93E0ED
:1013F000A0E0B0E08093160290931702A093180229
:10140000B093190210926203109263031092640366
:101410001092650310925E0310925F0310926003B6
:101420001092610310925D0310925C0381E080933F
:10143000150210925B0310925A03109259031092F6
:1014400058031092570390E080E00895809159036B
:1014500090915A03892B19F580911502882351F038
:1014600080915B03811106C081E0809347038093E4
:101470004603089520915B033091150281E090E0CE
:10148000332311F090E080E030E082239323892B16
:1014900021F01092470381E0EACF109246030895AD
:1014A00082E090E0FA01918380838FEF9FEF0895AF
:1014B000CF93DF93EA01009711F00E94E91C198293
:1014C000188290E080E0DF91CF910895DB010097D2
:1014D00019F48FEF8C9308952EEF2C93FC013F9617
:1014E000EF30F10508F034C08827E658F54F8F4FEC
:1014F0000C94992BA60AA40AA20AA00A9E0A9A0A88
:101500009C0A980A960A940A910A8D0A890A8F0AF7
:10151000A80A80E311968C93089589E2FBCF82E2BA
:10152000F9CF11961C92089583E2F4CF81E2F2CFB5
:1015300081E1F0CF87E2EECF8AE2ECCF80E1EACF23
:1015400084E2E8CF88E2E6CF86E2E4CF81E3E2CF2F
:1015500080E2E0CF80917D0390917E030895909387
:101560007E0380937D03089580917C03089590917C
:101570007C03892B80937C030895982F909580910C
:101580007C03892380937C03089580917B030895D5
:101590008091790390917A0308956115710559F04E
:1015A000FB0130E020E070E060E02417350719F01F
:1015B0006115710511F0CB010895A081B181A817C3
:1015C000B90709F4BF012F5F3F4F3696EECF8091E8
:1015D0007F0381111CC060D266D290937203809306
:1015E00071030E94E7140E94F9149093760380938C
:1015F00075030E9476190E947D199093740380935D
:10160000730381E080937F0390E080E0089584EF8E
:101610009FEF08958F929F92AF92BF92CF92DF92E9
:10162000EF92FF920F931F93CF93DF9300D000D0E0
:1016300000D01F92CDB7DEB71A86198618861F8292
:101640001E821D821C821B821A82198280917F0356
:1016500007EF1FEF882309F49CC08E010D5F1F4F19
:101660009E012B5F3F4FAE01495F5F4FBE01675F39
:101670007F4F90E080E00E94FA1A8C01009721F0E1
:101680000596029708F0DBC029853A8521153105BA
:1016900009F402C1ED80FE804B815C81B701640FCB
:1016A000751F8F8198858617970708F4F5C0E20E9D
:1016B000F31ED7019C91903C09F07FC04230510548
:1016C00008F47BC011968C9140917D0350917E036C
:1016D000452B09F49CC0913F08F071C02CE1290F03
:1016E0002D3008F48BC02DE2290F203108F489C079
:1016F000903C21F48150823008F483C088E3890F44
:101700008B3008F481C096E6C92E9AE0D92EE0E528
:10171000FAE06D817E81AE014F5F5F4F89859A85CA
:1017200019955C01C114D104A1F189809A808114BA
:10173000910479F18B819C818815990508F487C003
:1017400010E000E04B815C8170E060E0C7010E9426
:10175000C32B01151105E9F449815A8169857A8500
:101760008D819E81680F791FC501F6011995E98069
:10177000FA800D811E812F81388549855A856FEF4A
:101780007FEF81E090E00E94951A8C01892B09F08F
:1017900056C0C8012A960FB6F894DEBF0FBECDBF63
:1017A000DF91CF911F910F91FF90EF90DF90CF903D
:1017B000BF90AF909F908F90089580E085CF30E0EC
:1017C00020E0220F331FF901EF58FC4F0190F08108
:1017D000E02D309709F497CF892F90E01995009765
:1017E00009F491CFDC011296ED91FC9113971496B8
:1017F000CD90DC90309709F08CCF1FC021E030E015
:10180000E0CF22E030E0DDCF23E030E0DACFD12CB2
:10181000C12CE8E5FAE09F3F09F07BCFE09171032E
:10182000F0917203309721F4C90104EF1FEF0CC04F
:101830008FEF90E019950097A9F604EF1FEF8985C7
:101840009A85009709F4A5CF0E94E91CA2CF0E94B7
:10185000C41B8C0189859A850E94E91C70E060E0B8
:10186000C4010E945D1B98878F830E94921A9E83F9
:101870008D836F8178856115710559F0C8010E94CB
:10188000751E9A87898706EF1FEF892B09F058CFBD
:1018900059CF08EF1FEF56CF08EF1FEFD0CF2091A1
:1018A0007F03222319F020E00C94FE1487EF9FEFB2
:1018B000089580917D0390917E0308950E9482197E
:1018C0000E94DC18F5D0E1E7F3E088E0DF011D922B
:1018D0008A95E9F710927F0390E080E008950C94D8
:1018E0003A1721E040E050E0BA010C94FE1486E083
:1018F00090E0FA019183808390E080E0089547E0D2
:1019000050E06DE372E049CEDF92EF92FF920F93C9
:101910001F93CF93DF938A01EC01C60FD71FE0908E
:101920008303F0908403D9800E94AC1BD81619065B
:1019300078F082E090E0F801918380838EEF9FEF52
:10194000DF91CF911F910F91FF90EF90DF9008955D
:10195000EF2841F482E090E0F8019183808384EFE6
:101960009FEFEECF89818093820390E00196F8018A
:101970009183808390E080E0E3CFCF93DF93EA010F
:101980000E94EB17882321F00E94B91B0E94EC17DC
:1019900082E090E0998388838BEF9FEFDF91CF9176
:1019A0000895CF93DF93EB0186E0FB0111928A95B6
:1019B000E9F78FEF8883D8DD8983E7DD8A83E8DD67
:1019C0009D838C83DF91CF910895CF93DF93EA01BC
:1019D0000E94EE17811109C082E090E0998388830C
:1019E00085EF9FEFDF91CF91089590E080E0B7DD24
:1019F00081E090E09983888390E080E0F3CF0F93BB
:101A00001F93CF93DF93EA018C01060F171F0E94EB
:101A1000EE1781110BC082E090E09983888385EFF7
:101A20009FEFDF91CF911F910F910895F801818170
:101A3000823038F082E090E0998388838EEF9FEFC8
:101A4000F0CF81E090E08BDD88E090E0998388839F
:101A500090E080E0E6CFCF93DF930097D1F4EB01E5
:101A6000FB01329686E0DF011D928A95E9F78FEF40
:101A7000888385E089831A820E94AC1B8B830E9435
:101A8000AB1B9D838C8381E08E838F83DF91CF910D
:101A90000895DF91CF911ACD8FE79CE09093810359
:101AA000809380030895809180039091810308952D
:101AB0001092810310928003089580918303909186
:101AC00084030895411105C06115710581059105D3
:101AD00061F06093830370938403809385039093F4
:101AE00086034093870381E0089580E00895FF9284
:101AF0000F931F93CF93DF938A01EC01C60FD71F7B
:101B0000F9800E94AC1BF816190668F082E090E09C
:101B1000F801918380838EEF9FEFDF91CF911F912A
:101B20000F91FF9008956C817D818E819F814B8103
:101B3000C9DF811108C082E090E0F80191838083C1
:101B400084EF9FEFEACF89818093820390E0019632
:101B5000F8019183808390E080E0DFCFCF93DF9323
:101B6000EA01FC01E60FF71F648175818681978188
:101B70004381A8DF811109C082E090E099838883C6
:101B800084EF9FEFDF91CF91089581E090E09983FA
:101B9000888390E080E0F6CFE3E8F3E04081518174
:101BA00062817381480F511D611D711D40835183F6
:101BB000628373830895CF93C09182034C2F50E0CA
:101BC000609183037091840301960E94BA2B8C2F3D
:101BD000E3DF10928203CF910895009799F48091EA
:101BE0008303909184032FEFFB012083892B59F00D
:101BF0002091820330E02F5F3F4F2417350719F4FF
:101C0000CB01D9CF63CC0895009799F480918303D9
:101C1000909184032FEFFB012083892B59F02091B1
:101C2000820330E02F5F3F4F2417350719F4CB01B3
:101C3000C2CF4CCC089523E1AC01249FC001259F65
:101C4000900D1124E0918C03F0918D03E80FF91FA2
:101C5000238134812250310981E02230310508F09E
:101C600080E008950F931F93CF93DF9300918E032D
:101C700010918F03D0E0C0E080E00C171D0749F4FD
:101C800091E0811190E0892FDF91CF911F910F9109
:101C900008958111F5CFCE01CEDF2196EECFA09130
:101CA0008C03B0918D03109729F120918E03309110
:101CB0008F0382179307F0F453E1589F9001599FC7
:101CC000300D1124A20FB31FED91FC9111973097A5
:101CD00089F012968C91681768F48DE0689FE00D8A
:101CE000F11D112480819181892B21F081E0928165
:101CF000491708F080E008959C0143E1429FC0012C
:101D0000439F900D1124E0918C03F0918D03E80F17
:101D1000F91F8385823091F481E090E065817681BE
:101D200040911A0250911B026417750711F490E05C
:101D300080E0892B19F081E0232B09F080E00895E1
:101D4000FC01A081B1818DE0689FA00DB11D11241F
:101D500013964D915C9185859685489F9001499F8A
:101D6000300D589F300D1124C9010196611103C037
:101D7000478144FD04960895EF92FF920F931F93BD
:101D8000CF93DF93EA01FC01E60FF71F0281138175
:101D9000E480F5804F2D6E2DC80181DF81110DC0CB
:101DA00082E090E0998388838EEF9FEFDF91CF915F
:101DB0001F910F91FF90EF900895C8013CDF882399
:101DC00039F082E090E09983888388EF9FEFEECF2F
:101DD0001093210200932002E0922202F09223024B
:101DE00081E090E09983888390E080E0DFCFCF921C
:101DF000DF92EF92FF920F931F93CF93DF937A01BD
:101E0000EC01C60FD71FC0902002D0902102009194
:101E1000220210912302412F602FC60140DF811161
:101E200010C082E090E0F701918380838AEF9FEFFA
:101E3000DF91CF911F910F91FF90EF90DF90CF90A6
:101E40000895C601F8DE882341F082E090E0F701B2
:101E50009183808388EF9FEFEBCF4C815D816E8112
:101E60007F819A8189818F3F41F082E090E0F70184
:101E7000918380838EEF9FEFDBCFE3E1EC9D9001B8
:101E8000ED9D300D1124E0918C03F0918D03E20F54
:101E9000F31F0190F081E02D2DE0029FE00DF11D78
:101EA00011240190F081E02D27E0129FE00DF11D3B
:101EB0001124808391838B81828343835483658340
:101EC00076831F5F1093230281E090E0F7019183F6
:101ED000808390E080E0ACCFEF92FF920F931F934E
:101EE000CF93DF937A018C01060F171FC0918C03EB
:101EF000D0918D03209781F021E030E0F8018281BC
:101F0000938140918E0350918F038417950710F0B1
:101F100030E020E0232B71F482E090E0F701918320
:101F200080838EEF9FEFDF91CF911F910F91FF90F4
:101F3000EF90089543E1489F9001499F300D11248F
:101F4000C20FD31F78DE882341F082E090E0F701D2
:101F50009183808388EF9FEFE6CFF801248135815C
:101F600020383105C8F687818111D6CF4181842F71
:101F700090E08F7E009741F082E090E0F70191833E
:101F8000808386EF9FEFCFCF4F833E832D832681C3
:101F900028871986223010F421E0288721E030E0DC
:101FA000F70131832083BFCF88E090E0FA0191836D
:101FB000808390E080E00895FB018FEF808381E1D2
:101FC00081838FEF9FEF9383828380E890E09583F6
:101FD0008483168217820895FB018FEF808391E03E
:101FE000918382839383848384E3858381E090E07B
:101FF000978386830895DF92EF92FF920F931F934A
:10200000CF93DF93EA01FC01E60FF71F8181813056
:1020100071F082E090E0998388838FEF9FEFDF91EA
:10202000CF911F910F91FF90EF90DF9008958281E3
:102030009381D4802581E680F78000918C031091F4
:102040008D030115110539F482E090E099838883AE
:102050008CEF9FEFE4CF40918E0350918F03841754
:10206000950738F082E090E0998388838EEF9FEFA8
:10207000D6CF892B39F082E090E09983888386EF70
:102080009FEFCDCF8D2D8D7FB1F72130A1F781E06E
:10209000D11006C091E0E916F10431F080E004C0EF
:1020A000E2E0EE16F104D0F3882329F390E080E01B
:1020B000C2DD882339F082E090E09983888388EF3D
:1020C0009FEFADCFF801D38681E08487F686E58661
:1020D000108A178681E090E09983888390E080E001
:1020E0009ECF4CE050E067E672E057CA8F929F9215
:1020F000BF92CF92DF92EF92FF920F931F93CF93F5
:10210000DF93EA01FC01E60FF71F828193810481CE
:10211000B580E0918C03F0918D03309791F482E0CB
:1021200090E0998388838CEF9FEFDF91CF911F918F
:102130000F91FF90EF90DF90CF90BF909F908F9086
:10214000089520918E0330918F038217930738F002
:1021500082E090E0998388838EEF9FEFE6CF23E1C2
:10216000289F6001299FD00C1124EC0DFD1DE080FB
:10217000F180E114F10499F28281081748F78DE0AB
:10218000089F80011124E00EF11EF70180819181EA
:10219000892B29F6BB20E1F2F7E0BF9E4001112414
:1021A000C4010E94B01CF70191838083E0918C03ED
:1021B000F0918D03EC0DFD1D0190F081E02DE00FFD
:1021C000F11F80819181009739F482E090E099833A
:1021D00088838DEF9FEFA9CFA40170E060E00E949B
:1021E000C32B80918C0390918D03C80ED91EF601EC
:1021F00080819181080F191FF801B28281E090E07F
:102200009983888390E080E090CFAF92BF92CF9285
:10221000DF92FF920F931F93CF93DF93EA01FC01AC
:10222000E60FF71F82819381F48000918C03109157
:102230008D030115110581F482E090E09983888374
:102240008CEF9FEFDF91CF911F910F91FF90DF9067
:10225000CF90BF90AF90089520918E0330918F035F
:102260008217930738F082E090E0998388838EEF9D
:102270009FEFE8CF2FEF2F0D2C3FA8F723E1289FEA
:102280006001299FD00C11240C0D1D1DF8018081C7
:102290009181892B89F6FDE0FF9E50011124C50133
:1022A0000E94B01CF80191838083E0918C03F0912F
:1022B0008D03EC0DFD1D80819181009739F482E042
:1022C00090E0998388838DEF9FEFBCCFA50170E0EC
:1022D00060E00E94C32BE0918C03F0918D03EC0D24
:1022E000FD1DF28281E090E09983888390E080E098
:1022F000A9CFCF92DF92EF92FF920F931F93CF93CC
:10230000DF93860F971FFC010281138180918C035C
:1023100090918D03892B81F082E090E0FA01918306
:1023200080838CEF9FEFDF91CF911F910F91FF90F2
:10233000EF90DF90CF900895C801B0E0A0E0019742
:10234000A109B1098F3F9F4FA105B10540F082E07F
:1023500090E0FA01918380838EEF9FEFE4CF7A01C2
:1023600083E1809F6001819FD00C1124C6010E94EF
:10237000B01CEC01009741F482E090E0F7019183FA
:1023800080838DEF9FEFCFCFA60170E060E00E94C9
:10239000C32BD0938D03C0938C0310938F030093B2
:1023A0008E0390E080E02FEF3FEF41E061E070E0CE
:1023B0008017910741F481E090E0F70191838083D9
:1023C00090E080E0B0CF3A8B298B1B864C877E87CC
:1023D0006D87188A1F8601966396EACFEF92FF9267
:1023E0001F93CF93DF93EC0110E0F12CE12C6A8175
:1023F0001617B0F083E0689FB0011124AE014F5E64
:102400005F4FC7010E94151D009721F02FEF3FEF8E
:102410003A8B298BDF91CF911F91FF90EF90089518
:10242000612FCE018DDC61E070E00E945D1BE8163B
:10243000F90608F47C011F5FDACFF89420918A0333
:1024400030918B0381E02115310509F080E0232BC9
:1024500009F0789408952F923F924F925F926F9275
:102460007F928F929F92AF92BF92CF92DF92EF9224
:10247000FF920F931F93CF93DF933C01660E771E5D
:10248000F301828193814C01B12CA12CC0918C036A
:10249000D0918D03209769F021E030E060918E03A8
:1024A00070918F038617970710F030E020E0232B00
:1024B000D1F482E090E0FA01918380838EEF9FEF68
:1024C000DF91CF911F910F91FF90EF90DF90CF9010
:1024D000BF90AF909F908F907F906F905F904F9044
:1024E0003F902F9008958092240290922502A0920E
:1024F0002602B092270263E1689F9001699F300D28
:102500001124C20FD31FF3018181833040F082E098
:1025100090E0FA019183808386EF9FEFD1CF2A016B
:102520002B813C81232BF1F4288139819F8191FFFC
:102530002EC0232B09F46FC0209191039A81422F62
:10254000490F5527551FBA0141E050E06138710528
:1025500014F050E040E0452B09F45DC02A87920F4B
:10256000909391038150823008F481C066DF882304
:1025700009F4D8C0F3018181813009F48DC008F4D9
:102580007BC0823009F4C6C090E080E0ADC0232B50
:1025900009F441C0209190039A81E22FE90FFF27AF
:1025A000FF1F41E050E0ED3FF10514F050E040E046
:1025B000452B89F12A87920F90939003D3CFA08166
:1025C000B181A20FB31F11966C91060F111D0196D8
:1025D000295F3F4F8417950794F38D859E85089F4B
:1025E0001001099F300C189F300C1124C114D10424
:1025F000D1F48F8184FF17C00E94AB1BF5E02F0E32
:10260000311C21E08215930508F420E0A701435F07
:102610005F4F21110EC082E090E0F2019183808330
:1026200087EF9FEF4DCF0E94AB1B2FEF221A320A8C
:10263000E8CF88819981E80EF91EF701148303839E
:10264000FFEFCF1ADF0A7A018A818C151D0409F089
:102650000CF48CCFE881F981EE0DFF1D428150E032
:1026600030E020E010E000E090E080E0B3CFF12C1B
:10267000E12CD12CC12CE8CF81E090E09C838B83AE
:10268000F1DA882309F480CF81E090E00E94AF0A5C
:1026900080E40E94BD0A78CF89899A89019661F009
:1026A00083E090E09C838B8382E090E00E94AF0AFD
:1026B00080E40E94B70A68CF8D819E8120911A0222
:1026C00030911B0282179307D1F460911E02709122
:1026D0001F02AE014F5E5F4F80911C0290911D0260
:1026E0000E94341E0097E1F2789422E030E0F2017B
:1026F00031832083892B99F08DEF9FEFE1CE8928DC
:102700008A288B2869F6892B59F6CE0167DE188A4C
:102710001F86E8CF82E090E09C838B8335CF90E0EA
:1027200080E0CECE82E090E0F2019183808385EF5D
:102730009FEFC6CE8F929F92AF92BF92CF92DF92C1
:10274000EF92FF920F931F93CF93DF93EA018C01D7
:10275000060F171FF8018181833098F082E090E026
:102760009983888386EF9FEFDF91CF911F910F911F
:10277000FF90EF90DF90CF90BF90AF909F908F90A1
:10278000089580918C0390918D03892B61F081E0F5
:1027900090E020918E0330918F03232B11F490E071
:1027A00080E0892B39F482E090E0998388838EEF72
:1027B0009FEFDACF42DE882309F4DFC0F801818180
:1027C000813009F495C0E8F0823099F420918E03AD
:1027D00030918F03E0918C03F0918D0390E080E0C5
:1027E00041E050E02817390709F0BDC03BDA8111FC
:1027F00017C0789481E090E09983888390E080E02E
:10280000B3CF20918E0330918F03E0918C03F09130
:102810008D0390E080E041E050E02817390741F453
:1028200081E090E00E94AF0A80E40E94BD0AE1CFFF
:1028300063817481672B11F05483438301967396EF
:10284000ECCFE0918C03F0918D03E00FF11F238119
:10285000348122303105D9F4218932892F3F3F4F0D
:10286000B1F42581368140911A0250911B02241740
:10287000350761F5AF014F5E5F4F60911E027091A9
:102880001F0280911C0290911D020E94341EEFEFE6
:10289000CE1ADE0AEE0AFE0A0D5E1F4F40918E032D
:1028A00050918F0370E060E0C416D506E606F70687
:1028B0003CF5009731F27894892B09F49BCF82E0A4
:1028C00090E0998388838DEF9FEF4ECFC114D104A0
:1028D000E104F104E1F6232BD1F6CF017FDDE09195
:1028E0008C03F0918D03E00FF11F108A1786CFCF74
:1028F00010E000E090E080E0C12CD12C7601CECF3A
:102900000097C9F610E000E0812C912C540183E07F
:10291000E82EF12C1AC0E0918C03F0918D03E00FAA
:10292000F11F83819481029749F4F482E38282E06B
:1029300090E00E94AF0A80E40E94B70AFFEF8F1A6E
:102940009F0AAF0ABF0A0D5E1F4F80918E039091C0
:102950008F03B0E0A0E088169906AA06BB06DCF259
:1029600090E080E0A8CF638174816230710511F43A
:10297000548343830196739635CF82E090E0998328
:10298000888385EF9FEFF0CE0097B9F48FEFFB01BE
:102990008083209124023091250243E1429FC001AF
:1029A000439F900D1124E0918C03F0918D03E80F6B
:1029B000F91F8285FB01818308950C94660A88E0E3
:1029C00090E0FA019183808390E080E00895109276
:1029D0008B0310928A03ECE8F3E086E0DF011D929E
:1029E0008A95E9F781E790E19093890380938803C2
:1029F0000895809188039091890308952F923F92C2
:102A00004F925F926F927F928F929F92AF92BF92FE
:102A1000CF92DF92EF92FF920F931F93CF93DF93AA
:102A2000CDB7DEB72F970FB6F894DEBF0FBECDBF80
:102A3000F894E0918A03F0918B033196F0938B0325
:102A4000E0938A03789440908C0350908D03411456
:102A5000510409F40CC2E0918E03F0918F03EF2B27
:102A600009F405C22D8749875A876B877C87988729
:102A70008F831201B12CA12C10E000E080918E0315
:102A800090918F03A816B90618F40115110529F1C4
:102A9000F89480918A0390918B03019790938B0314
:102AA00080938A037894C8012F960FB6F894DEBFFE
:102AB0000FBECDBFDF91CF911F910F91FF90EF908F
:102AC000DF90CF90BF90AF909F908F907F906F904E
:102AD0005F904F903F902F9008957101E418F50892
:102AE000D10117968C91179781FD54C013968D9143
:102AF0009C911497039709F04DC015968D919C9168
:102B0000EF81F8858E179F0709F044C0B50190E06A
:102B100080E07FD48A8320918C0330918D033D83A4
:102B20002C833D85332309F44CC04C815D81452BBA
:102B300009F49AC180918E0390918F03A816B9066B
:102B400008F092C1C501D8D88823E9F06C817D8155
:102B50006E0D7F1D7D836C83DB011F968D919C9193
:102B6000892B89F0D12CC12CF12CE12CAC81BD81B9
:102B700012968C9112978E151F0409F094F45096BA
:102B80001C921E921F972A81222321F0B50190E00A
:102B900080E041D43FEFA31AB30A43E1240E311C75
:102BA0006DCFAC81BD81ED91FC91EC0DFD1D85815A
:102BB00096810FD7BFEFEB1AFB0AEDE0CE0ED11CCA
:102BC000D5CFEC81FD81309709F44EC180918E0301
:102BD00090918F03A816B90608F046C1EE0DFF1DAF
:102BE000FF87EE87C50188D88B83882339F1AE85AE
:102BF000BF851F968D919C915097019621E01D965F
:102C00004D915C918417950709F020E02E8319827D
:102C1000712C10E000E0AE85BF8512968C9178167D
:102C200008F45DC0EE85FF858785908901966585EE
:102C300076850E94632B908B8787A5CFB1E0BE83FA
:102C4000E6CF992493946BC08BD6F6019683858347
:102C500082C0D601ED90FC90B7E06B9EE00CF11CB9
:102C60001124F7016381748180818F3F61F121E03C
:102C700030E002C0220F331F8A95E2F7C901092E06
:102C8000000CAA0BBB0BFB01408151816281738157
:102C900084239523A623B72321E0892B8A2B8B2B12
:102CA00009F420E0D4012C93D70111968C91F60100
:102CB00023853485820F932F911D880E991E1486CB
:102CC000138663949BC0418150E0C4010E94BA2BDB
:102CD000EBCF998206EF1FEFC5C01982C3C0F981FF
:102CE000F111A0CFEDE07E9E70011124AE85BF856D
:102CF000CD90DC90CE0CDF1C15D49D838C83BB81E2
:102D0000BB2309F49ECF81E0EE85FF8527853089BE
:102D1000232B09F080E0982E882309F458C0672DF2
:102D20008E859F850DD8D60118969C938E93179704
:102D300061E070E0C2D4EE85FF85218932892F3FA2
:102D4000320709F481CFBC01C901CFD7D60116964D
:102D50009C938E931597D60115968D919C911697FD
:102D6000009709F4B6CFEC81FD818E0F9F1F1A9654
:102D70009C938E931997AE85BF85ED91FC91119729
:102D8000EE0EFF1EF70121853285148613861A96F2
:102D90008C91870DD9018D93711016C0EE85FF853A
:102DA000878184FF11C049855A856B857C85F9012F
:102DB0004183528363837483F701838594850496EA
:102DC000A80FB91F14861386F701B287A187D60111
:102DD00015968D919C911697892B09F443C0EE8529
:102DE000FF852581368180911A0290911B02281758
:102DF000390779F019968D909C90612CD601129626
:102E00008C911297681608F424CF1A969C928E9291
:102E10001997BE81BB2309F460CF61E070E0F60131
:102E2000878190854AD4D6011796ED90FC9018972B
:102E300015964D915C91E1E0F0E0BA81BB2311F071
:102E4000F0E0E0E00C811D819C01B5018827992705
:102E50008E1B9F0B6AD38C01892B21F0F601858193
:102E60009681B7D57394D7CE0FEF1FEF8CCE10E0BD
:102E700000E00ECE2F923F924F925F926F927F9220
:102E80008F929F92AF92BF92CF92DF92EF92FF927A
:102E90000F931F93CF93DF9380918C0390918D03B9
:102EA00010E000E0892BA9F0C8DA0AEF1FEF8823B1
:102EB00081F020908E0330908F03C0918C03D091CD
:102EC0008D03D12CC12C10E000E02C143D04A9F49A
:102ED0007894C801DF91CF911F910F91FF90EF90EF
:102EE000DF90CF90BF90AF909F908F907F906F902A
:102EF0005F904F903F902F900895C6010E947C0EE6
:102F0000882309F18B819C810397E9F48F85988947
:102F1000892BC9F0B60190E080E07BD221E030E05F
:102F2000882311F030E020E044245524421A530A4B
:102F3000B12CA12C912C812C8A818815190409F0BF
:102F400038F4188A1F864FEFC41AD40A6396BDCF8F
:102F5000E881F981EA0DFB1D85819681892BA1F11C
:102F600061E070E087819085A8D33C01DBD28C01C1
:102F7000E881F981EA0DFB1D8185928525813681E5
:102F8000200F311FAC01421B530B9A014781508522
:102F9000421B530B70E060E00E94C32BE881F98173
:102FA000EA0DFB1DE780F084458156819301B6014F
:102FB000C201BBD28C01892B39F0E881F981EA0D7D
:102FC000FB1D8581968105D55FEF851A950A8DE0F9
:102FD000A80EB11CB1CF31CA789408952F923F92B8
:102FE0004F925F926F927F929F92AF92BF92CF92D9
:102FF000DF92EF92FF920F931F93CF93DF9300D056
:1030000000D0CDB7DEB700918C0310918D039924C9
:1030100093940115110509F43EC0A0908E03B09061
:103020008F030BDA982E8823B1F110928D03109242
:103030008C0310928F0310928E03109290031092C3
:1030400091038FEF9FEFDC01809324029093250280
:10305000A0932602B093270278947FD31E830D831A
:10306000C12CD12C7601C501B0E0A0E089839A8300
:10307000AB83BC8322242A94322C89819A81AB8130
:10308000BC81C816D906EA06FB06F4F0C801A1D433
:1030900080E40E94BD0A892D26960FB6F894DEBF03
:1030A0000FBECDBFDF91CF911F910F91FF90EF9099
:1030B000DF90CF90BF90AF909F907F906F905F9088
:1030C0004F903F902F900895AD81BE8115968D91C0
:1030D0009C91169720911A0230911B028217930738
:1030E000D1F451968D919C91EED5ED81FE81808138
:1030F0009181B12CA12C412C512C3201892B89F5C5
:10310000BFEFCB1ADB0AEB0AFB0AED81FE81739657
:10311000FE83ED83B2CFC114D104E104F10429F799
:10312000892B19F7ED81FE81818992898F3F98075C
:1031300009F029D5AD81BE8152963C922E925197CD
:10314000D4CF8A0D9B1DDC018D919C91009709F0D5
:1031500040D4BFEF4B1A5B0A6B0A7B0AEDE0AE0E60
:10316000B11CAD81BE818D919C91119712964C91AD
:1031700050E070E060E044165506660677060CF3F2
:1031800028D4BECFCF93DF93EA0128DF811109C095
:1031900082E090E09983888385EF9FEFDF91CF9164
:1031A000089581E090E00E94AF0A81E090E0998369
:1031B000888390E080E0F2CF11DF109289031092B3
:1031C0008803089542E050E06FEA72E00C94CD0A63
:1031D000FF920F931F93CF93DF938A01EC01C60FE9
:1031E000D71FF980B9D20897F816190671F068F060
:1031F00082E090E0F801918380838EEF9FEFDF9172
:10320000CF911F910F91FF9008956C817D818E81E8
:103210009F814B810E94620D811108C082E090E085
:10322000F8019183808384EF9FEFE9CFF9800E94BA
:103230005D0D4F2D50E0BE01685F7F4F0E94BA2B9D
:1032400089810E94CC0D81E090E0F8019183808318
:1032500090E080E0D4CFDF92EF92FF920F931F9324
:10326000CF93DF938A01EC01C60FD71F0E945D0D3B
:103270007C01D98071D2DD2059F0029721E030E045
:10328000D816190619F010F030E020E0232B79F45D
:1032900082E090E0F801918380838EEF9FEFDF91D1
:1032A000CF911F910F91FF90EF90DF900895EF283D
:1032B00041F482E090E0F8019183808384EF9FEFF6
:1032C000EECFF9800E945D0D4F2D50E0BE016E5F84
:1032D0007F4F0E94BA2B89810E94CC0D81E090E043
:1032E000F8019183808390E080E0D9CF82EE98E16D
:1032F0009093930380939203089580919203909109
:10330000930308950895FC011182108293838283B0
:103310000895DB011D921C92DC011296ED91FC9147
:1033200013977183608313967C936E93129708951D
:10333000FC0180819181DB018D939C93A081B181FF
:10334000109741F08D919C9191838083892B11F48A
:10335000F383E2830895FC0180819181DB018D93E9
:103360009C93892B11F47383628371836083089526
:10337000FC0111821082938382830895CF93DF939F
:103380001F921F92CDB7DEB71A821982F894BE0140
:103390006F5F7F4F89E993E0CBDF89819A81009746
:1033A00009F017D389819A81892B89F7BE016F5F54
:1033B0007F4F8DE993E0BCDF89819A81009709F006
:1033C00008D389819A81892B89F778940F900F907F
:1033D000DF91CF910895CF93DF931F921F92CDB7C6
:1033E000DEB71A821982F894BE016F5F7F4F85E9BC
:1033F00093E09EDF89819A81009709F0EAD2898162
:103400009A81892B89F778940F900F90DF91CF9153
:10341000089581E0089590E080E00895EF92FF9292
:103420000F931F93CF93DF931F921F92CDB7DEB7F9
:103430001A8219828091940307EF1FEF8823A1F16C
:10344000F894BE016F5F7F4F8DE993E071DF789450
:1034500089819A81EE24E394F12C892B51F4F8941C
:10346000BE016F5F7F4F89E993E062DF7894F12CB2
:10347000E12C89819A810EEF1FEF0097A9F0FC01E2
:103480004281538164E070E074D68C01892B61F035
:10349000F89469817A81C701880F991F880F991F55
:1034A00087569C4F58DF7894C8010F900F90DF919A
:1034B000CF911F910F91FF90EF9008950F931F935D
:1034C000CF93DF9300D01F92CDB7DEB71C821B8253
:1034D0001A8219828091940307EF1FEF8823C1F0AD
:1034E000AE014D5F5F4F64E070E0CE010196B4D64F
:1034F0008C01892B69F4E981FA818B819C8193830A
:103500008283F89469817A8185E993E002DF789477
:10351000C8010F900F900F900F90DF91CF911F91E6
:103520000F910895B9D7049608958F929F92AF9204
:10353000BF92CF92DF92EF92FF920F931F93CF93A0
:10354000DF931F921F92CDB7DEB71A821982BC019A
:103550006F5F7F4F6330710598F0AA24AA94BA2C4C
:10356000C5010F900F90DF91CF911F910F91FF90A8
:10357000EF90DF90CF90BF90AF909F908F90089585
:103580004115510551F3480159018A016C01CADF07
:103590008815990511F7E114F104F9F28E0D9F1DBC
:1035A000A816B906D0F2809194038823F1F0F8941C
:1035B000B501645071099701AE014F5F5F4FC801BB
:1035C0000496DFD65C01892B71F489819A81F80118
:1035D00093838283C601880F991F880F991FB801B2
:1035E00087569C4F96DE7894BBCF87EFA82EBB24DE
:1035F000BA94B6CFAF92BF92CF92DF92EF92FF9282
:103600000F931F93CF93DF931F921F92CDB7DEB717
:103610001A821982892B09F047C06115710509F4D6
:1036200043C04115510509F43FC02115310509F486
:103630003BC001151105C1F1809194038823B9F1B4
:1036400079016A015B01F894BE016F5F7F4F85E9E4
:1036500093E06EDE789489819A81009759F1DC01BC
:1036600012966D917C91A8010496A4D68C01E981F3
:10367000FA81D501ED93FC93828193810496F60142
:10368000918380834FDFD7018D939C93C8010F9066
:103690000F90DF91CF911F910F91FF90EF90DF90EE
:1036A000CF90BF90AF9008950FEF1FEFEFCF07EFD0
:1036B0001FEFECCF0EEF1FEFE9CFCF93DF93EC01BD
:1036C000672B71F4F2D68C179D0760F0E5D624962F
:1036D000C80FD91FE4D68C0F9D1FDF91CF9108959D
:1036E000E1D6F1CF90E080E0F8CF0F931F93CF9316
:1036F000DF932091940321112BC08B01EC0189E908
:1037000093E001DE8DE993E0FEDD85E993E0FBDDEA
:1037100097D00097C1F4C9D670E060E0CEDF48E2F0
:1037200052E062E070E081D1009769F48091280254
:1037300090912902CCD6B801CE0101D5009719F499
:1037400021E020939403DF91CF911F910F91089571
:1037500084EF9FEFF8CFA6C6A8C6CF93DF93A8D675
:10376000EC01892B11F40ADE36DECE01DF91CF9118
:103770000895CF93DF939CD6EC01892B09F4FEDDED
:10378000CE01DF91CF910895809128029091290276
:103790000895CF93DF9380919403D0E0C0E0882315
:1037A000D1F09AD6EC01892BB1F4E8DD14DE8091DA
:1037B000280290912902E7D1E8D2EC01892B59F433
:1037C00089E993E0D5DD8DE993E0D2DD85E993E0E9
:1037D000CFDD10929403CE01DF91CF910895EF9247
:1037E000FF920F931F93CF93DF93EC017A018B012C
:1037F0000F5F1F4F0E9DA0010F9D500D1E9D500D80
:10380000112470E060E00E94C32B90E080E0F0E0C3
:10381000E0E02FEFE816F90639F4DF91CF911F9120
:103820000F91FF90EF9008951A82198228833097A4
:1038300011F0D283C1830196FE01C00FD11FEACFE0
:10384000CF92DF92EF92FF920F931F93CF93DF936C
:1038500006EA14E00C7F43E050E06AE272E080E3A5
:1038600092E01AD48AE2E82E82E0F82E90E3C92E84
:1038700092E0D92EC5E2D5E0D7014D915D917D0151
:10388000F601619171916F01198308835D834C8307
:103890005B834A837F836E839B012F5F3F4F249F0F
:1038A000C001259F900D349F900D11249987888722
:1038B0000115110511F0C80192DF88859985080F5F
:1038C000191F2A96F0E3EF16F2E0FF06A9F6E3EAE5
:1038D000F3E080E091E0DF019C011D922150304037
:1038E000E1F71092A2031092A103109244051092E6
:1038F0004305109248051092470510924605109214
:10390000450510924A051092490510924C051092F7
:103910004B0510924E0510924D05109252051092D3
:1039200051051092500510924F05109254051092B7
:1039300053051092560510925505109222051092CB
:103940002105109224051092230590E080E0DF917C
:10395000CF911F910F91FF90EF90DF90CF9008953E
:103960000097F1F0F894A0E3B2E0E5E2F5E030E092
:1039700020E04D915D9148175907A8F0428153818D
:103980004115510581F08AE0829FF001839FF00D7F
:103990001124EB5DFA4F80819181009759F478945E
:1039A00090E080E008952F5F3F4F3A962330310535
:1039B00001F7F5CFDC0111966D917C9171836083E5
:1039C0004150510953834283FC012193CF017894E4
:1039D0000895009749F1DC018E91853041F4E09122
:1039E0002305F09124053097F9F0CD011994853025
:1039F000D8F4282F30E0F8948FEF8C938AE0829FE0
:103A0000F001839FF00D1124EB5DFA4F80819181CD
:103A100012969C938E931197B183A0838281938198
:103A200001969383828378940895CF92DF92EF92E8
:103A3000FF920F931F93CF93DF939C0186EA93E04D
:103A40008C7F4115510509F49BC02115310509F4FE
:103A500097C06115710509F493C07A01AB01B901F2
:103A60006D5F7F4F6C7F9B012F5F3F4F249F8001D5
:103A7000259F100D349F100D1124F89420914305BB
:103A800030914405232B59F420914B0530914C057E
:103A90002115310569F12017310708F058C0209130
:103AA0004D0530914E05232B91F420914B0530911B
:103AB0004C05820F931F2091550530915605211515
:103AC000310509F441C02017310708F056C0789439
:103AD000CFEFDFEF86EF9FEFF701D183C083DF9158
:103AE000CF911F910F91FF90EF90DF90CF900895AD
:103AF000C3E0D0E0C090A103D090A2032DEF30E04E
:103B00002C193D092017310710F32AE02C9FF001F2
:103B10002D9FF00D1124EB5DFA4F91838083558327
:103B2000448353834283778366831187008700979A
:103B300009F055DE0C0D1D1D1093A2030093A10387
:103B4000789490E080E0C8CFC4E0D0E0D3CFC3E069
:103B5000D0E02AE02C9FF0012D9FF00D1124EB5DA9
:103B6000FA4F9183808355834483538342837783C1
:103B70006683009729F333DEE3CFC4E0D0E0E9CFDA
:103B80008FEF9FEFACCF9C010397029708F069C0BD
:103B9000F89484E09AE0482F50E0241735070CF49D
:103BA0004DC091E08AE0829FF001839FF00D1124C7
:103BB000EB5DFA4F118210821582148213821282F9
:103BC000178216829923B1F18091430590914405A3
:103BD000892BA9F420914B0530914C052115310515
:103BE00071F08091A1039091A203821B930B90939B
:103BF000A2038093A10310924C0510924B05809173
:103C00004D0590914E05892BA9F4209155053091D1
:103C100056052115310571F08091A1039091A20301
:103C2000821B930B9093A2038093A10310925605DD
:103C300010925505789490E080E00895949FF001EB
:103C4000959FF00D1124EB5DFA4F40815181452B7A
:103C500031F440855185452B11F481509CCF90E083
:103C6000A1CF8FEF9FEF08954115510549F10097BE
:103C700039F16115710521F1F894209121053091F8
:103C80002205232BB9F42091230530912405232B01
:103C900089F4909322058093210570932405609305
:103CA0002305789425E030E090E080E0FA0131834C
:103CB0002083089578942FEF3FEF86EF9FEFF6CFA4
:103CC0008FEF9FEF0895059769F4F89410922205FD
:103CD000109221051092240510922305789490E00B
:103CE00080E008958FEF9FEF08956115710519F435
:103CF000F0E0E0E011C08530910581F4E09121050C
:103D0000F09122053097A1F3CB0101961995009708
:103D100079F3FC0185E08193CF0108959C01235044
:103D200031092230310520F72AE0289FD001299F50
:103D3000B00D1124AB5DBA4F2D913C911197232BFF
:103D4000B9F216962D913C9117972617370780F2F6
:103D5000F89412962D913C9113972115310529F075
:103D6000ED91FC911197309711F47894C1CF418176
:103D7000528111965C934E932150310913963C93D6
:103D80002E93129781937894C7CFE3EAF4E08EE7FD
:103D9000DF011D928A95E9F7E3EAF3E080E091E024
:103DA000DF019C011D9221503040E1F71092A203E7
:103DB0001092A103E5E2F5E082E3DF011D928A950E
:103DC000E9F7E1E2F5E084E0DF011D928A95E9F789
:103DD00090E080E00895CF93DF93C0913602D091B8
:103DE0003702CF3FDC0759F420D4909337028093F9
:103DF000360297FF09C0D0933702C093360284EF92
:103E00009FEFDF91CF91089590E080E0FACF82306C
:103E1000910528F48093570590E080E008958FEF96
:103E20009FEF08954F925F926F927F92AF92BF92F1
:103E3000CF92DF92EF92FF920F931F93CF93DF9376
:103E40001F921F92CDB7DEB71A821982009709F42C
:103E500078C06115710509F474C020913602309163
:103E6000370207EF1FEF2F3F3F4F09F444C06B01AC
:103E70005C01412C512C3201F12CE12C10E000E0CE
:103E80009E012F5F3F4FA6014E195F09B5016E0DD0
:103E90007F1D809136029091370226D4892B09F03C
:103EA0004AC089819A81009741F4E114F10429F410
:103EB00020915705222309F441C0E80EF91EEC14A5
:103EC000FD04C8F480E8481684E858068EE16806C8
:103ED000710418F560E070E0CB0106D72AE0420ECD
:103EE000511C611C711C0A3F4FEF140721F0043F65
:103EF0008FEF1807A1F4C8010F900F90DF91CF91B9
:103F00001F910F91FF90EF90DF90CF90BF90AF90F7
:103F10007F906F905F904F90089501EF1FEF81E0C9
:103F200090E0013F2FEF120711F090E080E0892B25
:103F300009F4A6CFE0CF04EF1FEFDDCF0AEF1FEFAC
:103F4000DACF0FEF1FEFD7CF4F925F926F927F9232
:103F5000AF92BF92CF92DF92EF92FF920F931F9397
:103F6000CF93DF931F921F92CDB7DEB71A821982CB
:103F7000009709F478C06115710509F474C02091A7
:103F800036023091370207EF1FEF2F3F3F4F09F402
:103F900044C06B015C01412C512C3201F12CE12C0D
:103FA00010E000E09E012F5F3F4FA6014E195F0910
:103FB000B5016E0D7F1D80913602909137024AD374
:103FC000892B09F04AC089819A81009741F4E11454
:103FD000F10429F420915705222309F441C0E80E89
:103FE000F91EEC14FD04C8F480E4481682E4580677
:103FF0008FE06806710418F560E070E0CB0174D6BC
:104000002AE0420E511C611C711C0E3F4FEF140739
:1040100021F0043F8FEF1807A1F4C8010F900F9013
:10402000DF91CF911F910F91FF90EF90DF90CF9094
:10403000BF90AF907F906F905F904F90089502EF88
:104040001FEF81E090E0023F2FEF120711F090E0A8
:1040500080E0892B09F4A6CFE0CF04EF1FEFDDCF7E
:104060000EEF1FEFDACF0FEF1FEFD7CF80913602A1
:10407000909137028F3F980749F0CFD2892B49F4AE
:104080008FEF9FEF909337028093360290E080E0AD
:10409000089584EF9FEF0895CF92DF92EF92FF9201
:1040A0000F931F93CF93DF9321E04115510509F042
:1040B00020E04150510921112CC0DC01FB01D12C21
:1040C000C12C21E022C03FEFC31AD30A7D010D911C
:1040D0001D91E701EA80FB80E016F106A8F420813B
:1040E0003181E280F380F182E08233832283ED909C
:1040F000FC9011979D0122503109E901F982E88273
:1041000011961C930E9320E03296C416D506D8F271
:10411000D2CFDF91CF911F910F91FF90EF90DF9061
:10412000CF900895FC01680F791F90E080E0E617BA
:10413000F70709F408952191820F911DF8CF20917E
:104140005805211113C047DE009791F410925E05C7
:1041500010925D0510925C0510925B0510925A0555
:104160001092590521E020935805089584EF9FEFA0
:104170000895AF92BF92CF92DF92EF92FF920F938A
:104180001F93CF93DF93009709F460C04630510529
:1041900008F45CC020915805C7EFDFEF222309F433
:1041A00049C08C01060F171FF801C080D180C114CF
:1041B000D10409F44EC096012A5F3F4F42175307BE
:1041C00008F447C07C0180915D0590915E05938362
:1041D0008283B6016C5F7F4F5801A60EB71EC801DF
:1041E000A1DFF5019183808364E070E0C8011ADEED
:1041F000EC01892BF9F481E090E009DEB601C801F9
:10420000049610DEEC01892B91F462E070E0C501A8
:1042100009DEEC01892B59F4C701DBDB80915D05D8
:1042200090915E05019690935E0580935D0590E008
:1042300080E0EDDDCE01DF91CF911F910F91FF90D6
:10424000EF90DF90CF90BF90AF900895CFEFDFEF6A
:10425000F1CFC9EFDFEFEECF6F927F928F929F92F7
:10426000AF92BF92CF92DF92EF92FF920F931F9384
:10427000CF93DF9300D01F92CDB7DEB7009709F43C
:104280007AC04115510509F476C02091580507EF11
:104290001FEF222309F44DC03A017B015C0164E069
:1042A00070E0CE01019650DE8C01892B09F041C0EF
:1042B00009811A810115110509F45AC0480186E0E7
:1042C000880E911CB701680D791D8091380290917C
:1042D00039020BDD6C01009709F450C0A70170E0B2
:1042E00060E00E94C32B89819A81AB81BC81EC0C78
:1042F000FD1CF70181939193A193B1937F0181E01C
:1043000090E085DDB801C7011FDE892B31F562E041
:1043100070E0C701800F911F17DE8C01892BE9F433
:1043200090E080E074DDF501D182C082F3019182DA
:104330008082C8010F900F900F900F90DF91CF9166
:104340001F910F91FF90EF90DF90CF90BF90AF90B3
:104350009F908F907F906F90089590E080E057DD60
:10436000F50111821082F30111821082C60131DB46
:1043700009EF1FEFDECF0FEF1FEFDBCF06EF1FEFD1
:10438000D8CF0097A1F04115510589F021153105CD
:1043900071F0F90136966E177F0748F0DC012D9316
:1043A0003C93DA01ED93FC9390E080E008958FEF69
:1043B0009FEF0895AF92BF92CF92DF92EF92FF925C
:1043C0000F931F93CF93DF93009709F45FC04115BC
:1043D000510509F45BC06530710508F457C02091A0
:1043E0005805C7EFDFEF222391F1DC01CD90DC907F
:1043F00011971296ED91FC9196012A5F3F4FC9EFFC
:10440000DFEF2617370719F5C0915905D0915A05E6
:10441000209749F521E030E030935A052093590563
:104420007A018C01F0935C05E0935B055601B4E0E2
:10443000AB0EB11CB50176DE0A0D1B1DF801208103
:1044400031818217930729F5D701CD92DC92CE01F5
:10445000DF91CF911F910F91FF90EF90DF90CF9060
:10446000BF90AF90089520915B0530915C052F5F60
:104470003F4FCCEFDFEFE217F30790F2CBEFDFEF28
:104480002E173F0768F2D0E0C0E0CACFCFEFDFEFD2
:10449000DECFC3EFDFEFDBCF84E090E0089582E072
:1044A00090E008958CEF9FEF089580E290E00895EA
:1044B00010925E0510925D0510925C0510925B05EE
:1044C00010925A051092590590E080E0089590935B
:1044D000390280933802089580915805882391F01D
:1044E000C5DD009789F410925E0510925D0510926B
:1044F0005C0510925B0510925A05109259051092B6
:104500005805089590E080E00895009749F06115FE
:10451000710531F0FC0111821082FB0111821082C1
:104520000895F3CF26E030E040E855E260E070E027
:1045300090E080E000C08130910569F01CF4892B87
:1045400039F008958230910549F0039751F00895AC
:104550008CE695E0FAC589E096E0FCCF86EA96E025
:10456000F9CF83E497E0F6CF1F920F920FB60F9228
:1045700011240BB60F922F933F934F935F936F933A
:104580007F938F939F93AF93BF93EF93FF938FE8A6
:104590009DEF9093250180932401B9D0FF91EF9175
:1045A000BF91AF919F918F917F916F915F914F914B
:1045B0003F912F910F900BBE0F900FBE0F901F9049
:1045C00018958FE89DEF9093250180932401A3E730
:1045D000B0E08C918E7F8C93E0E2F1E080818C7F63
:1045E0008083E1E2F1E08081877E80838081846046
:1045F000808380818C7F80838C9181608C930895EF
:10460000E3E7F0E0808190819E7F90838170089540
:1046100081E0089510925F05089568EE73E080E0F0
:1046200090E062D390E080E0089526E030E040E042
:1046300050E16EE070E090E080E07DDF8CE695E098
:10464000BAD4892B21F08CE695E0CFD4F7CF90E057
:1046500080E00895CF92DF92EF92FF920F931F9325
:10466000CF93DF936B017A01E901198218828CE6FE
:1046700095E0A1D4892B69F18601CC24C39482E012
:10468000D82E80915F05811110C08CE695E0ADD4E5
:104690000297B9F7C0925F05F801D1928F01888126
:1046A0009981019699838883ECCF888199818E15B1
:1046B0009F0578F48CE695E098D48F3F9807A9F38E
:1046C000F80181938F01888199810196998388836C
:1046D000ECCF90E080E0DF91CF911F910F91FF90A0
:1046E000EF90DF90CF9008950F931F93CF93DF93B8
:1046F000EA0189018CE695E0B8D7F801D183C0833F
:1047000090E080E0DF91CF911F910F910895CF92BB
:10471000DF92EF92FF92CF93DF938091600591E05B
:10472000980F90936005882379F021E030E0309372
:1047300062052093610580936005DF91CF91FF9022
:10474000EF90DF90CF9008957894C0913B02D09184
:104750003C026E8D7F8D88A199A13ED120E030E092
:1047600040E85FE4EFD16B017C016A8D7B8D8C8D1D
:104770009D8D32D19B01AC01C701B60199D000D10A
:104780006B017C010E94C302B701A60190E080E0AA
:104790000E943602F894809160058150CCCF0F932F
:1047A0001F93CF93DF931092040810920308D2D284
:1047B000B9DEC0913B02D0913C02198218826FEFA2
:1047C0007FEFCB010E94B80270E060E090E080E0F3
:1047D0000E943A01009709F03AC00E94D203F8946F
:1047E0007894BE016A5D7F4F8A819B810E943D0162
:1047F000892B59F46FEF7FEFCB010E94CC010E940F
:10480000B202882311F081E08AA7F894DADE0E94D0
:10481000B502882311F080E008C00E94B202811125
:10482000FACF81E09AA59111F6CF8093030878948E
:104830000E94AA0A8C0178948091030881110CC00F
:104840000E9474040E949802F89490E080E0DF9146
:10485000CF911F910F9108950E9496020E94B50278
:104860008823D9F081E0809304089091040881E0C6
:10487000911180E080930308809104088111C0DECB
:104880000130110529F40E94AA0A892B09F4C2DE1D
:104890000E94AA0A8C01BCDECFCF0E94B202811115
:1048A000E1CF81E09AA59111DECF80E0DCCF5058B6
:1048B000BB27AA270ED008C1F9D030F0FED020F0D7
:1048C00031F49F3F11F41EF4EEC00EF4E095E7FBC7
:1048D000E4C0E92F0AD180F3BA176207730784078F
:1048E000950718F071F49EF522C10EF4E0950B2E99
:1048F000BA2FA02D0B01B90190010C01CA01A00132
:104900001124FF27591B99F0593F50F4503E68F18C
:104910001A16F040A22F232F342F4427585FF3CFCD
:10492000469537952795A795F0405395C9F77EF49E
:104930001F16BA0B620B730B840BBAF09150A1F0E7
:10494000FF0FBB1F661F771F881FC2F70EC0BA0F6D
:10495000621F731F841F48F4879577956795B795F5
:10496000F7959E3F08F0B3CF9395880F08F09927ED
:10497000EE0F9795879508956CD008F481E008951F
:10498000BCD088F09F5790F0B92F9927B751A0F06D
:10499000D1F0660F771F881F991F1AF0BA95C9F7D3
:1049A00012C0B13081F0C3D0B1E00895C0C0672F0C
:1049B000782F8827B85F39F0B93FCCF38695779583
:1049C0006795B395D9F73EF490958095709561956C
:1049D0007F4F8F4F9F4F0895E89409C097FB3EF497
:1049E00090958095709561957F4F8F4F9F4F99233C
:1049F000A9F0F92F96E9BB279395F69587957795BA
:104A00006795B795F111F8CFFAF4BB0F11F460FF79
:104A10001BC06F5F7F4F8F4F9F4F16C0882311F0D1
:104A200096E911C0772321F09EE8872F762F05C0E5
:104A3000662371F096E8862F70E060E02AF09A9580
:104A4000660F771F881FDAF7880F9695879597F975
:104A50000895990F0008550FAA0BE0E8FEEF16160F
:104A60001706E807F907C0F012161306E407F50762
:104A700098F0621B730B840B950B39F40A2661F0D6
:104A8000232B242B252B21F408950A2609F4A14079
:104A9000A6958FEF811D811D089597F99F6780E886
:104AA00070E060E008959FEF80EC089500240A9480
:104AB0001616170618060906089500240A941216F9
:104AC0001306140605060895092E0394000C11F42C
:104AD000882352F0BB0F40F4BF2B11F460FF04C0D9
:104AE0006F5F7F4F8F4F9F4F089557FD9058440F32
:104AF000551F59F05F3F71F04795880F97FB991F3D
:104B000061F09F3F79F087950895121613061406F9
:104B1000551FF2CF4695F1DF08C016161706180686
:104B2000991FF1CF86957105610508940895E89461
:104B3000BB2766277727CB0197F908958ADF08F40A
:104B40008FEF08950BD0C0CFB1DF28F0B6DF18F09B
:104B5000952309F0A2CFA7CF1124EACFC6DFA0F397
:104B6000959FD1F3950F50E0551F629FF001729F02
:104B7000BB27F00DB11D639FAA27F00DB11DAA1F21
:104B8000649F6627B00DA11D661F829F2227B00D6E
:104B9000A11D621F739FB00DA11D621F839FA00DF9
:104BA000611D221F749F3327A00D611D231F849F49
:104BB000600D211D822F762F6A2F11249F575040A0
:104BC0008AF0E1F088234AF0EE0FFF1FBB1F661F3B
:104BD000771F881F91505040A9F79E3F510570F0F4
:104BE0005CCFA6CF5F3FECF3983EDCF386957795DC
:104BF0006795B795F795E7959F5FC1F7FE2B880FEF
:104C0000911D9695879597F908951F920F920FB66B
:104C10000F9211242F933F938F939F93AF93BF9342
:104C20008091640590916505A0916605B091670536
:104C30003091630523E0230F2D3758F50196A11D10
:104C4000B11D209363058093640590936505A0933F
:104C50006605B09367058091680590916905A091FC
:104C60006A05B0916B050196A11DB11D8093680581
:104C700090936905A0936A05B0936B05BF91AF91BE
:104C80009F918F913F912F910F900FBE0F901F908A
:104C9000189526E8230F0296A11DB11DD2CF3FB76C
:104CA000F8948091680590916905A0916A05B0918A
:104CB0006B0526B5A89B05C02F3F19F00196A11DD5
:104CC000B11D3FBFBA2FA92F982F8827BC01CD0156
:104CD000620F711D811D911D42E0660F771F881FB5
:104CE000991F4A95D1F708958F929F92AF92BF92E4
:104CF000CF92DF92EF92FF926B017C01D0DF4B01EC
:104D00005C01C114D104E104F104D9F0DBD4C7DFA4
:104D1000681979098A099B09683E734081059105E4
:104D200080F321E0C21AD108E108F10888EE880E6C
:104D300083E0981EA11CB11CC114D104E104F1044C
:104D400031F7FF90EF90DF90CF90BF90AF909F90A2
:104D50008F900895789484B5826084BD84B5816015
:104D600084BD85B5826085BD85B5816085BDEEE673
:104D7000F0E0808181608083E1E8F0E01082808152
:104D800082608083808181608083E0E8F0E08081C0
:104D900081608083E1EBF0E0808184608083E0EBE0
:104DA000F0E0808181608083E1E9F0E080818260D1
:104DB0008083808181608083E0E9F0E08081816090
:104DC0008083E1EAF0E0808182608083808181607D
:104DD0008083E0EAF0E0808181608083E1E2F1E0BD
:104DE000808182608083808181608083E0E2F1E065
:104DF000808181608083EAE7F0E080818460808345
:104E000080818260808380818160808380818068EE
:104E100080831092C10008958150823108F059C0FA
:104E2000E82FF0E08827E95EF84D8F4F82C43727DE
:104E30003B2729272F27332769273E274427482741
:104E40004E27522756275C276027692764276A2741
:104E50006E27809180008F778093800008958091E5
:104E600080008F7DF9CF80918000877FF5CF84B55A
:104E70008F7784BD089584B58F7DFBCF8091B0007E
:104E80008F778093B00008958091B0008F7DF9CF27
:104E9000809190008F77809390000895809190008A
:104EA0008F7DF9CF80919000877FF5CF8091A00012
:104EB0008F778093A00008958091A0008F7DF9CF17
:104EC0008091A000877FF5CF809120018F7780931C
:104ED00020010895809120018F7DF9CF80912001DC
:104EE000877FF5CFCF93DF9390E0FC01E65DFE4F27
:104EF000249180599E4FFC0184918823C9F090E051
:104F0000880F991FFC01E053FE4FA591B491FC015D
:104F1000EA54FE4FC591D49161110DC09FB7F8942A
:104F20008C91209582238C938881282328839FBF8E
:104F3000DF91CF910895623051F49FB7F8943C917E
:104F4000822F809583238C93E8812E2BEFCF8FB710
:104F5000F894EC912E2B2C938FBFEACF1F93CF9315
:104F6000DF93282F30E0F901EC51FF4F8491F901D4
:104F7000E65DFE4FD491F901E059FE4FC491CC2378
:104F8000A1F0162F811148DFEC2FF0E0EE0FFF1F8C
:104F9000EA54FE4FA591B4918FB7F894EC9111119A
:104FA00008C0D095DE23DC938FBFDF91CF911F9196
:104FB0000895DE2BF8CFFC01918D228D892F90E092
:104FC000805C9F4F821B91098F7399270895FC0184
:104FD000918D828D981731F0828DE80FF11D858DAE
:104FE00090E008958FEF9FEF0895FC01918D828DE1
:104FF000981761F0A28DAE0FBF2FB11D5D968C91F9
:10500000928D9F5F9F73928F90E008958FEF9FEF37
:105010000895FC01538D448D252F30E0842F90E0BE
:10502000821B930B541710F0CF96089501970895A3
:10503000FC01A48DA80FB92FB11DA35ABF4F2C910D
:10504000848D90E001968F739927848FA689B78904
:105050002C93A089B1898C91837080648C93938DFB
:10506000848D981306C00288F389E02D80818F7D9E
:1050700080830895CF93DF93EC01888D8823B1F06E
:10508000AA89BB89E889F9898C9185FD03C0808153
:1050900086FD0CC00FB607FCF7CF8C9185FFF2CFD1
:1050A000808185FFEDCFCE01C3DFEACFDF91CF91C5
:1050B0000895EF92FF920F931F93CF93DF93EC012C
:1050C00081E0888F9B8D8C8D98131AC0E889F989AF
:1050D000808185FF15C09FB7F894EE89FF896083B2
:1050E000E889F98980818370806480839FBF81E033
:1050F00090E0DF91CF911F910F91FF90EF90089575
:10510000F62E0B8D10E00F5F1F4F0F731127E02E4F
:105110008C8D8E110BC00FB607FCFACFE889F98988
:10512000808185FFF5CFCE0183DFF2CFEB8DEC0FD1
:10513000FD2FF11DE35AFF4FF0829FB7F8940B8FBC
:10514000EA89FB8980818062D0CFCF92DF92EF9293
:10515000FF921F93CF93DF93EC016A017B01122F23
:10516000E889F98982E08083C11481EED806E104E0
:10517000F10499F060E079E08DE390E0A7019601F9
:10518000B6D22150310941095109569547953795B5
:105190002795211580E1380790F0E889F989108278
:1051A00060E874E88EE190E0A7019601A0D221505A
:1051B0003109410951095695479537952795EC8551
:1051C000FD853083EE85FF852083188EEC89FD896F
:1051D0001083EA89FB89808180618083EA89FB8969
:1051E000808188608083EA89FB89808180688083F0
:1051F000EA89FB8980818F7D8083DF91CF911F9128
:10520000FF90EF90DF90CF9008951F920F920FB60E
:105210000F9211240BB60F922F938F939F93EF93BE
:10522000FF93E0917C05F0917D058081E0918205FE
:10523000F091830582FD1DC09081809185058F5F6F
:105240008F7320918605821741F0E0918505F0E08B
:10525000E459FA4F958F80938505FF91EF919F91C7
:105260008F912F910F900BBE0F900FBE0F901F903C
:1052700018958081F2CF1F920F920FB60F921124D2
:105280000BB60F922F933F934F935F936F937F9340
:105290008F939F93AF93BF93EF93FF938CE695E02B
:1052A000C7DEFF91EF91BF91AF919F918F917F9159
:1052B0006F915F914F913F912F910F900BBE0F9087
:1052C0000FBE0F901F901895ECE6F5E01382128246
:1052D00088EE93E0A0E0B0E084839583A683B78353
:1052E0008FEB92E09183808385EC90E095878487B3
:1052F00084EC90E09787868780EC90E0918B808BA0
:1053000081EC90E0938B828B82EC90E0958B848B88
:1053100086EC90E0978B868B118E128E138E148EF6
:1053200008951F920F920FB60F9211240BB60F9291
:105330002F938F939F93EF93FF93E0911906F09132
:105340001A068081E0911F06F091200682FD1DC0A3
:105350009081809122068F5F8F73209123068217A0
:1053600041F0E0912206F0E0E75FF94F958F8093DE
:105370002206FF91EF919F918F912F910F900BBE7D
:105380000F900FBE0F901F9018958081F2CF1F9243
:105390000F920FB60F9211240BB60F922F933F93DB
:1053A0004F935F936F937F938F939F93AF93BF932D
:1053B000EF93FF9389E096E03BDEFF91EF91BF9181
:1053C000AF919F918F917F916F915F914F913F919D
:1053D0002F910F900BBE0F900FBE0F901F9018953E
:1053E000E9E0F6E01382128288EE93E0A0E0B0E0FC
:1053F00084839583A683B7838FEB92E09183808328
:105400008DEC90E0958784878CEC90E09787868779
:1054100088EC90E0918B808B89EC90E0938B828B71
:105420008AEC90E0958B848B8EEC90E0978B868B4A
:10543000118E128E138E148E08951F920F920FB636
:105440000F9211240BB60F922F938F939F93EF938C
:10545000FF93E091B606F091B7068081E091BC061B
:10546000F091BD0682FD1DC090818091BF068F5FC7
:105470008F732091C006821741F0E091BF06F0E0E3
:10548000EA55F94F958F8093BF06FF91EF919F9159
:105490008F912F910F900BBE0F900FBE0F901F900A
:1054A00018958081F2CF1F920F920FB60F921124A0
:1054B0000BB60F922F933F934F935F936F937F930E
:1054C0008F939F93AF93BF93EF93FF9386EA96E0FA
:1054D000AFDDFF91EF91BF91AF919F918F917F9140
:1054E0006F915F914F913F912F910F900BBE0F9055
:1054F0000FBE0F901F901895E6EAF6E01382128215
:1055000088EE93E0A0E0B0E084839583A683B78320
:105510008FEB92E09183808385ED90E0958784877F
:1055200084ED90E09787868780ED90E0918B808B6B
:1055300081ED90E0938B828B82ED90E0958B848B54
:1055400086ED90E0978B868B118E128E138E148EC3
:1055500008951F920F920FB60F9211240BB60F925F
:105560002F938F939F93EF93FF93E0915307F091C5
:1055700054078081E0915907F0915A0782FD1DC0C0
:10558000908180915C078F5F8F7320915D078217F8
:1055900041F0E0915C07F0E0ED5BF84F958F809370
:1055A0005C07FF91EF919F918F912F910F900BBE10
:1055B0000F900FBE0F901F9018958081F2CF1F9211
:1055C0000F920FB60F9211240BB60F922F933F93A9
:1055D0004F935F936F937F938F939F93AF93BF93FB
:1055E000EF93FF9383E497E023DDFF91EF91BF9169
:1055F000AF919F918F917F916F915F914F913F916B
:105600002F910F900BBE0F900FBE0F901F9018950B
:10561000E3E4F7E01382128288EE93E0A0E0B0E0CA
:1056200084839583A683B7838FEB92E091838083F5
:1056300085E391E09587848784E391E09787868767
:1056400080E391E0918B808B81E391E0938B828B5F
:1056500082E391E0958B848B86E391E0978B868B38
:10566000118E128E138E148E0895AF92BF92CF9228
:10567000DF92EF92FF920F931F93CF93DF936C0112
:105680007B018B01040F151FEB015E01AE18BF08F3
:10569000C017D10759F06991D601ED91FC910190A5
:1056A000F081E02DC6011995892B79F7C501DF91AD
:1056B000CF911F910F91FF90EF90DF90CF90BF900F
:1056C000AF9008950895AA1BBB1B51E107C0AA1F04
:1056D000BB1FA617B70710F0A61BB70B881F991F93
:1056E0005A95A9F780959095BC01CD010895A1E246
:1056F0001A2EAA1BBB1BFD010DC0AA1FBB1FEE1F4C
:10570000FF1FA217B307E407F50720F0A21BB30B96
:10571000E40BF50B661F771F881F991F1A9469F712
:1057200060957095809590959B01AC01BD01CF016E
:105730000895EE0FFF1F881F8BBF0790F691E02D95
:10574000199409D0A59F900DB49F900DA49F800D32
:10575000911D11240895A29FB001B39FC001A39F82
:10576000700D811D1124911DB29F700D811D11249A
:10577000911D0895FB01DC0102C001900D92415082
:105780005040D8F70895DC0101C06D93415050405E
:08579000E0F70895F894FFCF43
:105798000000803F000048420000C84100000000AF
:1057A80003FEFFFFFF01E8030000FFFF0000000009
:1057B800FFFFFFFFFFFFFFFFFFFF010001000100E8
:1057C800200038002000FFFFFFFF01E602FF00FF76
:1057D8000C2B0DFE00E50C660AFD00770CD10CFCC5
:1057E80000BD0C660AF600AE0D660AF500840CEDE5
:1057F8000DF400770D040EDE002B12C414DD009AA0
:1058080013660ADA00D40FDC0FD900DF14EC0FE2BC
:1058180000BC0E660AE100F70E660AE0006C0F662F
:105828000AD600C218660AD5007911660AD400059E
:1058380011660AD3007610660AC000FB0F660AF0EC
:10584800002B19660AED00E818660A0000000059E6
:0E58580028352B09283A28DB27F527E72700FB
:00000001FF
