:10000000ECC000001BC1000019C1000017C10000B6
:1000100015C1000013C1000011C100000FC1000094
:100020000DC100000BC1000009C1000007C10000A4
:1000300005C1000003C1000001C10000FFC00000B5
:10004000FDC00000FBC00000F9C00000F7C00000C8
:10005000F5C00000F3C00000F1C000000C94823035
:10006000EDC000000C9452330C948833E7C00000BC
:10007000E5C00000E3C00000E1C00000DFC00000F8
:10008000DDC00000DBC00000D9C00000D7C0000008
:100090000C94DE330C941434D1C000000C94612F06
:1000A000CDC00000CBC00000C9C00000C7C0000028
:1000B000C5C00000C3C00000C1C00000BFC0000038
:1000C000BDC00000BBC000000C94BE270C946A3475
:1000D0000C94A034B3C000000C94F6340C942C356E
:1000E000ADC0000000000A0B02090C0D0E0807034A
:1000F00004010000000000000000000000000000FB
:1001000000000000000000000000000000000000EF
:1001100012111000000000000000000000000000AC
:100120000000000000000000000001021020200874
:100130000810204010204080020102010804020142
:1001400001020408102040808040201008040201B1
:10015000800402018040201008040201080402010A
:100160000102040810204080010204081020408091
:1001700005050505070508080808020202020A0A23
:100180000808040404040101010101010101030341
:10019000030303030303040707070C0C0C0C0C0CEC
:1001A0000C0C0202020206060606060606060B0BE9
:1001B0000B0B0B0B0B0B00002200250028002B0063
:1001C0002E003100340002010000050108010B017E
:1001D000CC2CB1333D34C934553511241FBECFEF7B
:1001E000D1E2DEBFCDBF00E00CBF12E0A0E0B2E084
:1001F000E2E3FCE600E00BBF02C007900D92A63DD3
:10020000B107D9F729E0A6EDB2E001C01D92AC3AE2
:10021000B207E1F710E0CDEED0E000E006C0219794
:100220000109802FFE010E94E635C83ED10780E01B
:100230000807A9F70E94E1280C941736E1CECF9267
:10024000DF92EF92FF926B017C01C114D104E104B3
:10025000F10469F480910002811109C080910202C9
:10026000909103020E943D2C81E080930002C60120
:10027000880F991F880F991F80509E4FFF90EF9015
:10028000DF90CF900895009781F0FC01218121112A
:1002900004C040EA56E861E070E0FC01828193818D
:1002A0000E944C2C90E080E0089588E090E0089552
:1002B0004F925F926F927F928F929F92AF92BF9276
:1002C000CF92DF92EF92FF920F931F93CF93DF9322
:1002D0000097C9F1280139017A01EC01402F8A8188
:1002E0009B810E94CA2C8A819B81DC01ED91FC914B
:1002F0000084F185E02D1995892B01F16701812C8E
:10030000912C54018A819B81DC01ED91FC91008448
:10031000F185E02D1995892B91F184149504A6049B
:10032000B70469F18A819B81DC01ED91FC91028423
:10033000F385E02D19958F3F9807C1F484E0F7010C
:1003400011928A95E9F788E090E0DF91CF911F91B3
:100350000F91FF90EF90DF90CF90BF90AF909F9064
:100360008F907F906F905F904F900895FFEF8F1A5E
:100370009F0AAF0ABF0AD6018D936D01C3CF90E0EB
:1003800080E0E3CF8F929F92AF92BF92CF92DF92A5
:10039000EF920F931F93CF93DF930097F1F06A01D1
:1003A000EC018A819B810E944F2C8A819B81DC0118
:1003B000ED91FC910280F381E02DA801B601199521
:1003C0008A819B8160E0E11001C061E00E94592CAC
:1003D000882389F08250823088F088E090E0DF91B5
:1003E000CF911F910F91EF90DF90CF90BF90AF9082
:1003F0009F908F90089590E080E0F1CF84E090E0AE
:10040000EECF08958130910571F01CF4892B39F0FD
:1004100008958230910551F0039759F0089582EFC5
:1004200096E00C94F2328FE897E0FBCF8CE298E0F4
:10043000F8CF89EC98E0F5CF8F929F92AF92BF9260
:10044000CF92DF92EF92FF926B017C010E94CC3041
:100450004B015C010E94CC30681979098A099B091B
:10046000C616D706E806F906A8F7FF90EF90DF90CA
:10047000CF90BF90AF909F908F9008950C94CC3008
:1004800090E080E008950F931F93009709F488C0CF
:100490006115710509F484C00091080210910902E8
:1004A00020910A0230910B020E3F1F4F2F4F3F4FFA
:1004B00009F067C04FEF5FEFBA0140930802509315
:1004C000090260930A0270930B0240910802509156
:1004D000090260910A0270910B02DC011296ED9103
:1004E000FC9180819181A281B38180934403909398
:1004F0004503A0934603B093470384819581A68169
:10050000B7818093400390934103A0934203B0933B
:10051000430380859185A285B38580933C039093A6
:100520003D03A0933E03B0933F0384859585A68544
:10053000B7858093380390933903A0933A03B0931F
:100540003B0310923403109235031092360310923D
:1005500037030E94BD0B82EE9BE09093D7028093FD
:10056000D6029093D9028093D802F6D7009731F43F
:1005700021E030E030934903209348031F910F910D
:100580000895009108021091090220910A02309109
:100590000B02DB010D931D932D933C93139795CF85
:1005A0008FEF9FEFEBCF8F929F92AF92BF92CF9240
:1005B000DF92EF92FF921F93CF93DF934B015C0189
:1005C00010914B0382E090E090934903809348039D
:1005D00081149104A104B10441F480914B03811171
:1005E00004C080914A03C1E08111C0E0C12CD12C2C
:1005F000760180914B03811106C080914A038111DD
:1006000002C0CC23D9F083E090E09093490380931B
:100610004803CC2379F1CCE9DFEF111102C00E942D
:10062000460FCE01DF91CF911F91FF90EF90DF90A9
:10063000CF90BF90AF909F908F9008956AE070E048
:1006400080E090E00E94FD3080E1C80E87E2D81E75
:10065000E11CF11C8FEF88169806A806B80631F049
:10066000C1E08C149D04AE04BF0408F0C0E080E03B
:10067000A7D7BFCFD0E0C0E0D0CFCF92DF92EF922C
:10068000FF920F931F93CF93DF938F3F910511F04C
:1006900008F050C0209148033091490323303105C0
:1006A00039F020914803309149032130310531F46C
:1006B00024E030E030934903209348036A017B0132
:1006C000EC0182309105A0F011E0AE01C701B60146
:1006D00042D7AB01BC01CE011123F9F0DF91CF91DC
:1006E0001F910F91FF90EF90DF90CF900C946F11BE
:1006F0008C01000F111F0A521D4FD8018D919C9142
:10070000892B11F30E9479110297F1F6D801ED912E
:10071000FC91CE011995182FD8CF0E94911190E02D
:1007200080E0DF91CF911F910F91FF90EF90DF90CC
:10073000CF9008958FEF9FEFF4CF80E041C7CF9324
:10074000DF9386E090E0909349038093480391D72C
:10075000EC01E6EDF2E084E0DF011D928A95E9F715
:100760000E94DE0E1092490310924803CE01DF91E1
:10077000CF91089580914A0308958091330308959D
:10078000609308027093090280930A0290930B020F
:1007900090E080E008954F925F926F927F928F92E7
:1007A0009F92AF92BF92CF92DF92EF92FF920F9300
:1007B0001F93CF93DF93CDB7DEB761970FB6F89451
:1007C000DEBF0FBECDBFC0900402D0900502E09006
:1007D0000602F0900702A701960160918D097091C1
:1007E0008E0980918F09909190090E94CF298823CA
:1007F00041F0C0928D09D0928E09E0928F09F0925B
:10080000900980919509811114C038DE0E94672AF1
:1008100020E030E04AE754E40E94D3296093910934
:1008200070939209809393099093940981E0809347
:1008300095091092A6098BE3898BC12CEE24E394D1
:1008400001E010E020E030E0AE014F5E5F4F68E66F
:1008500070E080919B0990919C0994DD882389F038
:100860001F82188619861A861B861C869091A709F6
:1008700091118CC09091A60991111DC08093A60979
:100880001AC0CC24C394E12C06E010E020E030E054
:10089000AE014F5F5F4F68E670E080919B099091D9
:1008A0009C0906DD86E0FE013196DE011796019077
:1008B0000D928A95E1F76F817885762767277627ED
:1008C000072E000C880B990B0E94692A4B015C01D2
:1008D00069857A85762767277627072E000C880B8F
:1008E000990B0E94692A6B017C016B857C857627B8
:1008F00067277627072E000C880B990B0E94692A20
:100900002B013C018091A809882309F443C010926F
:10091000660910926709109268091092690910928D
:100920006A0910926B0910926C0910926D0910926D
:100930006E0910926F09109270091092710983E488
:10094000898BC12CEE24E39401E010E020E030E03C
:10095000AE014F5E5F4F68E670E080919B09909119
:100960009C0910DD882309F458C01F821886198657
:100970001A861B861C869091A709911179C19091C6
:10098000A609911164C08093A60961C081E080939B
:10099000A80991CF2AE038EE4CE151E4C501B40139
:1009A0000E941D2B20E030E040E05AE30E941D2B06
:1009B0006093660970936709809368099093690949
:1009C0002AE038EE4CE151E4C701B6010E941D2B2C
:1009D00020E030E040E05AE30E941D2B60936A095A
:1009E00070936B0980936C0990936D092AE038EE3F
:1009F0004CE151E4C301B2010E941D2B20E030E024
:100A000040E05AE30E941D2B60936E0970936F09BA
:100A1000809370099093710992CFCC24C394E12CF8
:100A200006E010E020E030E0AE014F5F5F4F68E687
:100A300070E080919B0990919C093ADC86E0FE0170
:100A40003196DE01179601900D928A95E1F76F813C
:100A50007885762767277627072E000C880B990B59
:100A60000E94692A4B015C0169857A857627672790
:100A70007627072E000C880B990B0E94692A6B01C0
:100A80007C016B857C85762767277627072E000CEF
:100A9000880B990B0E94692A2B013C018091A809BF
:100AA000882309F4E9C01092720910927309109218
:100AB00074091092750910927609109277091092B4
:100AC00078091092790910927A0910927B09109294
:100AD0007C0910927D0981E4898BC12CEE24E3947A
:100AE00001E010E020E030E0AE014F5E5F4F68E6CD
:100AF00070E080919B0990919C0944DC8111EDC0CC
:100B0000CC24C394E12C02E010E020E030E0AE0100
:100B1000435F5F4F68E670E080919B0990919C096C
:100B2000C7DB8D859E85988B8F878091A809882348
:100B300009F4E4C010927E0910927F091092800996
:100B40001092810980E28093860998DC0E94672ACE
:100B500020E030E04AE754E40E94D3292091910933
:100B60003091920940919309509194090E946A2909
:100B70006093820970938309809384099093850917
:100B8000C0900603D0900703E0900803F09009039B
:100B90008FEFC81AD80AE80AF80AC0920603D09262
:100BA0000703E0920803F0920903C114D104E104A1
:100BB000F10499F480910A0390910B03A0910C0326
:100BC000B0910D030196A11DB11D80930A0390936E
:100BD0000B03A0930C03B0930D0380900E03909031
:100BE0000F03A0901003B090110360910A0370915D
:100BF0000B0380910C0390910D030E94672AA501BD
:100C000094010E941D2B20E030E040E85FE40E9448
:100C10001D2B2B013C01C701B6010E94672AA501CB
:100C200094010E941D2B9B01AC01C301B2010E94E3
:100C30006B296093020370930303809304039093E2
:100C4000050361960FB6F894DEBF0FBECDBFDF91EE
:100C5000CF911F910F91FF90EF90DF90CF90BF90B9
:100C6000AF909F908F907F906F905F904F9008957E
:100C700081E08093A809EBCE20E030E04AEF5BE30F
:100C8000C501B4010E941D2B609372097093730912
:100C9000809374099093750920E030E04AEF5BE39C
:100CA000C701B6010E941D2B6093760970937709E6
:100CB000809378099093790920E030E04AEF5BE374
:100CC000C301B2010E941D2B60937A0970937B09C6
:100CD00080937C0990937D09FECE1F86188A90919F
:100CE000A709992321F081E08093A8091ECF909154
:100CF000A60991111ACF8093A60917CF6F8578891D
:100D0000762767277627072E000C880B990B0E9401
:100D1000692A20E030E04AEA53E40E94D32928EB14
:100D20003EE142E152E40E946B2960937E09709398
:100D30007F0980938009909381098091A60903CF50
:100D4000CF92EF92FF920F931F93CF93DF9300D038
:100D50001F921F92CDB7DEB7ECEEF2E08BE2DF011F
:100D60001D928A95E9F780E090E0A0E8BFEB8093C0
:100D7000120390931303A0931403B09315038AE016
:100D800097EDA3E2BCE380930E0390930F03A0932F
:100D90001003B093110383E99CE6A3E4B7E38093C7
:100DA000F0029093F102A093F202B093F3028EE965
:100DB00097E8AFECBDEB8093F4029093F502A0931B
:100DC000F602B093F7028AE09DE1ABECBAE18093C2
:100DD000F8029093F902A093FA02B093FB0286EF17
:100DE00098EAA0E5B6EA8093FC029093FD02A093F6
:100DF000FE02B093FF0280EE92E09093EF028093A8
:100E0000EE028AED92E09093E1028093E00281E3AA
:100E100092E09093DB028093DA029093DD0280935C
:100E2000DC029093DF028093DE0280E093E09093F7
:100E3000E5028093E40280EF92E09093E3028093D6
:100E4000E20282E093E09093E7028093E602E6E616
:100E5000F9E081E2DF011D928A95E9F7EBE8F9E01C
:100E60008FE1DF011D928A95E9F780E090E5A3EC20
:100E7000B8E48093A1099093A209A093A309B09329
:100E8000A40910928709FF24F394F092A909809194
:100E9000040290910502A0910602B091070280938E
:100EA0008D0990938E09A0938F09B093900981E0EA
:100EB00090E0A0E0B0E08093880990938909A09326
:100EC0008A09B0938B09F092A70950E040E060E0F6
:100ED00070E0CB01B4D990939C0980939B0940EAC0
:100EE00056E861E070E040939D0950939E0960933D
:100EF0009F097093A009C7D980E88A838BE689830C
:100F000089819A819C838B83C12CE12C02E010E0C3
:100F100020E030E0AE014D5F5F4F68E670E0809109
:100F20009B0990919C092EDA882339F09091A709AA
:100F3000992309F469C1F092A80961E070E080E0AA
:100F400090E07ADA1A8289819A819C838B83C12C02
:100F5000E12C02E010E020E030E0AE014D5F5F4F99
:100F600068E670E080919B0990919C090BDA8823D8
:100F700041F09091A709992309F44DC181E0809334
:100F8000A80964E670E080E090E056DA85E78D839A
:100F9000C12CEE24E39401E010E020E030E0AE014B
:100FA0004B5F5F4F68E670E080919B0990919C09D0
:100FB000E9D9811167C1CC24C394E12C01E010E090
:100FC00020E030E0AE014B5F5F4F68E670E080915B
:100FD0009B0990919C096CD99D8181E0983609F01C
:100FE00080E08093A509983609F0F9C089E18983EA
:100FF00089819A819C838B83C12CE12C02E010E0D3
:1010000020E030E0AE014D5F5F4F68E670E0809118
:101010009B0990919C09B6D9882341F09091A7092A
:10102000992309F404C181E08093A8098CE18D83A0
:10103000C12CEE24E39401E010E020E030E0AE01AA
:101040004B5F5F4F68E670E080919B0990919C092F
:1010500099D9811122C1CC24C394E12C01E010E084
:1010600020E030E0AE014B5F5F4F68E670E08091BA
:101070009B0990919C091CD99D8198619A838CE170
:10108000898389819A819C838B83C12CE12C02E026
:1010900010E020E030E0AE014D5F5F4F68E670E0A9
:1010A00080919B0990919C096DD9882341F0909182
:1010B000A709992309F4C7C081E08093A8098BE1AF
:1010C0008D83C12CEE24E39401E010E020E030E0B9
:1010D000AE014B5F5F4F68E670E080919B09909195
:1010E0009C0950D98111E4C0CC24C394E12C01E0C7
:1010F00010E020E030E0AE014B5F5F4F68E670E04B
:1011000080919B0990919C09D3D89D81977E9A8369
:101110008BE1898389819A819C838B83C12CE12C0B
:1011200002E010E020E030E0AE014D5F5F4F68E686
:1011300070E080919B0990919C0924D9882341F00B
:101140009091A709992309F48AC081E08093A809A6
:101150008AE18D83C12CEE24E39401E010E020E0CD
:1011600030E0AE014B5F5F4F68E670E080919B0915
:1011700090919C0907D98111A6C0CC24C394E12C7D
:1011800001E010E020E030E0AE014B5F5F4F68E629
:1011900070E080919B0990919C098AD89D81987FED
:1011A00091609A838AE1898389819A819C838B8368
:1011B000C12CE12C02E010E020E030E0AE014D5FF8
:1011C0005F4F68E670E080919B0990919C09DAD8A6
:1011D000882341F09091A709992309F44CC081E03C
:1011E0008093A8091092A70981E080938C090F9041
:1011F0000F900F900F900F90DF91CF911F910F9153
:10120000FF90EF90CF9008959091A609911195CEFF
:101210008093A60992CE9091A6099111B2CE8093A7
:10122000A609AFCE81E08093A80990E0D6CE909138
:10123000A6099111FBCE8093A609F8CE81E0809398
:10124000A80990E01ACF9091A609911138CF809308
:10125000A60935CF81E08093A80990E057CF9091FF
:10126000A609911175CF8093A60972CF81E0809372
:10127000A80990E094CF9091A6099111B3CF8093E3
:10128000A609B0CF9091A7099111CCCF9091A60952
:101290009111CBCF8093A609A0CE9091A70991116F
:1012A000CDCF9091A6099111CCCF8093A609E5CE20
:1012B0009091A7099111CECF9091A6099111CDCF10
:1012C0008093A60923CF9091A7099111CFCF909138
:1012D000A6099111CECF8093A60961CF809187098D
:1012E000811118C081E080938709809188099091CD
:1012F0008909A0918A09B0918B090197A105B105CF
:1013000049F480918C09882329F080919B09909160
:101310009C0977D88091960981111BC081E0809348
:1013200096098091970990919809A0919909B09197
:101330009A090197A105B10561F482E090E0A0E06F
:10134000B0E08093970990939809A0939909B0937E
:101350009A0908954F925F926F927F928F929F9217
:10136000AF92BF92CF92DF92EF92FF920F931F93B3
:10137000F8944090230350902403609025037090CC
:101380002603C0901703D0901803E0901903F09043
:101390001A03452B09F0A4C09B01AC01241935099F
:1013A0004609570929013A0100911F0310912003B2
:1013B000209121033091220348015901840C951C8E
:1013C000A61CB71C80169106A206B306A0F40091D5
:1013D0001B0310911C0320911D0330911E030F5F0E
:1013E0001F4F2F4F3F4F00931B0310931C0320935D
:1013F0001D0330931E0380921F0390922003A0923E
:101400002103B092220300911B0310911C03209131
:101410001D0330911E038092270390922803A0920F
:101420002903B0922A0300932B0310932C032093DB
:101430002D0330932E036093230370932403809332
:10144000250390932603A0E1B7E2A30192010E9435
:10145000EE356C0D7D1D8E1D9F1D609317037093DF
:1014600018038093190390931A03009108021091B6
:10147000090220910A0230910B020F3F1F4F2F4F9C
:101480003F4FF1F0009108021091090220910A02E9
:1014900030910B020E3F1F4F2F4F3F4F89F0C090EE
:1014A0000802D0900902E0900A02F0900B0221E0BD
:1014B0008C149D04AE04BF0408F420E02093330391
:1014C00078941F910F91FF90EF90DF90CF90BF9095
:1014D000AF909F908F907F906F905F904F90089506
:1014E0004B015C0184189508A608B708A301920176
:1014F000261B370B480B590B641575058605970598
:10150000D0F082169306A406B50640F420E030E041
:10151000A90181149104A104B10491F4A0E1B7E2FE
:101520000E94EE35A7019601261B370B480B590B7D
:10153000CA01B901C5CF82169306A406B50670F795
:10154000A0E1B7E2A50194010E94EE356C0D7D1D6E
:101550008E1D9F1DB5CFFECECF93DF9300D01F927F
:10156000CDB7DEB71C821B821A82198210922F031C
:10157000109230031092310310923203BE016F5F5C
:101580007F4FCE0103960E94A72769817A818B81C4
:101590009C810E949520009761F4BE016F5F7F4F90
:1015A000CE0103960E94B32769817A818B819C8149
:1015B0002ED50F900F900F900F90DF91CF9108953F
:1015C000FF920F931F93CF93DF93082F60E070E09B
:1015D000CB010E94FD30FF24F3940E947E1FEC019A
:1015E000892B89F010E0CE3F8FEFD80769F00023F8
:1015F00061F160E070E0CB010E94FD3081E090E09D
:10160000892B59F322C011E025D5EC01892B21F05B
:10161000CE3F8FEFD80759F711111EC011E0229667
:1016200009F410E00E942E1FEC01892B21F0CE3F1F
:101630008FEFD807E1F6111111C011E0CE3F8FEF07
:10164000D80709F410E001110BC0CE01DF91CF9152
:101650001F910F91FF90089511E0E4CF11E0F3CFB7
:1016600060E070E0CB010E94FD301F25812F90E0EB
:10167000C7CFCF93DF9380913303882321F060E0BD
:1016800070E0CB014CD635D6D0E0C0E0892B71F0AC
:101690006AE070E080E090E00E94FD3081E090DF41
:1016A00028D62196C03D27E0D20781F727D60E9491
:1016B000E92010924B0310924A03109244031092B7
:1016C0004503109246031092470310924003109274
:1016D0004103109242031092430310923C03109274
:1016E0003D0310923E0310923F0310923803109274
:1016F000390310923A0310923B0310923403109274
:10170000350310923603109237034EEF5FEF6FEF01
:101710007FEF409308025093090260930A0270938E
:101720000B0210923303E7E2F3E028E0DF011D92A1
:101730002A95E9F7109223031092240310922503AF
:101740001092260310921F0310922003109221037F
:101750001092220310921B0310921C0310921D037F
:1017600010921E031092170310921803109219037F
:1017700010921A03DF91CF9108951092570310929F
:1017800058031092590310925A03109256038091F5
:101790005F039091600390935503809354031092DC
:1017A00053031092520310924E0310924F03109263
:1017B00050031092510310925C0310925B0390E06F
:1017C00080E00895CF92DF92EF92FF920F931F93E4
:1017D000CF938C01892B09F055C020915F03309184
:1017E0006003809154039091550340915F035091A1
:1017F000600350935503409354032817390781F031
:10180000109253031092520310924E0310924F0302
:10181000109250031092510310925C0310925B03DC
:1018200080915F0390916003019761F580915B0364
:1018300090915C03892B21F480910C02811112C0DC
:1018400080915B0390915C030197E1F480914E03DA
:1018500090914F03A0915003B09151030197A105BE
:10186000B10581F410924E0310924F031092500371
:101870001092510310920C0282E090E090935C036E
:1018800080935B0380915F0390916003019709F05F
:101890001CC180917503909176038017910709F020
:1018A00014C18091710390917203A0917303B09160
:1018B0007403009709F409C12091700321110DC030
:1018C000409171035091720360917303709174039E
:1018D000452B462B472B09F4F8C020915B03309130
:1018E0005C032230310509F0F0C020915203211130
:1018F000ECC0FC01C080D180E280F380809156036F
:10190000882309F4D3C08091620390916303892BEB
:1019100009F4FDC0209162033091630381E022301D
:10192000310509F080E02091620330916303C1E04A
:101930002130310549F02091620330916303C1E009
:101940002230310509F0C0E0882309F456C0209107
:101950006C0330916D0340916E0350916F03C7018A
:10196000B6010E94192B87FD14C020916C033091A1
:101970006D0340916E0350916F0360915703709116
:1019800058038091590390915A030E94CF2987FDF3
:1019900022C020916C0330916D0340916E035091F1
:1019A0006F03C701B6010E94192B181634F5209158
:1019B0006C0330916D0340916E0350916F03609101
:1019C0005703709158038091590390915A030E94D4
:1019D000CF29811112C08091640390916503A09179
:1019E0006603B0916703892B8A2B8B2B19F481E056
:1019F0008093530381E080935203CC2309F456C0B3
:101A000020916C0330916D0340916E0350916F03F0
:101A1000C701B6010E94CF2987FF14C020916C0333
:101A200030916D0340916E0350916F0360915703A5
:101A3000709158038091590390915A030E94192B79
:101A400087FF22C020916C0330916D0340916E039B
:101A500050916F03C701B6010E94CF29811126C0A2
:101A600020916C0330916D0340916E0350916F0390
:101A700060915703709158038091590390915A03D4
:101A80000E94192B181694F48091640390916503B9
:101A9000A0916603B0916703892B8A2B8B2B19F4D5
:101AA00081E08093530381E08093520381E0909121
:101AB0005203911180E080935603C0925703D09255
:101AC0005803E0925903F0925A03012B09F067C1C1
:101AD00080915B0390915C03892BD9F41092610390
:101AE0001092520380910C02882379F082E090E0FA
:101AF00090935C0380935B0310920C0220915F0330
:101B00003091600381E0232BE9F080E01BC081E08D
:101B10000ACF10920C0280916103882349F0109241
:101B2000530310925C0310925B0310926103EDCF9C
:101B300080915F0390916003892BE1F080915203C3
:101B40001092520320915B0330915C0322303105E7
:101B500009F45EC088F42115310509F448C021302C
:101B6000310509F4F3C010925303109252031092FE
:101B7000610338C081E0E6CF2330310509F4B1C0FC
:101B80002430310581F740914E0350914F0360910D
:101B9000500370915103411551056105710561F0C4
:101BA000415051096109710940934E0350934F030D
:101BB000609350037093510340914E0350914F0333
:101BC0006091500370915103452B462B472BD9F45C
:101BD00020915D0330915E032130310509F046C04C
:101BE0001092530310925C0310925B030CC080911F
:101BF0000C02882341F082E090E090935C03809394
:101C00005B0310920C0210924C0380915303CEC0E0
:101C10008823C9F38091640390916503A0916603C2
:101C2000B0916703181619061A061B060CF07DC042
:101C300080915F0390916003019709F076C08091D5
:101C4000640390916503A0916603B091670380934C
:101C50004E0390934F03A0935003B093510383E03E
:101C600090E090935C0380935B03CDCF4091680339
:101C70005091690360916A0370916B03452B462B69
:101C8000472BA9F010925303809168039091690348
:101C9000A0916A03B0916B0380934E0390934F031E
:101CA000A0935003B093510381E090E0DACF8823F2
:101CB00099F080910D0290910E02A0910F02B091C7
:101CC000100280934E0390934F03A0935003B09360
:101CD000510384E090E0C5CF1092530382E090E07E
:101CE000C0CF80914E0390914F03A0915003B091CB
:101CF00051030097A105B10559F00197A109B10958
:101D000080934E0390934F03A0935003B0935103DD
:101D100080914E0390914F03A0915003B0915103D5
:101D2000892B8A2B8B2B09F06ECF80910D0290911D
:101D30000E02A0910F02B0911002892B8A2B8B2BDF
:101D400009F44ECF81E080935303B3CF40914E030B
:101D500050914F036091500370915103411551050B
:101D60006105710561F041505109610971094093A4
:101D70004E0350934F03609350037093510340916F
:101D80004E0350914F036091500370915103452BC6
:101D9000462B472B09F037CF8111C7CF9FCF8091BA
:101DA0004C03882309F431CF80914D03CF911F91CB
:101DB0000F91FF90EF90DF90CF900895109257030E
:101DC000109258031092590310925A03109256031E
:101DD00010925C0310925B0310925503109254030F
:101DE00010927603109275031092530310925203CF
:101DF00010924E0310924F03109250031092510311
:101E000010924D0310924C031092710310927203C2
:101E100010927303109274031092700310926C036B
:101E200010926D0310926E0310926F0388EE93E090
:101E3000A0E0B0E080930D0290930E02A0930F02F9
:101E4000B0931002109268031092690310926A0313
:101E500010926B0310926403109265031092660354
:101E600010926703109263031092620381E08093E3
:101E70000C02109261031092600310925F031092A3
:101E80005E0310925D0390E080E0089580915F030F
:101E900090916003892B19F580910C02882351F0F1
:101EA00080916103811106C081E080934D0380938E
:101EB0004C0308952091610330910C0281E090E081
:101EC000332311F090E080E030E082239323892BCC
:101ED00021F010924D0381E0EACF10924C03089557
:101EE00082E090E0FA01918380838FEF9FEF089565
:101EF000CF93DF93EA01009711F00E940922198223
:101F0000188290E080E0DF91CF910895DB01009787
:101F100019F48FEF8C9308952EEF2C93FC013F96CC
:101F2000EF30F10508F034C08827E656F04F8F4FA8
:101F30000C94E635C60FC40FC20FC00FBE0FBA0F08
:101F4000BC0FB80FB60FB40FB10FAD0FA90FAF0F85
:101F5000C80F80E311968C93089589E2FBCF82E24B
:101F6000F9CF11961C92089583E2F4CF81E2F2CF6B
:101F700081E1F0CF87E2EECF8AE2ECCF80E1EACFD9
:101F800084E2E8CF88E2E6CF86E2E4CF81E3E2CFE5
:101F900080E2E0CF80918303909184030895909331
:101FA0008403809383030895809182030895909120
:101FB0008203892B809382030895982F90958091B6
:101FC0008203892380938203089580918103089579
:101FD00080917F039091800308956115710559F0F8
:101FE000FB0130E020E070E060E02417350719F0D5
:101FF0006115710511F0CB010895A081B181A81779
:10200000B90709F4BF012F5F3F4F3696EECF80919D
:10201000850381111CC060D266D2909378038093AF
:1020200077030E94071A0E94191A90937C038093E9
:102030007B030E94961E0E949D1E90937A038093BC
:10204000790381E08093850390E080E0089584EF38
:102050009FEF08958F929F92AF92BF92CF92DF929F
:10206000EF92FF920F931F93CF93DF9300D000D096
:1020700000D01F92CDB7DEB71A86198618861F8248
:102080001E821D821C821B821A8219828091850306
:1020900007EF1FEF882309F49CC08E010D5F1F4FCF
:1020A0009E012B5F3F4FAE01495F5F4FBE01675FEF
:1020B0007F4F90E080E00E941A208C01009721F071
:1020C0000596029708F0DBC029853A852115310570
:1020D00009F402C1ED80FE804B815C81B701640F81
:1020E000751F8F8198858617970708F4F5C0E20E53
:1020F000F31ED7019C91903C09F07FC042305105FE
:1021000008F47BC011968C91409183035091840315
:10211000452B09F49CC0913F08F071C02CE1290FB8
:102120002D3008F48BC02DE2290F203108F489C02E
:10213000903C21F48150823008F483C088E3890FF9
:102140008B3008F481C096E8C92E9FE0D92EE0E7D5
:10215000FFE06D817E81AE014F5F5F4F89859A857B
:1021600019955C01C114D104A1F189809A80811470
:10217000910479F18B819C818815990508F487C0B9
:1021800010E000E04B815C8170E060E0C7010E94DC
:10219000103601151105E9F449815A8169857A855E
:1021A0008D819E81680F791FC501F6011995E9801F
:1021B000FA800D811E812F81388549855A856FEF00
:1021C0007FEF81E090E00E94B51F8C01892B09F020
:1021D00056C0C8012A960FB6F894DEBF0FBECDBF19
:1021E000DF91CF911F910F91FF90EF90DF90CF90F3
:1021F000BF90AF909F908F90089580E085CF30E0A2
:1022000020E0220F331FF901E958FC4F0190F081C3
:10221000E02D309709F497CF892F90E0199500971A
:1022200009F491CFDC011296ED91FC91139714966D
:10223000CD90DC90309709F08CCF1FC021E030E0CA
:10224000E0CF22E030E0DDCF23E030E0DACFD12C68
:10225000C12CE8E7FFE09F3F09F07BCFE0917703D7
:10226000F0917803309721F4C90104EF1FEF0CC0FF
:102270008FEF90E019950097A9F604EF1FEF89857D
:102280009A85009709F4A5CF0E940922A2CF0E9447
:10229000E4208C0189859A850E94092270E060E023
:1022A000C4010E947D2098878F830E94B21F9E8365
:1022B0008D836F8178856115710559F0C8010E9481
:1022C00095239A87898706EF1FEF892B09F058CF4E
:1022D00059CF08EF1FEF56CF08EF1FEFD0CF209157
:1022E0008503222319F020E00C941E1A87EF9FEF3C
:1022F0000895809183039091840308950E94A21E03
:102300000E94FC1DF5D0E7E7F3E088E0DF011D92B5
:102310008A95E9F71092850390E080E008950C9487
:102320005A1C21E040E050E0BA010C941E1A86E0ED
:1023300090E0FA019183808390E080E0089547E087
:1023400050E064E372E049CEDF92EF92FF920F9388
:102350001F93CF93DF938A01EC01C60FD71FE09044
:102360008903F0908A03D9800E94CC20D8161906E0
:1023700078F082E090E0F801918380838EEF9FEF08
:10238000DF91CF911F910F91FF90EF90DF90089513
:10239000EF2841F482E090E0F8019183808384EF9C
:1023A0009FEFEECF89818093880390E00196F8013A
:1023B0009183808390E080E0E3CFCF93DF93EA01C5
:1023C0000E940B1D882321F00E94D9200E940C1D21
:1023D00082E090E0998388838BEF9FEFDF91CF912C
:1023E0000895CF93DF93EB0186E0FB0111928A956C
:1023F000E9F78FEF8883D8DD8983E7DD8A83E8DD1D
:102400009D838C83DF91CF910895CF93DF93EA0171
:102410000E940E1D811109C082E090E0998388839B
:1024200085EF9FEFDF91CF91089590E080E0B7DDD9
:1024300081E090E09983888390E080E0F3CF0F9370
:102440001F93CF93DF93EA018C01060F171F0E94A1
:102450000E1D81110BC082E090E09983888385EF87
:102460009FEFDF91CF911F910F910895F801818126
:10247000823038F082E090E0998388838EEF9FEF7E
:10248000F0CF81E090E08BDD88E090E09983888355
:1024900090E080E0E6CFCF93DF930097D1F4EB019B
:1024A000FB01329686E0DF011D928A95E9F78FEFF6
:1024B000888385E089831A820E94CC208B830E94C6
:1024C000CB209D838C8381E08E838F83DF91CF919E
:1024D0000895DF91CF911ACD8FE991E19093870311
:1024E00080938603089580918603909187030895D1
:1024F000109287031092860308958091890390912A
:102500008A030895411105C0611571058105910582
:1025100061F06093890370938A0380938B03909397
:102520008C0340938D0381E0089580E00895FF922D
:102530000F931F93CF93DF938A01EC01C60FD71F30
:10254000F9800E94CC20F816190668F082E090E02D
:10255000F801918380838EEF9FEFDF91CF911F91E0
:102560000F91FF9008956C817D818E819F814B81B9
:10257000C9DF811108C082E090E0F8019183808377
:1025800084EF9FEFEACF89818093880390E00196E2
:10259000F8019183808390E080E0DFCFCF93DF93D9
:1025A000EA01FC01E60FF71F64817581868197813E
:1025B0004381A8DF811109C082E090E0998388837C
:1025C00084EF9FEFDF91CF91089581E090E09983B0
:1025D000888390E080E0F6CFE9E8F3E04081518124
:1025E00062817381480F511D611D711D40835183AC
:1025F000628373830895CF93C09188034C2F50E07A
:102600006091890370918A0301960E9407368C2F8E
:10261000E3DF10928803CF910895009799F4809199
:10262000890390918A032FEFFB012083892B59F0B6
:102630002091880330E02F5F3F4F2417350719F4AE
:10264000CB01D9CF63CC0895009799F48091890389
:1026500090918A032FEFFB012083892B59F0209161
:10266000880330E02F5F3F4F2417350719F4CB0163
:10267000C2CF4CCC089523E1AC01249FC001259F1B
:10268000900D1124E0919203F0919303E80FF91F4C
:10269000238134812250310981E02230310508F054
:1026A00080E008950F931F93CF93DF9300919403DD
:1026B00010919503D0E0C0E080E00C171D0749F4AD
:1026C00091E0811190E0892FDF91CF911F910F91BF
:1026D00008958111F5CFCE01CEDF2196EECFA091E6
:1026E0009203B0919303109729F1209194033091B4
:1026F000950382179307F0F453E1589F9001599F77
:10270000300D1124A20FB31FED91FC91119730975A
:1027100089F012968C91681768F48DE0689FE00D3F
:10272000F11D112480819181892B21F081E092811A
:10273000491708F080E008959C0143E1429FC001E1
:10274000439F900D1124E0919203F0919303E80FC1
:10275000F91F8385823091F481E090E06581768174
:1027600040911102509112026417750711F490E024
:1027700080E0892B19F081E0232B09F080E0089597
:10278000FC01A081B1818DE0689FA00DB11D1124D5
:1027900013964D915C9185859685489F9001499F40
:1027A000300D589F300D1124C9010196611103C0ED
:1027B000478144FD04960895EF92FF920F931F9373
:1027C000CF93DF93EA01FC01E60FF71F028113812B
:1027D000E480F5804F2D6E2DC80181DF81110DC081
:1027E00082E090E0998388838EEF9FEFDF91CF9115
:1027F0001F910F91FF90EF900895C8013CDF88234F
:1028000039F082E090E09983888388EF9FEFEECFE4
:102810001093180200931702E0921902F0921A0224
:1028200081E090E09983888390E080E0DFCFCF92D1
:10283000DF92EF92FF920F931F93CF93DF937A0172
:10284000EC01C60FD71FC0901702D090180200915C
:10285000190210911A02412F602FC60140DF811129
:1028600010C082E090E0F701918380838AEF9FEFB0
:10287000DF91CF911F910F91FF90EF90DF90CF905C
:102880000895C601F8DE882341F082E090E0F70168
:102890009183808388EF9FEFEBCF4C815D816E81C8
:1028A0007F819A8189818F3F41F082E090E0F7013A
:1028B000918380838EEF9FEFDBCFE3E1EC9D90016E
:1028C000ED9D300D1124E0919203F0919303E20FFE
:1028D000F31F0190F081E02D2DE0029FE00DF11D2E
:1028E00011240190F081E02D27E0129FE00DF11DF1
:1028F0001124808391838B818283438354836583F6
:1029000076831F5F10931A0281E090E0F7019183B4
:10291000808390E080E0ACCFEF92FF920F931F9303
:10292000CF93DF937A018C01060F171FC09192039A
:10293000D0919303209781F021E030E0F80182816B
:10294000938140919403509195038417950710F05B
:1029500030E020E0232B71F482E090E0F7019183D6
:1029600080838EEF9FEFDF91CF911F910F91FF90AA
:10297000EF90089543E1489F9001499F300D112445
:10298000C20FD31F78DE882341F082E090E0F70188
:102990009183808388EF9FEFE6CFF8012481358112
:1029A00020383105C8F687818111D6CF4181842F27
:1029B00090E08F7E009741F082E090E0F7019183F4
:1029C000808386EF9FEFCFCF4F833E832D83268179
:1029D00028871986223010F421E0288721E030E092
:1029E000F70131832083BFCF88E090E0FA01918323
:1029F000808390E080E00895FB018FEF808381E188
:102A000081838FEF9FEF9383828380E890E09583AB
:102A10008483168217820895FB018FEF808391E0F3
:102A2000918382839383848384E3858381E090E030
:102A3000978386830895DF92EF92FF920F931F93FF
:102A4000CF93DF93EA01FC01E60FF71F818181300C
:102A500071F082E090E0998388838FEF9FEFDF91A0
:102A6000CF911F910F91FF90EF90DF900895828199
:102A70009381D4802581E680F780009192031091A4
:102A800093030115110539F482E090E0998388835E
:102A90008CEF9FEFE4CF40919403509195038417FE
:102AA000950738F082E090E0998388838EEF9FEF5E
:102AB000D6CF892B39F082E090E09983888386EF26
:102AC0009FEFCDCF8D2D8D7FB1F72130A1F781E024
:102AD000D11006C091E0E916F10431F080E004C0A5
:102AE000E2E0EE16F104D0F3882329F390E080E0D1
:102AF000C2DD882339F082E090E09983888388EFF3
:102B00009FEFADCFF801D38681E08487F686E58616
:102B1000108A178681E090E09983888390E080E0B6
:102B20009ECF4CE050E06EE572E057CA8F929F92C4
:102B3000BF92CF92DF92EF92FF920F931F93CF93AA
:102B4000DF93EA01FC01E60FF71F82819381048184
:102B5000B580E0919203F0919303309791F482E075
:102B600090E0998388838CEF9FEFDF91CF911F9145
:102B70000F91FF90EF90DF90CF90BF909F908F903C
:102B8000089520919403309195038217930738F0AC
:102B900082E090E0998388838EEF9FEFE6CF23E178
:102BA000289F6001299FD00C1124EC0DFD1DE080B1
:102BB000F180E114F10499F28281081748F78DE061
:102BC000089F80011124E00EF11EF70180819181A0
:102BD000892B29F6BB20E1F2F7E0BF9E40011124CA
:102BE000C4010E94D021F70191838083E091920378
:102BF000F0919303EC0DFD1D0190F081E02DE00FAD
:102C0000F11F80819181009739F482E090E09983EF
:102C100088838DEF9FEFA9CFA40170E060E00E9450
:102C200010368091920390919303C80ED91EF6013D
:102C300080819181080F191FF801B28281E090E034
:102C40009983888390E080E090CFAF92BF92CF923B
:102C5000DF92FF920F931F93CF93DF93EA01FC0162
:102C6000E60FF71F82819381F48000919203109107
:102C700093030115110581F482E090E09983888324
:102C80008CEF9FEFDF91CF911F910F91FF90DF901D
:102C9000CF90BF90AF900895209194033091950309
:102CA0008217930738F082E090E0998388838EEF53
:102CB0009FEFE8CF2FEF2F0D2C3FA8F723E1289FA0
:102CC0006001299FD00C11240C0D1D1DF80180817D
:102CD0009181892B89F6FDE0FF9E50011124C501E9
:102CE0000E94D021F80191838083E0919203F091BA
:102CF0009303EC0DFD1D80819181009739F482E0F2
:102D000090E0998388838DEF9FEFBCCFA50170E0A1
:102D100060E00E941036E0919203F0919303EC0D75
:102D2000FD1DF28281E090E09983888390E080E04D
:102D3000A9CFCF92DF92EF92FF920F931F93CF9381
:102D4000DF93860F971FFC0102811381809192030C
:102D500090919303892B81F082E090E0FA019183B6
:102D600080838CEF9FEFDF91CF911F910F91FF90A8
:102D7000EF90DF90CF900895C801B0E0A0E00197F8
:102D8000A109B1098F3F9F4FA105B10540F082E035
:102D900090E0FA01918380838EEF9FEFE4CF7A0178
:102DA00083E1809F6001819FD00C1124C6010E94A5
:102DB000D021EC01009741F482E090E0F70191838B
:102DC00080838DEF9FEFCFCFA60170E060E00E947F
:102DD0001036D0939303C0939203109395030093FE
:102DE000940390E080E02FEF3FEF41E061E070E07E
:102DF0008017910741F481E090E0F701918380838F
:102E000090E080E0B0CF3A8B298B1B864C877E8781
:102E10006D87188A1F8601966396EACFEF92FF921C
:102E20001F93CF93DF93EC0110E0F12CE12C6A812A
:102E30001617B0F083E0689FB0011124AE014F5E19
:102E40005F4FC7010E943522009721F02FEF3FEF1F
:102E50003A8B298BDF91CF911F91FF90EF900895CE
:102E6000612FCE018DDC61E070E00E947D20E816CC
:102E7000F90608F47C011F5FDACFF89420919003E3
:102E80003091910381E02115310509F080E0232B79
:102E900009F0789408952F923F924F925F926F922B
:102EA0007F928F929F92AF92BF92CF92DF92EF92DA
:102EB000FF920F931F93CF93DF933C01660E771E13
:102EC000F301828193814C01B12CA12CC09192031A
:102ED000D0919303209769F021E030E06091940352
:102EE000709195038617970710F030E020E0232BB0
:102EF000D1F482E090E0FA01918380838EEF9FEF1E
:102F0000DF91CF911F910F91FF90EF90DF90CF90C5
:102F1000BF90AF909F908F907F906F905F904F90F9
:102F20003F902F90089580921B0290921C02A092D5
:102F30001D02B0921E0263E1689F9001699F300DEF
:102F40001124C20FD31FF3018181833040F082E04E
:102F500090E0FA019183808386EF9FEFD1CF2A0121
:102F60002B813C81232BF1F4288139819F8191FFB2
:102F70002EC0232B09F46FC0209197039A81422F12
:102F8000490F5527551FBA0141E050E061387105DE
:102F900014F050E040E0452B09F45DC02A87920F01
:102FA000909397038150823008F481C066DF8823B4
:102FB00009F4D8C0F3018181813009F48DC008F48F
:102FC0007BC0823009F4C6C090E080E0ADC0232B06
:102FD00009F441C0209196039A81E22FE90FFF275F
:102FE000FF1F41E050E0ED3FF10514F050E040E0FC
:102FF000452B89F12A87920F90939603D3CFA08116
:10300000B181A20FB31F11966C91060F111D01968D
:10301000295F3F4F8417950794F38D859E85089F00
:103020001001099F300C189F300C1124C114D104D9
:10303000D1F48F8184FF17C00E94CB20F5E02F0EC2
:10304000311C21E08215930508F420E0A701435FBD
:103050005F4F21110EC082E090E0F20191838083E6
:1030600087EF9FEF4DCF0E94CB202FEF221A320A1D
:10307000E8CF88819981E80EF91EF7011483038354
:10308000FFEFCF1ADF0A7A018A818C151D0409F03F
:103090000CF48CCFE881F981EE0DFF1D428150E0E8
:1030A00030E020E010E000E090E080E0B3CFF12CD1
:1030B000E12CD12CC12CE8CF81E090E09C838B8364
:1030C000F1DA882309F480CF81E090E00E94CF0FED
:1030D00080E40E94DD0F78CF89899A89019661F09A
:1030E00083E090E09C838B8382E090E00E94CF0F8E
:1030F00080E40E94D70F68CF8D819E8120911102BC
:103100003091120282179307D1F4609115027091E9
:103110001602AE014F5E5F4F809113029091140230
:103120000E9454230097E1F2789422E030E0F2010B
:1031300031832083892B99F08DEF9FEFE1CE892891
:103140008A288B2869F6892B59F6CE0167DE188A02
:103150001F86E8CF82E090E09C838B8335CF90E0A0
:1031600080E0CECE82E090E0F2019183808385EF13
:103170009FEFC6CE8F929F92AF92BF92CF92DF9277
:10318000EF92FF920F931F93CF93DF93EA018C018D
:10319000060F171FF8018181833098F082E090E0DC
:1031A0009983888386EF9FEFDF91CF911F910F91D5
:1031B000FF90EF90DF90CF90BF90AF909F908F9057
:1031C00008958091920390919303892B61F081E09F
:1031D00090E02091940330919503232B11F490E01B
:1031E00080E0892B39F482E090E0998388838EEF28
:1031F0009FEFDACF42DE882309F4DFC0F801818136
:10320000813009F495C0E8F0823099F4209194035C
:1032100030919503E0919203F091930390E080E068
:1032200041E050E02817390709F0BDC03BDA8111B1
:1032300017C0789481E090E09983888390E080E0E3
:10324000B3CF2091940330919503E0919203F091D4
:10325000930390E080E041E050E02817390741F403
:1032600081E090E00E94CF0F80E40E94DD0FE1CF6B
:1032700063817481672B11F05483438301967396A5
:10328000ECCFE0919203F0919303E00FF11F2381C3
:10329000348122303105D9F4218932892F3F3F4FC3
:1032A000B1F4258136814091110250911202241708
:1032B000350761F5AF014F5E5F4F60911502709168
:1032C000160280911302909114020E945423EFEF92
:1032D000CE1ADE0AEE0AFE0A0D5E1F4F40919403DD
:1032E0005091950370E060E0C416D506E606F70637
:1032F0003CF5009731F27894892B09F49BCF82E05A
:1033000090E0998388838DEF9FEF4ECFC114D10455
:10331000E104F104E1F6232BD1F6CF017FDDE0914A
:103320009203F0919303E00FF11F108A1786CFCF1D
:1033300010E000E090E080E0C12CD12C7601CECFEF
:103340000097C9F610E000E0812C912C540183E035
:10335000E82EF12C1AC0E0919203F0919303E00F54
:10336000F11F83819481029749F4F482E38282E021
:1033700090E00E94CF0F80E40E94D70FFFEF8F1ADA
:103380009F0AAF0ABF0A0D5E1F4F80919403909170
:103390009503B0E0A0E088169906AA06BB06DCF209
:1033A00090E080E0A8CF638174816230710511F4F0
:1033B000548343830196739635CF82E090E09983DE
:1033C000888385EF9FEFF0CE0097B9F48FEFFB0174
:1033D000808320911B0230911C0243E1429FC00177
:1033E000439F900D1124E0919203F0919303E80F15
:1033F000F91F8285FB01818308950C94860F88E074
:1034000090E0FA019183808390E080E0089510922B
:10341000910310929003E2E9F3E086E0DF011D9250
:103420008A95E9F781E995E190938F0380938E0364
:10343000089580918E0390918F0308952F923F926B
:103440004F925F926F927F928F929F92AF92BF92B4
:10345000CF92DF92EF92FF920F931F93CF93DF9360
:10346000CDB7DEB72F970FB6F894DEBF0FBECDBF36
:10347000F894E0919003F09191033196F0939103C9
:10348000E0939003789440909203509093034114FA
:10349000510409F40CC2E0919403F0919503EF2BD1
:1034A00009F405C22D8749875A876B877C879887DF
:1034B0008F831201B12CA12C10E000E080919403C5
:1034C00090919503A816B90618F40115110529F174
:1034D000F8948091900390919103019790939103B8
:1034E000809390037894C8012F960FB6F894DEBFAE
:1034F0000FBECDBFDF91CF911F910F91FF90EF9045
:10350000DF90CF90BF90AF909F908F907F906F9003
:103510005F904F903F902F9008957101E418F50847
:10352000D10117968C91179781FD54C013968D91F8
:103530009C911497039709F04DC015968D919C911D
:10354000EF81F8858E179F0709F044C0B50190E020
:1035500080E07FD48A8320919203309193033D834E
:103560002C833D85332309F44CC04C815D81452B70
:1035700009F49AC18091940390919503A816B90615
:1035800008F092C1C501D8D88823E9F06C817D810B
:103590006E0D7F1D7D836C83DB011F968D919C9149
:1035A000892B89F0D12CC12CF12CE12CAC81BD816F
:1035B00012968C9112978E151F0409F094F4509670
:1035C0001C921E921F972A81222321F0B50190E0C0
:1035D00080E041D43FEFA31AB30A43E1240E311C2B
:1035E0006DCFAC81BD81ED91FC91EC0DFD1D858110
:1035F00096810FD7BFEFEB1AFB0AEDE0CE0ED11C80
:10360000D5CFEC81FD81309709F44EC180919403B0
:1036100090919503A816B90608F046C1EE0DFF1D5E
:10362000FF87EE87C50188D88B83882339F1AE8563
:10363000BF851F968D919C915097019621E01D9614
:103640004D915C918417950709F020E02E83198233
:10365000712C10E000E0AE85BF8512968C91781633
:1036600008F45DC0EE85FF858785908901966585A4
:1036700076850E94B035908B8787A5CFB1E0BE8359
:10368000E6CF992493946BC08BD6F60196838583FD
:1036900082C0D601ED90FC90B7E06B9EE00CF11C6F
:1036A0001124F7016381748180818F3F61F121E0F2
:1036B00030E002C0220F331F8A95E2F7C901092EBC
:1036C000000CAA0BBB0BFB0140815181628173810D
:1036D00084239523A623B72321E0892B8A2B8B2BC8
:1036E00009F420E0D4012C93D70111968C91F601B6
:1036F00023853485820F932F911D880E991E148681
:10370000138663949BC0418150E0C4010E94073638
:10371000EBCF998206EF1FEFC5C01982C3C0F981B4
:10372000F111A0CFEDE07E9E70011124AE85BF8522
:10373000CD90DC90CE0CDF1C15D49D838C83BB8197
:10374000BB2309F49ECF81E0EE85FF852785308974
:10375000232B09F080E0982E882309F458C0672DA8
:103760008E859F850DD8D60118969C938E931797BA
:1037700061E070E0C2D4EE85FF85218932892F3F58
:10378000320709F481CFBC01C901CFD7D601169603
:103790009C938E931597D60115968D919C911697B3
:1037A000009709F4B6CFEC81FD818E0F9F1F1A960A
:1037B0009C938E931997AE85BF85ED91FC911197DF
:1037C000EE0EFF1EF70121853285148613861A96A8
:1037D0008C91870DD9018D93711016C0EE85FF85F0
:1037E000878184FF11C049855A856B857C85F901E5
:1037F0004183528363837483F701838594850496A0
:10380000A80FB91F14861386F701B287A187D601C6
:1038100015968D919C911697892B09F443C0EE85DE
:10382000FF8525813681809111029091120228171F
:10383000390779F019968D909C90612CD6011296DB
:103840008C911297681608F424CF1A969C928E9247
:103850001997BE81BB2309F460CF61E070E0F601E7
:10386000878190854AD4D6011796ED90FC901897E1
:1038700015964D915C91E1E0F0E0BA81BB2311F027
:10388000F0E0E0E00C811D819C01B50188279927BB
:103890008E1B9F0B6AD38C01892B21F0F601858149
:1038A0009681B7D57394D7CE0FEF1FEF8CCE10E073
:1038B00000E00ECE2F923F924F925F926F927F92D6
:1038C0008F929F92AF92BF92CF92DF92EF92FF9230
:1038D0000F931F93CF93DF93809192039091930363
:1038E00010E000E0892BA9F0C8DA0AEF1FEF882367
:1038F00081F02090940330909503C0919203D09171
:103900009303D12CC12C10E000E02C143D04A9F449
:103910007894C801DF91CF911F910F91FF90EF90A4
:10392000DF90CF90BF90AF909F908F907F906F90DF
:103930005F904F903F902F900895C6010E949C1376
:10394000882309F18B819C810397E9F48F859889FD
:10395000892BC9F0B60190E080E07BD221E030E015
:10396000882311F030E020E044245524421A530A01
:10397000B12CA12C912C812C8A818815190409F075
:1039800038F4188A1F864FEFC41AD40A6396BDCF45
:10399000E881F981EA0DFB1D85819681892BA1F1D2
:1039A00061E070E087819085A8D33C01DBD28C0177
:1039B000E881F981EA0DFB1D81859285258136819B
:1039C000200F311FAC01421B530B9A0147815085D8
:1039D000421B530B70E060E00E941036E881F981D1
:1039E000EA0DFB1DE780F084458156819301B60105
:1039F000C201BBD28C01892B39F0E881F981EA0D33
:103A0000FB1D8581968105D55FEF851A950A8DE0AE
:103A1000A80EB11CB1CF31CA789408952F923F926D
:103A20004F925F926F927F929F92AF92BF92CF928E
:103A3000DF92EF92FF920F931F93CF93DF9300D00B
:103A400000D0CDB7DEB70091920310919303992473
:103A500093940115110509F43EC0A0909403B09011
:103A600095030BDA982E8823B1F1109293031092EC
:103A70009203109295031092940310929603109261
:103A800097038FEF9FEFDC0180931B0290931C0242
:103A9000A0931D02B0931E0278947FD31E830D83E2
:103AA000C12CD12C7601C501B0E0A0E089839A83B6
:103AB000AB83BC8322242A94322C89819A81AB81E6
:103AC000BC81C816D906EA06FB06F4F0C801A1D4E9
:103AD00080E40E94DD0F892D26960FB6F894DEBF94
:103AE0000FBECDBFDF91CF911F910F91FF90EF904F
:103AF000DF90CF90BF90AF909F907F906F905F903E
:103B00004F903F902F900895AD81BE8115968D9175
:103B10009C911697209111023091120282179307FF
:103B2000D1F451968D919C91EED5ED81FE818081ED
:103B30009181B12CA12C412C512C3201892B89F57A
:103B4000BFEFCB1ADB0AEB0AFB0AED81FE8173960D
:103B5000FE83ED83B2CFC114D104E104F10429F74F
:103B6000892B19F7ED81FE81818992898F3F980712
:103B700009F029D5AD81BE8152963C922E92519783
:103B8000D4CF8A0D9B1DDC018D919C91009709F08B
:103B900040D4BFEF4B1A5B0A6B0A7B0AEDE0AE0E16
:103BA000B11CAD81BE818D919C91119712964C9163
:103BB00050E070E060E044165506660677060CF3A8
:103BC00028D4BECFCF93DF93EA0128DF811109C04B
:103BD00082E090E09983888385EF9FEFDF91CF911A
:103BE000089581E090E00E94CF0F81E090E09983FA
:103BF000888390E080E0F2CF11DF10928F03109263
:103C00008E03089542E050E066EA72E00C94ED0FF6
:103C1000FF920F931F93CF93DF938A01EC01C60F9E
:103C2000D71FF980B9D20897F816190671F068F015
:103C300082E090E0F801918380838EEF9FEFDF9127
:103C4000CF911F910F91FF9008956C817D818E819E
:103C50009F814B810E948212811108C082E090E016
:103C6000F8019183808384EF9FEFE9CFF9800E9470
:103C70007D124F2D50E0BE01685F7F4F0E940736D6
:103C800089810E94EC1281E090E0F80191838083A9
:103C900090E080E0D4CFDF92EF92FF920F931F93DA
:103CA000CF93DF938A01EC01C60FD71F0E947D12CC
:103CB0007C01D98071D2DD2059F0029721E030E0FB
:103CC000D816190619F010F030E020E0232B79F413
:103CD00082E090E0F801918380838EEF9FEFDF9187
:103CE000CF911F910F91FF90EF90DF900895EF28F3
:103CF00041F482E090E0F8019183808384EF9FEFAC
:103D0000EECFF9800E947D124F2D50E0BE016E5F14
:103D10007F4F0E94073689810E94EC1281E090E07B
:103D2000F8019183808390E080E0D9CF82E09EE12A
:103D300090939903809398030895809198039091AC
:103D4000990308950895FC01118210829383828360
:103D50000895DB011D921C92DC011296ED91FC91FD
:103D600013977183608313967C936E9312970895D3
:103D7000FC0180819181DB018D939C93A081B181B5
:103D8000109741F08D919C9191838083892B11F440
:103D9000F383E2830895FC0180819181DB018D939F
:103DA0009C93892B11F473836283718360830895DC
:103DB000FC0111821082938382830895CF93DF9355
:103DC0001F921F92CDB7DEB71A821982F894BE01F6
:103DD0006F5F7F4F8FE993E0CBDF89819A810097F6
:103DE00009F017D389819A81892B89F7BE016F5F0A
:103DF0007F4F83EA93E0BCDF89819A81009709F0C5
:103E000008D389819A81892B89F778940F900F9034
:103E1000DF91CF910895CF93DF931F921F92CDB77B
:103E2000DEB71A821982F894BE016F5F7F4F8BE96B
:103E300093E09EDF89819A81009709F0EAD2898117
:103E40009A81892B89F778940F900F90DF91CF9109
:103E5000089581E0089590E080E00895EF92FF9248
:103E60000F931F93CF93DF931F921F92CDB7DEB7AF
:103E70001A82198280919A0307EF1FEF8823A1F11C
:103E8000F894BE016F5F7F4F83EA93E071DF78940F
:103E900089819A81EE24E394F12C892B51F4F894D2
:103EA000BE016F5F7F4F8FE993E062DF7894F12C62
:103EB000E12C89819A810EEF1FEF0097A9F0FC0198
:103EC0004281538164E070E076D68C01892B61F0E9
:103ED000F89469817A81C701880F991F880F991F0B
:103EE00081569C4F58DF7894C8010F900F90DF9156
:103EF000CF911F910F91FF90EF9008950F931F9313
:103F0000CF93DF9300D01F92CDB7DEB71C821B8208
:103F10001A82198280919A0307EF1FEF8823C1F05C
:103F2000AE014D5F5F4F64E070E0CE010196B6D602
:103F30008C01892B69F4E981FA818B819C819383BF
:103F40008283F89469817A818BE993E002DF789427
:103F5000C8010F900F900F900F90DF91CF911F919C
:103F60000F910895BBD7049608958F929F92AF92B8
:103F7000BF92CF92DF92EF92FF920F931F93CF9356
:103F8000DF931F921F92CDB7DEB71A821982BC0150
:103F90006F5F7F4F6330710598F0AA24AA94BA2C02
:103FA000C5010F900F90DF91CF911F910F91FF905E
:103FB000EF90DF90CF90BF90AF909F908F9008953B
:103FC0004115510551F3480159018A016C01CADFBD
:103FD0008815990511F7E114F104F9F28E0D9F1D72
:103FE000A816B906D0F280919A038823F1F0F894CC
:103FF000B501645071099701AE014F5F5F4FC80171
:104000000496E1D65C01892B71F489819A81F801CB
:1040100093838283C601880F991F880F991FB80167
:1040200081569C4F96DE7894BBCF87EFA82EBB2499
:10403000BA94B6CFAF92BF92CF92DF92EF92FF9237
:104040000F931F93CF93DF931F921F92CDB7DEB7CD
:104050001A821982892B09F047C06115710509F48C
:1040600043C04115510509F43FC02115310509F43C
:104070003BC001151105C1F180919A038823B9F164
:1040800079016A015B01F894BE016F5F7F4F8BE994
:1040900093E06EDE789489819A81009759F1DC0172
:1040A00012966D917C91A8010496A6D68C01E981A7
:1040B000FA81D501ED93FC93828193810496F601F8
:1040C000918380834FDFD7018D939C93C8010F901C
:1040D0000F90DF91CF911F910F91FF90EF90DF90A4
:1040E000CF90BF90AF9008950FEF1FEFEFCF07EF86
:1040F0001FEFECCF0EEF1FEFE9CFCF93DF93EC0173
:10410000672B71F4F4D68C179D0760F0E7D62496E0
:10411000C80FD91FE6D68C0F9D1FDF91CF91089550
:10412000E3D6F1CF90E080E0F8CF0F931F93CF93C9
:10413000DF9320919A0321112BC08B01EC018FE9B1
:1041400093E001DE83EA93E0FEDD8BE993E0FBDDA3
:1041500097D00097C1F4CBD670E060E0CEDF4FE19E
:1041600052E062E070E081D1009769F480911F0213
:1041700090912002CED6B801CE0103D5009719F454
:1041800021E020939A03DF91CF911F910F91089521
:1041900084EF9FEFF8CFA8C6AAC6CF93DF93AAD625
:1041A000EC01892B11F40ADE36DECE01DF91CF91CE
:1041B0000895CF93DF939ED6EC01892B09F4FEDDA1
:1041C000CE01DF91CF91089580911F02909120023E
:1041D0000895CF93DF9380919A03D0E0C0E08823C5
:1041E000D1F09CD6EC01892BB1F4E8DD14DE80918E
:1041F0001F0290912002E7D1E8D2EC01892B59F4FB
:104200008FE993E0D5DD83EA93E0D2DD8BE993E09B
:10421000CFDD10929A03CE01DF91CF910895EF92F6
:10422000FF920F931F93CF93DF93EC017A018B01E1
:104230000F5F1F4F0E9DA0010F9D500D1E9D500D35
:10424000112470E060E00E94103690E080E0F0E021
:10425000E0E02FEFE816F90639F4DF91CF911F91D6
:104260000F91FF90EF9008951A821982288330975A
:1042700011F0D283C1830196FE01C00FD11FEACF96
:10428000CF92DF92EF92FF920F931F93CF93DF9322
:104290000AE515E00C7F43E050E061E272E087E25E
:1042A00092E01CD481E2E82E82E0F82E97E2C92E3B
:1042B00092E0D92EC1EED5E0D7014D915D917D01FF
:1042C000F601619171916F01198308835D834C83BD
:1042D0005B834A837F836E839B012F5F3F4F249FC5
:1042E000C001259F900D349F900D112499878887D8
:1042F0000115110511F0C80192DF88859985080F15
:10430000191F2A96F7E2EF16F2E0FF06A9F6E9EA8E
:10431000F3E08EEA91E0DF019C011D9221503040D4
:10432000E1F71092A8031092A703109200061092D2
:10433000FF051092040610920306109202061092D6
:1043400001061092060610920506109208061092B9
:10435000070610920A061092090610920E06109295
:104360000D0610920C0610920B0610921006109279
:104370000F0610921206109211061092DE0510928E
:10438000DD051092E0051092DF0590E080E0DF91FE
:10439000CF911F910F91FF90EF90DF90CF900895F4
:1043A0000097F1F0F894A7E2B2E0E1EEF5E030E03A
:1043B00020E04D915D9148175907A8F04281538143
:1043C0004115510581F08AE0829FF001839FF00D35
:1043D0001124EF51FA4F80819181009759F478941C
:1043E00090E080E008952F5F3F4F3A9623303105EB
:1043F00001F7F5CFDC0111966D917C91718360839B
:104400004150510953834283FC012193CF01789499
:104410000895009749F1DC018E91853041F4E091D7
:10442000DF05F091E0053097F9F0CD011994853062
:10443000D8F4282F30E0F8948FEF8C938AE0829F95
:10444000F001839FF00D1124EF51FA4F808191818B
:1044500012969C938E931197B183A083828193814E
:1044600001969383828378940895CF92DF92EF929E
:10447000FF920F931F93CF93DF939C018CEA93E0FD
:104480008C7F4115510509F49BC02115310509F4B4
:1044900097C06115710509F493C07A01AB01B901A8
:1044A0006D5F7F4F6C7F9B012F5F3F4F249F80018B
:1044B000259F100D349F100D1124F8942091FF05B5
:1044C00030910006232B59F42091070630910806FD
:1044D0002115310569F12017310708F058C02091E6
:1044E000090630910A06232B91F42091070630919A
:1044F0000806820F931F2091110630911206211594
:10450000310509F441C02017310708F056C07894EE
:10451000CFEFDFEF86EF9FEFF701D183C083DF910D
:10452000CF911F910F91FF90EF90DF90CF90089562
:10453000C3E0D0E0C090A703D090A8032BEA31E0FD
:104540002C193D092017310710F32AE02C9FF001A8
:104550002D9FF00D1124EF51FA4F918380835583E5
:104560004483538342837783668311870087009750
:1045700009F055DE0C0D1D1D1093A8030093A70331
:10458000789490E080E0C8CFC4E0D0E0D3CFC3E01F
:10459000D0E02AE02C9FF0012D9FF00D1124EF5167
:1045A000FA4F918380835583448353834283778377
:1045B0006683009729F333DEE3CFC4E0D0E0E9CF90
:1045C0008FEF9FEFACCF9C010397029708F069C073
:1045D000F89484E09AE0482F50E0241735070CF453
:1045E0004DC091E08AE0829FF001839FF00D11247D
:1045F000EF51FA4F118210821582148213821282B7
:10460000178216829923B1F18091FF0590910006DF
:10461000892BA9F420910706309108062115310550
:1046200071F08091A7039091A803821B930B909344
:10463000A8038093A70310920806109207068091A2
:10464000090690910A06892BA9F420911106309150
:1046500012062115310571F08091A7039091A803EE
:10466000821B930B9093A8038093A70310921206CA
:1046700010921106789490E080E00895949FF001E4
:10468000959FF00D1124EF51FA4F40815181452B38
:1046900031F440855185452B11F481509CCF90E039
:1046A000A1CF8FEF9FEF08954115510549F1009774
:1046B00039F16115710521F1F8942091DD053091F2
:1046C000DE05232BB9F42091DF053091E005232B83
:1046D00089F49093DE058093DD057093E005609387
:1046E000DF05789425E030E090E080E0FA01318346
:1046F0002083089578942FEF3FEF86EF9FEFF6CF5A
:104700008FEF9FEF0895059769F4F8941092DE05F6
:104710001092DD051092E0051092DF05789490E08C
:1047200080E008958FEF9FEF08956115710519F4EA
:10473000F0E0E0E011C08530910581F4E091DD0505
:10474000F091DE053097A1F3CB0101961995009702
:1047500079F3FC0185E08193CF0108959C012350FA
:1047600031092230310520F72AE0289FD001299F06
:10477000B00D1124AF51BA4F2D913C911197232BBD
:10478000B9F216962D913C9117972617370780F2AC
:10479000F89412962D913C9113972115310529F02B
:1047A000ED91FC911197309711F47894C1CF41812C
:1047B000528111965C934E932150310913963C938C
:1047C0002E93129781937894C7CFE7E5F5E086E8BA
:1047D000DF011D928A95E9F7E9EAF3E08EEA91E0BC
:1047E000DF019C011D9221503040E1F71092A80397
:1047F0001092A703E1EEF5E082E3DF011D928A95B6
:10480000E9F7EDEDF5E084E0DF011D928A95E9F727
:1048100090E080E00895CF93DF93C0912D02D09176
:104820002E02CF3FDC0759F40BD490932E028093D5
:104830002D0297FF09C0D0932E02C0932D0284EF62
:104840009FEFDF91CF91089590E080E0FACF823022
:10485000910528F48093130690E080E008958FEF8F
:104860009FEF08954F925F926F927F92AF92BF92A7
:10487000CF92DF92EF92FF920F931F93CF93DF932C
:104880001F921F92CDB7DEB71A821982009709F4E2
:1048900079C06115710509F475C020912D02309120
:1048A0002E0207EF1FEF2F3F3F4F09F445C06B016A
:1048B0005C01412C512C3201F12CE12C10E000E084
:1048C0009E012F5F3F4FA6014E195F09B5016E0D86
:1048D0007F1D80912D0290912E0217D4892B09F013
:1048E0004BC089819A81009741F4E114F10429F4C5
:1048F00020911306222309F442C0E80EF91EEC149D
:10490000FD04D0F480E8481684E858068EE1680675
:10491000710420F560E070E0CB010E94FD302AE0D8
:10492000420E511C611C711C0A3F4FEF140721F00D
:10493000043F8FEF1807A1F4C8010F900F90DF918B
:10494000CF911F910F91FF90EF90DF90CF90BF908C
:10495000AF907F906F905F904F90089501EF1FEFA1
:1049600081E090E0013F2FEF120711F090E080E02E
:10497000892B09F4A5CFE0CF04EF1FEFDDCF0AEFBD
:104980001FEFDACF0FEF1FEFD7CF4F925F926F92EB
:104990007F92AF92BF92CF92DF92EF92FF920F93EE
:1049A0001F93CF93DF931F921F92CDB7DEB71A826A
:1049B0001982009709F479C06115710509F475C071
:1049C00020912D0230912E0207EF1FEF2F3F3F4F16
:1049D00009F445C06B015C01412C512C3201F12CD2
:1049E000E12C10E000E09E012F5F3F4FA6014E1921
:1049F0005F09B5016E0D7F1D80912D0290912E02F1
:104A000037D3892B09F04BC089819A81009741F4F3
:104A1000E114F10429F420911306222309F442C081
:104A2000E80EF91EEC14FD04D0F480E4481682E48C
:104A300058068FE06806710420F560E070E0CB0155
:104A40000E94FD302AE0420E511C611C711C0E3F79
:104A50004FEF140721F0043F8FEF1807A1F4C801AE
:104A60000F900F90DF91CF911F910F91FF90EF90DA
:104A7000DF90CF90BF90AF907F906F905F904F90FE
:104A8000089502EF1FEF81E090E0023F2FEF120741
:104A900011F090E080E0892B09F4A5CFE0CF04EF7E
:104AA0001FEFDDCF0EEF1FEFDACF0FEF1FEFD7CFE6
:104AB00080912D0290912E028F3F980749F0B7D236
:104AC000892B49F48FEF9FEF90932E0280932D0254
:104AD00090E080E0089584EF9FEF0895CF92DF92F9
:104AE000EF92FF920F931F93CF93DF9321E0411535
:104AF000510509F020E04150510921112CC0DC0181
:104B0000FB01D12CC12C21E022C03FEFC31AD30AF4
:104B10007D010D911D91E701EA80FB80E016F10611
:104B2000A8F420813181E280F380F182E082338336
:104B30002283ED90FC9011979D0122503109E901EB
:104B4000F982E88211961C930E9320E03296C416E7
:104B5000D506D8F2D2CFDF91CF911F910F91FF9060
:104B6000EF90DF90CF900895FC01680F791F90E0DF
:104B700080E0E617F70709F408952191820F911D4F
:104B8000F8CF20911406211113C045DE009791F44F
:104B900010921A0610921906109218061092170613
:104BA000109216061092150621E02093140608951F
:104BB00084EF9FEF0895AF92BF92CF92DF92EF9272
:104BC000FF920F931F93CF93DF93009709F460C078
:104BD0004630510508F45CC020911406C7EFDFEFA2
:104BE000222309F449C08C01060F171FF801C08069
:104BF000D180C114D10409F44EC096012A5F3F4F01
:104C00004217530708F447C07C0180911906909120
:104C10001A0693838283B6016C5F7F4F5801A60EFC
:104C2000B71EC801A1DFF5019183808364E070E0C5
:104C3000C80118DEEC01892BF9F481E090E007DE71
:104C4000B601C80104960EDEEC01892B91F462E0F6
:104C500070E0C50107DEEC01892B59F4C701D9DBEF
:104C60008091190690911A06019690931A068093E6
:104C7000190690E080E0EBDDCE01DF91CF911F912E
:104C80000F91FF90EF90DF90CF90BF90AF9008957D
:104C9000CFEFDFEFF1CFC9EFDFEFEECF6F927F9273
:104CA0008F929F92AF92BF92CF92DF92EF92FF923C
:104CB0000F931F93CF93DF9300D01F92CDB7DEB732
:104CC000009709F47AC04115510509F476C0209186
:104CD000140607EF1FEF222309F44DC03A017B01B0
:104CE0005C0164E070E0CE0101964FDE8C01892BFF
:104CF00009F041C009811A810115110509F45AC052
:104D0000480186E0880E911CB701680D791D8091DD
:104D10002F029091300209DD6C01009709F450C018
:104D2000A70170E060E00E94103689819A81AB8112
:104D3000BC81EC0CFD1CF70181939193A193B1937D
:104D40007F0181E090E083DDB801C7011EDE892B81
:104D500031F562E070E0C701800F911F16DE8C0113
:104D6000892BE9F490E080E072DDF501D182C08208
:104D7000F30191828082C8010F900F900F900F90E5
:104D8000DF91CF911F910F91FF90EF90DF90CF9027
:104D9000BF90AF909F908F907F906F90089590E01C
:104DA00080E055DDF50111821082F301118210823D
:104DB000C6012FDB09EF1FEFDECF0FEF1FEFDBCFB9
:104DC00006EF1FEFD8CF0097A1F04115510589F0EC
:104DD0002115310571F0F90136966E177F0748F0FD
:104DE000DC012D933C93DA01ED93FC9390E080E09D
:104DF00008958FEF9FEF0895AF92BF92CF92DF9209
:104E0000EF92FF920F931F93CF93DF93009709F4D4
:104E10005FC04115510509F45BC06530710508F4A8
:104E200057C020911406C7EFDFEF222391F1DC0178
:104E3000CD90DC9011971296ED91FC9196012A5F2E
:104E40003F4FC9EFDFEF2617370719F5C091150659
:104E5000D0911606209749F521E030E030931606F0
:104E6000209315067A018C01F0931806E09317063B
:104E70005601B4E0AB0EB11CB50176DE0A0D1B1D68
:104E8000F801208131818217930729F5D701CD924E
:104E9000DC92CE01DF91CF911F910F91FF90EF90A7
:104EA000DF90CF90BF90AF9008952091170630917A
:104EB00018062F5F3F4FCCEFDFEFE217F30790F2BA
:104EC000CBEFDFEF2E173F0768F2D0E0C0E0CACF8C
:104ED000CFEFDFEFDECFC3EFDFEFDBCF84E090E09B
:104EE000089582E090E008958CEF9FEF089580E2AE
:104EF00090E0089510921A06109219061092180662
:104F000010921706109216061092150690E080E097
:104F100008959093300280932F0208958091140693
:104F2000882391F0C5DD009789F410921A0610923B
:104F30001906109218061092170610921606109273
:104F4000150610921406089590E080E008950097E9
:104F500049F06115710531F0FC0111821082FB01ED
:104F6000118210820895F3CF26E030E040E855E248
:104F700060E070E090E080E00C9402021F920F92DB
:104F80000FB60F9211240BB60F922F933F934F93AE
:104F90005F936F937F938F939F93AF93BF93EF93A1
:104FA000FF938FE89DEF9093250180932401C1D05A
:104FB000FF91EF91BF91AF919F918F917F916F91F1
:104FC0005F914F913F912F910F900BBE0F900FBEAD
:104FD0000F901F9018958FE89DEF90932501809377
:104FE0002401A3E7B0E08C918E7F8C93E0E2F1E0A6
:104FF00080818C7F8083E1E2F1E08081877E808305
:1050000080818460808380818C7F80838C918160AB
:105010008C930895E3E7F0E0808190819E7F9083F8
:105020008170089581E0089510921B06089568EE3E
:1050300073E080E090E00E94FD3090E080E0089511
:1050400026E030E040E050E16EE070E090E080E08B
:105050000E94020282EF96E00E942832892B29F0FA
:1050600082EF96E00E944232F5CF90E080E0089512
:10507000CF92DF92EF92FF920F931F93CF93DF9324
:105080006B017A01E9011982188282EF96E00E9491
:105090002832892B79F18601CC24C39482E0D82E62
:1050A00080911B06811111C082EF96E00E9442326E
:1050B0000297B1F7C0921B06F801D1928F01888147
:1050C0009981019699838883EBCF888199818E1588
:1050D0009F0580F482EF96E00E9442328F3F98074E
:1050E000A1F3F80181938F018881998101969983B9
:1050F0008883EBCF90E080E0DF91CF911F910F91FB
:10510000FF90EF90DF90CF9008950F931F93CF9370
:10511000DF93EA01890182EF96E00E948235F8016F
:10512000D183C08390E080E0DF91CF911F910F91F8
:105130000895CF92DF92EF92FF92CF93DF93809109
:105140001C0691E0980F90931C06882379F021E0CB
:1051500030E030931E0620931D0680931C06DF91DD
:10516000CF91FF90EF90DF90CF9008957894C09109
:105170003202D09133026E8D7F8D88A199A1A7D183
:1051800020E030E040E85FE458D26B017C016A8D9A
:105190007B8D8C8D9D8D9BD19B01AC01C701B60190
:1051A0009AD069D16B017C010E94CB03B701A601A3
:1051B00090E080E00E943D03F89480911C068150AD
:1051C000CCCF0F931F93CF93DF931092AB09109224
:1051D000AA090E943331C8DEC0913202D091330255
:1051E000198218826FEF7FEFCB010E94C00370E03D
:1051F00060E090E080E00E944002009709F03AC031
:105200000E94A006F8947894BE016A5D7F4F8A815F
:105210009B810E944302892B59F46FEF7FEFCB01F2
:105220000E94D3020E94BA03882311F081E08AA76A
:10523000F894D1DE0E94BD03882311F080E008C0FD
:105240000E94BA038111FACF81E09AA59111F6CF9D
:105250008093AA0978940E94CA0F8C017894809157
:10526000AA0981110CC00E946E090E949F03F89444
:1052700090E080E0DF91CF911F910F9108950E94FF
:105280009D030E94BD038823D9F081E08093AB0980
:105290009091AB0981E0911180E08093AA098091FF
:1052A000AB098111B7DE0130110529F40E94CA0F44
:1052B000892B09F4B9DE0E94CA0F8C01B3DECFCF6F
:1052C0000E94BA038111E1CF81E09AA59111DECF4E
:1052D00080E0DCCF5058BB27AA270ED070C161D127
:1052E00030F066D120F031F49F3F11F41EF456C126
:1052F0000EF4E095E7FB4CC1E92F72D180F3BA17A9
:10530000620773078407950718F071F49EF58AC148
:105310000EF4E0950B2EBA2FA02D0B01B9019001D0
:105320000C01CA01A0011124FF27591B99F0593F14
:1053300050F4503E68F11A16F040A22F232F342F5C
:105340004427585FF3CF469537952795A795F040AA
:105350005395C9F77EF41F16BA0B620B730B840BBF
:10536000BAF09150A1F0FF0FBB1F661F771F881F77
:10537000C2F70EC0BA0F621F731F841F48F48795CF
:1053800077956795B795F7959E3F08F0B3CF9395BE
:10539000880F08F09927EE0F979587950895D4D038
:1053A00008F481E008950CD00AC102D140F0F9D090
:1053B00030F021F45F3F19F0EBC0511134C1EEC061
:1053C0000FD198F39923C9F35523B1F3951B550BCE
:1053D000BB27AA2762177307840738F09F5F5F4FC8
:1053E000220F331F441FAA1FA9F333D00E2E3AF009
:1053F000E0E830D091505040E695001CCAF729D023
:10540000FE2F27D0660F771F881FBB1F2617370771
:105410004807AB07B0E809F0BB0B802DBF01FF27A1
:1054200093585F4F2AF09E3F510568F0B1C0FBC012
:105430005F3FECF3983EDCF3869577956795B795DB
:10544000F7959F5FC9F7880F911D9695879597F9F6
:105450000895E1E0660F771F881FBB1F621773076F
:105460008407BA0720F0621B730B840BBA0BEE1F84
:1054700088F7E0950895BCD088F09F5790F0B92F39
:105480009927B751A0F0D1F0660F771F881F991F99
:105490001AF0BA95C9F712C0B13081F0C3D0B1E0AB
:1054A0000895C0C0672F782F8827B85F39F0B93FBB
:1054B000CCF3869577956795B395D9F73EF490959B
:1054C0008095709561957F4F8F4F9F4F0895E89419
:1054D00009C097FB3EF490958095709561957F4F3C
:1054E0008F4F9F4F9923A9F0F92F96E9BB279395EA
:1054F000F695879577956795B795F111F8CFFAF4FA
:10550000BB0F11F460FF1BC06F5F7F4F8F4F9F4F2A
:1055100016C0882311F096E911C0772321F09EE888
:10552000872F762F05C0662371F096E8862F70E0EE
:1055300060E02AF09A95660F771F881FDAF7880FC8
:105540009695879597F90895990F0008550FAA0B1E
:10555000E0E8FEEF16161706E807F907C0F0121686
:105560001306E407F50798F0621B730B840B950B89
:1055700039F40A2661F0232B242B252B21F40895DE
:105580000A2609F4A140A6958FEF811D811D08957B
:1055900097F99F6780E870E060E008959FEF80ECE6
:1055A000089500240A941616170618060906089589
:1055B00000240A9412161306140605060895092EEF
:1055C0000394000C11F4882352F0BB0F40F4BF2B5E
:1055D00011F460FF04C06F5F7F4F8F4F9F4F08959E
:1055E00057FD9058440F551F59F05F3F71F0479594
:1055F000880F97FB991F61F09F3F79F08795089579
:10560000121613061406551FF2CF4695F1DF08C097
:10561000161617061806991FF1CF869571056105B4
:1056200008940895E894BB2766277727CB0197F95C
:1056300008958ADF08F48FEF08950BD0C0CFB1DF53
:1056400028F0B6DF18F0952309F0A2CFA7CF1124D8
:10565000EACFC6DFA0F3959FD1F3950F50E0551F19
:10566000629FF001729FBB27F00DB11D639FAA27B7
:10567000F00DB11DAA1F649F6627B00DA11D661F06
:10568000829F2227B00DA11D621F739FB00DA11D27
:10569000621F839FA00D611D221F749F3327A00DE1
:1056A000611D231F849F600D211D822F762F6A2F7D
:1056B00011249F5750408AF0E1F088234AF0EE0F02
:1056C000FF1FBB1F661F771F881F91505040A9F70F
:1056D0009E3F510570F05CCFA6CF5F3FECF3983E44
:1056E000DCF3869577956795B795F795E7959F5F76
:1056F000C1F7FE2B880F911D9695879597F9089510
:1057000090E080E008958091530690915406891BA3
:10571000990B089590915406809153062FEF3FEF17
:10572000981748F4E92FF0E0EB5AF94F208130E068
:105730009F5F90935406C9010895E09154068091AB
:105740005306E81730F4F0E0EB5AF94F808190E00F
:1057500008958FEF9FEF08950895CF93DF93EC01A5
:10576000E0912B06F0912C063097F1F090915406C1
:10577000809153069817C0F090E0292F30E026174B
:10578000370754F4DE01A20FB31F4C912B5A394F47
:10579000D9014C939F5FF1CF10925406609353064A
:1057A000CB01DF91CF911994DF91CF910895E091D2
:1057B0002D06F0912E06309729F0109231061092A6
:1057C000300619940895CF93DF931F92CDB7DEB7BB
:1057D000698320912F062223F9F020913006203290
:1057E00058F021E030E0FC013383228390E080E038
:1057F0000F90DF91CF91089580913106E82FF0E06E
:10580000EE5CF94F998190838F5F8093310680938E
:10581000300681E090E0ECCF61E0CE01019607D147
:10582000F8CFCF92DF92EF92FF920F931F93CF9317
:10583000DF937C01CB018A0120912F06222389F07E
:10584000EB016B01C40ED51ECC15DD0561F069912D
:10585000D701ED91FC910190F081E02DC7011995E0
:10586000F3CF642FE4D0C801DF91CF911F910F9146
:10587000FF90EF90DF90CF90089510925406109211
:105880005306109231061092300697D087ED9BE2B6
:10589000FAD08DEA9BE2F2C0CB01BA01B5C081E03B
:1058A00080932F06609352061092310610923006B4
:1058B00008950F93062F21E04091300662E376E0D1
:1058C00080915206DCD1109231061092300610926F
:1058D0002F060F9108954F925F926F927F92AF9231
:1058E000BF92CF92EF92FF920F931F93CF93DF93CC
:1058F0005C01F62ED42F28013901EE2009F1CFDF0B
:10590000CE2DC43008F0C3E0C150B8F028E0C29FEB
:10591000C0011124A301920104C056954795379503
:1059200027958A95D2F7B901D501ED91FC910190A7
:10593000F081E02DC5011995E7CF60E0C501B9DF21
:105940004D2FD13208F040E22C2D65E576E08F2D09
:10595000B9D01092540680935306DF91CF911F91D6
:105960000F91FF90EF90CF90BF90AF907F906F908E
:105970005F904F900895CF92EF920F931F93C22E96
:10598000E12C00E010E09801A6DF1F910F91EF904D
:10599000CF90089521E0EFCFEFE1F6E0138212827D
:1059A00088EE93E0A0E0B0E084839583A683B7837C
:1059B00086EB92E09183808308951092E80681E05F
:1059C0008093E6061092E50661E084E114D561E07B
:1059D00085E111D5E9EBF0E080818E7F80838081C5
:1059E0008D7F808388E48093B80085E48093BC0039
:1059F0000895ECEBF0E080818A7B808360E084E1B5
:105A0000FAD460E085E1F7C49B01AC0160E074E288
:105A100084EF90E00E94C4352051310941095109B9
:105A200056954795379527952093B800089520916E
:105A30009706260F3327331F21323105ECF42091CE
:105A4000E806FC0190E080E0243069F082E00895EF
:105A5000A09197062191AC014756594FA40FB52F3D
:105A6000B11D2C930196861798F380919706680FC5
:105A70006093970680E0089581E008959093DC0696
:105A80008093DB0608959093DE068093DD060895EB
:105A900085EC8093BC001092E8060895CF93DF93C5
:105AA00091E09093E006882351F0C091B800D09126
:105AB000BA009FDF82DFD093BA00C093B800DF91B5
:105AC000CF9108954F925F926F927F928F929F92A3
:105AD000AF92BF92CF92DF92EF92FF920F931F93FC
