:1000000005C100000C94EE340C9419350C94443561
:100010000C946F350C949A350C94C5350C94F035CE
:100020000C941B3624C1000022C1000020C1000036
:100030001EC100001CC100001AC1000018C1000050
:1000400016C1000014C1000012C1000010C1000060
:100050000EC100000CC100000AC100000C9446361D
:1000600006C100000C941A3A0C94503A00C10000EA
:10007000FEC00000FCC00000FAC00000F8C0000094
:10008000F6C00000F4C00000F2C00000F0C00000A4
:100090000C94A63A0C94DC3AEAC00000E8C00000D8
:1000A000E6C00000E4C00000E2C00000E0C00000C4
:1000B000DEC00000DCC00000DAC00000D8C00000D4
:1000C000D6C00000D4C000000C9495300C94323B94
:1000D0000C94683BCCC000000C94BE3B0C94F43BE9
:1000E000C6C0000000000A0B02090C0D0E08070331
:1000F00004010000000000000000000000000000FB
:1001000000000000000000000000000000000000EF
:1001100012111000000000000000000000000000AC
:100120000000000000000000000001021020200874
:100130000810204010204080020102010804020142
:1001400001020408102040808040201008040201B1
:10015000800402018040201008040201080402010A
:100160000102040810204080010204081020408091
:1001700005050505070508080808020202020A0A23
:100180000808040404040101010101010101030341
:10019000030303030303040707070C0C0C0C0C0CEC
:1001A0000C0C0202020206060606060606060B0BE9
:1001B0000B0B0B0B0B0B000020002300260029006B
:1001C0002C002F003200000100000301060109018C
:1001D00000002200250028002B002E0031003400F2
:1001E00002010000050108010B01000021002400AC
:1001F00027002A002D003000330001010000040117
:1002000007010A01793A053B913B1D3C11241FBEB1
:10021000CFEFD1E2DEBFCDBF00E00CBF13E0A0E026
:10022000B2E0E0EEF9E700E00BBF02C007900D92EC
:10023000AA35B107D9F72CE0AAE5B3E001C01D92B9
:10024000A035B207E1F711E0C6E0D1E000E006C05A
:1002500021970109802FFE010E94BD3CC230D107C9
:1002600080E00807A9F70E9483310C94EE3CC8CEC9
:10027000FC01A781B0858C9191858923A481B581EA
:100280009C9140815181628173812681922359F032
:1002900081110BC04F5F5F4F6F4F7F4F4083518382
:1002A0006283738308958111F5CF4150510961092B
:1002B0007109F4CF8BE593E0DBCF86E693E0D8CFEE
:1002C00081E793E0D5CF8CE793E0D2CFFC01A48106
:1002D000B5818C9196818923A781B0859C914081BD
:1002E0005181628173812185922359F0882359F0CD
:1002F0004F5F5F4F6F4F7F4F4083518362837383A4
:1003000008958823A9F34150510961097109F4CF77
:100310008BE593E0DBCF86E693E0D8CF81E793E0EF
:10032000D5CF8CE793E0D2CF0F931F93CF93DF937A
:10033000D82FC62F8A01A0915A038BE0A89FD00125
:100340001124A55ABC4F1D921D921D921C92139709
:1003500081E01A968C931A978D2F90E0FC01E65D50
:10036000FE4FE4911696EC931697FC01E059FE4F70
:10037000E491F0E0EE0FFF1FEA54FE4F8591949157
:1003800015969C938E931497862F90E0FC01E65D62
:10039000FE4FE4911996EC931997FC01E059FE4F3A
:1003A000E491F0E0EE0FFF1FEA54FE4F8591949127
:1003B00018969C938E93179760E08D2F0E94873834
:1003C00060E08C2F0E94873880915A03813009F4B5
:1003D0003FC0A8F0823009F462C0833009F486C0BF
:1003E00080915A0391E0980F90935A03F80180830B
:1003F00090E080E0DF91CF911F910F91089580E010
:10040000D23049F081E0D33031F08EEE8D0F843060
:10041000D8F487E18D1B41E050E06AE571E00E946D
:10042000743480E0C23049F081E0C33031F08EEEA8
:100430008C0F843058F487E18C1B41E050E068E871
:1004400071E00E947434CCCF8FEFE5CF8FEFF5CF02
:1004500080E0D23049F081E0D33031F08EEE8D0F64
:100460008430C8F487E18D1B41E050E06DE571E018
:100470000E94743480E0C23049F081E0C33031F032
:100480008EEE8C0F843048F487E18C1B41E050E005
:100490006BE871E0D6CF8FEFE7CF8FEFF7CF80E03B
:1004A000D23049F081E0D33031F08EEE8D0F8430C0
:1004B000C8F487E18D1B41E050E060E671E00E94E6
:1004C000743480E0C23049F081E0C33031F08EEE08
:1004D0008C0F843048F487E18C1B41E050E06EE8DB
:1004E00071E0AFCF8FEFE7CF8FEFF7CF80E0D23063
:1004F00049F081E0D33031F08EEE8D0F8430C8F4B6
:1005000087E18D1B41E050E063E671E00E947434A6
:1005100080E0C23049F081E0C33031F08EEE8C0FC4
:10052000843048F487E18C1B41E050E061E971E0E0
:1005300088CF8FEFE7CF8FEFF7CF9BE0899FF00158
:100540001124E55AFC4F80819181A281B381FB0186
:1005500080839183A283B38390E080E008959BE041
:10056000899FF0011124E55AFC4F108211821282FA
:10057000138290E080E0089590E080E00895CF92AB
:10058000DF92EF92FF92CF93882351F16A017B01B2
:10059000CFEFC80F20E030E0A901CB01B6010E94E7
:1005A000793218168CF0C701B60190580E94EA32D1
:1005B0009B01AC016C2F70E090E080E0CF91FF9048
:1005C000EF90DF90CF90B2C0C701B6010E94E53234
:1005D0008C2FCF91FF90EF90DF90CF900C944D3700
:1005E000CF91FF90EF90DF90CF9008950F931F93DE
:1005F0008B019C0183E036952795179507958A9581
:10060000D1F709571C4F462F477021E030E0F90120
:1006100002C0EE0FFF1F4A95E2F7AF01F8012081FB
:100620002423CB010196211102C090E080E01F91AC
:100630000F9108950F931F938B019C0183E03695D2
:100640002795179507958A95D1F7677081E090E017
:1006500001C0880F6A95EAF7F801E957FC4F20813D
:10066000452B31F48095822380831F910F9108954B
:10067000822BFACF2F923F924F925F926F927F928E
:100680008F929F92AF92BF92CF92DF92EF92FF92A2
:100690000F931F93CF93DF93D62EC72E782E692EFC
:1006A00049015A01280161E08D2D0E948738CD2D26
:1006B000DC2D8E010F5F1F4FA8016D2D7C2D872D26
:1006C000962DB8DF20E030E0A901C201B7010E94F9
:1006D000C833181664F4C201B7010E94EA322B0134
:1006E000C501B4010E94EA32A201CE0123D0C801A3
:1006F000DF91CF911F910F91FF90EF90DF90CF90FE
:10070000BF90AF909F908F907F906F905F904F9031
:100710003F902F900895882341F08150682F70E01A
:1007200090E080E050E040E085CF0895862FB90149
:100730000C944D379C01FC01EC51FF4FE491E150CA
:10074000E231E0F4F0E08827E755FC4F8F4F0C943E
:10075000BD3CBB03C203C503DC03F103BE030604B7
:10076000120416042D04420457046E048304BE03CD
:100770009804AF04C40484B5806884BD60E0822F0F
:100780000C94C33884B58062F8CF809180008C7F50
:1007900082608093800080918100807E8061682BE0
:1007A0006093810050938700409386008091800081
:1007B000806880938000E2CF809180008C7F82608F
:1007C0008093800080918100807E8061682B60939F
:1007D0008100509387004093860080918000806262
:1007E000E8CF809180008C7F826080938000809130
:1007F0008100807E8061682B609381005093870028
:1008000040938600809180008860D3CF8091B000B3
:1008100080688093B0008091B100887F682B6093DE
:10082000B100ACCF8091B0008062F3CF8091900096
:100830008C7F82608093900080919100807E8061A7
:10084000682B60939100509397004093960080919D
:10085000900080688093900091CF809190008C7F71
:1008600082608093900080919100807E8061682BEF
:100870006093910050939700409396008091900070
:100880008062E8CF809190008C7F8260809390009E
:1008900080919100807E8061682B609391005093DD
:1008A000970040939600809190008860D3CF80910C
:1008B000A0008C7F82608093A0008091A100807E48
:1008C0008061682B6093A1005093A7004093A6001D
:1008D0008091A00080688093A00050CF8091A000FC
:1008E0008C7F82608093A0008091A100807E8061D7
:1008F000682B6093A1005093A7004093A6008091BD
:10090000A0008062E8CF8091A0008C7F82608093FD
:10091000A0008091A100807E8061682B6093A1007F
:100920005093A7004093A6008091A0008860D3CF89
:10093000809120018C7F8260809320018091210131
:10094000807E8061682B6093210150932701409342
:100950002601809120018068809320010FCF809133
:1009600020018C7F82608093200180912101807E14
:100970008061682B609321015093270140932601E9
:10098000809120018062E8CF809120018C7F82607D
:100990008093200180912101807E8061682B60938B
:1009A0002101509327014093260180912001886006
:1009B000D3CF611102C00C9487386130E1F362E05B
:1009C000FACF662319F061E00C94C33860E0FCCFE5
:1009D00090E080E008950F931F93009709F489C079
:1009E0006115710509F485C000917C0210917D02AA
:1009F00020917E0230917F020E3F1F4F2F4F3F4FBD
:100A000009F068C04FEF5FEFBA0140937C0250934A
:100A10007D0260937E0270937F0240917C02509130
:100A20007D0260917E0270917F02DC011296ED9151
:100A3000FC9180819181A281B38180939E049093E7
:100A40009F04A093A004B093A10484819581A68102
:100A5000B78180939A0490939B04A0939C04B093D5
:100A60009D0480859185A285B3858093960490939B
:100A70009704A0939804B093990484859585A685DE
:100A8000B7858093920490939304A0939404B093B9
:100A9000950410928E0410928F041092900410927C
:100AA00091040E9479148EE994E1909391038093CC
:100AB000900390939303809392030E94681300978E
:100AC00031F421E030E03093A3042093A2041F917D
:100AD0000F91089500917C0210917D0220917E0279
:100AE00030917F02DB010D931D932D933C9313975F
:100AF00094CF8FEF9FEFEBCF8F929F92AF92BF92E9
:100B0000CF92DF92EF92FF921F93CF93DF934B012F
:100B10005C011091A50482E090E09093A30480937F
:100B2000A20481149104A104B10441F48091A504AC
:100B3000811104C08091A404C1E08111C0E0C12CE6
:100B4000D12C76018091A504811106C08091A40466
:100B5000811102C0CC23D9F083E090E09093A304EC
:100B60008093A204CC2381F1CCE9DFEF111102C004
:100B70000E940318CE01DF91CF911F91FF90EF905B
:100B8000DF90CF90BF90AF909F908F9008956AE0D4
:100B900070E080E090E00E94B53680E1C80E87E208
:100BA000D81EE11CF11C8FEF88169806A806B8061F
:100BB00031F0C1E08C149D04AE04BF0408F0C0E025
:100BC00080E00E949C13BECFD0E0C0E0CFCFCF9298
:100BD000DF92EF92FF920F931F93CF93DF938F3F9C
:100BE000910511F008F051C02091A2043091A304A6
:100BF0002330310539F02091A2043091A304213033
:100C0000310531F424E030E03093A3042093A204B2
:100C10006A017B01EC0182309105A8F011E0AE0180
:100C2000C701B6010E946713AB01BC01CE011123BD
:100C3000F9F0DF91CF911F910F91FF90EF90DF902E
:100C4000CF900C942C1A8C01000F111F00571C4FD1
:100C5000D8018D919C91892B09F30E94361A029735
:100C6000E9F6D801ED91FC91CE011995182FD7CF57
:100C70000E944E1A90E080E0DF91CF911F910F917A
:100C8000FF90EF90DF90CF9008958FEF9FEFF4CF1C
:100C900080E00C949C13CF93DF9386E090E09093D8
:100CA000A3048093A2040E94F513EC01E0E9F3E0B1
:100CB00084E0DF011D928A95E9F70E949B1710924C
:100CC000A3041092A204CE01DF91CF9108958091E8
:100CD000A404089580918D04089560937C0270931C
:100CE0007D0280937E0290937F0290E080E00895E1
:100CF0002F923F924F925F926F927F928F929F922C
:100D0000AF92BF92CF92DF92EF92FF920F931F9319
:100D1000CF93DF93CDB7DEB7CB54D1090FB6F8949C
:100D2000DEBF0FBECDBF26967FAF6EAF269728964B
:100D30005FAF4EAF28973E8B2D8B2C96FFAEEEAE5D
:100D40002C97FB01E150F04CEE0FFF1FEE0FFF1F41
:100D5000E80FF91F80809180A280B3808F8A988EDF
:100D6000A98EBA8EB501A401442777FD4395552776
:100D70006627772729964FAF2997F901E150F04C64
:100D8000EE0FFF1FEE0FFF1F2896AEACBFAC2897EB
:100D9000EA0DFB1DC080D180E280F380CB8EDC8E1B
:100DA000ED8EFE8EB701A601442777FD43955527AA
:100DB000662777272A964FAF2A97188B0F87F80157
:100DC00030E020E02C96EEACFFAC2C972E153F05C2
:100DD0000CF43FC022969FAF8EAF22971A8B098BDF
:100DE000312C212C812C912C540183948D829E8254
:100DF000AF82B88626968EAC9FAC2697281439040D
:100E00007CF129969FAC29972A96AFAC2A9730E0BF
:100E100020E041E050E060E070E09A10F5C1C55B71
:100E2000DF4F0FB6F894DEBF0FBECDBFDF91CF917D
:100E30001F910F91FF90EF90DF90CF90BF90AF90F8
:100E40009F908F907F906F905F904F903F902F90EA
:100E5000089511921192119211922F5F3F4FB2CFCC
:100E60002296EEADFFAD229781919191A191B19122
:100E70002296FFAFEEAF22978F88988CA98CBA8C00
:100E8000B7FE23C04D815E816F8178854150510945
:100E9000610971095A016B01A81AB90ACA0ADB0A69
:100EA000D601C50121E0CD80DE80EF80F8848C156D
:100EB0009D05AE05BF0508F020E0822E912CB12CD7
:100EC000A12C8D829E82AF82B8865D01CC24DD2468
:100ED000A8A2B9A2CAA2DBA29C01AD014427552752
:100EE0002CA33DA34EA35FA32C96EEADFFAD2C9794
:100EF000E219F3098D889E888E169F060CF4F40182
:100F00002896AEACBFAC28972496BFAEAEAE249761
:100F1000C988DA88DC8ACB8A1E861D86812C912CB2
:100F20005401839489869A86AB86BC86812C912C49
:100F30005401CD84DE84CE16DF0604F1F7FF02C033
:100F4000F0E0E0E0E20DF31D2C96EEACFFAC2C9748
:100F5000EE15FF0554F4EE0FFF1FEE0FFF1FE00F1D
:100F6000F11F80829182A282B3822FEF221A320A6D
:100F7000E989FA893496FA8BE98B3CCF2496AEAD99
:100F8000BFAD2497CD90DD90ED90FD902496BFAF3E
:100F9000AEAF24972B8D3C8D4D8D5E8D57FF22C0BB
:100FA00089859A85AB85BC850197A109B109AC01FA
:100FB000BD014C195D096E097F096A017B0181E061
:100FC00029853A854B855C85C216D306E406F5066D
:100FD00008F080E0482F50E070E060E049875A87D1
:100FE0006B877C87B7018827992768A779A78AA785
:100FF0009BA7EE24FF2428A139A14AA15BA1C70128
:10100000B6010E94783C2B013C012CA13DA14EA1D0
:101010005FA168A579A58AA59BA50E94783C6CA7CD
:101020007DA78EA79FA7AB89BC894D915D916D91DE
:101030007D91BC8BAB8BDB01CA01880D991DAA1D6C
:10104000BB1D89839A83AB83BC8391E09F8F2981E9
:101050003A814B815C81281539054A055B0508F00A
:101060001F8E2CA13DA14EA15FA1C701B6010E9418
:10107000783C6B017C0189809A80AB80BC808C0CB1
:101080009D1CAE1CBF1C89829A82AB82BC8252011D
:101090009924882488AA99AAAAAABBAA29813A8154
:1010A0004B815C81280D391D4A1D5B1D2CAB3DAB6E
:1010B0004EAB5FAB8CA49DA4AEA4BFA454019924F5
:1010C000882488AE99AEAAAEBBAE280D391D4A1D44
:1010D0005B1D2CAF3DAF4EAF5FAFAB89BC891497A2
:1010E0002D933D934D935C93139728A139A14AA169
:1010F0005BA168A579A58AA59BA50E94783C9F8CD9
:10110000690D711D811D911D230166247724460EF2
:10111000571E681E791E2CA53DA54EA55FA54A0148
:10112000AA24BB24840C951CA61CB71C81E090E06B
:10113000A0E0B0E049815A816B817C814C155D054E
:101140006E057F0518F080E090E0DC01880D991DA8
:10115000AA1DBB1D41E050E060E070E088A899A89E
:10116000AAA8BBA8CCA8DDA8EEA8FFA8C814D904DB
:10117000EA04FB0418F040E050E0BA01840F951F28
:10118000A61FB71F812C912C54018394C8ACD9ACF5
:10119000EAACFBAC2CAD3DAD4EAD5FAD2C153D05C5
:1011A0004E055F0518F0812C912C5401880E991E74
:1011B000AA1EBB1E4D855E854F5F5F4F5E874D87C4
:1011C000B8CEEF85F889C190D190E190F190F88B7D
:1011D000EF87DB01CA010197A109B1098C199D09AB
:1011E000AE09BF09349780839183A283B383E1E082
:1011F00084179507A607B70708F0E0E04E2F50E0E8
:1012000070E060E02F5F3F4F2C968EAC9FAC2C9728
:1012100028153905B4F203CE2F923F924F925F9278
:101220006F927F928F929F92AF92BF92CF92DF92F6
:10123000EF92FF920F931F93CF93DF9379011B01DE
:10124000DA01D0E0C0E040E050E0BA01CE15DF05A1
:101250009CF0DF91CF911F910F91FF90EF90DF9065
:10126000CF90BF90AF909F908F907F906F905F9046
:101270004F903F902F900895FC0181909190A19004
:10128000B190CF01F10101911191219131911F0193
:1012900024013501401A510A620A730A930182013E
:1012A000041B150B260B370B0D931D932D933D93AC
:1012B00066246394712CC12CD12C452B462B472BD3
:1012C00039F0081519052A053B0538F4612C05C0CD
:1012D00080169106A206B306C8F7A301B6012196AF
:1012E000B5CF2F923F924F925F926F927F928F92E3
:1012F0009F92AF92BF92CF92DF92EF92FF920F93A5
:101300001F93CF93DF9300D01F92CDB7DEB78B0131
:101310005C834B83FB01E150F04CEE0FFF1FEE0F9F
:10132000FF1FE80FF91F408151816281738177FDB2
:1013300027C04C01B12CA12CC12CD12C7601A016B8
:10134000B10664F5F40161917191819191914F0120
:101350000E9416334B815C810E94CE339B01AC010D
:10136000C701B6010E9415326B017C012B813C81C3
:10137000205E3F4F3C832B833FEFA31AB30ADFCF9E
:101380009A838983312C212C81E090E0A0E0B0E0A9
:10139000C12CD12C760120163106CCF0C701B60144
:1013A0000F900F900F900F90DF91CF911F910F91A1
:1013B000FF90EF90DF90CF90BF90AF909F908F9075
:1013C0007F906F905F904F903F902F900895E981AC
:1013D000FA814190519061907190FA83E983409431
:1013E00050946094709453014201880E991EAA1E75
:1013F000BB1EC501B4010E9416334B815C810E9463
:10140000CE339B01AC01C701B6010E9414326B01BF
:101410007C0181E084149504A604B70408F080E000
:1014200090E0B0E0A0E02B813C81205E3F4F3C8308
:101430002B833FEF231A330AAECF2F923F924F9266
:101440005F926F927F928F929F92AF92BF92CF9254
:10145000DF92EF92FF920F931F93CF93DF93CDB75D
:10146000DEB7E2970FB6F894DEBF0FBECDBF209077
:101470003A0C30903B0C60915C0470915D0480915B
:101480005E0490915F040E94163320E030E040E853
:101490005FE40E9402346B017C01609158047091FA
:1014A000590480915A0490915B040E9416339B0169
:1014B000AC01C701B6010E9415322AE037ED43E2C4
:1014C0005CE30E9402346B017C01D10158968D903F
:1014D0009D90AD90BC905B97AC019B01C501B401A0
:1014E0000E94793287FF04C21092A40B1092A50BC0
:1014F0001092A60B1092A70B8091A40B9091A50BB4
:10150000A091A60BB091A70B8093A80B9093A90B69
:10151000A093AA0BB093AB0BC0904002D0904102B5
:10152000E0904202F0904302A70196016091F50B12
:101530007091F60B8091F70B9091F80B0E94793225
:10154000882341F0C092F50BD092F60BE092F70B96
:10155000F092F80B8091F40B81111092F40B6CED6A
:101560007BE08091F90B0E949D02C0904402D090D4
:101570004502E0904602F0904702A7019601609173
:10158000E90B7091EA0B8091EB0B9091EC0B0E94B0
:101590007932882341F0C092E90BD092EA0BE092B5
:1015A000EB0BF092EC0B8091E80B81111092E80BA1
:1015B00068ED7BE08091ED0B0E949D028091DC0B39
:1015C0009091DD0BA091DE0BB091DF0B8093D00BDF
:1015D0009093D10BA093D20BB093D30B4091D80B27
:1015E0005091D90B6091DA0B7091DB0B4093D40BC7
:1015F0005093D50B6093D60B7093D70B4091A80BEB
:101600005091A90B6091AA0B7091AB0B4093B40B56
:101610005093B50B6093B60B7093B70B4091780263
:101620005091790260917A0270917B0249A35AA38A
:101630006BA37CA38DA39EA3AFA3B8A742E0E42E27
:10164000F12C8E01075E1F4F21E030E0AE014B5DB3
:101650005F4F61E070E0CE0181964ADB88E0F801DF
:10166000A4E9BBE001900D928A95E1F788E0F801CA
:10167000DE01119601900D928A95E1F722E030E0AB
:10168000AE014F5E5F4F6AE27CE0C801C5DD88E0D5
:10169000FE017196A4E8BBE001900D928A95E1F7F6
:1016A00050E040E062E070E0CE0141961ADE20E0BA
:1016B00030E048E45DE20E9402346093AC0B70932A
:1016C000AD0B8093AE0B9093AF0B6093B80B709300
:1016D000B90B8093BA0B9093BB0B8091D40B909174
:1016E000D50BA091D60BB091D70B8DA39EA3AFA322
:1016F000B8A721E030E0AE014B5D5F4F61E070E0E4
:10170000CE018196F5DA88E0F801ACE9BBE0019002
:101710000D928A95E1F788E0F801DE0119960190B3
:101720000D928A95E1F722E030E0AE014F5E5F4F07
:1017300062E37CE0C80170DD88E0FE017196ACE8F0
:10174000BBE001900D928A95E1F750E040E062E045
:1017500070E0CE014196C5DD20E030E048E45DE276
:101760000E9402346093B00B7093B10B8093B20B64
:101770009093B30B6093BC0B7093BD0B8093BE0B27
:101780009093BF0B2091A40B3091A50B4091A60B19
:101790005091A70B609150027091510280915202BA
:1017A000909153020E9402345B018C01CB01D8015D
:1017B0008093C40B9093C50BA093C60BB093C70B3B
:1017C000C0905402D0905502E0905602F09057021B
:1017D000A7019601B501C8010E94C833181694F0FC
:1017E000C0905802D0905902E0905A02F0905B02EB
:1017F000A7019601B501C8010E94793287FD02C098
:1018000065017801E894F7F8C092C00BD092C10B43
:10181000E092C20BF092C30B69E070E080E090E0D0
:101820000E94F6028C019093110C8093100CC090D2
:10183000C00BD090C10BE090C20BF090C30B20E026
:1018400030E04FE753E4C701B6010E947932181621
:101850000CF451C120E030E0A901C701B6010E949B
:10186000C83387FF03C0C12CD12C7601B701A60174
:10187000C8010E94BF0211E020914C0230914D023C
:1018800040914E0250914F026091C40B7091C50B74
:101890008091C60B9091C70B0E947932811101C0D3
:1018A00010E01093E00B612F88E08BD88090C40B80
:1018B0009090C50BA090C60BB090C70BC0905C0277
:1018C000D0905D02E0905E02F0905F02A701960169
:1018D000C501B4010E94C83318160CF013C1C092A0
:1018E000C40BD092C50BE092C60BF092C70B1AC185
:1018F000A7019601F10160817181828193810E942B
:10190000C83310E000E087FF38C0A7019601C50189
:10191000B4010E94793205E010E0181674F50091C8
:10192000440C1091450C5801AA0CBB1CAA0CBB1C02
:1019300041018A0C9B1CA7019601D4016D917D91F8
:101940008D919C910E94C833B4E0AB0EB11CA20CE7
:10195000B31C18160CF05CC0E4E08E1A9108A701C5
:101960009601D40114966D917D918D919C9117975C
:101970000E94C83318160CF446C080913C0C90911C
:101980003D0C9AA789A71093450C0093440C000FB7
:10199000111F000F111FF101E00FF11F4080518056
:1019A00062807380D8011496BEA7ADA7FD01E20D39
:1019B000F31D80819181A281B3818FA798ABA9ABE0
:1019C000BAAB9C01AD01C301B2010E947932811111
:1019D00033C0A3019201C701B6010E94793287FF8B
:1019E00024C0A9A5BAA50A0F1B1FF8018081918107
:1019F000A281B3818093A40B9093A50BA093A60B17
:101A0000B093A70B79CD01501109A6CF0F5F1F4FDF
:101A1000F50161917191819191915F01A701960109
:101A20000E947932181694F7A8CFE9A5FAA58DA5DA
:101A30009EA5E80FF91FDACFA9A5BAA50A0F1B1FAB
:101A4000F80180809180A280B380FD018DA59EA5C4
:101A5000E80FF91F80819181A281B38189A79AA79C
:101A6000ABA7BCA79C01AD01C501B4010E947932AE
:101A70008823C1F1A70196016FA578A989A99AA920
:101A80000E9414326B017C01A30192016FA578A919
:101A900089A99AA90E9414329B01AC01C701B60121
:101AA0000E947D326B017C01AC019B0160E070E023
:101AB00080E89FE30E94143229A53AA54BA55CA5B6
:101AC0000E9402342B013C01A5019401C701B6011B
:101AD0000E9402349B01AC01C301B2010E94153285
:101AE0004B015C018092A40B9092A50BA092A60BD7
:101AF000B092A70B01CDC12CD12C3FE7E32E33E4EC
:101B0000F32EB4CEC0906002D0906102E0906202E9
:101B1000F0906302A7019601C501B4010E947932D9
:101B200087FDDDCE6AE070E080E090E00E94F60282
:101B30008C019093190C8093180CC090C40BD0901A
:101B4000C50BE090C60BF090C70B20E030E04FE7EC
:101B500053E4C701B6010E94793218160CF4C4C0D0
:101B600020E030E0A901C701B6010E94C83387FF19
:101B700003C0C12CD12C7601B701A601C8010E9477
:101B8000BF022091A40B3091A50B4091A60B509160
:101B9000A70B60916402709165028091660290913A
:101BA00067020E9402349B01AC012093CC0B30935E
:101BB000CD0B4093CE0B5093CF0B11E060914802B8
:101BC0007091490280914A0290914B020E947932B1
:101BD000811101C010E01093E10B612F8DE00E9494
:101BE000E104A090CC0BB090CD0B0091CE0B1091E6
:101BF000CF0BC0906802D0906902E0906A02F0902A
:101C00006B02A7019601B501C8010E94C8331816DE
:101C100094F0C0906C02D0906D02E0906E02F09053
:101C20006F02A7019601B501C8010E94793287FDB4
:101C300002C065017801E894F7F8C092C80BD09211
:101C4000C90BE092CA0BF092CB0B6BE070E080E026
:101C500090E00E94F6028C019093010C8093000C9E
:101C6000C090C80BD090C90BE090CA0BF090CB0B82
:101C700020E030E04FE753E4C701B6010E9479321B
:101C80001816CCF120E030E0A901C701B6010E948E
:101C9000C83387FF03C0C12CD12C7601B701A60140
:101CA000C8010E94BF028090CC0B9090CD0BA090F9
:101CB000CE0BB090CF0BC0907002D0907102E0902C
:101CC0007202F0907302A7019601C501B4010E944F
:101CD000C8331816BCF4C092CC0BD092CD0BE09256
:101CE000CE0BF092CF0B1EC0C12CD12C2FE7E22ED1
:101CF00023E4F22E41CFC12CD12C9FE7E92E93E4AF
:101D0000F92ECCCFC0907402D0907502E09076028C
:101D1000F0907702A7019601C501B4010E947932C3
:101D200087FDD9CF6CE070E080E090E00E94F60281
:101D30008C019093090C8093080CC090CC0BD09030
:101D4000CD0BE090CE0BF090CF0B20E030E04FE7D2
:101D500053E4C701B6010E94793218160CF427C16A
:101D600020E030E0A901C701B6010E94C83387FF17
:101D700003C0C12CD12C7601B701A601C8010E9475
:101D8000BF0288E0FE013196AAE2BCE001900D920C
:101D90008A95E1F788E0FE013996A2E3BCE0019064
:101DA0000D928A95E1F760915004709151048091F1
:101DB0005204909153040E94163320E030E040E832
:101DC0005FE40E9402346B017C0160914C047091CD
:101DD0004D0480914E0490914F040E9416339B0154
:101DE000AC01C701B6010E94153220E030E0A90124
:101DF0000E9415320E94EA32AB01BC0190E080E003
:101E00000E94E70560915C0470915D0480915E041E
:101E100090915F040E94163320E030E040E85FE4D8
:101E20000E9402346B017C01609158047091590446
:101E300080915A0490915B040E9416339B01AC017F
:101E4000C701B6010E94153220E030E0A9010E94CE
:101E500015320E94EA32AB01BC0181E090E00E94A1
:101E6000E705C0904C04D0904D04E0904E04F090F3
:101E70004F049FEFC91AD90AE90AF90AC0924C0423
:101E8000D0924D04E0924E04F0924F04C114D1045C
:101E9000E104F10499F48091500490915104A091CF
:101EA0005204B09153040196A11DB11D80935004BA
:101EB00090935104A0935204B0935304809054041F
:101EC00090905504A0905604B09057040091670478
:101ED00010916804609150047091510480915204F3
:101EE000909153040E941633A50194010E9402347C
:101EF00020E030E040E85FE40E9402342B013C0126
:101F0000C701B6010E941633A50194010E94023454
:101F10009B01AC01C301B2010E941532D8016D933F
:101F20007D938D939C9313978091580490915904BD
:101F3000A0915A04B0915B040196A11DB11D80933C
:101F4000580490935904A0935A04B0935B04892BCE
:101F50008A2B8B2B99F480915C0490915D04A09165
:101F60005E04B0915F040196A11DB11D80935C04D5
:101F700090935D04A0935E04B0935F04E2960FB665
:101F8000F894DEBF0FBECDBFDF91CF911F910F91AF
:101F9000FF90EF90DF90CF90BF90AF909F908F9089
:101FA0007F906F905F904F903F902F900895C12C3D
:101FB000D12C8FE7E82E83E4F82EDECE8F929F920D
:101FC000AF92BF92DF92EF92FF920F931F93CF9346
:101FD000DF93E2EBF3E08FEBDF011D928A95E9F7E7
:101FE00084E694E097838683C7E6D4E0D093F30336
:101FF000C093F20304E514E0158B048BF0931D04E9
:10200000E0931C04F583E48321E030E0DC012D93B0
:102010003C9385EB92E09387828729E634E039830D
:10202000288340E050E060E271E440936004509304
:10203000610460936204709363044AE057ED63E2C5
:102040007CE3D8014D935D936D937C931397CAE322
:10205000D4E08DE798E0A3E4B3E788839983AA836B
:10206000BB838DEA99EDA7EAB3E780933E04909392
:102070003F04A0934004B09341048EE492E4A8EF9F
:10208000BCE28093420490934304A0934404B09331
:10209000450481E19AEAA9E3B9E680934604909366
:1020A0004704A0934804B0934904A6EAB3E0B3837D
:1020B000A283E4E9F3E01196FC93EE9387EC92E0BF
:1020C000918380839383828395838483978386839C
:1020D000918780879387828795878487978786876C
:1020E000918B808B8AE494E015969C938E93149741
:1020F0001396DC93CE93129717963C932E931697D4
:10210000E4E8FBE08EE5DF011D928A95E9F7C2EE77
:10211000DBE08CE6FE0111928A95E9F78CE192E012
:1021200090933B0C80933A0C80E092E090933D0CAE
:1021300080933C0CDD24D394D0924D0C08E312E044
:10214000F80180859185A285B3858B8B9C8BAD8BA7
:10215000BE8B812C912C540183948D869E86AF86F4
:10216000B88A49EF5BE063E082E00E949401D98A7B
:102170001A8A1B861882D0924C0CF80184859585AA
:10218000A685B7858F839887A987BA8789829A821F
:10219000AB82BC824DEE5BE063E182E10E94940180
:1021A000DD821E8218A6D0924A0C89A69AA6ABA6FA
:1021B000BCA6E12CF12C8701A801970169E070E031
:1021C00080E090E00E943A039FA78EA7DDA618AE9C
:1021D000D092480C89AE9AAEABAEBCAE61E088E05E
:1021E0000E94D904DDAE18AAD0924B0C89AA9AAAF3
:1021F000ABAABCAAA80197016AE070E080E090E079
:102200000E943A039FAB8EABDDAA1092220CD092B3
:10221000490C8092230C9092240CA092250CB09231
:10222000260C61E08DE00E94D904D092270C188E14
:10223000D092460C898E9A8EAB8EBC8EA8019701E7
:102240006BE070E080E090E00E943A039F8F8E8FF9
:10225000DD8E18A2D092470C89A29AA2ABA2BCA292
:10226000A80197016CE070E080E090E00E943A03E2
:102270009FA38EA3DDA288E0E8E3F2E0AAE2BCE03F
:1022800001900D928A95E1F788E0E8E3F2E0A2E39D
:10229000BCE001900D928A95E1F78F890E94AF0210
:1022A0008B85DF91CF911F910F91FF90EF90DF9081
:1022B000BF90AF909F908F900C94AF028091EE0BE7
:1022C000811114C081E08093EE0B8091EF0B90910F
:1022D000F00BA091F10BB091F20B0197A105B105A4
:1022E00029F48091F30B81110E94BC028091E20BD2
:1022F000811114C081E08093E20B8091E30B9091F7
:10230000E40BA091E50BB091E60B0197A105B10597
:1023100029F48091E70B81110E94BC0280910A0C84
:1023200081112EC081E080930A0C80910B0C90915A
:102330000C0CA0910D0CB0910E0C0197A105B105EC
:10234000F9F480910F0C8823D9F069E070E080E007
:1023500090E00E94F6029093110C8093100C40E0E4
:1023600050E0BA010E94BF0269E070E080E090E0B6
:102370000E94F6029093110C8093100C0E948B0324
:1023800080911A0C811103C081E080931A0C809116
:10239000120C81112EC081E08093120C8091130CDD
:1023A0009091140CA091150CB091160C0197A105F9
:1023B000B105F9F48091170C8823D9F06AE070E038
:1023C00080E090E00E94F6029093190C8093180C24
:1023D00040E050E0BA010E94BF026AE070E080E095
:1023E00090E00E94F6029093190C8093180C0E94C2
:1023F0008B038091220C811103C081E08093220C19
:102400008091FA0B81112EC081E08093FA0B8091AC
:10241000FB0B9091FC0BA091FD0BB091FE0B019773
:10242000A105B105F9F48091FF0B8823D9F06BE089
:1024300070E080E090E00E94F6029093010C80939F
:10244000000C40E050E0BA010E94BF026BE070E077
:1024500080E090E00E94F6029093010C8093000CC3
:102460000E948B038091020C81112EC081E0809329
:10247000020C8091030C9091040CA091050CB0917A
:10248000060C0197A105B105F9F48091070C88238A
:10249000D9F06CE070E080E090E00E94F60290934A
:1024A000090C8093080C40E050E0BA010E94BF0282
:1024B0006CE070E080E090E00E94F6029093090CDE
:1024C0008093080C0C948B0308954F925F926F9247
:1024D0007F928F929F92AF92BF92CF92DF92EF92B4
:1024E000FF920F931F93F89440907D0450907E04C8
:1024F00060907F0470908004C0907104D09072044A
:10250000E0907304F09074044130510509F0A4C0C8
:102510009B01AC01241935094609570929013A01E3
:102520000091790410917A0420917B0430917C040D
:1025300048015901840C951CA61CB71C80169106F5
:10254000A206B306A0F400917504109176042091C0
:102550007704309178040F5F1F4F2F4F3F4F009348
:102560007504109376042093770430937804809256
:10257000790490927A04A0927B04B0927C0400913A
:10258000750410917604209177043091780480923C
:10259000810490928204A0928304B09284040093F8
:1025A00085041093860420938704309388046093F5
:1025B0007D0470937E0480937F0490938004A0E157
:1025C000B7E2A30192010E94C53C6C0D7D1D8E1DDA
:1025D0009F1D6093710470937204809373049093B1
:1025E000740400917C0210917D0220917E02309152
:1025F0007F020F3F1F4F2F4F3F4FF1F000917C02A2
:1026000010917D0220917E0230917F020E3F1F4F7C
:102610002F4F3F4F89F0C0907C02D0907D02E09018
:102620007E02F0907F0221E08C149D04AE04BF0472
:1026300008F420E020938D0478941F910F91FF906F
:10264000EF90DF90CF90BF90AF909F908F907F9052
:102650006F905F904F9008954B015C01841895082E
:10266000A608B708A3019201261B370B480B590B8C
:102670006415750586059705D0F082169306A406A5
:10268000B50640F420E030E0A90181149104A104D2
:10269000B10491F4A0E1B7E20E94C53CA701960104
:1026A000261B370B480B590BCA01B901C5CF82163F
:1026B0009306A406B50670F7A0E1B7E2A501940160
:1026C0000E94C53C6C0D7D1D8E1D9F1DB5CFFDCE9E
:1026D000CF93DF9300D01F92CDB7DEB71C821B8251
:1026E0001A8219821092890410928A0410928B0423
:1026F00010928C04BE016F5F7F4FCE0103960E9443
:10270000653069817A818B819C810E945329009771
:1027100061F4BE016F5F7F4FCE0103960E9471305E
:1027200069817A818B819C812FD50F900F900F90BA
:102730000F90DF91CF910895FF920F931F93CF9346
:10274000DF93082F60E070E0CB010E94B536FF24D4
:10275000F3940E943C28EC01892B89F010E0CE3FD5
:102760008FEFD80769F0002361F160E070E0CB01E2
:102770000E94B53681E090E0892B59F322C011E028
:1027800026D5EC01892B21F0CE3F8FEFD80759F7E2
:1027900011111EC011E0229609F410E00E94EC27EE
:1027A000EC01892B21F0CE3F8FEFD807E1F6111114
:1027B00011C011E0CE3F8FEFD80709F410E00111EE
:1027C0000BC0CE01DF91CF911F910F91FF90089523
:1027D00011E0E4CF11E0F3CF60E070E0CB010E94A4
:1027E000B5361F25812F90E0C7CFCF93DF9380911F
:1027F0008D04882321F060E070E0CB014DD636D601
:10280000D0E0C0E0892B71F06AE070E080E090E0F9
:102810000E94B53681E090DF29D62196C03D27E0A1
:10282000D20781F728D60E94A7291092A5041092FA
:10283000A40410929E0410929F041092A00410927F
:10284000A10410929A0410929B0410929C0410927E
:102850009D0410929604109297041092980410927E
:10286000990410929204109293041092940410927E
:10287000950410928E0410928F041092900410927E
:1028800091044EEF5FEF6FEF7FEF40937C02509328
:102890007D0260937E0270937F0210928D04E1E8C6
:1028A000F4E028E0DF011D922A95E9F710927D04FB
:1028B00010927E0410927F0410928004109279048A
:1028C00010927A0410927B0410927C04109275048A
:1028D000109276041092770410927804109271048A
:1028E000109272041092730410927404DF91CF91CD
:1028F00008951092B1041092B2041092B304109291
:10290000B4041092B0048091B9049091BA049093E9
:10291000AF048093AE041092AD041092AC041092F8
:10292000A8041092A9041092AA041092AB04109269
:10293000B6041092B50490E080E00895CF92DF9243
:10294000EF92FF920F931F93CF938C01019709F0A1
:1029500055C02091B9043091BA048091AE04909191
:10296000AF044091B9045091BA045093AF0440931E
:10297000AE042817390781F01092AD041092AC0410
:102980001092A8041092A9041092AA041092AB0409
:102990001092B6041092B5048091B9049091BA04D3
:1029A000019761F58091B5049091B604892B21F4CB
:1029B00080918002811112C08091B5049091B6047B
:1029C0000197E1F48091A8049091A904A091AA0430
:1029D000B091AB040197A105B10581F41092A80450
:1029E0001092A9041092AA041092AB0410928002D3
:1029F00082E090E09093B6048093B5048091B9048E
:102A00009091BA04019709F01CC18091CF04909174
:102A1000D0048017910709F014C18091CB049091E4
:102A2000CC04A091CD04B091CE04009709F409C163
:102A30002091CA0421110DC04091CB045091CC04C7
:102A40006091CD047091CE04452B462B472B09F4A1
:102A5000F8C02091B5043091B6042230310509F058
:102A6000F0C02091AC042111ECC0FC01C080D180E9
:102A7000E280F3808091B004882309F4D3C0809170
:102A8000BC049091BD04892B09F4FEC02091BC04C4
:102A90003091BD0481E02230310509F080E02091C1
:102AA000BC043091BD04C1E02130310549F02091D2
:102AB000BC043091BD04C1E02230310509F0C0E012
:102AC000882309F456C02091C6043091C704409170
:102AD000C8045091C904C701B6010E94C83387FDDC
:102AE00014C02091C6043091C7044091C80450918D
:102AF000C9046091B1047091B2048091B3049091C3
:102B0000B4040E94793287FD22C02091C60430911E
:102B1000C7044091C8045091C904C701B6010E947E
:102B2000C833181634F52091C6043091C70440917B
:102B3000C8045091C9046091B1047091B2048091AD
:102B4000B3049091B4040E947932811112C0809133
:102B5000BE049091BF04A091C004B091C104892B20
:102B60008A2B8B2B19F481E08093AD0481E0809354
:102B7000AC04CC2309F456C02091C6043091C7049C
:102B80004091C8045091C904C701B6010E9479322E
:102B900087FF14C02091C6043091C7044091C80437
:102BA0005091C9046091B1047091B2048091B30452
:102BB0009091B4040E94C83387FF22C02091C604BC
:102BC0003091C7044091C8045091C904C701B601AF
:102BD0000E947932811126C02091C6043091C70429
:102BE0004091C8045091C9046091B1047091B2043D
:102BF0008091B3049091B4040E94C833181694F4E1
:102C00008091BE049091BF04A091C004B091C10412
:102C1000892B8A2B8B2B19F481E08093AD0481E002
:102C20008093AC0481E09091AC04911180E080939A
:102C3000B004C092B104D092B204E092B304F09216
:102C4000B4040130110509F067C18091B504909179
:102C5000B604892BD9F41092BB041092AC04809175
:102C60008002882379F082E090E09093B60480930C
:102C7000B504109280022091B9043091BA0481E029
:102C8000232BE9F080E01BC081E009CF1092800285
:102C90008091BB04882349F01092AD041092B604D1
:102CA0001092B5041092BB04EDCF8091B9049091BD
:102CB000BA04892BE1F08091AC041092AC0420910D
:102CC000B5043091B6042230310509F45EC088F4B1
:102CD0002115310509F448C02130310509F4F3C04C
:102CE0001092AD041092AC041092BB0438C081E085
:102CF000E6CF2330310509F4B1C02430310581F726
:102D00004091A8045091A9046091AA047091AB0469
:102D1000411551056105710561F041505109610985
:102D200071094093A8045093A9046093AA04709376
:102D3000AB044091A8045091A9046091AA04709139
:102D4000AB04452B462B472BD9F42091B704309187
:102D5000B8042130310509F046C01092AD0410923C
:102D6000B6041092B5040CC080918002882341F013
:102D700082E090E09093B6048093B50410928002B4
:102D80001092A6048091AD04CEC08823C9F380912F
:102D9000BE049091BF04A091C004B091C104181664
:102DA00019061A061B060CF07DC08091B90490919B
:102DB000BA04019709F076C08091BE049091BF04D7
:102DC000A091C004B091C1048093A8049093A90479
:102DD000A093AA04B093AB0483E090E09093B60470
:102DE0008093B504CDCF4091C2045091C30460914B
:102DF000C4047091C504452B462B472BA9F01092B3
:102E0000AD048091C2049091C304A091C404B09118
:102E1000C5048093A8049093A904A093AA04B09336
:102E2000AB0481E090E0DACF882399F080918102B1
:102E300090918202A0918302B09184028093A804B1
:102E40009093A904A093AA04B093AB0484E090E00B
:102E5000C5CF1092AD0482E090E0C0CF8091A8046D
:102E60009091A904A091AA04B091AB040097A10588
:102E7000B10559F00197A109B1098093A804909375
:102E8000A904A093AA04B093AB048091A8049091E4
:102E9000A904A091AA04B091AB04892B8A2B8B2B97
:102EA00009F06ECF8091810290918202A0918302FD
:102EB000B0918402892B8A2B8B2B09F44ECF81E0B1
:102EC0008093AD04B3CF4091A8045091A9046091C0
:102ED000AA047091AB04411551056105710561F0BB
:102EE00041505109610971094093A8045093A90404
:102EF0006093AA047093AB044091A8045091A90474
:102F00006091AA047091AB04452B462B472B09F026
:102F100037CF8111C7CF9FCF8091A604882309F4B2
:102F200031CF8091A704CF911F910F91FF90EF9027
:102F3000DF90CF9008951092B1041092B2041092D5
:102F4000B3041092B4041092B0041092B60410921C
:102F5000B5041092AF041092AE041092D0041092F7
:102F6000CF041092AD041092AC041092A8041092F9
:102F7000A9041092AA041092AB041092A704109214
:102F8000A6041092CB041092CC041092CD0410929F
:102F9000CE041092CA041092C6041092C704109274
:102FA000C8041092C90488EE93E0A0E0B0E08093DA
:102FB000810290938202A0938302B09384021092C4
:102FC000C2041092C3041092C4041092C50410925B
:102FD000BE041092BF041092C0041092C10410925B
:102FE000BD041092BC0481E0809380021092BB0467
:102FF0001092BA041092B9041092B8041092B70457
:1030000090E080E008958091B9049091BA04892BF2
:1030100019F580918002882351F08091BB048111C1
:1030200006C081E08093A7048093A60408952091B0
:10303000BB043091800281E090E0332311F090E0F6
:1030400080E030E082239323892B21F01092A704A3
:1030500081E0EACF1092A604089582E090E0FA01A0
:10306000918380838FEF9FEF0895CF93DF93EA01E1
:10307000009711F00E94C72A1982188290E080E020
:10308000DF91CF910895DB01009719F48FEF8C93B6
:1030900008952EEF2C93FC013F96EF30F10508F0D8
:1030A00034C08827E95AF74E8F4F0C94BD3C8318E3
:1030B00081187F187D187B18771879187518731880
:1030C00071186E186A1866186C18851880E31196C6
:1030D0008C93089589E2FBCF82E2F9CF11961C927E
:1030E000089583E2F4CF81E2F2CF81E1F0CF87E26D
:1030F000EECF8AE2ECCF80E1EACF84E2E8CF88E24B
:10310000E6CF86E2E4CF81E3E2CF80E2E0CF8091B8
:10311000DD049091DE0408959093DE048093DD0435
:1031200008958091DC0408959091DC04892B8093AC
:10313000DC040895982F90958091DC048923809376
:10314000DC0408958091DB0408958091D904909166
:10315000DA0408956115710559F0FB0130E020E0B3
:1031600070E060E02417350719F06115710511F062
:10317000CB010895A081B181A817B90709F4BF0157
:103180002F5F3F4F3696EECF8091DF0481111CC038
:1031900060D266D29093D2048093D1040E94C5225B
:1031A0000E94D7229093D6048093D5040E9454277E
:1031B0000E945B279093D4048093D30481E0809392
:1031C000DF0490E080E0089584EF9FEF08958F92F0
:1031D0009F92AF92BF92CF92DF92EF92FF920F93A6
:1031E0001F93CF93DF9300D000D000D01F92CDB7B4
:1031F000DEB71A86198618861F821E821D821C82DF
:103200001B821A8219828091DF0407EF1FEF882347
:1032100009F49CC08E010D5F1F4F9E012B5F3F4F35
:10322000AE01495F5F4FBE01675F7F4F90E080E076
:103230000E94D8288C01009721F00596029708F08B
:10324000DBC029853A852115310509F402C1ED80DD
:10325000FE804B815C81B701640F751F8F8198855B
:103260008617970708F4F5C0E20EF31ED7019C916C
:10327000903C09F07FC04230510508F47BC01196A4
:103280008C914091DD045091DE04452B09F49CC0E3
:10329000913F08F071C02CE1290F2D3008F48BC04C
:1032A0002DE2290F203108F489C0903C21F481508F
:1032B000823008F483C088E3890F8B3008F481C022
:1032C00093E4C92E98E1D92EEDE2F8E16D817E817B
:1032D000AE014F5F5F4F89859A8519955C01C114D6
:1032E000D104A1F189809A808114910479F18B81B4
:1032F0009C818815990508F487C010E000E04B8197
:103300005C8170E060E0C7010E94E73C0115110597
:10331000E9F449815A8169857A858D819E81680F9A
:10332000791FC501F6011995E980FA800D811E818A
:103330002F81388549855A856FEF7FEF81E090E0D6
:103340000E9473288C01892B09F056C0C8012A9667
:103350000FB6F894DEBF0FBECDBFDF91CF911F91A6
:103360000F91FF90EF90DF90CF90BF90AF909F9024
:103370008F90089580E085CF30E020E0220F331F4A
:10338000F901EF52FB4F0190F081E02D309709F4E5
:1033900097CF892F90E01995009709F491CFDC0120
:1033A0001296ED91FC9113971496CD90DC90309786
:1033B00009F08CCF1FC021E030E0E0CF22E030E008
:1033C000DDCF23E030E0DACFD12CC12CE5E3F8E10A
:1033D0009F3F09F07BCFE091D104F091D204309768
:1033E00021F4C90104EF1FEF0CC08FEF90E0199595
:1033F0000097A9F604EF1FEF89859A85009709F4D5
:10340000A5CF0E94C72AA2CF0E94A2298C0189853C
:103410009A850E94C72A70E060E0C4010E943B299F
:1034200098878F830E9470289E838D836F81788513
:103430006115710559F0C8010E94532C9A8789873C
:1034400006EF1FEF892B09F058CF59CF08EF1FEF78
:1034500056CF08EF1FEFD0CF2091DF04222319F0C1
:1034600020E00C94DC2287EF9FEF08958091DD042B
:103470009091DE0408950E9460270E94BA26F5D03C
:10348000E1EDF4E088E0DF011D928A95E9F7109202
:10349000DF0490E080E008950C94182521E040E0DE
:1034A00050E0BA010C94DC2286E090E0FA019183AE
:1034B000808390E080E0089547E050E06AEC72E09D
:1034C00049CEDF92EF92FF920F931F93CF93DF933A
:1034D0008A01EC01C60FD71FE090E304F090E404EA
:1034E000D9800E948A29D816190678F082E090E0E7
:1034F000F801918380838EEF9FEFDF91CF911F9131
:103500000F91FF90EF90DF900895EF2841F482E053
:1035100090E0F8019183808384EF9FEFEECF898163
:103520008093E20490E00196F8019183808390E01B
:1035300080E0E3CFCF93DF93EA010E94C92588237F
:1035400021F00E9497290E94CA2582E090E0998389
:1035500088838BEF9FEFDF91CF910895CF93DF9317
:10356000EB0186E0FB0111928A95E9F78FEF8883E2
:10357000D8DD8983E7DD8A83E8DD9D838C83DF9155
:10358000CF910895CF93DF93EA010E94CC2581115A
:1035900009C082E090E09983888385EF9FEFDF91F7
:1035A000CF91089590E080E0B7DD81E090E09983CD
:1035B000888390E080E0F3CF0F931F93CF93DF9346
:1035C000EA018C01060F171F0E94CC2581110BC048
:1035D00082E090E09983888385EF9FEFDF91CF9120
:1035E0001F910F910895F8018181823038F082E0B7
:1035F00090E0998388838EEF9FEFF0CF81E090E099
:103600008BDD88E090E09983888390E080E0E6CFCE
:10361000CF93DF930097D1F4EB01FB01329686E064
:10362000DF011D928A95E9F78FEF888385E0898312
:103630001A820E948A298B830E9489299D838C8308
:1036400081E08E838F83DF91CF910895DF91CF91B9
:103650001ACD8CE59AE19093E1048093E0040895FB
:103660008091E0049091E10408951092E104109299
:10367000E00408958091E3049091E40408954111D9
:1036800005C0611571058105910561F06093E30442
:103690007093E4048093E5049093E6044093E70478
:1036A00081E0089580E00895FF920F931F93CF93D8
:1036B000DF938A01EC01C60FD71FF9800E948A2987
:1036C000F816190668F082E090E0F8019183808393
:1036D0008EEF9FEFDF91CF911F910F91FF90089593
:1036E0006C817D818E819F814B81C9DF811108C0F2
:1036F00082E090E0F8019183808384EF9FEFEACF2E
:1037000089818093E20490E00196F801918380839F
:1037100090E080E0DFCFCF93DF93EA01FC01E60F7A
:10372000F71F64817581868197814381A8DF8111AC
:1037300009C082E090E09983888384EF9FEFDF9156
:10374000CF91089581E090E09983888390E080E0B4
:10375000F6CFE3EEF4E04081518162817381480F3E
:10376000511D611D711D40835183628373830895D0
:10377000CF93C091E2044C2F50E06091E30470912C
:10378000E40401960E94DE3C8C2FE3DF1092E204F9
:10379000CF910895009799F48091E3049091E40407
:1037A0002FEFFB012083892B59F02091E20430E0B8
:1037B0002F5F3F4F2417350719F4CB01D9CF63CCC6
:1037C0000895009799F48091E3049091E4042FEF19
:1037D000FB012083892B59F02091E20430E02F5F18
:1037E0003F4F2417350719F4CB01C2CF4CCC0895B5
:1037F00023E1AC01249FC001259F900D1124E0918D
:10380000EC04F091ED04E80FF91F2381348122507C
:10381000310981E02230310508F080E008950F93EE
:103820001F93CF93DF930091EE041091EF04D0E04B
:10383000C0E080E00C171D0749F491E0811190E091
:10384000892FDF91CF911F910F9108958111F5CFAD
:10385000CE01CEDF2196EECFA091EC04B091ED0425
:10386000109729F12091EE043091EF04821793070D
:10387000F0F453E1589F9001599F300D1124A20F8D
:10388000B31FED91FC911197309789F012968C91AE
:10389000681768F48DE0689FE00DF11D11248081A8
:1038A0009181892B21F081E09281491708F080E015
:1038B00008959C0143E1429FC001439F900D112454
:1038C000E091EC04F091ED04E80FF91F838582305C
:1038D00091F481E090E0658176814091850250917C
:1038E00086026417750711F490E080E0892B19F0C7
:1038F00081E0232B09F080E00895FC01A081B181D3
:103900008DE0689FA00DB11D112413964D915C911F
:1039100085859685489F9001499F300D589F300DB1
:103920001124C9010196611103C0478144FD049629
:103930000895EF92FF920F931F93CF93DF93EA01C5
:10394000FC01E60FF71F02811381E480F5804F2D03
:103950006E2DC80181DF81110DC082E090E0998356
:1039600088838EEF9FEFDF91CF911F910F91FF9092
:10397000EF900895C8013CDF882339F082E090E0A1
:103980009983888388EF9FEFEECF10938C0200938A
:103990008B02E0928D02F0928E0281E090E099839A
:1039A000888390E080E0DFCFCF92DF92EF92FF92AA
:1039B0000F931F93CF93DF937A01EC01C60FD71FAC
:1039C000C0908B02D0908C0200918D0210918E02DB
:1039D000412F602FC60140DF811110C082E090E0CE
:1039E000F701918380838AEF9FEFDF91CF911F9141
:1039F0000F91FF90EF90DF90CF900895C601F8DE11
:103A0000882341F082E090E0F7019183808388EF82
:103A10009FEFEBCF4C815D816E817F819A8189819F
:103A20008F3F41F082E090E0F701918380838EEF39
:103A30009FEFDBCFE3E1EC9D9001ED9D300D112474
:103A4000E091EC04F091ED04E20FF31F0190F0819E
:103A5000E02D2DE0029FE00DF11D11240190F08179
:103A6000E02D27E0129FE00DF11D1124808391834A
:103A70008B81828343835483658376831F5F109396
:103A80008E0281E090E0F7019183808390E080E0F6
:103A9000ACCFEF92FF920F931F93CF93DF937A01F6
:103AA0008C01060F171FC091EC04D091ED042097F4
:103AB00081F021E030E0F801828193814091EE04B1
:103AC0005091EF048417950710F030E020E0232B8D
:103AD00071F482E090E0F701918380838EEF9FEF95
:103AE000DF91CF911F910F91FF90EF90089543E1E7
:103AF000489F9001499F300D1124C20FD31F78DEDB
:103B0000882341F082E090E0F7019183808388EF81
:103B10009FEFE6CFF8012481358120383105C8F6C2
:103B200087818111D6CF4181842F90E08F7E0097CD
:103B300041F082E090E0F7019183808386EF9FEF70
:103B4000CFCF4F833E832D8326812887198622304D
:103B500010F421E0288721E030E0F7013183208351
:103B6000BFCF88E090E0FA019183808390E080E00D
:103B70000895FB018FEF808381E181838FEF9FEFB9
:103B80009383828380E890E09583848316821782F2
:103B90000895FB018FEF808391E09183828393836B
:103BA000848384E3858381E090E09783868308950E
:103BB000DF92EF92FF920F931F93CF93DF93EA016F
:103BC000FC01E60FF71F8181813071F082E090E007
:103BD000998388838FEF9FEFDF91CF911F910F9192
:103BE000FF90EF90DF90089582819381D4802581AA
:103BF000E680F7800091EC041091ED0401151105A9
:103C000039F482E090E0998388838CEF9FEFE4CFD2
:103C10004091EE045091EF048417950738F082E04C
:103C200090E0998388838EEF9FEFD6CF892B39F070
:103C300082E090E09983888386EF9FEFCDCF8D2D32
:103C40008D7FB1F72130A1F781E0D11006C091E05E
:103C5000E916F10431F080E004C0E2E0EE16F10470
:103C6000D0F3882329F390E080E0C2DD882339F087
:103C700082E090E09983888388EF9FEFADCFF801D1
:103C8000D38681E08487F686E586108A178681E0F0
:103C900090E09983888390E080E09ECF4CE050E0F4
:103CA00064EF72E057CA8F929F92BF92CF92DF92D9
:103CB000EF92FF920F931F93CF93DF93EA01FC01E2
:103CC000E60FF71F828193810481B580E091EC04B7
:103CD000F091ED04309791F482E090E0998388832D
:103CE0008CEF9FEFDF91CF911F910F91FF90EF909D
:103CF000DF90CF90BF909F908F9008952091EE0419
:103D00003091EF048217930738F082E090E09983B6
:103D100088838EEF9FEFE6CF23E1289F6001299FE4
:103D2000D00C1124EC0DFD1DE080F180E114F104B4
:103D300099F28281081748F78DE0089F80011124CD
:103D4000E00EF11EF70180819181892B29F6BB20BD
:103D5000E1F2F7E0BF9E40011124C4010E948E2AC7
:103D6000F70191838083E091EC04F091ED04EC0D78
:103D7000FD1D0190F081E02DE00FF11F8081918108
:103D8000009739F482E090E0998388838DEF9FEF6C
:103D9000A9CFA40170E060E00E94E73C8091EC04B0
:103DA0009091ED04C80ED91EF60180819181080F13
:103DB000191FF801B28281E090E09983888390E036
:103DC00080E090CFAF92BF92CF92DF92FF920F939D
:103DD0001F93CF93DF93EA01FC01E60FF71F828167
:103DE0009381F4800091EC041091ED04011511050C
:103DF00081F482E090E0998388838CEF9FEFDF91DC
:103E0000CF911F910F91FF90DF90CF90BF90AF9017
:103E100008952091EE043091EF048217930738F053
:103E200082E090E0998388838EEF9FEFE8CF2FEFB9
:103E30002F0D2C3FA8F723E1289F6001299FD00C6C
:103E400011240C0D1D1DF80180819181892B89F6AB
:103E5000FDE0FF9E50011124C5010E948E2AF80149
:103E600091838083E091EC04F091ED04EC0DFD1D55
:103E700080819181009739F482E090E09983888372
:103E80008DEF9FEFBCCFA50170E060E00E94E73CA2
:103E9000E091EC04F091ED04EC0DFD1DF28281E067
:103EA00090E09983888390E080E0A9CFCF92DF9261
:103EB000EF92FF920F931F93CF93DF93860F971F7D
:103EC000FC01028113818091EC049091ED04892B17
:103ED00081F082E090E0FA01918380838CEF9FEF84
:103EE000DF91CF911F910F91FF90EF90DF90CF90D6
:103EF0000895C801B0E0A0E00197A109B1098F3F82
:103F00009F4FA105B10540F082E090E0FA01918356
:103F100080838EEF9FEFE4CF7A0183E1809F600181
:103F2000819FD00C1124C6010E948E2AEC010097BB
:103F300041F482E090E0F701918380838DEF9FEF61
:103F4000CFCFA60170E060E00E94E73CD093ED0483
:103F5000C093EC041093EF040093EE0490E080E033
:103F60002FEF3FEF41E061E070E08017910741F4EF
:103F700081E090E0F7019183808390E080E0B0CF12
:103F80003A8B298B1B864C877E876D87188A1F8604
:103F900001966396EACFEF92FF921F93CF93DF9340
:103FA000EC0110E0F12CE12C6A811617B0F083E0EF
:103FB000689FB0011124AE014F5E5F4FC7010E94A0
:103FC000F32A009721F02FEF3FEF3A8B298BDF91F7
:103FD000CF911F91FF90EF900895612FCE018DDC5E
:103FE00061E070E00E943B29E816F90608F47C01C4
:103FF0001F5FDACFF8942091EA043091EB0481E05E
:104000002115310509F080E0232B09F078940895FB
:104010002F923F924F925F926F927F928F929F92D8
:10402000AF92BF92CF92DF92EF92FF920F931F93C6
:10403000CF93DF933C01660E771EF301828193815B
:104040004C01B12CA12CC091EC04D091ED0420972F
:1040500069F021E030E06091EE047091EF04861782
:10406000970710F030E020E0232BD1F482E090E0BD
:10407000FA01918380838EEF9FEFDF91CF911F91A3
:104080000F91FF90EF90DF90CF90BF90AF909F90F7
:104090008F907F906F905F904F903F902F900895FA
:1040A00080928F0290929002A0929102B09292021E
:1040B00063E1689F9001699F300D1124C20FD31FE7
:1040C000F3018181833040F082E090E0FA01918336
:1040D000808386EF9FEFD1CF2A012B813C81232B58
:1040E000F1F4288139819F8191FF2EC0232B09F49F
:1040F0006FC02091F1049A81422F490F5527551F17
:10410000BA0141E050E06138710514F050E040E040
:10411000452B09F45DC02A87920F9093F1048150DA
:10412000823008F481C066DF882309F4D8C0F30127
:104130008181813009F48DC008F47BC0823009F49C
:10414000C6C090E080E0ADC0232B09F441C02091AF
:10415000F0049A81E22FE90FFF27FF1F41E050E0B2
:10416000ED3FF10514F050E040E0452B89F12A873E
:10417000920F9093F004D3CFA081B181A20FB31F0F
:1041800011966C91060F111D0196295F3F4F841700
:10419000950794F38D859E85089F1001099F300C2B
:1041A000189F300C1124C114D104D1F48F8184FFE5
:1041B00017C00E948929F5E02F0E311C21E08215DD
:1041C000930508F420E0A701435F5F4F21110EC063
:1041D00082E090E0F2019183808387EF9FEF4DCFE3
:1041E0000E9489292FEF221A320AE8CF888199810B
:1041F000E80EF91EF70114830383FFEFCF1ADF0ADD
:104200007A018A818C151D0409F00CF48CCFE881A9
:10421000F981EE0DFF1D428150E030E020E010E01A
:1042200000E090E080E0B3CFF12CE12CD12CC12C48
:10423000E8CF81E090E09C838B83F1DA882309F456
:1042400080CF81E090E00E948C1880E40E949A1850
:1042500078CF89899A89019661F083E090E09C8308
:104260008B8382E090E00E948C1880E40E94941876
:1042700068CF8D819E8120918502309186028217C0
:104280009307D1F46091890270918A02AE014F5E6A
:104290005F4F80918702909188020E94122C0097B4
:1042A000E1F2789422E030E0F20131832083892B1F
:1042B00099F08DEF9FEFE1CE89288A288B2869F647
:1042C000029758F6CE0167DE188A1F86E8CF82E093
:1042D00090E09C838B8335CF90E080E0CECE82E06F
:1042E00090E0F2019183808385EF9FEFC6CE8F929D
:1042F0009F92AF92BF92CF92DF92EF92FF920F9375
:104300001F93CF93DF93EA018C01060F171FF8016B
:104310008181833098F082E090E09983888386EFF2
:104320009FEFDF91CF911F910F91FF90EF90DF9062
:10433000CF90BF90AF909F908F9008958091EC04A4
:104340009091ED04892B61F081E090E02091EE04E2
:104350003091EF04232B11F490E080E0892B39F4A5
:1043600082E090E0998388838EEF9FEFDACF42DE80
:10437000882309F4E0C0F8018181813009F496C0F6
:10438000E8F0823099F42091EE043091EF04E0914E
:10439000EC04F091ED0490E080E041E050E028175B
:1043A000390709F0BEC03BDA811117C0789481E06B
:1043B00090E09983888390E080E0B3CF2091EE0471
:1043C0003091EF04E091EC04F091ED0490E080E096
:1043D00041E050E02817390741F481E090E00E9465
:1043E0008C1880E40E949A18E1CF63817481672B56
:1043F00011F05483438301967396ECCFE091EC0463
:10440000F091ED04E00FF11F23813481223031055A
:10441000D9F4218932892F3F3F4FB1F4258136816C
:1044200040918502509186022417350761F5AF014E
:104430004F5E5F4F6091890270918A02809187027E
:10444000909188020E94122CEFEFCE1ADE0AEE0A3B
:10445000FE0A0D5E1F4F4091EE045091EF0470E094
:1044600060E0C416D506E606F70644F5009731F27B
:104470007894892B09F49BCF82E090E0998388831C
:104480008DEF9FEF4ECFC114D104E104F104E1F6AA
:1044900022303105C8F6CF017EDDE091EC04F091C9
:1044A000ED04E00FF11F108A1786CECF10E000E078
:1044B00090E080E0C12CD12C7601CDCF0097C1F6E1
:1044C00010E000E0812C912C540183E0E82EF12CC7
:1044D0001AC0E091EC04F091ED04E00FF11F83812C
:1044E0009481029749F4F482E38282E090E00E9492
:1044F0008C1880E40E949418FFEF8F1A9F0AAF0A6D
:10450000BF0A0D5E1F4F8091EE049091EF04B0E062
:10451000A0E088169906AA06BB06DCF290E080E0CF
:10452000A7CF638174816230710511F45483438392
:104530000196739634CF82E090E09983888385EF6B
:104540009FEFEFCE0097B9F48FEFFB0180832091AE
:104550008F023091900243E1429FC001439F900D32
:104560001124E091EC04F091ED04E80FF91F82852D
:10457000FB01818308950C94431888E090E0FA01D0
:104580009183808390E080E008951092EB04109274
:10459000EA04ECEEF4E086E0DF011D928A95E9F78B
:1045A0008EE49EE19093E9048093E804089580915D
:1045B000E8049091E90408952F923F924F925F9200
:1045C0006F927F928F929F92AF92BF92CF92DF9223
:1045D000EF92FF920F931F93CF93DF93CDB7DEB788
:1045E0002F970FB6F894DEBF0FBECDBFF894E091C1
:1045F000EA04F091EB043196F093EB04E093EA04C3
:1046000078944090EC045090ED044114510409F466
:104610000CC2E091EE04F091EF04EF2B09F405C217
:104620002D8749875A876B877C8798878F831201EC
:10463000B12CA12C10E000E08091EE049091EF04E9
:10464000A816B90618F40115110529F1F8948091FE
:10465000EA049091EB0401979093EB048093EA04B1
:104660007894C8012F960FB6F894DEBF0FBECDBF69
:10467000DF91CF911F910F91FF90EF90DF90CF903E
:10468000BF90AF909F908F907F906F905F904F9072
:104690003F902F9008957101E418F508D101179605
:1046A0008C91179781FD54C013968D919C9114970E
:1046B000039709F04DC015968D919C91EF81F88577
:1046C0008E179F0709F044C0B50190E080E07FD4C9
:1046D0008A832091EC043091ED043D832C833D8549
:1046E000332309F44CC04C815D81452B09F49AC1F8
:1046F0008091EE049091EF04A816B90608F092C1DB
:10470000C501D7D88823E9F06C817D816E0D7F1DAE
:104710007D836C83DB011F968D919C91892B89F0A1
:10472000D12CC12CF12CE12CAC81BD8112968C9145
:1047300012978E151F0409F094F450961C921E9245
:104740001F972A81222321F0B50190E080E041D417
:104750003FEFA31AB30A43E1240E311C6DCFAC81A5
:10476000BD81ED91FC91EC0DFD1D858196810FD7EA
:10477000BFEFEB1AFB0AEDE0CE0ED11CD5CFEC81DA
:10478000FD81309709F44EC18091EE049091EF04C1
:10479000A816B90608F046C1EE0DFF1DFF87EE878B
:1047A000C50187D88B83882339F1AE85BF851F96D5
:1047B0008D919C915097019621E01D964D915C91B1
:1047C0008417950709F020E02E831982712C10E0E0
:1047D00000E0AE85BF8512968C91781608F45DC016
:1047E000EE85FF85878590890196658576850E948F
:1047F000873C908B8787A5CFB1E0BE83E6CF992415
:1048000093946BC08BD6F6019683858382C0D601C4
:10481000ED90FC90B7E06B9EE00CF11C1124F701C9
:104820006381748180818F3F61F121E030E002C0BB
:10483000220F331F8A95E2F7C901092E000CAA0B3B
:10484000BB0BFB01408151816281738184239523DD
:10485000A623B72321E0892B8A2B8B2B09F420E098
:10486000D4012C93D70111968C91F60123853485C0
:10487000820F932F911D880E991E148613866394C0
:104880009BC0418150E0C4010E94DE3CEBCF998285
:1048900006EF1FEFC5C01982C3C0F981F111A0CF87
:1048A000EDE07E9E70011124AE85BF85CD90DC9039
:1048B000CE0CDF1C15D49D838C83BB81BB2309F4F4
:1048C0009ECF81E0EE85FF8527853089232B09F077
:1048D00080E0982E882309F458C0672D8E859F8527
:1048E0000CD8D60118969C938E93179761E070E0D0
:1048F000C2D4EE85FF85218932892F3F320709F422
:1049000081CFBC01C901CFD7D60116969C938E9357
:104910001597D60115968D919C911697009709F4DD
:10492000B6CFEC81FD818E0F9F1F1A969C938E93BC
:104930001997AE85BF85ED91FC911197EE0EFF1E84
:10494000F70121853285148613861A968C91870D7E
:10495000D9018D93711016C0EE85FF85878184FF84
:1049600011C049855A856B857C85F9014183528345
:1049700063837483F701838594850496A80FB91F18
:1049800014861386F701B287A187D60115968D91FB
:104990009C911697892B09F443C0EE85FF852581EC
:1049A000368180918502909186022817390779F027
:1049B00019968D909C90612CD60112968C9112972D
:1049C000681608F424CF1A969C928E921997BE818D
:1049D000BB2309F460CF61E070E0F6018781908528
:1049E0004AD4D6011796ED90FC90189715964D91E4
:1049F0005C91E1E0F0E0BA81BB2311F0F0E0E0E08F
:104A00000C811D819C01B501882799278E1B9F0B66
:104A10006AD38C01892B21F0F60185819681B7D567
:104A20007394D7CE0FEF1FEF8CCE10E000E00ECEC8
:104A30002F923F924F925F926F927F928F929F92AE
:104A4000AF92BF92CF92DF92EF92FF920F931F939C
:104A5000CF93DF938091EC049091ED0410E000E09F
:104A6000892BA9F0C7DA0AEF1FEF882381F0209085
:104A7000EE043090EF04C091EC04D091ED04D12C01
:104A8000C12C10E000E02C143D04A9F47894C80176
:104A9000DF91CF911F910F91FF90EF90DF90CF901A
:104AA000BF90AF909F908F907F906F905F904F904E
:104AB0003F902F900895C6010E94591C882309F148
:104AC0008B819C810397E9F48F859889892BC9F0A4
:104AD000B60190E080E07BD221E030E0882311F045
:104AE00030E020E044245524421A530AB12CA12C72
:104AF000912C812C8A818815190409F038F4188AC0
:104B00001F864FEFC41AD40A6396BDCFE881F9819E
:104B1000EA0DFB1D85819681892BA1F161E070E092
:104B200087819085A8D33C01DBD28C01E881F98193
:104B3000EA0DFB1D8185928525813681200F311F6D
:104B4000AC01421B530B9A0147815085421B530B0A
:104B500070E060E00E94E73CE881F981EA0DFB1D0E
:104B6000E780F084458156819301B601C201BBD232
:104B70008C01892B39F0E881F981EA0DFB1D8581D3
:104B8000968105D55FEF851A950A8DE0A80EB11CB8
:104B9000B1CF30CA789408952F923F924F925F928E
:104BA0006F927F929F92AF92BF92CF92DF92EF92DD
:104BB000FF920F931F93CF93DF9300D000D0CDB718
:104BC000DEB70091EC041091ED0499249394011543
:104BD000110509F43EC0A090EE04B090EF040ADA8B
:104BE000982E8823B1F11092ED041092EC041092EB
:104BF000EF041092EE041092F0041092F1048FEF83
:104C00009FEFDC0180938F0290939002A09391021A
:104C1000B093920278947FD31E830D83C12CD12C44
:104C20007601C501B0E0A0E089839A83AB83BC83A1
:104C300022242A94322C89819A81AB81BC81C816A6
:104C4000D906EA06FB06F4F0C801A1D480E40E946C
:104C50009A18892D26960FB6F894DEBF0FBECDBFE9
:104C6000DF91CF911F910F91FF90EF90DF90CF9048
:104C7000BF90AF909F907F906F905F904F903F90CC
:104C80002F900895AD81BE8115968D919C911697B8
:104C9000209185023091860282179307D1F45196B4
:104CA0008D919C91EED5ED81FE8180819181B12C19
:104CB000A12C412C512C3201892B89F5BFEFCB1A45
:104CC000DB0AEB0AFB0AED81FE817396FE83ED831E
:104CD000B2CFC114D104E104F10429F7029718F707
:104CE000ED81FE81818992898F3F980709F029D54E
:104CF000AD81BE8152963C922E925197D4CF8A0DAF
:104D00009B1DDC018D919C91009709F040D4BFEF71
:104D10004B1A5B0A6B0A7B0AEDE0AE0EB11CAD814B
:104D2000BE818D919C91119712964C9150E070E04C
:104D300060E044165506660677060CF328D4BECF0D
:104D4000CF93DF93EA0128DF811109C082E090E070
:104D50009983888385EF9FEFDF91CF91089581E05C
:104D600090E00E948C1881E090E09983888390E025
:104D700080E0F2CF11DF1092E9041092E804089568
:104D800042E050E06CE373E00C94AA18FF920F939A
:104D90001F93CF93DF938A01EC01C60FD71FF980D1
:104DA000B9D20897F816190671F068F082E090E021
:104DB000F801918380838EEF9FEFDF91CF911F9158
:104DC0000F91FF9008956C817D818E819F814B8131
:104DD0000E943F1B811108C082E090E0F80191839E
:104DE000808384EF9FEFE9CFF9800E943A1B4F2D1B
:104DF00050E0BE01685F7F4F0E94DE3C89810E94C7
:104E0000A91B81E090E0F8019183808390E080E02D
:104E1000D4CFDF92EF92FF920F931F93CF93DF9344
:104E20008A01EC01C60FD71F0E943A1B7C01D98072
:104E300071D2DD2059F0029721E030E0D816190632
:104E400019F010F030E020E0232B79F482E090E0BC
:104E5000F801918380838EEF9FEFDF91CF911F91B7
:104E60000F91FF90EF90DF900895EF2841F482E0DA
:104E700090E0F8019183808384EF9FEFEECFF9807B
:104E80000E943A1B4F2D50E0BE016E5F7F4F0E9483
:104E9000DE3C89810E94A91B81E090E0F8019183AA
:104EA000808390E080E0D9CF80EC96E29093F30489
:104EB0008093F20408958091F2049091F304089590
:104EC0000895FC0111821082938382830895DB018F
:104ED0001D921C92DC011296ED91FC911397718347
:104EE000608313967C936E9312970895FC018081E2
:104EF0009181DB018D939C93A081B181109741F04A
:104F00008D919C9191838083892B11F4F383E283AB
:104F10000895FC0180819181DB018D939C93892B05
:104F200011F473836283718360830895FC0111829D
:104F30001082938382830895CF93DF931F921F92F1
:104F4000CDB7DEB71A821982F894BE016F5F7F4F2A
:104F500089EF94E0CBDF89819A81009709F017D31C
:104F600089819A81892B89F7BE016F5F7F4F8DEF11
:104F700094E0BCDF89819A81009709F008D3898188
:104F80009A81892B89F778940F900F90DF91CF91B8
:104F90000895CF93DF931F921F92CDB7DEB71A8289
:104FA0001982F894BE016F5F7F4F85EF94E09EDF1A
:104FB00089819A81009709F0EAD289819A81892BA7
:104FC00089F778940F900F90DF91CF91089581E049
:104FD000089590E080E00895EF92FF920F931F9361
:104FE000CF93DF931F921F92CDB7DEB71A8219823B
:104FF0008091F40407EF1FEF8823A1F1F894BE011C
:105000006F5F7F4F8DEF94E071DF789489819A8193
:10501000EE24E394F12C892B51F4F894BE016F5FD8
:105020007F4F89EF94E062DF7894F12CE12C898145
:105030009A810EEF1FEF0097A9F0FC014281538186
:1050400064E070E076D68C01892B61F0F894698178
:105050007A81C701880F991F880F991F87509B4F2E
:1050600058DF7894C8010F900F90DF91CF911F9176
:105070000F91FF90EF9008950F931F93CF93DF93BD
:1050800000D01F92CDB7DEB71C821B821A82198214
:105090008091F40407EF1FEF8823C1F0AE014D5F4C
:1050A0005F4F64E070E0CE010196B6D68C01892B8B
:1050B00069F4E981FA818B819C8193838283F894DE
:1050C00069817A8185EF94E002DF7894C8010F90BE
:1050D0000F900F900F90DF91CF911F910F91089536
:1050E000BBD7049608958F929F92AF92BF92CF92B2
:1050F000DF92EF92FF920F931F93CF93DF931F9254
:105100001F92CDB7DEB71A821982BC016F5F7F4F45
:105110006330710598F0AA24AA94BA2CC5010F90A7
:105120000F90DF91CF911F910F91FF90EF90DF9043
:10513000CF90BF90AF909F908F90089541155105EB
:1051400051F3480159018A016C01CADF881599059C
:1051500011F7E114F104F9F28E0D9F1DA816B9069E
:10516000D0F28091F4048823F1F0F894B5016450F2
:1051700071099701AE014F5F5F4FC8010496E1D6F8
:105180005C01892B71F489819A81F8019383828370
:10519000C601880F991F880F991FB80187509B4F30
:1051A00096DE7894BBCF87EFA82EBB24BA94B6CFF7
:1051B000AF92BF92CF92DF92EF92FF920F931F9325
:1051C000CF93DF931F921F92CDB7DEB71A82198259
:1051D000892B09F047C06115710509F443C04115D9
:1051E000510509F43FC02115310509F43BC00115F3
:1051F0001105C1F18091F4048823B9F179016A01A4
:105200005B01F894BE016F5F7F4F85EF94E06EDE27
:10521000789489819A81009759F1DC0112966D91F9
:105220007C91A8010496A6D68C01E981FA81D5016A
:10523000ED93FC93828193810496F60191838083A0
:105240004FDFD7018D939C93C8010F900F90DF9192
:10525000CF911F910F91FF90EF90DF90CF90BF9073
:10526000AF9008950FEF1FEFEFCF07EF1FEFECCFD9
:105270000EEF1FEFE9CFCF93DF93EC01672B71F4B3
:10528000F4D68C179D0760F0E7D62496C80FD91F77
:10529000E6D68C0F9D1FDF91CF910895E3D6F1CF15
:1052A00090E080E0F8CF0F931F93CF93DF9320918E
:1052B000F40421112BC08B01EC0189EF94E001DE95
:1052C0008DEF94E0FEDD85EF94E0FBDD97D0009755
:1052D000C1F4CBD670E060E0CEDF43E952E062E09B
:1052E00070E081D1009769F48091930290919402CB
:1052F000CED6B801CE0103D5009719F421E0209352
:10530000F404DF91CF911F910F91089584EF9FEFE7
:10531000F8CFA8C6AAC6CF93DF93AAD6EC01892BF3
:1053200011F40ADE36DECE01DF91CF910895CF93DE
:10533000DF939ED6EC01892B09F4FEDDCE01DF91CF
:10534000CF91089580919302909194020895CF9304
:10535000DF938091F404D0E0C0E08823D1F09CD6A4
:10536000EC01892BB1F4E8DD14DE80919302909179
:105370009402E7D1E8D2EC01892B59F489EF94E04B
:10538000D5DD8DEF94E0D2DD85EF94E0CFDD109296
:10539000F404CE01DF91CF910895EF92FF920F9325
:1053A0001F93CF93DF93EC017A018B010F5F1F4FA7
:1053B0000E9DA0010F9D500D1E9D500D112470E0FB
:1053C00060E00E94E73C90E080E0F0E0E0E02FEF5A
:1053D000E816F90639F4DF91CF911F910F91FF90F4
:1053E000EF9008951A8219822883309711F0D283A2
:1053F000C1830196FE01C00FD11FEACFCF92DF9289
:10540000EF92FF920F931F93CF93DF930AE018E080
:105410000C7F43E050E065E972E08BE992E01CD438
:1054200085E9E82E82E0F82E9BE9C92E92E0D92E7C
:10543000C9ECD8E0D7014D915D917D01F6016191F4
:1054400071916F01198308835D834C835B834A8369
:105450007F836E839B012F5F3F4F249FC001259F59
:10546000900D349F900D112499878887011511059F
:1054700011F0C80192DF88859985080F191F2A96B7
:10548000FBE9EF16F2E0FF06A9F6E3E0F5E084E0C1
:1054900093E0DF019C011D9221503040E1F7109212
:1054A0000205109201051092E8081092E708109288
:1054B000EC081092EB081092EA081092E90810929A
:1054C000EE081092ED081092F0081092EF0810927A
:1054D000F2081092F1081092F6081092F508109256
:1054E000F4081092F3081092F8081092F70810923E
:1054F000FA081092F9081092C6081092C508109286
:10550000C8081092C70890E080E0DF91CF911F910A
:105510000F91FF90EF90DF90CF9008950097F1F0FA
:10552000F894ABE9B2E0E9ECF8E030E020E04D912E
:105530005D9148175907A8F04281538141155105E3
:1055400081F08AE0829FF001839FF00D1124E753E0
:10555000F74F80819181009759F4789490E080E032
:1055600008952F5F3F4F3A962330310501F7F5CF6D
:10557000DC0111966D917C917183608341505109DA
:1055800053834283FC012193CF01789408950097BF
:1055900049F1DC018E91853041F4E091C708F0912A
:1055A000C8083097F9F0CD0119948530D8F4282F28
:1055B00030E0F8948FEF8C938AE0829FF001839F14
:1055C000F00D1124E753F74F8081918112969C933F
:1055D0008E931197B183A0838281938101969383E7
:1055E000828378940895CF92DF92EF92FF920F9387
:1055F0001F93CF93DF939C0186E095E08C7F41154C
:10560000510509F49BC02115310509F497C06115B6
:10561000710509F493C07A01AB01B9016D5F7F4F49
:105620006C7F9B012F5F3F4F249F8001259F100DB2
:10563000349F100D1124F8942091E7083091E80868
:10564000232B59F42091EF083091F00821153105F2
:1056500069F12017310708F058C02091F108309106
:10566000F208232B91F42091EF083091F008820F7B
:10567000931F2091F9083091FA082115310509F49A
:1056800041C02017310708F056C07894CFEFDFEF04
:1056900086EF9FEFF701D183C083DF91CF911F91F8
:1056A0000F91FF90EF90DF90CF900895C3E0D0E08E
:1056B000C0900105D090020521E033E02C193D098E
:1056C0002017310710F32AE02C9FF0012D9FF00DD9
:1056D0001124E753F74F9183808355834483538389
:1056E00042837783668311870087009709F055DE30
:1056F0000C0D1D1D1093020500930105789490E098
:1057000080E0C8CFC4E0D0E0D3CFC3E0D0E02AE04F
:105710002C9FF0012D9FF00D1124E753F74F91833B
:1057200080835583448353834283778366830097C2
:1057300029F333DEE3CFC4E0D0E0E9CF8FEF9FEF72
:10574000ACCF9C010397029708F069C0F89484E0FD
:105750009AE0482F50E0241735070CF44DC091E033
:105760008AE0829FF001839FF00D1124E753F74FE9
:10577000118210821582148213821282178216827D
:105780009923B1F18091E7089091E808892BA9F459
:105790002091EF083091F0082115310571F08091CA
:1057A000010590910205821B930B90930205809353
:1057B00001051092F0081092EF088091F108909185
:1057C000F208892BA9F42091F9083091FA082115E3
:1057D000310571F08091010590910205821B930BB8
:1057E00090930205809301051092FA081092F9082F
:1057F000789490E080E00895949FF001959FF00DDB
:105800001124E753F74F40815181452B31F44085F6
:105810005185452B11F481509CCF90E0A1CF8FEFA3
:105820009FEF08954115510549F1009739F1611530
:10583000710521F1F8942091C5083091C608232BF9
:10584000B9F42091C7083091C808232B89F49093AC
:10585000C6088093C5087093C8086093C7087894F9
:1058600025E030E090E080E0FA0131832083089564
:1058700078942FEF3FEF86EF9FEFF6CF8FEF9FEFFC
:105880000895059769F4F8941092C6081092C50817
:105890001092C8081092C708789490E080E00895AC
:1058A0008FEF9FEF08956115710519F4F0E0E0E0C6
:1058B00011C08530910581F4E091C508F091C608CA
:1058C0003097A1F3CB0101961995009779F3FC016C
:1058D00085E08193CF0108959C0123503109223046
:1058E000310520F72AE0289FD001299FB00D11240F
:1058F000A753B74F2D913C911197232BB9F21696D0
:105900002D913C9117972617370780F2F89412963D
:105910002D913C9113972115310529F0ED91FC91C2
:105920001197309711F47894C1CF4181528111962B
:105930005C934E932150310913963C932E9312970A
:1059400081937894C7CFE7E0F8E08EEBDF011D92FA
:105950008A95E9F7E3E0F5E084E093E0DF019C015C
:105960001D9221503040E1F710920205109201057E
:10597000E9ECF8E082E3DF011D928A95E9F7E5ECB6
:10598000F8E084E0DF011D928A95E9F790E080E07D
:105990000895CF93DF93C091A102D091A202CF3F8F
:1059A000DC0759F423D49093A2028093A10297FFBD
:1059B00009C0D093A202C093A10284EF9FEFDF91B0
:1059C000CF91089590E080E0FACF8230910528F4DD
:1059D0008093FB0890E080E008958FEF9FEF08959B
:1059E0004F925F926F927F92AF92BF92CF92DF926F
:1059F000EF92FF920F931F93CF93DF931F921F920B
:105A0000CDB7DEB71A821982009709F479C0611503
:105A1000710509F475C02091A1023091A20207EF2F
:105A20001FEF2F3F3F4F09F445C06B015C01412C34
:105A3000512C3201F12CE12C10E000E09E012F5F8F
:105A40003F4FA6014E195F09B5016E0D7F1D809174
:105A5000A1029091A2022AD4892B09F04BC089811E
:105A60009A81009741F4E114F10429F42091FB0894
:105A7000222309F442C0E80EF91EEC14FD04D0F410
:105A800080E8481684E858068EE16806710420F51F
:105A900060E070E0CB010E94B5362AE0420E511C56
:105AA000611C711C0A3F4FEF140721F0043F8FEF78
:105AB0001807A1F4C8010F900F90DF91CF911F91AB
:105AC0000F91FF90EF90DF90CF90BF90AF907F90BD
:105AD0006F905F904F90089501EF1FEF81E090E08D
