:10000000F9C0000028C1000026C1000024C1000082
:1000100022C1000020C100001EC100001CC1000060
:100020001AC1000018C1000016C1000014C1000070
:1000300012C1000010C100000EC100000CC1000080
:100040000AC1000008C1000006C1000004C1000090
:1000500002C1000000C10000FEC000000C94A731E6
:10006000FAC000000C94B3340C94E934F4C00000DE
:10007000F2C00000F0C00000EEC00000ECC00000C4
:10008000EAC00000E8C00000E6C00000E4C00000D4
:100090000C943F350C947535DEC000000C94DF24C1
:1000A000DAC00000D8C00000D6C00000D4C00000F4
:1000B000D2C00000D0C00000CEC00000CCC0000004
:1000C000CAC00000C8C000000C94EF2D0C94CB35C2
:1000D0000C940136C0C000000C9457360C948D3639
:1000E000BAC0000000000A0B02090C0D0E0807033D
:1000F00004010000000000000000000000000000FB
:1001000000000000000000000000000000000000EF
:1001100012111000000000000000000000000000AC
:100120000000000000000000000001021020200874
:100130000810204010204080020102010804020142
:1001400001020408102040808040201008040201B1
:10015000800402018040201008040201080402010A
:100160000102040810204080010204081020408091
:1001700005050505070508080808020202020A0A23
:100180000808040404040101010101010101030341
:10019000030303030303040707070C0C0C0C0C0CEC
:1001A0000C0C0202020206060606060606060B0BE9
:1001B0000B0B0B0B0B0B00002200250028002B0063
:1001C0002E003100340002010000050108010B017E
:1001D00000002100240027002A002D0030003300F9
:1001E00001010000040107010A01AF2D12359E35FF
:1001F0002A36B63611241FBECFEFD1E2DEBFCDBF07
:1002000000E00CBF12E0A0E0B2E0E4EFFEE600E0A8
:100210000BBF02C007900D92A63EB107D9F728E0A8
:10022000A6EEB2E001C01D92AE3FB207E1F710E0CA
:10023000CAEFD0E000E006C021970109802FFE013F
:100240000E944737C53FD10780E00807A9F70E9401
:100250000B2F0C947837D4CE611102C00C9420334C
:100260006130E1F362E0FACF662319F061E00C94AB
:100270005C3360E0FCCF90E080E008950F931F9323
:10028000009709F487C06115710509F483C00091D6
:1002900018021091190220911A0230911B020E3F90
:1002A0001F4F2F4F3F4F09F066C04FEF5FEFBA016E
:1002B000409318025093190260931A0270931B0224
:1002C000409118025091190260911A0270911B021C
:1002D000DC011296ED91FC9180819181A281B38124
:1002E00080935C0390935D03A0935E03B0935F03E0
:1002F00084819581A681B781809358039093590397
:10030000A0935A03B0935B0380859185A285B38542
:100310008093540390935503A0935603B0935703CF
:1003200084859585A685B785809350039093510366
:10033000A0935203B093530310924C0310924D03B9
:1003400010924E0310924F033BD585E097E09093B7
:10035000E7028093E6029093E9028093E8021FD4BB
:10036000009731F421E030E0309361032093600383
:100370001F910F9108950091180210911902209178
:100380001A0230911B02DB010D931D932D933C93B8
:10039000139796CF8FEF9FEFEBCF8F929F92AF92F5
:1003A000BF92CF92DF92EF92FF921F93CF93DF9392
:1003B0004B015C011091630382E090E09093610334
:1003C0008093600381149104A104B10441F48091ED
:1003D0006303811104C080916203C1E08111C0E018
:1003E000C12CD12C760180916303811106C08091CC
:1003F0006203811102C0CC23D9F083E090E0909396
:10040000610380936003CC2379F1CCE9DFEF111114
:1004100002C00E94690ACE01DF91CF911F91FF9027
:10042000EF90DF90CF90BF90AF909F908F90089506
:100430006AE070E080E090E00E94223280E1C80E25
:1004400087E2D81EE11CF11C8FEF88169806A806DB
:10045000B80631F0C1E08C149D04AE04BF0408F06E
:10046000C0E080E0D0D3BFCFD0E0C0E0D0CFCF920B
:10047000DF92EF92FF920F931F93CF93DF938F3F03
:10048000910511F008F050C0209160033091610394
:100490002330310539F02091600330916103213020
:1004A000310531F424E030E03093610320936003A0
:1004B0006A017B01EC0182309105A0F011E0AE01F0
:1004C000C701B6016BD3AB01BC01CE011123F9F01A
:1004D000DF91CF911F910F91FF90EF90DF90CF9020
:1004E0000C94920C8C01000F111F0A511D4FD80162
:1004F0008D919C91892B11F30E949C0C0297F1F62F
:10050000D801ED91FC91CE011995182FD8CF0E94FA
:10051000B40C90E080E0DF91CF911F910F91FF909C
:10052000EF90DF90CF9008958FEF9FEFF4CF80E0B2
:100530006AC3CF93DF9386E090E09093610380934A
:100540006003BAD3EC01E6EEF2E084E0DF011D9235
:100550008A95E9F756D71092610310926003CE0195
:10056000DF91CF91089580916203089580914B03AC
:100570000895609318027093190280931A02909361
:100580001B0290E080E00895CF92DF92EF92FF92FD
:100590006B017C019F7720E030E040E859E50E9444
:1005A0000B3087FF2BC020E030E040E05FE3C70165
:1005B000B6010E94403187FD0EC020E030E040E0EF
:1005C0005FE3C701B6010E94942FFF90EF90DF9088
:1005D000CF900C94783020E030E040E05FEBC70132
:1005E000B6010E944031181684F420E030E0A901E1
:1005F000C701B6010E9444316B017C01C701B601FD
:10060000FF90EF90DF90CF90089520E030E040E041
:100610005FE3C701B6010E94932FFF90EF90DF9038
:10062000CF900C94F82F4F925F926F927F928F929F
:100630009F92AF92BF92CF92DF92EF92FF9246EFDE
:1006400058E062EE78E08EED98E0A3D120911002A0
:100650003091110240911202509113026091DE0814
:100660007091DF088091E0089091E1080E9440318C
:1006700018160CF0D2C060910802709109028091A6
:100680000A0290910B0280DF6B017C0120E030E0D8
:1006900040E853E40E940B306FEF87FF0EC020E06C
:1006A00030E0A901C701B6010E94403160E087FD3A
:1006B00004C0C701B6010E940F3082E3D5DD20914E
:1006C0001402309115024091160250911702609168
:1006D000E2087091E3088091E4089091E5080E9497
:1006E000403118160CF0A2C0609100027091010216
:1006F000809102029091030247DF6B017C0120E0B0
:1007000030E040E853E40E940B306FEF87FF0EC0EB
:1007100020E030E0A901C701B6010E94403160E04D
:1007200087FD04C0C701B6010E940F3084E39CDD41
:1007300046EF58E062EE78E08EED98E02CD1C09064
:100740001E03D0901F03E0902003F09021038FEF51
:10075000C81AD80AE80AF80AC0921E03D0921F03EA
:10076000E0922003F0922103C114D104E104F104CA
:1007700099F48091220390912303A0912403B091D6
:1007800025030196A11DB11D80932203909323039D
:10079000A0932403B0932503809026039090270311
:1007A000A0902803B0902903609122037091230345
:1007B00080912403909125030E943B30A501940170
:1007C0000E94443120E030E040E85FE40E94443180
:1007D0002B013C01C701B6010E943B30A5019401E9
:1007E0000E9444319B01AC01C301B2010E94942FCD
:1007F00060931A0370931B0380931C0390931D0353
:10080000FF90EF90DF90CF90BF90AF909F908F9030
:100810007F906F905F904F90089560910C0270915F
:100820000D0280910E0290910F022DCF6091040273
:100830007091050280910602909107025DCFCF92E0
:10084000DF92EF92FF921F93CF93DF93E4E0F3E008
:100850008BE2DF011D928A95E9F780E090E0A0E845
:10086000BFEB86A397A3A0A7B1A78AE097EDA3E269
:10087000BCE382A393A3A4A3B5A385E49BEFAAE959
:10088000B2EC84839583A683B7838CE296EFA8EAC3
:10089000BBEB80879187A287B3878FE89BE8A2E6AE
:1008A000B9E484879587A687B7878BE294ECA2EC9E
:1008B000B0E7808B918BA28BB38BA8EFB2E0B383B0
:1008C000A283EAEEF2E01196FC93EE9381E492E0CB
:1008D00091838083938382839583848397838683A4
:1008E00091878087938782879587848788E193E0C3
:1008F00015969C938E93149788E093E013969C939F
:100900008E9312978AE193E017969C938E93169795
:10091000EEEDF8E088E0DF011D928A95E9F7C6EE7A
:10092000D8E086E1FE0111928A95E9F711E01D8B6E
:10093000C12CD12C7601C394C986DA86EB86FC865D
:1009400061E082E389DC1D8718821C8BC982DA8210
:10095000EB82FC8261E084E37FDC1D83188A198AC4
:100960001A8A1B8ADF91CF911F91FF90EF90DF9041
:10097000CF9008958091EE08811103C081E08093AB
:10098000EE088091E608811103C081E08093E608BB
:1009900008950C94D92C0C94462D4F925F926F922F
:1009A0007F928F929F92AF92BF92CF92DF92EF92FF
:1009B000FF920F931F93F89440903B0350903C0399
:1009C00060903D0370903E03C0902F03D0903003A1
:1009D000E0903103F0903203452B09F0A4C09B0155
:1009E000AC01241935094609570929013A0100913A
:1009F0003703109138032091390330913A034801AD
:100A00005901840C951CA61CB71C80169106A206E1
:100A1000B306A0F400913303109134032091350301
:100A2000309136030F5F1F4F2F4F3F4F009333031B
:100A300010933403209335033093360380923703A9
:100A400090923803A0923903B0923A030091330395
:100A500010913403209135033091360380923F0387
:100A600090924003A0924103B0924203009343034B
:100A700010934403209345033093460360933B0354
:100A800070933C0380933D0390933E03A0E1B7E253
:100A9000A30192010E944F376C0D7D1D8E1D9F1D7D
:100AA00060932F037093300380933103909332034C
:100AB000009118021091190220911A0230911B0224
:100AC0000F3F1F4F2F4F3F4FF1F000911802109131
:100AD000190220911A0230911B020E3F1F4F2F4F17
:100AE0003F4F89F0C0901802D0901902E0901A028E
:100AF000F0901B0221E08C149D04AE04BF0408F4A6
:100B000020E020934B0378941F910F91FF90EF907A
:100B1000DF90CF90BF90AF909F908F907F906F901D
:100B20005F904F9008954B015C0184189508A608CA
:100B3000B708A3019201261B370B480B590B64150C
:100B4000750586059705D0F082169306A406B506AE
:100B500040F420E030E0A90181149104A104B10423
:100B600091F4A0E1B7E20E944F37A7019601261B3E
:100B7000370B480B590BCA01B901C5CF8216930632
:100B8000A406B50670F7A0E1B7E2A50194010E94A2
:100B90004F376C0D7D1D8E1D9F1DB5CFFECECF93A3
:100BA000DF9300D01F92CDB7DEB71C821B821A8262
:100BB0001982109247031092480310924903109231
:100BC0004A03BE016F5F7F4FCE0103960E94CE2283
:100BD00069817A818B819C810E94B81B009761F4A6
:100BE000BE016F5F7F4FCE0103960E94DA226981BA
:100BF0007A818B819C812ED50F900F900F900F9052
:100C0000DF91CF910895FF920F931F93CF93DF93BE
:100C1000082F60E070E0CB010E942232FF24F394A1
:100C20000E94A11AEC01892B89F010E0CE3F8FEFD2
:100C3000D80769F0002361F160E070E0CB010E9409
:100C4000223281E090E0892B59F322C011E025D5B2
:100C5000EC01892B21F0CE3F8FEFD80759F7111106
:100C60001EC011E0229609F410E00E94511AEC0116
:100C7000892B21F0CE3F8FEFD807E1F6111111C07B
:100C800011E0CE3F8FEFD80709F410E001110BC03F
:100C9000CE01DF91CF911F910F91FF90089511E048
:100CA000E4CF11E0F3CF60E070E0CB010E9422328C
:100CB0001F25812F90E0C7CFCF93DF9380914B0307
:100CC000882321F060E070E0CB014CD635D6D0E02F
:100CD000C0E0892B71F06AE070E080E090E00E9453
:100CE000223281E090DF28D62196C03D27E0D2074E
:100CF00081F727D60E940C1C1092630310926203A6
:100D000010925C0310925D0310925E0310925F03D9
:100D1000109258031092590310925A0310925B03D9
:100D200010925403109255031092560310925703D9
:100D300010925003109251031092520310925303D9
:100D400010924C0310924D0310924E0310924F03D9
:100D50004EEF5FEF6FEF7FEF409318025093190251
:100D600060931A0270931B0210924B03EFE3F3E0BF
:100D700028E0DF011D922A95E9F710923B031092BB
:100D80003C0310923D0310923E03109237031092E1
:100D900038031092390310923A03109233031092E1
:100DA0003403109235031092360310922F031092E1
:100DB00030031092310310923203DF91CF910895E6
:100DC00010926F03109270031092710310927203CD
:100DD00010926E03809177039091780390936D0346
:100DE00080936C0310926B0310926A031092660357
:100DF00010926703109268031092690310927403B3
:100E00001092730390E080E00895CF92DF92EF920A
:100E1000FF920F931F93CF938C01892B09F055C03C
:100E2000209177033091780380916C0390916D034A
:100E3000409177035091780350936D0340936C0376
:100E40002817390781F010926B0310926A031092F1
:100E50006603109267031092680310926903109260
:100E60007403109273038091770390917803019734
:100E700061F58091730390917403892B21F4809123
:100E80001C02811112C08091730390917403019729
:100E9000E1F48091660390916703A0916803B0919B
:100EA00069030197A105B10581F4109266031092C0
:100EB0006703109268031092690310921C0282E08B
:100EC00090E09093740380937303809177039091E3
:100ED0007803019709F01CC180918D0390918E03D6
:100EE0008017910709F014C18091890390918A03BA
:100EF000A0918B03B0918C03009709F409C1209154
:100F0000880321110DC04091890350918A0360919B
:100F10008B0370918C03452B462B472B09F4F8C0AB
:100F200020917303309174032230310509F0F0C031
:100F300020916A032111ECC0FC01C080D180E280C5
:100F4000F38080916E03882309F4D3C080917A03E3
:100F500090917B03892B09F4FDC020917A03309195
:100F60007B0381E02230310509F080E020917A0393
:100F700030917B03C1E02130310549F020917A03A3
:100F800030917B03C1E02230310509F0C0E08823B5
:100F900009F456C020918403309185034091860363
:100FA00050918703C701B6010E94403187FD14C0EC
:100FB00020918403309185034091860350918703EB
:100FC00060916F037091700380917103909172032F
:100FD0000E940B3087FD22C020918403309185034D
:100FE0004091860350918703C701B6010E944031AA
:100FF000181634F5209184033091850340918603BF
:101000005091870360916F03709170038091710319
:10101000909172030E940B30811112C080917C0369
:1010200090917D03A0917E03B0917F03892B8A2B41
:101030008B2B19F481E080936B0381E080936A032A
:10104000CC2309F456C0209184033091850340914C
:10105000860350918703C701B6010E940B3087FFBA
:1010600014C02091840330918503409186035091F0
:10107000870360916F037091700380917103909169
:1010800072030E94403187FF22C020918403309177
:1010900085034091860350918703C701B6010E94E2
:1010A0000B30811126C0209184033091850340913B
:1010B00086035091870360916F0370917003809154
:1010C0007103909172030E944031181694F480913C
:1010D0007C0390917D03A0917E03B0917F03892BC7
:1010E0008A2B8B2B19F481E080936B0381E0809332
:1010F0006A0381E090916A03911180E080936E030E
:10110000C0926F03D0927003E0927103F092720369
:10111000012B09F067C18091730390917403892BAF
:10112000D9F41092790310926A0380911C028823EB
:1011300079F082E090E090937403809373031092AF
:101140001C02209177033091780381E0232BE9F092
:1011500080E01BC081E00ACF10921C0280917903CD
:10116000882349F010926B0310927403109273035A
:1011700010927903EDCF8091770390917803892BBA
:10118000E1F080916A0310926A0320917303309119
:1011900074032230310509F45EC088F4211531054D
:1011A00009F448C02130310509F4F3C010926B03F3
:1011B00010926A031092790338C081E0E6CF2330A1
:1011C000310509F4B1C02430310581F7409166033F
:1011D000509167036091680370916903411551054F
:1011E0006105710561F04150510961097109409330
:1011F000660350936703609368037093690340919B
:101200006603509167036091680370916903452BF1
:10121000462B472BD9F4209175033091760321306A
:10122000310509F046C010926B03109274031092BE
:1012300073030CC080911C02882341F082E090E08F
:10124000909374038093730310921C0210926403B2
:1012500080916B03CEC08823C9F380917C03909169
:101260007D03A0917E03B0917F03181619061A061C
:101270001B060CF07DC08091770390917803019755
:1012800009F076C080917C0390917D03A0917E034C
:10129000B0917F038093660390936703A0936803E4
:1012A000B093690383E090E0909374038093730399
:1012B000CDCF409180035091810360918203709162
:1012C0008303452B462B472BA9F010926B0380918B
:1012D000800390918103A0918203B0918303809356
:1012E000660390936703A0936803B093690381E05A
:1012F00090E0DACF882399F080911D0290911E0230
:10130000A0911F02B091200280936603909367031F
:10131000A0936803B093690384E090E0C5CF109276
:101320006B0382E090E0C0CF8091660390916703E9
:10133000A0916803B09169030097A105B10559F028
:101340000197A109B1098093660390936703A09365
:101350006803B09369038091660390916703A0913D
:101360006803B0916903892B8A2B8B2B09F06ECF10
:1013700080911D0290911E02A0911F02B091200247
:10138000892B8A2B8B2B09F44ECF81E080936B0342
:10139000B3CF4091660350916703609168037091E9
:1013A0006903411551056105710561F0415051090D
:1013B0006109710940936603509367036093680362
:1013C00070936903409166035091670360916803CD
:1013D00070916903452B462B472B09F037CF8111BC
:1013E000C7CF9FCF80916403882309F431CF8091C8
:1013F0006503CF911F910F91FF90EF90DF90CF90F9
:10140000089510926F03109270031092710310925E
:10141000720310926E031092740310927303109271
:101420006D0310926C0310928E0310928D03109234
:101430006B0310926A031092660310926703109276
:10144000680310926903109265031092640310926E
:10145000890310928A0310928B0310928C031092CE
:1014600088031092840310928503109286031092D1
:10147000870388EE93E0A0E0B0E080931D02909394
:101480001E02A0931F02B0932002109280031092BC
:101490008103109282031092830310927C031092B6
:1014A0007D0310927E0310927F0310927B031092B3
:1014B0007A0381E080931C021092790310927803E2
:1014C00010927703109276031092750390E080E0FB
:1014D00008958091770390917803892B19F5809175
:1014E0001C02882351F080917903811106C081E0AC
:1014F000809365038093640308952091790330916C
:101500001C0281E090E0332311F090E080E030E0B5
:1015100082239323892B21F01092650381E0EACF87
:1015200010926403089582E090E0FA019183808331
:101530008FEF9FEF0895CF93DF93EA01009711F0AB
:101540000E942C1D1982188290E080E0DF91CF91DB
:101550000895DB01009719F48FEF8C9308952EEF17
:101560002C93FC013F96EF30F10508F034C088273A
:10157000E354F54F8F4F0C944737E90AE70AE50A21
:10158000E30AE10ADD0ADF0ADB0AD90AD70AD40A2C
:10159000D00ACC0AD20AEB0A80E311968C93089504
:1015A00089E2FBCF82E2F9CF11961C92089583E283
:1015B000F4CF81E2F2CF81E1F0CF87E2EECF8AE291
:1015C000ECCF80E1EACF84E2E8CF88E2E6CF86E2A2
:1015D000E4CF81E3E2CF80E2E0CF80919B03909162
:1015E0009C03089590939C0380939B03089580919E
:1015F0009A03089590919A03892B80939A030895F2
:10160000982F909580919A03892380939A03089547
:10161000809199030895809197039091980308957C
:101620006115710559F0FB0130E020E070E060E0E9
:101630002417350719F06115710511F0CB010895D4
:10164000A081B181A817B90709F4BF012F5F3F4FEF
:101650003696EECF80919D0381111CC060D266D278
:101660009093900380938F030E942A150E943C154B
:1016700090939403809393030E94B9190E94C01918
:10168000909392038093910381E080939D0390E077
:1016900080E0089584EF9FEF08958F929F92AF921C
:1016A000BF92CF92DF92EF92FF920F931F93CF934F
:1016B000DF9300D000D000D01F92CDB7DEB71A86DE
:1016C000198618861F821E821D821C821B821A8226
:1016D000198280919D0307EF1FEF882309F49CC0B6
:1016E0008E010D5F1F4F9E012B5F3F4FAE01495F83
:1016F0005F4FBE01675F7F4F90E080E00E943D1B1F
:101700008C01009721F00596029708F0DBC029852F
:101710003A852115310509F402C1ED80FE804B8127
:101720005C81B701640F751F8F81988586179707B5
:1017300008F4F5C0E20EF31ED7019C91903C09F02D
:101740007FC04230510508F47BC011968C914091C6
:101750009B0350919C03452B09F49CC0913F08F0DA
:1017600071C02CE1290F2D3008F48BC02DE2290F18
:10177000203108F489C0903C21F48150823008F473
:1017800083C088E3890F8B3008F481C099EAC92EA1
:101790009AE0D92EE3E9FAE06D817E81AE014F5FD8
:1017A0005F4F89859A8519955C01C114D104A1F117
:1017B00089809A808114910479F18B819C818815AC
:1017C000990508F487C010E000E04B815C8170E06F
:1017D00060E0C7010E94713701151105E9F44981E4
:1017E0005A8169857A858D819E81680F791FC5012F
:1017F000F6011995E980FA800D811E812F813885C7
:1018000049855A856FEF7FEF81E090E00E94D81AFA
:101810008C01892B09F056C0C8012A960FB6F8949E
:10182000DEBF0FBECDBFDF91CF911F910F91FF9013
:10183000EF90DF90CF90BF90AF909F908F900895E2
:1018400080E085CF30E020E0220F331FF901E1571F
:10185000FC4F0190F081E02D309709F497CF892F4C
:1018600090E01995009709F491CFDC011296ED9163
:10187000FC9113971496CD90DC90309709F08CCFA3
:101880001FC021E030E0E0CF22E030E0DDCF23E0F8
:1018900030E0DACFD12CC12CEBE9FAE09F3F09F020
:1018A0007BCFE0918F03F0919003309721F4C90131
:1018B00004EF1FEF0CC08FEF90E019950097A9F689
:1018C00004EF1FEF89859A85009709F4A5CF0E9440
:1018D0002C1DA2CF0E94071C8C0189859A850E942D
:1018E0002C1D70E060E0C4010E94A01B98878F83CC
:1018F0000E94D51A9E838D836F817885611571054D
:1019000059F0C8010E94B81E9A87898706EF1FEF19
:10191000892B09F058CF59CF08EF1FEF56CF08EFAA
:101920001FEFD0CF20919D03222319F020E00C94CB
:10193000411587EF9FEF089580919B0390919C0341
:1019400008950E94C5190E941F19F5D0EFE8F3E031
:1019500088E0DF011D928A95E9F710929D0390E0DF
:1019600080E008950C947D1721E040E050E0BA013A
:101970000C94411586E090E0FA019183808390E019
:1019800080E0089547E050E064E472E049CEDF92E1
:10199000EF92FF920F931F93CF93DF938A01EC0195
:1019A000C60FD71FE090A103F090A203D9800E9438
:1019B000EF1BD816190678F082E090E0F8019183C9
:1019C00080838EEF9FEFDF91CF911F910F91FF905A
:1019D000EF90DF900895EF2841F482E090E0F80165
:1019E0009183808384EF9FEFEECF89818093A00362
:1019F00090E00196F8019183808390E080E0E3CF4E
:101A0000CF93DF93EA010E942E18882321F00E94D1
:101A1000FC1B0E942F1882E090E0998388838BEF53
:101A20009FEFDF91CF910895CF93DF93EB0186E095
:101A3000FB0111928A95E9F78FEF8883D8DD8983BE
:101A4000E7DD8A83E8DD9D838C83DF91CF91089564
:101A5000CF93DF93EA010E943118811109C082E01F
:101A600090E09983888385EF9FEFDF91CF91089570
:101A700090E080E0B7DD81E090E09983888390E09A
:101A800080E0F3CF0F931F93CF93DF93EA018C0194
:101A9000060F171F0E94311881110BC082E090E0E1
:101AA0009983888385EF9FEFDF91CF911F910F91ED
:101AB0000895F8018181823038F082E090E09983C6
:101AC00088838EEF9FEFF0CF81E090E08BDD88E0A0
:101AD00090E09983888390E080E0E6CFCF93DF9316
:101AE0000097D1F4EB01FB01329686E0DF011D92F5
:101AF0008A95E9F78FEF888385E089831A820E94AF
:101B0000EF1B8B830E94EE1B9D838C8381E08E8371
:101B10008F83DF91CF910895DF91CF911ACD82EC21
:101B20009CE090939F0380939E03089580919E0371
:101B300090919F03089510929F0310929E03089521
:101B40008091A1039091A2030895411105C06115F0
:101B500071058105910561F06093A1037093A20363
:101B60008093A3039093A4034093A50381E0089579
:101B700080E00895FF920F931F93CF93DF938A0124
:101B8000EC01C60FD71FF9800E94EF1BF81619064B
:101B900068F082E090E0F801918380838EEF9FEF00
:101BA000DF91CF911F910F91FF9008956C817D81FE
:101BB0008E819F814B81C9DF811108C082E090E056
:101BC000F8019183808384EF9FEFEACF898180932E
:101BD000A00390E00196F8019183808390E080E07B
:101BE000DFCFCF93DF93EA01FC01E60FF71F64819B
:101BF0007581868197814381A8DF811109C082E0C8
:101C000090E09983888384EF9FEFDF91CF910895CF
:101C100081E090E09983888390E080E0F6CFE1EA6C
:101C2000F3E04081518162817381480F511D611D34
:101C3000711D40835183628373830895CF93C09154
:101C4000A0034C2F50E06091A1037091A203019674
:101C50000E9468378C2FE3DF1092A003CF91089584
:101C6000009799F48091A1039091A2032FEFFB01BB
:101C70002083892B59F02091A00330E02F5F3F4F44
:101C80002417350719F4CB01D9CF63CC08950097F9
:101C900099F48091A1039091A2032FEFFB0120837F
:101CA000892B59F02091A00330E02F5F3F4F24177C
:101CB000350719F4CB01C2CF4CCC089523E1AC0118
:101CC000249FC001259F900D1124E091AA03F0915B
:101CD000AB03E80FF91F238134812250310981E0E1
:101CE0002230310508F080E008950F931F93CF93C1
:101CF000DF930091AC031091AD03D0E0C0E080E031
:101D00000C171D0749F491E0811190E0892FDF91B4
:101D1000CF911F910F9108958111F5CFCE01CEDFA4
:101D20002196EECFA091AA03B091AB03109729F1B1
:101D30002091AC033091AD0382179307F0F453E187
:101D4000589F9001599F300D1124A20FB31FED91A0
:101D5000FC911197309789F012968C91681768F46E
:101D60008DE0689FE00DF11D112480819181892B08
:101D700021F081E09281491708F080E008959C01EC
:101D800043E1429FC001439F900D1124E091AA03BB
:101D9000F091AB03E80FF91F8385823091F481E065
:101DA00090E0658176814091210250912202641772
:101DB000750711F490E080E0892B19F081E0232B66
:101DC00009F080E00895FC01A081B1818DE0689F59
:101DD000A00DB11D112413964D915C9185859685BA
:101DE000489F9001499F300D589F300D1124C90123
:101DF0000196611103C0478144FD04960895EF9256
:101E0000FF920F931F93CF93DF93EA01FC01E60F3C
:101E1000F71F02811381E480F5804F2D6E2DC801DC
:101E200081DF81110DC082E090E0998388838EEF7D
:101E30009FEFDF91CF911F910F91FF90EF90089549
:101E4000C8013CDF882339F082E090E099838883E1
:101E500088EF9FEFEECF1093280200932702E092C5
:101E60002902F0922A0281E090E09983888390E031
:101E700080E0DFCFCF92DF92EF92FF920F931F931C
:101E8000CF93DF937A01EC01C60FD71FC0902702D2
:101E9000D09028020091290210912A02412F602F30
:101EA000C60140DF811110C082E090E0F70191830C
:101EB00080838AEF9FEFDF91CF911F910F91FF9069
:101EC000EF90DF90CF900895C601F8DE882341F0AF
:101ED00082E090E0F7019183808388EF9FEFEBCF62
:101EE0004C815D816E817F819A8189818F3F41F034
:101EF00082E090E0F701918380838EEF9FEFDBCF4C
:101F0000E3E1EC9D9001ED9D300D1124E091AA03D9
:101F1000F091AB03E20FF31F0190F081E02D2DE073
:101F2000029FE00DF11D11240190F081E02D27E0CA
:101F3000129FE00DF11D1124808391838B81828398
:101F400043835483658376831F5F10932A0281E065
:101F500090E0F7019183808390E080E0ACCFEF9236
:101F6000FF920F931F93CF93DF937A018C01060F9B
:101F7000171FC091AA03D091AB03209781F021E0F5
:101F800030E0F801828193814091AC035091AD0320
:101F90008417950710F030E020E0232B71F482E0E5
:101FA00090E0F701918380838EEF9FEFDF91CF91D7
:101FB0001F910F91FF90EF90089543E1489F90018A
:101FC000499F300D1124C20FD31F78DE882341F0C2
:101FD00082E090E0F7019183808388EF9FEFE6CF66
:101FE000F8012481358120383105C8F687818111B7
:101FF000D6CF4181842F90E08F7E009741F082E020
:1020000090E0F7019183808386EF9FEFCFCF4F83DE
:102010003E832D83268128871986223010F421E003
:10202000288721E030E0F70131832083BFCF88E0AB
:1020300090E0FA019183808390E080E00895FB01B5
:102040008FEF808381E181838FEF9FEF9383828382
:1020500080E890E095838483168217820895FB01BF
:102060008FEF808391E0918382839383848384E3E1
:10207000858381E090E0978386830895DF92EF92D5
:10208000FF920F931F93CF93DF93EA01FC01E60FBA
:10209000F71F8181813071F082E090E0998388831D
:1020A0008FEF9FEFDF91CF911F910F91FF90EF90F6
:1020B000DF90089582819381D4802581E680F78026
:1020C0000091AA031091AB030115110539F482E0C8
:1020D00090E0998388838CEF9FEFE4CF4091AC032D
:1020E0005091AD038417950738F082E090E0998312
:1020F00088838EEF9FEFD6CF892B39F082E090E076
:102100009983888386EF9FEFCDCF8D2D8D7FB1F79B
:102110002130A1F781E0D11006C091E0E916F10469
:1021200031F080E004C0E2E0EE16F104D0F3882341
:1021300029F390E080E0C2DD882339F082E090E06E
:102140009983888388EF9FEFADCFF801D38681E034
:102150008487F686E586108A178681E090E0998369
:10216000888390E080E09ECF4CE050E06EE672E025
:1021700057CA8F929F92BF92CF92DF92EF92FF92B7
:102180000F931F93CF93DF93EA01FC01E60FF71F34
:10219000828193810481B580E091AA03F091AB0321
:1021A000309791F482E090E0998388838CEF9FEFE1
:1021B000DF91CF911F910F91FF90EF90DF90CF9023
:1021C000BF909F908F9008952091AC033091AD0304
:1021D0008217930738F082E090E0998388838EEF2E
:1021E0009FEFE6CF23E1289F6001299FD00C1124A7
:1021F000EC0DFD1DE080F180E114F10499F2828183
:10220000081748F78DE0089F80011124E00EF11EA9
:10221000F70180819181892B29F6BB20E1F2F7E05B
:10222000BF9E40011124C4010E94F31CF701918359
:102230008083E091AA03F091AB03EC0DFD1D0190AA
:10224000F081E02DE00FF11F80819181009739F43A
:1022500082E090E0998388838DEF9FEFA9CFA4015E
:1022600070E060E00E9471378091AA039091AB0307
:10227000C80ED91EF60180819181080F191FF8013F
:10228000B28281E090E09983888390E080E090CFF3
:10229000AF92BF92CF92DF92FF920F931F93CF9393
:1022A000DF93EA01FC01E60FF71F82819381F4803E
:1022B0000091AA031091AB030115110581F482E08E
:1022C00090E0998388838CEF9FEFDF91CF911F91EE
:1022D0000F91FF90DF90CF90BF90AF900895209125
:1022E000AC033091AD038217930738F082E090E0A1
:1022F000998388838EEF9FEFE8CF2FEF2F0D2C3F30
:10230000A8F723E1289F6001299FD00C11240C0D10
:102310001D1DF80180819181892B89F6FDE0FF9ECA
:1023200050011124C5010E94F31CF80191838083A0
:10233000E091AA03F091AB03EC0DFD1D808191812A
:10234000009739F482E090E0998388838DEF9FEFC6
:10235000BCCFA50170E060E00E947137E091AA0354
:10236000F091AB03EC0DFD1DF28281E090E09983CA
:10237000888390E080E0A9CFCF92DF92EF92FF9226
:102380000F931F93CF93DF93860F971FFC0102815A
:1023900013818091AA039091AB03892B81F082E095
:1023A00090E0FA01918380838CEF9FEFDF91CF91D2
:1023B0001F910F91FF90EF90DF90CF900895C8018B
:1023C000B0E0A0E00197A109B1098F3F9F4FA1059F
:1023D000B10540F082E090E0FA01918380838EEFB6
:1023E0009FEFE4CF7A0183E1809F6001819FD00C51
:1023F0001124C6010E94F31CEC01009741F482E015
:1024000090E0F701918380838DEF9FEFCFCFA601FE
:1024100070E060E00E947137D093AB03C093AA03D1
:102420001093AD030093AC0390E080E02FEF3FEFFB
:1024300041E061E070E08017910741F481E090E0B5
:10244000F7019183808390E080E0B0CF3A8B298BB5
:102450001B864C877E876D87188A1F860196639638
:10246000EACFEF92FF921F93CF93DF93EC0110E03E
:10247000F12CE12C6A811617B0F083E0689FB0015F
:102480001124AE014F5E5F4FC7010E94581D009797
:1024900021F02FEF3FEF3A8B298BDF91CF911F91E6
:1024A000FF90EF900895612FCE018DDC61E070E028
:1024B0000E94A01BE816F90608F47C011F5FDACF22
:1024C000F8942091A8033091A90381E021153105EA
:1024D00009F080E0232B09F0789408952F923F9221
:1024E0004F925F926F927F928F929F92AF92BF9224
:1024F000CF92DF92EF92FF920F931F93CF93DF93D0
:102500003C01660E771EF301828193814C01B12C50
:10251000A12CC091AA03D091AB03209769F021E0D0
:1025200030E06091AC037091AD038617970710F00F
:1025300030E020E0232BD1F482E090E0FA01918397
:1025400080838EEF9FEFDF91CF911F910F91FF90CE
:10255000EF90DF90CF90BF90AF909F908F907F9043
:102560006F905F904F903F902F90089580922B0234
:1025700090922C02A0922D02B0922E0263E1689FED
:102580009001699F300D1124C20FD31FF301818187
:10259000833040F082E090E0FA019183808386EFFF
:1025A0009FEFD1CF2A012B813C81232BF1F428818D
:1025B00039819F8191FF2EC0232B09F46FC0209198
:1025C000AF039A81422F490F5527551FBA0141E0A9
:1025D00050E06138710514F050E040E0452B09F4FB
:1025E0005DC02A87920F9093AF038150823008F428
:1025F00081C066DF882309F4D8C0F301818181306E
:1026000009F48DC008F47BC0823009F4C6C090E0A4
:1026100080E0ADC0232B09F441C02091AE039A8124
:10262000E22FE90FFF27FF1F41E050E0ED3FF105EA
:1026300014F050E040E0452B89F12A87920F9093E7
:10264000AE03D3CFA081B181A20FB31F11966C91BD
:10265000060F111D0196295F3F4F8417950794F3CC
:102660008D859E85089F1001099F300C189F300CA6
:102670001124C114D104D1F48F8184FF17C00E94AA
:10268000EE1BF5E02F0E311C21E08215930508F4B6
:1026900020E0A701435F5F4F21110EC082E090E070
:1026A000F2019183808387EF9FEF4DCF0E94EE1B55
:1026B0002FEF221A320AE8CF88819981E80EF91E9D
:1026C000F70114830383FFEFCF1ADF0A7A018A81AF
:1026D0008C151D0409F00CF48CCFE881F981EE0D06
:1026E000FF1D428150E030E020E010E000E090E08B
:1026F00080E0B3CFF12CE12CD12CC12CE8CF81E0CC
:1027000090E09C838B83F1DA882309F480CF81E009
:1027100090E00E94F20A80E40E94000B78CF898941
:102720009A89019661F083E090E09C838B8382E03C
:1027300090E00E94F20A80E40E94FA0A68CF8D813C
:102740009E81209121023091220282179307D1F4B9
:102750006091250270912602AE014F5E5F4F80911D
:102760002302909124020E94771E0097E1F2789450
:1027700022E030E0F20131832083892B99F08DEF44
:102780009FEFE1CE89288A288B2869F6892B59F694
:10279000CE0167DE188A1F86E8CF82E090E09C8336
:1027A0008B8335CF90E080E0CECE82E090E0F201E6
:1027B0009183808385EF9FEFC6CE8F929F92AF92D9
:1027C000BF92CF92DF92EF92FF920F931F93CF931E
:1027D000DF93EA018C01060F171FF8018181833016
:1027E00098F082E090E09983888386EF9FEFDF91F5
:1027F000CF911F910F91FF90EF90DF90CF90BF90FE
:10280000AF909F908F9008958091AA039091AB0311
:10281000892B61F081E090E02091AC033091AD0311
:10282000232B11F490E080E0892B39F482E090E0D2
:10283000998388838EEF9FEFDACF42DE882309F4F5
:10284000DFC0F8018181813009F495C0E8F0823061
:1028500099F42091AC033091AD03E091AA03F0917B
:10286000AB0390E080E041E050E02817390709F021
:10287000BDC03BDA811117C0789481E090E0998364
:10288000888390E080E0B3CF2091AC033091AD031A
:10289000E091AA03F091AB0390E080E041E050E0CA
:1028A0002817390741F481E090E00E94F20A80E4A1
:1028B0000E94000BE1CF63817481672B11F0548378
:1028C000438301967396ECCFE091AA03F091AB039A
:1028D000E00FF11F2381348122303105D9F42189A1
:1028E00032892F3F3F4FB1F425813681409121023B
:1028F000509122022417350761F5AF014F5E5F4FFB
:102900006091250270912602809123029091240209
:102910000E94771EEFEFCE1ADE0AEE0AFE0A0D5E67
:102920001F4F4091AC035091AD0370E060E0C416BE
:10293000D506E606F7063CF5009731F27894892B28
:1029400009F49BCF82E090E0998388838DEF9FEF1D
:102950004ECFC114D104E104F104E1F6232BD1F6EA
:10296000CF017FDDE091AA03F091AB03E00FF11FEF
:10297000108A1786CFCF10E000E090E080E0C12CF5
:10298000D12C7601CECF0097C9F610E000E0812C63
:10299000912C540183E0E82EF12C1AC0E091AA0397
:1029A000F091AB03E00FF11F83819481029749F40A
:1029B000F482E38282E090E00E94F20A80E40E94C6
:1029C000FA0AFFEF8F1A9F0AAF0ABF0A0D5E1F4F68
:1029D0008091AC039091AD03B0E0A0E08816990619
:1029E000AA06BB06DCF290E080E0A8CF6381748188
:1029F0006230710511F4548343830196739635CF89
:102A000082E090E09983888385EF9FEFF0CE009776
:102A1000B9F48FEFFB01808320912B0230912C02BF
:102A200043E1429FC001439F900D1124E091AA030E
:102A3000F091AB03E80FF91F8285FB0181830895B4
:102A40000C94A90A88E090E0FA019183808390E0D9
:102A500080E008951092A9031092A803EAEAF3E037
:102A600086E0DF011D928A95E9F784EB90E190936F
:102A7000A7038093A60308958091A6039091A703CE
:102A800008952F923F924F925F926F927F928F9212
:102A90009F92AF92BF92CF92DF92EF92FF920F93ED
:102AA0001F93CF93DF93CDB7DEB72F970FB6F89470
:102AB000DEBF0FBECDBFF894E091A803F091A9034B
:102AC0003196F093A903E093A80378944090AA0369
:102AD0005090AB034114510409F40CC2E091AC03D3
:102AE000F091AD03EF2B09F405C22D8749875A8772
:102AF0006B877C8798878F831201B12CA12C10E003
:102B000000E08091AC039091AD03A816B90618F4CB
:102B10000115110529F1F8948091A8039091A9035A
:102B200001979093A9038093A8037894C8012F96E6
:102B30000FB6F894DEBF0FBECDBFDF91CF911F91CE
:102B40000F91FF90EF90DF90CF90BF90AF909F904C
:102B50008F907F906F905F904F903F902F9008954F
:102B60007101E418F508D10117968C91179781FD32
:102B700054C013968D919C911497039709F04DC002
:102B800015968D919C91EF81F8858E179F0709F01E
:102B900044C0B50190E080E07FD48A832091AA03ED
:102BA0003091AB033D832C833D85332309F44CC026
:102BB0004C815D81452B09F49AC18091AC039091C1
:102BC000AD03A816B90608F092C1C501D8D888236C
:102BD000E9F06C817D816E0D7F1D7D836C83DB014F
:102BE0001F968D919C91892B89F0D12CC12CF12CB1
:102BF000E12CAC81BD8112968C9112978E151F0429
:102C000009F094F450961C921E921F972A81222359
:102C100021F0B50190E080E041D43FEFA31AB30A60
:102C200043E1240E311C6DCFAC81BD81ED91FC914F
:102C3000EC0DFD1D858196810FD7BFEFEB1AFB0AC6
:102C4000EDE0CE0ED11CD5CFEC81FD81309709F49B
:102C50004EC18091AC039091AD03A816B90608F05F
:102C600046C1EE0DFF1DFF87EE87C50188D88B8317
:102C7000882339F1AE85BF851F968D919C91509721
:102C8000019621E01D964D915C918417950709F0FE
:102C900020E02E831982712C10E000E0AE85BF8504
:102CA00012968C91781608F45DC0EE85FF858785B5
:102CB00090890196658576850E941137908B87876C
:102CC000A5CFB1E0BE83E6CF992493946BC08BD699
:102CD000F6019683858382C0D601ED90FC90B7E023
:102CE0006B9EE00CF11C1124F701638174818081DB
:102CF0008F3F61F121E030E002C0220F331F8A953F
:102D0000E2F7C901092E000CAA0BBB0BFB014081A5
:102D100051816281738184239523A623B72321E007
:102D2000892B8A2B8B2B09F420E0D4012C93D7011B
:102D300011968C91F60123853485820F932F911D76
:102D4000880E991E1486138663949BC0418150E0BF
:102D5000C4010E946837EBCF998206EF1FEFC5C010
:102D60001982C3C0F981F111A0CFEDE07E9E700100
:102D70001124AE85BF85CD90DC90CE0CDF1C15D420
:102D80009D838C83BB81BB2309F49ECF81E0EE85BC
:102D9000FF8527853089232B09F080E0982E882332
:102DA00009F458C0672D8E859F850DD8D6011896D9
:102DB0009C938E93179761E070E0C2D4EE85FF85F7
:102DC000218932892F3F320709F481CFBC01C90123
:102DD000CFD7D60116969C938E931597D60115964C
:102DE0008D919C911697009709F4B6CFEC81FD81E7
:102DF0008E0F9F1F1A969C938E931997AE85BF8551
:102E0000ED91FC911197EE0EFF1EF70121853285A1
:102E1000148613861A968C91870DD9018D937110A3
:102E200016C0EE85FF85878184FF11C049855A85CC
:102E30006B857C85F9014183528363837483F70139
:102E4000838594850496A80FB91F14861386F7010D
:102E5000B287A187D60115968D919C911697892BE3
:102E600009F443C0EE85FF852581368180912102DA
:102E7000909122022817390779F019968D909C902D
:102E8000612CD60112968C911297681608F424CF03
:102E90001A969C928E921997BE81BB2309F460CF3B
:102EA00061E070E0F601878190854AD4D6011796DB
:102EB000ED90FC90189715964D915C91E1E0F0E053
:102EC000BA81BB2311F0F0E0E0E00C811D819C0190
:102ED000B501882799278E1B9F0B6AD38C01892BFC
:102EE00021F0F60185819681B7D57394D7CE0FEF87
:102EF0001FEF8CCE10E000E00ECE2F923F924F924B
:102F00005F926F927F928F929F92AF92BF92CF9279
:102F1000DF92EF92FF920F931F93CF93DF938091F5
:102F2000AA039091AB0310E000E0892BA9F0C8DA66
:102F30000AEF1FEF882381F02090AC033090AD039F
:102F4000C091AA03D091AB03D12CC12C10E000E0BA
:102F50002C143D04A9F47894C801DF91CF911F91FE
:102F60000F91FF90EF90DF90CF90BF90AF909F9028
:102F70008F907F906F905F904F903F902F9008952B
:102F8000C6010E94BF0E882309F18B819C810397A3
:102F9000E9F48F859889892BC9F0B60190E080E02B
:102FA0007BD221E030E0882311F030E020E044249F
:102FB0005524421A530AB12CA12C912C812C8A81C0
:102FC0008815190409F038F4188A1F864FEFC41ABF
:102FD000D40A6396BDCFE881F981EA0DFB1D858196
:102FE0009681892BA1F161E070E087819085A8D35B
:102FF0003C01DBD28C01E881F981EA0DFB1D818562
:10300000928525813681200F311FAC01421B530B65
:103010009A0147815085421B530B70E060E00E948B
:103020007137E881F981EA0DFB1DE780F084458165
:1030300056819301B601C201BBD28C01892B39F0B4
:10304000E881F981EA0DFB1D8581968105D55FEF49
:10305000851A950A8DE0A80EB11CB1CF31CA7894BB
:1030600008952F923F924F925F926F927F929F921C
:10307000AF92BF92CF92DF92EF92FF920F931F9386
:10308000CF93DF9300D000D0CDB7DEB70091AA0375
:103090001091AB03992493940115110509F43EC0D6
:1030A000A090AC03B090AD030BDA982E8823B1F159
:1030B0001092AB031092AA031092AD031092AC03CE
:1030C0001092AE031092AF038FEF9FEFDC0180935D
:1030D0002B0290932C02A0932D02B0932E02789491
:1030E0007FD31E830D83C12CD12C7601C501B0E0A6
:1030F000A0E089839A83AB83BC8322242A94322C58
:1031000089819A81AB81BC81C816D906EA06FB0683
:10311000F4F0C801A1D480E40E94000B892D26960A
:103120000FB6F894DEBF0FBECDBFDF91CF911F91D8
:103130000F91FF90EF90DF90CF90BF90AF909F9056
:103140007F906F905F904F903F902F900895AD814A
:10315000BE8115968D919C911697209121023091F8
:10316000220282179307D1F451968D919C91EED54E
:10317000ED81FE8180819181B12CA12C412C512CBB
:103180003201892B89F5BFEFCB1ADB0AEB0AFB0A68
:10319000ED81FE817396FE83ED83B2CFC114D1041D
:1031A000E104F10429F7892B19F7ED81FE8181896A
:1031B00092898F3F980709F029D5AD81BE8152963B
:1031C0003C922E925197D4CF8A0D9B1DDC018D919C
:1031D0009C91009709F040D4BFEF4B1A5B0A6B0A31
:1031E0007B0AEDE0AE0EB11CAD81BE818D919C914C
:1031F000119712964C9150E070E060E0441655062D
:10320000660677060CF328D4BECFCF93DF93EA018E
:1032100028DF811109C082E090E09983888385EFDF
:103220009FEFDF91CF91089581E090E00E94F20A34
:1032300081E090E09983888390E080E0F2CF11DF15
:103240001092A7031092A603089542E050E066EBA7
:1032500072E00C94100BFF920F931F93CF93DF93A8
:103260008A01EC01C60FD71FF980B9D20897F8166A
:10327000190671F068F082E090E0F8019183808394
:103280008EEF9FEFDF91CF911F910F91FF900895E7
:103290006C817D818E819F814B810E94A50D811162
:1032A00008C082E090E0F8019183808384EF9FEF73
:1032B000E9CFF9800E94A00D4F2D50E0BE01685F5C
:1032C0007F4F0E94683789810E940F0E81E090E055
:1032D000F8019183808390E080E0D4CFDF92EF9279
:1032E000FF920F931F93CF93DF938A01EC01C60FD8
:1032F000D71F0E94A00D7C01D98071D2DD2059F02A
:10330000029721E030E0D816190619F010F030E0ED
:1033100020E0232B79F482E090E0F8019183808310
:103320008EEF9FEFDF91CF911F910F91FF90EF9064
:10333000DF900895EF2841F482E090E0F801918356
:10334000808384EF9FEFEECFF9800E94A00D4F2D78
:1033500050E0BE016E5F7F4F0E94683789810E94F6
:103360000F0E81E090E0F8019183808390E080E08F
:10337000D9CF85E299E19093B1038093B00308958A
:103380008091B0039091B10308950895FC011182DA
:103390001082938382830895DB011D921C92DC01CD
:1033A0001296ED91FC9113977183608313967C9331
:1033B0006E9312970895FC0180819181DB018D93BA
:1033C0009C93A081B181109741F08D919C91918344
:1033D0008083892B11F4F383E2830895FC018081BB
:1033E0009181DB018D939C93892B11F4738362830C
:1033F000718360830895FC0111821082938382831C
:103400000895CF93DF931F921F92CDB7DEB71A8234
:103410001982F894BE016F5F7F4F87EB93E0CBDF9B
:1034200089819A81009709F017D389819A81892B24
:1034300089F7BE016F5F7F4F8BEB93E0BCDF898123
:103440009A81009709F008D389819A81892B89F79D
:1034500078940F900F90DF91CF910895CF93DF93E1
:103460001F921F92CDB7DEB71A821982F894BE015F
:103470006F5F7F4F83EB93E09EDF89819A81009796
:1034800009F0EAD289819A81892B89F778940F9083
:103490000F90DF91CF91089581E0089590E080E052
:1034A0000895EF92FF920F931F93CF93DF931F9294
:1034B0001F92CDB7DEB71A8219828091B20307EF4F
:1034C0001FEF8823A1F1F894BE016F5F7F4F8BEB54
:1034D00093E071DF789489819A81EE24E394F12C52
:1034E000892B51F4F894BE016F5F7F4F87EB93E017
:1034F00062DF7894F12CE12C89819A810EEF1FEF25
:103500000097A9F0FC014281538164E070E07AD613
:103510008C01892B61F0F89469817A81C701880F49
:10352000991F880F991F89549C4F58DF7894C801C0
:103530000F900F90DF91CF911F910F91FF90EF901F
:1035400008950F931F93CF93DF9300D01F92CDB7B1
:10355000DEB71C821B821A8219828091B20307EFA8
:103560001FEF8823C1F0AE014D5F5F4F64E070E054
:10357000CE010196BAD68C01892B69F4E981FA81D2
:103580008B819C8193838283F89469817A8183EB18
:1035900093E002DF7894C8010F900F900F900F9086
:1035A000DF91CF911F910F910895BFD70496089591
:1035B0008F929F92AF92BF92CF92DF92EF92FF9243
:1035C0000F931F93CF93DF931F921F92CDB7DEB758
:1035D0001A821982BC016F5F7F4F6330710598F0CA
:1035E000AA24AA94BA2CC5010F900F90DF91CF9115
:1035F0001F910F91FF90EF90DF90CF90BF90AF9011
:103600009F908F9008954115510551F3480159013C
:103610008A016C01CADF8815990511F7E114F104DC
:10362000F9F28E0D9F1DA816B906D0F28091B20353
:103630008823F1F0F894B501645071099701AE0147
:103640004F5F5F4FC8010496E5D65C01892B71F48A
:1036500089819A81F80193838283C601880F991F1B
:10366000880F991FB80189549C4F96DE7894BBCF80
:1036700087EFA82EBB24BA94B6CFAF92BF92CF9259
:10368000DF92EF92FF920F931F93CF93DF931F92DE
:103690001F92CDB7DEB71A821982892B09F047C075
:1036A0006115710509F443C04115510509F43FC086
:1036B0002115310509F43BC001151105C1F18091B7
:1036C000B2038823B9F179016A015B01F894BE0164
:1036D0006F5F7F4F83EB93E06EDE789489819A81F0
:1036E000009759F1DC0112966D917C91A801049626
:1036F000AAD68C01E981FA81D501ED93FC938281F0
:1037000093810496F601918380834FDFD7018D93D7
:103710009C93C8010F900F90DF91CF911F910F9153
:10372000FF90EF90DF90CF90BF90AF9008950FEF94
:103730001FEFEFCF07EF1FEFECCF0EEF1FEFE9CF3B
:10374000CF93DF93EC01672B71F4F8D68C179D07AC
:1037500060F0EBD62496C80FD91FEAD68C0F9D1FB8
:10376000DF91CF910895E7D6F1CF90E080E0F8CFD8
:103770000F931F93CF93DF932091B20321112BC09E
:103780008B01EC0187EB93E001DE8BEB93E0FEDD38
:1037900083EB93E0FBDD97D00097C1F4CFD670E0C8
:1037A00060E0CEDF4FE252E062E070E081D100974E
:1037B00069F480912F0290913002D2D6B801CE01E7
:1037C00007D5009719F421E02093B203DF91CF9140
:1037D0001F910F91089584EF9FEFF8CFACC6AEC64E
:1037E000CF93DF93AED6EC01892B11F40ADE36DEDF
:1037F000CE01DF91CF910895CF93DF93A2D6EC0154
:10380000892B09F4FEDDCE01DF91CF9108958091DF
:103810002F02909130020895CF93DF938091B203ED
:10382000D0E0C0E08823D1F0A0D6EC01892BB1F420
:10383000E8DD14DE80912F0290913002E7D1E8D2CA
:10384000EC01892B59F487EB93E0D5DD8BEB93E00A
:10385000D2DD83EB93E0CFDD1092B203CE01DF9196
:10386000CF910895EF92FF920F931F93CF93DF9321
:10387000EC017A018B010F5F1F4F0E9DA0010F9D80
:10388000500D1E9D500D112470E060E00E947137B4
:1038900090E080E0F0E0E0E02FEFE816F90639F480
:1038A000DF91CF911F910F91FF90EF9008951A82B1
:1038B00019822883309711F0D283C1830196FE01CB
:1038C000C00FD11FEACFCF92DF92EF92FF920F93FA
:1038D0001F93CF93DF930CED14E00C7F43E050E097
:1038E00061E372E087E392E020D481E3E82E82E096
:1038F000F82E97E3C92E92E0D92ECBE4D5E0D7017C
:103900004D915D917D01F601619171916F01198376
:1039100008835D834C835B834A837F836E839B0133
:103920002F5F3F4F249FC001259F900D349F900D26
:103930001124998788870115110511F0C80192DFBC
:1039400088859985080F191F2A96F7E3EF16F2E08C
:10395000FF06A9F6E1ECF3E088E191E0DF019C01CC
:103960001D9221503040E1F71092C0031092BF0326
:1039700010926A051092690510926E0510926D05FD
:1039800010926C0510926B051092700510926F05E5
:1039900010927205109271051092740510927305C1
:1039A00010927805109277051092760510927505A1
:1039B00010927A051092790510927C0510927B0581
:1039C000109248051092470510924A051092490539
:1039D00090E080E0DF91CF911F910F91FF90EF90E9
:1039E000DF90CF9008950097F1F0F894A7E3B2E04C
:1039F000EBE4F5E030E020E04D915D914817590788
:103A0000A8F0428153814115510581F08AE0829FDF
:103A1000F001839FF00D1124E55BFA4F80819181C5
:103A2000009759F4789490E080E008952F5F3F4F1D
:103A30003A962330310501F7F5CFDC0111966D91EF
:103A40007C91718360834150510953834283FC010F
:103A50002193CF0178940895009749F1DC018E916C
:103A6000853041F4E0914905F0914A053097F9F02D
:103A7000CD0119948530D8F4282F30E0F8948FEFD9
:103A80008C938AE0829FF001839FF00D1124E55B07
:103A9000FA4F8081918112969C938E931197B183F6
:103AA000A083828193810196938382837894089581
:103AB000CF92DF92EF92FF920F931F93CF93DF93FA
:103AC0009C0184EC93E08C7F4115510509F49BC067
:103AD0002115310509F497C06115710509F493C0EA
:103AE0007A01AB01B9016D5F7F4F6C7F9B012F5F46
:103AF0003F4F249F8001259F100D349F100D1124EE
:103B0000F8942091690530916A05232B59F420918E
:103B10007105309172052115310569F120173107C2
:103B200008F058C02091730530917405232B91F44F
:103B30002091710530917205820F931F20917B05B2
:103B400030917C052115310509F441C0201731075A
:103B500008F056C07894CFEFDFEF86EF9FEFF701C4
:103B6000D183C083DF91CF911F910F91FF90EF9090
:103B7000DF90CF900895C3E0D0E0C090BF03D09015
:103B8000C00325E131E02C193D092017310710F35E
:103B90002AE02C9FF0012D9FF00D1124E55BFA4FD8
:103BA00091838083558344835383428377836683E1
:103BB00011870087009709F055DE0C0D1D1D10932D
:103BC000C0030093BF03789490E080E0C8CFC4E0C6
:103BD000D0E0D3CFC3E0D0E02AE02C9FF0012D9FAE
:103BE000F00D1124E55BFA4F918380835583448364
:103BF0005383428377836683009729F333DEE3CFD1
:103C0000C4E0D0E0E9CF8FEF9FEFACCF9C010397EA
:103C1000029708F069C0F89484E09AE0482F50E0D9
:103C2000241735070CF44DC091E08AE0829FF00123
:103C3000839FF00D1124E55BFA4F118210821582EB
:103C4000148213821282178216829923B1F1809115
:103C5000690590916A05892BA9F42091710530912D
:103C600072052115310571F08091BF039091C00359
:103C7000821B930B9093C0038093BF031092720535
:103C8000109271058091730590917405892BA9F4A8
:103C900020917B0530917C052115310571F08091D3
:103CA000BF039091C003821B930B9093C00380933A
:103CB000BF0310927C0510927B05789490E080E021
:103CC0000895949FF001959FF00D1124E55BFA4F44
:103CD00040815181452B31F440855185452B11F4AC
:103CE00081509CCF90E0A1CF8FEF9FEF08954115B9
:103CF000510549F1009739F16115710521F1F894E9
:103D00002091470530914805232BB9F420914905AE
:103D100030914A05232B89F49093480580934705F9
:103D200070934A0560934905789425E030E090E06F
:103D300080E0FA0131832083089578942FEF3FEFDC
:103D400086EF9FEFF6CF8FEF9FEF0895059769F409
:103D5000F894109248051092470510924A05109267
:103D60004905789490E080E008958FEF9FEF0895E3
:103D70006115710519F4F0E0E0E011C0853091059E
:103D800081F4E0914705F09148053097A1F3CB010C
:103D900001961995009779F3FC0185E08193CF0195
:103DA00008959C01235031092230310520F72AE083
:103DB000289FD001299FB00D1124A55BBA4F2D91EA
:103DC0003C911197232BB9F216962D913C911797A0
:103DD0002617370780F2F89412962D913C9113978D
:103DE0002115310529F0ED91FC911197309711F4CF
:103DF0007894C1CF4181528111965C934E932150AA
:103E0000310913963C932E93129781937894C7CFE0
:103E1000E9EDF4E08EE6DF011D928A95E9F7E1EC29
:103E2000F3E088E191E0DF019C011D9221503040D8
:103E3000E1F71092C0031092BF03EBE4F5E082E3D8
:103E4000DF011D928A95E9F7E7E4F5E084E0DF0100
:103E50001D928A95E9F790E080E00895CF93DF9373
:103E6000C0913D02D0913E02CF3FDC0761F40E9439
:103E7000502E90933E0280933D0297FF09C0D0934D
:103E80003E02C0933D0284EF9FEFDF91CF910895F2
:103E900090E080E0FACF8230910528F480937D0590
:103EA00090E080E008958FEF9FEF08954F925F922A
:103EB0006F927F92AF92BF92CF92DF92EF92FF927A
:103EC0000F931F93CF93DF931F921F92CDB7DEB74F
:103ED0001A821982009709F47AC06115710509F4F4
:103EE00076C020913D0230913E0207EF1FEF2F3F39
:103EF0003F4F09F446C06B015C01412C512C32014B
:103F0000F12CE12C10E000E09E012F5F3F4FA60155
:103F10004E195F09B5016E0D7F1D80913D02909194
:103F20003E020E94AF2E892B09F04BC089819A81F5
:103F3000009741F4E114F10429F420917D05222336
:103F400009F442C0E80EF91EEC14FD04D0F480E838
:103F5000481684E858068EE16806710420F560E092
:103F600070E0CB010E9422322AE0420E511C611CFB
:103F7000711C0A3F4FEF140721F0043F8FEF180721
:103F8000A1F4C8010F900F90DF91CF911F910F9175
:103F9000FF90EF90DF90CF90BF90AF907F906F90A9
:103FA0005F904F90089501EF1FEF81E090E0013F97
:103FB0002FEF120711F090E080E0892B09F4A4CFD5
:103FC000E0CF04EF1FEFDDCF0AEF1FEFDACF0FEFE7
:103FD0001FEFD7CF4F925F926F927F92AF92BF92B7
:103FE000CF92DF92EF92FF920F931F93CF93DF93C5
:103FF0001F921F92CDB7DEB71A821982009709F47B
:104000007AC06115710509F476C020913D023091A6
:104010003E0207EF1FEF2F3F3F4F09F446C06B01F1
:104020005C01412C512C3201F12CE12C10E000E01C
:104030009E012F5F3F4FA6014E195F09B5016E0D1E
:104040007F1D80913D0290913E020E94652E892B3A
:1040500009F04BC089819A81009741F4E114F10481
:1040600029F420917D05222309F442C0E80EF91EAF
:10407000EC14FD04D0F480E4481682E458068FE086
:104080006806710420F560E070E0CB010E942232E6
:104090002AE0420E511C611C711C0E3F4FEF1407A9
:1040A00021F0043F8FEF1807A1F4C8010F900F9083
:1040B000DF91CF911F910F91FF90EF90DF90CF9004
:1040C000BF90AF907F906F905F904F90089502EFF8
:1040D0001FEF81E090E0023F2FEF120711F090E018
:1040E00080E0892B09F4A4CFE0CF04EF1FEFDDCFF0
:1040F0000EEF1FEFDACF0FEF1FEFD7CF80913D020A
:1041000090913E028F3F980751F00E94482E892BD4
:1041100049F48FEF9FEF90933E0280933D0290E031
:1041200080E0089584EF9FEF0895CF92DF92EF92A1
:10413000FF920F931F93CF93DF9321E04115510519
:1041400009F020E04150510921112CC0DC01FB0194
:10415000D12CC12C21E022C03FEFC31AD30A7D012C
:104160000D911D91E701EA80FB80E016F106A8F4AD
:1041700020813181E280F380F182E08233832283E7
:10418000ED90FC9011979D0122503109E901F982CF
:10419000E88211961C930E9320E03296C416D50641
:1041A000D8F2D2CFDF91CF911F910F91FF90EF9076
:1041B000DF90CF900895FC01680F791F90E080E0B8
:1041C000E617F70709F408952191820F911DF8CFA2
:1041D00020917E05211113C041DE009791F41092C9
:1041E0008405109283051092820510928105109229
:1041F000800510927F0521E020937E05089584EFCD
:104200009FEF0895AF92BF92CF92DF92EF92FF920D
:104210000F931F93CF93DF93009709F460C046304C
:10422000510508F45CC020917E05C7EFDFEF222323
:1042300009F449C08C01060F171FF801C080D18016
:10424000C114D10409F44EC096012A5F3F4F4217B2
:10425000530708F447C07C01809183059091840541
:1042600093838283B6016C5F7F4F5801A60EB71E01
:10427000C801A1DFF5019183808364E070E0C8018B
:1042800015DEEC01892BF9F481E090E004DEB60143
:10429000C80104960BDEEC01892B91F462E070E01A
:1042A000C50104DEEC01892B59F4C701D5DB8091EF
:1042B00083059091840501969093840580938305EE
:1042C00090E080E0E8DDCE01DF91CF911F910F916A
:1042D000FF90EF90DF90CF90BF90AF900895CFEF19
:1042E000DFEFF1CFC9EFDFEFEECF6F927F928F92CA
:1042F0009F92AF92BF92CF92DF92EF92FF920F9375
:104300001F93CF93DF9300D01F92CDB7DEB70097F6
:1043100009F47AC04115510509F476C020917E0553
:1043200007EF1FEF222309F44DC03A017B015C0126
:1043300064E070E0CE0101964DDE8C01892B09F01E
:1043400041C009811A810115110509F45AC04801BB
:1043500086E0880E911CB701680D791D80913F029F
:104360009091400205DD6C01009709F450C0A7014F
:1043700070E060E00E94713789819A81AB81BC81D5
:10438000EC0CFD1CF70181939193A193B1937F01F4
:1043900081E090E080DDB801C7011CDE892B31F59A
:1043A00062E070E0C701800F911F14DE8C01892B41
:1043B000E9F490E080E06FDDF501D182C082F30185
:1043C00091828082C8010F900F900F900F90DF9123
:1043D000CF911F910F91FF90EF90DF90CF90BF9002
:1043E000AF909F908F907F906F90089590E080E0C5
:1043F00052DDF50111821082F30111821082C60193
:104400002BDB09EF1FEFDECF0FEF1FEFDBCF06EF48
:104410001FEFD8CF0097A1F04115510589F0211564
:10442000310571F0F90136966E177F0748F0DC010F
:104430002D933C93DA01ED93FC9390E080E0089596
:104440008FEF9FEF0895AF92BF92CF92DF92EF92DE
:10445000FF920F931F93CF93DF93009709F45FC0F0
:104460004115510509F45BC06530710508F457C06A
:1044700020917E05C7EFDFEF222391F1DC01CD9083
:10448000DC9011971296ED91FC9196012A5F3F4FB7
:10449000C9EFDFEF2617370719F5C0917F05D091D7
:1044A0008005209749F521E030E030938005209386
:1044B0007F057A018C01F0938205E0938105560116
:1044C000B4E0AB0EB11CB50176DE0A0D1B1DF80180
:1044D000208131818217930729F5D701CD92DC9293
:1044E000CE01DF91CF911F910F91FF90EF90DF9060
:1044F000CF90BF90AF9008952091810530918205B3
:104500002F5F3F4FCCEFDFEFE217F30790F2CBEFD7
:10451000DFEF2E173F0768F2D0E0C0E0CACFCFEF41
:10452000DFEFDECFC3EFDFEFDBCF84E090E0089575
:1045300082E090E008958CEF9FEF089580E290E094
:1045400008951092840510928305109282051092AE
:1045500081051092800510927F0590E080E008951B
:104560009093400280933F02089580917E058823B6
:1045700091F0C4DD009789F41092840510928305B0
:1045800010928205109281051092800510927F058D
:1045900010927E05089590E080E00895009749F01C
:1045A0006115710531F0FC0111821082FB0111824D
:1045B00010820895F3CF90E080E0089580913B064B
:1045C00090913C06891B990B089590913C0680912F
:1045D0003B062FEF3FEF981748F4E92FF0E0E35C3C
:1045E000F94F208130E09F5F90933C06C901089508
:1045F000E0913C0680913B06E81730F4F0E0E35C84
:10460000F94F808190E008958FEF9FEF089508950E
:1046100091E09093170680933A0610921906109233
:104620001806089510920A0681E0809308061092F9
:10463000070661E084E10E945C3361E085E10E944D
:104640005C33E9EBF0E080818E7F808380818D7F19
:10465000808388E48093B80085E48093BC0008954B
:1046600010923C0610923B06109219061092180602
:10467000D9CF413208F041C090910A069111FCCF88
:1046800091E090930A06209308062FEF20939D0552
:104690001092E205240F2093E10590930906909172
:1046A0000906880F892B80930906809107068130BF
:1046B00011F510920706809109068093BB00809146
:1046C000BC0083FDF8CF85EC8093BC0080910A0686
:1046D0008130E1F38091E205841710F44091E20506
:1046E000A3EEB5E0962FFB018E2F891B841730F4C3
:1046F0008D918193F9CF85EEE7CF40E0842F089527
:104700000F93413208F04BC090910A069111FCCFF3
:1047100092E090930A06009308069FEF90939D0500
:104720001092E2054093E105362FA3EEB5E0FB01C0
:104730009E2F931B941718F491919D93F9CF10928B
:10474000090690910906880F892B809309068091AC
:104750000706813011F510920706809109068093B3
:10476000BB008091BC0083FDF8CF85EC8093BC003A
:10477000222321F080910A068230D1F380919D0599
:104780008F3F79F080919D05803269F080919D0581
:10479000803359F084E00F91089585EEE7CF81E0F2
:1047A000FACF80E0F8CF82E0F6CF83E0F4CF0F932A
:1047B000062F21E0409118066AE176E080913A06E2
:1047C0009FDF1092190610921806109217060F918B
:1047D00008954F925F926F927F92AF92BF92CF9265
:1047E000EF92FF920F931F93CF93DF935C01F62E0E
:1047F000D42F28013901EE2011F1862F09DFCE2DAB
:10480000C43008F0C3E0C150B8F028E0C29FC00136
:104810001124A301920104C0569547953795279519
:104820008A95D2F7B901D501ED91FC910190F08103
:10483000E02DC5011995E7CF60E0C501B8DF4D2F28
:10484000D13208F040E22C2D6DE376E08F2D11DFA0
:1048500010923C0680933B06DF91CF911F910F9100
:10486000FF90EF90CF90BF90AF907F906F905F9050
:104870004F900895CF92EF920F931F93C22EE12C89
:1048800000E010E09801A5DF1F910F91EF90CF900D
:10489000089521E0EFCF61E08ACF2091BF05260F78
:1048A0003327331F21323105E4F420910A062430E6
:1048B000D1F4FC0190E080E0861760F4A091BF0580
:1048C0002191AC014F535A4FA40FB52FB11D2C931A
:1048D0000196F2CF8091BF05680F6093BF0580E01D
:1048E000089581E0089582E00895CF93DF931F92A9
:1048F000CDB7DEB76983209117062223F9F0209106
:104900001806203258F021E030E0FC013383228386
:1049100090E080E00F90DF91CF910895809119068B
:10492000E82FF0E0E65EF94F998190838F5F8093E6
:1049300019068093180681E090E0ECCF61E0CE018B
:104940000196ABDFF8CFCF92DF92EF92FF920F93F9
:104950001F93CF93DF937C01CB018A01209117062F
:10496000222389F0EB016B01C40ED51ECC15DD05A9
:1049700061F06991D701ED91FC910190F081E02DFA
:10498000C7011995F3CF642F88DFC801DF91CF915C
:104990001F910F91FF90EF90DF90CF90089585EDDC
:1049A0008093BC008091BC0084FDFCCF10920A066D
:1049B000089585EC8093BC0010920A0608951F921A
:1049C0000F920FB60F9211240BB60F922F933F93B5
:1049D0004F935F936F937F938F939F93AF93BF9307
:1049E000EF93FF938091B900887F803609F44CC023
:1049F00008F03FC0883209F4A8C028F5803109F4D6
:104A00009CC0C8F4882309F4F8C0883009F495C024
:104A1000FF91EF91BF91AF919F918F917F916F9196
:104A20005F914F913F912F910F900BBE0F900FBE52
:104A30000F901F901895883109F487C0803241F794
:104A400080939D0514C0803409F49CC040F48033E9
:104A5000B9F38833E9F680939D05ABDFD9CF803574
:104A600009F484C0883509F495C0883489F697DF45
:104A7000CFCF883909F48CC038F5883729F050F445
:104A8000883611F0803721F683E080930A06109271
:104A90009E0557C0883809F47BC0803919F08038EA
:104AA00009F0B6CF80919E05803208F071C0E09188
:104AB0009E0581E08E0F80939E058091BB00F0E003
:104AC000E156FA4F80833DC0803B39F0E0F4803AF4
:104AD00009F479C0883A09F09BCF84E080930A06F4
:104AE0001092C0051092BF05E0910506F0910606F0
:104AF00019958091BF0581110FC081E08093BF059A
:104B00001092C10509C0803C09F475C0883C09F4C5
:104B100072C0883B09F07CCFE091C00581E08E0F28
:104B20008093C005F0E0EF53FA4F80818093BB0083
:104B30009091C0058091BF0529C08091090680939E
:104B4000BB0085EC8093BC0063CF9091E20580911F
:104B5000E105981758F5E091E20581E08E0F80930A
:104B6000E205F0E0ED51FA4F8081E9CFE091E205F6
:104B700081E08E0F8093E2058091BB00F0E0ED5163
:104B8000FA4F80839091E2058091E1059817C8F271
:104B900085E8D8CFE091E20581E08E0F8093E205B1
:104BA0008091BB00F0E0ED51FA4F808380910806C0
:104BB00081115DCF81E08093070684EA8093BC0079
:104BC00010920A0625CFF5DE80919E05803230F4E2
:104BD000E0919E05F0E0E156FA4F108260919E054B
:104BE00070E0E0910306F09104068FE995E01995D5
:104BF00010929E050DCF85ECE1CF10929D0537CF29
:104C00000F931F93CF93DF93EC01062F142F89810D
:104C1000FFDC602F8BE096E068DE612F8BE096E092
:104C200064DE8BE096E037DE8883DF91CF911F91C1
:104C30000F9108951F93CF93DF93EC01162F462F0A
:104C40004F776AE8DDDF1983DF91CF911F910895D7
:104C5000FF920F931F93CF93DF93EC01F62E142F47
:104C6000052F8981D5DC6F2D8BE096E03EDE602F2D
:104C70008BE096E03ADE612F8BE096E036DE8BE04B
:104C800096E009DE8883DF91CF911F910F91FF900D
:104C90000895CF92DF92EF92FF921F93CF93DF930D
:104CA000EC01162F69017A018981B2DC612F8BE05A
:104CB00096E01BDE6F2D7727882799278BE096E0FB
:104CC00014DEB701882799278BE096E00EDE99273E
:104CD0008F2D7E2D6D2D8BE096E007DE6C2D8BE009
:104CE00096E003DE8BE096E0D6DD8883DF91CF91FE
:104CF0001F91FF90EF90DF90CF9008951F93CF9377
:104D0000DF93EC01162F898183DC612F8BE096E025
:104D1000ECDD8BE096E0BFDD888341E069818BE0CC
:104D200096E0B7DD8BE096E050DCDF91CF911F91EC
:104D300008951F93CF93DF93EC01162F898168DCD0
:104D4000612F8BE096E0D1DD8BE096E0A4DD8883D7
:104D500042E069818BE096E09CDD8BE096E035DCFB
:104D6000D82F80E0C82F8BE096E02FDC8C2B9D2B7A
:104D7000DF91CF911F910895DF92EF92FF920F93F1
:104D80001F93CF93DF937C01C62FD42E052F122FB4
:104D9000FC0181813DDC6C2F8BE096E0A6DDCD2D02
:104DA000D02F115028F069918BE096E09EDDF9CF6D
:104DB0008BE096E070DDF7018083DF91CF911F914A
:104DC0000F91FF90EF90DF900895EF92FF920F9375
:104DD0001F93CF93DF93EC01E62EF42E052F122FB5
:104DE000898116DC6E2D8BE096E07FDD8BE096E00E
:104DF00052DD8883412F69818BE096E04ADDCF2D1B
:104E0000D02F115028F08BE096E0DFDB8993F9CFAB
:104E1000DF91CF911F910F91FF90EF900895611551
:104E2000710529F460E56ADF8F5F880F08956130AE
:104E3000710511F460E7F7CF8FEF0895CF92DF92FD
:104E4000EF92FF92CF93DF93EC016A017B0141E087
:104E500060E8D6DE41E06FEFCE01D2DE40E060E0F8
:104E6000CE01CEDE4F8161E9CE01CADE41E060E0D5
:104E7000CE01C6DE40E06FEFCE01C2DE40E060E86A
:104E8000CE01BEDE42E0C114D104E104F10491F090
:104E900068EFCE014EDF009739F0DC01A7019601E3
:104EA0000E944F376B017C01A701960164E0CE019F
:104EB000F0DE44E060E0CE01DF91CF91FF90EF9013
:104EC000DF90CF909DCE0F931F93CF93DF93EC0194
:104ED0000E94F1317E836D8363E1CE010FDF877025
:104EE000C9F48A819B81892BB9F30E94F1312D810C
:104EF0003E81621B730B8A819B818617970760F73F
:104F000081E08C830FEF1FEFC801DF91CF911F91DC
:104F10000F9108956EE1CE010CDF8C0141E06BE052
:104F2000CE016EDEF1CFEF92FF920F931F93CF93DE
:104F3000DF93EC017B018A0141E060E861DE41E042
:104F40006FEFCE015DDE40E060E0CE0159DE46E06D
:104F50006FEFCE0155DE63E8CE01D0DE482F44600E
:104F600063E8CE014DDE47E06FEFCE0149DE41E060
:104F700061E8CE0145DE41E060E8CE0141DE4BE66E
:104F800064E9CE013DDE40E063E8CE0139DE0E94F7
:104F9000F1317E836D8363E8CE01B0DE811111C0F3
:104FA0008A819B81892BB9F30E94F1312D813E8149
:104FB000621B730B8A819B818617970760F780E0DD
:104FC00031C041E063E8CE011BDE62E9CE0196DE2E
:104FD000982F9F77F7019083881F8827881FF801F3
:104FE000808340E061E8CE010BDE46E06FEFCE014A
:104FF00007DE63E8CE0182DE482F4B7F63E8CE01F7
:10500000FFDD41E06FEFCE01FBDD41E060E0CE016E
:10501000F7DD40E06FEFCE01F3DD40E060E8CE0168
:10502000EFDD81E0DF91CF911F910F91FF90EF9025
:105030000895CF93DF93EB0161E060DE84FB992755
:1050400090F9988383FB992790F99A8382FB99279B
:1050500090F9998386FB992790F99B83881F88276D
:10506000881F8C83DF91CF9108959C013327A9017C
:1050700002C0440F551F9A95E2F7CA0101960895A0
:105080000F931F930097B9F00197B0E0A0E050E0B4
:1050900040E08C019D010027012B022B032B39F0EE
:1050A000B695A795979587954F5F5F4FF2CF342FB1
:1050B0002227822B932B1F910F9108954F925F927D
:1050C0006F927F928F929F92AF92BF92CF92DF9218
:1050D000EF92FF925C01A62FB0E020E03FE24AE3AE
:1050E00050E00E944F376B017C0124EFC20E21E09B
:1050F000D21EE11CF11C88EE482E83E0582E612C54
:10510000712CC701B601A30192010E942537D50178
:105110000E944F374B015C01C701B60120ED37E01B
:1051200040E050E00E942537C501B401620F731FB3
:10513000841F951FA30192010E942537CA01B9015E
:10514000FF90EF90DF90CF90BF90AF909F908F90A7
:105150007F906F905F904F900895EF92FF920F9322
:105160001F93CF93DF938C017B01EA0170E060E035
:1051700056DE90E09983888366E4C801BFDD90E045
:1051800001969D838C83688199DF6A877B878C87F2
:105190009D8761E5C801CDDD68DF9F838E836881CF
:1051A0008DDF6E877F87888B998B60E7C801A6DDCE
:1051B0008F5F880F90E09B838A8361E7C801B9DD28
:1051C00054DF99878887F7012381222331F02E81CC
:1051D0003F81821B930B998788876A81888599858F
:1051E0006DDF6A8B7B8B8C8B9D8BDF91CF911F91B9
:1051F0000F91FF90EF900895CF92DF92EF92FF9280
:105200000F931F93CF93DF93CDB7DEB76B970FB696
:10521000F894DEBF0FBECDBF8C01BE01695E7F4F2B
:1052200008DFAE014F5F5F4FBE01695E7F4FC8016F
:1052300094DF8F89882309F454C06B857C858D8524
:105240009E856C57724F8F4F9F4F298D222309F4F3
:105250004DC0CB84DC84ED84FE8422EBC20E22E0C0
:10526000D21EE11CF11CCC0CDD1CEE1CFF1C6C0DD5
:105270007D1D8E1D9F1D2A8D222371F0CF84D8881D
:10528000E988FA88F4E9CF0EF2E0DF1EE11CF11C98
:105290006C0D7D1D8E1D9F1D2B8D222371F0CB88E3
:1052A000DC88ED88FE8826E2C20E22E0D21EE11CD8
:1052B000F11C6C0D7D1D8E1D9F1DF801608771878F
:1052C000828793876B960FB6F894DEBF0FBECDBF73
:1052D000DF91CF911F910F91FF90EF90DF90CF90D2
:1052E000089566E37BE080E090E0AFCF288D222335
:1052F00011F2CB84DC84ED84FE84E4E9CE0EE2E09E
:10530000DE1EE11CF11CB3CF8F929F92AF92BF9231
:10531000CF92DF92EF92FF924B015C01A42FB0E09D
:1053200020E03FE24AE350E00E944F376B017C01EE
:1053300024EFC20E21E0D21EE11CF11CA8EEB3E066
:10534000A50194010E944F374B015C01C701B601D2
:1053500020ED37E040E050E00E942537820E931E9A
:10536000A41EB51EC701B60128EE33E040E050E0B0
:105370000E942537C501B4010E942537CA01B90131
:10538000FF90EF90DF90CF90BF90AF909F908F9065
:1053900008958F929F92AF92BF92CF92DF92EF9239
:1053A000FF920F931F93CF93DF93CDB7DEB76B9729
:1053B0000FB6F894DEBF0FBECDBF40322EE45207C9
:1053C0006105710508F48DC04A015B017C01BE01D5
:1053D000695E7F4F2EDEAE014F5F5F4FBE01695E9B
:1053E0007F4FC701BADE8F8908EE18E020E030E079
:1053F000882341F00B851C852D853E850A5C144F62
:105400002F4F3F4F898D882309F45BC08B859C8586
:10541000AD85BE858E549D4FAF4FBF4F880F991FEE
:10542000AA1FBB1F080F191F2A1F3B1FCA8CCC20A5
:1054300061F08F859889A989BA898C569D4FAF4FA5
:10544000BF4F080F191F2A1F3B1FDB8CDD2009F4FB
:1054500045C00A5D1D4F2F4F3F4F80169106A20693
:10546000B30608F43EC0C501B401601B710B820B8A
:10547000930B4B8149DF9B01CC2021F02F81388594
:10548000260F371FC901FCDDAC0161E7C701E0DB76
:10549000F70180869186A286B3868D2D6B960FB616
:1054A000F894DEBF0FBECDBFDF91CF911F910F915A
:1054B000FF90EF90DF90CF90BF90AF909F908F9034
:1054C0000895888D882309F4B1CF8B859C85AD859F
:1054D000BE858C569D4FAF4FBF4FA4CFDD24D394D4
:1054E000DCCFD12CDACFCF93DF93EC01462F416094
:1054F00060E086DB76D77E836D8363E1CE01FEDBE1
:10550000877081F48A819B81892BB9F36AD72D81B9
:105510003E81621B730B8A819B818617970768F710
:1055200080E009C041E06BE0CE016ADB40E060E072
:10553000CE0166DB81E0DF91CF910895EF92FF927B
:105540000F931F93CF93DF9300D000D01F921F9231
:10555000CDB7DEB78C01662339F069E8CFDB482F81
:10556000416069E8C8014CDB40E068E8C80148DBFD
:1055700041E060E8C80144DB41E06FEFC80140DB77
:1055800040E060E0C8013CDB61E9C801B7DBF8013D
:10559000878341E060E0C80133DB40E06FEFC80182
:1055A0002FDB40E060E8C8012BDB60E6C801A6DB2A
:1055B000482F426160E6C80123DB40E250E064E42A
:1055C000C80146DB4FEF61E0C8011ADBAE01495F5D
:1055D0005F4FBE01685F7F4FC801A5DC81110FC01E
:1055E000F12C8F2D28960FB6F894DEBF0FBECDBFDD
:1055F000DF91CF911F910F91FF90EF90089526E0DA
:10560000AE014F5F5F4F60EBC801DFDB41E06FEF42
:10561000C801F6DA40E06FE4C801F2DA4CE26EE469
:10562000C801EEDA40E06FEFC801EADA44EB66EB5E
:10563000C801E6DA8F81ACE0811101C0A0E0B88535
:1056400080E090E0EE24E394F12C482F46954695B7
:10565000469550E021E030E02C0F3D1F240F351F10
:10566000F9012081682F67708A1710F0B91397C16C
:10567000E1E0F0E0EC0FFD1F4E0F5F1FF70102C0ED
:10568000EE0FFF1F6A95E2F7BF0160952623FA012E
:1056900020838F5F8033C9F626E0AE014F5F5F4FF6
:1056A00060EBC80169DB41E06FEFC801A9DA40E0B7
:1056B00060E0C801A5DA40E06FEFC801A1DA40E080
:1056C00069E0C8019DDA40E060E1C80199DA40E094
:1056D00061E1C80195DA41E064E2C80191DA4FEF77
:1056E00065E2C8018DDA40E065E7C80189DA41E08A
:1056F0006FEFC80185DA4CE26EE4C80181DA40E060
:1057000068E4C8017DDA40E260E3C80179DA40E08C
:105710006FEFC80175DA49E060E3C80171DA40E073
:1057200064E5C8016DDA44E061E3C80169DA43E089
:1057300062E3C80165DA43E860E4C80161DA45E282
:1057400066E4C8015DDA40E060E6C80159DA40E08D
:1057500067E2C80155DA46E060E5C80151DA40E089
:1057600061E5C8014DDA46E962E5C80149DA48E079
:1057700066E5C80145DA40E367E5C80141DA40E083
:1057800061E6C8013DDA40E062E6C80139DA40E08E
:1057900064E6C80135DA40E065E6C80131DA40EA7E
:1057A00066E6C8012DDA41E06FEFC80129DA42E36D
:1057B00062E2C80125DA44E167E4C80121DA4FEF6B
:1057C00069E4C8011DDA40E06AE4C80119DA40E082
:1057D0006FEFC80115DA4AE06AE7C80111DA40E064
:1057E0006BE7C8010DDA41E268E7C80109DA41E078
:1057F0006FEFC80105DA44E363E2C80101DA40E073
:1058000062E4C801FDD94FEF64E4C801F9D946E26A
:1058100065E4C801F5D945E066E4C801F1D940E482
:1058200060E4C801EDD946E06EE0C801E9D94AE17B
:1058300060E2C801E5D940E463E4C801E1D940E091
:105840006FEFC801DDD943E064E3C801D9D944E46E
:1058500065E3C801D5D941E06FEFC801D1D944E073
:1058600061E3C801CDD949E06BE4C801C9D945E07D
:105870006CE4C801C5D944E06DE4C801C1D940E079
:105880006FEFC801BDD940E064E4C801B9D940E276
:1058900065E4C801B5D948E067E4C801B1D948E278
:1058A00068E4C801ADD940E067E6C801A9D944E081
:1058B00060E7C801A5D941E061E7C801A1D94EEF71
:1058C00062E7C8019DD940E066E7C80199D940E088
:1058D00067E7C80195D941E06FEFC80191D941E070
:1058E0006DE0C8018DD940E06FEFC80189D941E072
:1058F00060E8C80185D948EF61E0C80181D941E07D
:105900006FEFC8017DD941E06EE8C80179D941E067
:1059100060E0C80175D940E06FEFC80171D940E07F
:1059200060E8C8016DD944E06AE0C80169D964E85B
:10593000C801E4D9482F4F7E64E8C80161D941E02D
:105940006BE0C8015DD9C80157DCF8016087718739
:105950008287938748EE61E0C80152D9F8014085FB
:10596000518562857385C80114DD41E061E0C8019D
:1059700047D960E4C801B7DD882309F431CE42E09D
:1059800061E0C8013DD960E0C801ADDDF82E882393
:1059900009F426CE48EE61E0C80132D922CE30E0CB
:1059A00002C0359527956A95E2F720FF72CE9F5F7A
:1059B00070CE4F925F926F927F92AF92BF92CF92D2
:1059C000DF92EF92FF920F931F93CF93DF935C01CF
:1059D0008B01FA0120E030E040E85FE360817181F3
:1059E0008281938118D3811142C081E995E06BDAFD
:1059F000BC0190E080E03FD32B013C0185E895E0BD
:105A000062DABC0190E080E036D36B017C01C9E032
:105A1000D0E081E995E057DABC0190E080E02BD33B
:105A2000A301920181D220E030E040E05FE32CD47A
:105A30002B013C0185E895E046DABC0190E080E06E
:105A40001AD3A701960170D220E030E040E05FE376
:105A50001BD46B017C012197E1F6F5014082518254
:105A600062827382F801C082D182E282F382DF9186
:105A7000CF911F910F91FF90EF90DF90CF90BF904B
:105A8000AF907F906F905F904F900895CF93DF938A
:105A9000EA0120E030E040E85FE3688179818A81B3
:105AA0009B81B9D2882309F457C061E08EE1C8D543
:105AB00061E080E2C5D561E082E2C2D561E08EE1BD
:105AC000FBD560E080E2F8D560E082E2F5D58BE0BE
:105AD00096E00E94302369E281E995E0ABD860E06E
