:1000000005C100000C9431310C945C310C948731A3
:100010000C94B2310C94DD310C9408320C943332D0
:100020000C945E3224C1000022C1000020C10000F7
:100030001EC100001CC100001AC1000018C1000050
:1000400016C1000014C1000012C1000010C1000060
:100050000EC100000CC100000AC100000C948932DE
:1000600006C100000C945D360C94933600C100006C
:10007000FEC00000FCC00000FAC00000F8C0000094
:10008000F6C00000F4C00000F2C00000F0C00000A4
:100090000C94E9360C941F37EAC00000E8C0000059
:1000A000E6C00000E4C00000E2C00000E0C00000C4
:1000B000DEC00000DCC00000DAC00000D8C00000D4
:1000C000D6C00000D4C000000C945E2D0C9475378F
:1000D0000C94AB37CCC000000C9401380C9437382A
:1000E000C6C0000000000A0B02090C0D0E08070331
:1000F00004010000000000000000000000000000FB
:1001000000000000000000000000000000000000EF
:1001100012111000000000000000000000000000AC
:100120000000000000000000000001021020200874
:100130000810204010204080020102010804020142
:1001400001020408102040808040201008040201B1
:10015000800402018040201008040201080402010A
:100160000102040810204080010204081020408091
:1001700005050505070508080808020202020A0A23
:100180000808040404040101010101010101030341
:10019000030303030303040707070C0C0C0C0C0CEC
:1001A0000C0C0202020206060606060606060B0BE9
:1001B0000B0B0B0B0B0B000020002300260029006B
:1001C0002C002F003200000100000301060109018C
:1001D00000002200250028002B002E0031003400F2
:1001E00002010000050108010B01000021002400AC
:1001F00027002A002D003000330001010000040117
:1002000007010A01BC364837D437603811241FBEB5
:10021000CFEFD1E2DEBFCDBF00E00CBF13E0A0E026
:10022000B2E0E6E6F2E700E00BBF02C007900D92F5
:10023000A431B107D9F72BE0A4E1B3E001C01D92CE
:10024000A630B207E1F711E0C6E0D1E000E006C059
:1002500021970109802FFE010E940039C230D10789
:1002600080E00807A9F70E947A2E0C943139C8CE95
:10027000FC01A781B0858C9191858923A481B581EA
:100280009C9140815181628173812681922359F032
:1002900081110BC04F5F5F4F6F4F7F4F4083518382
:1002A0006283738308958111F5CF4150510961092B
:1002B0007109F4CF85E193E0DBCF80E293E0D8CF02
:1002C0008BE293E0D5CF86E393E0D2CFFC01A4810B
:1002D000B5818C9196818923A781B0859C914081BD
:1002E0005181628173812185922359F0882359F0CD
:1002F0004F5F5F4F6F4F7F4F4083518362837383A4
:1003000008958823A9F34150510961097109F4CF77
:1003100085E193E0DBCF80E293E0D8CF8BE293E0FE
:10032000D5CF86E393E0D2CF0F931F93CF93DF9384
:10033000D82FC62F8A01A09114038BE0A89FD0016B
:100340001124AB5EBC4F1D921D921D921C921397FF
:1003500081E01A968C931A978D2F90E0FC01E65D50
:10036000FE4FE4911696EC931697FC01E059FE4F70
:10037000E491F0E0EE0FFF1FEA54FE4F8591949157
:1003800015969C938E931497862F90E0FC01E65D62
:10039000FE4FE4911996EC931997FC01E059FE4F3A
:1003A000E491F0E0EE0FFF1FEA54FE4F8591949127
:1003B00018969C938E93179760E08D2F0E94CA34F5
:1003C00060E08C2F0E94CA3480911403813009F4BC
:1003D0003FC0A8F0823009F462C0833009F486C0BF
:1003E0008091140391E0980F90931403F801808397
:1003F00090E080E0DF91CF911F910F91089580E010
:10040000D23049F081E0D33031F08EEE8D0F843060
:10041000D8F487E18D1B41E050E06AE571E00E946D
:10042000B73080E0C23049F081E0C33031F08EEE69
:100430008C0F843058F487E18C1B41E050E068E871
:1004400071E00E94B730CCCF8FEFE5CF8FEFF5CFC3
:1004500080E0D23049F081E0D33031F08EEE8D0F64
:100460008430C8F487E18D1B41E050E06DE571E018
:100470000E94B73080E0C23049F081E0C33031F0F3
:100480008EEE8C0F843048F487E18C1B41E050E005
:100490006BE871E0D6CF8FEFE7CF8FEFF7CF80E03B
:1004A000D23049F081E0D33031F08EEE8D0F8430C0
:1004B000C8F487E18D1B41E050E060E671E00E94E6
:1004C000B73080E0C23049F081E0C33031F08EEEC9
:1004D0008C0F843048F487E18C1B41E050E06EE8DB
:1004E00071E0AFCF8FEFE7CF8FEFF7CF80E0D23063
:1004F00049F081E0D33031F08EEE8D0F8430C8F4B6
:1005000087E18D1B41E050E063E671E00E94B73067
:1005100080E0C23049F081E0C33031F08EEE8C0FC4
:10052000843048F487E18C1B41E050E061E971E0E0
:1005300088CF8FEFE7CF8FEFF7CF9BE0899FF00158
:100540001124EB5EFC4F80819181A281B381FB017C
:1005500080839183A283B38390E080E008959BE041
:10056000899FF0011124EB5EFC4F108211821282F0
:10057000138290E080E0089590E080E00895CF92AB
:10058000DF92EF92FF92CF93882351F16A017B01B2
:10059000CFEFC80F20E030E0A901CB01B6010E94E7
:1005A000682F18168CF0C701B60190580E94712F61
:1005B0009B01AC016C2F70E090E080E0CF91FF9048
:1005C000EF90DF90CF90B2C0C701B6010E946C2FB0
:1005D0008C2FCF91FF90EF90DF90CF900C949033C1
:1005E000CF91FF90EF90DF90CF9008950F931F93DE
:1005F0008B019C0183E036952795179507958A9581
:10060000D1F70F5B1C4F462F477021E030E0F90116
:1006100002C0EE0FFF1F4A95E2F7AF01F8012081FB
:100620002423CB010196211102C090E080E01F91AC
:100630000F9108950F931F938B019C0183E03695D2
:100640002795179507958A95D1F7677081E090E017
:1006500001C0880F6A95EAF7F801EF5BFC4F208133
:10066000452B31F48095822380831F910F9108954B
:10067000822BFACF2F923F924F925F926F927F928E
:100680008F929F92AF92BF92CF92DF92EF92FF92A2
:100690000F931F93CF93DF93D62EC72E782E692EFC
:1006A00049015A01280161E08D2D0E94CA34CD2DE7
:1006B000DC2D8E010F5F1F4FA8016D2D7C2D872D26
:1006C000962DB8DF20E030E0A901C201B7010E94F9
:1006D0004F30181664F4C201B7010E94712F2B012C
:1006E000C501B4010E94712FA201CE0123D0C8011F
:1006F000DF91CF911F910F91FF90EF90DF90CF90FE
:10070000BF90AF909F908F907F906F905F904F9031
:100710003F902F900895882341F08150682F70E01A
:1007200090E080E050E040E085CF0895862FB90149
:100730000C9490339C01FC01EC51FF4FE491E1508B
:10074000E231E0F4F0E08827E755FC4F8F4F0C943E
:100750000039BB03C203C503DC03F103BE03060477
:10076000120416042D04420457046E048304BE03CD
:100770009804AF04C40484B5806884BD60E0822F0F
:100780000C94063584B58062F8CF809180008C7F10
:1007900082608093800080918100807E8061682BE0
:1007A0006093810050938700409386008091800081
:1007B000806880938000E2CF809180008C7F82608F
:1007C0008093800080918100807E8061682B60939F
:1007D0008100509387004093860080918000806262
:1007E000E8CF809180008C7F826080938000809130
:1007F0008100807E8061682B609381005093870028
:1008000040938600809180008860D3CF8091B000B3
:1008100080688093B0008091B100887F682B6093DE
:10082000B100ACCF8091B0008062F3CF8091900096
:100830008C7F82608093900080919100807E8061A7
:10084000682B60939100509397004093960080919D
:10085000900080688093900091CF809190008C7F71
:1008600082608093900080919100807E8061682BEF
:100870006093910050939700409396008091900070
:100880008062E8CF809190008C7F8260809390009E
:1008900080919100807E8061682B609391005093DD
:1008A000970040939600809190008860D3CF80910C
:1008B000A0008C7F82608093A0008091A100807E48
:1008C0008061682B6093A1005093A7004093A6001D
:1008D0008091A00080688093A00050CF8091A000FC
:1008E0008C7F82608093A0008091A100807E8061D7
:1008F000682B6093A1005093A7004093A6008091BD
:10090000A0008062E8CF8091A0008C7F82608093FD
:10091000A0008091A100807E8061682B6093A1007F
:100920005093A7004093A6008091A0008860D3CF89
:10093000809120018C7F8260809320018091210131
:10094000807E8061682B6093210150932701409342
:100950002601809120018068809320010FCF809133
:1009600020018C7F82608093200180912101807E14
:100970008061682B609321015093270140932601E9
:10098000809120018062E8CF809120018C7F82607D
:100990008093200180912101807E8061682B60938B
:1009A0002101509327014093260180912001886006
:1009B000D3CF611102C00C94CA346130E1F362E01C
:1009C000FACF662319F061E00C94063560E0FCCFA5
:1009D00090E080E008950F931F93009709F489C079
:1009E0006115710509F485C0009148021091490212
:1009F00020914A0230914B020E3F1F4F2F4F3F4F25
:100A000009F068C04FEF5FEFBA014093480250937E
:100A1000490260934A0270934B0240914802509100
:100A2000490260914A0270914B02DC011296ED91ED
:100A3000FC9180819181A281B3818093C4039093C2
:100A4000C503A093C603B093C70384819581A68193
:100A5000B7818093C0039093C103A093C203B09366
:100A6000C30380859185A285B3858093BC03909351
:100A7000BD03A093BE03B093BF0384859585A6856F
:100A8000B7858093B8039093B903A093BA03B0934A
:100A9000BB031092B4031092B5031092B6031092E8
:100AA000B7030E94441189E691E190934B03809330
:100AB0004A0390934D0380934C030E943310009798
:100AC00031F421E030E03093C9032093C8031F9133
:100AD0000F910895009148021091490220914A0215
:100AE00030914B02DB010D931D932D933C93139793
:100AF00094CF8FEF9FEFEBCF8F929F92AF92BF92E9
:100B0000CF92DF92EF92FF921F93CF93DF934B012F
:100B10005C011091CB0382E090E09093C903809335
:100B2000C80381149104A104B10441F48091CB0362
:100B3000811104C08091CA03C1E08111C0E0C12CC1
:100B4000D12C76018091CB03811106C08091CA031C
:100B5000811102C0CC23D9F083E090E09093C903C7
:100B60008093C803CC2381F1CCE9DFEF111102C0DF
:100B70000E94CD14CE01DF91CF911F91FF90EF9095
:100B8000DF90CF90BF90AF909F908F9008956AE0D4
:100B900070E080E090E00E94F83280E1C80E87E2C9
:100BA000D81EE11CF11C8FEF88169806A806B8061F
:100BB00031F0C1E08C149D04AE04BF0408F0C0E025
:100BC00080E00E946710BECFD0E0C0E0CFCFCF92D0
:100BD000DF92EF92FF920F931F93CF93DF938F3F9C
:100BE000910511F008F051C02091C8033091C9035C
:100BF0002330310539F02091C8033091C9032130E9
:100C0000310531F424E030E03093C9032093C80368
:100C10006A017B01EC0182309105A8F011E0AE0180
:100C2000C701B6010E943210AB01BC01CE011123F5
:100C3000F9F0DF91CF911F910F91FF90EF90DF902E
:100C4000CF900C94F6168C01000F111F065B1C4F01
:100C5000D8018D919C91892B09F30E94001702976E
:100C6000E9F6D801ED91FC91CE011995182FD7CF57
:100C70000E94181790E080E0DF91CF911F910F91B3
:100C8000FF90EF90DF90CF9008958FEF9FEFF4CF1C
:100C900080E00C946710CF93DF9386E090E0909310
:100CA000C9038093C8030E94C010EC01EAE4F3E09A
:100CB00084E0DF011D928A95E9F70E946514109285
:100CC000C9031092C803CE01DF91CF91089580919E
:100CD000CA0308958091B303089560934802709306
:100CE000490280934A0290934B0290E080E008957D
:100CF0002F923F924F925F926F927F928F929F922C
:100D0000AF92BF92CF92DF92EF92FF920F931F9319
:100D1000CF93DF93CDB7DEB7CB54D1090FB6F8949C
:100D2000DEBF0FBECDBF26967FAF6EAF269728964B
:100D30005FAF4EAF28973E8B2D8B2C96FFAEEEAE5D
:100D40002C97FB01E150F04CEE0FFF1FEE0FFF1F41
:100D5000E80FF91F80809180A280B3808F8A988EDF
:100D6000A98EBA8EB501A401442777FD4395552776
:100D70006627772729964FAF2997F901E150F04C64
:100D8000EE0FFF1FEE0FFF1F2896AEACBFAC2897EB
:100D9000EA0DFB1DC080D180E280F380CB8EDC8E1B
:100DA000ED8EFE8EB701A601442777FD43955527AA
:100DB000662777272A964FAF2A97188B0F87F80157
:100DC00030E020E02C96EEACFFAC2C972E153F05C2
:100DD0000CF43FC022969FAF8EAF22971A8B098BDF
:100DE000312C212C812C912C540183948D829E8254
:100DF000AF82B88626968EAC9FAC2697281439040D
:100E00007CF129969FAC29972A96AFAC2A9730E0BF
:100E100020E041E050E060E070E09A10F5C1C55B71
:100E2000DF4F0FB6F894DEBF0FBECDBFDF91CF917D
:100E30001F910F91FF90EF90DF90CF90BF90AF90F8
:100E40009F908F907F906F905F904F903F902F90EA
:100E5000089511921192119211922F5F3F4FB2CFCC
:100E60002296EEADFFAD229781919191A191B19122
:100E70002296FFAFEEAF22978F88988CA98CBA8C00
:100E8000B7FE23C04D815E816F8178854150510945
:100E9000610971095A016B01A81AB90ACA0ADB0A69
:100EA000D601C50121E0CD80DE80EF80F8848C156D
:100EB0009D05AE05BF0508F020E0822E912CB12CD7
:100EC000A12C8D829E82AF82B8865D01CC24DD2468
:100ED000A8A2B9A2CAA2DBA29C01AD014427552752
:100EE0002CA33DA34EA35FA32C96EEADFFAD2C9794
:100EF000E219F3098D889E888E169F060CF4F40182
:100F00002896AEACBFAC28972496BFAEAEAE249761
:100F1000C988DA88DC8ACB8A1E861D86812C912CB2
:100F20005401839489869A86AB86BC86812C912C49
:100F30005401CD84DE84CE16DF0604F1F7FF02C033
:100F4000F0E0E0E0E20DF31D2C96EEACFFAC2C9748
:100F5000EE15FF0554F4EE0FFF1FEE0FFF1FE00F1D
:100F6000F11F80829182A282B3822FEF221A320A6D
:100F7000E989FA893496FA8BE98B3CCF2496AEAD99
:100F8000BFAD2497CD90DD90ED90FD902496BFAF3E
:100F9000AEAF24972B8D3C8D4D8D5E8D57FF22C0BB
:100FA00089859A85AB85BC850197A109B109AC01FA
:100FB000BD014C195D096E097F096A017B0181E061
:100FC00029853A854B855C85C216D306E406F5066D
:100FD00008F080E0482F50E070E060E049875A87D1
:100FE0006B877C87B7018827992768A779A78AA785
:100FF0009BA7EE24FF2428A139A14AA15BA1C70128
:10100000B6010E94BB382B013C012CA13DA14EA191
:101010005FA168A579A58AA59BA50E94BB386CA78E
:101020007DA78EA79FA7AB89BC894D915D916D91DE
:101030007D91BC8BAB8BDB01CA01880D991DAA1D6C
:10104000BB1D89839A83AB83BC8391E09F8F2981E9
:101050003A814B815C81281539054A055B0508F00A
:101060001F8E2CA13DA14EA15FA1C701B6010E9418
:10107000BB386B017C0189809A80AB80BC808C0C72
:101080009D1CAE1CBF1C89829A82AB82BC8252011D
:101090009924882488AA99AAAAAABBAA29813A8154
:1010A0004B815C81280D391D4A1D5B1D2CAB3DAB6E
:1010B0004EAB5FAB8CA49DA4AEA4BFA454019924F5
:1010C000882488AE99AEAAAEBBAE280D391D4A1D44
:1010D0005B1D2CAF3DAF4EAF5FAFAB89BC891497A2
:1010E0002D933D934D935C93139728A139A14AA169
:1010F0005BA168A579A58AA59BA50E94BB389F8C9A
:10110000690D711D811D911D230166247724460EF2
:10111000571E681E791E2CA53DA54EA55FA54A0148
:10112000AA24BB24840C951CA61CB71C81E090E06B
:10113000A0E0B0E049815A816B817C814C155D054E
:101140006E057F0518F080E090E0DC01880D991DA8
:10115000AA1DBB1D41E050E060E070E088A899A89E
:10116000AAA8BBA8CCA8DDA8EEA8FFA8C814D904DB
:10117000EA04FB0418F040E050E0BA01840F951F28
:10118000A61FB71F812C912C54018394C8ACD9ACF5
:10119000EAACFBAC2CAD3DAD4EAD5FAD2C153D05C5
:1011A0004E055F0518F0812C912C5401880E991E74
:1011B000AA1EBB1E4D855E854F5F5F4F5E874D87C4
:1011C000B8CEEF85F889C190D190E190F190F88B7D
:1011D000EF87DB01CA010197A109B1098C199D09AB
:1011E000AE09BF09349780839183A283B383E1E082
:1011F00084179507A607B70708F0E0E04E2F50E0E8
:1012000070E060E02F5F3F4F2C968EAC9FAC2C9728
:1012100028153905B4F203CE2F923F924F925F9278
:101220006F927F928F929F92AF92BF92CF92DF92F6
:10123000EF92FF920F931F93CF93DF9379011B01DE
:10124000DA01D0E0C0E040E050E0BA01CE15DF05A1
:101250009CF0DF91CF911F910F91FF90EF90DF9065
:10126000CF90BF90AF909F908F907F906F905F9046
:101270004F903F902F900895FC0181909190A19004
:10128000B190CF01F10101911191219131911F0193
:1012900024013501401A510A620A730A930182013E
:1012A000041B150B260B370B0D931D932D933D93AC
:1012B00066246394712CC12CD12C452B462B472BD3
:1012C00039F0081519052A053B0538F4612C05C0CD
:1012D00080169106A206B306C8F7A301B6012196AF
:1012E000B5CF4F925F926F927F928F929F92AF9203
:1012F000BF92CF92DF92EF92FF920F931F93CF9303
:10130000DF93CDB7DEB760970FB6F894DEBF0FBEA0
:10131000CDBFC0900802D0900902E0900A02F09080
:101320000B02A701960160916D0A70916E0A80917F
:101330006F0A9091700A0E94682F882341F0C09232
:101340006D0AD0926E0AE0926F0AF092700A809154
:101350006C0A811110926C0A6EEF7AE08091710A2A
:10136000ECD8C0900C02D0900D02E0900E02F090EC
:101370000F02A70196016091610A7091620A809143
:10138000630A9091640A0E94682F882341F0C092FA
:10139000610AD092620AE092630AF092640A809134
:1013A000600A81111092600A6AEF7AE08091650A02
:1013B000C4D88091FE0A9091FF0AA091000BB091D1
:1013C000010B8093F20A9093F30AA093F40AB0936E
:1013D000F50A4091FA0A5091FB0A6091FC0A70915B
:1013E000FD0A4093F60A5093F70A6093F80A709347
:1013F000F90A409144025091450260914602709171
:10140000470249875A876B877C878D879E87AF877E
:10141000B88B42E0E42EF12C8E010F5F1F4F21E0CC
:1014200030E0AE01435F5F4F61E070E0CE010996AE
:101430005FDC88E0F801AEECBAE001900D928A958D
:10144000E1F722E030E04EEB5AE062EA7AE0C801D0
:10145000E3DE8091F60A9091F70AA091F80AB09124
:10146000F90A8D879E87AF87B88B21E030E0AE0107
:10147000435F5F4F61E070E0CE01099639DC88E0A0
:10148000F801A6EDBAE001900D928A95E1F722E00D
:1014900030E046EC5AE06AEA7AE0C801BDDE6091CD
:1014A00018027091190280911A0290911B026093A8
:1014B000DE0A7093DF0A8093E00A9093E10A20919C
:1014C0001C0230911D0240911E0250911F020E9489
:1014D00053305B018C01CB01D8018093E60A9093D5
:1014E000E70AA093E80AB093E90AC0902002D090DE
:1014F0002102E0902202F0902302A7019601B5019B
:10150000C8010E944F30181694F0C0902402D09069
:101510002502E0902602F0902702A7019601B5016E
:10152000C8010E94682F87FD02C065017801E89418
:10153000F7F8C092E20AD092E30AE092E40AF0924D
:10154000E50A69E070E080E090E050D88C0190936B
:10155000890A8093880AC090E20AD090E30AE0905A
:10156000E40AF090E50A20E030E04FE753E4C701D9
:10157000B6010E94682F18160CF44DC020E030E030
:10158000A901C701B6010E944F3087FF03C0C12CDB
:10159000D12C7601B701A601C8010E94BF0211E05B
:1015A00020911402309115024091160250911702B9
:1015B0006091E60A7091E70A8091E80A9091E90A41
:1015C0000E94682F811101C010E01093020B612F5F
:1015D00088E0F7D98090E60A9090E70AA090E80AA0
:1015E000B090E90AC0902802D0902902E0902A0227
:1015F000F0902B02A7019601C501B4010E944F3063
:10160000181684F4C092E60AD092E70AE092E80A3B
:10161000F092E90A17C0C12CD12C3FE7E32E33E446
:10162000F32EB8CFC0902C02D0902D02E0902E0265
:10163000F0902F02A7019601C501B4010E94682F06
:1016400087FDE0CF6AE070E080E090E00E94F60263
:101650008C019093910A8093900AC090E60AD090F2
:10166000E70AE090E80AF090E90A20E030E04FE76E
:1016700053E4C701B6010E94682F18160CF4C3C0CA
:1016800020E030E0A901C701B6010E944F3087FF7A
:1016900003C0C12CD12C7601B701A601C8010E945C
:1016A000BF022091DE0A3091DF0A4091E00A50919A
:1016B000E10A609130027091310280913202909182
:1016C00033020E9453309B01AC012093EE0A309309
:1016D000EF0A4093F00A5093F10A11E06091100272
:1016E0007091110280911202909113020E94682F52
:1016F000811101C010E01093030B612F8DE061D9BF
:10170000A090EE0AB090EF0A0091F00A1091F10A51
:10171000C0903402D0903502E0903602F09037024B
:10172000A7019601B501C8010E944F30181694F028
:10173000C0903802D0903902E0903A02F0903B021B
:10174000A7019601B501C8010E94682F87FD02C05C
:1017500065017801E894F7F8C092EA0AD092EB0AA2
:10176000E092EC0AF092ED0A6BE070E080E090E02D
:101770000E94F6028C019093790A8093780AC090B7
:10178000EA0AD090EB0AE090EC0AF090ED0A20E033
:1017900030E04FE753E4C701B6010E94682F1816E6
:1017A000CCF120E030E0A901C701B6010E944F3022
:1017B00087FF03C0C12CD12C7601B701A601C80157
:1017C0000E94BF028090EE0A9090EF0AA090F00A6B
:1017D000B090F10AC0903C02D0903D02E0903E02F1
:1017E000F0903F02A7019601C501B4010E944F305D
:1017F0001816BCF4C092EE0AD092EF0AE092F00AFA
:10180000F092F10A1EC0C12CD12C2FE7E22E23E466
:10181000F22E42CFC12CD12C9FE7E92E93E4F92E72
:10182000CCCFC0904002D0904102E0904202F090B4
:101830004302A7019601C501B4010E94682F87FDEC
:10184000D9CF6CE070E080E090E00E94F6028C015D
:101850009093810A8093800AC090EE0AD090EF0A9C
:10186000E090F00AF090F10A20E030E04FE753E416
:10187000C701B6010E94682F18160CF49BC020E027
:1018800030E0A901C701B6010E944F3087FF03C0B5
:10189000C12CD12C7601B701A601C8010E94BF025C
:1018A00088E0EEECFAE0A2EABAE001900D928A95A7
:1018B000E1F788E0E6EDFAE0AAEABAE001900D92DD
:1018C0008A95E1F7C0908603D0908703E090880363
:1018D000F09089038FEFC81AD80AE80AF80AC09274
:1018E0008603D0928703E0928803F0928903C114A3
:1018F000D104E104F10499F480918A0390918B035F
:10190000A0918C03B0918D030196A11DB11D809310
:101910008A0390938B03A0938C03B0938D038090E4
:101920008E0390908F03A0909003B09091036091EC
:101930008A0370918B0380918C0390918D030E9498
:101940009D2FA50194010E94533020E030E040E833
:101950005FE40E9453302B013C01C701B6010E9495
:101960009D2FA50194010E9453309B01AC01C3013E
:10197000B2010E94042F60938203709383038093CB
:1019800084039093850360960FB6F894DEBF0FBE74
:10199000CDBFDF91CF911F910F91FF90EF90DF901E
:1019A000CF90BF90AF909F908F907F906F905F90FF
:1019B0004F900895C12CD12C8FE7E82E83E4F82EA8
:1019C0006ACF8F929F92AF92BF92DF92EF92FF9277
:1019D0000F931F93CF93DF93ECE6F3E08BE2DF01ED
:1019E0001D928A95E9F780E090E0A0E2B1E486A339
:1019F00097A3A0A7B1A78DEC9CECACE4BEE382A3B7
:101A000093A3A4A3B5A384ED97EFADEAB8E18483D3
:101A10009583A683B7838FE491E3AFE5B4EF808726
:101A20009187A287B3878AE593E6AEE7BEE784870E
:101A30009587A687B7878FE99CE4ABE5BBE9808BE8
:101A4000918BA28BB38BA0E6B3E0B383A283EEE4C9
:101A5000F3E01196FC93EE9381E892E0918380830A
:101A600093838283958384839783868391878087FA
:101A7000938782879587848797878687918B808BCA
:101A800080E893E015969C938E93149780E793E0FB
:101A900013969C938E93129782E893E017969C93EB
:101AA0008E931697EEEBFAE086E4DF011D928A959D
:101AB000E9F7CAE5DAE084E6FE0111928A95E9F7D2
:101AC000DD24D394D092BD0A00E012E0F8018085B5
:101AD0009185A285B3858B8B9C8BAD8BBE8B812C26
:101AE000912C540183948D869E86AF86B88A41E7F7
:101AF0005AE063E082E00E949401D98A1A8A1B8628
:101B00001882D092BC0AF80184859585A685B78590
:101B10008F839887A987BA8789829A82AB82BC8291
:101B200045E65AE063E182E10E949401DD821E8273
:101B300018A6D092BA0A89A69AA6ABA6BCA6E12C92
:101B4000F12C8701A801970169E070E080E090E046
:101B50000E943A039FA78EA7DDA618AED092B80ABE
:101B600089AE9AAEABAEBCAE61E088E00E94D9040B
:101B7000DDAE18AAD092BB0A89AA9AAAABAABCAABF
:101B8000A80197016AE070E080E090E00E943A03CB
:101B90009FAB8EABDDAA10929A0AD092B90A8092BE
:101BA0009B0A90929C0AA0929D0AB0929E0A61E0C4
:101BB0008DE00E94D904D0929F0A188ED092B60A66
:101BC000898E9A8EAB8EBC8EA80197016BE070E077
:101BD00080E090E00E943A039F8F8E8FDD8E18A2E6
:101BE000D092B70A89A29AA2ABA2BCA2A80197017F
:101BF0006CE070E080E090E00E943A039FA38EA327
:101C0000DDA288E0E0E0F2E0A2EABAE001900D9205
:101C10008A95E1F788E0E0E0F2E0AAEABAE0019014
:101C20000D928A95E1F78F890E94AF028B85DF9133
:101C3000CF911F910F91FF90EF90DF90BF90AF90E9
:101C40009F908F900C94AF028091660A811114C00E
:101C500081E08093660A8091670A9091680AA0915A
:101C6000690AB0916A0A0197A105B10529F480912A
:101C70006B0A81110E94BC0280915A0A811114C022
:101C800081E080935A0A80915B0A90915C0AA0914E
:101C90005D0AB0915E0A0197A105B10529F4809112
:101CA0005F0A81110E94BC028091820A81112EC0BC
:101CB00081E08093820A8091830A9091840AA091A6
:101CC000850AB091860A0197A105B105F9F48091C2
:101CD000870A8823D9F069E070E080E090E00E94F4
:101CE000F6029093890A8093880A40E050E0BA0196
:101CF0000E94BF0269E070E080E090E00E94F6027E
:101D00009093890A8093880A0E948B038091920A9B
:101D1000811103C081E08093920A80918A0A811127
:101D20002EC081E080938A0A80918B0A90918C0A60
:101D3000A0918D0AB0918E0A0197A105B105F9F421
:101D400080918F0A8823D9F06AE070E080E090E00B
:101D50000E94F6029093910A8093900A40E050E02E
:101D6000BA010E94BF026AE070E080E090E00E9449
:101D7000F6029093910A8093900A0E948B038091BF
:101D80009A0A811103C081E080939A0A8091720AB5
:101D900081112EC081E08093720A8091730A909124
:101DA000740AA091750AB091760A0197A105B10550
:101DB000F9F48091770A8823D9F06BE070E080E035
:101DC00090E00E94F6029093790A8093780A40E0AE
:101DD00050E0BA010E94BF026BE070E080E090E04A
:101DE0000E94F6029093790A8093780A0E948B03EE
:101DF00080917A0A81112EC081E080937A0A8091C5
:101E00007B0A90917C0AA0917D0AB0917E0A01978D
:101E1000A105B105F9F480917F0A8823D9F06CE01F
:101E200070E080E090E00E94F6029093810A809337
:101E3000800A40E050E0BA010E94BF026CE070E00E
:101E400080E090E00E94F6029093810A8093800ADD
:101E50000C948B0308954F925F926F927F928F92B2
:101E60009F92AF92BF92CF92DF92EF92FF920F9329
:101E70001F93F8944090A3035090A4036090A5038F
:101E80007090A603C0909703D0909803E0909903B8
:101E9000F0909A03452B09F0A6C09B01AC012419D0
:101EA00035094609570929013A0100919F0310910C
:101EB000A0032091A1033091A20348015901840C91
:101EC000951CA61CB71C80169106A206B306A0F4AA
:101ED00000919B0310919C0320919D0330919E03E0
:101EE0000F5F1F4F2F4F3F4F00939B0310939C0397
:101EF00020939D0330939E0380929F039092A003B2
:101F0000A092A103B092A20300919B0310919C03A5
:101F100020919D0330919E038092A7039092A80385
:101F2000A092A903B092AA030093AB031093AC0351
:101F30002093AD033093AE036093A3037093A40387
:101F40008093A5039093A603A301920160E47DE032
:101F500083E090E00E94BB386C0D7D1D8E1D9F1D9F
:101F600060939703709398038093990390939A03D7
:101F7000009148021091490220914A0230914B028F
:101F80000F3F1F4F2F4F3F4FF1F00091480210912C
:101F9000490220914A0230914B020E3F1F4F2F4FB2
:101FA0003F4F89F0C0904802D0904902E0904A0229
:101FB000F0904B0221E08C149D04AE04BF0408F4A1
:101FC00020E02093B30378941F910F91FF90EF903E
:101FD000DF90CF90BF90AF909F908F907F906F9049
:101FE0005F904F9008954B015C0184189508A608F6
:101FF000B708A3019201261B370B480B590B641538
:10200000750586059705E0F082169306A406B506C9
:1020100040F420E030E0A90181149104A104B1044E
:10202000A1F460E47DE083E090E00E94BB38A7016A
:102030009601261B370B480B590BCA01B901C3CFB8
:1020400082169306A406B50660F7A501940160E424
:102050007DE083E090E00E94BB386C0D7D1D8E1DFD
:102060009F1DB1CFF8CECF93DF9300D01F92CDB795
:10207000DEB71C821B821A8219821092AF03109263
:10208000B0031092B1031092B203BE016F5F7F4F95
:10209000CE0103960E942E2D69817A818B819C81CD
:1020A0000E941C26009761F4BE016F5F7F4FCE0136
:1020B00003960E943A2D69817A818B819C812ED56D
:1020C0000F900F900F900F90DF91CF910895FF9296
:1020D0000F931F93CF93DF93082F60E070E0CB0145
:1020E0000E94F832FF24F3940E940525EC01892B0D
:1020F00089F010E0CE3F8FEFD80769F0002361F13F
:1021000060E070E0CB010E94F83281E090E0892B22
:1021100059F322C011E025D5EC01892B21F0CE3FE7
:102120008FEFD80759F711111EC011E0229609F45C
:1021300010E00E94B524EC01892B21F0CE3F8FEFF7
:10214000D807E1F6111111C011E0CE3F8FEFD8078B
:1021500009F410E001110BC0CE01DF91CF911F9166
:102160000F91FF90089511E0E4CF11E0F3CF60E00C
:1021700070E0CB010E94F8321F25812F90E0C7CF7D
:10218000CF93DF938091B303882321F060E070E068
:10219000CB014CD635D6D0E0C0E0892B71F06AE097
:1021A00070E080E090E00E94F83281E090DF28D675
:1021B0002196C03D27E0D20781F727D60E947026DE
:1021C0001092CB031092CA031092C4031092C5035D
:1021D0001092C6031092C7031092C0031092C1035D
:1021E0001092C2031092C3031092BC031092BD035D
:1021F0001092BE031092BF031092B8031092B9035D
:102200001092BA031092BB031092B4031092B5035C
:102210001092B6031092B7034EEF5FEF6FEF7FEFB0
:10222000409348025093490260934A0270934B02D4
:102230001092B303E7EAF3E028E0DF011D922A954C
:10224000E9F71092A3031092A4031092A503109231
:10225000A60310929F031092A0031092A103109264
:10226000A20310929B0310929C0310929D03109264
:102270009E03109297031092980310929903109264
:102280009A03DF91CF9108951092D7031092D8034B
:102290001092D9031092DA031092D6038091DF03D3
:1022A0009091E0039093D5038093D4031092D303CD
:1022B0001092D2031092CE031092CF031092D0034B
:1022C0001092D1031092DC031092DB0390E080E0C7
:1022D0000895CF92DF92EF92FF920F931F93CF93C7
:1022E0008C01892B09F055C02091DF033091E00368
:1022F0008091D4039091D5034091DF035091E00386
:102300005093D5034093D4032817390781F01092D6
:10231000D3031092D2031092CE031092CF031092E7
:10232000D0031092D1031092DC031092DB03809152
:10233000DF039091E003019761F58091DB039091B9
:10234000DC03892B21F480914C02811112C0809111
:10235000DB039091DC030197E1F48091CE0390912F
:10236000CF03A091D003B091D1030197A105B1058E
:1023700081F41092CE031092CF031092D0031092EA
:10238000D10310924C0282E090E09093DC038093A2
:10239000DB038091DF039091E003019709F01CC1FA
:1023A0008091F5039091F6038017910709F014C10D
:1023B0008091F1039091F203A091F303B091F403A3
:1023C000009709F409C12091F00321110DC040913B
:1023D000F1035091F2036091F3037091F403452BE4
:1023E000462B472B09F4F8C02091DB033091DC0326
:1023F0002230310509F0F0C02091D2032111ECC048
:10240000FC01C080D180E280F3808091D6038823D4
:1024100009F4D3C08091E2039091E303892B09F47E
:10242000FDC02091E2033091E30381E022303105C9
:1024300009F080E02091E2033091E303C1E0213014
:10244000310549F02091E2033091E303C1E02230ED
:10245000310509F0C0E0882309F456C02091EC034F
:102460003091ED034091EE035091EF03C701B601A7
:102470000E944F3087FD14C02091EC033091ED0392
:102480004091EE035091EF036091D7037091D80310
:102490008091D9039091DA030E94682F87FD22C0B2
:1024A0002091EC033091ED034091EE035091EF0346
:1024B000C701B6010E944F30181634F52091EC0385
:1024C0003091ED034091EE035091EF036091D703FB
:1024D0007091D8038091D9039091DA030E94682FFC
:1024E000811112C08091E4039091E503A091E6036D
:1024F000B091E703892B8A2B8B2B19F481E0809311
:10250000D30381E08093D203CC2309F456C02091F9
:10251000EC033091ED034091EE035091EF03C701BE
:10252000B6010E94682F87FF14C02091EC03309100
:10253000ED034091EE035091EF036091D70370914A
:10254000D8038091D9039091DA030E944F3087FF1E
:1025500022C02091EC033091ED034091EE035091A5
:10256000EF03C701B6010E94682F811126C0209198
:10257000EC033091ED034091EE035091EF03609135
:10258000D7037091D8038091D9039091DA030E9408
:102590004F30181694F48091E4039091E503A091D4
:1025A000E603B091E703892B8A2B8B2B19F481E08A
:1025B0008093D30381E08093D20381E09091D20392
:1025C000911180E08093D603C092D703D092D803B4
:1025D000E092D903F092DA03012B09F067C18091F0
:1025E000DB039091DC03892BD9F41092E103109264
:1025F000D20380914C02882379F082E090E090939E
:10260000DC038093DB0310924C022091DF033091B6
:10261000E00381E0232BE9F080E01BC081E00ACFDA
:1026200010924C028091E103882349F01092D30369
:102630001092DC031092DB031092E103EDCF809146
:10264000DF039091E003892BE1F08091D203109297
:10265000D2032091DB033091DC032230310509F4F1
:102660005EC088F42115310509F448C021303105D8
:1026700009F4F3C01092D3031092D2031092E10335
:1026800038C081E0E6CF2330310509F4B1C02430F1
:10269000310581F74091CE035091CF036091D00373
:1026A0007091D103411551056105710561F04150EB
:1026B0005109610971094093CE035093CF03609390
:1026C000D0037093D1034091CE035091CF0360911A
:1026D000D0037091D103452B462B472BD9F4209181
:1026E000DD033091DE032130310509F046C0109240
:1026F000D3031092DC031092DB030CC080914C02D8
:10270000882341F082E090E09093DC038093DB0328
:1027100010924C021092CC038091D303CEC0882338
:10272000C9F38091E4039091E503A091E603B09191
:10273000E703181619061A061B060CF07DC08091D7
:10274000DF039091E003019709F076C08091E403E4
:102750009091E503A091E603B091E7038093CE0347
:102760009093CF03A093D003B093D10383E090E084
:102770009093DC038093DB03CDCF4091E80350912D
:10278000E9036091EA037091EB03452B462B472B3D
:10279000A9F01092D3038091E8039091E903A091EE
:1027A000EA03B091EB038093CE039093CF03A09301
:1027B000D003B093D10381E090E0DACF882399F081
:1027C00080914D0290914E02A0914F02B091500223
:1027D0008093CE039093CF03A093D003B093D10303
:1027E00084E090E0C5CF1092D30382E090E0C0CFA8
:1027F0008091CE039091CF03A091D003B091D103EB
:102800000097A105B10559F00197A109B10980937D
:10281000CE039093CF03A093D003B093D1038091C4
:10282000CE039091CF03A091D003B091D103892B17
:102830008A2B8B2B09F06ECF80914D0290914E0226
:10284000A0914F02B0915002892B8A2B8B2B09F457
:102850004ECF81E08093D303B3CF4091CE0350910C
:10286000CF036091D0037091D103411551056105EB
:10287000710561F041505109610971094093CE031E
:102880005093CF036093D0037093D1034091CE0354
:102890005091CF036091D0037091D103452B462B0B
:1028A000472B09F037CF8111C7CF9FCF8091CC0341
:1028B000882309F431CF8091CD03CF911F910F91DF
:1028C000FF90EF90DF90CF9008951092D703109271
:1028D000D8031092D9031092DA031092D603109203
:1028E000DC031092DB031092D5031092D4031092F4
:1028F000F6031092F5031092D3031092D2031092B4
:10290000CE031092CF031092D0031092D1031092F5
:10291000CD031092CC031092F1031092F2031092A7
:10292000F3031092F4031092F0031092EC03109250
:10293000ED031092EE031092EF0388EE93E0A0E017
:10294000B0E080934D0290934E02A0934F02B0935B
:1029500050021092E8031092E9031092EA031092D9
:10296000EB031092E4031092E5031092E603109239
:10297000E7031092E3031092E20381E080934C029C
:102980001092E1031092E0031092DF031092DE0335
:102990001092DD0390E080E008958091DF03909134
:1029A000E003892B19F580914C02882351F0809126
:1029B000E103811106C081E08093CD038093CC03B5
:1029C00008952091E10330914C0281E090E033239F
:1029D00011F090E080E030E082239323892B21F0F6
:1029E0001092CD0381E0EACF1092CC03089582E0EB
:1029F00090E0FA01918380838FEF9FEF0895CF934A
:102A0000DF93EA01009711F00E9490271982188243
:102A100090E080E0DF91CF910895DB01009719F4F9
:102A20008FEF8C9308952EEF2C93FC013F96EF309F
:102A3000F10508F034C08827EF5DFA4E8F4F0C94F3
:102A400000394D154B1549154715451541154315C9
:102A50003F153D153B1538153415301536154F15F6
:102A600080E311968C93089589E2FBCF82E2F9CF3F
:102A700011961C92089583E2F4CF81E2F2CF81E1B6
:102A8000F0CF87E2EECF8AE2ECCF80E1EACF84E2BA
:102A9000E8CF88E2E6CF86E2E4CF81E3E2CF80E2CE
:102AA000E0CF80910304909104040895909304046E
:102AB0008093030408958091020408959091020484
:102AC000892B809302040895982F90958091020499
:102AD00089238093020408958091010408958091D0
:102AE000FF039091000408956115710559F0FB01F1
:102AF00030E020E070E060E02417350719F0611540
:102B0000710511F0CB010895A081B181A817B90713
:102B100009F4BF012F5F3F4F3696EECF8091050439
:102B200081111CC060D266D29093F8038093F703A2
:102B30000E948E1F0E94A01F9093FC038093FB03B2
:102B40000E941D240E9424249093FA038093F90389
:102B500081E08093050490E080E0089584EF9FEF8A
:102B600008958F929F92AF92BF92CF92DF92EF9291
:102B7000FF920F931F93CF93DF9300D000D000D02C
:102B80001F92CDB7DEB71A86198618861F821E825D
:102B90001D821C821B821A8219828091050407EF14
:102BA0001FEF882309F49CC08E010D5F1F4F9E010B
:102BB0002B5F3F4FAE01495F5F4FBE01675F7F4FA5
:102BC00090E080E00E94A1258C01009721F00596FD
:102BD000029708F0DBC029853A852115310509F4F3
:102BE00002C1ED80FE804B815C81B701640F751FCF
:102BF0008F8198858617970708F4F5C0E20EF31EBB
:102C0000D7019C91903C09F07FC04230510508F4F7
:102C10007BC011968C914091030450910404452B84
:102C200009F49CC0913F08F071C02CE1290F2D30B0
:102C300008F48BC02DE2290F203108F489C0903CA4
:102C400021F48150823008F483C088E3890F8B30EF
:102C500008F481C09DE0C92E95E1D92EE7EFF4E19B
:102C60006D817E81AE014F5F5F4F89859A85199591
:102C70005C01C114D104A1F189809A80811491046E
:102C800079F18B819C818815990508F487C010E043
:102C900000E04B815C8170E060E0C7010E942A394E
:102CA00001151105E9F449815A8169857A858D817B
:102CB0009E81680F791FC501F6011995E980FA8098
:102CC0000D811E812F81388549855A856FEF7FEFF1
:102CD00081E090E00E943C258C01892B09F056C0D0
:102CE000C8012A960FB6F894DEBF0FBECDBFDF91A4
:102CF000CF911F910F91FF90EF90DF90CF90BF90F9
:102D0000AF909F908F90089580E085CF30E020E0D5
:102D1000220F331FF901E950FC4F0190F081E02DA3
:102D2000309709F497CF892F90E01995009709F40F
:102D300091CFDC011296ED91FC9113971496CD90F2
:102D4000DC90309709F08CCF1FC021E030E0E0CF5D
:102D500022E030E0DDCF23E030E0DACFD12CC12C0F
:102D6000EFEFF4E19F3F09F07BCFE091F703F091A3
:102D7000F803309721F4C90104EF1FEF0CC08FEF67
:102D800090E019950097A9F604EF1FEF89859A85C1
:102D9000009709F4A5CF0E949027A2CF0E946B262E
:102DA0008C0189859A850E94902770E060E0C401BB
:102DB0000E94042698878F830E9439259E838D83E5
:102DC0006F8178856115710559F0C8010E941C2931
:102DD0009A87898706EF1FEF892B09F058CF59CFC3
:102DE00008EF1FEF56CF08EF1FEFD0CF209105045B
:102DF000222319F020E00C94A51F87EF9FEF089580
:102E0000809103049091040408950E9429240E9453
:102E10008323F5D0E7EFF3E088E0DF011D928A9588
:102E2000E9F71092050490E080E008950C94E12108
:102E300021E040E050E0BA010C94A51F86E090E04C
:102E4000FA019183808390E080E0089547E050E0AC
:102E500064E872E049CEDF92EF92FF920F931F93E6
:102E6000CF93DF938A01EC01C60FD71FE0900904CE
:102E7000F0900A04D9800E945326D816190678F0DB
:102E800082E090E0F801918380838EEF9FEFDF91E5
:102E9000CF911F910F91FF90EF90DF900895EF2851
:102EA00041F482E090E0F8019183808384EF9FEF0A
:102EB000EECF89818093080490E00196F801918318
:102EC000808390E080E0E3CFCF93DF93EA010E941C
:102ED0009222882321F00E9460260E94932282E0A1
:102EE00090E0998388838BEF9FEFDF91CF910895D6
:102EF000CF93DF93EB0186E0FB0111928A95E9F70E
:102F00008FEF8883D8DD8983E7DD8A83E8DD9D83C1
:102F10008C83DF91CF910895CF93DF93EA010E94D4
:102F20009522811109C082E090E09983888385EF22
:102F30009FEFDF91CF91089590E080E0B7DD81E0D1
:102F400090E09983888390E080E0F3CF0F931F9304
:102F5000CF93DF93EA018C01060F171F0E94952281
:102F600081110BC082E090E09983888385EF9FEF09
:102F7000DF91CF911F910F910895F80181818230E7
:102F800038F082E090E0998388838EEF9FEFF0CF56
:102F900081E090E08BDD88E090E09983888390E089
:102FA00080E0E6CFCF93DF930097D1F4EB01FB01F4
:102FB000329686E0DF011D928A95E9F78FEF8883CC
:102FC00085E089831A820E9453268B830E945226B1
:102FD0009D838C8381E08E838F83DF91CF910895D1
:102FE000DF91CF911ACD86E297E190930704809309
:102FF00006040895809106049091070408951092A4
:1030000007041092060408958091090490910A041F
:103010000895411105C0611571058105910561F0A3
:103020006093090470930A0480930B0490930C043A
:1030300040930D0481E0089580E00895FF920F937E
:103040001F93CF93DF938A01EC01C60FD71FF9803E
:103050000E945326F816190668F082E090E0F80105
:10306000918380838EEF9FEFDF91CF911F910F911E
:10307000FF9008956C817D818E819F814B81C9DF96
:10308000811108C082E090E0F8019183808384EF91
:103090009FEFEACF89818093080490E00196F801C0
:1030A0009183808390E080E0DFCFCF93DF93EA01CC
:1030B000FC01E60FF71F648175818681978143814A
:1030C000A8DF811109C082E090E09983888384EFB2
:1030D0009FEFDF91CF91089581E090E099838883FD
:1030E00090E080E0F6CFE9E0F4E040815181628138
:1030F0007381480F511D611D711D4083518362838F
:1031000073830895CF93C09108044C2F50E06091D1
:10311000090470910A0401960E9421398C2FE3DF83
:1031200010920804CF910895009799F480910904B2
:1031300090910A042FEFFB012083892B59F02091F5
:10314000080430E02F5F3F4F2417350719F4CB01F7
:10315000D9CF63CC0895009799F480910904909198
:103160000A042FEFFB012083892B59F020910804DA
:1031700030E02F5F3F4F2417350719F4CB01C2CF42
:103180004CCC089523E1AC01249FC001259F900DF4
:103190001124E0911204F0911304E80FF91F238128
:1031A00034812250310981E02230310508F080E07D
:1031B00008950F931F93CF93DF9300911404109100
:1031C0001504D0E0C0E080E00C171D0749F491E041
:1031D000811190E0892FDF91CF911F910F91089578
:1031E0008111F5CFCE01CEDF2196EECFA091120452
:1031F000B0911304109729F1209114043091150413
:1032000082179307F0F453E1589F9001599F300DB6
:103210001124A20FB31FED91FC911197309789F003
:1032200012968C91681768F48DE0689FE00DF11D8F
:10323000112480819181892B21F081E092814917AD
:1032400008F080E008959C0143E1429FC001439F44
:10325000900D1124E0911204F0911304E80FF91F6E
:103260008385823091F481E090E0658176814091A0
:103270005102509152026417750711F490E080E0FA
:10328000892B19F081E0232B09F080E00895FC01DF
:10329000A081B1818DE0689FA00DB11D112413960E
:1032A0004D915C9185859685489F9001499F300D91
:1032B000589F300D1124C9010196611103C0478147
:1032C00044FD04960895EF92FF920F931F93CF93BE
:1032D000DF93EA01FC01E60FF71F02811381E4800E
:1032E000F5804F2D6E2DC80181DF81110DC082E068
:1032F00090E0998388838EEF9FEFDF91CF911F91AC
:103300000F91FF90EF900895C8013CDF882339F0BA
:1033100082E090E09983888388EF9FEFEECF10934F
:10332000580200935702E0925902F0925A0281E04B
:1033300090E09983888390E080E0DFCFCF92DF92A6
:10334000EF92FF920F931F93CF93DF937A01EC01DB
:10335000C60FD71FC0905702D09058020091590253
:1033600010915A02412F602FC60140DF811110C019
:1033700082E090E0F701918380838AEF9FEFDF91F5
:10338000CF911F910F91FF90EF90DF90CF90089514
:10339000C601F8DE882341F082E090E0F7019183D6
:1033A000808388EF9FEFEBCF4C815D816E817F81C1
:1033B0009A8189818F3F41F082E090E0F70191830B
:1033C00080838EEF9FEFDBCFE3E1EC9D9001ED9DDD
:1033D000300D1124E0911204F0911304E20FF31F59
:1033E0000190F081E02D2DE0029FE00DF11D1124F0
:1033F0000190F081E02D27E0129FE00DF11D1124D6
:10340000808391838B818283438354836583768316
:103410001F5F10935A0281E090E0F701918380834F
:1034200090E080E0ACCFEF92FF920F931F93CF9389
:10343000DF937A018C01060F171FC0911204D091FF
:103440001304209781F021E030E0F801828193811C
:1034500040911404509115048417950710F030E042
:1034600020E0232B71F482E090E0F70191838083C8
:103470008EEF9FEFDF91CF911F910F91FF90EF9013
:10348000089543E1489F9001499F300D1124C20FD8
:10349000D31F78DE882341F082E090E0F70191832A
:1034A000808388EF9FEFE6CFF801248135812038B3
:1034B0003105C8F687818111D6CF4181842F90E0F4
:1034C0008F7E009741F082E090E0F7019183808346
:1034D00086EF9FEFCFCF4F833E832D8326812887B2
:1034E0001986223010F421E0288721E030E0F7012E
:1034F00031832083BFCF88E090E0FA0191838083FD
:1035000090E080E00895FB018FEF808381E181836B
:103510008FEF9FEF9383828380E890E0958384838D
:10352000168217820895FB018FEF808391E09183CB
:1035300082839383848384E3858381E090E097830F
:1035400086830895DF92EF92FF920F931F93CF939C
:10355000DF93EA01FC01E60FF71F8181813071F0F2
:1035600082E090E0998388838FEF9FEFDF91CF9186
:103570001F910F91FF90EF90DF90089582819381CA
:10358000D4802581E680F780009112041091130405
:103590000115110539F482E090E0998388838CEF5E
:1035A0009FEFE4CF409114045091150484179507C0
:1035B00038F082E090E0998388838EEF9FEFD6CF3A
:1035C000892B39F082E090E09983888386EF9FEF22
:1035D000CDCF8D2D8D7FB1F72130A1F781E0D110B6
:1035E00006C091E0E916F10431F080E004C0E2E0A9
:1035F000EE16F104D0F3882329F390E080E0C2DDD9
:10360000882339F082E090E09983888388EF9FEFE8
:10361000ADCFF801D38681E08487F686E586108AEF
:10362000178681E090E09983888390E080E09ECFC8
:103630004CE050E06EEA72E057CA8F929F92BF92C0
:10364000CF92DF92EF92FF920F931F93CF93DF936E
:10365000EA01FC01E60FF71F828193810481B580A6
:10366000E0911204F0911304309791F482E090E01D
:10367000998388838CEF9FEFDF91CF911F910F91FA
:10368000FF90EF90DF90CF90BF909F908F90089524
:1036900020911404309115048217930738F082E0CA
:1036A00090E0998388838EEF9FEFE6CF23E1289FF8
:1036B0006001299FD00C1124EC0DFD1DE080F180EC
:1036C000E114F10499F28281081748F78DE0089F10
:1036D00080011124E00EF11EF70180819181892B78
:1036E00029F6BB20E1F2F7E0BF9E40011124C4019E
:1036F0000E945727F70191838083E0911204F09193
:103700001304EC0DFD1D0190F081E02DE00FF11F81
:1037100080819181009739F482E090E099838883D9
:103720008DEF9FEFA9CFA40170E060E00E942A39DD
:103730008091120490911304C80ED91EF601808165
:103740009181080F191FF801B28281E090E09983FE
:10375000888390E080E090CFAF92BF92CF92DF92CB
:10376000FF920F931F93CF93DF93EA01FC01E60FC3
:10377000F71F82819381F480009112041091130449
:103780000115110581F482E090E0998388838CEF24
:103790009FEFDF91CF911F910F91FF90DF90CF901E
:1037A000BF90AF90089520911404309115048217B2
:1037B000930738F082E090E0998388838EEF9FEF43
:1037C000E8CF2FEF2F0D2C3FA8F723E1289F6001B2
:1037D000299FD00C11240C0D1D1DF80180819181B1
:1037E000892B89F6FDE0FF9E50011124C5010E943E
:1037F0005727F80191838083E0911204F09113041C
:10380000EC0DFD1D80819181009739F482E090E0FC
:10381000998388838DEF9FEFBCCFA50170E060E0B6
:103820000E942A39E0911204F0911304EC0DFD1D61
:10383000F28281E090E09983888390E080E0A9CFD4
:10384000CF92DF92EF92FF920F931F93CF93DF936C
:10385000860F971FFC0102811381809112049091C1
:103860001304892B81F082E090E0FA019183808338
:103870008CEF9FEFDF91CF911F910F91FF90EF9011
:10388000DF90CF900895C801B0E0A0E00197A109B2
:10389000B1098F3F9F4FA105B10540F082E090E054
:1038A000FA01918380838EEF9FEFE4CF7A0183E169
:1038B000809F6001819FD00C1124C6010E94572770
:1038C000EC01009741F482E090E0F701918380835E
:1038D0008DEF9FEFCFCFA60170E060E00E942A3904
:1038E000D0931304C093120410931504009314048E
:1038F00090E080E02FEF3FEF41E061E070E0801763
:10390000910741F481E090E0F7019183808390E09A
:1039100080E0B0CF3A8B298B1B864C877E876D87E2
:10392000188A1F8601966396EACFEF92FF921F9343
:10393000CF93DF93EC0110E0F12CE12C6A81161794
:10394000B0F083E0689FB0011124AE014F5E5F4F7D
:10395000C7010E94BC27009721F02FEF3FEF3A8B61
:10396000298BDF91CF911F91FF90EF900895612FE8
:10397000CE018DDC61E070E00E940426E816F906B5
:1039800008F47C011F5FDACFF89420911004309185
:10399000110481E02115310509F080E0232B09F0A5
:1039A000789408952F923F924F925F926F927F92F8
:1039B0008F929F92AF92BF92CF92DF92EF92FF923F
:1039C0000F931F93CF93DF933C01660E771EF30195
:1039D000828193814C01B12CA12CC0911204D09111
:1039E0001304209769F021E030E060911404709195
:1039F00015048617970710F030E020E0232BD1F450
:103A000082E090E0FA01918380838EEF9FEFDF9157
:103A1000CF911F910F91FF90EF90DF90CF90BF90CB
:103A2000AF909F908F907F906F905F904F903F905E
:103A30002F90089580925B0290925C02A0925D02AA
:103A4000B0925E0263E1689F9001699F300D11247E
:103A5000C20FD31FF3018181833040F082E090E0F8
:103A6000FA019183808386EF9FEFD1CF2A012B81CA
:103A70003C81232BF1F4288139819F8191FF2EC055
:103A8000232B09F46FC0209117049A81422F490F0C
:103A90005527551FBA0141E050E06138710514F017
:103AA00050E040E0452B09F45DC02A87920F9093C7
:103AB00017048150823008F481C066DF882309F43E
:103AC000D8C0F3018181813009F48DC008F47BC036
:103AD000823009F4C6C090E080E0ADC0232B09F429
:103AE00041C0209116049A81E22FE90FFF27FF1FA2
:103AF00041E050E0ED3FF10514F050E040E0452B8F
:103B000089F12A87920F90931604D3CFA081B181B7
:103B1000A20FB31F11966C91060F111D0196295F1C
:103B20003F4F8417950794F38D859E85089F10015C
:103B3000099F300C189F300C1124C114D104D1F40A
:103B40008F8184FF17C00E945226F5E02F0E311C92
:103B500021E08215930508F420E0A701435F5F4F41
:103B600021110EC082E090E0F2019183808387EF03
:103B70009FEF4DCF0E9452262FEF221A320AE8CF34
:103B800088819981E80EF91EF70114830383FFEF02
:103B9000CF1ADF0A7A018A818C151D0409F00CF412
:103BA0008CCFE881F981EE0DFF1D428150E030E0BD
:103BB00020E010E000E090E080E0B3CFF12CE12CB9
:103BC000D12CC12CE8CF81E090E09C838B83F1DA8B
:103BD000882309F480CF81E090E00E94561580E4AC
:103BE0000E94641578CF89899A89019661F083E0F3
:103BF00090E09C838B8382E090E00E94561580E4E5
:103C00000E945E1568CF8D819E8120915102309176
:103C1000520282179307D1F46091550270915602B7
:103C2000AE014F5E5F4F80915302909154020E940B
:103C3000DB280097E1F2789422E030E0F201318352
:103C40002083892B99F08DEF9FEFE1CE89288A2878
:103C50008B2869F6892B59F6CE0167DE188A1F86F4
:103C6000E8CF82E090E09C838B8335CF90E080E0CA
:103C7000CECE82E090E0F2019183808385EF9FEFCA
:103C8000C6CE8F929F92AF92BF92CF92DF92EF9269
:103C9000FF920F931F93CF93DF93EA018C01060FDE
:103CA000171FF8018181833098F082E090E09983BA
:103CB000888386EF9FEFDF91CF911F910F91FF9047
:103CC000EF90DF90CF90BF90AF909F908F9008952E
:103CD0008091120490911304892B61F081E090E0AF
:103CE0002091140430911504232B11F490E080E00E
:103CF000892B39F482E090E0998388838EEF9FEFDF
:103D0000DACF42DE882309F4DFC0F80181818130F7
:103D100009F495C0E8F0823099F4209114043091B0
:103D20001504E0911204F091130490E080E041E06A
:103D300050E02817390709F0BDC03BDA811117C0E0
:103D4000789481E090E09983888390E080E0B3CF1D
:103D50002091140430911504E0911204F0911304A1
:103D600090E080E041E050E02817390741F481E01D
:103D700090E00E94561580E40E946415E1CF6381B3
:103D80007481672B11F05483438301967396ECCFB3
:103D9000E0911204F0911304E00FF11F23813481AC
:103DA00022303105D9F4218932892F3F3F4FB1F4B8
:103DB00025813681409151025091520224173507D6
:103DC00061F5AF014F5E5F4F6091550270915602F1
:103DD00080915302909154020E94DB28EFEFCE1A9B
:103DE000DE0AEE0AFE0A0D5E1F4F40911404509148
:103DF000150470E060E0C416D506E606F7063CF54B
:103E0000009731F27894892B09F49BCF82E090E0FF
:103E1000998388838DEF9FEF4ECFC114D104E104C5
:103E2000F104E1F6232BD1F6CF017FDDE0911204FE
:103E3000F0911304E00FF11F108A1786CFCF10E026
:103E400000E090E080E0C12CD12C7601CECF00972D
:103E5000C9F610E000E0812C912C540183E0E82E9B
:103E6000F12C1AC0E0911204F0911304E00FF11F3D
:103E700083819481029749F4F482E38282E090E0A6
:103E80000E94561580E40E945E15FFEF8F1A9F0A6C
:103E9000AF0ABF0A0D5E1F4F809114049091150464
:103EA000B0E0A0E088169906AA06BB06DCF290E016
:103EB00080E0A8CF638174816230710511F454836E
:103EC00043830196739635CF82E090E0998388838F
:103ED00085EF9FEFF0CE0097B9F48FEFFB01808361
:103EE00020915B0230915C0243E1429FC001439FFD
:103EF000900D1124E0911204F0911304E80FF91FC2
:103F00008285FB01818308950C940D1588E090E073
:103F1000FA019183808390E080E00895109211046B
:103F200010921004E2E1F4E086E0DF011D928A9530
:103F3000E9F788E19BE190930F0480930E040895C4
:103F400080910E0490910F0408952F923F924F920A
:103F50005F926F927F928F929F92AF92BF92CF9219
:103F6000DF92EF92FF920F931F93CF93DF93CDB722
:103F7000DEB72F970FB6F894DEBF0FBECDBFF89413
:103F8000E0911004F09111043196F0931104E09344
:103F9000100478944090120450901304411451047A
:103FA00009F40CC2E0911404F0911504EF2B09F40C
:103FB00005C22D8749875A876B877C8798878F83AF
:103FC0001201B12CA12C10E000E08091140490911A
:103FD0001504A816B90618F40115110529F1F8946D
:103FE0008091100490911104019790931104809393
:103FF00010047894C8012F960FB6F894DEBF0FBE58
:10400000CDBFDF91CF911F910F91FF90EF90DF9087
:10401000CF90BF90AF909F908F907F906F905F9068
:104020004F903F902F9008957101E418F508D10149
:1040300017968C91179781FD54C013968D919C9182
:104040001497039709F04DC015968D919C91EF81BF
:10405000F8858E179F0709F044C0B50190E080E015
:104060007FD48A8320911204309113043D832C83E2
:104070003D85332309F44CC04C815D81452B09F407
:104080009AC18091140490911504A816B90608F0FD
:1040900092C1C501D8D88823E9F06C817D816E0D6D
:1040A0007F1D7D836C83DB011F968D919C91892BF5
:1040B00089F0D12CC12CF12CE12CAC81BD81129660
:1040C0008C9112978E151F0409F094F450961C924F
:1040D0001E921F972A81222321F0B50190E080E0F3
:1040E00041D43FEFA31AB30A43E1240E311C6DCF34
:1040F000AC81BD81ED91FC91EC0DFD1D858196811A
:104100000FD7BFEFEB1AFB0AEDE0CE0ED11CD5CFD7
:10411000EC81FD81309709F44EC180911404909197
:104120001504A816B90608F046C1EE0DFF1DFF875D
:10413000EE87C50188D88B83882339F1AE85BF858A
:104140001F968D919C915097019621E01D964D915F
:104150005C918417950709F020E02E831982712C59
:1041600010E000E0AE85BF8512968C91781608F4B9
:104170005DC0EE85FF85878590890196658576858A
:104180000E94CA38908B8787A5CFB1E0BE83E6CF67
:10419000992493946BC08BD6F6019683858382C055
:1041A000D601ED90FC90B7E06B9EE00CF11C112461
:1041B000F7016381748180818F3F61F121E030E0FC
:1041C00002C0220F331F8A95E2F7C901092E000CA5
:1041D000AA0BBB0BFB014081518162817381842357
:1041E0009523A623B72321E0892B8A2B8B2B09F457
:1041F00020E0D4012C93D70111968C91F6012385F0
:104200003485820F932F911D880E991E1486138674
:1042100063949BC0418150E0C4010E942139EBCFDF
:10422000998206EF1FEFC5C01982C3C0F981F11151
:10423000A0CFEDE07E9E70011124AE85BF85CD90AC
:10424000DC90CE0CDF1C15D49D838C83BB81BB23FB
:1042500009F49ECF81E0EE85FF8527853089232BE9
:1042600009F080E0982E882309F458C0672D8E85C8
:104270009F850DD8D60118969C938E93179761E071
:1042800070E0C2D4EE85FF85218932892F3F320745
:1042900009F481CFBC01C901CFD7D60116969C93F2
:1042A0008E931597D60115968D919C911697009730
:1042B00009F4B6CFEC81FD818E0F9F1F1A969C9357
:1042C0008E931997AE85BF85ED91FC911197EE0EF7
:1042D000FF1EF70121853285148613861A968C916C
:1042E000870DD9018D93711016C0EE85FF858781EA
:1042F00084FF11C049855A856B857C85F90141830E
:10430000528363837483F701838594850496A80F91
:10431000B91F14861386F701B287A187D6011596B7
:104320008D919C911697892B09F443C0EE85FF85EA
:1043300025813681809151029091520228173907C8
:1043400079F019968D909C90612CD60112968C91E3
:104350001297681608F424CF1A969C928E92199799
:10436000BE81BB2309F460CF61E070E0F601878174
:1043700090854AD4D6011796ED90FC901897159623
:104380004D915C91E1E0F0E0BA81BB2311F0F0E0E7
:10439000E0E00C811D819C01B501882799278E1BC7
:1043A0009F0B6AD38C01892B21F0F60185819681C0
:1043B000B7D57394D7CE0FEF1FEF8CCE10E000E08F
:1043C0000ECE2F923F924F925F926F927F928F927A
:1043D0009F92AF92BF92CF92DF92EF92FF920F9394
:1043E0001F93CF93DF93809112049091130410E0F8
:1043F00000E0892BA9F0C8DA0AEF1FEF882381F0CB
:104400002090140430901504C0911204D09113042C
:10441000D12CC12C10E000E02C143D04A9F47894B8
:10442000C801DF91CF911F910F91FF90EF90DF9026
:10443000CF90BF90AF909F908F907F906F905F9044
:104440004F903F902F900895C6010E942319882312
:1044500009F18B819C810397E9F48F859889892BD9
:10446000C9F0B60190E080E07BD221E030E0882303
:1044700011F030E020E044245524421A530AB12CB4
:10448000A12C912C812C8A818815190409F038F40B
:10449000188A1F864FEFC41AD40A6396BDCFE881ED
:1044A000F981EA0DFB1D85819681892BA1F161E0DF
:1044B00070E087819085A8D33C01DBD28C01E88134
:1044C000F981EA0DFB1D8185928525813681200FBA
:1044D000311FAC01421B530B9A0147815085421B8F
:1044E000530B70E060E00E942A39E881F981EA0DFF
:1044F000FB1DE780F084458156819301B601C2011E
:10450000BBD28C01892B39F0E881F981EA0DFB1DC2
:104510008581968105D55FEF851A950A8DE0A80EF5
:10452000B11CB1CF31CA789408952F923F924F9227
:104530005F926F927F929F92AF92BF92CF92DF92E3
:10454000EF92FF920F931F93CF93DF9300D000D091
:10455000CDB7DEB7009112041091130499249394FF
:104560000115110509F43EC0A0901404B090150483
:104570000BDA982E8823B1F11092130410921204D2
:10458000109215041092140410921604109217043D
:104590008FEF9FEFDC0180935B0290935C02A0930E
:1045A0005D02B0935E0278947FD31E830D83C12C8D
:1045B000D12C7601C501B0E0A0E089839A83AB835A
:1045C000BC8322242A94322C89819A81AB81BC81BC
:1045D000C816D906EA06FB06F4F0C801A1D480E4A7
:1045E0000E946415892D26960FB6F894DEBF0FBE83
:1045F000CDBFDF91CF911F910F91FF90EF90DF9092
:10460000CF90BF90AF909F907F906F905F904F90B2
:104610003F902F900895AD81BE8115968D919C910C
:104620001697209151023091520282179307D1F4CC
:1046300051968D919C91EED5ED81FE818081918185
:10464000B12CA12C412C512C3201892B89F5BFEFC3
:10465000CB1ADB0AEB0AFB0AED81FE817396FE831F
:10466000ED83B2CFC114D104E104F10429F7892B01
:1046700019F7ED81FE81818992898F3F980709F0B2
:1046800029D5AD81BE8152963C922E925197D4CFBE
:104690008A0D9B1DDC018D919C91009709F040D4FF
:1046A000BFEF4B1A5B0A6B0A7B0AEDE0AE0EB11C42
:1046B000AD81BE818D919C91119712964C9150E0E5
:1046C00070E060E044165506660677060CF328D4C1
:1046D000BECFCF93DF93EA0128DF811109C082E0CA
:1046E00090E09983888385EF9FEFDF91CF910895C4
:1046F00081E090E00E94561581E090E099838883E4
:1047000090E080E0F2CF11DF10920F0410920E04BF
:10471000089542E050E066EF72E00C947415FF9249
:104720000F931F93CF93DF938A01EC01C60FD71F1E
:10473000F980B9D20897F816190671F068F082E08E
:1047400090E0F801918380838EEF9FEFDF91CF910E
:104750001F910F91FF9008956C817D818E819F81C3
:104760004B810E940918811108C082E090E0F80195
:104770009183808384EF9FEFE9CFF9800E94041832
:104780004F2D50E0BE01685F7F4F0E942139898123
:104790000E94731881E090E0F8019183808390E09B
:1047A00080E0D4CFDF92EF92FF920F931F93CF93CD
:1047B000DF938A01EC01C60FD71F0E9404187C0109
:1047C000D98071D2DD2059F0029721E030E0D8166F
:1047D000190619F010F030E020E0232B79F482E084
:1047E00090E0F801918380838EEF9FEFDF91CF916E
:1047F0001F910F91FF90EF90DF900895EF2841F403
:1048000082E090E0F8019183808384EF9FEFEECF08
:10481000F9800E9404184F2D50E0BE016E5F7F4F5B
:104820000E94213989810E94731881E090E0F8018B
:104830009183808390E080E0D9CF89E893E29093E0
:104840001904809318040895809118049091190414
:1048500008950895FC011182108293838283089544
:10486000DB011D921C92DC011296ED91FC911397D5
:104870007183608313967C936E9312970895FC0165
:1048800080819181DB018D939C93A081B1811097F0
:1048900041F08D919C9191838083892B11F4F38356
:1048A000E2830895FC0180819181DB018D939C93CB
:1048B000892B11F473836283718360830895FC01F3
:1048C00011821082938382830895CF93DF931F9286
:1048D0001F92CDB7DEB71A821982F894BE016F5FBE
:1048E0007F4F8FE194E0CBDF89819A81009709F0B7
:1048F00017D389819A81892B89F7BE016F5F7F4F1A
:1049000083E294E0BCDF89819A81009709F008D3A3
:1049100089819A81892B89F778940F900F90DF9184
:10492000CF910895CF93DF931F921F92CDB7DEB73B
:104930001A821982F894BE016F5F7F4F8BE194E079
:104940009EDF89819A81009709F0EAD289819A8154
:10495000892B89F778940F900F90DF91CF9108956C
:1049600081E0089590E080E00895EF92FF920F9328
:104970001F93CF93DF931F921F92CDB7DEB71A829A
:10498000198280911A0407EF1FEF8823A1F1F89490
:10499000BE016F5F7F4F83E294E071DF789489817D
:1049A0009A81EE24E394F12C892B51F4F894BE0102
:1049B0006F5F7F4F8FE194E062DF7894F12CE12C00
:1049C00089819A810EEF1FEF0097A9F0FC014281C7
:1049D000538164E070E076D68C01892B61F0F89405
:1049E00069817A81C701880F991F880F991F815E9D
:1049F0009B4F58DF7894C8010F900F90DF91CF91B3
:104A00001F910F91FF90EF9008950F931F93CF93F5
:104A1000DF9300D01F92CDB7DEB71C821B821A82B3
:104A2000198280911A0407EF1FEF8823C1F0AE01AD
:104A30004D5F5F4F64E070E0CE010196B6D68C0109
:104A4000892B69F4E981FA818B819C81938382832C
:104A5000F89469817A818BE194E002DF7894C8014F
:104A60000F900F900F900F90DF91CF911F910F91AA
:104A70000895BBD7049608958F929F92AF92BF92EC
:104A8000CF92DF92EF92FF920F931F93CF93DF931A
:104A90001F921F92CDB7DEB71A821982BC016F5FD9
:104AA0007F4F6330710598F0AA24AA94BA2CC501EF
:104AB0000F900F90DF91CF911F910F91FF90EF908A
:104AC000DF90CF90BF90AF909F908F900895411549
:104AD000510551F3480159018A016C01CADF88155B
:104AE000990511F7E114F104F9F28E0D9F1DA81636
:104AF000B906D0F280911A048823F1F0F894B50138
:104B0000645071099701AE014F5F5F4FC801049671
:104B1000E1D65C01892B71F489819A81F801938334
:104B20008283C601880F991F880F991FB801815E83
:104B30009B4F96DE7894BBCF87EFA82EBB24BA9408
:104B4000B6CFAF92BF92CF92DF92EF92FF920F93C8
:104B50001F93CF93DF931F921F92CDB7DEB71A82B8
:104B60001982892B09F047C06115710509F443C00A
:104B70004115510509F43FC02115310509F43BC029
:104B800001151105C1F180911A048823B9F1790149
:104B90006A015B01F894BE016F5F7F4F8BE194E087
:104BA0006EDE789489819A81009759F1DC01129622
:104BB0006D917C91A8010496A6D68C01E981FA81B9
:104BC000D501ED93FC93828193810496F601918344
:104BD00080834FDFD7018D939C93C8010F900F9076
:104BE000DF91CF911F910F91FF90EF90DF90CF90C9
:104BF000BF90AF9008950FEF1FEFEFCF07EF1FEFBC
:104C0000ECCF0EEF1FEFE9CFCF93DF93EC01672BD3
:104C100071F4F4D68C179D0760F0E7D62496C80F80
:104C2000D91FE6D68C0F9D1FDF91CF910895E3D653
:104C3000F1CF90E080E0F8CF0F931F93CF93DF93F5
:104C400020911A0421112BC08B01EC018FE194E01B
:104C500001DE83E294E0FEDD8BE194E0FBDD97D0A2
:104C60000097C1F4CBD670E060E0CEDF4FE552E0B4
:104C700062E070E081D1009769F480915F029091C9
:104C80006002CED6B801CE0103D5009719F421E019
:104C900020931A04DF91CF911F910F91089584EF13
:104CA0009FEFF8CFA8C6AAC6CF93DF93AAD6EC0190
:104CB000892B11F40ADE36DECE01DF91CF91089503
:104CC000CF93DF939ED6EC01892B09F4FEDDCE0154
:104CD000DF91CF91089580915F02909160020895D5
:104CE000CF93DF9380911A04D0E0C0E08823D1F005
:104CF0009CD6EC01892BB1F4E8DD14DE80915F02D3
:104D000090916002E7D1E8D2EC01892B59F48FE150
:104D100094E0D5DD83E294E0D2DD8BE194E0CFDD59
:104D200010921A04CE01DF91CF910895EF92FF9275
:104D30000F931F93CF93DF93EC017A018B010F5FE9
:104D40001F4F0E9DA0010F9D500D1E9D500D112453
:104D500070E060E00E942A3990E080E0F0E0E0E05E
:104D60002FEFE816F90639F4DF91CF911F910F91DB
:104D7000FF90EF9008951A8219822883309711F0DE
:104D8000D283C1830196FE01C00FD11FEACFCF921B
:104D9000DF92EF92FF920F931F93CF93DF9308EE72
:104DA00016E00C7F43E050E061E672E087E692E0B7
:104DB0001CD481E6E82E82E0F82E97E6C92E92E018
:104DC000D92ECFE9D7E0D7014D915D917D01F60154
:104DD000619171916F01198308835D834C835B83BB
:104DE0004A837F836E839B012F5F3F4F249FC001C7
:104DF000259F900D349F900D112499878887011568
:104E0000110511F0C80192DF88859985080F191FD7
:104E10002A96F7E6EF16F2E0FF06A9F6E9E2F4E0DB
:104E20008CEB92E0DF019C011D9221503040E1F7B4
:104E300010922804109227041092BE071092BD070A
:104E40001092C2071092C1071092C0071092BF07BC
:104E50001092C4071092C3071092C6071092C5079C
:104E60001092C8071092C7071092CC071092CB0778
:104E70001092CA071092C9071092CE071092CD0760
:104E80001092D0071092CF0710929C0710929B07A8
:104E900010929E0710929D0790E080E0DF91CF91E5
:104EA0001F910F91FF90EF90DF90CF9008950097A2
:104EB000F1F0F894A7E6B2E0EFE9F7E030E020E0A7
:104EC0004D915D9148175907A8F0428153814115D2
:104ED000510581F08AE0829FF001839FF00D11243B
:104EE000E156F84F80819181009759F4789490E0D1
:104EF00080E008952F5F3F4F3A962330310501F748
:104F0000F5CFDC0111966D917C91718360834150E6
:104F1000510953834283FC012193CF017894089572
:104F2000009749F1DC018E91853041F4E0919D07B5
:104F3000F0919E073097F9F0CD0119948530D8F49F
:104F4000282F30E0F8948FEF8C938AE0829FF00155
:104F5000839FF00D1124E156F84F808191811296C4
:104F60009C938E931197B183A08382819381019644
:104F70009383828378940895CF92DF92EF92FF9289
:104F80000F931F93CF93DF939C018CE294E08C7F6F
:104F90004115510509F49BC02115310509F497C04D
:104FA0006115710509F493C07A01AB01B9016D5F18
:104FB0007F4F6C7F9B012F5F3F4F249F8001259F78
:104FC000100D349F100D1124F8942091BD073091DD
:104FD000BE07232B59F42091C5073091C607211530
:104FE000310569F12017310708F058C02091C70733
:104FF0003091C807232B91F42091C5073091C60743
:10500000820F931F2091CF073091D00721153105D2
:1050100009F441C02017310708F056C07894CFEF4B
:10502000DFEF86EF9FEFF701D183C083DF91CF9150
:105030001F910F91FF90EF90DF90CF900895C3E004
:10504000D0E0C0902704D090280429EB32E02C193E
:105050003D092017310710F32AE02C9FF0012D9F06
:10506000F00D1124E156F84F9183808355834483DA
:10507000538342837783668311870087009709F003
:1050800055DE0C0D1D1D1093280400932704789401
:1050900090E080E0C8CFC4E0D0E0D3CFC3E0D0E060
:1050A0002AE02C9FF0012D9FF00D1124E156F84FBE
:1050B00091838083558344835383428377836683BC
:1050C000009729F333DEE3CFC4E0D0E0E9CF8FEFE0
:1050D0009FEFACCF9C010397029708F069C0F8944A
:1050E00084E09AE0482F50E0241735070CF44DC0B7
:1050F00091E08AE0829FF001839FF00D1124E15638
:10510000F84F118210821582148213821282178244
:1051100016829923B1F18091BD079091BE07892B2A
:10512000A9F42091C5073091C6072115310571F00A
:105130008091270490912804821B930B909328045C
:10514000809327041092C6071092C5078091C70765
:105150009091C807892BA9F42091CF073091D007EF
:105160002115310571F08091270490912804821B4C
:10517000930B90932804809327041092D0071092E9
:10518000CF07789490E080E00895949FF001959F78
:10519000F00D1124E156F84F40815181452B31F437
:1051A00040855185452B11F481509CCF90E0A1CFD3
:1051B0008FEF9FEF08954115510549F1009739F19F
:1051C0006115710521F1F89420919B0730919C079E
:1051D000232BB9F420919D0730919E07232B89F44E
:1051E00090939C0780939B0770939E0760939D0705
:1051F000789425E030E090E080E0FA01318320836C
:10520000089578942FEF3FEF86EF9FEFF6CF8FEF63
:105210009FEF0895059769F4F89410929C071092F7
:105220009B0710929E0710929D07789490E080E073
:1052300008958FEF9FEF08956115710519F4F0E05F
:10524000E0E011C08530910581F4E0919B07F09179
:105250009C073097A1F3CB0101961995009779F33C
:10526000FC0185E08193CF0108959C012350310911
:105270002230310520F72AE0289FD001299FB00D68
:105280001124A156B84F2D913C911197232BB9F2BF
:1052900016962D913C9117972617370780F2F894B0
:1052A00012962D913C9113972115310529F0ED911E
:1052B000FC911197309711F47894C1CF41815281BC
:1052C00011965C934E932150310913963C932E9383
:1052D000129781937894C7CFE5EEF6E086EBDF0175
:1052E0001D928A95E9F7E9E2F4E08CEB92E0DF01A8
:1052F0009C011D9221503040E1F710922804109239
:105300002704EFE9F7E082E3DF011D928A95E9F7D0
:10531000EBE9F7E084E0DF011D928A95E9F790E080
:1053200080E00895CF93DF93C0916D02D0916E021B
:10533000CF3FDC0759F423D490936E0280936D0223
:1053400097FF09C0D0936E02C0936D0284EF9FEF68
:10535000DF91CF91089590E080E0FACF82309105FF
:1053600028F48093D10790E080E008958FEF9FEFBD
:1053700008954F925F926F927F92AF92BF92CF92B9
:10538000DF92EF92FF920F931F93CF93DF931F92C1
:105390001F92CDB7DEB71A821982009709F479C03F
:1053A0006115710509F475C020916D0230916E028E
:1053B00007EF1FEF2F3F3F4F09F445C06B015C0122
:1053C000412C512C3201F12CE12C10E000E09E0127
:1053D0002F5F3F4FA6014E195F09B5016E0D7F1D6E
:1053E00080916D0290916E0229D4892B09F04BC0F7
:1053F00089819A81009741F4E114F10429F4209104
:10540000D107222309F442C0E80EF91EEC14FD0472
:10541000D0F480E8481684E858068EE168067104E6
:1054200020F560E070E0CB010E94F8322AE0420EE5
:10543000511C611C711C0A3F4FEF140721F0043FFF
:105440008FEF1807A1F4C8010F900F90DF91CF9153
:105450001F910F91FF90EF90DF90CF90BF90AF9092
:105460007F906F905F904F90089501EF1FEF81E064
:1054700090E0013F2FEF120711F090E080E0892BC0
:1054800009F4A5CFE0CF04EF1FEFDDCF0AEF1FEF48
:10549000DACF0FEF1FEFD7CF4F925F926F927F92CD
:1054A000AF92BF92CF92DF92EF92FF920F931F9332
:1054B000CF93DF931F921F92CDB7DEB71A82198266
:1054C000009709F479C06115710509F475C0209140
:1054D0006D0230916E0207EF1FEF2F3F3F4F09F42F
:1054E00045C06B015C01412C512C3201F12CE12CA7
:1054F00010E000E09E012F5F3F4FA6014E195F09AB
:10550000B5016E0D7F1D80916D0290916E024CD39E
:10551000892B09F04BC089819A81009741F4E114ED
:10552000F10429F42091D107222309F442C0E80EA6
:10553000F91EEC14FD04D0F480E4481682E4580609
:105540008FE06806710420F560E070E0CB010E94F6
:10555000F8322AE0420E511C611C711C0E3F4FEFC5
:10556000140721F0043F8FEF1807A1F4C8010F9032
:105570000F90DF91CF911F910F91FF90EF90DF90EF
:10558000CF90BF90AF907F906F905F904F900895B5
:1055900002EF1FEF81E090E0023F2FEF120711F0C2
:1055A00090E080E0892B09F4A5CFE0CF04EF1FEF56
:1055B000DDCF0EEF1FEFDACF0FEF1FEFD7CF8091C8
:1055C0006D0290916E028F3F980749F0D0D2892BDF
:1055D00049F48FEF9FEF90936E0280936D0290E0FD
:1055E00080E0089584EF9FEF0895CF92DF92EF92CD
:1055F000FF920F931F93CF93DF9321E04115510545
:1056000009F020E04150510921112CC0DC01FB01BF
:10561000D12CC12C21E022C03FEFC31AD30A7D0157
:105620000D911D91E701EA80FB80E016F106A8F4D8
:1056300020813181E280F380F182E0823383228312
:10564000ED90FC9011979D0122503109E901F982FA
:10565000E88211961C930E9320E03296C416D5066C
:10566000D8F2D2CFDF91CF911F910F91FF90EF90A1
:10567000DF90CF900895FC01680F791F90E080E0E3
:10568000E617F70709F408952191820F911DF8CFCD
:105690002091D207211113C045DE009791F410929A
:1056A000D8071092D7071092D6071092D5071092FC
:1056B000D4071092D30721E02093D207089584EFF6
:1056C0009FEF0895AF92BF92CF92DF92EF92FF9239
:1056D0000F931F93CF93DF93009709F460C0463078
:1056E000510508F45CC02091D207C7EFDFEF2223F9
:1056F00009F449C08C01060F171FF801C080D18042
:10570000C114D10409F44EC096012A5F3F4F4217DD
:10571000530708F447C07C018091D7079091D807C0
:1057200093838283B6016C5F7F4F5801A60EB71E2C
:10573000C801A1DFF5019183808364E070E0C801B6
:1057400018DEEC01892BF9F481E090E007DEB60168
:10575000C80104960EDEEC01892B91F462E070E042
:10576000C50107DEEC01892B59F4C701D9DB809113
:10577000D7079091D80701969093D8078093D707C1
:1057800090E080E0EBDDCE01DF91CF911F910F9192
:10579000FF90EF90DF90CF90BF90AF900895CFEF44
:1057A000DFEFF1CFC9EFDFEFEECF6F927F928F92F5
:1057B0009F92AF92BF92CF92DF92EF92FF920F93A0
:1057C0001F93CF93DF9300D01F92CDB7DEB7009722
:1057D00009F47AC04115510509F476C02091D20729
:1057E00007EF1FEF222309F44DC03A017B015C0152
:1057F00064E070E0CE0101964FDE8C01892B09F048
:1058000041C009811A810115110509F45AC04801E6
:1058100086E0880E911CB701680D791D80916F029A
:105820009091700209DD6C01009709F450C0A70146
:1058300070E060E00E942A3989819A81AB81BC8145
:10584000EC0CFD1CF70181939193A193B1937F011F
:1058500081E090E083DDB801C7011EDE892B31F5C0
:1058600062E070E0C701800F911F16DE8C01892B6A
:10587000E9F490E080E072DDF501D182C082F301AD
:1058800091828082C8010F900F900F900F90DF914E
:10589000CF911F910F91FF90EF90DF90CF90BF902D
:1058A000AF909F908F907F906F90089590E080E0F0
:1058B00055DDF50111821082F30111821082C601BB
:1058C0002FDB09EF1FEFDECF0FEF1FEFDBCF06EF70
:1058D0001FEFD8CF0097A1F04115510589F0211590
:1058E000310571F0F90136966E177F0748F0DC013B
:1058F0002D933C93DA01ED93FC9390E080E00895C2
:105900008FEF9FEF0895AF92BF92CF92DF92EF9209
:10591000FF920F931F93CF93DF93009709F45FC01B
:105920004115510509F45BC06530710508F457C095
:105930002091D207C7EFDFEF222391F1DC01CD9058
:10594000DC9011971296ED91FC9196012A5F3F4FE2
:10595000C9EFDFEF2617370719F5C091D307D091AC
:10596000D407209749F521E030E03093D407209305
:10597000D3077A018C01F093D607E093D50756013F
:10598000B4E0AB0EB11CB50176DE0A0D1B1DF801AB
:10599000208131818217930729F5D701CD92DC92BE
:1059A000CE01DF91CF911F910F91FF90EF90DF908B
:1059B000CF90BF90AF9008952091D5073091D60732
:1059C0002F5F3F4FCCEFDFEFE217F30790F2CBEF03
:1059D000DFEF2E173F0768F2D0E0C0E0CACFCFEF6D
:1059E000DFEFDECFC3EFDFEFDBCF84E090E00895A1
:1059F00082E090E008958CEF9FEF089580E290E0C0
:105A000008951092D8071092D7071092D6071092D7
:105A1000D5071092D4071092D30790E080E0089544
:105A20009093700280936F0208958091D20788232B
:105A300091F0C5DD009789F41092D8071092D7072E
:105A40001092D6071092D5071092D4071092D30760
:105A50001092D207089590E080E00895009749F0F1
:105A60006115710531F0FC0111821082FB01118278
:105A700010820895F3CF26E030E040E855E260E080
:105A800070E090E080E000C08130910571F01CF47E
:105A9000892B39F008958230910551F0039759F020
:105AA000089586EE97E00C94FD3583E898E0FBCFEF
:105AB00080E299E0F8CF8DEB99E0F5CF1F920F923D
:105AC0000FB60F9211240BB60F922F933F934F9363
:105AD0005F936F937F938F939F93AF93BF93EF9356
